:020000040800F2
:10000000E030002049010008F527000833250008EA
:10001000F12700089B110008B92B00080000000020
:10002000000000000000000000000000212800087F
:100030009F11000800000000F7270008232800088F
:100040006301000863010008630100086301000800
:1000500063010008630100086301000863010008F0
:1000600063010008630100086301000863010008E0
:1000700063010008630100086301000863010008D0
:1000800063010008630100086301000863010008C0
:1000900063010008630100086301000863010008B0
:1000A00063010008630100086301000863010008A0
:1000B0006301000863010008630100086301000890
:1000C0006301000863010008630100086301000880
:1000D00063010008A92B0008630100086301000800
:1000E0006301000863010008630100086301000860
:1000F0006301000863010008630100086301000850
:10010000630100086301000863010008630100083F
:10011000630100086301000863010008630100082F
:10012000630100086301000863010008630100081F
:10013000DFF810D000F056FD0048004731210108DB
:10014000AFF30080E03000200648804706480047B3
:10015000FEE7FEE7FEE7FEE7FEE7FEE7FEE7FEE777
:10016000FEE7FEE791280008310100080C490878F5
:1001700020B1401E0870491C085C70470021072010
:10018000ABBE7047064A1178022902D34FF0FF3008
:100190007047034B5B1C5854491C1170704700009A
:1001A00038000020202A04DB203A00FA02F1002067
:1001B00070479140C2F1200320FA03F319439040A5
:1001C0007047202A04DB203A21FA02F00021704710
:1001D00021FA02F3D040C2F12002914008431946AF
:1001E0007047000000487047B466010810B5044627
:1001F000FFF7F8FF0068005D00F0010010BDA0F1FE
:100200006101192900D82038704700000048704764
:10021000B866010840EA01039B0703D009E008C95A
:10022000121F08C0042AFAD203E011F8013B00F8BB
:10023000013B521EF9D27047D2B201E000F8012B07
:10024000491EFBD270470022F6E710B513460A4656
:1002500004461946FFF7F0FF204610BDCAB2401E03
:1002600010F8011F8A4202D00029F9D100207047FE
:10027000421C10F8011B0029FBD1801A704710B5F1
:10028000002200E0521C835C8C5CA34201D1002B55
:10029000F8D1D8B2E1B2401A10BD30B50446002002
:1002A000034600E05B1C934203D2E05CCD5C401B44
:1002B000F8D030BDFFF7E3BF034611F8012B00F87B
:1002C000012B002AF9D11846704730B505460020A9
:1002D000034600E05B1C934205D2EC5CC85C201A2C
:1002E00001D1002CF6D130BD30B503461D783DB1AB
:1002F0000A4612F8014B1CB1AC42FAD15B1CF5E77F
:10030000181A30BD10B508E00A4602E0A34208D032
:10031000521C1378002BF9D1401C0478002CF3D127
:10032000002010BD07280FD2DFE800F00406080EF9
:100330000E0C0A0005A070470AA0704713A0704772
:100340001DA0704722A070472BA070474E6F2065FC
:1003500072726F7220286572726E6F203D20302994
:100360000000000045444F4D202D2066756E6374DB
:10037000696F6E20617267756D656E74206F75743C
:10038000206F662072616E67650000004552414E25
:100390004745202D2066756E6374696F6E20726507
:1003A00073756C74206E6F742072657072657365FE
:1003B0006E7461626C650000454E4F4D454D202DB9
:1003C000206F7574206F66206D656D6F7279000007
:1003D00045494E56414C202D20696E76616C69640A
:1003E00020617267756D656E7420746F2066756E1E
:1003F0006374696F6E000000556E6B6E6F776E20D0
:100400006572726F72000000F0B480EA0102D40FCE
:100410004200B2EB410F02D20246084611464A00A2
:1004200042D0C30DDDB2C1F3C752AD1A202D35DA6B
:10043000C1F3160141F4000204B15242C5F1200695
:1004400002FA06F12A411044B3EBD05F23D0C4B1C5
:10045000012DA0EBC35009DCF0BC4FF0004202EAD2
:10046000C352DBB200F5000000F078B9400000F1A3
:10047000807000EBC350A0F1807040EAD170490059
:1004800009E0490841EAC071A0EBC35000F5000043
:10049000400800EBC350F0BC00F057B961420122A4
:1004A00002EB4101001BF6E7F0BC704781F0004110
:1004B000AAE780F00040A7E780EA010210B502F049
:1004C0000043400022D04A001FD0010E01EB126110
:1004D000C0F35600C2F3560240F4000042F400029A
:1004E000A0FB022000047F39140400D0401C50EA15
:1004F000124001D44000491EC2B20C0604EBD010D9
:10050000401C4008802A02D003E0002010BD20F0EB
:100510000100002900DA0020184310BD30B480EA41
:10052000010202F0004530F0004221F0004013D0FB
:1005300090B1C30DD40DC2F31601C0F31600E41A36
:1005400041F4000140F400027D34914201D3641C67
:1005500000E04900002C02DA30BC002070474FF464
:1005600000000023914201D3891A034340084FEA57
:100570004101F7D151B1914202D14FF0004105E064
:1005800002D24FF0010101E06FF0010103EBC45012
:10059000284430BC00F0D9B8C10F80EAE0700844AC
:1005A000CA079623002100F0D9B800F0004220F0DD
:1005B0000040C10DC0F3160040F400007F2901DAAD
:1005C00000207047962903DCC1F19601C84001E084
:1005D00096398840002AF4D04042704700F000422B
:1005E00030F000400AD0C10D01F56071C0F3160073
:1005F00042EA0151C20840071143704700200146FA
:10060000704701F0004330B421F0004150EA01028C
:1006100006D00A0DA2F56072C1F31301002A02DCB4
:1006200030BC00207047440F44EAC104C100E01808
:1006300030BC00EBC25000F088B80000002801DB9D
:10064000C0F10040002901DBC1F100418142704747
:10065000002801DBC0F10040002901DBC1F10041AD
:1006600088427047A0E8004FF0C040F804DB01B5B5
:10067000AFF30080BDE8024001C10020704700F1E7
:100680002C080C4658F8040DAFF3008058F8040D00
:100690008546200008BF012038E9F00018E9004F26
:1006A000704730B50B46014600202022012409E0A6
:1006B00021FA02F59D4205D303FA02F5491B04FA1B
:1006C00002F52844151EA2F10102F1DC30BD2DE92E
:1006D000F05F0546002092469B46884606468146C6
:1006E00040241BE02846414647462246FFF769FD65
:1006F00053465A46C01A914110D311461846224615
:10070000FFF750FD2D1A67EB01084F4622460120E6
:100710000021FFF747FD17EB00094E41201EA4F111
:100720000104DFDC484631462A464346BDE8F09FD7
:100730007CB50023CDE900330546684600F091FA08
:100740006946284602F011FB7CBD0029A8BF70470E
:10075000401C490008BF20F00100704710B4B0FAF7
:1007600080FC00FA0CF050EA010404BF10BC704792
:1007700049B1CCF1200421FA04F411FA0CF118BFAC
:10078000012121430843A3EB0C01CB1D4FEA00617B
:100790004FEA102042BF002010BC704700EBC3504E
:1007A00010440029A4BF10BC7047401C490008BF7A
:1007B00020F0010010BC7047420005D0C0F3C752C2
:1007C0005242914201DC0020704700EBC15070475B
:1007D000F0B400F0004221F0004120F00040CE0DC6
:1007E000C30DC1F3160141F40001C0F316004C42E1
:1007F000154640F40000761E09E010EB440002D5D7
:1008000082F0004240428842F7D840005B1EB3426B
:10081000F9DA18B1F0BC0021FFF7A0BF2846F0BC00
:1008200070472DE9FE4F804681EA0300C00F0C4659
:10083000009021F0004123F00045B8EB0200A941EF
:1008400005D24046214690461C460B46024623F000
:100850000040104347D0270DC7F30A00C3F30A51E5
:100860000290401A019040286BDAC3F3130040F461
:10087000801B0098924620B10023D2EB030A63EB61
:100880000B0B01985946C0F140025046FFF78AFC15
:1008900006460D4650465946019A00F0B5F910EB50
:1008A00008006141002487EA115284EAE7731A4381
:1008B00040D0009A62B3019A012A4FEA075215DC30
:1008C000001B61EB02014FF0004202EA0752CDE942
:1008D0000042001C41F5801132462B4600F003FA1D
:1008E00003B0BDE8F08F40462146F9E7001B61EBFD
:1008F0000201001C41F5801300185B412018A2F58D
:10090000001747EB030140EAD570B6196D4111E0BD
:100910006D084FEA360645EAC0754FEA0752001BDC
:1009200061EB0201001C41F5801149084FEA3000DB
:100930000019514132462B4603B0BDE8F04F00F09C
:10094000C3B90098012240000023D0EB020263EB00
:10095000E073009821464FEAE074B8EB000061EBC9
:100960000401E9E783F000435BE781F0004158E7C9
:100970002DE9FE4F81EA030404F0004421F0004118
:1009800000944FF0000B23F0004350EA01045ED0C6
:1009900052EA03045BD0C3F30A54C1F30A552C4452
:1009A000A4F2F3340194A0FB0254C1F3130141F407
:1009B0008011C3F3130343F4801301FB024400FBD3
:1009C000034E840A970A44EA815447EA8357A4FBFA
:1009D000076802958D0A05FB07854FEA932C04FBF7
:1009E0000C542705029D4FEA065847EA1637B5EB27
:1009F00008056EEB070C870E920E47EA811742EA54
:100A00008312A7FB0201B6EB0B0164EB00042B0D74
:100A100043EA0C335E1844EB1C50DA465146E7FBC0
:100A20000201C5F313044FEA0B3343EA14534FEAB0
:100A30000432019C43EA0603A4F10C040294009CD6
:100A4000CDE900B400F04FF903B0BDE8F08F00200D
:100A50000146F9E72DE9F04D81EA030404F0004B6B
:100A600021F0004514464FF0000A23F0004150EAFF
:100A7000050220D054EA01021DD0C5F30A570246F0
:100A8000C5F31303C1F31300C1F30A5640F48015F4
:100A900043F48013A7EB0608101BD64608F2FD3876
:100AA00073EB050002D308F1010801E092185B41E5
:100AB000B8F1000F03DA00200146BDE8F08D0020F8
:100AC0004FF48011064684460EE0171B73EB0507B2
:100AD00005D3121B63EB050306434CEA010C4908DE
:100AE0004FEA300092185B4150EA0107EDD152EA1B
:100AF000030012D082EA040083EA0501084305D00E
:100B0000101BAB4106D20122002306E000224FF069
:100B1000004302E06FF0010253101AEB06004CEBA9
:100B2000085110EB0A0041EB0B01BDE8F04D00F05D
:100B3000CBB8C1F30A52C1F3130140F2FF3341F4C1
:100B400080119A4202DA00200146704740F2334396
:100B50009A42A2F2334202DC5242FFF732BBFFF765
:100B600021BB10B500F0004420F00040C20DC0F3DE
:100B7000160040F400007F2A07DA7D2A00DA7D2281
:100B8000763A00FA02F1002008E0962A09DCA2F188
:100B9000760100FA01F1C2F19602D040FFF7D5FDCF
:100BA00001E0963A9040002C00D0404210BD000079
:100BB00030B5041E71F1000404DB4FF000444042E4
:100BC00064EB0101141E73F1000405DB1C464FF0B9
:100BD0000043524263EB0403994208BF904230BD88
:100BE00000207047064C074D06E0E06840F0010326
:100BF00094E8070098471034AC42F6D3FFF79CFA0C
:100C0000606A0108806A0108202A06DBCB17203AB7
:100C100041FA02F043EAE07306E041FA02F3D04001
:100C2000C2F1200291400843194670470FB40023D7
:100C300000B589B00CA900910B996FF00042CB6010
:100C40001E4B06931E4B07930423CDE901321D4A28
:100C5000089202466B46002000F028F909B05DF8C2
:100C600014FB70B586B006464FF0FF300091CDE919
:100C70000101002015460C4604903246694604A83E
:100C8000FFF7D4FF02460498211825B108B10846A1
:100C900000E020462860049800280DD0002A02DDDC
:100CA0000098884208D0081B0094CDE90104324620
:100CB000694604A8FFF7BAFF06B070BDE51000084A
:100CC00003110008ED01000810B5141E73F10004B3
:100CD00008DA401C41F1000192185B411A4301D12E
:100CE00020F0010010BD2DE9F04D92469B4611B158
:100CF000B1FA81F202E0B0FA80F220329046FFF7BA
:100D000051FA04460F4640EA0A0041EA0B015346F5
:100D10005A46084313D0114653EA010019D0C8F1CE
:100D200040025046FFF74DFA05460E4650465946DA
:100D30004246FFF737FA084305D0012004E0204679
:100D40003946BDE8F08D0020054346EAE0762C43A5
:100D500037430A986305E40AA0EB08000022FD0A65
:100D600044EA47540A3002D500200146E9E701056C
:100D700010196941DDE9084500196941BDE8F04DE8
:100D8000A2E700002DE9FF4F087883B09946FF28BD
:100D900005D0491C2D2804D00024002008E00020A4
:100DA0000BE00124F9E700EB800003EB4000491C55
:100DB0000B78FF2BF7D104B1404200230293147843
:100DC00019461D462D2C01D02B2C04D1521C2D2C44
:100DD00013D000240294AA461478FF2C0FD00A25C1
:100DE000A3FB057801FB05814FF0000C03FB0C1100
:100DF000521CE3194AEB0101EEE70124EAE78144C2
:100E000053EA010002D019F5C87F06DA03980021E1
:100E1000C0E9001107B0BDE8F08F0025AE4E2F46A7
:100E2000DFF8B882184600F0ACF9CDE90001B9F15D
:100E3000000002DAC9F1000400E004460023A74ADA
:100E40001AEB030B42EB045A12E0E00707D02A46E4
:100E5000334638464146FFF78BFD074688462A460B
:100E6000334610461946FFF783FD05460E466410CB
:100E7000002CEAD1DDE90001B9F1000F5A465346D2
:100E800006DAFFF7E7FD3A464346FFF7E3FD05E0E4
:100E9000FFF76EFD3A464346FFF76AFD029A0AB134
:100EA00081F00041039AC2E90001B3E72DE9FF4F49
:100EB0001F468DB0D7E901464FF0FF382E2045463A
:100EC0004FF000090B90B9696D1C0E988847396A7C
:100ED000824688470028F6D1BAF1FF3F0AD024F4B1
:100EE000D064002E11DDBAF12B0F08D0BAF12D0F0E
:100EF0000BD102E0404611B08DE744F48064B9693B
:100F00006D1C0E9888478246761E6946600501D59D
:100F10002D2000E02B208DF8000001F1010B0DF1D8
:100F2000200809E0B9696D1C0E98884782460F9821
:100F300044F40074761E0560002E02DDBAF1300F15
:100F4000F0D00B998A453ED144F0800406E00F9919
:100F5000681CA9F1010944F400740860B9696D1CAA
:100F6000761E0E98884782463028F0D02BE00B99E9
:100F70008A4505D1200603D444F08004761E18E08B
:100F8000504602F031F808B30DF11301761E44F417
:100F900000748B4508D2AAF130000BF8010B200633
:100FA00007D5A9F1010003E0200602D409F10100F0
:100FB0008146A00502D50F99681C0860B9696D1CAF
:100FC0000E9888478246002ED1DC53E0002E51DD7A
:100FD000BAF1650F02D0BAF1450F4BD1A00549D542
:100FE000B9696D1C24F44074761E0E9888478246B9
:100FF000002E0CDD2B2804D0BAF12D0F07D144F4BC
:101000008074B9696D1C0E9888478246761EE0058B
:1010100001D52D2100E02B2108F8011BCDF82C80F3
:1010200021E00DF12901761E44F4007488450CD2AC
:10103000AAF1300010F0FF0088F8000002D10B99EF
:10104000884509D908F1010806E0E00501D52448E2
:1010500001E042F20F708146B9696D1C0E98884715
:1010600082460F980560002E04DD504601F0BCFF5B
:101070000028D6D1F9690E988847FF208BF8000028
:1010800088F800000020069007904B466A4608A9A1
:1010900006A8FFF777FEA00502D46FF001002AE74B
:1010A00014F0240F0AD0E00714D1DDE906123868E5
:1010B000031D3B600068C0E900120BE0DDE906019A
:1010C000FFF79FFA0146E00704D13868021D3A6035
:1010D0000068016028460EE7000014400000F03F61
:1010E000F1D8FFFF426842B1016811F8013B23B11A
:1010F000521EC0E90012184670470121C160881EC7
:10110000704742685AB1C368016843B983688B422B
:1011100005D0491E521CC0E90012002070474FF054
:10112000FF30704730B5041E71F1000404DB4FF04E
:101130000044404264EB0101141E73F1000405DB1E
:101140001C464FF00043524263EB04038B4208BF3E
:10115000824230BD70B521F0004303430CD0C1F38F
:101160000A550024D5EB040564EB0403D617AD1A29
:10117000B34102DB0020014670BD201841EB025153
:1011800070BD0EB540F2334202920022CDE900223A
:101190001346FFF7A8FD03B000BD00BFFEE7704790
:1011A000704700002DE9FE430446256901AF28463B
:1011B00014F0CEFC8046C7F8008098F8040040F098
:1011C00040003871022201A920460CF05AFA064666
:1011D000307900F00F00002842D094F8079015F8FD
:1011E0003E7F287840F0020028700020E071E0681F
:1011F00000F10802E26031460A6802600A79027171
:10120000E06800F10802E26001A90A6802600A7958
:1012100002716069408C40F0800061694884002060
:101220000090E0681038E169431A00220D49204619
:1012300008F040FE80466069408C20F080006169C3
:10124000488484F8079005F83E79B8F1000F06D07D
:1012500005A1204609F0BAF9E0680838E06000BF4F
:10126000BDE8FE83C55600085F5F676300000000AD
:101270000146002291F82100022808D0042088634A
:1012800000BF002081F8200000BF012070470868DF
:10129000006820F00E000B6818600868006820F0F5
:1012A00001000B68186091F8403001209840CB6B2A
:1012B0005860012081F8210000BF002081F8200043
:1012C00000BF1046E2E7000070B50446002594F820
:1012D0002100022803D00420A0630125C1E020687A
:1012E000006820F00E00216808602068006820F087
:1012F0000100216808605C492068884252D95A4937
:1013000078392068884201D1012047E05649643984
:101310002068884201D1102040E0534950392068AC
:10132000884201D1801539E04F493C392068884214
:1013300001D1801432E04C4928392068884202D11A
:101340004FF480302AE0484914392068884202D19D
:101350004FF4801022E044492068884201D14004C3
:101360001CE042492068884201D1012016E03F4933
:1013700014312068884201D110200FE03B49283108
:101380002068884201D1801508E038493C31206846
:10139000884201D1801401E04FF480303349091FA5
:1013A000086051E0304978392068884201D1012035
:1013B00047E02D4964392068884201D1102040E07F
:1013C000294950392068884201D1801539E02649E1
:1013D0003C392068884201D1801432E02249283902
:1013E0002068884202D14FF480302AE01E49143927
:1013F0002068884202D14FF4801022E01A49206808
:10140000884201D140041CE018492068884201D17B
:10141000012016E0154914312068884201D11020BE
:101420000FE0124928312068884201D1801508E078
:101430000E493C312068884201D1801401E04FF40C
:101440008030094980394860012084F8210000BFBC
:10145000002084F8200000BF606B10B12046616B53
:101460008847284670BD0000800002400804024002
:1014700070B5044600F0B6F906462546681C10B162
:1014800004480078054400BF00F0ACF9801BA84276
:10149000FAD370BD300000202DE9F8470246002342
:1014A0009C467BE14FF0010808FA03F4D1F8008074
:1014B00008EA0400A0427DD1DFF8F4A2D1F804804C
:1014C000A8EB0A09D0453AD014DCB8F1030F50D08C
:1014D00009DCB8F1000F31D0B8F1010F1CD0B8F120
:1014E000020F49D120E0B8F1110F18D0B8F1120F56
:1014F00042D11EE0B9F5881F25D006DCB9F5803F42
:1015000020D0B9F5801F37D11AE0B9F5001F18D0E7
:10151000B9F5041F30D117E0D1F80CC02DE0D1F897
:101520000C8008F1040C28E0D1F80C8008F1080CBC
:1015300023E0D1F80C8008F10C0C1EE000BF00BFC6
:1015400000BF00BF00BF00BFD1F80880B8F1000F96
:1015500002D14FF0040C0BE0D1F80880B8F1010F74
:1015600003D14FF0080C146102E04FF0080C5461F5
:1015700003E04FF0000C00E000BF00BFFF2801D8DF
:10158000904601E002F104084646FF2802D84FEADF
:10159000830803E0A3F108084FEA88084746D6F815
:1015A00000804FF00F0909FA07F928EA09080CFA38
:1015B00007F900E07AE048EA0908C6F80080D1F8A7
:1015C000048008F08058B8F1805F6FD100BFDFF869
:1015D000E481D8F8188048F00108DFF8D891C9F8FC
:1015E0001880C846D8F8188008F00108CDF80080A7
:1015F00000BF00BF4FEAB9384FEA930958F82950A5
:101600004FEA83784FEA18794FF00F0808FA09F883
:1016100025EA0805DFF8A081424502D14FF0000815
:1016200024E0DFF89881424502D14FF001081DE027
:10163000DFF88C81424502D14FF0020816E0DFF856
:101640008481424502D14FF003080FE0DFF8788132
:10165000424502D14FF0040808E0DFF870814245AE
:1016600002D14FF0050801E04FF006084FEA8379F8
:101670004FEA197908FA09F848EA0505DFF85081B8
:101680004FEA930948F82950D1F8048008F48038CB
:10169000B8F5803F0BD1DFF83C81D8F8008048EAEC
:1016A0000008DFF83091C9F800800AE075E0DFF843
:1016B0002481D8F8008028EA0008DFF81891C9F8DA
:1016C0000080D1F8048008F40038B8F5003F0ED14E
:1016D000DFF8008108F10408D8F8008048EA000823
:1016E000DFF8F09009F10409C9F800800DE0DFF897
:1016F000E48008F10408D8F8008028EA0008DFF840
:10170000D49009F10409C9F80080D1F8048008F4E4
:101710008018B8F5801F0ED1DFF8B88008F10808EE
:10172000D8F8008048EA0008DFF8A89009F1080915
:10173000C9F800800DE0DFF89C8008F10808D8F8AF
:10174000008028EA0008DFF88C9009F10809C9F840
:101750000080D1F8048008F40018B8F5001F0ED1FD
:10176000DFF8708008F10C08D8F8008048EA00081B
:10177000DFF8609009F10C09C9F800800DE0DFF88E
:10178000548008F10C08D8F8008028EA0008DFF837
:10179000449009F10C09C9F800805B1CD1F8008065
:1017A00028FA03F8B8F1000F7FF47CAEBDE8F887A3
:1017B000000011100010024000080140000C014020
:1017C000001001400014014000180140001C0140BD
:1017D00008000140000401400AB1016101E00B046E
:1017E000036170470148006870470000280000202E
:1017F00003480068034909780844014908607047B4
:10180000280000203000002010B50848006840F093
:10181000100006490860032000F0A8F8002000F03E
:1018200007F800F02BF8002010BD00000020024057
:1018300070B504460E4800784FF47A71B1FBF0F0B1
:101840000C490968B1FBF0F5284600F00BFC08B123
:10185000012070BD102C07D200222146501E00F03E
:1018600047F80548046001E00120F2E70020F0E7B6
:1018700030000020340000202C00002008B500BFFC
:101880001148806940F001000F498861084680696D
:1018900000F00100009000BF00BF00BF0846C06913
:1018A00040F08050C8610846C06900F08050009048
:1018B00000BF00BF00BF0549486820F0E06040F06D
:1018C0000070486000BF08BD0010024000000140E9
:1018D00001460846002809DB00F01F0301229A4058
:1018E00043099B0003F1E023C3F8002100BF7047C8
:1018F0002DE9F05F80460D461646002701F0AAF953
:10190000074639462A46334601F00700C0F1070A68
:10191000BAF1040F02D94FF0040A01E0C0F1070A3E
:10192000D14600F1040ABAF1070F02D24FF0000AC3
:1019300001E0A0F1030AD4464FF0010A0AFA09FABD
:10194000AAF1010A0AEA020A0AFA0CFA4FF0010B9C
:101950000BFA0CFBABF1010B0BEA030B4AEA0B048D
:101960002146404601F07EF9BDE8F09F00BF00F03F
:101970000702064B19684FF6FF031940044B0B434F
:1019800043EA0221014B196000BF70470CED00E0F3
:101990000000FA0570B504460D460CB9012070BD73
:1019A0005A48006800F00700A8420ED25748006865
:1019B00020F007002843554908600846006800F0F9
:1019C0000700A84201D00120E9E7207800F00200DA
:1019D00002281DD1207800F00400042805D14C48CD
:1019E000406840F4E0604A494860207800F0080010
:1019F000082805D14648406840F460504449486092
:101A00004348406820F0F000A1680843404948601E
:101A1000207800F0010078B36068012806D13C48C6
:101A2000006800F4003090B90120B8E7606802282F
:101A300006D13748006800F0007040B90120AEE7D9
:101A40003348006800F0020008B90120A7E73048D9
:101A5000406820F00300616808432D494860FFF7A3
:101A6000C1FE064609E0FFF7BDFE801B41F288314A
:101A7000884202D9032092E707E02548406800F039
:101A80000C006168B0EB810FEDD12048006800F0D8
:101A90000700A8420ED91D48006820F0070028431F
:101AA0001A4908600846006800F00700A84201D003
:101AB000012074E7207800F00400042807D11448BE
:101AC000406820F4E060E1680843114948602078EC
:101AD00000F00800082808D10D48406820F4605044
:101AE000216940EAC1000A49486000F03FF808490E
:101AF0004968C1F30311074A515CC84006490860B0
:101B000006480068FFF794FE002048E700200240E6
:101B100000100240C65F0108340000202C000020A5
:101B200001480068704700003400002000B5FFF74E
:101B3000F7FF04494968C1F30221034A515CC840D8
:101B400000BD000000100240D65F010800B5FFF79D
:101B5000E7FF04494968C1F3C221034A515CC84008
:101B600000BD000000100240D65F0108F0B585B04E
:101B70000FF26C0C9CE8E01001A8A0E8E0101CA596
:101B80002D68009500210022002300240020194D1B
:101B9000696801F00C05F5B1042D02D0082D19D1AA
:101BA00001E0154819E001ADC1F38346AC5D01F4D5
:101BB000803555B10F4D6D68C5F340451DF80520C2
:101BC0000D4D6543B5FBF2F302E00C4D04FB05F34C
:101BD000184602E000BF084800BF00BF05B0F0BDD6
:101BE00002030405060708090A0B0C0D0E0F10105E
:101BF000010200000010024000127A0000093D00BE
:101C0000F8B504460CB90120F8BD207800F00100B9
:101C1000002878D0F848406800F00C0004280CD068
:101C2000F548406800F00C00082811D1F2484068DF
:101C300000F48030B0F5803F0AD1EF48006800F42E
:101C4000003000285FD0606800285CD10120DBE70D
:101C500000BF6068B0F5803F06D1E748006840F4F7
:101C60008030E549086028E0606858B9E2480068BB
:101C700020F48030E04908600846006820F48020A5
:101C800008601AE06068B0F5A02F0BD1DA48006850
:101C900040F48020D84908600846006840F480304D
:101CA00008600AE0D448006820F48030D249086017
:101CB0000846006820F48020086000BF606888B192
:101CC000FFF790FD054606E0FFF78CFD401B6428FA
:101CD00001D9032098E7C848006800F400300028C4
:101CE000F2D010E0FFF77EFD054606E0FFF77AFD33
:101CF000401B642801D9032086E7BF48006800F430
:101D000000300028F2D1207800F00200022857D1DC
:101D1000B948406800F00C0050B1B748406800F086
:101D20000C00082818D1B448406800F4803098B9F5
:101D3000B148006800F0020020B12069012801D0FC
:101D4000012061E7AC48006820F0F800616940EAD2
:101D5000C100A949086033E02069E8B10120A74922
:101D60000860FFF73FFD054606E0FFF73BFD401B1F
:101D7000022801D9032047E79F48006800F00200CD
:101D80000028F2D09C48006820F0F800616940EA21
:101D9000C1009949086013E0002098490860FFF7E6
:101DA00021FD054606E0FFF71DFD401B022801D975
:101DB000032029E79048006800F002000028F2D1D3
:101DC000207800F0080008282DD1A069B8B10120C2
:101DD0008B490860FFF706FD054606E0FFF702FDA8
:101DE000401B022801D903200EE78348406A00F017
:101DF00002000028F2D0012000F0FEFC13E00020D9
:101E00007F490860FFF7EEFC054606E0FFF7EAFCB5
:101E1000401B022801D90320F6E67748406A00F00B
:101E200002000028F2D1207800F00400042873D1C9
:101E300000277148C06900F0805070B900BF6E483B
:101E4000C06940F080506C49C8610846C06900F024
:101E50008050009000BF00BF01276A48006800F46E
:101E60008070B0B96748006840F4807065490860C8
:101E7000FFF7B8FC054606E0FFF7B4FC401B6428FA
:101E800001D90320C0E65F48006800F48070002894
:101E9000F2D000BFE068012806D15748006A40F040
:101EA00001005549086227E0E06858B95248006AC5
:101EB00020F00100504908620846006A20F0040042
:101EC000086219E0E06805280BD14B48006A40F031
:101ED0000400494908620846006A40F001000862AF
:101EE0000AE04548006A20F00100434908620846BC
:101EF000006A20F00400086200BFE068A0B1FFF7AC
:101F000071FC054609E0FFF76DFC401B41F288318A
:101F1000884202D9032077E622E03748006A00F0C1
:101F200002000028EFD012E0FFF75CFC054608E055
:101F3000FFF758FC401B41F28831884201D9032049
:101F400062E62D48006A00F002000028F0D1012F5F
:101F500005D12948C06920F080502749C86100BFD9
:101F6000E069C8B32448406800F00C00082860D03D
:101F7000E069022848D1002020490866FFF732FCBA
:101F8000054606E0FFF72EFC401B022801D903207E
:101F90003AE61948006800F000700028F2D1206A83
:101FA000B0F5803F07D11448406820F40030A168A4
:101FB000084311494860D4E9080108430E494968BB
:101FC00021F4741108430C49486001200B4908664C
:101FD000FFF708FC054607E03DE0FFF703FC401B68
:101FE000022801D903200FE60348006800F00070C2
:101FF0000028F2D02FE00000001002400000424212
:102000008004424200700040002014490866FFF737
:10201000E9FB054606E0FFF7E5FB401B022801D976
:102020000320F1E50E48006800F000700028F2D1AE
:1020300011E0E069012800D1E6E50948466806F4A8
:102040008031206A814204D106F47011606A8142B5
:1020500001D00120D8E50020D6E500000000424272
:102060000010024070B504462546681EB0F1807F1E
:1020700001D301200FE0681E4FF0E02148610F21DD
:102080004FF0FF3000F0EEFD00204FF0E0218861BE
:1020900007200861002070BD704770472DE9F84F98
:1020A0000446206805682068C668206847694FF0C4
:1020B0000009CA4605F00F09B9F1000F0AD105F071
:1020C000200038B106F0200020B1204600F016FCB8
:1020D000BDE8F88FB9F1000F71D007F0010018B911
:1020E00006F4907000286AD005F0010030B106F4C3
:1020F000807018B1206C40F00100206405F00400ED
:1021000030B107F0010018B1206C40F002002064EB
:1021100005F0020030B107F0010018B1206C40F06A
:102120000400206405F0080048B106F0200010B952
:1021300007F0010018B1206C40F008002064206C0A
:1021400068B305F0200028B106F0200010B1204649
:1021500000F0D4FB20684069C0F3801A206C00F0C6
:10216000080010B9BAF1000F22D0204600F09BFB06
:102170002068406900F04000B0B12068406920F05C
:10218000400021684861A06B50B15648A16B48637C
:10219000A06BFFF799F810B1A06B416B88470CE07A
:1021A0002046FFF77AFF08E02046FFF776FF04E0BD
:1021B0002046FFF772FF0020206489E7FFE7206BCD
:1021C000012878D105F01000002874D006F0100026
:1021D000002870D000BF00200090206800680090A8
:1021E00020684068009000BF00BF2068406900F090
:1021F0004000C0B3A06B006840681FFA80F8B8F1D7
:10220000000F2FD0A08D40452CDDA4F82E80A06BB0
:10221000806920281FD02068C06820F48070216861
:10222000C8602068406920F001002168486120688A
:10223000406920F0400021684861202084F83E0079
:10224000002020632068C06820F010002168C8606A
:10225000A06BFFF70DF8A08DE28D801A81B22046A9
:10226000FFF71AFF34E7FFE7A08DE18D401A1FFA50
:1022700080F8E08DE8B1B8F1000F1AD02068C0688E
:1022800020F490702168C8602068406920F0010047
:1022900021684861202084F83E00002020632068E7
:1022A000C06820F010002168C86041462046FFF752
:1022B000F3FE0DE7FFE705F0800030B106F0800087
:1022C00018B1204600F00AFC02E705F0400030B1EA
:1022D00006F0400018B1204600F000FBF8E600BF11
:1022E000F6E600009328000810B504460CB901205A
:1022F00010BDA06900B100E000BF94F83D0028B90E
:10230000002084F83C00204600F028F8242084F8BF
:102310003D002068C06820F400502168C860204655
:1023200000F05EFB2068006920F49040216808619D
:102330002068406920F02A00216848612068C06850
:1023400040F400502168C86000202064202084F8F8
:102350003D0084F83E000020CAE7000010B586B0BA
:1023600004460020029003900490059037492068AD
:10237000884237D100BF3648806940F480403449F4
:1023800088610846806900F48040019000BF00BF6A
:1023900000BF0846806940F00400886108468069F3
:1023A00000F00400019000BF00BF48150290022019
:1023B00003900320059002A92648FFF76DF84FF41B
:1023C0008060029000200390049002A92148FFF74A
:1023D00063F8002211462520FFF78AFA2520FFF72F
:1023E00077FA31E01C49206888422DD100BF184897
:1023F000C06940F400301649C8610846C06900F45D
:102400000030019000BF00BF00BF0846806940F067
:10241000040088610846806900F00400019000BF54
:1024200000BF04200290022003900320059002A91F
:102430000848FFF731F8082002900020039004902C
:1024400002A90448FFF728F806B010BD0038014083
:1024500000100240000801400044004070472DE990
:10246000F84F04460E46174699464FF0000A94F876
:102470003D0020285AD106B117B90120BDE8F88FD8
:1024800000BF94F83C00012801D10220F6E70120AA
:1024900084F83C0000BF00202064212084F83D0027
:1024A000FFF7A0F98246A784E784A068B0F5805FB3
:1024B00004D1206910B90025B04602E035464FF03E
:1024C000000800BF002084F83C0000BF1BE053461A
:1024D000002280212046CDF8009000F02FFB08B1AB
:1024E0000320CBE745B9B8F80000C0F30800216825
:1024F000486008F1020803E02878216848606D1CF4
:10250000E08C401EE084E08C0028E0D1534600229D
:1025100040212046CDF8009000F010FB08B10320C8
:10252000ACE7202084F83D000020A7E70220A5E7C3
:10253000704700BFFEE72DE9F84305460C462879B1
:10254000032835D12F682079032807D12068B842A5
:1025500002DB0120BDE8F8830020FBE73E46D4F80B
:10256000008006F18070B0F1007F0BD83046FEF796
:1025700013F881464146FEF761F801D8012016E0C4
:10258000002014E00122694640460EF01DFA30B1E9
:102590000098864201DC012009E0002007E00021CC
:1025A0004046FEF755F801D2012000E00020D1E7B7
:1025B000D5F800802079132808D140462168FEF71D
:1025C0003DF801D80120C5E70020C3E7474626684B
:1025D00006F18070B0F1007F0BD83046FDF7DCFFCC
:1025E00081463946FEF734F801D8012016E0002074
:1025F00014E00222694638460EF0E6F930B1009840
:10260000B04201DC012009E0002007E0002138464B
:10261000FEF714F801D2012000E0002000BF99E786
:102620002DE9F84305460C462879032835D12F6853
:102630002079032807D12068B84202DD0120BDE8D7
:10264000F8830020FBE73E46D4F8008006F1807056
:10265000B0F1007F0BD83046FDF79EFF8146414622
:10266000FDF7ECFF01D2012016E0002014E0022269
:10267000694640460EF0A8F930B10098864201DA6A
:10268000012009E0002007E000214046FDF7E0FFBF
:1026900001D2012000E00020D1E7D5F800802079A8
:1026A000132808D140462168FDF7C8FF01D2012058
:1026B000C5E70020C3E74746266806F18070B0F101
:1026C000007F0BD83046FDF767FF81463946FDF79E
:1026D000BFFF01D2012016E0002014E0012269466C
:1026E00038460EF071F930B10098B04201DA01209D
:1026F00009E0002007E000213846FDF79FFF01D2E6
:10270000012000E0002000BF99E7000000B585B07F
:102710000020019002900390049000BF1648806949
:1027200040F02000144988610846806900F02000CC
:10273000009000BF00BF00BF0846806940F0040061
:1027400088610846806900F00400009000BF00BF67
:10275000002289150948FFF73FF84FF48070019077
:1027600001200290002003900220049001A9034858
:10277000FEF792FE05B000BD0010024000080140C7
:1027800010B50B480B4908604FF4E1304860002158
:1027900008488160C16001610821416100218161B7
:1027A000C161FFF7A1FD08B1FEF7FAFC10BD000002
:1027B000003801405400002010B50B480B49086058
:1027C0004FF4E1304860002108488160C160016138
:1027D0000821416100218161C161FFF785FD08B1D8
:1027E000FEF7DEFC10BD0000004400409800002011
:1027F00000BFFEE77047704708B508490968C90877
:102800004FF47A72B1FBF2F14143009100BF00BF77
:1028100000994A1E00920029F9D108BD3400002019
:10282000704710B5FEF7E4FF10BD00B58FB028214A
:1028300005A8FDF708FD14216846FDF704FD0120F9
:1028400005900004069000200790012009900220C6
:102850000C90C1030D914FF4E0110E9105A8FFF704
:10286000CFF908B1FEF79CFC0F20009002200190E8
:10287000002002904FF48060039000200490022119
:102880006846FFF787F808B1FEF78AFC0FB000BD75
:10289000704770B505466C6A0020E085E0842046EC
:1028A000FFF7FBFB70BD0168C96821F490710268F5
:1028B000D1600168496921F0010102685161016B31
:1028C000012905D10168C96821F010010268D160B1
:1028D000202180F83E1000210163704710B50446A6
:1028E0002068C06820F040002168C860202084F87B
:1028F0003D002046FFF71CFE002010BDF8B5044641
:1029000094F83E00222869D1A068B0F5805F0CD110
:10291000206950B90025A66A20684068C0F3080005
:102920003080A06A801CA06215E0A56A0026A0681D
:10293000B0F5805F03D0A06828B9206918B9206875
:102940004068287004E02068406800F07F0028702C
:10295000A06A401CA062E08D401E80B2E085A8BB4A
:102960002068C06820F020002168C8602068C06826
:1029700020F480702168C8602068406920F0010060
:1029800021684861202084F83E00206B01281ED178
:10299000002020632068C06820F010002168C86013
:1029A0002068006800F0100010280AD100BF002045
:1029B000009020680068009020684068009000BF88
:1029C00000BFA18D2046FFF767FB03E004E020462F
:1029D000FFF744FD0020F8BD0020FCE70220FAE7E5
:1029E00070B504462168096921F44051E268114339
:1029F000226811612269A1681143626941EA0205F6
:102A00002168C96841F20C62914329432268D16070
:102A10002168496921F44071A2691143226851611A
:102A20002D4A2168914202D1FFF790F801E0FFF7AB
:102A30007DF800EBC00101EB001162689200B1FB70
:102A4000F2F100EBC00202EB001263689B00B2FBE4
:102A5000F3F26423B2FBF3F202EBC20303EB0212C4
:102A6000A1EB8201322202EB01116422B1FBF2F1EF
:102A700001F0F00100EBC00202EB001263689B0062
:102A8000B2FBF3F26423B2FBF3F201EB021200EBB0
:102A9000C00101EB001163689B00B1FBF3F100EB97
:102AA000C00303EB00136668B600B3FBF6F36426BD
:102AB000B3FBF6F303EBC30606EB0313A1EB8301B1
:102AC000322303EB01116423B1FBF3F101F00F0199
:102AD00011442268916070BD00380140014691F8B0
:102AE0003D00212828D18868B0F5805F0BD10869A6
:102AF00048B90A6A1088C0F308000B685860086A71
:102B0000801C086205E00B6A581C086218780B6884
:102B10005860C88C401E80B2C88458B90868C06824
:102B200020F080000B68D8600868C06840F0400062
:102B30000B68D860002070470220FCE72DE9F041C7
:102B400004460D4617469846069E21E0701CF8B1D3
:102B50002EB1FEF747FEA0EB0800B04218D920685E
:102B6000C06820F4D0702168C8602068406920F0F7
:102B7000010021684861202084F83D0084F83E006F
:102B800000BF002084F83C0000BF0320BDE8F081B6
:102B9000206800682840A84201D1012000E0002000
:102BA000B842D3D00020F1E710B50248FFF776FA1B
:102BB00010BD00005400002000BFFEE70FB4024625
:102BC00010B504A9034B039800F016FA10BC5DF889
:102BD00014FB0000C56800080FB4054B10B503A92D
:102BE000044A029800F008FA10BC5DF814FB0000DB
:102BF000C5680008400000200FB47CB50C0009AD8A
:102C000001D0611E00E00021CDE90001064B6A46BB
:102C10002946089800F0F0F9002C02D0009A002113
:102C200011707CBC5DF814FBFF36000841000802FF
:102C300018BF04200A0E18BF40F001004FF07F4279
:102C400032EA010108BF40F00200012808BF052058
:102C50007047000002480068C0F30220704700007F
:102C60000CED00E010B5002804DB0A07130E054A3E
:102C7000135406E00A07140E034A00F00F031B1F4B
:102C8000D45410BD00E400E018ED00E000487047A7
:102C90004800002030B528B1144C031F00202168E3
:102CA0000A4605E0084630BD9A4203D810465268ED
:102CB000002AF9D1002800D041680BD00468A3EBAA
:102CC0000005A54204D11B681C440346046002E0D1
:102CD000436000E023603AB11C68D51AA54203D1D5
:102CE00015682C441C6052685A6030BD4C000020AE
:102CF0002DE9F04782460F4C10480D4E0E4F001B39
:102D00004FF0000820F007054FF00109002211469E
:102D1000504604F067FF002802D1306810B100204F
:102D2000BDE8F0873C60C4E90058C6F80090EDE7C4
:102D300050000020E40000204C000020E02C002087
:102D400000214FF07E50FDF7E9BBFDF75DBB002190
:102D50000846FDF7E3BB61214FF0E040FDF72CBDD5
:102D60006FF05E010807FDF727BD10B50446D1E9F5
:102D7000000100F003F8206010BD0000F8B5044623
:102D80000D466A4603F0BCFE00987E300090002895
:102D90001EDC0022134620462946FEF7C3F917D051
:102DA000002140F60800FDF71BFF06462046294695
:102DB000FDF727FC044640F6080006EA0001FDF78F
:102DC0000FFF34F0004004BF022000F045F829E076
:102DD0000098FF2828DB00210846FDF701FF00F4DA
:102DE00040060022134620462946FDF7E1FE8CBF2F
:102DF00000250125022000F02FF84FF0FF4446B1D6
:102E0000002D0CBF4FF400004FF48000B04218BFFB
:102E1000084C04210846FDF7E3FE002D04BF84F0B2
:102E20000040F8BD2046F8BD20462946BDE8F840E0
:102E3000FDF7E7BBFFFF7F7F02E008C8121F08C154
:102E4000002AFAD170477047002001E001C1121F2B
:102E5000002AFBD17047000001490860704700005C
:102E6000480000202DE9FF5F82B00021DDE9043039
:102E7000020DDDF840B0034318D044F61050A2F222
:102E8000FF3242431514119801281FD0A5EB0B0007
:102E9000401C5FEA000A4FF000064E4FDFF8389101
:102EA000B046504615D5CAF1000413E0119801242C
:102EB0004AA3012801D16FEA0B010298119AC0E9D7
:102EC0000031C0E9024206B0BDE8F09FCBF100003E
:102ED000DFE704460021404A491842EB0450CDE99F
:102EE000001012E0E00707D032463B464046494614
:102EF000FDF73EFD8046894632463B461046194660
:102F0000FDF736FD06460F466410002CEAD1DDE9D8
:102F10000401DDE90023BAF1000F06DAFDF728FD10
:102F200042464B46FDF724FD05E0FDF793FD424682
:102F30004B46FDF78FFD04460E460022284BFDF759
:102F400037FE03D84FF0FF30014607E00022254B43
:102F500020463146FDF765FCFDF7EBFD102409E046
:102F6000002C0ADB0A220023FDF7B1FB039B303261
:102F70001A55641E50EA0102F2D1641C039AC4F18E
:102F800011031444119A012A03D0012208430DD1E0
:102F90000AE0084304D000204FF0110B119072E7B3
:102FA000A3EB0B056D1E0DE05B4504DD4FF0000249
:102FB00005F1010504E003DA4FF00002A5F1010577
:102FC000002AECD002981199C0E90231C0E900450D
:102FD00079E70000000014400000F03F30000000DE
:102FE0000000F0430000E03F30380A2801D2012001
:102FF00070470020704700002DE9FF4F95B09A46BA
:10300000884606460025EEE1252877D1002427468C
:10301000F94A0121039400E0044316F8013F203BE4
:1030200001FA03F01042F7D130782A2811D06FF05E
:103030002F033078A0F13002092A16D8039A44F001
:10304000020402EB820203EB42021044761C03905E
:10305000EFE758F8042B0392002A03DA504244F4B5
:103060000054039044F00204761C30782E2816D1C8
:1030700016F8010F44F004042A280DD06FF02F0237
:103080003078A0F13003092B09D807EB870302EB56
:103090004303C718761CF3E758F8047B761C307896
:1030A0006C280FD006DC4C2817D068280DD06A2871
:1030B00014D104E0742810D07A280FD10DE044F424
:1030C00000140AE044F4801401E044F440147278DF
:1030D000824202D104F58014761C761C3078662872
:1030E0000BD013DC582877D009DC002875D0452890
:1030F000F6D04628F4D047281AD193E118E0632887
:1031000035D0642879D0652812D18BE1702873D02E
:1031100008DC6728F1D069286FD06E280DD06F28A1
:1031200006D1ACE073282CD0752874D0782853D001
:103130005246179990476D1C54E1C4F3025002287F
:1031400009D003280DD0D8F8001004280DD00D6048
:1031500008F1040846E1D8F80010EA17C1E9005266
:10316000F6E7D8F800100D80F2E70D70F0E718F8D8
:10317000041B8DF8001000208DF80100EB460120A3
:1031800003E058F804BB4FF0FF3061074FF0000137
:1031900002D40DE009F101018946B9420FDA8145F7
:1031A000F8DB1BF809100029F4D108E009F101014E
:1031B00089468142FADB1BF809100029F6D10398F1
:1031C0005346A0EB090721463846179A00F080FACB
:1031D000284400EB090507E044E008E10DE01BF896
:1031E000010B524617999047B9F10109F7D253469E
:1031F00021463846179AF2E039E00A21C4F3025218
:103200004FF0000B0091022A06D058F8040BC117AA
:10321000032A09D00AE023E008F1070020F00702A2
:10322000F2E80201904605E000B2C117042A01D17C
:1032300040B2C117002906DA0A460021404261EB7C
:1032400002012D2202E0220504D52B228DF8042054
:10325000012203E0E20701D02022F7E7914657E080
:103260000A2100E010214FF0000B00910BE010212B
:103270004FF0000B44F004040827009103E00820FD
:103280004FF0000B0090C4F30252022A05D058F808
:10329000040B0021032A08D008E008F1070020F001
:1032A0000702F2E80201904603E080B2042A00D14E
:1032B000C0B24FF0000922072AD53278702A07D011
:1032C000DDF800C08CF0100C5CEA0B0C05D00EE0B1
:1032D00040228DF80420012208E050EA010306D0C4
:1032E00030238DF804308DF8052002229146009B92
:1032F00083F0080353EA0B030AD150EA010201D11B
:10330000620705D530228DF804204FF001097F1E99
:103310003278582A04D039A20C920CAA02920BE0FF
:103320003BA2F9E75B46009AFDF7D1F90C9B9B5C49
:10333000029A521E0292137050EA0102F2D10298D0
:1033400004A9081A00F1200B600702D524F4803488
:1033500000E001275F4502DDA7EB0B0000E0002045
:1033600000EB0B01009003984944401A0390E003DE
:1033700006D453462146179A039800F0A9F905444C
:10338000002706E001A85246C05D179990476D1CC2
:103390007F1C4F45F6DBE0030CD553462146179AB8
:1033A000039800F095F9054404E03020524617993F
:1033B00090476D1C0099481E00900029F5DC08E03C
:1033C0000298029952460078491C02911799904739
:1033D0006D1CBBF10001ABF1010BF1DC5BE100F016
:1033E00065F90544761C307800287FF40DAE19B0DD
:1033F0002846BDE8F08F0000092801003031323343
:103400003435363738396162636465660000000020
:10341000303132333435363738394142434445460A
:1034200000000000600700D4062708F1070020F024
:103430000700F0E80223804603F0004C5FEA0C002E
:1034400001D097A009E0200501D596A005E0E0078E
:1034500001D095A001E0AFF24C001390307823F03A
:10346000004365280CD006DC452809D046281DD02D
:1034700047287FD13BE0662818D067287AD136E00C
:103480000021112F01DB112000E0781CCDE90001A3
:1034900004A90CA8FFF7E6FCDDE90D010C9A4FF03A
:1034A000000B07F10109109200914EE04FF000402F
:1034B0000097CDE9011004A90CA8FFF7D3FCDDE9C2
:1034C0000D020C9B0F994FF0000B91461093009248
:1034D00011B9791C00EB0109B7EB090003D4C0F165
:1034E000FF3B07F10109A9EB0700019042E0012F22
:1034F00000DA01270021112F01DD112000E03846FC
:10350000CDE9000104A90CA8FFF7ACFCDDE90D0131
:103510000C9A00914FF0000BB946109221070FD47E
:10352000009A4A4503DA914601E0A9F10109B9F18F
:10353000010F05DD109AA9F10101515C3029F4D089
:10354000B84202DA10F1040F03DA0121CDE90110CB
:1035500010E0002803DC8344A9EB000102E0411CD9
:10356000494500DD8946A0EB0B00401C01904FF05F
:1035700000400290200705D40198484502DB4FF037
:10358000FF30019000208DF84B0002980DF14B07A1
:10359000B0F1004F25D002200C902B200D90029806
:1035A00000280CDA404202902D200D9007E00A21FD
:1035B0000298FDF776F83031029007F8011D0C995A
:1035C000481E0C900029F2DC02980028EFD1791EE9
:1035D0000D980870307800F0200040F0450007F8A2
:1035E000020D11A8C01BC01D02901398007800B1F5
:1035F000012000EB0901019801EBE0710298014400
:103600000398401A401E0390E00306D45346214617
:10361000179A039800F05CF805441398007818B1E5
:103620005246179990476D1CE00323D55346214617
:10363000179A039800F04CF805441BE0BBF1000F0B
:1036400007DB0098584504DD1098179910F80B0017
:1036500001E0179930205246904701980BF1010B79
:10366000401E05F10105019004D12E205246179904
:1036700090476D1CB9F10001A9F10109DEDC05E0FC
:1036800017F8010B5246179990476D1C0299481E76
:1036900002900029F4DC53462146179A03989EE6CF
:1036A0002D0000002B000000200000002DE9F0415B
:1036B000044600251E461746880404D405E0394612
:1036C0002020B0476D1C641EF9D52846BDE8F08166
:1036D0002DE9F041044600251E469046C80301D559
:1036E000302700E02027880404D505E0414638460D
:1036F000B0476D1C641EF9D52846BDE8F0814A68C4
:10370000002A06D00A68531C0B6010704868401EDF
:10371000486070472DE9F04F85B005468A46164649
:10372000A868D0F820B02C68A968C86A514607F08C
:10373000CFFB804698F8040003281BD1D8F800700E
:10374000E869B84216DD206B00EBC700007900F095
:103750003F00317901F03F0188420BD1206B00EB33
:10376000C701324600200AF031FA18B1384605B0D8
:10377000BDE8F08FD4F81090EF6903A8076003212B
:1037800001710090A86843465246C16A584607F046
:103790006FFB1EA06FF07E410822CDE90021029050
:1037A00004F110033A465846216B09F09BF9206357
:1037B00007E00022484609F10109236B03EBC00032
:1037C000027120694845F4DC226B02EBC7003146E8
:1037D0000A6802600A790271E869401CE861307980
:1037E00000F0400070B1607900F0200050B1306806
:1037F000407900F0180028B121465846326806F09A
:103800000FF900E000BF3846B1E70000636F6E7348
:1038100074616E74730000002DE9F04104460D469A
:103820002C21204603F045FD07463946284611F075
:10383000E7FD0646A0683044A060BDE8F0810000C6
:103840002DE9FE430746D7F82090FD692C68286AC9
:10385000E16988421BDBD4F81C801BA01D490422AF
:10386000CDE9002102902A6A04F11C034846A16BAD
:1038700009F038F9A06306E00022404608F101088B
:10388000A36B43F82020E0694045F5DC00BF4846C3
:1038900007F018F806462A6A511C2962A16B41F804
:1038A0002200607900F0200048B1707900F0180023
:1038B00028B132462146484606F0B2F800E000BF83
:1038C0003046BDE8FE83000066756E6374696F6EF6
:1038D00073000000FFFF01002DE9F04105460E4690
:1038E0001446C82C0DD82146284603F0E2FC0746B2
:1038F000224631463846FCF78DFCA8682044A86073
:1039000007E0284600F0BDFF2246314628460FF06A
:10391000EFFDBDE8F0812DE9F04707468846914666
:103920001D46FE69A8EB09042878122802D02878E1
:1039300013280CD104F1010ABAF1000F01DA4FF09B
:10394000000A52462946304608F0F7FB0DE0287879
:1039500018B12946304607F0C8FF002C05DD96F85F
:1039600034102246304608F0A3F9002C04DD21462D
:10397000304608F037FB04E096F83400204486F81F
:103980003400BDE8F0872DE9F04706460F46F4699C
:1039900020460DF079FA81464FF0000817E014F840
:1039A00032AF2078401C04F832095146204603F01B
:1039B000A9FD0546484609F10109A871214630468E
:1039C000EA6810F043FA00B2288108F10108B8450E
:1039D000E5DBBDE8F0870000FEB504462568EE682B
:1039E00094F83300411C14A3FF22204600F09EFEF1
:1039F00011A0FF210822CDE90021029094F8332084
:103A0000E96BA368186A05F10C0309F06BF8E86329
:103A100005E000223046761CEB6B43F83020E86866
:103A2000B042F6DC14F8331F2078401C04F8330948
:103A3000E86B00EBC100FEBD757076616C75657357
:103A4000000000000146481E6FF06042904201D223
:103A5000084670470020FCE72DE9F0470646346928
:103A60000025D4F8549000206065022084F83900C5
:103A7000707900F0180018B13146204610F032F984
:103A80002820005D00F0400040B1606A407900F0FD
:103A9000180018B12046616A10F024F920460EF093
:103AA0002FFC20460FF01CFC0544204610F093FA32
:103AB000054420460FF014FC0544C4F850902046FD
:103AC0000FF00EFC0544204601F004FC00222046C5
:103AD000A16D00F00CFF00222046216E00F007FFD0
:103AE000A76DD4F860800021204610F0B3FD204679
:103AF0000EF0F3FB054420460FF0F2FB0544204690
:103B000001F0E8FB2046E16D00F0C6FE2046216E84
:103B100000F0C2FE3A462046A16D00F0E8FE4246A3
:103B20002046216E00F0E3FE204609F040FB94F8A9
:103B3000380080F0180084F838002846BDE8F08787
:103B400070B505460C46204600F019FF032084F8A6
:103B5000390004F14401284611F095FA606CE066E2
:103B6000206760670020A06704F14C01284611F02F
:103B70008AFAE06CE067C4F88000C4F8840004F1BD
:103B80006401284611F07FFA012084F83A000020F1
:103B90006061D4E90201084420612146284602F010
:103BA00090FA70BD2DE9F04104460F4690461E463E
:103BB0003946204603F084FD0546E068A0F108037D
:103BC00042462946204607F050FCA87920F03F00E5
:103BD000A871E06810F8040C00F0400078B1687932
:103BE00000F0200058B1E06850F8080C407900F06F
:103BF000180020B12946204605F039FF00E000BF3B
:103C0000E068A0EBC600E060BDE8F081F0B50446D6
:103C1000207900F03F00062812D0262830D12568F0
:103C2000481EAE79B04201D30020F0BD481E05F118
:103C3000100606EBC000106003B11D6011A0F4E790
:103C40002568EF68481ED7F80CC0604501D30020F6
:103C5000EBE7481E05F1100C5CF82000806810604E
:103C60001BB1481E5CF820001860481ED7F83CC005
:103C70005CF830600EB904A0D7E706F11000D4E775
:103C80000020D2E700000000286E6F206E616D6595
:103C9000290000002DE9F04780460F4614461E46D5
:103CA000089D4FF001096CE038786E2847D008DC99
:103CB0004C285FD053280BD066285CD06C285BD191
:103CC0000BE0722848D074282FD0752854D112E008
:103CD0003146204603F012F851E045B195F8220034
:103CE00000F0020018B9284603F0F5FA01E04FF0A1
:103CF000FF30A06143E00EB9002000E0B07984F805
:103D0000240016B13079262806D1012084F8260037
:103D1000002084F8250007E0F068C07984F82600C8
:103D2000F068807984F8250029E025B195F8220013
:103D300000F0200000E0002084F827001FE0221D92
:103D40002946404603F0E6FAA060A06818B910A022
:103D5000A0600020606012E01DB1688C00F48070EB
:103D600018B900206085208503E0A88B2085E88BAA
:103D7000608504E000BF02E04FF0000900BF00BF13
:103D80007F1C387800288FD14846BDE8F0870000B6
:103D9000000000002DE9F84304460F4690464146D6
:103DA000204609F0A9FA06463879452802D00025B0
:103DB00000200BE03146386807F08CF90546287979
:103DC00000F00F0008B1012000E0002048B1E068D9
:103DD00029460A6802600A790271E0680830E060EA
:103DE00012E0E068314601600A7942F04002027157
:103DF000E0680830E0600095E068A0F108031A462A
:103E0000394620460CF0A6FCE06810F8040C00F0DF
:103E10000F00BDE8F8832DE9F84304460E469046AE
:103E20004146204609F068FA07463079452802D015
:103E3000002500200BE03946306807F04BF90546B5
:103E4000287900F00F0008B1012000E0002018B32D
:103E50002846E268A2F108010A6802600A79027144
:103E6000E06810F8040C00F0400080B13068407940
:103E700000F0200058B1E06850F8080C407900F0DC
:103E8000180020B12046316805F0F1FD00E000BFC8
:103E9000E0680838E06016E0E068394601600A79B9
:103EA00042F040020271E0680830E0600095E0688E
:103EB000A0F11003A0F10802314620460CF0CCFC22
:103EC000E0681038E060BDE8F88300002DE9F047B5
:103ED00004460D4616460027B94624A12046FCF7A5
:103EE00003FA044420782D2803D1641C4FF0010903
:103EF00003E020782B2800D1641CFCF773F90068DC
:103F00002178405C00F0380010B90020BDE8F0874F
:103F100000BFFCF767F900682178405C202802D1D7
:103F20002078303803E02078FCF769F9373880468C
:103F3000A84501DB0020E9E707FB0587641CFCF7C7
:103F400051F900682178405C00F038000028E0D189
:103F500006A12046FCF7C8F90444B9F1000F01D0CE
:103F6000784200E0384630602046CFE7200C0A0D4A
:103F7000090B000010B503460CE08C186008441EC5
:103F800003EBC404247904F00F040CB9024600E0EA
:103F9000014600BF501A0128EFD8084610BD7FB572
:103FA0000446E56900226946284601F096FB204652
:103FB00010F032FF284604F003FA7FBD10B5024628
:103FC00040F20514D068031BA0420DD005DCA0F21E
:103FD000031038B101280CD105E00F2B07D01B2BA3
:103FE00007D102E000BF00BF00BF012010BD08469E
:103FF000FCE70020FAE700002DE9F04192B004460A
:104000000F4615461E462046FFF71AFC04900498FA
:1040100086626A4604A920460EF039FC2821204613
:1040200000F0D8FB6DB1042215A120460CF068FE0B
:104030008046414620460EF071FA01212046FFF7E6
:10404000A2FC20460EF0A8FC2921204600F0C2FB6D
:10405000204610F0E1FE60680499C86233464FF4D0
:104060008472D11E204600F02DFA3946204600F019
:104070003BFE204600F091FC12B0BDE8F08100004C
:1040800073656C66000000001CB5044601208DF8C5
:1040900004006A4669462046FFF73CFB1CBD1CB580
:1040A000044611208DF804006A4669462046FFF751
:1040B00031FB1CBD2DE9F0410446656820460CF03B
:1040C00059FEE06907F0EBFD0646052206A1206ACD
:1040D00009F048F9074633462A46394620460EF08D
:1040E00057FABDE8F0810000627265616B00000064
:1040F00070B50446256902E02046FDF753F8686E66
:104100000028F9D170BD2DE9F84380460E461446CB
:104110001F46DDF820904A463146404609F0B1FA84
:104120000546287900F00F0028B94A462146404646
:1041300009F0A7FA0546287900F00F0010B9002011
:10414000BDE8F8832346324629464046009709F0E9
:10415000F7F90120F4E72DE9F04707460D4616462A
:104160009946FC6818222946384609F08AFA8046A2
:10417000204641460A6802600A79027108302946E1
:104180000A6802600A790271083031460A680260E2
:104190000A7902710830F860B9F1000F05D00022E9
:1041A0002146384605F073FD04E0002221463846DA
:1041B00005F078FDBDE8F0872DE9F04104460F4693
:1041C00090461E46206E30442066B4F8600080B2EF
:1041D000C82802D3204606F031F942463946204627
:1041E00005F0B2FE051E05D004206884294620464D
:1041F00009F0FAFD206E801B2066BDE8F0812DE9F4
:10420000F04105460E461446286C10B90020BDE862
:10421000F081A01B402815DA0021334600BF581C4E
:1042200003462F6C3A5602F1800000B908E01144B1
:10423000A34204D109B10120E9E70020E7E7EEE756
:1042400000BF00BF3146284606F0A2FC07462146C3
:10425000284606F09DFC874201D00120D7E70020C8
:10426000D5E770B504460D46E068A84203D029465C
:10427000204601F037FB70BD70B5044625A0411CF7
:1042800026A2204600F061FA204604F0B7FB014662
:1042900027A00278303A27A00078303802EB0010CF
:1042A000814203D024A1204601F000FB204604F007
:1042B000A5FB18B125A1204601F0F8FA27A22BA1F1
:1042C000204600F042FA2BA20421204601F0C8FC4F
:1042D0002BA20421204601F0C3FC2CA2042120467D
:1042E00001F0BEFC204604F012FD45F278618842E0
:1042F00003D029A1204601F0D9FA204604F010FD90
:1043000005462B49FCF79AF903D02AA1204601F073
:10431000CDFA70BD1B4C7561000000006E6F7420FB
:10432000612062696E617279206368756E6B00004E
:10433000340000003500000076657273696F6E20EE
:104340006D69736D6174636800000000666F726D63
:104350006174206D69736D6174636800636F72725C
:104360007570746564206368756E6B0019930D0A2F
:104370001A0A0000496E737472756374696F6E0077
:104380006C75615F496E7465676572006C75615F1D
:104390004E756D6265720000696E746567657220A6
:1043A000666F726D6174206D69736D61746368000E
:1043B0000040B943666C6F617420666F726D617402
:1043C000206D69736D617463680000002DE9F04130
:1043D00005460C4694F83F00A8B9D4E90710C21767
:1043E00000EB9272B1EBA20F0DDAE668276A07EBD9
:1043F000D7704110284608F0F4FFD4E90310891B58
:104400000844206100BFBDE8F0812DE9FC47074664
:104410000C461546D7F81C8098F834604FF0000918
:104420002FE020790C282BDB20790F2828DC20793D
:104430000D280CD128780A2822D1A07A69688842F0
:104440001ED14FF001090F202071A67218E02878C4
:10445000092806D1A07A2979884202D14FF00109B2
:10446000A67220790C280BD12878092808D1B4F934
:1044700008002979884203D14FF0010931B2218126
:104480002468002CCDD1B9F1000F19D02878092863
:1044900009D10020009001902B7932460146404618
:1044A00007F06EF808E000200090019032460921E4
:1044B00040466B6807F064F80121404607F092FD22
:1044C000BDE8FC872DE9F84F04460F4616461D4609
:1044D0003946204610F064FFE8B96068A84204D16C
:1044E0003946204601F0FEF915E0314620460CF031
:1044F00093FC8146394620460CF08EFC824600959E
:104500004B46524605A1206A08F04EFC80464146C3
:1045100020460CF077FCBDE8F88F0000257320657D
:10452000787065637465642028746F20636C6F73A2
:1045300065202573206174206C696E6520256429CF
:104540000000000070B504460D462068A84212D154
:10455000606A0168481E626A106031B1606A416831
:10456000481C626A5060087802E0606A0CF0FFFC48
:104570002060012070BD0020FCE770B504460D46A8
:1045800029782068884203D069782068884216D14B
:10459000204621680FF092FF606A0168481E626A37
:1045A000106031B1606A4168481C626A50600878E6
:1045B00002E0606A0CF0DBFC2060012070BD00208E
:1045C000FCE700002DE9F04105460C46EE690027A6
:1045D000207809280AD00A2813D00B281AD1286B72
:1045E0000068616800EB0110C76815E0E18830469B
:1045F00002F088FF804698F8050008B1D8F80C70E2
:104600000AE03168C96B626801EBC200817901B1CF
:10461000076801E0BDE8F08100BF5FB107F110025B
:1046200005A1286A08F0C0FB80464146284607F0ED
:1046300023FD00BF00BFEDE7617474656D707420E9
:10464000746F2061737369676E20746F20636F6E7F
:104650007374207661726961626C65202725732707
:10466000000000002DE9F04104460D4618222946BD
:10467000204609F006F80746387900F00F0098B98F
:1046800060690068281A4FEAE00800234246204685
:10469000616906F0FDF9064606B904A6324604A192
:1046A000204606F0E7FA00BFBDE8F0813F000000B9
:1046B0007661726961626C65202725732720676FB8
:1046C000742061206E6F6E2D636C6F7361626C6518
:1046D0002076616C7565000070B505460C4616467F
:1046E0001EB914F8011B402901D0002070BD0BA198
:1046F0002046FBF7C4FD28B92A46094928460DF093
:10470000DAFB09E007A12046FBF7B9FD20B92A46EC
:10471000054928460DF0CFFB0120E7E76F666600EC
:10472000A55D01086F6E0000B95D01082DE9F0413B
:1047300007460D4614461E46A54204DD3246214674
:10474000384601F0EBF8BDE8F081FEB507460D46AE
:1047500016462846FBF78CFD044622466946384635
:1047600004F034F9224669462846FBF796FD18B155
:104770003146384601F09AF8FEBD000070B5064695
:104780000C46154674B129782046FBF767FD48B9F9
:1047900023462A4604A1304608F006FB0321304692
:1047A00005F0CEFD70BD0000617474656D707420FD
:1047B000746F206C6F6164206120257320636875BD
:1047C0006E6B20286D6F6465206973202725732721
:1047D0002900000070B504460D4629462046FFF723
:1047E00040FD20460CF0C6FA70BD02688A4201D135
:1047F0000A680260704700002DE9F04104460D464A
:104800002946204601F036FB06466EB107A7B3687D
:1048100005F110023946206A08F0C6FA0746394603
:10482000204607F029FC00BFBDE8F0816C6162659D
:104830006C202725732720616C7265616479206480
:104840006566696E6564206F6E206C696E652025F3
:10485000640000007CB505460C46601C80B128460B
:104860000DF087FD214628460FF044FB0646002048
:1048700000900346324637210190284606F080FE1C
:104880007CBD10B5044604F10C012046A2680EF070
:104890002FFE0020A06010BD2DE9F04107460C4618
:1048A00021E02646F27901209040316901EB0018A1
:1048B000356915E0687900F0400008B1E86800E06B
:1048C00000200146384603F0A8FA08B110202871EC
:1048D000287900F00F0010B9284600F057F810357D
:1048E0004545E7D3E469002CDBD1BDE8F0812DE933
:1048F000F74F0D4691463EE02E46F279012090405A
:10490000316901EB001A304606F021FD834600278D
:1049100014E0F06800EBC70898F8040000F04000CD
:1049200010B1D8F8000000E000200146009803F024
:1049300074FA10B1102088F804007F1C5F45E8D39A
:10494000346915E0207900F0400008B1206800E0EB
:1049500000200146009803F060FA08B11020207191
:10496000207900F00F0010B9204600F00FF8103445
:104970005445E7D3ED694D45BED1BDE8FE8F00211A
:1049800041650165C165016681657047417901F046
:10499000400109B10B21417170472DE9F8430646EA
:1049A000376AF5692C6828460CF06EFA80460022BA
:1049B0004146284607F023FB284603F001FD284620
:1049C00006F0BBFF042000902B6904F11402384666
:1049D000616B08F022F96063012000902B6904F1FB
:1049E00018023846216C08F018F92064082000905D
:1049F0006B6A04F124023846616C08F00EF96064B9
:104A000008200090EB6904F110023846216B08F091
:104A100004F92063042000902B6A04F11C0238463C
:104A2000A16B08F0FAF8A0630C200090B5F93030C3
:104A300004F120023846A16C08F0EFF8A0640820C9
:104A4000009095F8333004F10C023846E16B08F021
:104A5000E4F8E0636868F0613869C068002803DD45
:104A6000384605F0FEF800BFBDE8F88370B504468F
:104A700025693020405D00F00F0018B1204605F098
:104A800094F80BE004F1340060610022012120461B
:104A900005F014F9204605F088F800BF2069006A87
:104AA000820020698169204608F00AF8204601F05A
:104AB000FEFF211F00234FF45272D5E90060B0477A
:104AC00070BD70B505460C46207800B970BD214612
:104AD000284606F00AFF00202070E06932280CD139
:104AE000D4E9062320694168284607F0CFFAD4E9C3
:104AF00006010844A0610020E06100BFE6E770B550
:104B000006460C46254600233046D5E9001205F03E
:104B1000B4FD70BD2DE9FC4705460E461746984684
:104B20000A9C2146284606F05FFE8146606843469F
:104B30003A463146CDE90009284606F021FDBDE898
:104B4000FC877CB506460C461546304606F06CFFE1
:104B5000002000900346224629460190304606F088
:104B60000FFD7CBD2DE9FF4F85B00D4616461C4656
:104B7000DDE91278A81D00F0FF090021204610F0A1
:104B80001FFCC0B12146059806F0EEFD98B1D4F89F
:104B900004A005F1160000F0FF0B30205B46224612
:104BA0003146CDE900A7CDE90309CDF80880059885
:104BB00001F052FA11E005F1220000F0FF0A1FB1E6
:104BC0002146304610F04EFA234632465146CDF883
:104BD0000080059800F004F800BF09B0BDE8F08F30
:104BE0002DE9F04385B007460C4616461D46DDF814
:104BF00030802946384606F007FE8146A4F11C00A5
:104C0000C0B22E2100222346CDE90092CDE90281D7
:104C100004902A463146384601F01EFA05B0BDE838
:104C2000F0832DE9F04F85B007460D4616461C4629
:104C3000DDE90F9ADDF83880606800F17F0B2F20E6
:104C40002B4622463146CDE900B8CDE9030ACDF81E
:104C50000890384601F000FA05B0BDE8F08F2DE964
:104C6000F04F85B082460D4616461C46DDF838806A
:104C70004FF0000B307806280BD13146504606F035
:104C8000B3FD30B12146304610F0ECF94FF0010B86
:104C900015E02078062804D12146504606F0A4FDF0
:104CA00068B905F12200C7B223463246394650465C
:104CB000CDF80080FFF794FF05B0BDE8F08FD4F881
:104CC000049005F11600C7B2A81DC0B230213B46C2
:104CD0002246CDE9009BCDE9028104903146504641
:104CE00001F0BAF900BFE7E72DE9F04104460D46AF
:104CF000E0694668306A431E00224F21304606F0C4
:104D000054FC07463A461121284602F0EFFE294698
:104D1000304606F0EAFDBDE8F0812DE9FE4381460C
:104D20000D4616461C460A9F4FF0000800213046EB
:104D300010F046FB28B12146304610F093F94FF0B1
:104D4000010875B9204603F033F850B10620234618
:104D500032461521CDE9008702904846FFF761FFF2
:104D600007E02346324629464846CDE90087FFF74B
:104D7000F9FEBDE8FE832DE9FC4780460D46164648
:104D80001F4640460EF068FA0446207800F07F0087
:104D9000352812D12068C0F307493146404601F05A
:104DA000C1FD2979206861F3CE10206009F101006E
:104DB000216860F31741216010E00020009001900D
:104DC0000223352140466A6806F0DAFB3146404648
:104DD00001F0A8FD3946404606F0FAFDBDE8FC8723
:104DE0002DE9FF478146884614461D460020029063
:104DF0002078082803D02946204610F033F92146B0
:104E0000484606F001FD824602AA03A9284602F0A0
:104E1000DDFF10B13D27039E0DE02946484606F010
:104E2000E3FC10B13C276E6805E039272946484667
:104E300006F0EAFC06462A462146484601F07DFD7A
:104E4000B8F10D0F01D1012000E000200299334696
:104E50005246CDE900103946484600F053F96060EB
:104E600010202070BDE8FF8770B505460C46522023
:104E700040EAC411284606F05BFB70BD70B50546DC
:104E80000C46284610F01CF806463146204600F035
:104E9000A2F870BD7CB505460C462078122830D2A9
:104EA000DFE800F02F09110A0D0E0F101A2F2F2F17
:104EB0002F2F2F2F141900BF0220207022E000BFD7
:104EC00000BF00BF00BF032020701BE02146284622
:104ED0000DF013FB16E000BF2146284600F072FBE0
:104EE0002146284601F01EFD002000900190024658
:104EF00033212846636806F043FB60601120207070
:104F000000E000BF00BFE068A168E160A060284643
:104F1000E1680FF0BAF82846A1680FF0B6F87CBD3A
:104F20002DE9FF4780460F4614461E46002002909A
:104F300002AA03A9304602F049FF40B1214640468B
:104F400006F062FC8146039D381DC7B21CE002AA30
:104F500003A9204602F03AFF60B13146404606F010
:104F600053FC8146039D3A2F01D1402000E04120AF
:104F7000074609E02146404606F046FC8146314698
:104F8000404606F041FC054632462146404601F0C7
:104F9000D4FC012002992B464A46CDE9001039463F
:104FA000404600F0AFF8606010202070BDE8FF8739
:104FB0002DE9F04107460C4615461E466FF07F402E
:104FC00005EB000844EAC81040EAC631384606F04E
:104FD000AFFABDE8F0814FF0FF328260C260072275
:104FE0000270416070472DE9FC4106460F461446A9
:104FF0001D462146304606F007FC804621463046D5
:1050000001F090FC00200090434602463946019092
:10501000304606F0B5FA606011202070294630460F
:1050200006F0D6FCBDE8FC812DE9FC4704460E469F
:1050300016B13079262806D10020E1680871E068B1
:105040000830E0602EE0F768D7F82890204606F098
:1050500059F88046E0684146016045220271E068E7
:105060000830E06011208DF80400F87908B90025B7
:1050700006E00022494638460DF042FB81460125F4
:105080000CE02A46494638460DF03AFB81466B460D
:105090004A464146204606F0FCF96D1CB869A84214
:1050A000EFDC00BFBDE8FC87F0B504460A460023EC
:1050B000002600200025012109E054F825703B441A
:1050C000B3EB510F01D908461E466D1C490019B1BA
:1050D0001768B7EB510FF0D81660F0BD1FB5044646
:1050E0006946204600F011FD9DF80000012802D11C
:1050F00003208DF800006946E06906F0C4FC0398BF
:1051000004B010BD2DE9FC4704460D4616461F4667
:10511000DDE90A893B46324629462046CDE9008929
:1051200006F02EFA204606F0BAFDBDE8FC870279AB
:1051300002F03F02042A20D005DCDAB1012A13D0A4
:10514000032A20D106E0112A11D0132A07D0142AED
:1051500019D113E006220A7002684A6014E00522A1
:105160000A7002684A600FE003220A700CE0022213
:105170000A7009E001220A7006E000BF07220A70E7
:1051800002684A6000E000BF00BF704702469068B6
:10519000006B00684B6800EB031070472DE9F0418D
:1051A00088B006460F461446984606A9204610F0D9
:1051B00007F950B104A9404610F002F928B104AA39
:1051C00006A9384610F057FD18B9002008B0BDE810
:1051D000F08102A80090B16804AB06AA086A3946BB
:1051E00007F0D2FE9DF80C00032804D106202070A1
:1051F0000298606010E0029D29462846FBF71EFADF
:1052000004D100212846FBF719FA01D10020DDE77F
:1052100005202070656000BF0120D7E72DE9F0412F
:105220008AB004460D46E669676800200090034690
:10523000024613210190304606F0A2F98046002173
:10524000304606F075F90020099007900890069501
:1052500096F834200821284602F048FC0121304607
:1052600006F0C0FE0022114602A802F03FFC7B219E
:105270002046FFF7AFFA00BFE0687D2800D113E0B9
:1052800002A93046FFF71DFC02A9204600F008FDE8
:105290002C21204610F084F80028EDD13B21204637
:1052A00010F07EF80028E7D100BF3B467B227D212D
:1052B0002046FFF707F902A9304603F026F80798C1
:1052C0000090089B414630466A6806F05AFF0AB0D3
:1052D000BDE8F0812DE9F0470646002700BFD6F86B
:1052E0005C900020F065804612E02546D5F81C90C1
:1052F000687940F0200068713A462946304610F03F
:1053000019F920B130460DF0EBFF4FF0010800BF56
:10531000B9F10004E9D10FB9012000E000200746EF
:10532000B8F1000FDBD1BDE8F0872DE9F04105466B
:105330000C4617464FF0000800BFA5EBC4000068FC
:105340000079042804D1A5EBC4000068C07903E00B
:10535000A5EBC4000068C06806463246A5EBC4034E
:105360001B6803F1100107EB0800FAF753FFB04484
:10537000601E041EE1DCBDE8F08170B505462DE03D
:10538000204601F0D9FF0646607900F0180000B110
:105390001FE0607900F00700052808D1607940F02F
:1053A00020006071607980F00300607114E0207962
:1053B000082800D110E0607900F00700062803D12A
:1053C000607980F002006071607940F020006071C7
:1053D00000BF3068286001E0354600BF2C68002C13
:1053E000CED1284670BD70B5044604F15400FFF7D5
:1053F000C4FF0546A06D28600020A0652846FFF781
:10540000BCFF0546206E2860002020662846FFF776
:10541000B4FF0546E06D28600020E0652846FFF7F0
:10542000ACFF70BD70B504460D46294604F16C0012
:10543000FFF7DBF9294604F17000FFF7D6F929469A
:1054400004F17400FFF7D1F9294604F17800FFF761
:10545000CCF970BD70B50346DD686D1AED1002EB36
:10546000C505DD605D6A6D1AED1002EBC5055D6274
:105470001C6A06E0A5686D1AED1002EBC505A56073
:10548000E468002CF6D1586913E045686D1AED10F8
:1054900002EBC505456005686D1AED1002EBC50508
:1054A000056090F8225005F002050DB9012646610D
:1054B00080680028E9D170BD2DE9F04107460C460F
:1054C0003846FEF7BFFA054655B1284607F0D8FB27
:1054D00004EB80063068401C30600120BDE8F0819C
:1054E0000020FBE72DE9FC5F04460E461746984670
:1054F000D4F81C90206B00F11805484606F094FA89
:1055000083463B4632462946009020460DF050F82F
:105510008246B8F1000F06D0D9F80C00007B29684C
:1055200001EB0A110873286800EB0A1120460FF0FE
:1055300064FB78B148460BF0A7FC8346002000903E
:1055400003465A4636210190484606F019F80120D4
:10555000BDE8FC9F0020FBE72DE9F04781460E46A1
:105560001746984606F1110A52463946484604F055
:105570004FFB05462C46C4F808800020A07100218E
:1055800004F1100081552046BDE8F08701460A6805
:1055900008691268D268526B801A0122C2EBA0001F
:1055A00070472DE9F04106460C46154606E027688F
:1055B0002146304601F0EBF93C4600BFAC42F6D143
:1055C000BDE8F08170B504460D46287808280AD059
:1055D0000121204606F006FD94F83400421E2946BB
:1055E000204600F001F870BD7CB506460C46154615
:1055F0002146304606F03AF82078122852D2DFE8E9
:1056000000F05109190F282E3423445151515151A2
:105610005151513A01222946304606F049FB42E0F9
:105620000020009003462A4605210190304605F0EF
:10563000A7FF38E00020009003462A46072101908A
:10564000304605F09DFF2EE0214630460FF02DFC40
:1056500000BF29463046626805F0C9FF23E02946AD
:105660003046626806F0C0F91DE02946304662689F
:1056700006F0E0FA17E03168496B626801EB8200DE
:10568000016865F3CE1101600DE06068A84208D0A2
:105690000020009001902A4601463046636805F0DC
:1056A0006FFF00E07CBD00BF65600820207000BF78
:1056B000F8E770B504460D46164620460BF07BFF12
:1056C000401E70BD70B504460D46E068A0F11001A3
:1056D0000022204604F0E6FA70BD8A7390F832305A
:1056E0000B7383681B6BDB694B6083681B6B1B69E7
:1056F0008B6000234B73C36823B1C368DB7B0BB1A2
:10570000012300E00023CB73C3680B60C1607047C6
:1057100070B504460D464FF48071204604F091FAAE
:105720000121204604F08DFA2046FEF795F9064641
:1057300029462046FEF704FA304670BD10B50446EF
:105740002046616C10F095FB0020E06620676067E2
:105750002046E16C10F08DFB2046616E10F089FB55
:1057600000201C3420666066A06608206077002058
:10577000A07744F8080C1C3C10BD70B505462C6998
:10578000032084F8390004F1440128460FF04DFD50
:10579000A06470BD70B505460C461646287961793F
:1057A000884209D036B160790B2803D1287900F0FE
:1057B000400008B9002070BD6079112811D007DCC5
:1057C00068B101280CD002281ED0032831D10AE08C
:1057D000132810D016281FD054282AD124E000BF47
:1057E00000BF0120E7E72868E168884201D1012075
:1057F000E1E70020DFE7E1682868FAF71FFF01D141
:105800000120D8E70020D6E72868E168884201D166
:105810000120D0E70020CEE72868E168884201D166
:105820000120C8E70020C6E7E168286807F0ECFC23
:10583000C1E72868E168884201D10120BBE7002068
:10584000B9E700002DE9F84306460C461546FDF77A
:105850001DFAD0F800904846FAF764FD074600228A
:10586000294630460CF06FFB00F101084346224602
:1058700009A1304600970CF0F7F84FF0FF322946A7
:1058800030460CF0F0F96FF0010130460CF0ACFA44
:105890000620BDE8F883000063616E6E6F742025FA
:1058A000732025733A2025730000000070B504466C
:1058B0000D462B4604A1A268206807F075FA032163
:1058C000206804F03DFD70BD25733A2062616420BC
:1058D00062696E61727920666F726D61742028252D
:1058E000732900002DE9F04104460D462946204663
:1058F0000BF092FA07463A4605A1206A07F054FADF
:105900000646314620460BF07DFABDE8F0810000E6
:105910002573206578706563746564002DE9F84F20
:1059200004460D469046A068D0F820902068876A0B
:105930000FB90BA004E03A460DA1484607F034FA2F
:1059400082462B4642460FA14846CDF800A007F0FC
:105950002BFA06463146A0680BF054FABDE8F88FE2
:105960006D61696E2066756E6374696F6E0000000C
:1059700066756E6374696F6E206174206C696E6504
:1059800020256400746F6F206D616E79202573206F
:10599000286C696D69742069732025642920696EFB
:1059A0002025730070B504460D461646EDB92068F3
:1059B000401CA0B1204621680EF080FD606A01689D
:1059C000481E626A106031B1606A4168481C626AB0
:1059D0005060087802E0606A0BF0C9FA20604FF46A
:1059E00092723146204602F075FD70BD30B5C47923
:1059F00002694369CD79C5710D6905614D694561DC
:105A0000CC710A614B6130BD1FB504466946204622
:105A100000F07BF86946E06905F067FF1FBD2DE9DE
:105A2000F84F06460C4615462A4621463046FFF7F3
:105A3000DBFD2078102805D104F1080130466268AA
:105A400005F0F2FDD4E9020188423BD04FF0FF3768
:105A5000B8463046A1680CF037FD20B93046E16801
:105A60000CF032FDD0B12078102802D14FF0FF3079
:105A700002E0304606F013F98146062229463046F8
:105A8000FFF75FF80746072229463046FFF759F827
:105A900080464946304606F08CF900BF304605F096
:105AA000C3FF824600972B4652463046E1680CF011
:105AB000C7FFCDF800802B4652463046A1680CF057
:105AC000BFFF00BF4FF0FF30A060E06065600820BE
:105AD0002070BDE8F88F70B504460E4601253146AA
