:020000040800F2
:10000000B8640020D1010008D9010008DB01000814
:10001000DD010008DF010008E10100080000000028
:10002000000000000000000000000000E3010008E4
:10003000E501000800000000E7010008E9010008F0
:10004000EB010008EB010008EB010008EB010008E0
:10005000EB010008EB010008EB010008EB010008D0
:10006000EB010008EB010008EB010008EB010008C0
:10007000EB010008EB010008EB010008EB010008B0
:10008000EB010008EB010008EB010008EB010008A0
:10009000EB010008EB010008EB010008EB01000890
:1000A000EB010008EB010008EB010008EB01000880
:1000B000EB010008EB010008EB010008EB01000870
:1000C000EB010008EB010008EB010008EB01000860
:1000D000EB010008EB010008EB010008EB01000850
:1000E000EB010008EB010008EB010008EB01000840
:1000F000EB010008EB010008EB010008EB01000830
:10010000EB010008EB010008EB010008EB0100081F
:10011000EB010008EB010008EB010008EB0100080F
:10012000EB010008EB010008EB010008EB010008FF
:1001300000F002F800F03CF80AA090E8000C8244BD
:100140008344AAF10107DA4501D100F031F8AFF29A
:10015000090EBAE80F0013F0010F18BFFB1A43F0A5
:100160000103184774D4030084D40300002300243F
:1001700000250026103A28BF78C1FBD8520728BFB7
:1001800030C148BF0B607047662907F0A287642919
:1001900000F04C80002070471FB500F0A9FB040060
:1001A0000020002106F012FDE0601FBD10B510BD5B
:1001B00000F0BEFC1146FFF7EFFF04F0A3F800F0DB
:1001C000DCFC03B4FFF7F2FF03BC01F097F800007A
:1001D0000948804709480047FEE7FEE7FEE7FEE7DB
:1001E000FEE7FEE7FEE7FEE7FEE7FEE70448054917
:1001F000054A064B70470000E51000083101000871
:10020000B8240020B8640020B8440020B84400207E
:10021000704700000FB4044910B503AA029800F01B
:1002200055FB10BC5DF814FB600000202DE9F04187
:100230000646002410687529314616A510D0AFF384
:100240000080002802DA404213A507E031688A07DF
:1002500001D512A502E0490704D511A5012401E04A
:10026000AFF3008000210A2206F1240709E0B0FB69
:10027000F2FCB0FBF2F302FB1C003030785418465D
:10028000491C0028F3D123462A463046BDE8F041F8
:1002900000F0B5B8000000002D0000002B000000A9
:1002A000200000002DE9F0474FF0000A894604467F
:1002B000C0F820A02046E1688847002876D025288D
:1002C00006D0D4E901219047206A401C2062F1E762
:1002D000E168204600258847C4F81CA00646002790
:1002E000C4F818A02A2E09D0304606F0AEF838B36C
:1002F00004EB8708303EC8F8186019E059F8041B71
:10030000204604EB87029161E1688847012F064689
:1003100018D1E069002820DA25F020051DE0D8F882
:10032000180000EB800006EB40003038C8F81800D9
:100330002046E1688847064606F087F80028EED197
:10034000012F0AD02E2E08D12046E16888477F1C55
:100350000646022F45F02005C4DBA069002803DA19
:10036000404245F00105A061E80701D025F01005E5
:10037000B6B1A6F14100192802D8203645F400652F
:100380004A463146204625604D46FFF7FDFE58B1EE
:10039000012806D0ED1D25F0070000F1080989E7C6
:1003A00004E005F1040985E730468AE7206ABDE8E4
:1003B000F087000010B5044603E003F07DFF401C09
:1003C00009D014F8010B05490028F6D1BDE810400A
:1003D0000A2003F071BF4FF0FF3010BD6000002015
:1003E000704770477047704710B500F085FA006895
:1003F00010BD10B5044600F07FFA046010BD2DE971
:10040000F0470D4699469246044600F124080168DB
:10041000880604D5E06921F01001216000E0012088
:10042000A84201DD471B00E00027A1697A1902EB11
:100430000900081AA0612078C00602D42046AFF354
:100440000080002608E0D4E901211AF80600904750
:10045000206A401C761C20624E45F4DB2078C006E2
:100460000AD52046AFF3008006E0D4E90121302010
:100470009047206A401C2062381EA7F10107F4DC77
:1004800007E0D4E9012118F805009047206A401CD4
:100490002062281EA5F10105F3DC2046AFF30080A1
:1004A0002078000602D50220BDE8F0870120FBE796
:1004B0002DE9FF4F0C461E464FF0FF378BB0D2E9B7
:1004C0000001DDF860800A908A46C1F30A5505B93B
:1004D0003D46002108464FF00000BAF1000F00F43D
:1004E000400005DA00EB80004FF4400101EA5000C3
:1004F0004FEA9059B9F1010F00DDB9460A9850EA68
:100500004A000ED044F61050A5F2FF3545432F1493
:10051000B8F1000F1ED07542291E1EDDC9F1000280
:100520001CE0B8F1010F4FF0000001D0302103E0D2
:10053000F24305E02154401CB042FBDB3046002270
:10054000002121540B99C1F80880C1E900200FB0A7
:10055000BDE8F08FBD1B6D1CDEE74A4600DA69423C
:1005600006A800F06BFA06AB93E8070003AB83E83C
:10057000070050460A9905F04FF88DE80700A0F5EE
:1005800000501F3800900398002D0ADD42F21F0131
:100590004A460844002303A90390684605F0B8FAC8
:1005A00009E0A0F500504A461F38002303A9039034
:1005B000684605F0C2FA8DE807000004000C03D07D
:1005C0004FF0FF30410800E01046B8F1000F03D0B3
:1005D0000022009215461EE0751E05D400F090F929
:1005E000303262556D1EF9D5B3460122084302D060
:1005F00000227F1C04E02078302801D100227F1ED9
:10060000002A099784D01DE0112D07DA00F078F94F
:10061000303262556D1C50EA0102F5D1084302D018
:100620000098C8B10EE00021681E05E0235C625C02
:1006300063542254401E491C8142F7DBAB46A81B81
:10064000401E0990002004F80B000B98099AC0F88E
:100650000880C0E9002B7AE711264FF0000857E721
:100660002DE9F04F88460446D21D22F0070191B0D3
:10067000D1E90001CDE90A0105F096FB02460B988D
:10068000C00F01D02D2007E02068810701D52B2065
:1006900002E0202101EAC000032A099001D0072AC4
:1006A00005DB03464146204600F088F90BE120783F
:1006B000800601D5E06900E00620B8F1650F8146AB
:1006C00006D0B8F1660F18D0B8F1670F70D131E0DD
:1006D0000020B9F1110F009001DB112301E009F1B5
:1006E00001030AAA01A90CA8FFF7E2FEDDE90C70DC
:1006F000002609F10105834647E001204B460090A2
:100700004FF000470AAA01A90CA8FFF7D1FEDDE9C6
:100710000DB00C995D46002610B909F101000D18C5
:10072000B9EB050003D4C0F1FF3609F10105A5EBD3
:1007300009002BE0B9F1010F01DA4FF001090020A7
:10074000B9F1110F0090484601DD112300E0034686
:100750000AAA01A90CA8FFF7ABFEDDE90C704D4613
:1007600000268346207800070AD4AB4500DA5D46B0
:1007700001A8012D04DD411911F8011C302907D011
:100780004F4502DA17F1040F04DA012082460FE028
:100790006D1EEEE7002F02DCED1B3E4403E0781CEB
:1007A000A84200DD7D1CB81B00F1010A4FF0004794
:1007B0002078000703D4AA4501DB4FF0FF3A00215F
:1007C000B7F1004F0DF143088DF8431024D00220FB
:1007D0002B23002F01DA7F422D230A21021EA0F1D4
:1007E000010000DC5FB197FBF1FC97FBF1F201FB2C
:1007F0001C7C17460CF1300C08F801CDEEE7A8F18F
:10080000010003702188090501D5452100E065211B
:10081000A0F1010800F8011C09980FA9A1EB080735
:10082000FF1D00B10120411901EBEA70A1693844B4
:10083000081A401EA0612078C00602D42046AFF3FB
:100840000080099828B1D4E901219047206A401C12
:1008500020622078C00622D52046AFF300801EE03B
:10086000002E04DBB34502DD01A8805D00E03020EE
:10087000D4E901219047206A401C2062761CAAF12D
:1008800001005FEA000A0AD100F032F8C06801688E
:10089000405CD4E901219047206A401C2062281E58
:1008A000A5F10105DCDC07E0D4E9012118F8010B12
:1008B0009047206A401C2062381EA7F10107F3DC34
:1008C0002046AFF30080032011B041E6074B70B51E
:1008D0000D467B4400F05FF80446284600F020F9FE
:1008E00010B14FF0FF3070BD204670BDE3390000FD
:1008F000004870472000002000487047000000209A
:1009000030B5B0F10A0271F100034FEA900E4EEAE1
:10091000817EB0EB0E0061EB91014FEA101E4EEAB2
:10092000017E10EB0E0041EB11114FEA102E4EEA42
:10093000016E10EB0E0041EB11214FEA104E4EEA12
:10094000014E10EB0E0041EB1141401841F1000146
:100950004FEAD00040EA41704FEAD1014FEA8104EA
:1009600044EA907410EB800544EB01046D1944EBEC
:100970000404521BA3414FF0000348BF0A3200D5C4
:1009800030BD401C41F1000130BD000001694A1C2E
:1009900002610878704700B58FB0CDE901310021C0
:1009A000059105497944CDE9031011466846FFF7E2
:1009B00079FC0FB000BD0000E5FFFFFF2DE9F0411D
:1009C0001F46044603260168072A01F4006004DB81
:1009D00008B116A505E016A503E008B115A500E0CD
:1009E00015A521F010002060A069C01EA0610FB104
:1009F000401EA0612046AFF300804FB1D4E9012131
:100A000038469047206A401C2062C01C206206E0E5
:100A1000206AFAE7D4E9012115F8010B9047761E08
:100A2000F8D22046AFF30080BDE8F0814E414E0081
:100A30006E616E00494E4600696E66002DE9F04712
:100A4000814616468AB0354878440DC88DE80D00B9
:100A500032487844801C03AC0DC884E80D0041F690
:100A60009B300844372190FBF1F290FBF1F5A5F1A2
:100A7000800501FB12041B3C02D56442012000E00A
:100A80000020DFF898A080460027FA44AAF1BE0AA9
:100A90000EE0E0070AD03246684607EB4701012323
:100AA0000AEB810105F049F88DE8070064107F1C0E
:100AB000002CEED1194F7F44AE3F19E0E80715D066
:100AC00007EB04100DF1180A90E80E008AE80E00FA
:100AD000C068F04201D1981908903246012306A956
:100AE00003A805F02AF803AB83E807006D10641C27
:100AF000002DE3D14FF0010332466946B8F1000FF3
:100B000003A802D005F004F801E005F016F8C9E9E1
:100B10000001C9F808200AB0BDE8F087107A00008B
:100B2000007B00F080007047004870470000002004
:100B30007546FFF7F9FFAE4605006946534620F0BB
:100B40000700854618B020B5FFF750FBBDE82040F0
:100B50004FF000064FF000074FF000084FF0000B79
:100B6000AC46ACE8C009ACE8C009ACE8C009ACE8E8
:100B7000C00921F007018D46704710B50446AFF358
:100B800000802046BDE81040FFF71BBB4FF0013C42
:100B900050F8042B51F8043B9A4221D1A2EB0C03EC
:100BA000934313EACC1317D150F8042B51F8043BAC
:100BB0009A4215D1A2EB0C03934313EACC130BD149
:100BC00050F8042B51F8043B9A4209D1A2EB0C03D4
:100BD000934313EACC13DBD04FF00000704700BF03
:100BE000D01A01BAB1FA81F101F0180122FA01F02C
:100BF000CB40DBB2C0B2C01AC1F120012CFA01F324
:100C0000D11A914311EAC311E6D17047B0B5CB7840
:100C100003F00F0CDA0644BF8A784CEA020C09880C
:100C20005FEA016E00F0F0800268282B16D0482B96
:100C30002ED1CC075ED18C0764D44C076AD40C0744
:100C400070D4CC0677D48C0600F17E804C0600F17F
:100C50008480BEF1000F00F18980D4E0CC0740F021
:100C60008D808C0700F193804C0700F199800C0770
:100C700000F19F80CC0600F1A5808C0600F1AB80CE
:100C80004C0600F1B180BEF1000F00F1B680BAE071
:100C900022F00F04CD0718BF44EA0C0222F0F00442
:100CA0008D0748BF44EA0C1222F470644D0748BF18
:100CB00044EA0C2222F470440D0748BF44EA0C3287
:100CC00022F47024CD0648BF44EA0C4222F470049A
:100CD0008D0648BF44EA0C5222F070644D0648BFAE
:100CE00044EA0C62BEF1000F44BF22F0704242EAB7
:100CF0000C7288E022F00F0242EA0C020124046127
:100D00008C079AD522F0F00242EA0C120224046108
:100D10004C0794D522F4706242EA0C220424046148
:100D20000C078ED522F4704242EA0C32082404618A
:100D3000CC067FF588AF22F4702242EA0C421024E0
:100D400004618C067FF582AF22F4700242EA0C52F5
:100D5000202404614C067FF57CAF22F0706242EAE9
:100D60000C6240240461BEF1000F4CD522F07042A9
:100D7000802542EA0C72056145E000BF22F00F02B7
:100D800042EA0C02012444618C077FF56DAF22F02A
:100D9000F00242EA0C12022444614C077FF567AF6F
:100DA00022F4706242EA0C22042444610C077FF5AD
:100DB00061AF22F4704242EA0C3208244461CC064E
:100DC0007FF55BAF22F4702242EA0C4210244461AA
:100DD0008C067FF555AF22F4700242EA0C522024B3
:100DE00044614C067FF54FAF22F0706242EA0C621C
:100DF00040244461BEF1000F05D522F070428025E9
:100E000042EA0C7245610260B1F5807F38BFB0BD27
:100E10004268282B16D0482B2CD1CB055CD48B05EF
:100E200063D44B056AD40B0571D4CB0479D48B04FD
:100E300000F181804B0400F18880090400F18F806B
:100E40004260B0BDCB0500F193808B0500F19A8024
:100E50004B0500F1A1800B0500F1A880CB0400F147
:100E6000AF808B0400F1B6804B0400F1BD80090413
:100E7000E6D5C3E022F00F03CD0548BF43EA0C02DC
:100E800022F0F0038D0548BF43EA0C1222F4706390
:100E90004D0548BF43EA0C2222F470430D0548BFBC
:100EA00043EA0C3222F47023CD0448BF43EA0C42DB
:100EB00022F470038D0448BF43EA0C5222F07063A1
:100EC0004D0448BF43EA0C62090444BF22F070415C
:100ED00041EA0C724260B0BD22F00F0242EA0C02FD
:100EE0004FF4807303618B059BD522F0F00242EA38
:100EF0000C124FF4007303614B0594D522F4706219
:100F000042EA0C224FF4806303610B058DD522F475
:100F1000704242EA0C324FF400630361CB047FF568
:100F200086AF22F4702242EA0C424FF480530361F0
:100F30008B047FF57FAF22F4700242EA0C524FF42B
:100F4000005303614B047FF578AF22F0706242EAF0
:100F50000C624FF48043036109047FF571AF22F006
:100F6000704141EA0C724FF4004101614260B0BD32
:100F700022F00F0242EA0C024FF4807343618B05AA
:100F80007FF566AF22F0F00242EA0C124FF40073D4
:100F900043614B057FF55FAF22F4706242EA0C2299
:100FA0004FF4806343610B057FF558AF22F4704224
:100FB00042EA0C324FF400634361CB047FF551AF3A
:100FC00022F4702242EA0C424FF4805343618B04B6
:100FD0007FF54AAF22F4700242EA0C524FF40053FC
:100FE00043614B047FF543AF22F0706242EA0C622A
:100FF0004FF48043436109047FF522AF22F0704132
:1010000041EA0C724FF4004141614260B0BD000002
:10101000002941F21C01C4F202010A680CBF22EA55
:101020000000104308607047002941F21801C4F223
:1010300002010A680CBF22EA0000104308607047F2
:1010400010B541F20404C4F20204226802F00C025A
:10105000082A41F20022C0F27A021DD12368D4F896
:1010600000C0C3F3834E5FEACC330EF1020C07D409
:1010700040F60012C0F23D020CFB02F20CE000BF91
:1010800023689B0302D40CFB02F205E040F6001239
:10109000C0F23D020CFB02F20260236848F2784184
:1010A000C3F30313C0F60001CB5CDA40426023684F
:1010B000C3F30223CB5C22FA03F383602368C3F3F8
:1010C000C223C95C48F2744322FA01F1C16022686C
:1010D000C0F60003C2F381329A5CB1FBF2F1016108
:1010E00010BD000082B041F20400C4F2020050F8CA
:1010F000041C002241F0010140F8041C0168CFF6F5
:10110000FF021140016050F8041C4FF6FF72CFF649
:10111000F662114040F8041C50F8041C21F48021B0
:1011200040F8041C016821F4FE0101604FF41F0126
:10113000416000210191009150F8041C41F480317C
:1011400040F8041C50F8041C01F40031009101998E
:1011500001310191009919B90199B1F5A06FF1D14F
:1011600050F8041C890354BF00210121009100990B
:10117000012953D142F20001C4F202010A6842F08F
:1011800010020A600A6822F007020A600A6842F048
:1011900002020A600168016001680160016841F4AF
:1011A00080610160016821F47C110160016841F4F3
:1011B000E811016050F8041C41F0807140F8041CF3
:1011C00050F8041C89015FBF50F8041C5FEA8111CC
:1011D00050F8041C5FEA811103D450F8041C890103
:1011E000EED5016821F003010160016841F00201C0
:1011F000016000BF016801F00C0108290ED00168F0
:1012000001F00C01082909D0016801F00C0108293E
:1012100004D0016801F00C010829EBD14EF608500A
:10122000CEF200004FF00061016002B07047000094
:101230008289002918BF012122F4005242EA41317B
:101240008181704770B586B00446008A0D46C98812
:1012500020F4405008432082A0894EF6F311084044
:10126000A9882A896B89084310431843A081A08A62
:10127000A98920F44070084301AEA0823046FFF7F0
:10128000DFFE43F6000106F10800C4F201018C42C2
:1012900008BF06F10C0000681922B4F90C10504385
:1012A0002A680123B1F1FF3FC8BF022302FA03F10C
:1012B000B0FBF1F048F21F51C5F2EB11A0FB012386
:1012C0005A096FF0630302FB0300B4F90C300326E4
:1012D000B3F1FF3FC8BF042600FA06F000F1320068
:1012E000A0FB01014FF00700C8BF0F2000EA51101A
:1012F00040EA0210208106B070BD00007047000077
:101300002DE9F04F81B0B0F800B099469046824682
:10131000012A0C4635D1BBF1000F32D0ABF10101EF
:10132000201D03290BF0030C16D32BF003025242AD
:10133000036801698668876983F0004381F0004192
:10134000036086F00043016187F0004183608161A2
:10135000043200F12000EBD1BCF1000F11D0016884
:10136000BCF1010F81F0004101600AD08168BCF13D
:10137000020F81F00041816003D0016981F00041DA
:101380000161BBF1FF0F0DDDBBF5806F14DBBBF519
:10139000805F2FD0BBF5006F16D0BBF5806F21D0DA
:1013A00024E000BFBBF13F0F16DCBBF1100F19D0DA
:1013B000BBF1200F08D019E0BBF5807F04D0BBF54E
:1013C000007F17D012E000BF5046214600F022FEF9
:1013D000B9F1000F19D1C9E0BBF1400F0AD0BBF140
:1013E000800F03D15046214600F098FCB9F1000F60
:1013F0000BD1BBE0DAF8042020465946012301F066
:101400007FFCB9F1000F00F0B180BAF80C10002990
:1014100000F0AC8001390122DAF808E002EB510259
:10142000062902F0030C03D24FF0000955E000BF7B
:1014300022F003020EF10E03C2F1000A4FF0000980
:1014400033F80C1C33F80E6C21F0030126F0030670
:101450006258A5596718A25165507968A019426869
:10146000416033F80A0C33F8081C7A6020F003005E
:1014700021F0030125586658221867182650655038
:10148000786851685060796033F8060C33F8041CB2
:1014900020F0030021F00301255866582218671830
:1014A00026506550786851685060796033F8020CB6
:1014B00033F8101B20F0030021F003012558665873
:1014C0002218671826506550786851681AF1040A86
:1014D00009F1080950607960B2D1BCF1000F45D024
:1014E00049F001013EF819003EF8111020F0030008
:1014F00021F00301235865582218661825506350BF
:1015000070685168BCF1010F506071602ED009F114
:1015100002003EF8101040F001003EF8100021F0EB
:10152000030120F0030063582558621826186550FF
:10153000235070685168BCF1020F5060716015D083
:1015400009F104003EF8101040F001003EF81000D0
:1015500021F0030120F00300635827586218261871
:10156000675023507068516850607160B8F1010F86
:1015700076D1584606F05EFB01464FF07E5006F0ED
:1015800063FABBF1000F6BD08146ABF10100032879
:101590000BF0030837D32BF003004742D4E90016C1
:1015A000D4E9025A484606F0C1FB206086F00041AB
:1015B000484606F0BBFB60604846294606F0B6FB8D
:1015C000A0608AF00041484606F0B0FB2169E06067
:1015D000484606F0ABFB6169206181F00041484656
:1015E00006F0A4FBA1696061484606F09FFBE16933
:1015F000A06181F00041484606F098FBE0610437A5
:1016000004F12004CAD1B8F1000F29D0D4E90015A3
:10161000484606F08BFB206085F00041484606F006
:1016200085FBB8F1010F60601AD0D4E90215484675
:1016300006F07CFBA06085F00041484606F076FB92
:10164000B8F1020FE0600BD0D4E90415484606F06B
:101650006DFB206185F00041484606F067FB606144
:1016600001B0BDE8F08F00002DE9F04F83B0058890
:1016700098468146012A8A4633D195B3691E0AF1FC
:101680000800032905F0030C16D325F003014C4292
:101690004368416A4669476B83F0004381F000412B
:1016A000436086F00043416287F00041436141633B
:1016B000043400F14000EBD1BCF1000F11D04168BF
:1016C000BCF1010F81F0004141600AD04169BCF1D9
:1016D000020F81F00041416103D0416A81F0004175
:1016E0004162FF2D01920DDDB5F5806F12DBB5F57E
:1016F000805F27D0B5F5006F18D0B5F5806F21D089
:101700001AE000BF3F2D0DDC102D1BD0202D0DD079
:1017100012E000BFB5F5807F14D0B5F5007F05D08D
:101720000AE000BF402D0DD0802D05D1D9F804204E
:101730005046294600F006F9B8F1000F02950CD189
:101740004EE000BFD9F8042050462946012301F09D
:10175000F3F8B8F1000F029542D0B9F80CC0BCF113
:10176000000F3DD0D9F8088000224FF0010E00276D
:1017700042F0010538F8155038F81260AB085AF8F5
:101780003390B0080AEBC3045AF83010D4F804B010
:101790004AF830900AEBC000D0F80490C0F804B0CA
:1017A0004AF833100EEB9503C4F804900AEBC30417
:1017B0005AF833500EEB960066685AF830104AF823
:1017C00030500AEBC00002324568466047F100071E
:1017D000B2EB0C0077F100004AF833106560C7D314
:1017E0000198029C012840F0AA80204605F0CEFC1A
:1017F0000B4600210246C3F6F071002005F0EAFA1C
:10180000002C00F09C808146601E0F46032804F0E7
:10181000030850D324F00300464200BF9AE82C008E
:10182000DAF80C404846394605F03CFDCAE90001AB
:1018300084F00043484639462A4605F033FDDAE98C
:101840000423CAE902014846394605F02BFDDAE9CE
:101850000623CAE9040183F000434846394605F0EF
:1018600021FDDAE90823CAE906014846394605F0B0
:1018700019FDDAE90A23CAE9080183F00043484662
:10188000394605F00FFDDAE90C23CAE90A0148469A
:10189000394605F007FDDAE90E23CAE90C0183F0A9
:1018A00000434846394605F0FDFCCAE90E010436FE
:1018B0000AF1400AB2D1B8F1000F40D09AE82C00EA
:1018C000DAF80C404846394605F0ECFCCAE900015C
:1018D00084F00043484639462A4605F0E3FCB8F157
:1018E000010FCAE902012AD00AF110052CCDDAF85D
:1018F0001C404846394605F0D5FCCAE9040184F08D
:101900000043484639462A4605F0CCFCB8F1020FA0
:10191000CAE9060113D00AF120052CCDDAF82C40D3
:101920004846394605F0BEFCCAE9080184F0004388
:10193000484639462A4605F0B5FCCAE90A0103B013
:10194000BDE8F08F2DE9F04F9DB0154600220E4600
:101950000746B2EB510F4FEA510100F0CD8101294A
:10196000CDE901611797049500F0288102984FF0A6
:10197000000920F001010391179901F110021B9257
:1019800001EB00100022169055F8090005EB09083C
:101990001C921090D8F804000F90D8F8080012900C
:1019A000D8F80C001190179901EB090019904768BD
:1019B000169851F8096050F809404844C1681A90D7
:1019C000D0E9015B0E9101693046159139462246F6
:1019D0002B4605F043F9CDE913103046394622462F
:1019E0002B4605F04FFE0A9082461B980F4648444E
:1019F0001890099150E902450E9E204629465A4604
:101A0000334605F03FFECDE90510204629465A46EB
:101A1000334605F023F9CDE90D10109EDDF83CB0FA
:101A20003046594652463B4605F03CFCCDE90B108A
:101A3000129C119D069FDDF814A0204629463A46C7
:101A4000534605F02FFCCDE90710304659463A467B
:101A5000534605F027FC1091DDE909328346204604
:101A6000294605F01FFC04460D4617981499DDF829
:101A700064A040F809101398189ECAF80400DDE924
:101A80000D10DDE9073246E90201DDE90B1005F032
:101A9000E5F81A9F169A7960109942F8090058469D
:101AA00022462B4605F0EEFD3A46C2E90201D8F87F
:101AB000100075681090D8F8140056690F90D8F887
:101AC000180029461290D8F81C00904611901B98D7
:101AD000334650F809401C9802301C90159F204650
:101AE0003A4605F0BBF8CDE91310204629463A46A0
:101AF000334605F0C7FDDAE90667D8E906458346AF
:101B00000B9088460A913046394622462B4605F00E
:101B1000B9FD07908A463046394622462B4605F0E5
:101B20009DF815900E91109D0F9F284639465A46F4
:101B3000434605F0B7FBCDE90C10DDF848B0119E27
:101B4000079C584631462246534605F0ABFBCDE98B
:101B50000810284639462246534605F0A3FBDDE926
:101B60000A3280460D465846314605F09BFB064634
:101B70000F461B9814990E9A40F80910189813995B
:101B8000416019981599C0E90612DDE90C10DDE9EC
:101B9000083205F063F81A9C3246C4E90401404655
:101BA0002946049D3B4605F06DFD1C9AC4E90601DB
:101BB000039809F1200990427FF4E6AE019E179F39
:101BC0000299B00740F1988005EB02101301EE581E
:101BD000406803F108041B9310960F9028192E59A2
:101BE000406813961290501807EB02111A914E6834
:101BF00007EB00110001A34657F803803C584D68DD
:101C00001C91824614904046314622462B4605F0F0
:101C100025F8CDE915104046314622462B4605F001
:101C200031FD814607EB0B00CDF838B011904568C7
:101C30000AF108003A1857F80B403E58D2F804B0A1
:101C40001890199288462046294632465B4605F090
:101C500019FD07468A462046294632465B4604F06F
:101C6000FDFFCDE90C10109EDDF83CB03046594622
:101C70004A46434605F016FBCDE90A10139C129D17
:101C8000204629463A46534605F00CFBCDE908109C
:101C9000304659463A46179F534605F003FB064621
:101CA0008A46204629464A46434605F0FBFA044642
:101CB0000D461B981699DDE9083239501A98159986
:101CC0004160DDE90D10395011980C994160DDE952
:101CD0000A1004F0C3FF149A2B46B8501C982246F1
:101CE00041603046019E5146049D05F0CBFC189A98
:101CF000B8501998416002998CB2384621462A465C
:101D0000022300F019FE07EBC60021462A460223F3
:101D10001DB0BDE8F04F00F00FBE00002DE9F04F00
:101D20009DB00788049101EB87094268002100906B
:101D3000B1EBD70F4FEA5700019000F05B8101989B
:101D4000049BF90803EB80063844090103EB80008B
:101D50001596039103F1080108304FF0000B029132
:101D60001490CDE9162900BF049E09EB0B0306EB86
:101D70000B0413941C93DDF80880159808EB0B05F1
:101D800014990F9555F804AC58F80B50E468079572
:101D9000129459F80B40D3F804909D68DB6807460D
:101DA0000594CDF838900695089357F80B3000EB62
:101DB0000B0C1993DCF80430CDF824C00B93DCF83D
:101DC000083001EB0B000D93DCF80C3051F80B10D0
:101DD000119350F8083C1A90189350F8043C40684E
:101DE00056F80BE00A930C91109002EB0B001B903D
:101DF00070462146774605F05FFD46F80B005046D9
:101E0000494605F059FD0F99079DDDF8189041F8F6
:101E1000040C2846494605F04FFD129E089C48F8E0
:101E20000B003046214605F047FD1399C86005991F
:101E3000384606F0D9F80F900E99504606F0D4F8BF
:101E40000E902846494606F0CFF8139030462146BA
:101E500006F0CAF81290DDE9181005F02DFD15996D
:101E6000DDF82C80DDF8289041F80B00404649460B
:101E700005F022FD099CDDF834A00C9F60605046FF
:101E8000394605F019FD119D109EA0602846314687
:101E900005F012FDE060DDE9180106F0A5F80990F3
:101EA0004846414606F0A0F80B903846514606F0E9
:101EB0009BF819903046294606F096F8169951F885
:101EC0000B701B9918900F9E4D683046394605F0EF
:101ED0002DFF11900E9C2946204605F027FF8146D4
:101EE0002046394605F022FF82463046294605F055
:101EF0001DFF80461198494605F0DEFC179941F810
:101F00000B005046414606F06FF81C99099C48604A
:101F10002046294605F00AFF0B9E8046304639468A
:101F200005F004FF81463046294605F0FFFE0546D0
:101F30002046394605F0FAFE07464046494606F077
:101F400053F81A9C294644F8080C384605F0B4FCAE
:101F500044F8040C1B98139ED0E9024530462146F4
:101F600005F0E4FE129F82463846294605F0DEFE63
:101F700080463846214605F0D9FE8146304629463E
:101F800005F0D4FE06465046414605F095FC1C9FE0
:101F90003146B860484606F027F8199EF86030468A
:101FA000294605F0C3FE189F80463846214605F0B5
:101FB000BDFE81463846294605F0B8FE0546304646
:101FC000214605F0B3FE04464046494606F00CF8AB
:101FD0001499DDF85C9041F80B002046294605F085
:101FE0006BFC03990BF1100B169A59451A9948602E
:101FF0007FF4BAAE019D04982946022300F080FECA
:10200000009829464268484602231DB0BDE8F04FBB
:1020100000F076BE2DE9F04FA7B00288D1E9005656
:102020004FEA520A01EB8A0808EB8A0303EB8A0B9A
:102030002592CDF814B006930290406858F82A40D3
:10204000039090088946CDF81080019028462146DB
:102050001F4605F031FC1F902846214605F0C4FFBD
:102060007D68044620903046294605F025FC1D90E9
:102070003046294605F0B8FFD8F8047006461E9091
:102080002046394605F018FCDBF80450294605F0D7
:10209000ABFF59F82A4024903046214605F0A4FFB2
:1020A000069951F82AB0594605F006FC23901F9E68
:1020B0002146304605F098FF594605F095FF2290DD
:1020C000DDF874803946404605F08EFF294605F05C
:1020D0008BFF21902098394605F086FF294605F0B0
:1020E000EBFB20901E98214605F0E6FB594605F0D3
:1020F0007BFF1E903046214605F0DEFB594605F079
:10210000DBFBC9F800004046394605F0D5FB2946FF
:1021100005F0D2FBC9F804002498DDE904E249F88F
:102120002A002398DDF818C0CEF8040022982599DB
:102130004EF82A0021989046CCF8040020984CF8DC
:102140002A006FF0010000EB91000021B1EB500F6D
:102150001E99CDF89890516000F0208245086FF0EC
:10216000030000EB0A140AEB4A006FF0070101EBD1
:10217000800001EBCA0701EB8A0A00210022002639
:1021800023ABCDF884A091C319AB4C44484464C33D
:102190001C9120941F9008EB0600229003980CEBF2
:1021A00006030244014430441892169109EB0601DB
:1021B000119009EB0A000EEB060B1D9009EB0700CE
:1021C000D1E90245D3E902671E900F9120463146BE
:1021D000179305F071FB80462046314605F004FF59
:1021E00082462846394605F067FB8146284639462F
:1021F00005F0FAFEDBE90247CDF840B083465046D1
:10220000394605F059FB2299D1E90265294605F0C6
:10221000EBFE0D905846214605F0E6FE314605F0EE
:102220004BFB0C904046214605F0DEFE314605F0A2
:10223000DBFE13904846394605F0D6FE294605F0E8
:10224000D3FE12905046394605F0CEFE294605F0E1
:1022500033FB15905846214605F02EFB314605F01C
:10226000C3FE14904046214605F026FB314605F09A
:1022700023FB0F9C3946A060484605F01DFB2299C0
:10228000C96805F019FBE060269821994458269802
:10229000239945582046294605F00EFB81462046E5
:1022A000294605F0A1FE1D9904464D681F990F901F
:1022B0004E682846314605F0FFFA07902846314619
:1022C00005F092FE1E99249A4F68269982468D58F1
:1022D0003846294605F088FE83462046594605F0D3
:1022E000EBFADDE9252109908E585046314605F07C
:1022F0007BFE209951F8048C414605F0DDFA0890E8
:10230000484631464C4605F06FFE414605F06CFEEE
:102310000B90DDF81C903946484605F065FE2946CD
:1023200005F062FE0A900F99584605F05DFE0F9089
:102330004046314605F058FE5146DDF884A005F0D0
:1023400053FE0E904846394605F0B6FA294605F088
:10235000B3FA1D994860DDE925104158204605F083
:10236000ABFA0146404605F0A7FA26990D9E41F8C2
:102370000A001198D0E902453046214605F0D6FC06
:102380000C9F80463846294605F0D0FC83463846E7
:10239000214605F0CBFC81463046294605F0C6FCB7
:1023A00006464046594605F087FA109F3146B86008
:1023B000484605F019FEF860089F2946384605F0A2
:1023C000B5FC099E80463046214605F0AFFC8146AB
:1023D0003046294605F0AAFC05463846214605F058
:1023E000A5FC04464046494605F0FEFD1E9948609E
:1023F0002046294605F060FADDE92521139E885024
:102400001698D0E904543046294605F08FFC129FF7
:1024100080463846214605F089FC834638462946E1
:1024200005F084FC81463046214605F07FFC0646D7
:102430004046594605F040FA179F3146B860484675
:1024400005F0D2FDF8600A9F284687F0004105F0AC
:102450006DFC0B9E80463046214605F067FC8146A8
:102460003046294605F062FC05463846214605F00F
:102470005DFC04464046494605F0B6FD1F9948609C
:102480002046294605F0B0FD2699239A159E8850CE
:102490001898D0E906453046214605F047FC149FC0
:1024A00080463846294605F041FC83463846214699
:1024B00005F03CFC81463046294605F037FC0646CF
:1024C0004046594605F0F8F9229F3146B860484623
:1024D000DDF8989005F088FDF8600E9F2946384693
:1024E00005F024FC0F9E80463046214605F01EFC78
:1024F00083463046294605F019FC054638462146F4
:1025000005F014FC04464046594605F06DFD24993B
:1025100049F801002046294605F0CEF9209B19AE66
:10252000DDE9244764CE1C9943F8040C2398DDF8B8
:1025300018C0DDE904E8013D06F10806A4F108042D
:10254000A0F10800A7F1080702F1180201F110013B
:10255000AAF1080A7FF414AE0EEB060023900830AF
:10256000249008EB060082460830259003980CEB77
:102570000607024421921832014422921F91103121
:10258000209109EB0601304407F108038B4601F165
:1025900008021C9008301D901BE000BF039809F151
:1025A000080200F108011D9100F11001209100F1D5
:1025B0001801229108F1080125910EF108010CF192
:1025C0000803CDE923E16746C24621901F901C9085
:1025D000CB4614681D682046294619921B971E9306
:1025E00005F06AF912902046294605F0FDFCDBF85B
:1025F0000C50FE68CDF868B0044615902846314668
:1026000005F05AF980462846314605F0EDFC23993D
:102610000646D1F80C902046494605F04DF9DAF807
:102620000C505446294605F0DFFC24991490D1F84B
:1026300000A03046514605F0D7FC2599D1F800B0EE
:102640002591594605F038F918941390129F514678
:10265000384605F0C9FC594605F0C6FC17904046BF
:10266000494605F0C1FC294605F0BEFC16901598B8
:10267000494605F0B9FC294605F01EF9159030468B
:10268000514605F019F9594605F0AEFC8146384629
:10269000514605F011F9594605F00EF91999DDF882
:1026A0008CA00860DAF80C10404605F005F9E168E6
:1026B00005F002F91A99DDF850B0C8601D98056858
:1026C0001C982946C668584605F030FB139F804683
:1026D0003846314605F02AFB04463846294605F0BF
:1026E00025FB05465846314605F020FB0646404688
:1026F000214605F0E1F8249908602846314605F0A6
:1027000073FCCAF80C002098179E04681F98214695
:102710004569304605F00AFB169F82463846294631
:1027200005F004FB83463846214605F0FFFA0446CF
:102730003046294605F0FAFA05465046594605F056
:10274000BBF81E9908602046294605F04DFC1B99F0
:10275000DDF85480C8602298046821982146C56934
:10276000404605F0E3FA06464846294605F0DEFAFB
:1027700007464846214605F0D9FA04464046294610
:1027800005F0D4FA05463046394605F095F8259906
:1027900008602046294605F027FC1899019DC8606D
:1027A0002698039A2946042300F0AAFA029C04986A
:1027B00062682946042300F0A3FA62680698294655
:1027C000042300F09DFA626805982946042327B087
:1027D000BDE8F04F00F094BA2DE9F047002A00F070
:1027E000A88092468846064612F00304A2F1010929
:1027F0004CD0D6E90007014605F098FA0546384660
:10280000394605F093FA0146284605F055F804F0DC
:10281000C7F94146012C41F8040B03D1083688461C
:10282000CA4633E0D6E90205014605F07FFA0746BD
:102830002846294605F07AFA0146384605F03CF864
:1028400004F0AEF9022CC8F8040005D1103608F1E6
:102850000808AAF1020A19E0D6E9040506F11804ED
:10286000014605F063FA06462846294605F05EFA59
:102870000146304605F020F808F10C0504F090F907
:10288000C8F80800AAF1030A2646A846B9F1030FC2
:1028900038BFBDE8F087A6F12007A8F1100400BFFB
:1028A00057F8200F7D68014605F040FA0646284695
:1028B000294605F03BFA0146304604F0FDFF04F0DE
:1028C0006FF944F8100FD7E90205014605F02EFA1A
:1028D00006462846294605F029FA0146304604F006
:1028E000EBFF04F05DF96060D7E90405014605F0EF
:1028F0001DFA06462846294605F018FA01463046D4
:1029000004F0DAFF04F04CF9A060D7E906050146AF
:1029100005F00CFA06462846294605F007FA014656
:10292000304604F0C9FF04F03BF9BAF1040AE06054
:10293000B6D1BDE8F08700002DE9F04FABB0022919
:102940000492C0F0DA81083000900F4608460E4627
:102950000A9100BF029098B206904FF0FF30B9087C
:1029600000EB9700059001EB4100DDF800A0039318
:102970003B010501480101914FEA011900240021A2
:102980002890CDE90B37CDE9299500BF049A4FEA8D
:10299000011E52F80E0002EB011C1890DCF8040036
:1029A000079117900EF1080002EB000C10584FEA47
:1029B000411E1690DCF8040002EB411C159052F801
:1029C0000E00CDE908A41490DCF8040013900EF179
:1029D000080002EB000C10581290DCF80400119073
:1029E00001EB410002EB001C00011158083010916E
:1029F000DCF804100F91111810580E9048680D90D3
:102A00002898259450445AE9025650E902478346D3
:102A100024902846314622463B4604F01FF9804662
:102A200089462846314622463B4604F02BFE269036
:102A30002898DAE900475AF80050DBF80460219141
:102A4000204639462A46334604F008F9CDE91E10DF
:102A5000204639462A46334604F014FE229029982F
:102A600020910AEB000252E9020793462A9A39465E
:102A70000AEB020656E9022304F0F0F804460D467C
:102A80004046494622462B4604F0E8F84AE902014E
:102A90004046494622462B4604F0F4FD27902998EB
:102AA0002A9ADBF804705AF800005AF8022073687A
:102AB00089461A913946B046239604F0CFF81F9FF5
:102AC0001E9C05460E46384621462A46334604F0EB
:102AD000C5F8CAE90001384621462A46334604F0C3
:102AE000D1FD054629982A9ADBF804705AF80000AF
:102AF0005AF80220D8F804300C463946CDF86CB0AC
:102B000004F0C0FD1D905BE9020658E902231C9108
:102B1000314604F0B7FD149FDDF84C80279ACDE9CB
:102B20001E10384641464B4604F0BCFBDDF8489089
:102B3000DDF844B006461991484659462A462346D0
:102B400004F0B0FB0B4619990246304604F086F8B3
:102B50001B9E2A4646E9020138464146234604F0B8
:102B6000A1FB279A1A9B04460D464846594604F095
:102B700099FB02460B462046294604F083FD299A1C
:102B80007160269C219D1D9E1C9F4AF802002046D4
:102B9000294632463B4604F061F880461B90894640
:102BA0001A912046294632463B4604F06BFD229C92
:102BB000209D1F9E1E9FCDE92601204629463246B4
:102BC0003B4604F05FFDCDE91C1020462946324605
:102BD0003B4604F043F8DDF860B0179CCDE92110C6
:102BE0005846214642464B4604F05CFB169D159E16
:102BF000DDF87480DDF87090074620912846314654
:102C000042464B4604F04EFB0B462099024638469E
:102C100004F024F8249F424647E902015846214621
:102C20004B4604F03FFBDDE91A320446894628464C
:102C3000314604F037FB02460B462046494604F075
:102C400021FD289A7960109E0F9F4AF80200DDE965
:102C500026233046394604F025FB0E9C0D9DDDF8F9
:102C60008880DDF8849024908B4620462946424691
:102C70004B4604F017FB024624980B46594603F0D6
:102C8000EDFFDDF88CB042464BE902013046394693
:102C90004B4604F007FBDDE9262306460F46204697
:102CA000294604F0FFFA02460B463046394604F046
:102CB000E9FC0C9F259C2A9DDDE90A633C444AF807
:102CC0000500B4429A44CBF80410FFF499AEDDE954
:102CD0000601099C01440598DDF820A001348442D6
:102CE0000AF1100A7FF652AE039B0298019F9B00E7
:102CF00007284FEA90003FF62DAE2BB0BDE8F08FCD
:102D00002DE9F04FB7B0CDE90432021D02920C302C
:102D10000A460190199100BFD308D8003590A0EB66
:102D2000D200C000369003EB430006014FEAC00A10
:102D300003EB8300DDF80880D7004FEA0319C400D5
:102D400003935D0100233396CDE91A72CDF8D0903C
:102D5000CDF870A03094329508EB050058F8044C7B
:102D600050F8046C289020463146319304F0A4FDBD
:102D700082462046314605F037F935992B9041447B
:102D80002E9151F8046C30993046414451F8047C3E
:102D90002F91394604F090FD83463046394605F0C0
:102DA00023F908EB0901269151F8046C3399299015
:102DB000414451F8047C27913046394604F07CFDAB
:102DC00005463046394605F00FF91C992A904144D2
:102DD0002D9151F8046C3699304608EB010252F8F7
:102DE000047C894639462C9204F066FD0446304640
:102DF000394605F0F9F824905046294605F0F4F8D4
:102E000022905046294604F057FD05465846214673
:102E100005F0EAF823905846214604F04DFD04469B
:102E20002846214604F048FD48F8040C284621466F
:102E300005F0DAF83299D8F8005058F8016028996E
:102E400041F8040C2846314604F036FD0446284675
:102E5000314605F0C9F83599289058F80150309955
:102E6000284658F80160314604F026FD834628467E
:102E7000314605F0B9F83499219058F8015033994A
:102E8000284658F80160314604F016FD824628466F
:102E9000314605F0A9F81C9958F8096058F8015016
:102EA00025902846314604F007FD0746284631465E
:102EB00005F09AF881462046514605F095F80546FA
:102EC0002046514604F0F8FC04465846394605F0C1
:102ED0008BF806465846394604F0EEFC0746204675
:102EE000394604F0E9FCC8F800002046394605F0F0
:102EF0007BF83299229C48F801002046314604F0C4
:102F0000DBFC269941F8040C2046314605F06CF8AC
:102F10002799239C41F8040C2846214605F064F8C3
:102F2000349948F801002046294604F0C5FC33993D
:102F3000299C249D48F801002046294605F054F8B4
:102F400040F2F347C3F63577394604F0EFFE824688
:102F50002046294604F0B0FC394604F0E7FE219CE7
:102F600005462046494605F03FF8394604F0DEFEA6
:102F700006462046494604F09FFC394604F0D6FE3A
:102F80002B9C07462046514605F02EF883462046E6
:102F9000514604F091FC2A9C82462046294605F0C1
:102FA00023F82B902046294604F086FC289C814675
:102FB0002046314605F018F82A902046314604F0A4
:102FC0007BFC259D04462846394605F00DF806464B
:102FD0002846394604F070FC07465046394604F04E
:102FE0006BFC2E9941F8040C5046394604F0FCFF66
:102FF0002C9941F8040C5846314604F05DFC2F9999
:1030000041F8040C5846DDF870B0314604F0ECFF8E
:103010002D9941F8040C2046494604F0E5FF359906
:1030200048F801004846DDF8D0902146309C04F075
:1030300043FC36992A9E2B9D48F8010030462946CC
:1030400004F0D2FF48F804002846314604F034FC6E
:10305000DDE931351B9ADDE91917134448F80B00F7
:103060008B42B844FFF478AE402AC0F0E582049861
:10307000DA4680B20790039800240146022898BFE0
:103080000221C0EBC000DDF804C04FEAC0080127F0
:103090000691CDF8C48000BF0798059B0444E0006A
:1030A000043053F8341018584FEA0419189153F8A3
:1030B0000910119009F1040004EB4402185817910B
:1030C0004FEAC20B53F8321010900BF10400169126
:1030D000610118585E580F90081D159604EB840680
:1030E00018584FEAC60E53F836600E900EF10400E1
:1030F0001201185814969E580D90101D1396C4EB8B
:10310000C40618580A94F4000C90201D53F8366039
:10311000185812960B90CDE908C700BF0CEB0500BC
:103120005CF8044C50F8046C2290204631462F97EE
:10313000CDF8D8C004F0C0FB80462046314604F0EC
:1031400053FFDDE93521DDF8C0B011442B9151F872
:10315000044C36992A90594451F8047C2D9120460C
:10316000394604F0A9FB81462046394604F03CFF6D
:103170003699349A28901144239151F8044C369989
:10318000339A2046114451F8047C2691394604F0C4
:1031900093FB05462046394604F026FF3699369AB9
:1031A00051442E9151F8044C31992990114451F811
:1031B000047C2C912046394604F07EFB06462046CE
:1031C000394604F011FF24904046294604F00CFFD4
:1031D0001D904046294604F06FFB0546484631469F
:1031E00004F002FF1F904846314604F065FB064696
:1031F0002846314604F060FB369941F8040C284615
:10320000314604F0F1FE3699369A0E6832991E90D6
:1032100057583046394604F04FFB0546304639468C
:1032200004F0E2FEDDE9351227905758369938460A
:1032300051F80B40214604F03FFB06463846214634
:1032400004F0D2FE3699349A21908C583699339AEC
:1032500020468F58394604F02FFB814620463946D8
:1032600004F0C2FE3699369A51F80A4031992590F9
:1032700057582046394604F01FFB834620463946FE
:1032800004F0B2FE20902846494604F0ADFE804688
:103290002846494604F010FB05463046594604F0DE
:1032A000A3FE04463046594604F006FB1D9E074621
:1032B0003046214604F000FB83463046214604F0A8
:1032C00093FE1D902846394604F0F6FA36990860B8
:1032D0002846394604F088FE1F9D0446404629468C
:1032E00004F082FE82462846414604F0E5FA159F26
:1032F000DDF878801F903846414604F017FDDDF870
:10330000389005464846214604F010FD06463846EA
:10331000214604F00BFD04464846414604F006FDF4
:1033200007462846314604F0C7FA229941F8040CB2
:103330002046394604F058FE3299369A179E50506E
:103340003046594604F0F2FC109F04463846514678
:1033500004F0ECFC05463046514604F0E7FC064616
:103360003846594604F0E2FC07462846214604F058
:10337000A3FA239941F8040C3046394604F034FE90
:103380003699349A139E1D9C88503046214604F08D
:10339000CDFC0C9F1F9D80463846294604F0C6FC94
:1033A00081463046294604F0C1FC0646384621468F
:1033B00004F0BCFC07464846414604F07DFA2699D5
:1033C00041F8040C3046394604F00EFE3699339A23
:1033D000289C249D88502046294604F005FE40F292
:1033E000F346C3F63576314604F0A0FC804620460D
:1033F000294604F061FA314604F098FC219C209D96
:1034000081462046294604F0EFFD314604F08EFC4B
:1034100007462046294604F04FFA314604F086FC60
:103420002A9C06462046414604F0DEFD82462046A0
:10343000414604F041FA299D04462846494604F0D5
:10344000D3FD26902846494604F036FA279D81464A
:103450002846394604F0C8FD24902846394604F031
:103460002BFA259D07462846314604F0BDFD8046CF
:103470002846314604F020FA06462046314604F03C
:103480001BFA83462046314604F0AEFD2790504695
:10349000414604F011FA29905046414604F0A4FD3B
:1034A0002A903846494604F09FFD824648463946F0
:1034B00004F002FA249D269C80462846214604F00A
:1034C00093FD28902046294604F0F6F9189C814681
:1034D0002046594604F02AFC119E054630465146C6
:1034E00004F024FC07462046514604F01FFC044625
:1034F0003046594604F01AFC06462846394604F080
:10350000DBF92B9941F8040C2046314604F06CFDA0
:10351000DDE93521129E279C88503046214604F073
:1035200005FC0B9F82463846414604F0FFFB0546EA
:1035300030464146DDF8C48004F0F8FB06463846C4
:10354000214604F0F3FB07465046294604F0B4F93F
:103550002C9941F8040C3046394604F045FD369963
:10356000149E299C41F808003046214604F0DEFBF9
:103570000D9FDDF8A0B082463846594604F0D6FBD0
:1035800005463046594604F0D1FB064638462146EA
:1035900004F0CCFB07465046294604F08DF92D99DE
:1035A00041F8040C3046394604F01EFD3699309A35
:1035B000169E2A9C88503046214604F0B7FB0F9F88
:1035C00082463846494604F0B1FB05463046494636
:1035D00004F0ACFB06463846214604F0A7FB07463C
:1035E0005046294604F068F92E9941F8040C3046FB
:1035F000394604F0F9FCDDF8D8C01C9A2F9F4CF82E
:1036000002001B98199907441A98329D92468F42DE
:103610008444FFF483AD099F0698DDF820C001378C
:103620000A9C87420CF1080C7FF436AD0498039A8B
:10363000C0000490FFF770BB37B0BDE8F08F00000A
:10364000C0B14DF6B8024FF40071C0F60002938984
:103650000180D2E901128381C0E901124FF4806137
:10366000018245F25861C0F603014161002040B279
:10367000704700BFFF2040B270470000D0B14FF448
:10368000007101804FF4806101824FF4F0718181FB
:103690004DF228414BF2D832C0F60001C0F60102CB
:1036A000C0E901214DF2D871C0F60101416100204D
:1036B00040B27047FF2040B270470000B0B14DF6F5
:1036C000C8024021C0F6000293890180D2E90112AC
:1036D0008381C0E901128021018246F25861C0F65F
:1036E00003014161002040B2704700BFFF2040B29B
:1036F00070470000C0B14021018080210182382143
:1037000081814DF2E8714DF2D832C0F60001C0F669
:103710000102C0E901214FF2D871C0F601014161F7
:10372000002040B2704700BFFF2040B27047000049
:10373000C0B14DF658024FF48061C0F60002938983
:103740000180D2E901128381C0E901124FF40061C6
:10375000018246F65801C0F603014161002040B2E3
:10376000704700BFFF2040B270470000D0B14FF457
:10377000806101804FF4006101824FF47871818192
:103780004BF6E0114DF6D802C0F60001C0F600027B
:10379000C0E901214FF6D831C0F601014161002096
:1037A00040B27047FF2040B270470000B0B14DF604
:1037B00068028021C0F6000293890180D2E90112DB
:1037C0008381C0E901124FF48071018248F65801EB
:1037D000C0F603014161002040B27047FF2040B2B3
:1037E00070470000C0B1802101804FF480710182D8
:1037F000702181814CF2A01141F6D802C0F600017F
:10380000C0F60102C0E9012143F6D831C0F6020139
:103810004161002040B27047FF2040B27047000075
:10382000B0B14DF678021021C0F6000293890180F4
:10383000D2E901128381C0E901122021018248F6F8
:103840005841C0F603014161002040B2704700BFFB
:10385000FF2040B270470000C0B11021018020213C
:1038600001820C2181814CF2802142F2D802C0F603
:103870000001C0F60102C0E9012144F2D831C0F6CE
:1038800002014161002040B2704700BFFF2040B2FA
:1038900070470000C0B14DF688024FF40061C0F6D9
:1038A000000293890180D2E901128381C0E90112EB
:1038B0004FF48051018248F6D841C0F603014161BE
:1038C000002040B2704700BFFF2040B270470000A8
:1038D000D0B14FF4006101804FF4805101824FF468
:1038E000F86181814CF2982142F2D812C0F60001B1
:1038F000C0F60102C0E9012144F2D841C0F602013C
:103900004161002040B27047FF2040B27047000084
:10391000C0B14DF698024FF48071C0F60002938951
:103920000180D2E901128381C0E901124FF40071D4
:1039300001824CF6D841C0F603014161002040B23B
:10394000704700BFFF2040B270470000D0B14FF475
:10395000807101804FF400710182F02181814DF26C
:1039600018214AF2D812C0F60001C0F60102C0E9DF
:1039700001214CF2D841C0F602014161002040B261
:10398000704700BFFF2040B270470000B0B14DF655
:10399000A8022021C0F6000293890180D2E9011219
:1039A0008381C0E90112402101824DF2D841C0F665
:1039B00003014161002040B2704700BFFF2040B2C8
:1039C00070470000C0B120210180402101821821F0
:1039D00081814DF2F8314BF2D812C0F60001C0F6E9
:1039E0000102C0E901214DF2D841C0F60201416156
:1039F000002040B2704700BFFF2040B27047000077
:103A0000F0B581B014460E4605467BB128463146D6
:103A100022461F4600F08CFC284621463A460123E8
:103A200001B0BDE8F040FDF76BBC00BF2846314651
:103A300000220123FDF764FC28463146224601B0EE
:103A4000BDE8F04001F0F6B8F0B581B00546008A57
:103A500014460F464008288073B12846394622464E
:103A60001E4600F001FF284621463246012301B0E0
:103A7000BDE8F040FDF7F8BD284639460022012395
:103A8000FDF7F2FD28463946224601B0BDE8F04078
:103A900001F064BBB1F5007F0ADA7F2916DC20292A
:103AA0002AD0402940D143F68D11C0F600010847C5
:103AB000B1F5006F14DAB1F5007F23D0B1F5806F56
:103AC00032D143F24161C0F60001084780291FD07E
:103AD000B1F5807F28D143F2AD71C0F600010847EF
:103AE000B1F5805F1AD0B1F5006F1DD143F231718D
:103AF000C0F60001084700BF43F62101C0F60001EF
:103B0000084700BF43F61111C0F60001084700BF87
:103B100043F2BD61C0F60001084700BF43F69501BE
:103B2000C0F60001084700BF4FF0FF3070470000AB
:103B3000B1F5007F0ADA7F2916DC20292AD0402936
:103B400040D143F6C511C0F600010847B1F5006F3A
:103B500014DAB1F5007F23D0B1F5806F32D143F292
:103B60007D61C0F60001084780291FD0B1F5807F34
:103B700028D143F2E571C0F600010847B1F5805F36
:103B80001AD0B1F5006F1DD143F26D71C0F600017E
:103B9000084700BF43F65901C0F60001084700BFBF
:103BA00043F64D11C0F60001084700BF43F2F5612E
:103BB000C0F60001084700BF43F6D101C0F600017E
:103BC000084700BF4FF0FF307047000001F0BEBC57
:103BD0002DE9F04F89B040F2B400C2F2000041F28A
:103BE000624A40F6912B0024A0F108084FF000092A
:103BF000C4F29D3AC3F6067BC4F208041FFA89F0AA
:103C000004F018F85146054604F090F84FF06E5154
:103C100004F08CF8594603F04FFE03F021FE02F049
:103C20004BFF02460B4603F019F80022234603F02F
:103C300015F80F4647F6DC6106462846C4F23C41BB
:103C400004F074F84FF06E5104F070F840F6DA7139
:103C5000C3F6497103F030FE03F002FE02F02CFFC0
:103C600032463B4602F0FAFF02F0C6FF48F8080F62
:103C700009F1010080B203F0DDFF5146054604F072
:103C800055F84FF06E5104F051F8594603F014FE08
:103C900003F0E6FD02F010FF02460B4602F0DEFFE5
:103CA0000022234602F0DAFF0F4647F6DC610646A3
:103CB0002846C4F23C4104F039F84FF06E5104F04C
:103CC00035F840F6DA71C3F6497103F0F5FD03F0FB
:103CD000C7FD02F0F1FE32463B4602F0BFFF02F0A4
:103CE0008BFF09F10209B9F1800FC8F8040085D1F2
:103CF00003AC20468021FFF7CDFE40F2B46840F2CD
:103D0000B401C2F20008C2F200012046424600237C
:103D10000024FFF775FE40F2B449C2F200094046A4
:103D200049468022FEF758FDD9F800004FF0705147
:103D300003F0FCFF8246C9F8000000BF09EB040550
:103D4000D5E90107EE684FF0725103F0EFFF6860AC
:103D500038464FF0725103F0E9FFA86030464FF04B
:103D6000725103F0E3FFB4F5F87FE86008D02869EA
:103D70004FF0725103F0DAFF28611034DEE700BF24
:103D800008F1040440F6B42642F6E2680027C2F2C5
:103D90000006C4F2652800BF50464FF07C5103F086
:103DA00040FE28B10020B7F5FE7FF0510CD113E0A2
:103DB00054F8041C206802F02DFD414603F0B6FFC4
:103DC000B7F5FE7FF05107D009EB0700D0F804A04B
:103DD00004370834E0E700BF40F2B44640F6B427A9
:103DE00044F22D3943F2E26A0024C2F20006C2F224
:103DF0000007CEF61C39C3F61A7A0FF2480805E020
:103E000001340436802C07F1040717D0306803F022
:103E100027FD4A46534605468B4603F0D1FD002850
:103E2000EED1386803F01CFD02460B4640462146A1
:103E30000095CDF804B0FCF7EDF9E1E709B0BDE875
:103E4000F08F00BF25642C25662C25660D0A000026
:103E50002DE9F04F89B003A88021FFF769FE40F6F5
:103E6000B840C2F2000041F2624A40F6912B0024B1
:103E7000A0F110084FF00009C4F29D3AC3F6067B8A
:103E8000C4F208041FFA89F003F0D4FE5146054637
:103E900003F04CFF4FF06E5103F048FF594603F01A
:103EA0000BFD03F0DDFC02F007FE02460B4602F0BC
:103EB000D5FE0022234602F0D1FE0F4647F6DC6114
:103EC00006462846C4F23C4103F030FF4FF06E51E5
:103ED00003F02CFF40F6DA71C3F6497103F0ECFCF5
:103EE00003F0BEFC02F0E8FD32463B4602F0B6FEAF
:103EF00048F8100F09F1010080B2C8F8041003F06F
:103F000099FE5146054603F011FF4FF06E5103F044
:103F10000DFF594603F0D0FC03F0A2FC02F0CCFDEB
:103F200002460B4602F09AFE0022234602F096FE5D
:103F30000F4647F6DC6106462846C4F23C4103F0D2
:103F4000F5FE4FF06E5103F0F1FE40F6DA71C3F664
:103F5000497103F0B1FC03F083FC02F0ADFD324681
:103F60003B4602F07BFE09F10209B9F1800FC8E976
:103F7000020187D141F6B80840F6B841C2F2000804
:103F8000C2F2000103A8424600234FF00009FFF7E8
:103F90005BFD41F2B840C2F2000000F1380B00BFF7
:103FA00008EB090A0AF1040658F8090062CE024635
:103FB0000B4603F077F907460C46284631462A4659
:103FC000334603F06FF902460B463846214602F0AD
:103FD00045FE02F0BFFD0AF110053CCD4BE90E0194
:103FE0001046194603F05EF906460F46204629465C
:103FF00022462B4603F056F902460B463046394618
:1040000002F02CFE02F0A6FD0AF120053CCD4BE9A2
:104010000C011046194603F045F906460F462046A6
:10402000294622462B4603F03DF902460B46304610
:10403000394602F013FE02F08DFD0AF130053CCD49
:104040004BE90A011046194603F02CF906460F46C3
:104050002046294622462B4603F024F902460B4609
:104060003046394602F0FAFD02F074FD0AF14005CF
:104070003CCD4BE908011046194603F013F90646FA
:104080000F462046294622462B4603F00BF90246EE
:104090000B463046394602F0E1FD02F05BFD0AF1C5
:1040A00050053CCD4BE906011046194603F0FAF8DD
:1040B00006460F462046294622462B4603F0F2F8D4
:1040C00002460B463046394602F0C8FD02F042FD7A
:1040D0000AF160053CCD4BE904011046194603F096
:1040E000E1F806460F462046294622462B4603F0B5
:1040F000D9F802460B463046394602F0AFFD02F0D1
:1041000029FD0AF170053CCD4BE902011046194624
:1041100003F0C8F806460F462046294622462B469D
:1041200003F0C0F802460B463046394602F096FDD1
:1041300002F010FD09F18009CBE90001B9F5006F2B
:104140000BF1400B7FF42CAF41F2B844C2F20004F3
:10415000D4E9000100224FF07E53C346002603F04D
:10416000A1F840F2000A81468846C3F6907AC4E975
:10417000009800BF41F2B840C2F20000871907F171
:10418000080533CD0022534603F08CF8C7E902013D
:10419000204629460022534603F084F8D7E9062337
:1041A000C7E90401104619460022534603F07AF885
:1041B000B6F5787FC7E906010AD0D7E908010022E1
:1041C000534603F06FF8C7E908012036D2E700BF75
:1041D0000BF1080740F2000A42F2B80B4AF2DC5633
:1041E0000024C3F6E07AC2F2000BC4F24C0600BF12
:1041F0004846414600225346002503F0E8FB08B13B
:1042000000210BE057E90223D7E9000102F034FA5C
:104210004FF08042334603F045F805460BEB0400AF
:10422000B4F57E7F4BF80450416009D041F2B840AC
:10423000C2F200002044D0E9029808341037D7E7D2
:1042400041F2B84642F2B80744F22D3943F2E26A2D
:104250000024C2F20006C2F20007CEF61C39C3F6F3
:104260001A7A0FF2400805E001340836802C07F175
:10427000080713D0D6E9005B4A46284659465346FC
:1042800003F09EFB0028EFD1D7E9002340462146EA
:104290000095CDF804B0FBF7BDFFE5E709B0BDE838
:1042A000F08F00BF25642C252E3131662C252E3150
:1042B00031660D0A0000000043F60002C4F201025C
:1042C000118849065FBF11885FEA416111885FEA82
:1042D000416102D411884906F2D544F20041C4F28A
:1042E0000001C3B293800A88520609D40A88520694
:1042F0005CBF0A885FEA426202D40A885206F2D59D
:104300008B807047FFF762FC05A0FCF753F8FFF7BE
:104310005FFC05A0FCF74EF8FFF79AFDFEE700BF33
:104320005B6633325D0D00005B6636345D0D000068
:104330002DE9F04F8DB0D1E900450E46D0F814902C
:10434000B0F8008020462946924603F0B5FA4FF0B7
:104350007C5103F0EBFCCAF800002046294603F02C
:1043600043FE4FF07C5103F0E1FCB8F1020FCAF8B4
:104370000400C0F01982A8F1010006EBC00710F09C
:104380000303A8F1020200F0CA800A9230464A46AE
:10439000CDF8008050F8088F52F8085F0590D0F8EB
:1043A00004B0506839687C680690404607910994CB
:1043B000CDF820B00492CDE90B3703F015FE074687
:1043C0002046594603F078FACDF8089081463846E1
:1043D0002946AB4603F0AAFC069D044648462946FA
:1043E000CDF80CA003F0A2FC82460798414603F0EA
:1043F00063FA214603F0F8FD514603F0F5FD4FF056
:104400007C5103F093FCDDF80CA029464AF8080F14
:104410003846B04603F08AFC04465846494603F045
:1044200085FC0546DDE9080103F0DEFD214603F0C9
:1044300043FA294603F0D8FD4FF07C5103F076FC97
:10444000DDE90B27CAF80400012AA7F1080707D104
:104450000A9ADDE904961046032AC0F0A58161E0BE
:104460000298CDF8048058F8109FD7E900A650F8BC
:1044700010BFD8F80440CDF81C800690D0F8048016
:1044800048465146099608940C9703F0ADFD054641
:104490003046214603F010FA07462846594603F0F5
:1044A00045FC064638464146444603F03FFC8046FC
:1044B0005046494603F000FA314603F095FD414667
:1044C00003F092FD4FF07C5103F030FCDDF80CA0BE
:1044D00021464AF8100F284603F028FC04465846A7
:1044E000394603F023FC0546DDE9080103F07CFDB5
:1044F000214603F0E1F9294603F076FD4FF07C51A7
:1045000003F014FC0C9FCAF804000B98083F022823
:1045100040F04E810098DDE906960A9A0338032A96
:10452000C0F0428107F1240104300B91002101AA5F
:1045300082E84006DDF82C80CDE9071058F8205DB0
:104540007018524658F804ACD0E902B609EB0103E2
:1045500009905018D3E902970C9058465146069599
:1045600005960A9303F040FD04462846314603F0C1
:10457000A3F905462046494603F0D8FB0490284697
:10458000394603F0D3FB06462046394603F0CEFBFE
:1045900004464846294603F0C9FB0546504659469D
:1045A00003F08AF9049903F01FFD314603F01CFD66
:1045B0004FF07C5103F0BAFB0C9EB060DDE90501C1
:1045C00003F012FD214603F077F9294603F00CFDB4
:1045D0004FF07C5103F0AAFBF060099858E903A55D
:1045E000D0E904B60A98CDF82C80D0E90487584663
:1045F00051460695059603F0F7FC044628463146D9
:1046000003F05AF905462046414603F08FFB064663
:104610002846394603F08AFB81462046394603F096
:1046200085FB04464046294603F080FB054650467C
:10463000594603F041F9314603F0D6FC494603F0F0
:10464000D3FC4FF07C5103F071FB0C9E3061DDE92F
:10465000050103F0C9FC214603F02EF9294603F0B9
:10466000C3FC4FF07C5103F061FB70610B9850E983
:1046700005A509985146D0E906B60A980695D0E9ED
:1046800006875846059603F0AFFC04462846314697
:1046900003F012F905462046414603F047FB064663
:1046A0002846394603F042FB81462046394603F04E
:1046B0003DFB04464046294603F038FB054650467C
:1046C000594603F0F9F8314603F08EFC494603F0F1
:1046D0008BFC4FF07C5103F029FB0C9EB061DDE9AF
:1046E000050103F081FC214603F0E6F8294603F0BA
:1046F0007BFC4FF07C5103F019FBF0610B9850E903
:1047000007A509985146D0E908B60A980695D0E958
:1047100008875846099603F067FC04462846314648
:1047200003F0CAF805462046414603F0FFFA064664
:104730002846394603F0FAFA81462046394603F006
:10474000F5FA04464046019F294603F0EFFA054674
:104750005046594603F0B0F83146DDF80CA03E460D
:1047600003F042FC4946DDF8089003F03DFC4FF0B1
:104770007C5103F0DBFA0C9F06993862099803F02C
:1047800033FC214603F098F8294603F02DFC4FF046
:104790007C5103F0CBFA7862089807990438042812
:1047A00001F120013FF7C6AE0DB0BDE8F08F00BFAC
:1047B0000198029A50F818BFD7E900A652F8184F8E
:1047C00045680190D2F80480584651460B960894EB
:1047D000029209950C9703F007FC81463046294662
:1047E00003F06AF807464846214603F09FFA06465A
:1047F00038464146444603F099FA804650465946A9
:1048000003F05AF8314603F0EFFB4146DDF80CA007
:1048100003F0EAFB4FF07C5103F088FA4AF8180FD6
:104820004846214603F082FA04460898394603F0C8
:104830007DFA054609980B9903F0D6FB214603F053
:104840003BF8294603F0D0FB4FF07C5103F06EFAA1
:104850000C9FCAF804000098DDE901690A9A083F34
:104860000438032AA0D35DE62DE9F04F99B0D0F8C3
:1048700014A0008891E8200ACF6890460291189011
:10488000441E284649465A463B4602F0E7F90026B0
:10489000C3F6E0760022334602F004FDC8E90001C9
:1048A000284649465A463B4602F0ECFE0022334673
:1048B00002F0F8FC002CCDF80480C8E9020100F0F9
:1048C000B581E007029800EB041705D1189802287B
:1048D00000F0AC8197E000BFCDF80CA00398029ED9
:1048E00050F810BF56F8105F039003983A6840687C
:1048F0007B6817900398D7F808808068D7F80C90E9
:10490000099003987168C068D6F808A0F468089008
:1049100028460B920A93CDF854800D950296CDF857
:1049200050900C91CDF84CA01294169702F0AAFE6C
:1049300005460F900E460E91404649465246234684
:1049400002F08CF9179B044610900F4611912846EF
:1049500031465A465E4602F0A5FC80462046099C38
:10496000DDF82090019D8A46394622464B4602F0EA
:1049700099FC83460F46DDE90A10DDE90C3202F0AE
:104980006DF94246534602F07DFE5A463B4602F020
:1049900079FE0023C3F6E073002202F083FC0F4689
:1049A00045F8100FDDE90E1022464B4602F07AFC66
:1049B0000C461799DDE910238346304602F072FC5D
:1049C00006468846DDE91210DDE914326F6002F018
:1049D00059FE5A46DDF80CA0234602F03FF9324654
:1049E000434602F04FFE00230022C3F6E07302F0BC
:1049F00059FCC5E90201169F1898103F841E0195C5
:104A0000022800F0138107F1280017900020CDF84C
:104A10000CA000BF0299CDE915040C18E5690AEB5A
:104A20000007DDF85CB017953D6912971094266970
:104A30006169D4F818900595D7E90554FF695BF8CA
:104A4000208D0697019FDBF804A05BE90223384420
:104A500018903046CDF85080CDF84CA0CDE90C230D
:104A60000E960F91CDF844900B9402F00BFE179B1D
:104A700006460F460491404651464A4602F0EEF87B
:104A80000C463946059F824630463A462B4602F090
:104A900009FCDDF82C80DDF81890CDE909105046AE
:104AA000214642464B4602F0FDFBCDE90710049932
:104AB000304642464B4602F0F5FB06460B9138461F
:104AC00029465246234602F0EDFB0CAB81468A464E
:104AD0000FCB02F0C3F8DDE9093202F0D3FDDDE9C6
:104AE000073202F0CFFD00230022C3F6E0731D461B
:104AF00002F0D8FB189CDDE91332C4E904011198D7
:104B0000179902F0BFFD0B9B324602F0A7F84A4608
:104B1000534602F0B7FD00222B4602F0C3FB129D64
:104B2000C4E906012F6A109C07976F6A5BF8182C7E
:104B30000697AF6A5BF8143C5BF8108C5BF80C9C32
:104B4000206A616AA66AE46A0897EF6A0E920D937A
:104B5000CDF85080CDF85CB0CDF84C900C900F9112
:104B60001196109402F08EFD82468B4640464946CF
:104B70003246234602F072F8079C069E804689461C
:104B8000504659462246334602F08CFB089D12904F
:104B90000B91404649462A463B4602F083FBCDE94D
:104BA0000910504659462A463B4602F07BFB0890C6
:104BB0008B4620463146DDF80CA042464B4602F0BB
:104BC00071FB04460E46DDE90C21DDE90E0302F01F
:104BD00045F8129A0B9B02F055FDDDE9093202F00F
:104BE00051FD0027C3F6E07700223B4602F05AFB56
:104BF000189DDDE91332C5E90801DDE9101002F066
:104C000041FD089A5B4602F029F82246334602F03D
:104C100039FD00223B4602F045FB169CC5E90A011E
:104C20001598023C00F120007FF4F4AE19B0BDE805
:104C3000F08F00002DE9F04F8DB0D0F8149005886A
:104C4000D1E900048B4601461746A5F1010802F0A0
:104C500033FE82462046214602F02EFE0446504690
:104C6000214602F029FE4FF07C5103F05FF83860D6
:104C70005046214603F0B8F94FF07C5103F056F846
:104C800078604046022D28BF0120291AC0430BEB53
:104C9000C80211F00301284400F01681CDE909058E
:104CA00058464B4650F808AF53F8084FD2E90086F3
:104CB0000190456858680B9105904046514608960A
:104CC0000694079500930C9203F08EF9CDE903B991
:104CD000814630462946BB4602F0EEFD0646484670
:104CE000214603F023F8059D07463046294603F088
:104CF0001DF804464046514602F0DEFD394602F0FA
:104D0000DBFD214602F0D8FD4FF07C5103F00EF898
:104D10005F4647F8080F48462946CDF808B003F02B
:104D200005F804460698314603F000F80546DDE92B
:104D3000070103F059F9214602F0BEFD294603F0B0
:104D400053F94FF07C5102F0F1FFDDE90B1278606E
:104D50000129A2F1080205D10A98DDE9009BA0F122
:104D60000208B0E00398049B50F810AFD2E900B6F7
:104D700053F8105F4768CDE905055C685846514611
:104D80000896079701930C9203F02EF9814630465E
:104D9000394602F091FD07464846294602F0C6FF13
:104DA0000646384621463D4602F0C0FF804658463A
:104DB000514602F081FD314602F07EFD414602F08F
:104DC0007BFD4FF07C5102F0B1FF029F214647F876
:104DD000100F484602F0AAFF04460698294602F042
:104DE000A5FF0546DDE9070103F0FEF8214602F0C4
:104DF00063FD294603F0F8F84FF07C5102F096FF6E
:104E00000C9A78600B98083A022807D10A98DDF8C6
:104E10000490DDF814B0A0F1030854E0039804995D
:104E200050F818AFD2E900B651F8187F45680390E2
:104E300004914C68584651460B9608950C9203F025
:104E4000D3F881463046294602F036FD05464846ED
:104E5000394602F06BFF06462846214602F066FFFF
:104E600080465846514602F027FD314602F024FDA7
:104E7000414602F021FD4FF07C5102F057FF029EA7
:104E8000214646F8180F484602F050FF04463846BF
:104E9000294602F04BFF054608980B9903F0A4F849
:104EA000214602F009FD294603F09EF84FF07C519F
:104EB00002F03CFF0C9A70600A98DDE903B9083AE9
:104EC000A0F10408374609980328C0F0438102F195
:104ED00024000C9008F104000021CDF81090CDE9D9
:104EE000027B00BFCDE907100C9809EB01020346D5
:104EF00053F8204D0BEB010053F8049CD0E902A5B8
:104F00000A907818D2E902680B90484651460C93F3
:104F100006940595099203F067F80746204629464E
:104F200002F0CAFC83463846314602F0FFFE0446D2
:104F30003846414602F0FAFE07463046594602F02E
:104F4000F5FE05465846414602F0F0FE0646484644
:104F5000514602F0B1FC214602F0AEFC314602F0AF
:104F6000ABFC4FF07C5102F0E1FE0B9CA060DDE950
:104F7000050103F039F8394602F09EFC294603F09A
:104F800033F84FF07C5102F0D1FEE0600C9850E90C
:104F900003A50A980695D0E9049609984946D0E9F0
:104FA00004785046059603F01FF80446284631461B
:104FB00002F082FC83462046394602F0B7FE0546E1
:104FC0002046414602F0B2FE04463846594602F0F9
:104FD000ADFE07465846414602F0A8FE064650463A
:104FE000494602F069FC294602F066FC314602F0AF
:104FF00063FC4FF07C5102F099FE0B9D2861DDE9C6
:10500000050102F0F1FF214602F056FC394602F09C
:10501000EBFF4FF07C5102F089FE68610C9850E97B
:1050200005A50A980695D0E9069609984946D0E95B
:1050300006785046059602F0D7FF044628463146CA
:1050400002F03AFC83462046394602F06FFE0546E0
:105050002046414602F06AFE04463846594602F0B0
:1050600065FE07465846414602F060FE0646504639
:10507000494602F021FC294602F01EFC314602F0AE
:105080001BFC4FF07C5102F051FE0B9DA861DDE945
:10509000050102F0A9FF214602F00EFC394602F09C
:1050A000A3FF4FF07C5102F041FEE8610C9850E9FB
:1050B00007A50A980695D0E9089609984946D0E9C7
:1050C000087850460A9602F08FFF0446284631467B
:1050D00002F0F2FB83462046394602F027FE0546E1
:1050E0002046414602F022FE04463846594602F068
:1050F0001DFE09905846414602F018FE06465046ED
:10510000494602F0D9FB294602F0D6FB314602F0AF
:10511000D3FB4FF07C5102F009FE0B9E06993062E2
:105120000A98DDE9027BDDF8109002F05DFF214670
:1051300002F0C2FB099902F057FF4FF07C5102F0D8
:10514000F5FD7062089807990438042801F12001E0
:105150003FF7C8AE0DB0BDE8F08F00002DE9F04F6D
:1051600099B0904602880C46D0F814A0D1E900010D
:105170001892013AD4E90267149202460B4601F0F4
:105180006DFD81460D463046394632463B4601F0BC
:1051900065FD06460F464846294632463B4601F025
:1051A0005DFD40F2000BC3F6E07B00225B4602F09F
:1051B00079F8C8E900014846294632463B4602F0E4
:1051C00061FA00225B4602F06DF8C8E90201149909
:1051D000C346C80704EB01160AD108461899CDE961
:1051E00002A40229DDE9022100F0AD8196E000BFB2
:1051F0005AF8100F54F8102F1790DAF80800376893
:105200000990DAF80C007168B568D6F80C90CDF802
:1052100004B06368D4F808800394E468DAF804B052
:10522000089038460C970B9116950D92CDF8549036
:105230000A93CDF850801394CDF844B0CDF808A06F
:10524000129602F01FFA07460F900E460E9128465E
:1052500049464246234601F001FD179A0446109044
:105260000D46384631465B4602F01CF88046204623
:10527000099C089E8A46294622463346AB4602F0E0
:1052800011F805460F46DDE90C02DDE90A31DDF8CB
:10529000049001F0E3FC4246534601F0DFFC2A464D
:1052A0003B4601F0DBFC40F20008C3F6E078002248
:1052B000434601F0F7FF0D4649F8100FDDE90E10E7
:1052C0002246334601F0EEFF04460F461798DDE90B
:1052D00010215B4601F0E6FF82460E46DDE9131021
:1052E000DDE91532C9F8045002F0CCF922463B46FC
:1052F00001F0B4FC5246334602F0C4F900224346A2
:1053000001F0D0FF129EC9E902011899CB46103E68
:10531000881E0229DDE9022100F0158106F128032B
:10532000002618930391CDE901B200BF189DCDE985
:10533000136090192A4652F8203D8D1951685C4639
:10534000169318921195159152E902712A696B69A9
:10535000D5F818A0D5F81CB0056912900D954569CF
:1053600008970E958569C0690C910490A019179053
:1053700038460B920A93CDF840A0CDF83CB0059585
:1053800002F080F980468946DDE9151052465B46F9
:1053900001F064FCDDF834A00E9F05468B464046C4
:1053A000494652463B4601F07DFF059E049CCDE9EF
:1053B0000610404649463246234601F073FF0990E5
:1053C0008946504639462A465B4601F06BFFCDE9D7
:1053D0000D10284659463246234601F063FF064623
:1053E000884608980C99DDE90A3201F037FCDDE9BE
:1053F000063201F033FC3246434601F02FFC002315
:105400000022C3F6E0731F4601F04CFF179EDDE952
:105410001532C6E90401DDE90F1002F033F9099AEB
:105420004B4601F01BFCDDE90D3202F02BF90022A6
:105430003B4601F037FF129CC6E90601256A189A1F
:105440000795656A119E0695A56A52F8180C52F8E0
:10545000141C52F810AC52F80CBC326A736AB76A6A
:10546000F66A0895E56A10900F91CDF858A0CDF82E
:1054700054B00E920D930C97119602F003F98046EA
:105480008946504659463A46334601F0E7FB079FA6
:10549000069E82468B46404649463A46334601F0D0
:1054A00001FF089CCDE909104046494622462B469B
:1054B00001F0F8FE0B9088463846314652465B466E
:1054C00001F0F0FE8146129150465946DDF804B0D5
:1054D00022462B4601F0E6FE04460D46DDE90F109C
:1054E000DDE90D3201F0BAFBDDE9093201F0B6FB6E
:1054F00022462B4601F0B2FB0025C3F6E0750022E0
:105500002B4601F0CFFE179CDDE91532C4E90801F6
:105510000C98119902F0B6F80B9A434601F09EFBE5
:10552000129B4A4602F0AEF800222B4601F0BAFE6A
:10553000139EC4E90A011498029A0399023806F1ED
:1055400020067FF4F3AE19B0BDE8F08F2DE9F04FDF
:1055500085B044F204000121FBF766FD40F2002013
:1055600040F60004C1F60300C4F2010404AD049047
:1055700020462946FBF74AFB4FF48060ADF8100047
:105580004FF00408204629468DF81380FBF73EFBB8
:1055900004F54057E9464FF4E13A00264FF4402B1A
:1055A00038464946CDF800A00196CDF808B0ADF8D0
:1055B0000C60FBF747FE38460121FBF739FE4FF43C
:1055C00000300121FBF724FD04200121FBF72CFD15
:1055D0000420C1F60300049020462946FBF716FB81
:1055E0000820ADF81000204629468DF81380FBF7FF
:1055F0000DFBA4F5444420464946CDE900A6CDF86C
:1056000008B0ADF80C60FBF71DFE20460121FBF74A
:105610000FFE05B0BDE8F08F5FEA400C08BF91F0C7
:10562000000F4FEA8C234FEAC12243EA51514FEA5F
:105630001C5018BF00F5F0404FEA300018BF41F091
:1056400000415FEA6C5C00F02980BCF1FF3F08BFBD
:1056500040F080407047130C06BF12044FF0100C4E
:105660004FF0000C130E04BF12020CF1080C130FC4
:1056700004BF12010CF1040C930F04BF92000CF153
:10568000020CD30F04BF52000CF1010C11464FF075
:105690000002A0F11F00A0EB0C00704711F0004FBA
:1056A00008BF704731F000413FF4D5AF0B0C06BF87
:1056B00009044FF0100C4FF0000C0B0E04BF090250
:1056C0000CF1080C0B0F04BF09010CF1040C8B0F3B
:1056D00004BF89000CF1020CCB0F04BF49000CF190
:1056E000010CCCF1200322FA03F341EA030102FA90
:1056F0000CF2A0EB0C0000F10100704723F07F4793
:1057000020F07F4C80EA030000F00040ACEB070380
:1057100003F57C5303F1FF032DE9804909B44FEAF7
:10572000144324EA03484FEA154B25EA0B4E0FF2C7
:10573000042606EB13273E7803FB0667C7F5000730
:1057400007FB06F64FEAD64606F102064FEA543743
:1057500007FB066CCCF1005C4FEA1C472CEA074CB7
:105760000CFB06F507FB06F404EB15464FEA96160C
:1057700049085FEA320234BF00204FF000404FEA90
:10578000D13706FB07FC4FEA1C4C0CFB0BF7D21B76
:1057900003FB0CF761EB07010CFB0EF7B0EB0740C6
:1057A00072EB17420CFB08F734BFA2EB0742B2EBD7
:1057B000074261EB17414FEA0C444FEA910706FBA1
:1057C00007FC4FEA1C4C0CFB0BF7B0EBC74072EB2D
:1057D000573203FB0CF734BFA2EBC742B2EBC74210
:1057E00061EB57310CFB0EF7B0EBC70072EB577251
:1057F0000CFB08F734BFA2EBC702B2EBC70261EBA8
:1058000057714FEA816141EA92114FEA826242EA9E
:1058100090124FEA806004EBCC04039F4FEAD1372B
:1058200006FB07FC4FEA1C4C0CFB0BF7D21B03FBDF
:105830000CF761EB07010CFB0EF7B0EB074072EBC6
:1058400017420CFB08F734BFA2EB0742B2EB07424A
:1058500061EB17414FEA8C5504EB9C244FEA91070A
:1058600006FB07FC4FEA1C4C0CFB0BF7B0EBC740E8
:1058700072EB573203FB0CF734BFA2EBC742B2EB1B
:10588000C74261EB57310CFB0EF7B0EBC70072EB70
:1058900057720CFB08F734BFA2EBC702B2EBC7028A
:1058A00061EB57714FEA816141EA92114FEA8262DE
:1058B00042EA90124FEA806015EB4C2544F1000457
:1058C0004FEAD13706FB07FC4FEA1C4C0CFB0BF7E9
:1058D000D21B03FB0CF761EB07010CFB0EF7B0EBDF
:1058E000074072EB17420CFB08F734BFA2EB0742EC
:1058F000B2EB074261EB17414FEA813141EA924135
:105900004FEA823242EA90424FEA80304FEA0C7608
:1059100015EB1C1544F1000448EA03434EEA0B481A
:105920004FF0000EB2EB080C71EB030724BF624688
:1059300039464EEB0E0E4FF0000B00185241494114
:105940004BEB0B0BB2EB080C71EB03077BF1000B7D
:1059500024BF624639464EEB0E0E4FF0000B001886
:10596000524149414BEB0B0BB2EB080C71EB0307B7
:105970007BF1000B24BF624639464EEB0E0E51EA16
:10598000020718BF46F0010616EB0E7655F100022D
:1059900054F1000103D5BDE88901BDE80088BDE8E8
:1059A0008901BDE80048B619524141EB0101A3F15C
:1059B0000103704780807F7E7D7C7B7A7978777663
:1059C00076757473727171706F6E6E6D6C6C6B6ADC
:1059D0006A6968686766666564646363626161607A
:1059E000605F5F5E5E5D5D5C5C5B5B5A5A595958F7
:1059F0005857575656555555545453535252525161
:105A0000515050504F4F4F4E4E4D4D4D4C4C4C4BB6
:105A10004B4B4A4A4A4949494848484747474746FD
:105A20004646454545444444444343434342424239
:105A3000424141419C46002B30D477002BD04FEAA5
:105A400037071CB503B44FF010004FF01001BAF146
:105A5000000F06D0BCF1000FDCBF40F0080040F0A2
:105A600008014FF000000FBCBDE810400BF1010B26
:105A7000BBF1010F08BF5FEA170722BF12F1010255
:105A800011F101014FF0004143F1000300F000402B
:105A900043EA00007047F9D35708D0E746EA0646C4
:105AA0004FEA164613F1400F1FDD13F1200FDFBF41
:105AB00016430A46002120335B42BED0C3F12007C3
:105AC00046EA06464FEA164602FA07F746EA07068E
:105AD00022FA03F2C3F1200701FA07F742EA0702AC
