:020000040800F2
:1000000090060020CD010008A10300089903000814
:100010009D0300087D0200080D0700080000000095
:10002000000000000000000000000000B90400080B
:100030008102000800000000A3030008A5050008D5
:10004000E7010008E7010008E7010008E7010008F0
:10005000E7010008E7010008E7010008E7010008E0
:10006000E7010008E7010008E7010008E7010008D0
:10007000E7010008E7010008E7010008E7010008C0
:10008000E7010008E7010008E7010008E7010008B0
:10009000E7010008E7010008E7010008E7010008A0
:1000A000E7010008E7010008E7010008E701000890
:1000B000E7010008E7010008E7010008E701000880
:1000C000E7010008E7010008E7010008E701000870
:1000D000E7010008E7010008E7010008E701000860
:1000E000E7010008E7010008E7010008E701000850
:1000F000E7010008E7010008E7010008E701000840
:10010000E7010008E7010008E7010008E70100082F
:10011000E7010008E7010008E7010008E70100081F
:10012000E7010008E7010008E7010008E70100080F
:1001300000F002F800F03AF80AA090E8000C8244BF
:100140008344AAF10107DA4501D100F02FF8AFF29C
:10015000090EBAE80F0013F0010F18BFFB1A43F0A5
:1001600001031847F40B0000140C0000103A24BFE0
:1001700078C878C1FAD8520724BF30C830C144BF0C
:1001800004680C607047000000230024002500264E
:10019000103A28BF78C1FBD8520728BF30C148BFEA
:1001A0000B6070471FB51FBD10B510BD00F033F8D0
:1001B0001146FFF7F7FF00F02BFB00F051F803B4F6
:1001C000FFF7F2FF03BC00F0A3FA000009488047E4
:1001D00009480047FEE7FEE7FEE7FEE7FEE7FEE729
:1001E000FEE7FEE7FEE7FEE704480549054A064B41
:1001F00070470000BD050008310100089000002094
:100200009006002090020020900200207047704766
:10021000704770477047754600F02CF8AE460500F1
:100220006946534620F00700854618B020B5FFF711
:10023000DBFFBDE820404FF000064FF000074FF015
:1002400000084FF0000B21F00701AC46ACE8C009F4
:10025000ACE8C009ACE8C009ACE8C0098D467047FD
:1002600010B50446AFF300802046BDE81040FFF70C
:10027000A6BF0000004870472C00002000BFFEE72A
:1002800070472DE9F041024600250026002000239A
:100290000024002791F803C00CF00F0591F803C06B
:1002A0000CF0100CBCF1000F03D091F802C04CEA26
:1002B000050591F800C0BCF1000F31D01468002092
:1002C0002BE04FF0010C0CFA00F3B1F800C00CEA7F
:1002D00003069E4220D183004FF00F0C0CFA03F767
:1002E000BC4305FA03FC4CEA040491F803C0BCF1DA
:1002F000280F06D14FF0010C0CFA00FCC2F814C014
:100300000AE091F803C0BCF1480F05D14FF0010C91
:100310000CFA00FCC2F810C0401C0828D1D31460AD
:10032000B1F800C0BCF1FF0F34DD546800202EE0AE
:1003300000F1080C4FF0010808FA0CF3B1F800C006
:100340000CEA03069E4221D183004FF00F0C0CFAF9
:1003500003F7BC4305FA03FC4CEA040491F803C01C
:10036000BCF1280F05D100F1080C08FA0CF8C2F80E
:10037000148091F803C0BCF1480F07D100F1080CBC
:100380004FF0010808FA0CF8C2F81080401C082849
:10039000CED35460BDE8F08100BFFEE700BFFEE7AA
:1003A0007047704729B1064AD2690243044BDA61AB
:1003B00004E0034AD2698243014BDA6170470000CE
:1003C0000010024029B1064A92690243044B9A6127
:1003D00004E0034A92698243014B9A61704700002E
:1003E0000010024030B500210022002400232D4DD2
:1003F0006D6805F00C0121B1042905D0082923D12D
:1004000005E0294D056022E0274D05601FE0254DE0
:100410006D6805F47012234D6D6805F48034022573
:1004200005EB92421CB9214D554305600BE01D4D73
:100430006D6805F400351DB11C4D5543056002E0A3
:10044000194D5543056002E0174D056000BF00BF20
:10045000144D6D6805F0F0010909154D6B5C0568D8
:10046000DD4045600F4D6D6805F4E061090A104DEF
:100470006B5C4568DD4085600A4D6D6805F4605130
:10048000C90A0B4D6B5C4568DD40C560054D6D6864
:1004900005F44041890B074D6B5CC568B5FBF3F56E
:1004A000056130BD0010024000127A0000093D00D5
:1004B0001400002024000020704710B500F002F85E
:1004C00010BD00000CB5002001900090334800687A
:1004D00040F480303149086000BF3048006800F4C3
:1004E000003000900198401C0190009818B90198C4
:1004F000B0F5A06FF1D12948006800F4003010B1C8
:100500000120009001E0002000900098012843D1D4
:100510002348006840F01000214908600846006840
:1005200020F0030008600846006840F00200086000
:100530001A484068194948600846406848600846BB
:10054000406840F4806048600846406820F47C10B1
:1005500048600846406840F4E81048600846006873
:1005600040F08070086000BF0C48006800F0007028
:100570000028F9D00948406820F003000749486086
:100580000846406840F00200486000BF03484068E9
:1005900000F00C000828F9D10CBD0000001002404A
:1005A000002002400448006820B103480068401E53
:1005B00001490860704700002800002010B513486A
:1005C000006840F001001149086008464068104981
:1005D00008400E494860084600680E4908400B492B
:1005E00008600846006820F48020086008464068DB
:1005F00020F4FE0048604FF41F008860FFF75DFFA5
:100600004FF000600449086010BD00000010024077
:100610000000FFF8FFFFF6FE08ED00E021B182893F
:1006200042F40052828104E082894DF6FF731A4041
:10063000828170472DE9F04786B005460E460024BA
:10064000A24600BFA1460027B08900B100BF2F46D7
:100650002C8A4CF6FF700440F08804432C82AC894D
:100660004EF6F3100440B08831890843718908437D
:100670000443AC81AC8A4FF6FF400440B089044388
:10068000AC8201A8FFF7AEFE1F48874202D1DDF819
:1006900010A001E0DDF80CA0A88900F4004040B1F2
:1006A0000AEBCA0000EB0A1031684900B0FBF1F810
:1006B00007E00AEBCA0000EB0A1031688900B0FBC2
:1006C000F1F86420B8FBF0F004012009642101FB7B
:1006D0001089A88900F4004040B1322000EBC90025
:1006E000B0FBF1F000F00700044308E0322000EB1B
:1006F00009106421B0FBF1F000F00F0004432C81DD
:1007000006B0BDE8F08700000038014000BFFEE7FA
:1007100000BF704710B500F005F800F063F800F076
:10072000B7F810BD2DE9F04100BF1D48006800F08A
:10073000ACFA054600221B4B00F022F9074600F0F8
:1007400077FA0446601EB0F1807F01D301201BE0E0
:10075000601E4FF0E021486148170F21002807DA9A
:100760000A07150E104A00F00F031B1FD55403E0B3
:100770000A07130E0D4A135400BF00204FF0E0216A
:1007800088610720086100200028CED14FF0E020CA
:10079000006920F001004FF0E0210861BDE8F08120
:1007A0000000002080842E4118ED00E000E400E00D
:1007B0000B4908604FF0E021096941F001014FF059
:1007C000E022116100BF064909680029FBD14FF002
:1007D000E021096921F001014FF0E0221161704729
:1007E0002800002008B501210420FFF7EBFD4FF49D
:1007F0008070ADF8000010208DF8030003208DF804
:10080000020069460148FFF73CFD08BD00080140B1
:1008100090B04FF011300F9040000E904FF03330F9
:100820000D904FF044300C904FF055300B904FF03E
:1008300066300A904FF077300990C0430890FFF778
:1008400069FF00BFEFF30881084600BF80F3098805
:1008500000BF022080F3148800BF4FF011300790D2
:10086000400006904FF0333005904FF04430049034
:100870004FF0553003904FF0663002904FF07730D4
:100880000190C04300900120FFF792FF00BFFEE7F8
:1008900000B585B001210420FFF794FD01218803F4
:1008A000FFF790FD4FF40070ADF8100003208DF8B5
:1008B000120018208DF8130004A92E48FFF7E1FC60
:1008C0004FF48060ADF8100004208DF8130004A9E7
:1008D0002848FFF7D6FC4FF4E13000900020ADF837
:1008E0000400ADF80600ADF80800ADF80C000C20CF
:1008F000ADF80A0069462048FFF79CFE01211E481A
:10090000FFF78CFE01210420FFF75CFD0121480464
:10091000FFF748FD0420ADF8100003208DF8120009
:1009200018208DF8130004A91248FFF7AAFC08202C
:10093000ADF8100004208DF8130004A90D48FFF74E
:10094000A0FC4FF4E13000900020ADF80400ADF8B9
:100950000600ADF80800ADF80C000C20ADF80A0058
:1009600069460648FFF766FE01210448FFF756FE78
:1009700005B000BD000801400038014000440040BF
:100980002DE9C04130B4DFF8A0C23CEA111418BF11
:100990003CEA131400F0EC8081EA03051CEA111410
:1009A00044EAD57418BF1CEA131500F0C780A4EB05
:1009B00005044FF0004545EAC12145EAC32341EA59
:1009C000505143EA525304F17F74994204F50034C4
:1009D0004FEAC0204FEAC22208BF904200F09C803C
:1009E0004FEA13650FF24016765D4FEA134506FB9A
:1009F00005F7C7F1807706FB07F74FEAD737A7FB64
:100A000003687642C8F58038A7FB06CE38BFA8F148
:100A1000010807FB08E64FF0000EA6FB028CE6FB80
:100A200003CEDCF1000CCEF1004E38BFAEF1010E6A
:100A3000A6FB0C584FF000074FF00005E6FB0E87B1
:100A4000A1FB08C6A0FB07CE16EB0E0645F100057C
:100A5000E1FB076515F1E04E7EBFA4F580345FEA47
:100A600046066D4116F1800745F100054FEA17274C
:100A70004FEA066647EA0567A6F1DE46B6F1805FF3
:100A80004FEA15251FD9384624F0010C05EBC47137
:100A9000BCF1FE6F01EB0C1102D8F0BCBDE8008187
:100AA00024425CBF01F5801E9EEAC47F02D4F0BCE4
:100AB000BDE80081244238D4F0BCA1F1C041BDE8BA
:100AC000004100F043B94FEAD22242EA43524FEAD2
:100AD000D323A7FB02864FEAD02040EA415007FB10
:100AE00003661EEA0E0F4FEAD12105FB026658BFCE
:100AF000A6EB0056B6EB00564FEA520E4EEAC37E06
:100B000018EB0E0E56EB530EBDD518EB02085E41E6
:100B10007F1C55F10005B6E74FF480154FF0000734
:100B20004FF000064FF00008ADE7F0BC4FF00000BA
:100B300001F1C04101F00041BDE8008111EA0C1F44
:100B40000CEA131500D00CE013EA0C1F00F025800E
:100B50004FF00000F0BC81EA030101F00041BDE864
:100B60000081F0BCBDE8004181EA030100F0EEB86D
:100B7000F0BCBDE8004170B500F09AF8097EFC3E7B
:100B800000F007B881EA03014FF0000001F00041D6
:100B9000704781EA030100F0D9B8F0BCBDE800411C
:100BA0004FF0000021497047FFFDFBF9F7F5F4F223
:100BB000F0EEEDEBE9E8E6E4E3E1E0DEDDDBDAD8F8
:100BC000D7D5D4D3D1D0CFCDCCCBCAC8C7C6C5C456
:100BD000C2C1C0BFBEBDBCBBBAB9B8B7B6B5B4B36D
:100BE000B2B1B0AFAEADACABAAA9A8A8A7A6A5A458
:100BF000A3A3A2A1A09F9F9E9D9C9C9B9A9999981C
:100C00009797969595949393929191908F8F8E8EBE
:100C10008D8C8C8B8B8A898988888787868585844B
:100C200084838382828181800000FF070000F87F37
:100C30004FEA1153A3F58063D3F11E03A8BFD3F18C
:100C4000200C08DB4FF0004242EAC12252EA505227
:100C500032FA03F0704709420BD4102BC4BF0020B6
:100C6000704703F5787CBCF1FF3F05D04FF0FF30B3
:100C700070474FF00000704770B500F019F800BFE2
:100C80004992248000207047F0E7B0FA80F310FA10
:100C900003F10AD0C3F11D0303F580634FEA41500D
:100CA0004FEA035202EBD12170474FF0000070472A
:100CB0000EF1020E2EF0030E5EF8046B364205D4E0
:100CC000012A43EB030515F5001F12D8012841EB5B
:100CD000010C1CF5001F0CD80ED14FEAD17C15F584
:100CE000001F0CEB4C0C0CF1020C08BF4CEBD37C3E
:100CF00004E04FF0080C01E04FEAD37C0CEB4C050C
:100D000026FA05F606F00706B6F1040C06D20EEB3D
:100D1000860CBDE870404CF0010C6047DFE80CF039
:100D2000090B02024FF000414FF00000A1F5002135
:100D300070BD19461046012851EB010418BFD4F5C7
:100D4000001484BF002001F0004170BD0808A0F528
:100D500000114FEA31017047780D000800000020B3
:100D60002C0000006C010008A40D00082C000020DD
:100D7000640600008801000800A24A040000000088
:100D8000000000000102030406070809000000003B
:100D9000010203040102030406070809020406080D
:040DA000000000004F
:0400000508000131BD
:00000001FF
