:020000040800F2
:10000000A004002045010008350C0008310B000851
:10001000310C0008B1010008C50D00080000000007
:10002000000000000000000000000000950C000827
:10003000B501000800000000650C0008C90C0008AC
:100040005F0100085F0100085F0100085F01000810
:100050005F0100085F0100085F0100085F01000800
:100060005F0100085F0100085F0100085F010008F0
:100070005F0100085F0100085F0100085F010008E0
:100080005F0100085F0100085F0100085F010008D0
:100090005F0100085F0100085F0100085F010008C0
:1000A0005F0100085F0100085F0100085F010008B0
:1000B0005F0100085F0100085F0100085F010008A0
:1000C0005F0100085F0100085F0100085F01000890
:1000D0005F0100085F0100085F0100085F01000880
:1000E0005F0100085F0100085F0100085F01000870
:1000F0005F0100085F0100085F0100085F01000860
:100100005F0100085F0100085F0100085F0100084F
:100110005F0100085F0100085F0100085F0100083F
:100120005F0100085F0100085F0100085F0100082F
:10013000DFF80CD000F02AF8004800471D0E000838
:10014000A00400200648804706480047FEE7FEE777
:10015000FEE7FEE7FEE7FEE7FEE7FEE7FEE7FEE777
:10016000310D000831010008D2B201E000F8012B86
:10017000491EFBD270470022F6E710B513460A4627
:1001800004461946FFF7F0FF204610BD064C074D08
:1001900006E0E06840F0010394E807009847103457
:1001A000AC42F6D3FFF7C8FF680E0008880E0008BF
:1001B000FEE7000070470000EFF3108072B600BF4A
:1001C000FEE700002DE9F04F83B00C68002C00F032
:1001D000EA80A0F18042A2F5843240F2004E4FEA5C
:1001E000B22241F60047C4F2010E0092C4F20107A8
:1001F000062200254FF001094FF0000B4FF0000AD6
:10020000B84208BF0522019209E000BF0C680BF15B
:10021000010B34FA0BF205F1040500F0C48009FA71
:100220000BF814EA080CF1D04C684FF6FF72C1F2DB
:100230001002944210DC122C50D8DFE804F0330A8C
:1002400041454F4F4F4F4F4F4F4F4F4F4F4F4F48DD
:100250004C00D1F80CA041E04FF6FF72C1F2210230
:1002600094420FDC0022C1F2110294421AD0002203
:10027000C1F21202944215D00022C1F2210294422E
:1002800010D02BE00022C1F2220294420AD00022B8
:10029000C1F23102944205D00022C1F232029442EE
:1002A0001CD100BF8C6844B1012C14BFC0F814806D
:1002B000C0F810804FF0080A10E04FF0040A0DE07B
:1002C000CC6804F1080A09E04FF0000A06E0CC68A7
:1002D00004F1040A02E0CC6804F10C0A2C4607463B
:1002E000BCF5807F24BF203C04373A680F2303FA13
:1002F00004F6B2430AFA04F422433A60CA79D206F9
:100300007FF584AF41F21804C4F2020422684FF66C
:10031000084842F0010222602268CFF6FF7802F01E
:1003200001020292029A2BF00302724452F8084032
:1003300005F00C0603FA06F7009BBC43019F052B52
:1003400038BF1F4607FA06F6344342F808404C68A7
:10035000E203DEF8002054BF22EA0C0742EA0C0751
:10036000A203CEF80070DEF8042054BF22EA0C0786
:1003700042EA0C07E202CEF80470DEF8082054BF0F
:1003800022EA0C0742EA0C07A20240F20C44CEF823
:100390000870C4F20104226854BF22EA0C0242EA47
:1003A0000C02226032E703B0BDE8F08F002A08BFDC
:1003B000090401617047000040F29800C2F2000099
:1003C0000068704740F2040040F29801C2F2000059
:1003D000C2F2000100780A6810440860704700000B
:1003E00080B542F20000C4F20200016841F0100141
:1003F0000160032000F062F8002000F005F800F032
:100400002BF8002080BD0000B0B540F20402C2F21B
:10041000000240F200011278C2F200014FF47A7338
:100420000968B3FBF2F20446B1FBF2F1084600F0B2
:10043000E3FA0F2C4FF001050CD858B94FF0FF30FC
:1004400021460022002500F029F840F20800C2F2FF
:10045000000004602846B0BD82B041F21800C4F22A
:1004600002000168022241F001010160016801F00F
:10047000010101910199416841F08051416040685A
:1004800000F08050009000980420C4F20100016840
:1004900062F31A61016002B07047000070B5144643
:1004A0000D46064600F090FC2946224600F0C4FBAB
:1004B0000146304600F090FC70BD000080B500F0B1
:1004C0009DFC80BD2DE9F04381B0002800F08980BB
:1004D00042F20008C4F202080446D8F800000D46B3
:1004E00000F0070088420CD2D8F8000020F0070086
:1004F0002843C8F80000D8F8000000F00700A84220
:100500006FD1206841F204098107C4F2020917D5AE
:10051000410705D5D9F8001041F4E061C9F8001091
:10052000010705D5D9F8001041F46051C9F8001051
:10053000D9F80010A26821F0F0011143C9F80010A9
:10054000C00745D1D8F8000000F00700A8420CD938
:10055000D8F8000020F007002843C8F80000D8F8B9
:10056000000000F00700A8423BD12068410707D5F2
:10057000D9F80010E26821F4E0611143C9F80010D5
:10058000000708D5D9F80000216920F4605040EA3E
:10059000C100C9F8000000F079F8D9F8001040F661
:1005A0005062C1F30311C0F60002515C40F2000238
:1005B00020FA01F140F20800C2F200000068C2F225
:1005C00000021160FFF720FF002001B0BDE8F083BA
:1005D0006068022809D0012829D159F8041C890330
:1005E00007D4012001B0BDE8F08359F8041C89014B
:1005F000F7D5D9F8001021F003010843C9F800002D
:10060000FFF7DAFE064641F2883700BFD9F800004E
:10061000616800F00C00B0EB810F93D0FFF7CCFEC7
:10062000801BB842F2D9032001B0BDE8F08359F82D
:10063000041C8907D5D5DCE740F20000C2F20000B7
:100640000068704780B5FFF7F7FF41F20401C4F27C
:100650000201096840F66062C1F30221C0F600029F
:10066000515CC84080BD000080B5FFF7E5FF41F256
:100670000401C4F20201096840F66062C1F3C221BC
:10068000C0F60002515CC84080BD000041F2040C7D
:10069000C4F2020CDCF8003003F00C00082841F230
:1006A0000020C0F27A0018BF7047C3F383420AA14A
:1006B0008A5CD90305D440F60010C0F23D005043D7
:1006C0007047DCF8001008A3C1F34041595C504367
:1006D000B0FBF1F0704700BF0203040506070809EC
:1006E0000A0B0C0D0E0F1010010200002DE9F04155
:1006F00082B0002800F0C4800446007841F2000671
:10070000C007C4F2020643D0706800F00C00042851
:1007100017D0706800F00C00082802D17068C00380
:100720000FD465682DB1B5F5A02F10D0B5F5803F79
:1007300011D0306820F480303060306820F48020A0
:100740000CE03068800323D5606808BB98E030680F
:1007500040F480203060306840F480303060FFF733
:100760002BFE002D054610D03068800310D4FFF713
:1007700023FE401B6428F7D904E100BFFFF71CFEED
:10078000401B64284FF0030077D830688003F5D40D
:100790002078800718D5706810F00C0F07D07068AB
:1007A00000F00C00082826D17068C00323D43068FC
:1007B000800702D52069012862D13068616920F084
:1007C000F80040EAC1003060207800073DD5A069FC
:1007D00038B30020C4F242200121C0F88014FFF792
:1007E000EBFD0546706A80072DD4FFF7E5FD401B41
:1007F0000228F7D9C6E02069002840F20000C4F2C0
:10080000422000F0968001210160FFF7D5FD0546EA
:1008100030688007D1D4FFF7CFFD401B0228F7D9FD
:10082000B0E00020C4F242200021C0F88014FFF79D
:10083000C3FD0546706A800707D5FFF7BDFD401B65
:100840000228F7D99EE000F00FFA207840071BD469
:10085000E5698DB1706800F00C00082847D1012DC2
:100860000ED07068216A00F480328A4208D1616A31
:1008700000F47010884203D1002002B0BDE8F0817E
:10088000012002B0BDE8F081F06910F0805808D175
:10089000F06940F08050F061F06900F08050019004
:1008A000019847F20007C4F200073868C00510D469
:1008B000386840F480703860FFF77EFD054600BF61
:1008C0003868C00505D4FFF777FD401B6428F7D9C9
:1008D00058E0E5681DB1052D3CD0012D3ED0306AB1
:1008E00020F001003062306A20F0040039E0002777
:1008F000C4F2422700203866FFF75EFD022D054650
:100900000CD100BF3068800154D5FFF755FD401B66
:1009100002284FF00300F5D9AFE700BF306880012F
:10092000AAD5FFF749FD401B02284FF00300F5D977
:10093000A3E700210160FFF73FFD0546306880070F
:100940007FF542AFFFF738FD401B02284FF0030050
:10095000F4D992E7306A40F004003062306A40F027
:1009600001003062FFF728FD002D054641F288376F
:1009700014D000BF306A800713D4FFF71DFD401B61
:10098000B842F7D9032002B0BDE8F081FFF714FDAB
:10099000401BB8424FF003003FF66FAF306A80074C
:1009A000F4D4B8F1000F7FF453AFF06920F0805019
:1009B000F0614DE7206AB0F5803F05D17168A2680B
:1009C00021F40031114371607168626A21F474117D
:1009D00010430843706001203866FFF7EDFC0446C1
:1009E000306880013FF548AFFFF7E6FC001B0228A6
:1009F0004FF00300F4D940E780B500F04DF980BD19
:100A0000002804BF0120704710B5044690F83D004F
:100A100028B9002084F83C00204600F021F824206A
:100A200084F83D002068C16821F40051C16020466F
:100A300000F080F92068016921F490410161416969
:100A400021F02A014161C16841F40051C1600020D8
:100A50002021206484F83D1084F83E1010BD000071
:100A600010B586B0006844F2004140F60004C4F2BC
:100A70000001C4F2010488424FF00001CDE90411E5
:100A8000CDE9021129D043F60001C4F201018842E8
:100A90004CD141F21800C4F20200016841F48041D7
:100AA0000160016801F4804101910199016841F000
:100AB00004010160006802A900F00400019001989F
:100AC0004FF400700290022003900320059020460E
:100AD000FFF778FB4FF4806020E041F21800C4F289
:100AE0000200416841F400314160416801F4003185
:100AF00001910199016841F004010160006802A9B7
:100B000000F004000190019804200290022003905C
:100B1000032005902046FFF755FB08200290002097
:100B2000CDE9030002A92046FFF74CFB06B010BD3B
:100B3000FEE70000F0B585B0002641F21800CDE9CF
:100B40000366CDE90166C4F20200016840F60004C4
:100B500041F0200101600168C4F2010401F02001AC
:100B6000009100990168002241F0040101600068D1
:100B7000B02100F00400009000982046FFF716FC1A
:100B800010200190022001AD012704902046294643
:100B9000CDE90277FFF716FBA020CDE9010703207E
:100BA0000490204629460397FFF70CFB402001A93B
:100BB000C1C120462946FFF705FB05B0F0BD000086
:100BC00080B540F2100043F60001C2F20000C4F20A
:100BD000010100234FF00C0C4FF4E13280E80E00CD
:100BE000C0E90333C0E905C3C361FFF709FF00286B
:100BF00018BFFFF7E1FA80BD80B540F2540044F21F
:100C00000041C2F20000C4F2000100234FF00C0CBE
:100C10004FF4E13280E80E00C0E90333C0E905C3B8
:100C2000C361FFF7EDFE002818BFFFF7C5FA80BDCE
:100C3000FEE700007047000000F0070080F00703A7
:100C4000042B28BF04234FF0FF3C03380CFA03F3B6
:100C500038BF0020994381400CFA00F022EA0000DE
:100C6000084370477047000081B040F20000C2F2B4
:100C70000000006844F6D351C1F26201A0FB0101FB
:100C8000480A009000BF0098411E00280091F9D149
:100C900001B0704770470000B0B501380024B4EBD4
:100CA000106F1CBF0120B0BD4EF21005CEF2000542
:100CB00068604FF0FF300F2100F08EF80720AC6025
:100CC00028602046B0BD000080B5FFF77BFB80BDEB
:100CD00070B590B006AC20462821FFF74CFA0120F1
:100CE00006900A904FF4E01000254FF48031022660
:100CF0000F9020460595CDE90355CDE90155CDE985
:100D00000715CDE90D61FFF7F1FC78B90F20CDE9AA
:100D100001064FF48060CDE9040501A80221039586
:100D2000FFF7D0FB002804BF10B070BDFFF744FAF6
:100D30007047000010B504460068D4E902C2236978
:100D4000016921F4405111430161616943EA0C02D8
:100D50001143C26841F20C639A431143C160416977
:100D6000A26921F44071114343F60002C4F201026A
:100D70009042416102D0FFF765FC01E0FFF774FC8F
:100D80006268192148439100B0FBF1F048F21F510D
:100D9000C5F2EB11A0FB01235A096FF0630302FBBC
:100DA0000300322303EB0010A0FB0101F02303EA50
:100DB0005113206803EB0212C1F343111144816007
:100DC00010BD0000FEE700004EF60C50CEF2000011
:100DD0000068C0F3022070474EF6145300F00F0273
:100DE000CEF2000309011A4400F16043B0F1FF3F65
:100DF000C8BF03F564421170704700004EF60C51F5
:100E0000CEF200010A684FF6FF031A4060F30A228F
:100E100042F0806040F0FD7008607047FFF7E0FA34
:100E2000FFF756FFFFF786FEFFF7CAFEFFF7E4FE67
:100E3000FEE702E008C8121F08C1002AFAD1704775
:100E40007047002001E001C1121F002AFBD170474A
:100E5000000000000000000001020304060708096A
:100E60000000000001020304880E000800000020BA
:100E700010000000320E0008980E0008100000203C
:100E800090040000420E00080024F400010000005D
:080E900010000000000000004A
:0400000508000131BD
:00000001FF
