:020000040800F2
:10000000B004002045010008ED110008251100088A
:10001000E91100085502000845150008000000001D
:100020000000000000000000000000004D12000869
:1000300009030008000000001D12000881120008DA
:100040005F0100085F0100085F0100085F01000810
:100050005F0100085F0100085F0100085F01000800
:100060005F0100085F0100085F0100085F010008F0
:100070005F0100085F0100085F0100085F010008E0
:100080005F0100085F0100085F0100085F010008D0
:100090005F0100085F0100085F0100085F010008C0
:1000A0005F0100085F0100085F0100085F010008B0
:1000B0005F0100085F0100085F0100085F010008A0
:1000C0005F0100085F0100085F0100085F01000890
:1000D0005F010008351500085F0100085F01000896
:1000E0005F0100085F0100085F0100085F01000870
:1000F0005F0100085F0100085F0100085F01000860
:100100005F0100085F0100085F0100085F0100084F
:100110005F0100085F0100085F0100085F0100083F
:100120005F0100085F0100085F0100085F0100082F
:10013000DFF80CD000F07CF80048004719170008E1
:10014000B00400200648804706480047FEE7FEE767
:10015000FEE7FEE7FEE7FEE7FEE7FEE7FEE7FEE777
:10016000E112000831010008D2B201E000F8012BD1
:10017000491EFBD270470022F6E710B513460A4627
:1001800004461946FFF7F0FF204610BD96230022D3
:10019000114600F01FB830B50B4601460020202262
:1001A000012409E021FA02F59D4205D303FA02F584
:1001B000491B04FA02F52844151EA2F10102F1DCE4
:1001C00030BD0029A8BF7047401C490008BF20F07F
:1001D0000100704710B4B0FA80FC00FA0CF050EA4D
:1001E000010404BF10BC704749B1CCF1200421FACE
:1001F00004F411FA0CF118BF012121430843A3EBC9
:100200000C01CB1D4FEA00614FEA102042BF0020D5
:1002100010BC704700EBC35010440029A4BF10BCB1
:100220007047401C490008BF20F0010010BC704717
:10023000064C074D06E0E06840F0010394E8070033
:1002400098471034AC42F6D3FFF776FF2819000820
:1002500048190008FEE70000F0B581B040F6000440
:100260000020C4F20104002509E000BF0020032F94
:1002700088BF01203043072D05F1010524D2460037
:10028000002700BF2046202100F014FA012807D0E3
:100290000A2000F0FFF8092F07F10107F2D30A271F
:1002A000092F10D8002700BF2046202100F002FAB5
:1002B0000028DBD00A2000F0EDF8092F07F1010734
:1002C000F2D30A27D2E70020C0B201B0F0BD00008F
:1002D00080B540F20401C2F200010020486040F6FF
:1002E0000000C4F2010000F0F1F880BD80B540F2DA
:1002F0000401C2F200010120486040F60000C4F28F
:10030000010000F0E3F880BD704700007047000076
:10031000014690F82100022813D10868D1E90FC3E3
:10032000026822F00E020260026822F001020260FE
:10033000012000FA03F2CCF8042081F8210000200B
:1003400002E0042088630120002281F82020704709
:1003500080B590F82110022927D1026840F2040CE0
:100360001368C4F2020C23F00E03136013680CF13F
:100370007C018A4223F0010111601AD940F2084140
:10038000C4F202018A4247D040F21C41C4F2020189
:100390008A4245D040F23041C4F202018A4243D140
:1003A0004FF48073CCF8003457E0042181630120BE
:1003B00080BD4321C4F202018A420EDD6B21C4F2EA
:1003C00002018A421BDC4421C4F202018A4239D074
:1003D0005821C4F202018A4231E00821C4F202012C
:1003E0008A4232D01C21C4F202018A4232D030212A
:1003F000C4F202018A4222D14FF480722BE06C21B8
:10040000C4F202018A4222D08021C4F202018A424F
:1004100015D14FF080721EE00123CCF800341CE0AF
:100420001023CCF8003418E00CF588614FF48033C9
:100430008A4208BF4FF48053CCF800340DE04FF4EB
:10044000803208E04FF4805205E0012203E04FF4CF
:10045000801200E01022CCF80020416B4FF4807233
:10046000028401B18847002080BD0000B0B5044679
:1004700000F02CF9054640F21800C2F200000078A6
:10048000611C18BF044400BF00F020F9401BA042CB
:10049000FAD3B0BD10B5044600F05CFA4DF68361A6
:1004A000C4F21B31A0FB0101880C00F033FC601E7C
:1004B000FFF7DCFF00F04EFA44F6D351C1F26201BF
:1004C000A0FB0101880900F025FC10BD2DE9F04FCB
:1004D00083B00C68002C00F0EA80A0F18042A2F505
:1004E000843240F2004E4FEAB22241F60047C4F295
:1004F000010E0092C4F20107062200254FF0010907
:100500004FF0000B4FF0000AB84208BF05220192DD
:1005100009E000BF0C680BF1010B34FA0BF205F196
:10052000040500F0C48009FA0BF814EA080CF1D0B5
:100530004C684FF6FF72C1F21002944210DC122C8C
:1005400050D8DFE804F0330A41454F4F4F4F4F4F2B
:100550004F4F4F4F4F4F4F484C00D1F80CA041E048
:100560004FF6FF72C1F2210294420FDC0022C1F269
:10057000110294421AD00022C1F21202944215D004
:100580000022C1F22102944210D02BE00022C1F2DD
:10059000220294420AD00022C1F23102944205D0D4
:1005A0000022C1F2320294421CD100BF8C6844B1D7
:1005B000012C14BFC0F81480C0F810804FF0080A56
:1005C00010E04FF0040A0DE0CC6804F1080A09E0DD
:1005D0004FF0000A06E0CC6804F1040A02E0CC689F
:1005E00004F10C0A2C460746BCF5807F24BF203C52
:1005F00004373A680F2303FA04F6B2430AFA04F404
:1006000022433A60CA79D2067FF584AF41F21804DA
:10061000C4F2020422684FF6084842F00102226048
:100620002268CFF6FF7802F001020292029A2BF0C4
:100630000302724452F8084005F00C0603FA06F76C
:10064000009BBC43019F052B38BF1F4607FA06F6E7
:10065000344342F808404C68E203DEF8002054BFFF
:1006600022EA0C0742EA0C07A203CEF80070DEF87B
:10067000042054BF22EA0C0742EA0C07E202CEF83B
:100680000470DEF8082054BF22EA0C0742EA0C0787
:10069000A20240F20C44CEF80870C4F201042268B1
:1006A00054BF22EA0C0242EA0C02226032E703B095
:1006B000BDE8F08F8068084018BF01207047000037
:1006C000002A08BF090401617047000040F2A80039
:1006D000C2F200000068704740F2180040F2A80122
:1006E000C2F20000C2F2000100780A6810440860FB
:1006F0007047000080B542F20000C4F202000168B9
:1007000041F010010160032000F066F8002000F0C5
:1007100005F800F02BF8002080BD0000B0B540F2D5
:100720001802C2F2000240F214011278C2F2000173
:100730004FF47A730968B3FBF2F20446B1FBF2F1AD
:10074000084600F0E7FA0F2C4FF001050CD858B915
:100750004FF0FF3021460022002500F02DF840F236
:100760001C00C2F2000004602846B0BD82B041F215
:100770001800C4F202000168022241F00101016088
:10078000016801F0010101910199416841F0805136
:100790004160406800F08050009000980420C4F24E
:1007A0000100016862F31A61016002B07047000045
:1007B00080B500F0C9FE80BD70B514460D460646F2
:1007C00000F0D2FE2946224600F012FD01463046D6
:1007D00000F0D2FE70BD000080B500F0DFFE80BDED
:1007E0002DE9F04381B0002800F0898042F2000832
:1007F000C4F202080446D8F800000D4600F00700D5
:1008000088420CD2D8F8000020F007002843C8F82E
:100810000000D8F8000000F00700A8426FD120685F
:1008200041F204098107C4F2020917D5410705D531
:10083000D9F8001041F4E061C9F80010010705D5AE
:10084000D9F8001041F46051C9F80010D9F800102F
:10085000A26821F0F0011143C9F80010C00745D18A
:10086000D8F8000000F00700A8420CD9D8F8000022
:1008700020F007002843C8F80000D8F8000000F076
:100880000700A8423BD12068410707D5D9F80010DE
:10089000E26821F4E0611143C9F80010000708D5AF
:1008A000D9F80000216920F4605040EAC100C9F87D
:1008B000000000F079F8D9F8001041F61012C1F3E9
:1008C0000311C0F60002515C40F2140220FA01F15B
:1008D00040F21C00C2F200000068C2F20002116087
:1008E000FFF71CFF002001B0BDE8F083606802281C
:1008F00009D0012829D159F8041C890307D4012003
:1009000001B0BDE8F08359F8041C8901F7D5D9F886
:10091000001021F003010843C9F80000FFF7D6FEDC
:10092000064641F2883700BFD9F80000616800F040
:100930000C00B0EB810F93D0FFF7C8FE801BB842CC
:10094000F2D9032001B0BDE8F08359F8041C8907EF
:10095000D5D5DCE740F21400C2F200000068704711
:1009600080B5FFF7F7FF41F20401C4F20201096804
:1009700041F62012C1F30221C0F60002515CC840CA
:1009800080BD000080B5FFF7E5FF41F20401C4F22D
:100990000201096841F62012C1F3C221C0F600022B
:1009A000515CC84080BD000041F2040CC4F2020C4E
:1009B000DCF8003003F00C00082841F20020C0F2FF
:1009C0007A0018BF7047C3F383420AA18A5CD90337
:1009D00005D440F60010C0F23D0050437047DCF8EB
:1009E000001008A3C1F34041595C5043B0FBF1F043
:1009F000704700BF02030405060708090A0B0C0D27
:100A00000E0F1010010200002DE9F04182B0002805
:100A100000F0C4800446007841F20006C007C4F22A
:100A2000020643D0706800F00C00042817D07068EC
:100A300000F00C00082802D17068C0030FD465686C
:100A40002DB1B5F5A02F10D0B5F5803F11D030688D
:100A500020F480303060306820F480200CE0306872
:100A6000800323D5606808BB98E0306840F480209C
:100A70003060306840F480303060FFF727FE002D92
:100A8000054610D03068800310D4FFF71FFE401BCE
:100A90006428F7D904E100BFFFF718FE401B642863
:100AA0004FF0030077D830688003F5D420788007B2
:100AB00018D5706810F00C0F07D0706800F00C00AB
:100AC000082826D17068C00323D43068800702D577
:100AD0002069012862D13068616920F0F80040EA9D
:100AE000C1003060207800073DD5A06938B30020F0
:100AF000C4F242200121C0F88014FFF7E7FD05464B
:100B0000706A80072DD4FFF7E1FD401B0228F7D95A
:100B1000C6E02069002840F20000C4F2422000F044
:100B2000968001210160FFF7D1FD054630688007FE
:100B3000D1D4FFF7CBFD401B0228F7D9B0E000204D
:100B4000C4F242200021C0F88014FFF7BFFD054623
:100B5000706A800707D5FFF7B9FD401B0228F7D957
:100B60009EE000F05DFB207840071BD4E5698DB165
:100B7000706800F00C00082847D1012D0ED0706875
:100B8000216A00F480328A4208D1616A00F4701050
:100B9000884203D1002002B0BDE8F081012002B0FC
:100BA000BDE8F081F06910F0805808D1F06940F09C
:100BB0008050F061F06900F080500190019847F298
:100BC0000007C4F200073868C00510D4386840F444
:100BD00080703860FFF77AFD054600BF3868C005B1
:100BE00005D4FFF773FD401B6428F7D958E0E5688A
:100BF0001DB1052D3CD0012D3ED0306A20F0010002
:100C00003062306A20F0040039E00027C4F2422745
:100C100000203866FFF75AFD022D05460CD100BFB3
:100C20003068800154D5FFF751FD401B02284FF07A
:100C30000300F5D9AFE700BF30688001AAD5FFF700
:100C400045FD401B02284FF00300F5D9A3E7002122
:100C50000160FFF73BFD0546306880077FF542AF36
:100C6000FFF734FD401B02284FF00300F4D992E750
:100C7000306A40F004003062306A40F001003062B7
:100C8000FFF724FD002D054641F2883714D000BF40
:100C9000306A800713D4FFF719FD401BB842F7D91B
:100CA000032002B0BDE8F081FFF710FD401BB84201
:100CB0004FF003003FF66FAF306A8007F4D4B8F10D
:100CC000000F7FF453AFF06920F08050F0614DE7E2
:100CD000206AB0F5803F05D17168A26821F4003127
:100CE000114371607168626A21F474111043084302
:100CF000706001203866FFF7E9FC04463068800127
:100D00003FF548AFFFF7E2FC001B02284FF003005D
:100D1000F4D940E780B500F09BFA80BD7047000031
:100D200070470000B0B582B0016805460868CA681F
:100D30004C6900F02F03202B02F0200305D123B1D2
:100D4000284600F0F9FA02B0B0BD5FEA007C1EBF91
:100D500004F0010E02F4907414EB0E0424D12B6BFA
:100D60001040C20617D5012B15D10020019008684C
:100D70000190486801900198486940061CD4A88DEC
:100D8000EA8DEB8D002B1CBF801A5FEA004240F019
:100D90009A8002B0B0BD010636D44006F9D5284687
:100DA00000F0BEFA02B0B0BDC10718BF12F48071E6
:100DB0002FD1410733D439E0A86B0268526893B24F
:100DC000002BE6D0AC8DA342E3D2EA858269202ACB
:100DD00016D0CA6822F48072CA604A6922F0010201
:100DE0004A614A6922F040024A61202285F83E2089
:100DF00000222A63CA6822F01002CA60FFF788FA4C
:100E0000A88DE98D401A6FE0284600F037FB02B04C
:100E1000B0BD296C41F001012964410706D5BEF13E
:100E2000000F03D0296C41F002012964810706D527
:100E3000BEF1000F03D0296C41F004012964BCF11C
:100E4000000F06D55EEA030103D0296C41F00801CA
:100E50002964296C00299CD01040800602D52846C0
:100E600000F06AFA28684069296C00F0400001F03F
:100E70000801401820D0284600F03CFA2868416953
:100E8000490614D5416921F040014161A86B70B158
:100E900041F2E521C0F600014163FFF759FA00284D
:100EA0003FF477AFA86B416B884702B0B0BD2846CE
:100EB000FFF736FF02B0B0BD2846FFF731FF002034
:100EC000286402B0B0BDCA6822F49072CA604A6950
:100ED00022F001024A61202285F83E2000222A6386
:100EE000CA6822F01002CA6081B22846FFF716FFD6
:100EF00002B0B0BD002804BF0120704710B5044601
:100F000090F83D0028B9002084F83C00204600F00D
:100F100021F8242084F83D002068C16821F40051A4
:100F2000C160204600F062FA2068016921F4904116
:100F30000161416921F02A014161C16841F4005118
:100F4000C16000202021206484F83D1084F83E1008
:100F500010BD000070B586B0006844F20041C4F2D4
:100F60000001002688420596CDE9036602963FD02F
:100F700043F60001C4F20101884266D141F2180033
:100F8000C4F20200016840F6000441F480410160AF
:100F90000168C4F2010401F48041019101990168E2
:100FA00002AD41F0040101600068294600F0040030
:100FB000019001984FF400700290022003900320EA
:100FC00005902046FFF782FA4FF4806002900020DF
:100FD000CDE9030020462946FFF778FA25200021B5
:100FE0000022FFF7E9FB2520FFF7E2FB06B070BD0A
:100FF00041F21800C4F20200416840F6000441F4D6
:10100000003141604168C4F2010401F400310191F2
:101010000199016802AD41F00401016000682946B0
:1010200000F0040001900198042002900220039037
:10103000032005902046FFF749FA0820CDE9020673
:10104000204629460496FFF741FA06B070BD00001D
:10105000704700002DE9F04381B0044690F83D0050
:1010600020280BD10E4600294FF0010055D017461D
:10107000002A52D094F83C00012803D1022001B08C
:10108000BDE8F083012084F83C004FF000092120E6
:101090001D46C4F8409084F83D00FFF717FBA78475
:1010A000E784A1680746B1F5805F07D12069002871
:1010B0001CBF30464E46B046064601E04FF00008E1
:1010C00084F83C9007E000BF16F8010B21684860E7
:1010D000E08C0138E084E08C80B1204680213A46E3
:1010E0002B4600F0F5F980B9002EEDD138F8020B4F
:1010F00021686FF35F2048600026E9E72046402121
:101100003A462B4600F0E4F918B1032001B0BDE8DF
:10111000F083202084F83D00002001B0BDE8F0837A
:1011200070470000FEE7000080B586B00020CDE9E2
:101130000400CDE9020041F21800C4F20200016887
:1011400041F020010160016801F020010191019945
:10115000016841F004010160006802A900F0040088
:10116000019001982020029040F60000C4F2010096
:10117000FFF7ACF906B080BD80B540F2200043F621
:101180000001C2F20000C4F2010100234FF0080C7C
:101190004FF4E13280E80E00C0E90333C0E905C333
:1011A000C361FFF7A7FE002818BFFFF7AFF880BDA7
:1011B00080B540F2640044F20041C2F20000C4F283
:1011C000000100234FF0080C4FF4E13280E80E00DC
:1011D000C0E90333C0E905C3C361FFF78BFE0028F4
:1011E00018BFFFF793F880BDFEE7000070470000CE
:1011F00000F0070080F00703042B28BF04234FF002
:10120000FF3C03380CFA03F338BF002099438140B8
:101210000CFA00F022EA0000084370477047000013
:1012200081B040F21400C2F20000006844F6D351CD
:10123000C1F26201A0FB0101480A009000BF0098C2
:10124000411E00280091F9D101B07047704700009D
:10125000B0B501380024B4EB106F1CBF0120B0BD45
:101260004EF21005CEF2000568604FF0FF300F21FE
:1012700000F082F90720AC6028602046B0BD000075
:1012800080B5FFF729FA80BD70B590B006AC204656
:101290002821FEF770FF012006900A904FF4E0101D
:1012A00000254FF4803102260F9020460595CDE9A8
:1012B0000355CDE90155CDE90715CDE90D61FFF7DE
:1012C000A3FB0F20CDE901064FF48060CDE90405B2
:1012D00001A802210395FFF783FA10B070BD00004A
:1012E0007047000080B5406A0021C185C184FFF7C6
:1012F00017FD80BD0168CA6822F49072CA604A690D
:1013000022F001024A61026B012A03D1CA6822F06D
:101310001002CA60202180F83E100021016370474E
:1013200080B50168CA6822F04002CA60202180F8B6
:101330003D10FFF7F5FE80BD80B582B090F83E10FD
:1013400022291ED18268B2F5805F02D1016900298D
:1013500040D0816AB2F5805F07D00AB9026922B134
:101360000268526802F07F0201E0026852680A7067
:101370000121826A11448162C18D01390A04C1854B
:1013800001D002B080BD0168CA6822F02002CA60A4
:10139000CA6822F48072CA604A6922F001024A6176
:1013A000202280F83E20026B012A1BD1002202631A
:1013B000CB6823F01003CB600B68DB0605D50192E8
:1013C0000A680192496801910199818DFFF7A6FC95
:1013D00002B080BD0168826A49686FF35F211180A5
:1013E0000221C6E7FFF734FE02B080BD10B5044607
:1013F0000068D4E902C22369016921F44051114314
:101400000161616943EA0C021143C26841F20C6355
:101410009A431143C1604169A26921F440711143AB
:1014200043F60002C4F201029042416102D0FFF78C
:1014300097FA01E0FFF7A6FA626819214843910084
:10144000B0FBF1F048F21F51C5F2EB11A0FB0123F4
:101450005A096FF0630302FB0300322303EB001011
:10146000A0FB0101F02303EA5113206803EB0212F1
:10147000C1F343111144816010BD000090F83D108C
:10148000212923D18168B1F5805F01D1016931B192
:10149000016A02684B1C03620978516007E0016A27
:1014A000036831F8022B6FF35F225A600162C18C2E
:1014B00001390A04C18418BF70470068C16821F06F
:1014C0008001C160C16841F04001C1607047000007
:1014D0002DE9F0410446006800680840884202D1C6
:1014E0000020BDE8F0811D460E4690465F1C04E0DA
:1014F000206800683040B042F2D0002FF8D02DB103
:10150000FFF7E4F8A0EB0800A842F1D92068C16811
:1015100021F4D071C160416921F0010141612020B5
:1015200084F83D0084F83E00002084F83C0003204D
:10153000BDE8F08180B540F22000C2F20000FFF764
:10154000F1FB80BDFEE70000002848BF704700F0B7
:101550001F01012202FA01F14EF200124009CEF2FF
:10156000000242F8201070474EF60C50CEF20000F8
:101570000068C0F3022070474EF6145300F00F02CB
:10158000CEF2000309011A4400F16043B0F1FF3FBD
:10159000C8BF03F564421170704700004EF60C514D
:1015A000CEF200010A684FF6FF031A4060F30A22E8
:1015B00042F0806040F0FD70086070472DE9F04314
:1015C00083B040F6000600270D460446C4F201062B
:1015D0000F600760FEF78AFE304620210022FFF7E9
:1015E0006FF81420FEF742FF304620210122FFF75A
:1015F00067F80F20FEF74EFFFEF76AFE3046202107
:10160000FFF758F838B10A20FEF744FF092F07F119
:101610000107F3D30A27092F21D8002730462021BC
:10162000FFF748F8012807D00A20FEF733FF092FFB
:1016300007F10107F2D30A27092F10D8002700BFAE
:1016400030462021FFF736F838B10A20FEF722FF96
:10165000092F07F10107F3D30A27092F03D9002027
:1016600003B0BDE8F0834FF0FF360DF1070700BF70
:10167000FEF7F2FDB9190136042E4870F8D1642046
:10168000FEF708FF9DF807609DF808809DF8097037
:101690009DF80A9008EB060038449DF80B1048446A
:1016A00088420FD13046FEF771FD28603846FEF7BC
:1016B0006DFD206005A0314642463B46CDF80090C6
:1016C00000F04AF8012003B0BDE8F08368756D6C46
:1016D0003D25642E25642C74656D703D25642E2592
:1016E000640D0A0010B582B0019040F2200001ACF8
:1016F000C2F2000021460122FF23FFF7ABFC40F2BB
:101700006400C2F2000021460122FF23FFF7A2FC81
:10171000019802B010BD000082B0FEF7EBFFFFF7AA
:10172000B3FDFFF701FDFFF727FDFFF741FD07A020
:1017300000F0DCF801AC6D4620462946FFF73EFF7D
:101740004FF4FA60FEF792FEF6E700BF646874316A
:10175000312D5041350D00000FB4054B10B503A9D4
:10176000044A029800F018F810BC5DF814FB000061
:10177000E51600080000002002E008C8121F08C19A
:10178000002AFAD170477047002001E001C1121F02
:10179000002AFBD1704700002DE9FF4F89B09B461E
:1017A0000446002506E025280BD05A460B999047A1
:1017B000641C6D1C20780028F5D10DB02846BDE8CA
:1017C000F08F0027B8460122474900E0074314F88C
:1017D000013F203B02FA03F00842F7D120782E287F
:1017E00019D114F8010F47F004072A280ED06FF022
:1017F0002F022078A0F1300109290CD808EB8801CC
:1018000002EB410100EB0108641CF2E70A98641C3A
:1018100050F8048B0A9020780028CED0642808D095
:10182000692806D075281ED05A460B9990476D1C22
:1018300058E00A994FF00A0901C90A91002802DA12
:1018400040422D2102E0390504D52B218DF82010CE
:10185000012103E0F90704D02021F7E78A4608AE0A
:101860000DE00021FAE70A994FF00A0901C90A912F
:10187000F7E74946FEF78FFC303106F8011D0028D6
:10188000F7D1ADEB060000F12009780701D44FF045
:101890000108C84502DDA8EB090000E000208046F1
:1018A000002706E008A85A46C05D0B9990476D1CBA
:1018B0007F1C5745F6DB04E030205A460B999047D1
:1018C0006D1CB8F10001A8F10108F5DC05E016F87F
:1018D000010B5A460B9990476D1CB9F10001A9F113
:1018E0000109F4DC641C65E70928010010B5044611
:1018F00001E0FFF7F7FE14F8010B04490028F8D1C6
:10190000BDE810400A20FFF7EDBE000000000020F7
:10191000000000000000000001020304060708099F
:101920000000000001020304481900080000002024
:101930002000000078170008681900082000002027
:10194000900400008817000800000000200000003C
:101950000000000001000000020000000024F4006C
:0819600001000000100000006E
:0400000508000131BD
:00000001FF
