:020000040800F2
:1000000050A70020C9010008D1010008D301000851
:10001000D5010008D7010008D90100080000000040
:10002000000000000000000000000000DB010008EC
:10003000DD01000800000000DF010008E101000808
:10004000E3010008E3010008E3010008E301000800
:10005000E3010008E3010008E3010008E3010008F0
:10006000E3010008E3010008E3010008E3010008E0
:10007000E3010008E3010008E3010008E3010008D0
:10008000E3010008E3010008E3010008E3010008C0
:10009000E3010008E3010008E3010008E3010008B0
:1000A000E3010008E3010008E3010008E3010008A0
:1000B000E3010008E3010008E3010008E301000890
:1000C000E3010008E3010008E3010008E301000880
:1000D000E3010008E3010008E3010008E301000870
:1000E000E3010008E3010008E3010008E301000860
:1000F000E3010008E3010008E3010008E301000850
:10010000E3010008E3010008E3010008E30100083F
:10011000E3010008E3010008E3010008E30100082F
:10012000E3010008E3010008E3010008E30100081F
:1001300000F002F800F039F80AA090E8000C8244C0
:100140008344AAF10107DA4501D100F02EF8AFF29D
:10015000090EBAE80F0013F0010F18BFFB1A43F0A5
:100160000103184708AB000018AB0000002300246F
:1001700000250026103A28BF78C1FBD8520728BFB7
:1001800030C148BF0B607047662902F00E81002025
:1001900070471FB500F0DCFA04000020002101F0D8
:1001A0003DFDE0601FBD10B510BD00F0EDFB114638
:1001B000FFF7EFFF01F0C4F800F00BFC03B4FFF70A
:1001C000F2FF03BC00F004FE0948804709480047DD
:1001D000FEE7FEE7FEE7FEE7FEE7FEE7FEE7FEE7F7
:1001E000FEE7FEE704480549054A064B7047000054
:1001F000AD0C00083101000850A1002050A70020DC
:1002000050A3002050A30020704700000FB4044901
:1002100010B503AA029800F089FA10BC5DF814FB2F
:10022000600000202DE9F0410E46044600202062C7
:100230002046E168884730B3252805D0D4E901215C
:100240009047206A401CF2E7E16820460027884773
:10025000050018D0A5F14100192802D820354FF427
:1002600000673246294620462760FFF78DFF40B1E0
:10027000012804D0F61D26F007060836D8E7361DFB
:10028000D6E72846DAE7206ABDE8F08110B50446D3
:1002900003E001F041F8401C09D014F8010B0549B6
:1002A0000028F6D1BDE810400A2001F035B84FF023
:1002B000FF3010BD600000204FF0000200B5134673
:1002C00094469646203922BFA0E80C50A0E80C5076
:1002D000B1F12001BFF4F7AF090728BFA0E80C5027
:1002E00048BF0CC05DF804EB890028BF40F8042B20
:1002F00008BF704748BF20F8022B11F0804F18BF8D
:1003000000F8012B704770477047704770472DE920
:10031000FF4F0C461E464FF0FF378BB0D2E900016D
:10032000DDF860800A908A46C1F30A5505B93D465A
:10033000002108464FF00000BAF1000F00F4400021
:1003400005DA00EB80004FF4400101EA50004FEA6B
:100350009059B9F1010F00DDB9460A9850EA4A00F8
:100360000ED044F61050A5F2FF3545432F14B8F1D6
:10037000000F1ED07542291E1EDDC9F100021CE0CF
:10038000B8F1010F4FF0000001D0302103E0F2433B
:1003900005E02154401CB042FBDB30460022002126
:1003A00021540B99C1F80880C1E900200FB0BDE8C5
:1003B000F08FBD1B6D1CDEE74A4600DA694206A8D5
:1003C00000F068FA06AB93E8070003AB83E8070088
:1003D00050460A9901F046F88DE80700A0F5005054
:1003E0001F3800900398002D0ADD42F21F014A4693
:1003F0000844002303A90390684601F0AFFA09E01E
:10040000A0F500504A461F38002303A90390684610
:1004100001F0B9FA8DE807000004000C03D04FF09A
:10042000FF30410800E01046B8F1000F03D0002271
:10043000009215461EE0751E05D400F08DF930328D
:1004400062556D1EF9D5B3460122084302D0002241
:100450007F1C04E02078302801D100227F1E002A72
:10046000099784D01DE0112D07DA00F075F93032BC
:1004700062556D1C50EA0102F5D1084302D0009884
:10048000C8B10EE00021681E05E0235C625C635485
:100490002254401E491C8142F7DBAB46A81B401E7C
:1004A0000990002004F80B000B98099AC0F8088006
:1004B000C0E9002B7AE711264FF0000857E72DE935
:1004C000F04F88460446D21D22F0070191B0D1E9D1
:1004D0000001CDE90A0101F08DFB02460B98C00F27
:1004E00001D02D2007E02068810701D52B2002E0F4
:1004F000202101EAC000032A099001D0072A05DB68
:1005000003464146204600F085F90BE1207880063D
:1005100001D5E06900E00620B8F1650F814606D0FC
:10052000B8F1660F18D0B8F1670F70D131E0002034
:10053000B9F1110F009001DB112301E009F1010372
:100540000AAA01A90CA8FFF7E2FEDDE90C7000265B
:1005500009F10105834647E001204B4600904FF02A
:1005600000470AAA01A90CA8FFF7D1FEDDE90DB0EA
:100570000C995D46002610B909F101000D18B9EB80
:10058000050003D4C0F1FF3609F10105A5EB090010
:100590002BE0B9F1010F01DA4FF001090020B9F1A8
:1005A000110F0090484601DD112300E003460AAA1E
:1005B00001A90CA8FFF7ABFEDDE90C704D46002643
:1005C0008346207800070AD4AB4500DA5D4601A8CF
:1005D000012D04DD411911F8011C302907D04F45C8
:1005E00002DA17F1040F04DA012082460FE06D1ED3
:1005F000EEE7002F02DCED1B3E4403E0781CA8422E
:1006000000DD7D1CB81B00F1010A4FF00047207887
:10061000000703D4AA4501DB4FF0FF3A0021B7F1F0
:10062000004F0DF143088DF8431024D002202B23F6
:10063000002F01DA7F422D230A21021EA0F10100C2
:1006400000DC5FB197FBF1FC97FBF1F201FB1C7C36
:1006500017460CF1300C08F801CDEEE7A8F10100C7
:1006600003702188090501D5452100E06521A0F12D
:10067000010800F8011C09980FA9A1EB0807FF1D4C
:1006800000B10120411901EBEA70A1693844081A50
:10069000401EA0612078C00602D42046AFF300803F
:1006A000099828B1D4E901219047206A401C2062B2
:1006B0002078C00622D52046AFF300801EE0002E31
:1006C00004DBB34502DD01A8805D00E03020D4E901
:1006D00001219047206A401C2062761CAAF101008B
:1006E0005FEA000A0AD100F033F8C0680168405C94
:1006F000D4E901219047206A401C2062281EA5F100
:100700000105DCDC07E0D4E9012118F8010B904772
:10071000206A401C2062381EA7F10107F3DC204646
:10072000AFF30080032011B041E60000074B70B525
:100730000D467B4400F05BF80446284600F01CF9A7
:1007400010B14FF0FF3070BD204670BDE30B0000CC
:10075000004870472000002030B5B0F10A0271F166
:1007600000034FEA900E4EEA817EB0EB0E0061EB83
:1007700091014FEA101E4EEA017E10EB0E0041EB94
:1007800011114FEA102E4EEA016E10EB0E0041EBF4
:1007900011214FEA104E4EEA014E10EB0E0041EBD4
:1007A0001141401841F100014FEAD00040EA417088
:1007B0004FEAD1014FEA810444EA907410EB8005BE
:1007C00044EB01046D1944EB0404521BA3414FF0A8
:1007D000000348BF0A3200D530BD401C41F1000182
:1007E00030BD000001694A1C02610878704700B5FD
:1007F0008FB0CDE901310021059105497944CDE95A
:10080000031011466846FFF70DFD0FB000BD000054
:10081000E5FFFFFF2DE9F0411F460446032601686E
:10082000072A01F4006004DB08B116A505E016A54F
:1008300003E008B115A500E015A521F01000206027
:10084000A069C01EA0610FB1401EA0612046AFF399
:1008500000804FB1D4E9012138469047206A401CFE
:100860002062C01C206206E0206AFAE7D4E9012178
:1008700015F8010B9047761EF8D22046AFF30080A2
:10088000BDE8F0814E414E006E616E00494E46005B
:10089000696E66002DE9F047814616468AB03548F4
:1008A00078440DC88DE80D0032487844801C03ACB4
:1008B0000DC884E80D0041F69B300844372190FBB9
:1008C000F1F290FBF1F5A5F1800501FB12041B3C50
:1008D00002D56442012000E00020DFF898A08046A5
:1008E0000027FA44AAF1BE0A0EE0E0070AD0324619
:1008F000684607EB470101230AEB810101F043F849
:100900008DE8070064107F1C002CEED1194F7F4446
:10091000AE3F19E0E80715D007EB04100DF1180AF7
:1009200090E80E008AE80E00C068F04201D19819E4
:1009300008903246012306A903A801F024F803AB6E
:1009400083E807006D10641C002DE3D14FF0010314
:1009500032466946B8F1000F03A802D000F0FEFF4E
:1009600001E001F010F8C9E90001C9F808200AB057
:10097000BDE8F087881B0000007B00F08000704716
:1009800000487047000000207546FFF7F9FFAE46AB
:1009900005006946534620F00700854618B020B58B
:1009A000FFF720FCBDE820404FF000064FF00007A5
:1009B0004FF000084FF0000BAC46ACE8C009ACE8C3
:1009C000C009ACE8C009ACE8C00921F007018D46B8
:1009D000704710B50446AFF300802046BDE81040D4
:1009E000FFF7ECBB4FF0013C50F8042B51F8043BEF
:1009F0009A4221D1A2EB0C03934313EACC1317D1F3
:100A000050F8042B51F8043B9A4215D1A2EB0C0389
:100A1000934313EACC130BD150F8042B51F8043B49
:100A20009A4209D1A2EB0C03934313EACC13DBD017
:100A30004FF00000704700BFD01A01BAB1FA81F13F
:100A400001F0180122FA01F0CB40DBB2C0B2C01AAB
:100A5000C1F120012CFA01F3D11A914311EAC3111B
:100A6000E6D170472DE9F041CA7802F00F0CD306A9
:100A700044BF8B784CEA030C09880B0621D005682B
:100A800000234FF001084FF00F0E002608E000BFD2
:100A9000282A08BF47610136082E03F104030FD04E
:100AA00008FA06F70F42F6D00EFA03F425EA04041A
:100AB0000CFA03F5482A45EA0405E9D10761EAE79B
:100AC0000560B1F5807F38BFBDE8F0814468002340
:100AD0004FF4807E4FF00F08002607E0282A08BF59
:100AE00047610136082E03F1040310D00EFA06F711
:100AF00007EA0105BD42F4D108FA03F5AC430CFA4C
:100B000003F5482A44EA0504E8D10761E9E74460AF
:100B1000BDE8F081002941F21C01C4F202010A681B
:100B20000CBF22EA0000104308607047002941F220
:100B30001801C4F202010A680CBF22EA0000104347
:100B40000860704710B541F20404C4F20204226840
:100B500002F00C02082A41F20022C0F27A021CD1F3
:100B60002368D4F800C0C3F3834E5FEACC330EF1A0
:100B7000020C06D440F60012C0F23D020CFB02F259
:100B80000BE023689B0302D40CFB02F205E040F665
:100B90000012C0F23D020CFB02F20260226842F237
:100BA0004843C2F30312C0F600039A5C0168D140C7
:100BB00041602268C2F302229A5C21FA02F282604A
:100BC0002268C2F3C2229A5C42F24443D140C1601F
:100BD0002268C0F60003C2F381329A5CB1FBF2F1E5
:100BE000016110BD80B500F001F880BD82B041F216
:100BF00004000021C4F202000191009150F8041C8D
:100C000041F4803140F8041C50F8041C01F4003118
:100C10000091019901310191009919B90199B1F53A
:100C2000A06FF1D150F8041C890354BF00210121A9
:100C300000910099012936D142F20001C4F202016B
:100C40000A6842F010020A600A6822F007020A608D
:100C50000A6842F002020A600168016001680160EE
:100C6000016841F480610160016821F47C11016038
:100C7000016841F4E811016050F8041C41F08071F2
:100C800040F8041C50F8041C8901FBD5016821F0D0
:100C900003010160016841F002010160016801F097
:100CA0000C010829FAD102B07047000080B541F26A
:100CB0000000C4F202000168002241F0010101605D
:100CC0004168CFF6FF021140416001684FF6FF72A4
:100CD000CFF6F66211400160016821F480210160C5
:100CE000416821F4FE0141604FF41F018160FFF76C
:100CF00079FF4EF60850CEF200004FF0006101601F
:100D000080BD00008289002918BF012122F4005211
:100D100042EA41318181704770B586B00446008A4D
:100D20000D46C98820F4405008432082A0894EF621
:100D3000F3110840A9882A896B8908431043184396
:100D4000A081A08AA98920F44070084301AEA08246
:100D50003046FFF7F7FE43F6000106F10800C4F243
:100D600001018C4208BF06F10C0000681922B4F999
:100D70000C1050432A680123B1F1FF3FC8BF022382
:100D800002FA03F1B0FBF1F048F21F51C5F2EB118A
:100D9000A0FB01235A096FF0630302FB0300B4F9BF
:100DA0000C300326B3F1FF3FC8BF042600FA06F05B
:100DB00000F13200A0FB01014FF00700C8BF0F2077
:100DC00000EA511040EA0210208106B070BD000018
:100DD000704700002DE9F04F8DB00746D0F804A011
:100DE0000069179DB7F800B00C9078699946002DFE
:100DF000ABF101030397CDE901A300F083800E4618
:100E000016990A920B91D7E902120AEB830704396B
:100E1000AAF1040804920691CDF814B009E000BFCD
:100E2000089D5AF8040B099E079F013D08F104082C
:100E300068D03168089547F8041B56F8045B0146F2
:100E400001F072F901460C9801F03AFA044628467E
:100E5000294601F069F90146204600F027FFBBF161
:100E6000000F4C464FF000050C900996079713D0E1
:100E7000069F0A9EC14600BF59F8040F57F8041F89
:100E800001F052F90146284600F010FFBBF1010BBA
:100E90000546F1D101E000BF0A9EA14649F8045B76
:100EA00056F8040B29460A9601F00AFA01460B98F7
:100EB00040F8041B0B90049801F036F905460C9895
:100EC0004FF0505100F0F2FE0146284600F086FF38
:100ED000DDF814B0BBF1000FA2D0069C05464746D2
:100EE0005E4600BF57F8041F284601F01DF954F86C
:100EF000041F02460846114600F0D8FE013E20605D
:100F0000F0D18DE703990C9A48610A61029A62B1A7
:100F10000199CBF100000439AAF1040252F8043F10
:100F20000130471C41F8043FF8D10DB0BDE8F08F07
:100F300070B50546DDE90460298008446FF00301BF
:100F400001EB800118461C46AA60FFF7B5F90020A6
:100F50006C60C5E90360686170BD0000F0B581B0E8
:100F60004FF68311C3F6226101F0DEF8044601F06A
:100F70002BF8054620460021002700F01CFF002822
:100F800018BF013D284601F03BF80146204601F01C
:100F900097F94FF0884101F0C7F8044601F014F8C2
:100FA000054620464FF0444100F080FE0646B7EB70
:100FB000552F14BF00252646284601F039F8014672
:100FC000304601F07DF94AF25841C0F6000101EBCC
:100FD0008502064651F8254055684FF07E5031464F
:100FE00001F06EF9214601F09FF80446304629468B
:100FF00001F09AF80146204600F058FE01B0F0BD1D
:1010000080B500F0C9F980BD2DE9F04F8FB044F2F2
:101010005010C2F20000051F46F25010C2F200004C
:1010200041F2624A40F2000841F262490026041F80
:10103000C4F29D3AC4F27A48C4F29D49CDE90D66E6
:10104000CDE90B66CDE90966CDE90745304600F0EC
:10105000EFFF5146074601F067F8414600F0BEFE3B
:10106000FFF77CFF834644F8040F3846494601F0F9
:101070005BF8414600F0B2FEFFF770FF01465846AC
:1010800000F014FE0136B6F5006F45F8040FDDD10F
:1010900042F2B404C2F2000420465021FFF70CF9DA
:1010A00042F20415C2F20005284642F24C01FFF755
:1010B00003F94CF6CD40C3F6CC5009AE4FF4006BAB
:1010C00000903046142122462B46CDF804B0FFF79D
:1010D0002FFF48F2501440F2B405C2F2000444F26B
:1010E000501146F25012C2F200053046C2F2000121
:1010F000C2F2000223460095CDF804B0FFF76AFE65
:10110000DDE9077AA5F10408A4F1040957F8040FF2
:1011100000F0A0FD08905AF8040F079100F09AFD26
:10112000069059F8040F0C4600F094FD054658F857
:10113000040F0E4600F08EFD069A04908DE87400B0
:101140004AF65C40DDE90732C0F600000591FFF782
:101150005DF8BBF1010BD9D10FB0BDE8F08F0000F5
:101160002DE9F04F8FB042F2B404C2F200042046E1
:101170005021FFF7A1F842F20415C2F200052846FB
:1011800042F24C01FFF798F84DF20A70C3F6234083
:101190000DF124084FF400670090404614212246C8
:1011A0002B460197FFF7C4FE42F2584446F25845D9
:1011B00048F2501640F2B409C0F60004C0F600052B
:1011C000C2F20006C2F20009404621462A463346D2
:1011D000CDF800900197FFF7FDFDA9F10408A6F1F5
:1011E0000409A4F1040AA5F1040B00BF5BF8040F85
:1011F00000F030FD08905AF8040F079100F02AFD26
:10120000069059F8040F0C4600F024FD054658F8E6
:10121000040F0E4600F01EFD069A04908DE874003F
:101220004AF65C40DDE90732C0F600000591FEF7A2
:10123000EDFF013FDAD10FB0BDE8F08F2DE9F04F9F
:101240008FB042F2B404C2F2000420465021FFF7EE
:1012500033F842F20415C2F20005284642F24C016E
:10126000FFF72AF84CF6CD40C3F6CC500DF1240818
:101270004FF4006700904046142122462B46019708
:10128000FFF756FE44F2584448F2584548F25016CB
:1012900040F2B409C0F60004C0F60005C2F2000630
:1012A000C2F20009404621462A463346CDF8009056
:1012B0000197FFF78FFDA9F10408A6F10409A4F135
:1012C000040AA5F1040B00BF5BF8040F00F0C2FC98
:1012D00008905AF8040F079100F0BCFC069059F8EA
:1012E000040F0C4600F0B6FC054658F8040F0E46F5
:1012F00000F0B0FC069A04908DE874004AF65C4059
:10130000DDE90732C0F600000591FEF77FFF013FDF
:10131000DAD10FB0BDE8F08F43F60002C4F201024B
:1013200011884906FCD544F20041C4F20001C3B261
:10133000938000BF0A885206FCD58B80704700005E
:10134000FFF75EFE0FA0FEF761FFFFF75DFE0025D1
:101350000EA400BF2046FEF799FF681C45B2B5F108
:10136000FF3FF7DCFFF7FCFE002508A42046FEF750
:101370008DFF681C45B2B5F1FF3FF7DCFFF75EFF5C
:10138000FEE700BF68656C6C6F000000302C302CED
:10139000302C300D000000002DE9F04F85B044F2F4
:1013A00004000121FFF7C2FB40F2002040F60004D8
:1013B000C1F60300C4F2010404AD0490204629469E
:1013C000FFF750FB4FF48060ADF810004FF00408B9
:1013D000204629468DF81380FFF744FB04F540575B
:1013E000E9464FF4E13A00264FF4402B384649468F
:1013F000CDF800A00196CDF808B0ADF80C60FFF76D
:101400008BFC38460121FFF77DFC4FF400300121B1
:10141000FFF780FB04200121FFF788FB0420C1F6C1
:101420000300049020462946FFF71CFB0820ADF876
:101430001000204629468DF81380FFF713FBA4F512
:10144000444420464946CDE900A6CDF808B0ADF8A1
:101450000C60FFF761FC20460121FFF753FC05B04B
:10146000BDE8F08F5FEA400C08BF91F0000F4FEA33
:101470008C234FEAC12243EA51514FEA1C5018BF56
:1014800000F5F0404FEA300018BF41F000415FEA3C
:101490006C5C00F02980BCF1FF3F08BF40F0804049
:1014A0007047130C06BF12044FF0100C4FF0000CE5
:1014B000130E04BF12020CF1080C130F04BF12012B
:1014C0000CF1040C930F04BF92000CF1020CD30F2B
:1014D00004BF52000CF1010C11464FF00002A0F1C4
:1014E0001F00A0EB0C00704711F0004F08BF7047C1
:1014F00031F000413FF4D5AF0B0C06BF09044FF0AB
:10150000100C4FF0000C0B0E04BF09020CF1080C7C
:101510000B0F04BF09010CF1040C8B0F04BF8900F1
:101520000CF1020CCB0F04BF49000CF1010CCCF103
:10153000200322FA03F341EA030102FA0CF2A0EBC2
:101540000C0000F10100704723F07F4720F07F4C32
:1015500080EA030000F00040ACEB070303F57C5386
:1015600003F1FF032DE9804909B44FEA144324EA4B
:1015700003484FEA154B25EA0B4E0FF2042606EB03
:1015800013273E7803FB0667C7F5000707FB06F63F
:101590004FEAD64606F102064FEA543707FB066CBF
:1015A000CCF1005C4FEA1C472CEA074C0CFB06F51B
:1015B00007FB06F404EB15464FEA961649085FEA66
:1015C000320234BF00204FF000404FEAD13706FB13
:1015D00007FC4FEA1C4C0CFB0BF7D21B03FB0CF770
:1015E00061EB07010CFB0EF7B0EB074072EB174203
:1015F0000CFB08F734BFA2EB0742B2EB074261EBEA
:1016000017414FEA0C444FEA910706FB07FC4FEAEB
:101610001C4C0CFB0BF7B0EBC74072EB573203FBD3
:101620000CF734BFA2EBC742B2EBC74261EB5731B4
:101630000CFB0EF7B0EBC70072EB57720CFB08F710
:1016400034BFA2EBC702B2EBC70261EB57714FEA9E
:10165000816141EA92114FEA826242EA90124FEAB6
:10166000806004EBCC04039F4FEAD13706FB07FCF4
:101670004FEA1C4C0CFB0BF7D21B03FB0CF761EB86
:1016800007010CFB0EF7B0EB074072EB17420CFBA7
:1016900008F734BFA2EB0742B2EB074261EB1741F8
:1016A0004FEA8C5504EB9C244FEA910706FB07FC9C
:1016B0004FEA1C4C0CFB0BF7B0EBC74072EB5732F8
:1016C00003FB0CF734BFA2EBC742B2EBC74261EB9E
:1016D00057310CFB0EF7B0EBC70072EB57720CFBE7
:1016E00008F734BFA2EBC702B2EBC70261EB577138
:1016F0004FEA816141EA92114FEA826242EA901216
:101700004FEA806015EB4C2544F100044FEAD137D5
:1017100006FB07FC4FEA1C4C0CFB0BF7D21B03FB30
:101720000CF761EB07010CFB0EF7B0EB074072EB17
:1017300017420CFB08F734BFA2EB0742B2EB07429B
:1017400061EB17414FEA813141EA92414FEA82321F
:1017500042EA90424FEA80304FEA0C7615EB1C15B6
:1017600044F1000448EA03434EEA0B484FF0000EF0
:10177000B2EB080C71EB030724BF624639464EEB0F
:101780000E0E4FF0000B0018524149414BEB0B0B72
:10179000B2EB080C71EB03077BF1000B24BF624630
:1017A00039464EEB0E0E4FF0000B001852414941E6
:1017B0004BEB0B0BB2EB080C71EB03077BF1000B4F
:1017C00024BF624639464EEB0E0E51EA020718BF9F
:1017D00046F0010616EB0E7655F1000254F10001B9
:1017E00003D5BDE88901BDE80088BDE88901BDE8F1
:1017F0000048B619524141EB0101A3F101037047C2
:1018000080807F7E7D7C7B7A79787776767574733D
:10181000727171706F6E6E6D6C6C6B6A6A696868FC
:10182000676666656464636362616160605F5F5E92
:101830005E5D5D5C5C5B5B5A5A5959585857575608
:10184000565555555454535352525251515050506D
:101850004F4F4F4E4E4D4D4D4C4C4C4B4B4B4A4ABF
:101860004A49494948484847474747464646454503
:10187000454444444443434343424242424141413C
:101880009C46002B30D477002BD04FEA37071CB58D
:1018900003B44FF010004FF01001BAF1000F06D062
:1018A000BCF1000FDCBF40F0080040F008014FF031
:1018B00000000FBCBDE810400BF1010BBBF1010FA4
:1018C00008BF5FEA170722BF12F1010211F10101FF
:1018D0004FF0004143F1000300F0004043EA0000F4
:1018E0007047F9D35708D0E746EA06464FEA16464E
:1018F00013F1400F1FDD13F1200FDFBF16430A461F
:10190000002120335B42BED0C3F1200746EA0646E1
:101910004FEA164602FA07F746EA070622FA03F2EA
:10192000C3F1200701FA07F742EA070221FA03F19F
:101930004FF00003A7E746EA020646EA06464FEAEA
:10194000164646EA0106BCBF46EA0646360C4FF08C
:1019500000034FF000024FF0000194E72DE9804CA6
:1019600070B49A46934691E8380007C831EA400CB3
:1019700048BF34EA430C03D5FFF7E6FDFFF780FFCD
:10198000F0BCBDE8008C2DE9804C70B49A469346BB
:1019900091E8380007C810F0804F08BF13F0804F5F
:1019A00003D100F005F8FFF76BFFF0BCBDE8008C39
:1019B00020F07F4723F07F4C80EA030000F00040D6
:1019C00007EB0C03A3F57C53A3F1FE0392F0000F89
:1019D00000F0B38095F0000F00F077802DE9014909
:1019E0004FEA114021EA00484FEA144624EA06472C
:1019F00000FB06FC08FB06F607FB08F818EB064898
:101A00004CEB164C00FB07F718EB07484CEB174064
:101A10004FEA124B22EA0B4E4FEA154625EA0647DB
:101A20000BFB06FC0EFB06F607FB0EFE1EEB064E3E
:101A30004CEB164C0BFB07F71EEB074E4CEB174B12
:101A400018EB0B0840F1000018EB0E0B58EB0008E8
:101A500040F100008F1A4FF000014FF000063CBF2C
:101A6000C943661B14BFB5EB040C00213CBFC9433E
:101A7000F61B4FEA174427EA04454FEA1C472CEAB5
:101A8000074C04FB076205FB07F70CFB05F616EB9A
:101A9000074642EB174204FB0CFC16EB0C4642EBEC
:101AA0001C421BEB060658EB020241414EEA8E0E29
:101AB00046EA9E0601D5BDE80189B619524141EBBF
:101AC0000101A3F10103BDE801894FEA144524EAAD
:101AD00005464FEA114721EA074C05FB07F406FBD0
:101AE00007F70CFB06F111EB074144EB174405FB2C
:101AF0000CFC11EB0C4144EB1C444FEA124722EA68
:101B0000074C05FB07F206FB07F70CFB06F616EB86
:101B1000074642EB174205FB0CFC16EB0C4642EB6A
:101B20001C456A1854F1000148BF7047B61952416C
:101B300041EB0101A3F10103704795F0000F37D08D
:101B40004FEA114221EA02464FEA144724EA074CC1
:101B500002FB07F106FB07F70CFB06F414EB074446
:101B600041EB174102FB0CFC14EB0C4441EB1C4114
:101B70004FEA154725EA074C02FB07F506FB07F776
:101B80000CFB06F616EB074645EB174502FB0CFC73
:101B900016EB0C4645EB1C42121951F1000148BFEF
:101BA0007047B619524141EB0101A3F1010370479F
:101BB0004FEA144524EA05464FEA114721EA074C4B
:101BC00005FB07F106FB07F70CFB06F212EB0742D9
:101BD00041EB174105FB0CFC12EB0C4251EB1C4195
:101BE0004FF0000648BF7047921841EB0101A3F186
:101BF00001037047490050EAC12018BF04204A0D74
:101C000018BF40F0010040F2FF72B2EB515F08BF15
:101C100040F00200012808BF0520704710B50029D8
:101C20000AD00878002807D005487844FEF7DAFE85
:101C3000002801D0002010BD0248784410BD0000EB
:101C4000529000004A9000000808A0F500114FEAE9
:101C50003101704743004FEAD30C4FEA3C0C43403C
:101C60001FBF40070CF1605113F0FE4F70471CF08E
:101C7000006F03D10CF00041002070470CF00043CE
:101C800043EA507040EACC0010B500F0CEFA00BF35
:101C9000000000924FEA0001FFF7D6BF4FF000416D
:101CA000A1F500214FF000007047000090EA010FFD
:101CB00048BF81F0004100F10A83421A3CBF801AFC
:101CC00089184FEAD052A2EBD1534FF07F4C1CEA57
:101CD000410F18BF9CEA026F00F03B804FF0004CB0
:101CE0004CEA00204CEA012121FA03FC10EB0C0C19
:101CF0001ED202F1FF325FEA1C2040EBC25038BF17
:101D000070471CF07F0F4FEA400C18BFBCF17F4FAB
:101D100038BF7047C3F12003994008BF20F001008D
:101D2000BCF17F4F38BF7047A0F1C04000F0C3BA8C
:101D30004FEA3C00000A40EBC25028BF1CF0FF0FE6
:101D40004FEA400CE6D018BFBCF17F4F38BF704758
:101D5000EAE79CEA026F05D010EA5C0F08BF00F0CA
:101D60000040704710B500F060FA00BF64FBBE3E53
:101D700010B500F0F5F80CBF0120002010BD10B523
:101D800000F0EEF814BF0120002010BD10B500F0E7
:101D900063F98CBF0120002010BD10B500F05CF984
:101DA0002CBF0120002010BD10B500F089F994BFB0
:101DB0000120002010BD10B500F082F934BF0120D1
:101DC000002010BD401058BFC0F14040491058BF1E
:101DD000C1F140418142EFF3008070474FF47F0C26
:101DE0001CEAD0121EBF1CEAD11392EA0C0F93EA30
:101DF0000C0F00F0858090EA010F48BF42F480721A
:101E000040F4000C41F400002CF07F4120F07F40B2
:101E100000B5A2EB030281420FF2081CACEB504E5E
:101E20009EF800E0C0F100004FEA4E0E00FB0EFCF1
:101E300038BF49004FEA2C1C0CFB0EF34FEACE1EB4
:101E40000EEB635E4FEA112C0EFB0CFC4FEAC12136
:101E50004FEA1C5300FB031102F5FA024FEA112C62
:101E60000EFB0CFC4FEA01314FEADC4C00FB0C117D
:101E700042EB2242C14228BF09184CEB03335DF804
:101E800004EB10EB410143EBC250B2F57C0F38BFBD
:101E9000704729D512F0F00F1CBF00F1C04000F0D0
:101EA00000407047008182838485868788898B8C77
:101EB0008D8E8F919293959697999A9C9D9FA0A2B3
:101EC000A3A5A7A8AAACAEB0B2B3B5B7B9BCBEC003
:101ED000C2C5C7C9CCCED1D4D7D9DCDFE2E6E9ECA4
:101EE000F0F3F7FAFE0000004FEA400C0CF1807CA2
:101EF000BCF17E4F28BF7047B0F1C04000F0DBB9A5
:101F00000CEAD11390EA010F48BF42F48072624597
:101F100038BF634507D213F47F0F16D080EA010063
:101F200000F00040704710B500F07FF9097EFC3EDC
:101F300000F005B880EA010000F00040704780EA38
:101F4000010000F0004000F0B6B912F47F0F04BFAA
:101F50000248704780EA010000F0ADB90000C07F80
:101F600050EA010C00F113801CF5000F58BFBCF5BE
:101F7000000F01D48842704707D710F5000F58BFF3
:101F800011F5000F15D488427047894270471CF53F
:101F9000000F04D5BCF5000FF7D5814270474FF014
:101FA000807C1CEB400F38BF1CEB410F01D28142FB
:101FB000704710B500F039F9922449004FF00050F5
:101FC0004FF08051FFF7FEBE41000B0ED3F19E0291
:101FD00008D950F400034FEA032323FA02F048BF64
:101FE0004042704710B500F020F900BF49922480AC
:101FF000002070476FF0004282EA20007047000026
:1020000010F0004148BF4042B0FA80F310FA03F2EA
:10201000C3F19D030BD051EAC35101EB12205306CB
:1020200038BF704700F1010008BF20F00100704781
:10203000B0FA80F310FA03F2C3F19D030AD0D90578
:1020400001EB1220530638BF704700F1010008BFB2
:1020500020F001007047000050EA010C00F11380ED
:102060001CF5000F58BFBCF5000F01D48842704723
:1020700007D710F5000F58BF11F5000F15D488428F
:102080007047894270471CF5000F04D5BCF5000F5E
:10209000F7D5814270474FF0807C1CEB400F38BF72
:1020A0001CEB410F01D28142704710B500F0BDF822
:1020B000922449004FF080504FF00051FFF782BE4C
:1020C00050EA010C00F113801CF5000F58BFBCF55D
:1020D000000F01D48842704707D710F5000F58BF92
:1020E00011F5000F15D488427047894270471CF5DE
:1020F000000F04D5BCF5000FF7D5814270474FF0B3
:10210000807C1CEB400F38BF1CEB410F01D2814299
:10211000704710B500F089F8922449004FF0005044
:102120004FF08051FFF74EBE4FF47F0C1CEAD012E7
:102130001EBF1CEAD11392EA0C0F93EA0C0F00F0B9
:10214000478090EA010F48BF42F480724FF0004C84
:102150004CEA00204CEA012102EB0302A0FB011330
:10216000A2F50002002918BF43F001035B0028BF5D
:102170004FEA330342EB22425FEA132C4CEBC2508E
:102180002EBFBCEB436FB2F57C0F70474FEA036C78
:10219000BCF1004F08BF20F00100B2F57C0F38BF42
:1021A00070470BD582F0FF0212F5803FC8BF704721
:1021B00000F1C040D8BF00F00040704700F5000CAF
:1021C0005FEA4C0C48BF7047B0F1C04000F073B8F4
:1021D0000CEAD11390EA010F48BF42F480726245C5
:1021E00038BF634504D280EA010000F00040704728
:1021F00010B500F01AF800BF8900013E00F007B8E2
:1022000000F009B85FEA410C5FEA1C6C08D080EA74
:10221000010000F050B85FEA400C5FEA1C6CF6D198
:102220004FF00040A0F5800070470EF1020E2EF036
:10223000030E5EF8044B244204D44FEA4102B2F18B
:102240007F4F11D84FEA4003B3F17F4F0CD80ED126
:102250004FEAD07C0CEB4C0C0CF1020CB2F17F4F2E
:1022600008BF4CEBD17C04E04FF0080C01E04FEAD2
:10227000D17C0CEB4C0324FA03F404F00704B4F112
:10228000040C06D20EEB840CBDE810404CF0010C9F
:102290006047DFE80CF0070802024FF00040A0F5AD
:1022A000800010BD0846420018BFD2F1807288BF7E
:1022B00000F0004010BDFF2141EAD050C00570473A
:1022C00090EA010F48BF81F000413FF5F6AC421A99
:1022D00004D882F00042A0EB020011444FEAD05231
:1022E000A2EBD1534FF07F4C1CEA410F18BF9CEA80
:1022F000026F4AD04FF0004C4CEA00204CEA01211A
:1023000021FA03FCB0EB0C0C0FD412F0FE0F36D008
:102310005FEA4C001DD5001240EBC25038BF704739
:102320001CF03F0F18BF70470BE05FEA1C20A2F1C2
:10233000010240EBC25038BF70471CF07F0F18BF3E
:102340007047C3F12003994014BF401E20F00100E4
:1023500070474FEA1223800808BF7047B0FA80FC2C
:10236000A2EB0C02CCF1280C60FA0CF093EA122FCD
:1023700004BF00EBC25070474FEAC3707047130AA6
:102380005FEADC1008BF7047F6E79CEA026F04D0F2
:1023900010EA5C0F08BF0020704710B5FFF745FF3B
:1023A00040DFF63E81F000407047FEF788B800003D
:1023B00002400000000000A00000000005400000F6
:1023C000000000C8000000000C4000000000409C1D
:1023D00000000000194000000020BCBE000000000A
:1023E00034400000BFC91B8E00000004B54000004F
:1023F000504BCFD06607E2CF010000006C410000D7
:102400003E8251AADFEEA73401000000D94200004D
:10241000DCB5A0E23A301F97FFFFFFFFB445000094
:10242000FD25A0C8E9A3C14FFFFFFFFFFF3F00004C
:102430000000008000000000FF3F0000000000805E
:10244000000000000204060800000000010203046E
:102450000102030406070809B35C8EBE84D7D63E8A
:102460001094173FD7F8AC3F2768733F9A60C23F7C
:1024700085E9F93F5E65FB3F2D23004083192F401E
:10248000B8EA2F40FE804040AB592A40C3B80E4006
:10249000AEB70C40A2460F40616F13401A30D83FD0
:1024A000C8CF823FC8257E3FDCB9A03F889D553FFD
:1024B0007E1C653F30BC0A3FC82744BE47E3E83E68
:1024C0009F1DD8BEA35C2ABE36AC29BE4D86E3BD97
:1024D0003BAB453EF12ACB3DA298ECBEAE0DC5BE4E
:1024E00015C6963E61FE8A3EDEE5723E36568A3E4F
:1024F000E7730E3FFAD0A53E581B973F4390133F1A
:10250000E92A1D3F4624063FF2D2313F1E35223FC5
:10251000F20B873E05533D3F3D0D283E47AA6FBB5A
:102520002A58933E55DEEEBD9B373EBEAB5D27BFBE
:1025300018B004BFF8A473BE790413BF7D0816BF9A
:10254000C0ED69BFDBDB91BF929761BF734A44BFA7
:1025500026E330BFCFF733BE424101BF6403893D5C
:1025600017D36C3E07EB9FBDA08D3CBED32EC63D5E
:102570002864673CBC95053E8DCFE43E2F6EF33E4C
:10258000684128BE17F529BE365AEE3EB85B32BE0A
:10259000494DABBE9868F03DB2A098BE87A4BEBEC0
:1025A00098DD8FBF172B36BF22A8C8BF8CDCCFBFEA
:1025B000B62F08C05EF400C015FF13C092CA0DC04C
:1025C0003F9032C058AA35C0346631C042242BC077
:1025D000C7DA26C0BAD817C046B31FC0320203C03C
:1025E000C24D08C04513D8BFCAA63CBF3F575BBF0A
:1025F000572240BE452FA3BA3D29533F8C146A3E53
:10260000390AA23F38C00140876D06409C691040DE
:10261000706007409FE55840D5951B407AAB33402A
:10262000EA2240404B78164059C21540E2920540DC
:102630000A6ADC3FE9290340BA9FCB3FFCE3513FE4
:10264000C30D923F978BA03FC93E243FFA471F3FDF
:102650001ABF803E060FF3BEE6E821BE25402DBE20
:10266000382E23BFF9BA4CBF11DF89BCBDC8E4BD09
:10267000C494D8BE4E2523BF61178D3E37E2A93ED4
:102680002DED14BDE962633E25ADF83E7AC8B43E37
:10269000508A0E3FE109913F6B821C3F7193813F4D
:1026A0009C36673F0ABCC33EC878703FCCCF9D3E86
:1026B0003A040A3F28F3973E85B2B03DFDBFD23EB3
:1026C000B62BD43D4A465EBE19AFF9BCE59C48BE68
:1026D000909E82BEA6270CBF030994BFB30706BF16
:1026E000A4C290BE2FC240BF17D744BF9E3F0DBFAC
:1026F00063D194BE5F6284BE0D34C7BE6073963EE4
:1027000013D5EBBE6630C6BED4B85B3F11AB8F3E6F
:102710006D8C093F310656BCD942403E1558383FB2
:10272000295FD03DD7DE07BE5EBEB5BD80296FBF35
:1027300005FC3ABEB5FD53BF040497BF499DA0BF39
:10274000842BB8BF2BBEE3BFD20119C073BC0EC02F
:10275000C2DA0BC0AC7026C0F69725C0F85525C06C
:10276000D3161DC0B8CD1CC0BF0C25C0F7E927C0CB
:1027700027C21DC0635EE1BFDA90E1BF354592BF5D
:10278000F3AA56BFCAC2BFBE8061D9BD50896BBC17
:1027900013B7EA3EB60E623FACC98D3FC571923F9A
:1027A00083FACA3FB9C72040889C024040FAFC3FE8
:1027B0003B1D1E40A9DA1740058C3E4067B42840F7
:1027C000C383214052D2034089451940C74AD63FAE
:1027D000929204404BCA513F36E7D83FF6EC4D3F4A
:1027E000CFA23B3F2EAC073F4F24F03E3256933EE4
:1027F000F166093F7619BEBD0A49A6BDDC813ABD26
:10280000B7B525BE43E29EBE3C85DCBCAF99DCBEBD
:10281000B24A49BE4AF1213E9FE6E43DF8C4CA3EB1
:102820002C831A3E27A0193E179FFA3E80D2F83E0D
:10283000897C273E34851E3FF38D1C3F0EA01F3E32
:10284000D87E32BD9981BA3E54A86E3F74EAF23EFA
:10285000E2E8563FB9C431BEBC5CC43C25E9EABEDF
:10286000FF238B3E0F9936BF4B92C7BE6094C0BE0C
:1028700038DA65BF58CA8ABEBF8155BFF43583BFF9
:1028800056D50FBFF1661DBFCF9FEEBEBF8109BFFA
:102890002096CD3C43C538BE5E2EA23DA4ABE4BE1F
:1028A00038DBDC3EE12623BCEC18133F2C81B4BDA1
:1028B000F38E8B3E96CF06BF682402BD97C79A3E23
:1028C0002A74DE3C4E64163E65356DBE682072BFCC
:1028D000E7C628BF749A83BFB24635BFCF15A9BFDC
:1028E000492DB4BFC5E4E1BFBBB70EC0B77C02C081
:1028F0002FDE08C0006F0BC0414624C081943AC04F
:1029000013630FC025CE1EC0A5DDE6BFFE9C07C029
:102910000263A7BF87C168BF5A81B7BFBB2620BF6C
:10292000DC0D12BE61C2E83CC250873C29E9813E01
:102930002C29AF3F32CAB73FEE94923F4128C53FA2
:102940005CC619408C4D05409BE52B40CAF93040D0
:1029500037E1104050713440A8C729402B32EC3F7A
:10296000B7B21040A7E90E401C950440C32AB83FF7
:102970006FBCCF3F8E58373FD07F133F069F323F0B
:102980007D22CF3ED6350A3EEAAFC73E815D5D3E31
:10299000E63D9EBE8140BFBEFB73213E19E7AFBD41
:1029A000B5FABABE142511BF5A462ABD77F43FBE08
:1029B00084BA88BE60CC063E66A4863E268AC83E9F
:1029C000B56E833E9AEA0D3FFD83183F3A77173F75
:1029D000E25A293FF034053FD315803FE754363F94
:1029E000815C723E89EF583F51868ABE124ADF3CB5
:1029F0000BD2943E9A07E83E9DBEBEBECCB6A33E27
:102A0000BF9E6F3D9F8E57BE33351DBFB37A17BF34
:102A1000525FB6BD6EDD5DBE058A04BFEC8403BFA8
:102A20009AB128BDB8016FBE89F0A7BEF96540BE56
:102A3000096EA43CB66861BEA5BDA1BDBC91D9BD5F
:102A40005131963E3430323E8925C53EA8AB0BBE8F
:102A500080D511BD7BBDCB3E3353BA3D52639A3E08
:102A6000F4867B3CE8BEFCBEE0D50ABFF72272BF0D
:102A70004E7C9FBFCD5CD6BFA567B6BFAFD1CEBFE2
:102A80000BD305C0FD2E0FC0742611C01BB80BC0A0
:102A9000187D37C0100322C0D6E012C090130DC0BD
:102AA0000C0500C06B7DFBBF98A7F5BFF8FBDDBF31
:102AB000B3985CBF9D4C3CBFE97F99BE8AAB4A3E50
:102AC0005DE13D3ED449D63ED8D66F3FDB88B13F6D
:102AD0006799793FCC7D024045F5C03F10040B401B
:102AE0007D081240ED64EE3FDFE11640D120294021
:102AF000A48A2C40952A0440139AEA3F0B0C1E40EE
:102B0000F1BCF23FEA76BC3FDA75AB3F93E0813F20
:102B10002DE9863FF6B2713F42B1153D431B80BEA1
:102B200014981E3E98A5BDBD1F67AA3ED73073BE40
:102B3000DD449DBE13430EBFD89C533E0D1D0B3E7E
:102B40005EF475BE759433BE25B37A3E5C5671BE95
:102B50003272B63DBEA1203EB7D4C13E8AE49F3F4B
:102B60009A5D373EFFEB1C3EF3908F3F0A131E3FEA
:102B7000AA444D3FC0777B3E713D923E2F15F33EF8
:102B8000FC8A453E187C2E3FBC24863E386A25BE12
:102B9000302DB2BE2BD9C1BEFC011FBE73858FBEC6
:102BA00036CE96BE27D96EBF99B93CBFD34C97BEDF
:102BB000D7DB88BFA969E7BE17D457BFD9CE57BEA8
:102BC0002175F3BE68407D3E23BA77BEE6E5F03D51
:102BD0005A9BA6BED8BBBFBC44A88A3E3A790DBF5B
:102BE00011007C3ED09A9F3C2D78913D3BA64E3EF5
:102BF000C32E1A3F5EDAE0BEEFE6A9BEC63215BFAD
:102C00002D3F40BF5AF33BBF12C154BFC095A2BF76
:102C1000DAADE9BF79E8FBBF8DF0DABFC2850AC043
:102C200093510BC0B1E006C03FAA10C0F0313DC0C7
:102C3000897D0EC0A58324C0CBBF07C0587214C0C5
:102C400087DDE9BF4CDE03C06C406CBF9D0FC1BF88
:102C5000626A95BFD4F32EBFC686DE3E3A969F3F8A
:102C600071C69C3F4F59D13F7C9BBC3FDB860740E0
:102C70009E4528407F6A474082FE29406DE2214000
:102C8000B0702F4026A65F4047AD5340AB59494036
:102C900095F0424013D346408D6035409FC81840A0
:102CA0000E861B402FC30640E57CD53FD95DD83F3B
:102CB0005795453F0B9C3C3F0F643D3F7DCAF13E1D
:102CC00004AA6F3E2B313F3F0E82CE3D66F5163F84
:102CD000C97468BDA5D7223FAA48053EBB6286BD20
:102CE0006CB5B73E1EA4EF3E2314853F205D9A3F8E
:102CF00054A8223F666B853FB9E05C3F9736883F1A
:102D000029ECAE3FD333A73F603F303FFD12BF3FBA
:102D1000BBD4A03FD254673F00530A3F4D842D3FA0
:102D2000AE2B163E3C32123FF9DBEE3E2AFF1ABEB6
:102D300027A1743DF032A33D12C1B83E2173353E48
:102D4000BF0F073E0D385B3E3FAAC9BED34A89BEBE
:102D50009737CF3ED8B7B3BE51119FBEF014163F80
:102D600017F1DDBDB7281F3F7025333F9B3A3F3E2B
:102D7000C80A903F77F4CF3E3C2DF73E52633A3F6E
:102D800089B2033F1826633F809F293FF6952F3F66
:102D90001C418ABD5EBAC9BC43E6CA3E5B5B183EB5
:102DA0003ACEBDBEEA7834BFBABA1BBFB80458BF2A
:102DB0005072DDBFB189BABFA9A1B7BF9698CDBF88
:102DC000DFE21BC0F52D13C0430007C05E8400C0C6
:102DD000BAA0BABF0133A3BFA4A5B4BF8D5F86BF9D
:102DE000B4561CBF7A1856BF7F2F29BF78D4983CA1
:102DF0000CB0473F2270DC3E635FC83F84BAAC3FF3
:102E000018E9C33FF3C61240643D174075901B405C
:102E100052B6274031CE2540618B53403B7324404E
:102E2000D86136408A942240E5B44F407B130F406E
:102E3000C93D1040959F0B4023682040C497EF3F49
:102E400027A3AE3FDCF19E3F09C5CC3FB24CFF3E0D
:102E50008AE4F33EB2B8673FE2C8333E33C5CC3EA6
:102E6000AFE9E13DAB25253F6DC7143FBD53453F5D
:102E7000BBD63E3E6D58C33E5870333F643FE33E81
:102E80003C86893FBEDC2B3F5C72C43E2BC1163FA3
:102E90008FC55E3F5F0C213FD658BA3F76FDC23FDB
:102EA00097C9303F70404F3FC9C8253FE069883F10
:102EB0002E01583F93FFC93E200C783F3EB14E3F54
:102EC000BDFEC43DC26AE43E01A3033FE678DD3E99
:102ED000BDA8DDBDC3F4853E39ED09BF9FAF09BF75
:102EE00070D02E3E0A4D92BD3830A13EADDCABBE57
:102EF0001ADEC43EEE5C98BEAB3DAC3ED6A9D2BD58
:102F00001D582E3E74CE7F3EBE14BE3E06D9463FAF
:102F1000A1B96A3FC7F6943FC591633FF81C543F7F
:102F20008AE5063FCD78C33E0D55B13EFD4F123FB9
:102F3000F7397EBDF4DD6D3EC28988BD8E7892BEC4
:102F4000D102F4BEDEAE9DBFADDBDCBF3963DCBFBA
:102F5000118C04C0B169D1BFF511BCBFD55DE9BF0B
:102F6000B55105C045B90EC014CE02C05DDEC8BF64
:102F70004FB2CDBF3F5587BFBEFAA4BFDC7E9DBF19
:102F8000310B2DBE4C6D69BECE0017BD90F42D3FA8
:102F9000651D823F98DCE03F302E993FC4980A407F
:102FA00020412840CD920A40745E444088644940E4
:102FB000003C4640BA4C4940CE164240A6D326407B
:102FC0002E763F407B2F2840124A224058AB2040AB
:102FD00016332540EE43CC3F8BFA0E40DDB6EF3F73
:102FE000CE6E9D3FE6CDB33FB7092B3F6E13363F04
:102FF000997E4D3FAAD59F3E1E18E03D0400473DF7
:103000005452AF3ED715533E9146753EC53C533F93
:10301000D3DD353F66DA5E3E658F863F8F1B863E89
:10302000A969A73EF3E81A3F261C463FBBF2693F59
:10303000795BB93F50E3C83FD5EB323FB6BD833F24
:1030400091B6C33F70B13E3F143EFB3E0EBDB53E50
:103050009528EB3EBF9E4B3FFF04073EF817153FF8
:10306000AE0D153E9D676C3C22FB043F5472DEBEE4
:103070005DDCA6BE750054BE67EF8C3DD95FF63DA2
:10308000AE830FBFC51D6F3E498426BE3DBA913C3D
:10309000414A5CBE8080153E2314DB3CBDA9983EAE
:1030A0000B7A833F4B766C3FFE9D833F8B1AB43E79
:1030B000BE13E33E847E4E3FD28E2B3E800FAE3E4B
:1030C00047031C3F6AFAEC3938D99E3E6F7FEEBE4B
:1030D00082C4AEBE087363BFD0803ABFB08F9CBFBE
:1030E0004C8CC5BF7EAABEBF86E8C4BF7D06FABFB2
:1030F0005C00D2BFC09407C041F41CC00B2605C0C1
:1031000087FE06C072C1FBBFB97207C0B45A9CBF2C
:103110005ED8D2BF11A993BFA27E37BF9A97C3BD15
:10312000685957BE64B1393F6DFD863FAFD17E3FD0
:1031300008AB9D3F4F210240B69E01403BA6344064
:103140004DF62F40E5D517404F3D4B4013D34A4035
:1031500037DD264097E42B40924056407EC5204004
:10316000BA100D408FFC21404D84E53FE9600940D5
:10317000ABD0E43F3238FA3F3A5BBC3FFEEE353F1E
:10318000C6E0913FC1C5CA3EAE4A863FB972763CA1
:10319000438F143F1827123FFE80EF3EA7C91C3E05
:1031A00081EA2B3F40A6953E35EB003F3319CE3DDB
:1031B000BC05663FC2151C3FCCB6973F52B8903F46
:1031C00084BD293F3DF0293FFF7A313F5ED7573F0D
:1031D0007A555B3FEDBC593FF9F3853F8BA65B3FCA
:1031E000B1C4A53F3196793F90DD933F8CB9673FDD
:1031F000844A403FE6E6473F06D972BD537735BE65
:1032000085794F3D200850BEE59AE23D2E37C0BE7D
:10321000A166D8BEA88FC0BCCDAC25B9C47CD93EB0
:10322000CD3BF63ECC40953EA04EF93EC1A7F93DC0
:1032300096EC583B55123D3FC5AA313F221C8F3FAB
:103240001095763F0267993F01BFC63E5C3A723FD8
:10325000D922F13E09E1353F42AFEF3ED2C7DC3E15
:10326000C5E51C3F9CA499BDFA971CBFA4E21FBEF4
:103270009D6748BF103C66BFFA47A9BFE9ED9BBFF9
:10328000959D96BF153AC7BF34BFEABFD429C1BFC9
:1032900016F608C019721EC0E65C1AC02DE8C9BF38
:1032A000BE33A2BFA12EA8BFCE6DC6BF363C59BF4C
:1032B0009DF694BF50719CBC8F1B4E3E87DC8CBD2D
:1032C0008E79113F39B5BB3F5FEB863F575CBC3F02
:1032D000E887C73F5CAEF63F57070640BDAC3A40B3
:1032E000EFE61A4096243E40336E514003222440BC
:1032F00049D74640FC893240DBA32740F8A52A4045
:103300004986374097C9E43FD6E5D03F6FB80540BE
:103310008AC9833F57D1533F1E158F3F62BAC03EC3
:103320002F308B3E1D3ED93E5B0CE63EDBA6383D82
:103330007DE7273E64042C3F6935043EE0F7AF3E4D
:10334000DEB02D3DEECF8D3E6F4B603F5B228B3F5D
:10335000A19E423F7AE19A3F7FFB943F525F223F1A
:10336000C362103FBCCEB23F618E923F90695D3F19
:103370000AA2A83F8F6C9C3FF81CB03F10E7453F66
:103380009659283F789C023F4F91E33D5EA2823ED2
:103390005C3E363F17D5E2BD8CF23C3E7977CCBE21
:1033A000A60D9F3EBB62BE3EC79EA5BEE1F1CDBE4F
:1033B000598B9F3EFC50813E8E1F7A3E9563323D75
:1033C00067B5503E67279B3E6211733E170E403F24
:1033D00032712B3E8714533E9C6B303F828C443FAE
:1033E000B1A2CE3EC004C63E38DC873E1AFB123F77
:1033F0000C59093F16FC96BD2A36E63C31EC90BDCF
:1034000005F919BFC45B07BE4AB359BE95D65FBF65
:103410003AE836BF6AA441BF3F35C2BFD49995BFD1
:10342000514EECBFD8110CC01D1F11C06823DFBF67
:1034300063B6C4BFE8DDC6BF9817F2BF206297BF6E
:10344000A94BBABF396477BFF03065BF9FAD33BFBA
:103450001D5AE4BD54C7923EB35C8EBE84D7D63E9F
:103460001094173FD7F8AC3F2768733F9A60C23F6C
:1034700085E9F93F5E65FB3F2D23004083192F400E
:10348000B8EA2F40FE804040AB592A40C3B80E40F6
:10349000AEB70C40A2460F40616F13401A30D83FC0
:1034A000C8CF823FC8257E3FDCB9A03F889D553FED
:1034B0007E1C653F30BC0A3FC82744BE47E3E83E58
:1034C0009F1DD8BEA35C2ABE36AC29BE4D86E3BD87
:1034D0003BAB453EF12ACB3DA298ECBEAE0DC5BE3E
:1034E00015C6963E61FE8A3EDEE5723E36568A3E3F
:1034F000E7730E3FFAD0A53E581B973F4390133F0A
:10350000E92A1D3F4624063FF2D2313F1E35223FB5
:10351000F20B873E05533D3F3D0D283E47AA6FBB4A
:103520002A58933E55DEEEBD9B373EBEAB5D27BFAE
:1035300018B004BFF8A473BE790413BF7D0816BF8A
:10354000C0ED69BFDBDB91BF929761BF734A44BF97
:1035500026E330BFCFF733BE424101BF6403893D4C
:1035600017D36C3E07EB9FBDA08D3CBED32EC63D4E
:103570002864673CBC95053E8DCFE43E2F6EF33E3C
:10358000684128BE17F529BE365AEE3EB85B32BEFA
:10359000494DABBE9868F03DB2A098BE87A4BEBEB0
:1035A00098DD8FBF172B36BF22A8C8BF8CDCCFBFDA
:1035B000B62F08C05EF400C015FF13C092CA0DC03C
:1035C0003F9032C058AA35C0346631C042242BC067
:1035D000C7DA26C0BAD817C046B31FC0320203C02C
:1035E000C24D08C04513D8BFCAA63CBF3F575BBFFA
:1035F000572240BE452FA3BA3D29533F8C146A3E43
:10360000390AA23F38C00140876D06409C691040CE
:10361000706007409FE55840D5951B407AAB33401A
:10362000EA2240404B78164059C21540E2920540CC
:103630000A6ADC3FE9290340BA9FCB3FFCE3513FD4
:10364000C30D923F978BA03FC93E243FFA471F3FCF
:103650001ABF803E060FF3BEE6E821BE25402DBE10
:10366000382E23BFF9BA4CBF11DF89BCBDC8E4BDF9
:10367000C494D8BE4E2523BF61178D3E37E2A93EC4
:103680002DED14BDE962633E25ADF83E7AC8B43E27
:10369000508A0E3FE109913F6B821C3F7193813F3D
:1036A0009C36673F0ABCC33EC878703FCCCF9D3E76
:1036B0003A040A3F28F3973E85B2B03DFDBFD23EA3
:1036C000B62BD43D4A465EBE19AFF9BCE59C48BE58
:1036D000909E82BEA6270CBF030994BFB30706BF06
:1036E000A4C290BE2FC240BF17D744BF9E3F0DBF9C
:1036F00063D194BE5F6284BE0D34C7BE6073963ED4
:1037000013D5EBBE6630C6BED4B85B3F11AB8F3E5F
:103710006D8C093F310656BCD942403E1558383FA2
:10372000295FD03DD7DE07BE5EBEB5BD80296FBF25
:1037300005FC3ABEB5FD53BF040497BF499DA0BF29
:10374000842BB8BF2BBEE3BFD20119C073BC0EC01F
:10375000C2DA0BC0AC7026C0F69725C0F85525C05C
:10376000D3161DC0B8CD1CC0BF0C25C0F7E927C0BB
:1037700027C21DC0635EE1BFDA90E1BF354592BF4D
:10378000F3AA56BFCAC2BFBE8061D9BD50896BBC07
:1037900013B7EA3EB60E623FACC98D3FC571923F8A
:1037A00083FACA3FB9C72040889C024040FAFC3FD8
:1037B0003B1D1E40A9DA1740058C3E4067B42840E7
:1037C000C383214052D2034089451940C74AD63F9E
:1037D000929204404BCA513F36E7D83FF6EC4D3F3A
:1037E000CFA23B3F2EAC073F4F24F03E3256933ED4
:1037F000F166093F7619BEBD0A49A6BDDC813ABD16
:10380000B7B525BE43E29EBE3C85DCBCAF99DCBEAD
:10381000B24A49BE4AF1213E9FE6E43DF8C4CA3EA1
:103820002C831A3E27A0193E179FFA3E80D2F83EFD
:10383000897C273E34851E3FF38D1C3F0EA01F3E22
:10384000D87E32BD9981BA3E54A86E3F74EAF23EEA
:10385000E2E8563FB9C431BEBC5CC43C25E9EABECF
:10386000FF238B3E0F9936BF4B92C7BE6094C0BEFC
:1038700038DA65BF58CA8ABEBF8155BFF43583BFE9
:1038800056D50FBFF1661DBFCF9FEEBEBF8109BFEA
:103890002096CD3C43C538BE5E2EA23DA4ABE4BE0F
:1038A00038DBDC3EE12623BCEC18133F2C81B4BD91
:1038B000F38E8B3E96CF06BF682402BD97C79A3E13
:1038C0002A74DE3C4E64163E65356DBE682072BFBC
:1038D000E7C628BF749A83BFB24635BFCF15A9BFCC
:1038E000492DB4BFC5E4E1BFBBB70EC0B77C02C071
:1038F0002FDE08C0006F0BC0414624C081943AC03F
:1039000013630FC025CE1EC0A5DDE6BFFE9C07C019
:103910000263A7BF87C168BF5A81B7BFBB2620BF5C
:10392000DC0D12BE61C2E83CC250873C29E9813EF1
:103930002C29AF3F32CAB73FEE94923F4128C53F92
:103940005CC619408C4D05409BE52B40CAF93040C0
:1039500037E1104050713440A8C729402B32EC3F6A
:10396000B7B21040A7E90E401C950440C32AB83FE7
:103970006FBCCF3F8E58373FD07F133F069F323FFB
:103980007D22CF3ED6350A3EEAAFC73E815D5D3E21
:10399000E63D9EBE8140BFBEFB73213E19E7AFBD31
:1039A000B5FABABE142511BF5A462ABD77F43FBEF8
:1039B00084BA88BE60CC063E66A4863E268AC83E8F
:1039C000B56E833E9AEA0D3FFD83183F3A77173F65
:1039D000E25A293FF034053FD315803FE754363F84
:1039E000815C723E89EF583F51868ABE124ADF3CA5
:1039F0000BD2943E9A07E83E9DBEBEBECCB6A33E17
:103A0000BF9E6F3D9F8E57BE33351DBFB37A17BF24
:103A1000525FB6BD6EDD5DBE058A04BFEC8403BF98
:103A20009AB128BDB8016FBE89F0A7BEF96540BE46
:103A3000096EA43CB66861BEA5BDA1BDBC91D9BD4F
:103A40005131963E3430323E8925C53EA8AB0BBE7F
:103A500080D511BD7BBDCB3E3353BA3D52639A3EF8
:103A6000F4867B3CE8BEFCBEE0D50ABFF72272BFFD
:103A70004E7C9FBFCD5CD6BFA567B6BFAFD1CEBFD2
:103A80000BD305C0FD2E0FC0742611C01BB80BC090
:103A9000187D37C0100322C0D6E012C090130DC0AD
:103AA0000C0500C06B7DFBBF98A7F5BFF8FBDDBF21
:103AB000B3985CBF9D4C3CBFE97F99BE8AAB4A3E40
:103AC0005DE13D3ED449D63ED8D66F3FDB88B13F5D
:103AD0006799793FCC7D024045F5C03F10040B400B
:103AE0007D081240ED64EE3FDFE11640D120294011
:103AF000A48A2C40952A0440139AEA3F0B0C1E40DE
:103B0000F1BCF23FEA76BC3FDA75AB3F93E0813F10
:103B10002DE9863FF6B2713F42B1153D431B80BE91
:103B200014981E3E98A5BDBD1F67AA3ED73073BE30
:103B3000DD449DBE13430EBFD89C533E0D1D0B3E6E
:103B40005EF475BE759433BE25B37A3E5C5671BE85
:103B50003272B63DBEA1203EB7D4C13E8AE49F3F3B
:103B60009A5D373EFFEB1C3EF3908F3F0A131E3FDA
:103B7000AA444D3FC0777B3E713D923E2F15F33EE8
:103B8000FC8A453E187C2E3FBC24863E386A25BE02
:103B9000302DB2BE2BD9C1BEFC011FBE73858FBEB6
:103BA00036CE96BE27D96EBF99B93CBFD34C97BECF
:103BB000D7DB88BFA969E7BE17D457BFD9CE57BE98
:103BC0002175F3BE68407D3E23BA77BEE6E5F03D41
:103BD0005A9BA6BED8BBBFBC44A88A3E3A790DBF4B
:103BE00011007C3ED09A9F3C2D78913D3BA64E3EE5
:103BF000C32E1A3F5EDAE0BEEFE6A9BEC63215BF9D
:103C00002D3F40BF5AF33BBF12C154BFC095A2BF66
:103C1000DAADE9BF79E8FBBF8DF0DABFC2850AC033
:103C200093510BC0B1E006C03FAA10C0F0313DC0B7
:103C3000897D0EC0A58324C0CBBF07C0587214C0B5
:103C400087DDE9BF4CDE03C06C406CBF9D0FC1BF78
:103C5000626A95BFD4F32EBFC686DE3E3A969F3F7A
:103C600071C69C3F4F59D13F7C9BBC3FDB860740D0
:103C70009E4528407F6A474082FE29406DE22140F0
:103C8000B0702F4026A65F4047AD5340AB59494026
:103C900095F0424013D346408D6035409FC8184090
:103CA0000E861B402FC30640E57CD53FD95DD83F2B
:103CB0005795453F0B9C3C3F0F643D3F7DCAF13E0D
:103CC00004AA6F3E2B313F3F0E82CE3D66F5163F74
:103CD000C97468BDA5D7223FAA48053EBB6286BD10
:103CE0006CB5B73E1EA4EF3E2314853F205D9A3F7E
:103CF00054A8223F666B853FB9E05C3F9736883F0A
:103D000029ECAE3FD333A73F603F303FFD12BF3FAA
:103D1000BBD4A03FD254673F00530A3F4D842D3F90
:103D2000AE2B163E3C32123FF9DBEE3E2AFF1ABEA6
:103D300027A1743DF032A33D12C1B83E2173353E38
:103D4000BF0F073E0D385B3E3FAAC9BED34A89BEAE
:103D50009737CF3ED8B7B3BE51119FBEF014163F70
:103D600017F1DDBDB7281F3F7025333F9B3A3F3E1B
:103D7000C80A903F77F4CF3E3C2DF73E52633A3F5E
:103D800089B2033F1826633F809F293FF6952F3F56
:103D90001C418ABD5EBAC9BC43E6CA3E5B5B183EA5
:103DA0003ACEBDBEEA7834BFBABA1BBFB80458BF1A
:103DB0005072DDBFB189BABFA9A1B7BF9698CDBF78
:103DC000DFE21BC0F52D13C0430007C05E8400C0B6
:103DD000BAA0BABF0133A3BFA4A5B4BF8D5F86BF8D
:103DE000B4561CBF7A1856BF7F2F29BF78D4983C91
:103DF0000CB0473F2270DC3E635FC83F84BAAC3FE3
:103E000018E9C33FF3C61240643D174075901B404C
:103E100052B6274031CE2540618B53403B7324403E
:103E2000D86136408A942240E5B44F407B130F405E
:103E3000C93D1040959F0B4023682040C497EF3F39
:103E400027A3AE3FDCF19E3F09C5CC3FB24CFF3EFD
:103E50008AE4F33EB2B8673FE2C8333E33C5CC3E96
:103E6000AFE9E13DAB25253F6DC7143FBD53453F4D
:103E7000BBD63E3E6D58C33E5870333F643FE33E71
:103E80003C86893FBEDC2B3F5C72C43E2BC1163F93
:103E90008FC55E3F5F0C213FD658BA3F76FDC23FCB
:103EA00097C9303F70404F3FC9C8253FE069883F00
:103EB0002E01583F93FFC93E200C783F3EB14E3F44
:103EC000BDFEC43DC26AE43E01A3033FE678DD3E89
:103ED000BDA8DDBDC3F4853E39ED09BF9FAF09BF65
:103EE00070D02E3E0A4D92BD3830A13EADDCABBE47
:103EF0001ADEC43EEE5C98BEAB3DAC3ED6A9D2BD48
:103F00001D582E3E74CE7F3EBE14BE3E06D9463F9F
:103F1000A1B96A3FC7F6943FC591633FF81C543F6F
:103F20008AE5063FCD78C33E0D55B13EFD4F123FA9
:103F3000F7397EBDF4DD6D3EC28988BD8E7892BEB4
:103F4000D102F4BEDEAE9DBFADDBDCBF3963DCBFAA
:103F5000118C04C0B169D1BFF511BCBFD55DE9BFFB
:103F6000B55105C045B90EC014CE02C05DDEC8BF54
:103F70004FB2CDBF3F5587BFBEFAA4BFDC7E9DBF09
:103F8000310B2DBE4C6D69BECE0017BD90F42D3F98
:103F9000651D823F98DCE03F302E993FC4980A406F
:103FA00020412840CD920A40745E444088644940D4
:103FB000003C4640BA4C4940CE164240A6D326406B
:103FC0002E763F407B2F2840124A224058AB20409B
:103FD00016332540EE43CC3F8BFA0E40DDB6EF3F63
:103FE000CE6E9D3FE6CDB33FB7092B3F6E13363FF4
:103FF000997E4D3FAAD59F3E1E18E03D0400473DE7
:104000005452AF3ED715533E9146753EC53C533F83
:10401000D3DD353F66DA5E3E658F863F8F1B863E79
:10402000A969A73EF3E81A3F261C463FBBF2693F49
:10403000795BB93F50E3C83FD5EB323FB6BD833F14
:1040400091B6C33F70B13E3F143EFB3E0EBDB53E40
:104050009528EB3EBF9E4B3FFF04073EF817153FE8
:10406000AE0D153E9D676C3C22FB043F5472DEBED4
:104070005DDCA6BE750054BE67EF8C3DD95FF63D92
:10408000AE830FBFC51D6F3E498426BE3DBA913C2D
:10409000414A5CBE8080153E2314DB3CBDA9983E9E
:1040A0000B7A833F4B766C3FFE9D833F8B1AB43E69
:1040B000BE13E33E847E4E3FD28E2B3E800FAE3E3B
:1040C00047031C3F6AFAEC3938D99E3E6F7FEEBE3B
:1040D00082C4AEBE087363BFD0803ABFB08F9CBFAE
:1040E0004C8CC5BF7EAABEBF86E8C4BF7D06FABFA2
:1040F0005C00D2BFC09407C041F41CC00B2605C0B1
:1041000087FE06C072C1FBBFB97207C0B45A9CBF1C
:104110005ED8D2BF11A993BFA27E37BF9A97C3BD05
:10412000685957BE64B1393F6DFD863FAFD17E3FC0
:1041300008AB9D3F4F210240B69E01403BA6344054
:104140004DF62F40E5D517404F3D4B4013D34A4025
:1041500037DD264097E42B40924056407EC52040F4
:10416000BA100D408FFC21404D84E53FE9600940C5
:10417000ABD0E43F3238FA3F3A5BBC3FFEEE353F0E
:10418000C6E0913FC1C5CA3EAE4A863FB972763C91
:10419000438F143F1827123FFE80EF3EA7C91C3EF5
:1041A00081EA2B3F40A6953E35EB003F3319CE3DCB
:1041B000BC05663FC2151C3FCCB6973F52B8903F36
:1041C00084BD293F3DF0293FFF7A313F5ED7573FFD
:1041D0007A555B3FEDBC593FF9F3853F8BA65B3FBA
:1041E000B1C4A53F3196793F90DD933F8CB9673FCD
:1041F000844A403FE6E6473F06D972BD537735BE55
:1042000085794F3D200850BEE59AE23D2E37C0BE6D
:10421000A166D8BEA88FC0BCCDAC25B9C47CD93EA0
:10422000CD3BF63ECC40953EA04EF93EC1A7F93DB0
:1042300096EC583B55123D3FC5AA313F221C8F3F9B
:104240001095763F0267993F01BFC63E5C3A723FC8
:10425000D922F13E09E1353F42AFEF3ED2C7DC3E05
:10426000C5E51C3F9CA499BDFA971CBFA4E21FBEE4
:104270009D6748BF103C66BFFA47A9BFE9ED9BBFE9
:10428000959D96BF153AC7BF34BFEABFD429C1BFB9
:1042900016F608C019721EC0E65C1AC02DE8C9BF28
:1042A000BE33A2BFA12EA8BFCE6DC6BF363C59BF3C
:1042B0009DF694BF50719CBC8F1B4E3E87DC8CBD1D
:1042C0008E79113F39B5BB3F5FEB863F575CBC3FF2
:1042D000E887C73F5CAEF63F57070640BDAC3A40A3
:1042E000EFE61A4096243E40336E514003222440AC
:1042F00049D74640FC893240DBA32740F8A52A4035
:104300004986374097C9E43FD6E5D03F6FB80540AE
:104310008AC9833F57D1533F1E158F3F62BAC03EB3
:104320002F308B3E1D3ED93E5B0CE63EDBA6383D72
:104330007DE7273E64042C3F6935043EE0F7AF3E3D
:10434000DEB02D3DEECF8D3E6F4B603F5B228B3F4D
:10435000A19E423F7AE19A3F7FFB943F525F223F0A
:10436000C362103FBCCEB23F618E923F90695D3F09
:104370000AA2A83F8F6C9C3FF81CB03F10E7453F56
:104380009659283F789C023F4F91E33D5EA2823EC2
:104390005C3E363F17D5E2BD8CF23C3E7977CCBE11
:1043A000A60D9F3EBB62BE3EC79EA5BEE1F1CDBE3F
:1043B000598B9F3EFC50813E8E1F7A3E9563323D65
:1043C00067B5503E67279B3E6211733E170E403F14
:1043D00032712B3E8714533E9C6B303F828C443F9E
:1043E000B1A2CE3EC004C63E38DC873E1AFB123F67
:1043F0000C59093F16FC96BD2A36E63C31EC90BDBF
:1044000005F919BFC45B07BE4AB359BE95D65FBF55
:104410003AE836BF6AA441BF3F35C2BFD49995BFC1
:10442000514EECBFD8110CC01D1F11C06823DFBF57
:1044300063B6C4BFE8DDC6BF9817F2BF206297BF5E
:10444000A94BBABF396477BFF03065BF9FAD33BFAA
:104450001D5AE4BD54C7923E3CF643BEC9C63FBF99
:10446000BDFB07BFF985D13FE012FE3FB14E09BF4A
:10447000F4DC06BFA6B8323F8E5A4D3FAB3DCABFF3
:1044800012A347BF745D92BF520BED3EEF8EA43F67
:10449000E869C0BE80991B3F5ED93DBFFDC0E5BE47
:1044A0004E9DA33F7A394C3E1C7B0E3FAA63613F71
:1044B000882C88BFD0B9573F22A541BFA73F7B3F7B
:1044C000F794643F0187AC3FA25EE03E598A443FC7
:1044D0008EE5DDBE3DF3BCBFDE9002BFA27D303F66
:1044E0000552EABE0876FC3DB073893F9756C93F36
:1044F00078EE9DBDC6F854BF7F8835BF5B26F13F7F
:104500001D8EECBFEC12553EEB8EA5BE10B3B7BDB1
:10451000BD8BE3BF9BACBBBF79B1CA3F8D9BE0BFF6
:10452000070CC23F4C4FA0BECCB578BE5D4FBCBEA1
:1045300050526CBFDAAB333FE04AAEBE809DC33E03
:10454000F0F9753FA373AE3E4C6FFFBC5F79A63F99
:104550005AA196BFA1F479BFD8103CBE7D59ECBFDB
:1045600062BB173FFB2215BFE7A9AEBE5A9F12BF21
:10457000ED62FE3FE2B11BBFA2EE83BCEA94FFBE38
:104580006286263E7C983D3D98F73C3F7A5298BF24
:10459000A27CB1BE7578E8BF8C49873E630C703F42
:1045A0007522D13EDF5256BF2A73033F16C107BFA3
:1045B000C6A324BECEFEF83E9B90D0BFB40164BF1C
:1045C0002383E4BEC7DA873ED81167BE53E721BE16
:1045D000BF45F7BEBE4CEA3FB20DA43EFE6478BFB5
:1045E0009A24D63EA8AC08C07D48A7419EBA8E4109
:1045F00062C7A4415D929241AE409E419C7E95412E
:1046000024D2A141529E9A411D719C4141D1AD419C
:1046100076E9974199CAA641B5DD99419DCB9C4168
:104620000D29AA4162D3A341CB8AA341DE3BA94114
:104630008E4B9B41BFAA9E41D444CDBF6422E3BFB1
:10464000499F8ABF0A9E70C09C153AC0F5B850C0F9
:1046500097FD62C062BAB4BF04551CC0789A43C0CB
:10466000B4CA0CC02C456FC07B4A4EC06003D8BF93
:10467000D8BA6EC04910FEBEE52654C0728603C08B
:1046800013642EC0ECDF0AC00745CBBF9ED146BFE6
:10469000CEE348BFA1471BC0807D0BC095B8E0BFEB
:1046A0008258AEBEDFDD8CBFCEE368C0EDF12EC018
:1046B00001FB7740A5E88140A9ECB6402DFA904077
:1046C0005133D340D0D3B0402C47AA40650CE340CF
:1046D0001284934053CDAB408D97B340FF6A8B401B
:1046E000D9F9A54024426540F312C14075BEDC40B3
:1046F00014DBA940FEF133404835DC40BA136E406C
:10470000BDC26E408B6E8440EF639740CD22674000
:10471000A1C800411D2E8240534EBC403EE9B54029
:10472000A7E884409F8E82406ED2D5401A33B740AE
:10473000B6857940240A9740AE639C406468B440D3
:104740005B43BF400318C040E333BF401087A9401C
:104750007ED7D540CB138540799EE240AABBB540B9
:1047600002ADCE4053EB9840303D8740363CB140DF
:104770003840AF4068AEAF402D96A64078C4B540F3
:10478000E7FFAF40225F87407385684026ACAE40AC
:10479000E883A54064DBAF4042086140664E8B4031
:1047A0004965A6401E09CB405C577340E231A440E6
:1047B000CF04A740E823A940710F86404ADD854019
:1047C000E0728E40D532A2406F92AF400E2FE24091
:1047D000FFB25940BDB7BF407662C1404CC69C4055
:1047E00008AC814090E89440553D95406580B240CA
:1047F000383098C0341489C0288FA2C035418DC08C
:10480000301FA3C01B474DC0418EB6C09C8B88C0D3
:10481000DBA52FC0F899B2C08EBD9DC0AE6287C027
:10482000A81B9DC0B17881C0EC8596C04D8268C040
:1048300089EBA6C0E64DD7C0D5BD86C0BA86ABC051
:10484000DB7D9EC0BECD8BC0BC11DEC0307FABC057
:1048500055338DC0FDFAE8C060BDC3C0A720BAC003
:10486000CC87AFC02AB88AC0767EF54041FB0D41A7
:104870006A201A41098517412904114161E618414E
:10488000943529419802124173022A41EFCB2C4101
:10489000534C08412BB80941F4B7194196F903412B
:1048A0003807EB40085914418CF71641C4271341CF
:1048B000A39B00418CB90941317C204136E1124172
:1048C0005FE80C41A8D0064169300A41D279104115
:1048D000A3DD144131C404414511004187B31041A7
:1048E000D19B1241FB8B1041E125064161E1EA4079
:1048F0009E400D411FDA1D41C9F82C416444184106
:104900008E601541AE6717417EBA11412100034107
:104910003D3F0641B544FB4019AB0D41C3F1124187
:10492000E8721D41567609416BA90041A33A154131
:104930003909F240FB9FFE40D9A1EC40C8F110417B
:10494000C33B15417AB9FF403C430C41DB5D1A4142
:10495000FDB81341EA8C0B41BB0211413C450D41AE
:1049600032F3F640411C1841816A1C415F0C14412E
:10497000A89F1541BA521641897A154169BA084172
:10498000066816419CEC1741BA07264154E5E940F8
:1049900089FAEE40617D1A41F51F2241210F154130
:1049A00055AEF940B3D706411038204129B723410D
:1049B000C1521B418EE5F040C53D1741CED1E140CB
:1049C000889E134174130E410F231C4137F40D418F
:1049D000E8DAFE4034300B41A5090E410B1AF040D5
:1049E00026ED1441D1E201417FD52141E8C71741AD
:1049F000F90108413553FC40692CEA40534F1E41F0
:104A0000E5112541AC441441C98F0641E39E17418D
:104A100050DC1041BB5F1441F39C2B41E6BF0C41BD
:104A20007DE011418C6AFA40FF710441817120419F
:104A30006E350741B6F4E440B8001941F538194124
:104A40005F4A1841853C1D41654D0541C6B9154178
:104A500091F50B414E01174114FE014139451441B6
:104A60007FAF0C41DB122F41291D0E4155BD164170
:104A7000835B1741DAF807411FF222414B8616414A
:104A80008472204136290541EC0E034108AE1841DD
:104A900007F51A41D5DD19417E3641C02E567BC03F
:104AA000477783C0CE8DA1C0CF157AC044DC5BC0F0
:104AB00059BF2FC01F4997C0CC2461C02F6C50C074
:104AC00025CC39C0E43C84C0DF95A2C0DE648DC033
:104AD000294E99C0219080C05080B4C0931B95C0CE
:104AE0001EEB92C09ACC4EC0A45541C0B4745EC0B7
:104AF000F40895C0BCA392C0EBD2B6C00E4D2BC03B
:104B00004D04BBC003ED4AC01698A4C0E99B7CC00D
:104B1000C96887C014984DC0628426C0CE2A88C058
:104B20009FE32AC06DC8ADC0EB1AABC0076056C08A
:104B30009A265DC0BB4576C0687AAD3F0378714068
:104B40008C11874058C64940A511354003B5FA3F3E
:104B5000996532403B2B81407095454037543F402A
:104B6000481A644091ED0E406E192740E690E03FF0
:104B7000B16EB43F263A294000027840D465254002
:104B800099F478401F310A401E153940F5831040D2
:104B90005FEE5C40EE5C64405D531D40F2250940D1
:104BA000E5B9DE3DCC25C33F5F797740D577A0409E
:104BB000CF4E5A40276A42406C406240BAC0AB3F79
:104BC000E1D2814063B54B40FA430A40E63F4040A2
:104BD000C02644406C7B4640C6147D403CFA4740AA
:104BE000868F47400B468E4064B03A3FA836594006
:104BF0008542C83FA1654E40850A924002BBA63F50
:104C00005D1A4740B27F0E40D53F7540BC3B5440D3
:104C100027BDE53F492F67403B377340C13603400E
:104C200014751A403ECE8C404A9B29405A2A79403E
:104C300047E88F40E7FD7B40E3ED8C40AE4A2340E0
:104C4000B11A794040A290405018854062109A40B5
:104C50006D38A63F224F734034134C406C5B4F407D
:104C6000A13C854049B9404086E367401C96074017
:104C70003C694B402DB464407BA04240F625234064
:104C8000DEAC7F40E6AF92409CDF5D403942E83FBA
:104C900067B84140CE8E39405472EE3EFBB02D4095
:104CA000546F684040346D40A2297B3F588C2E40A1
:104CB000486F7440577C174047CA6B40CC5FFB3F3E
:104CC0003EB37C4094178D402B1374405B98344066
:104CD000191B3D4006111740D4F22340DFE0674026
:104CE000BF4345406EA449402F6F77402D3F65403C
:104CF000D9B34E409F1E7F405839444022FBDA3FD3
:104D000092223A402CFF9B40B15231408D62E93FE4
:104D1000E2574C40096E2340B1FD75400B7D864043
:104D2000C85E3A4076527F40266D2A40D89E1F408A
:104D30009ECFC63F33E122409F3C8D4070EC5140F6
:104D4000FC381640BC3C1940828E2140DAC57740C1
:104D5000A1DA404053034C404A994A409DD738401D
:104D6000C0CCAD3FE2AB8B40EE08B53F8F33BD3ECC
:104D7000755B234052616E406EF83D40E1252F4047
:104D80008718364085EE58403C69594046087240C5
:104D9000AF930F407767034091D27440A2082C4034
:104DA000AC1E134095D7EC3F4354FB3F8EAD2740DC
:104DB0002C6164406893F33FA3CB90404AA78F4097
:104DC00024DE8740D5B0464094BC244040A18140B9
:104DD0000A6841404E0D5240E51D82404DA29C3F65
:104DE0004214854087511F4076C0A33FF4C42E4033
:104DF0004F060540D6FF074061A602406F6467403A
:104E000083501040F1641B40643F4940B56FD03F70
:104E10009DD978409B3CB53EE2202740EA77194077
:104E200074796D40130A5A40CB146640D0B31F40CA
:104E3000AF5F9B40CC992140B4384040E08513409F
:104E400072CE88402BDE0240AED7C83F8E042C4085
:104E5000C1D4A140F7E82E4093E40F40C9AF4040D1
:104E6000B96F4E408F352D40BDE25E40A3ADBA3FD5
:104E7000F19DC83F30480EBFAA2B45408E2C8E4076
:104E80004B3D4F40A9DA4740F0197640EE242A40C6
:104E90009F1C1940875151404B726E4016ED814066
:104EA0007C64F13F4CA8304025E42141DCE73C41E3
:104EB00009CF334131D64641283E474125994F41DC
:104EC00016645541F5AA5741560D20417F94404143
:104ED00061822B4156C24B41644A3641C3BF3541C2
:104EE000E0D43641215A3141731C3A411068514196
:104EF00014264C41FAAD4141C3D83B41C8370E415D
:104F00005BF6354196A14541409646417CD34441EC
:104F1000CBE42E4197763E41B26534414D3C53413E
:104F2000B7485641742E4E41E4D53D41A93F4A4110
:104F300026DD3141C66C5641B85C4C419DD33941A8
:104F40001D1C4A4148DD3E415EAD49413ADB3441DA
:104F50006DEB43416B1835419E972A415806354108
:104F60009B373841F7224C41D8DC2E4124064A4178
:104F7000DB4E31416BE75041C1614141BAAF3D4128
:104F80006DC02C41A7BA2D4142773C41595554413F
:104F9000EEEE4041ABD02F41D1404E41F4533E4163
:104FA00002E74D41B11D37411F084341A980294106
:104FB0001BC432415F254B41688748411129534149
:104FC0003519484105E0424163AC4B41ACC64C4108
:104FD0007213524146515941FF194C4163883D417A
:104FE000A7C22A4173663541B8DD3241B6FC36416D
:104FF000E67057414C4E31414FB24A41334028414F
:10500000922C3B41D1AA3E41EDFF3641F63650414C
:1050100014AC3A4133D15341AE563541E8FF2C41EF
:1050200061B649418B4F5E41E76955419734514123
:10503000F3614A4131F15A4145F3CB402BEA9540A7
:10504000A097A44075BD83401B1B9B407F5BB9406C
:10505000DE0DAD4076FB7E405114C840A827C0400D
:105060005A9CC5406821AA405916BF403E6AB040CC
:10507000B6A0B140EFFE9D405D349440E99B68408E
:1050800059159C4037418B407528C2418520C54148
:10509000A34FCB417009BD414873C9419F6FC541C2
:1050A000EE27BA413E70B4416527CF41D17CC4415F
:1050B000354CCD41F334CA41CB96C3417690CE41B5
:1050C0009D8CCE414047C941F2F2CF41DC0ACB4131
:1050D00041EBCD4158BFBE413A99D041E20FBA41B0
:1050E000E716C4415EE4CC410852C4412CBACB411E
:1050F0008588CC4198EEC2412B42CE41C021CA41A5
:105100004362E140BDBAFD407638DA401A87BF40BD
:105110007976F3404899F74085B0C6407B4907410E
:10512000272EBC407E64C440C329F14009A99A409F
:10513000E37FB5409DABD340D9D70241B733064199
:105140008F63C5400F70CA406F29EC40D3DBFE402F
:10515000161D194147CAEA40E2D9F940335CD240F2
:10516000F25BC0401B3CE440DC75E840A13FC64018
:105170000AC602411DB8064199E3EC40EC11064114
:105180009AFACE40D305B540C2BFB640DA03ED402F
:10519000EEEDD4400045EE40574A0141B751F14091
:1051A000385BF340E6B1A940A531CF40A4D5D84043
:1051B00018B90841280BE64035A6AD400E4D0A410E
:1051C00034D9EF401381E040BE89D040B85F03413D
:1051D00063FBC4401D111341642EDA4025EAC04030
:1051E00070B3B440D9FBD5402E8DE140D5CBD34030
:1051F000BF37C940B529F2407643C74028D7E840B9
:105200005480D740274EF440F31DAE409DB8FE4079
:10521000B606BF40FFC2C4407C330041609A0B41D8
:105220009686D24043C6E6404DACB940E876AC40E5
:1052300024CA0241F7F8F740B8E4DE400270CF40DC
:10524000A13FB840862CCE4017EB07416353D840AE
:10525000EF39F2408105E3404E42B540983DA94008
:1052600028D000414520E740388E1D412435DB40E1
:10527000DAD5F4407DB3E440CA43CB4065DFC54096
:1052800036CEBF40083300414623CE40ADFCC0407F
:10529000B467DA408F56CA40725EDC407E3AA44062
:1052A00050BAB940A6F2E1400344C7404A5ECB4041
:1052B00051930D411484044110DAD8401C78B94050
:1052C00071D9C1400B6D1341ADCFDB408394E840F1
:1052D0003BEEE040E7150241335EC7406B53C840E8
:1052E000D4C5A6408E1FAF40809FE840F930DD4016
:1052F000669FF8401495CF40BD9BEE403AFAF740C8
:10530000C7D30E41843CDD40CE1BDA40C8D2E24018
:10531000E75FE2400388DA401B000E4163D103419E
:105320006465CF40C87BFA405BE703410C22C24072
:10533000D8ADBD4067F2D4408C5CE74005D3E34074
:105340002CAEDC408E48E640317CC14016DDC340C7
:105350008D19EB4039A6D9408EB2D240FF2EA9401C
:10536000CAB7E640582CEC40176FB3401591D940AE
:10537000C72ADF4067F2F940D74DC840D280CB4002
:105380009CE9C540CF05A7402C11E240A2FFE940AF
:105390006748C640B876C1400E3EBA40A4ABD9407B
:1053A000E30C0141FA7F85409B7497408D9E00413C
:1053B0005602C940F3F2DD400DDA0241585F084160
:1053C000E2F7E040BB09F540B109E6403725EF4080
:1053D0008A2BD440C5CAAF409C32F240B403F4409B
:1053E000B01CD340DECBCD400A77B1402DD2CE40A9
:1053F00081D9CC4004F0D3405D600A41834FEB403B
:105400009C1AD3405587E940165DE9407F9F0241D1
:105410007AB8FB40D6D4FF406A3EE540C7ABEB40CC
:10542000B2FC0041A8D7E2406212AE40D377E5401B
:10543000F2DDC140A498DD40D391D0404FDCC9409B
:10544000E020024106B9D34004FEDF40DD51E240D6
:10545000643FB240D9AF02413CF643BEC9C63FBF2C
:10546000BDFB07BFF985D13FE012FE3FB14E09BF3A
:10547000F4DC06BFA6B8323F8E5A4D3FAB3DCABFE3
:1054800012A347BF745D92BF520BED3EEF8EA43F57
:10549000E869C0BE80991B3F5ED93DBFFDC0E5BE37
:1054A0004E9DA33F7A394C3E1C7B0E3FAA63613F61
:1054B000882C88BFD0B9573F22A541BFA73F7B3F6B
:1054C000F794643F0187AC3FA25EE03E598A443FB7
:1054D0008EE5DDBE3DF3BCBFDE9002BFA27D303F56
:1054E0000552EABE0876FC3DB073893F9756C93F26
:1054F00078EE9DBDC6F854BF7F8835BF5B26F13F6F
:105500001D8EECBFEC12553EEB8EA5BE10B3B7BDA1
:10551000BD8BE3BF9BACBBBF79B1CA3F8D9BE0BFE6
:10552000070CC23F4C4FA0BECCB578BE5D4FBCBE91
:1055300050526CBFDAAB333FE04AAEBE809DC33EF3
:10554000F0F9753FA373AE3E4C6FFFBC5F79A63F89
:105550005AA196BFA1F479BFD8103CBE7D59ECBFCB
:1055600062BB173FFB2215BFE7A9AEBE5A9F12BF11
:10557000ED62FE3FE2B11BBFA2EE83BCEA94FFBE28
:105580006286263E7C983D3D98F73C3F7A5298BF14
:10559000A27CB1BE7578E8BF8C49873E630C703F32
:1055A0007522D13EDF5256BF2A73033F16C107BF93
:1055B000C6A324BECEFEF83E9B90D0BFB40164BF0C
:1055C0002383E4BEC7DA873ED81167BE53E721BE06
:1055D000BF45F7BEBE4CEA3FB20DA43EFE6478BFA5
:1055E0009A24D63EA8AC08C07D48A7419EBA8E41F9
:1055F00062C7A4415D929241AE409E419C7E95411E
:1056000024D2A141529E9A411D719C4141D1AD418C
:1056100076E9974199CAA641B5DD99419DCB9C4158
:105620000D29AA4162D3A341CB8AA341DE3BA94104
:105630008E4B9B41BFAA9E41D444CDBF6422E3BFA1
:10564000499F8ABF0A9E70C09C153AC0F5B850C0E9
:1056500097FD62C062BAB4BF04551CC0789A43C0BB
:10566000B4CA0CC02C456FC07B4A4EC06003D8BF83
:10567000D8BA6EC04910FEBEE52654C0728603C07B
:1056800013642EC0ECDF0AC00745CBBF9ED146BFD6
:10569000CEE348BFA1471BC0807D0BC095B8E0BFDB
:1056A0008258AEBEDFDD8CBFCEE368C0EDF12EC008
:1056B00001FB7740A5E88140A9ECB6402DFA904067
:1056C0005133D340D0D3B0402C47AA40650CE340BF
:1056D0001284934053CDAB408D97B340FF6A8B400B
:1056E000D9F9A54024426540F312C14075BEDC40A3
:1056F00014DBA940FEF133404835DC40BA136E405C
:10570000BDC26E408B6E8440EF639740CD226740F0
:10571000A1C800411D2E8240534EBC403EE9B54019
:10572000A7E884409F8E82406ED2D5401A33B7409E
:10573000B6857940240A9740AE639C406468B440C3
:105740005B43BF400318C040E333BF401087A9400C
:105750007ED7D540CB138540799EE240AABBB540A9
:1057600002ADCE4053EB9840303D8740363CB140CF
:105770003840AF4068AEAF402D96A64078C4B540E3
:10578000E7FFAF40225F87407385684026ACAE409C
:10579000E883A54064DBAF4042086140664E8B4021
:1057A0004965A6401E09CB405C577340E231A440D6
:1057B000CF04A740E823A940710F86404ADD854009
:1057C000E0728E40D532A2406F92AF400E2FE24081
:1057D000FFB25940BDB7BF407662C1404CC69C4045
:1057E00008AC814090E89440553D95406580B240BA
:1057F000383098C0341489C0288FA2C035418DC07C
:10580000301FA3C01B474DC0418EB6C09C8B88C0C3
:10581000DBA52FC0F899B2C08EBD9DC0AE6287C017
:10582000A81B9DC0B17881C0EC8596C04D8268C030
:1058300089EBA6C0E64DD7C0D5BD86C0BA86ABC041
:10584000DB7D9EC0BECD8BC0BC11DEC0307FABC047
:1058500055338DC0FDFAE8C060BDC3C0A720BAC0F3
:10586000CC87AFC02AB88AC0767EF54041FB0D4197
:105870006A201A41098517412904114161E618413E
:10588000943529419802124173022A41EFCB2C41F1
:10589000534C08412BB80941F4B7194196F903411B
:1058A0003807EB40085914418CF71641C4271341BF
:1058B000A39B00418CB90941317C204136E1124162
:1058C0005FE80C41A8D0064169300A41D279104105
:1058D000A3DD144131C404414511004187B3104197
:1058E000D19B1241FB8B1041E125064161E1EA4069
:1058F0009E400D411FDA1D41C9F82C4164441841F6
:105900008E601541AE6717417EBA114121000341F7
:105910003D3F0641B544FB4019AB0D41C3F1124177
:10592000E8721D41567609416BA90041A33A154121
:105930003909F240FB9FFE40D9A1EC40C8F110416B
:10594000C33B15417AB9FF403C430C41DB5D1A4132
:10595000FDB81341EA8C0B41BB0211413C450D419E
:1059600032F3F640411C1841816A1C415F0C14411E
:10597000A89F1541BA521641897A154169BA084162
:10598000066816419CEC1741BA07264154E5E940E8
:1059900089FAEE40617D1A41F51F2241210F154120
:1059A00055AEF940B3D706411038204129B72341FD
:1059B000C1521B418EE5F040C53D1741CED1E140BB
:1059C000889E134174130E410F231C4137F40D417F
:1059D000E8DAFE4034300B41A5090E410B1AF040C5
:1059E00026ED1441D1E201417FD52141E8C717419D
:1059F000F90108413553FC40692CEA40534F1E41E0
:105A0000E5112541AC441441C98F0641E39E17417D
:105A100050DC1041BB5F1441F39C2B41E6BF0C41AD
:105A20007DE011418C6AFA40FF710441817120418F
:105A30006E350741B6F4E440B8001941F538194114
:105A40005F4A1841853C1D41654D0541C6B9154168
:105A500091F50B414E01174114FE014139451441A6
:105A60007FAF0C41DB122F41291D0E4155BD164160
:105A7000835B1741DAF807411FF222414B8616413A
:105A80008472204136290541EC0E034108AE1841CD
:105A900007F51A41D5DD19417E3641C02E567BC02F
:105AA000477783C0CE8DA1C0CF157AC044DC5BC0E0
:105AB00059BF2FC01F4997C0CC2461C02F6C50C064
:105AC00025CC39C0E43C84C0DF95A2C0DE648DC023
:105AD000294E99C0219080C05080B4C0931B95C0BE
