:020000040800F2
:10000000B8700020C9010008D1010008D301000820
:10001000D5010008D7010008D90100080000000040
:10002000000000000000000000000000DB010008EC
:10003000DD01000800000000DF010008E101000808
:10004000E3010008E3010008E3010008E301000800
:10005000E3010008E3010008E3010008E3010008F0
:10006000E3010008E3010008E3010008E3010008E0
:10007000E3010008E3010008E3010008E3010008D0
:10008000E3010008E3010008E3010008E3010008C0
:10009000E3010008E3010008E3010008E3010008B0
:1000A000E3010008E3010008E3010008E3010008A0
:1000B000E3010008E3010008E3010008E301000890
:1000C000E3010008E3010008E3010008E301000880
:1000D000E3010008E3010008E3010008E301000870
:1000E000E3010008E3010008E3010008E301000860
:1000F000E3010008E3010008E3010008E301000850
:10010000E3010008E3010008E3010008E30100083F
:10011000E3010008E3010008E3010008E30100082F
:10012000E3010008E3010008E3010008E30100081F
:1001300000F002F800F039F80AA090E8000C8244C0
:100140008344AAF10107DA4501D100F02EF8AFF29D
:10015000090EBAE80F0013F0010F18BFFB1A43F0A5
:10016000010318479CBF0300ACBF03000023002419
:1001700000250026103A28BF78C1FBD8520728BFB7
:1001800030C148BF0B607047662906F0A685002085
:1001900070471FB500F0FCFA04000020002105F0B4
:1001A00053FEE0601FBD10B510BD00F011FC1146FC
:1001B000FFF7EFFF03F07AFD00F02FFC03B4FFF729
:1001C000F2FF03BC00F0EAFF0948804709480047F6
:1001D000FEE7FEE7FEE7FEE7FEE7FEE7FEE7FEE7F7
:1001E000FEE7FEE704480549054A064B7047000054
:1001F000850F000831010008B8300020B8700020D9
:10020000B8500020B8500020704700000FB40449D7
:1002100010B503AA029800F0A9FA10BC5DF814FB0F
:10022000600000202DE9F0474FF0000A894604469F
:10023000C0F820A02046E1688847002876D025280D
:1002400006D0D4E901219047206A401C2062F1E7E2
:10025000E168204600258847C4F81CA00646002710
:10026000C4F818A02A2E09D0304605F097FD38B3FF
:1002700004EB8708303EC8F8186019E059F8041BF1
:10028000204604EB87029161E1688847012F06460A
:1002900018D1E069002820DA25F020051DE0D8F803
:1002A000180000EB800006EB40003038C8F818005A
:1002B0002046E1688847064605F070FD0028EED12B
:1002C000012F0AD02E2E08D12046E16888477F1CD6
:1002D0000646022F45F02005C4DBA069002803DA9A
:1002E000404245F00105A061E80701D025F0100566
:1002F000B6B1A6F14100192802D8203645F40065B0
:100300004A463146204625604D46FFF73DFF58B12D
:10031000012806D0ED1D25F0070000F1080989E746
:1003200004E005F1040985E730468AE7206ABDE864
:10033000F087704770477047704710B500F02CFA8F
:10034000006810BD10B5044600F026FA046010BD28
:100350002DE9FF4F0C461E464FF0FF378BB0D2E918
:100360000001DDF860800A908A46C1F30A5505B99C
:100370003D46002108464FF00000BAF1000F00F49E
:10038000400005DA00EB80004FF4400101EA500024
:100390004FEA9059B9F1010F00DDB9460A9850EAC9
:1003A0004A000ED044F61050A5F2FF3545432F14F5
:1003B000B8F1000F1ED07542291E1EDDC9F10002E2
:1003C0001CE0B8F1010F4FF0000001D0302103E034
:1003D000F24305E02154401CB042FBDB30460022D2
:1003E000002121540B99C1F80880C1E900200FB009
:1003F000BDE8F08FBD1B6D1CDEE74A4600DA69429E
:1004000006A800F06BFA06AB93E8070003AB83E89D
:10041000070050460A9904F0C5FD8DE80700A0F5D5
:1004200000501F3800900398002D0ADD42F21F0192
:100430004A460844002303A90390684605F02EF8B5
:1004400009E0A0F500504A461F38002303A9039095
:10045000684605F038F88DE807000004000C03D06A
:100460004FF0FF30410800E01046B8F1000F03D014
:100470000022009215461EE0751E05D400F090F98A
:10048000303262556D1EF9D5B3460122084302D0C1
:1004900000227F1C04E02078302801D100227F1E3A
:1004A000002A099784D01DE0112D07DA00F078F9B1
:1004B000303262556D1C50EA0102F5D1084302D07A
:1004C0000098C8B10EE00021681E05E0235C625C64
:1004D00063542254401E491C8142F7DBAB46A81BE3
:1004E000401E0990002004F80B000B98099AC0F8F0
:1004F0000880C0E9002B7AE711264FF0000857E783
:100500002DE9F04F88460446D21D22F0070191B034
:10051000D1E90001CDE90A0105F00CF902460B987A
:10052000C00F01D02D2007E02068810701D52B20C6
:1005300002E0202101EAC000032A099001D0072A25
:1005400005DB03464146204600F088F90BE12078A0
:10055000800601D5E06900E00620B8F1650F81460C
:1005600006D0B8F1660F18D0B8F1670F70D131E03E
:100570000020B9F1110F009001DB112301E009F116
:1005800001030AAA01A90CA8FFF7E2FEDDE90C703D
:10059000002609F10105834647E001204B46009003
:1005A0004FF000470AAA01A90CA8FFF7D1FEDDE928
:1005B0000DB00C995D46002610B909F101000D1827
:1005C000B9EB050003D4C0F1FF3609F10105A5EB35
:1005D00009002BE0B9F1010F01DA4FF00109002009
:1005E000B9F1110F0090484601DD112300E00346E8
:1005F0000AAA01A90CA8FFF7ABFEDDE90C704D4675
:1006000000268346207800070AD4AB4500DA5D4611
:1006100001A8012D04DD411911F8011C302907D072
:100620004F4502DA17F1040F04DA012082460FE089
:100630006D1EEEE7002F02DCED1B3E4403E0781C4C
:10064000A84200DD7D1CB81B00F1010A4FF00047F5
:100650002078000703D4AA4501DB4FF0FF3A0021C0
:10066000B7F1004F0DF143088DF8431024D002205C
:100670002B23002F01DA7F422D230A21021EA0F135
:10068000010000DC5FB197FBF1FC97FBF1F201FB8D
:100690001C7C17460CF1300C08F801CDEEE7A8F1F0
:1006A000010003702188090501D5452100E065217D
:1006B000A0F1010800F8011C09980FA9A1EB080797
:1006C000FF1D00B10120411901EBEA70A169384416
:1006D000081A401EA0612078C00602D42046AFF35D
:1006E0000080099828B1D4E901219047206A401C74
:1006F00020622078C00622D52046AFF300801EE09D
:10070000002E04DBB34502DD01A8805D00E030204F
:10071000D4E901219047206A401C2062761CAAF18E
:1007200001005FEA000A0AD100F032F8C0680168EF
:10073000405CD4E901219047206A401C2062281EB9
:10074000A5F10105DCDC07E0D4E9012118F8010B73
:100750009047206A401C2062381EA7F10107F3DC95
:100760002046AFF30080032011B041E6074B70B57F
:100770000D467B4400F05FF80446284600F020F95F
:1007800010B14FF0FF3070BD204670BDEB3400005B
:1007900000487047200000200048704700000020FB
:1007A00030B5B0F10A0271F100034FEA900E4EEA43
:1007B000817EB0EB0E0061EB91014FEA101E4EEA14
:1007C000017E10EB0E0041EB11114FEA102E4EEAA4
:1007D000016E10EB0E0041EB11214FEA104E4EEA74
:1007E000014E10EB0E0041EB1141401841F10001A8
:1007F0004FEAD00040EA41704FEAD1014FEA81044C
:1008000044EA907410EB800544EB01046D1944EB4D
:100810000404521BA3414FF0000348BF0A3200D525
:1008200030BD401C41F1000130BD000001694A1C8F
:1008300002610878704700B58FB0CDE90131002121
:10084000059105497944CDE9031011466846FFF743
:10085000E9FC0FB000BD0000E5FFFFFF2DE9F0410E
:100860001F46044603260168072A01F4006004DBE2
:1008700008B116A505E016A503E008B115A500E02E
:1008800015A521F010002060A069C01EA0610FB165
:10089000401EA0612046AFF300804FB1D4E9012192
:1008A00038469047206A401C2062C01C206206E047
:1008B000206AFAE7D4E9012115F8010B9047761E6A
:1008C000F8D22046AFF30080BDE8F0814E414E00E3
:1008D0006E616E00494E4600696E66002DE9F04774
:1008E000814616468AB0354878440DC88DE80D001B
:1008F00032487844801C03AC0DC884E80D0041F6F2
:100900009B300844372190FBF1F290FBF1F5A5F103
:10091000800501FB12041B3C02D56442012000E06B
:100920000020DFF898A080460027FA44AAF1BE0A0A
:100930000EE0E0070AD03246684607EB4701012384
:100940000AEB810104F0BFFD8DE8070064107F1CF5
:10095000002CEED1194F7F44AE3F19E0E80715D0C7
:1009600007EB04100DF1180A90E80E008AE80E005B
:10097000C068F04201D1981908903246012306A9B7
:1009800003A804F0A0FD03AB83E807006D10641C0E
:10099000002DE3D14FF0010332466946B8F1000F54
:1009A00003A802D004F07AFD01E004F08CFDC9E94F
:1009B0000001C9F808200AB0BDE8F0878866000089
:1009C000007B00F080007047004870470000002066
:1009D0007546FFF7F9FFAE4605006946534620F01D
:1009E0000700854618B020B5FFF7FCFBBDE82040A6
:1009F0004FF000064FF000074FF000084FF0000BDB
:100A0000AC46ACE8C009ACE8C009ACE8C009ACE849
:100A1000C00921F007018D46704710B50446AFF3B9
:100A200000802046BDE81040FFF7C8BB4FF0013CF6
:100A300050F8042B51F8043B9A4221D1A2EB0C034D
:100A4000934313EACC1317D150F8042B51F8043B0D
:100A50009A4215D1A2EB0C03934313EACC130BD1AA
:100A600050F8042B51F8043B9A4209D1A2EB0C0335
:100A7000934313EACC13DBD04FF00000704700BF64
:100A8000D01A01BAB1FA81F101F0180122FA01F08D
:100A9000CB40DBB2C0B2C01AC1F120012CFA01F385
:100AA000D11A914311EAC311E6D17047B0B5CB78A2
:100AB00003F00F0CDA0644BF8A784CEA020C09886E
:100AC0005FEA016E00F0F0800268282B16D0482BF8
:100AD0002ED1CC075ED18C0764D44C076AD40C07A6
:100AE00070D4CC0677D48C0600F17E804C0600F1E1
:100AF0008480BEF1000F00F18980D4E0CC0740F083
:100B00008D808C0700F193804C0700F199800C07D1
:100B100000F19F80CC0600F1A5808C0600F1AB802F
:100B20004C0600F1B180BEF1000F00F1B680BAE0D2
:100B300022F00F04CD0718BF44EA0C0222F0F004A3
:100B40008D0748BF44EA0C1222F470644D0748BF79
:100B500044EA0C2222F470440D0748BF44EA0C32E8
:100B600022F47024CD0648BF44EA0C4222F47004FB
:100B70008D0648BF44EA0C5222F070644D0648BF0F
:100B800044EA0C62BEF1000F44BF22F0704242EA18
:100B90000C7288E022F00F0242EA0C020124046188
:100BA0008C079AD522F0F00242EA0C12022404616A
:100BB0004C0794D522F4706242EA0C2204240461AA
:100BC0000C078ED522F4704242EA0C3208240461EC
:100BD000CC067FF588AF22F4702242EA0C42102442
:100BE00004618C067FF582AF22F4700242EA0C5257
:100BF000202404614C067FF57CAF22F0706242EA4B
:100C00000C6240240461BEF1000F4CD522F070420A
:100C1000802542EA0C72056145E000BF22F00F0218
:100C200042EA0C02012444618C077FF56DAF22F08B
:100C3000F00242EA0C12022444614C077FF567AFD0
:100C400022F4706242EA0C22042444610C077FF50E
:100C500061AF22F4704242EA0C3208244461CC06AF
:100C60007FF55BAF22F4702242EA0C42102444610B
:100C70008C067FF555AF22F4700242EA0C52202414
:100C800044614C067FF54FAF22F0706242EA0C627D
:100C900040244461BEF1000F05D522F0704280254A
:100CA00042EA0C7245610260B1F5807F38BFB0BD89
:100CB0004268282B16D0482B2CD1CB055CD48B0551
:100CC00063D44B056AD40B0571D4CB0479D48B045F
:100CD00000F181804B0400F18880090400F18F80CD
:100CE0004260B0BDCB0500F193808B0500F19A8086
:100CF0004B0500F1A1800B0500F1A880CB0400F1A9
:100D0000AF808B0400F1B6804B0400F1BD80090474
:100D1000E6D5C3E022F00F03CD0548BF43EA0C023D
:100D200022F0F0038D0548BF43EA0C1222F47063F1
:100D30004D0548BF43EA0C2222F470430D0548BF1D
:100D400043EA0C3222F47023CD0448BF43EA0C423C
:100D500022F470038D0448BF43EA0C5222F0706302
:100D60004D0448BF43EA0C62090444BF22F07041BD
:100D700041EA0C724260B0BD22F00F0242EA0C025E
:100D80004FF4807303618B059BD522F0F00242EA99
:100D90000C124FF4007303614B0594D522F470627A
:100DA00042EA0C224FF4806303610B058DD522F4D7
:100DB000704242EA0C324FF400630361CB047FF5CA
:100DC00086AF22F4702242EA0C424FF48053036152
:100DD0008B047FF57FAF22F4700242EA0C524FF48D
:100DE000005303614B047FF578AF22F0706242EA52
:100DF0000C624FF48043036109047FF571AF22F068
:100E0000704141EA0C724FF4004101614260B0BD93
:100E100022F00F0242EA0C024FF4807343618B050B
:100E20007FF566AF22F0F00242EA0C124FF4007335
:100E300043614B057FF55FAF22F4706242EA0C22FA
:100E40004FF4806343610B057FF558AF22F4704285
:100E500042EA0C324FF400634361CB047FF551AF9B
:100E600022F4702242EA0C424FF4805343618B0417
:100E70007FF54AAF22F4700242EA0C524FF400535D
:100E800043614B047FF543AF22F0706242EA0C628B
:100E90004FF48043436109047FF522AF22F0704193
:100EA00041EA0C724FF4004141614260B0BD000064
:100EB000002941F21C01C4F202010A680CBF22EAB7
:100EC0000000104308607047002941F21801C4F285
:100ED00002010A680CBF22EA000010430860704754
:100EE00010B541F20404C4F20204226802F00C02BC
:100EF000082A41F20022C0F27A021DD12368D4F8F8
:100F000000C0C3F3834E5FEACC330EF1020C07D46A
:100F100040F60012C0F23D020CFB02F20CE000BFF2
:100F200023689B0302D40CFB02F205E040F600129A
:100F3000C0F23D020CFB02F20260236846F690719B
:100F4000C3F30313C0F60001CB5CDA4042602368B0
:100F5000C3F30223CB5C22FA03F383602368C3F359
:100F6000C223C95C46F68C7322FA01F1C160226883
:100F7000C0F60003C2F381329A5CB1FBF2F1016169
:100F800010BD000082B041F20400C4F2020050F82B
:100F9000041C002241F0010140F8041C0168CFF656
:100FA000FF021140016050F8041C4FF6FF72CFF6AB
:100FB000F662114040F8041C50F8041C21F4802112
:100FC00040F8041C016821F4FE0101604FF41F0188
:100FD000416000210191009150F8041C41F48031DE
:100FE00040F8041C50F8041C01F4003100910199F0
:100FF00001310191009919B90199B1F5A06FF1D1B1
:1010000050F8041C890354BF00210121009100996C
:10101000012953D142F20001C4F202010A6842F0F0
:1010200010020A600A6822F007020A600A6842F0A9
:1010300002020A600168016001680160016841F410
:1010400080610160016821F47C110160016841F454
:10105000E811016050F8041C41F0807140F8041C54
:1010600050F8041C89015FBF50F8041C5FEA81112D
:1010700050F8041C5FEA811103D450F8041C890164
:10108000EED5016821F003010160016841F0020121
:10109000016000BF016801F00C0108290ED0016851
:1010A00001F00C01082909D0016801F00C010829A0
:1010B00004D0016801F00C010829EBD14EF608506C
:1010C000CEF200004FF00061016002B070470000F6
:1010D0008289002918BF012122F4005242EA4131DD
:1010E0008181704770B586B00446008A0D46C98874
:1010F00020F4405008432082A0894EF6F3110840A6
:10110000A9882A896B89084310431843A081A08AC3
:10111000A98920F44070084301AEA0823046FFF751
:10112000DFFE43F6000106F10800C4F201018C4223
:1011300008BF06F10C0000681922B4F90C105043E6
:101140002A680123B1F1FF3FC8BF022302FA03F16D
:10115000B0FBF1F048F21F51C5F2EB11A0FB0123E7
:101160005A096FF0630302FB0300B4F90C30032645
:10117000B3F1FF3FC8BF042600FA06F000F13200C9
:10118000A0FB01014FF00700C8BF0F2000EA51107B
:1011900040EA0210208106B070BD000070470000D8
:1011A0002DE9F04F81B0B0F800B0994690468246E4
:1011B000012A0C4635D1BBF1000F32D0ABF1010151
:1011C000201D03290BF0030C16D32BF0030252420F
:1011D000036801698668876983F0004381F00041F4
:1011E000036086F00043016187F000418360816104
:1011F000043200F12000EBD1BCF1000F11D00168E6
:10120000BCF1010F81F0004101600AD08168BCF19E
:10121000020F81F00041816003D0016981F000413B
:101220000161BBF1FF0F0DDDBBF5806F14DBBBF57A
:10123000805F2FD0BBF5006F16D0BBF5806F21D03B
:1012400024E000BFBBF13F0F16DCBBF1100F19D03B
:10125000BBF1200F08D019E0BBF5807F04D0BBF5AF
:10126000007F17D012E000BF5046214600F022FE5A
:10127000B9F1000F19D1C9E0BBF1400F0AD0BBF1A1
:10128000800F03D15046214600F098FCB9F1000FC1
:101290000BD1BBE0DAF8042020465946012301F0C7
:1012A000CFFBB9F1000F00F0B180BAF80C100029A3
:1012B00000F0AC8001390122DAF808E002EB5102BB
:1012C000062902F0030C03D24FF0000955E000BFDD
:1012D00022F003020EF10E03C2F1000A4FF00009E2
:1012E00033F80C1C33F80E6C21F0030126F00306D2
:1012F0006258A5596718A25165507968A0194268CB
:10130000416033F80A0C33F8081C7A6020F00300BF
:1013100021F0030125586658221867182650655099
:10132000786851685060796033F8060C33F8041C13
:1013300020F0030021F00301255866582218671891
:1013400026506550786851685060796033F8020C17
:1013500033F8101B20F0030021F0030125586658D4
:101360002218671826506550786851681AF1040AE7
:1013700009F1080950607960B2D1BCF1000F45D085
:1013800049F001013EF819003EF8111020F0030069
:1013900021F0030123586558221866182550635020
:1013A00070685168BCF1010F506071602ED009F176
:1013B00002003EF8101040F001003EF8100021F04D
:1013C000030120F003006358255862182618655061
:1013D000235070685168BCF1020F5060716015D0E5
:1013E00009F104003EF8101040F001003EF8100032
:1013F00021F0030120F003006358275862182618D3
:10140000675023507068516850607160B8F1010FE7
:1014100076D1584605F00CFB01464FF07E5005F0A2
:1014200045FABBF1000F6BD08146ABF101000328F8
:101430000BF0030837D32BF003004742D4E9001622
:10144000D4E9025A484605F007FB206086F00041C7
:10145000484605F001FB60604846294605F0FCFA65
:10146000A0608AF00041484605F0F6FA2169E06084
:10147000484605F0F1FA6169206181F00041484673
:1014800005F0EAFAA1696061484605F0E5FAE1690C
:10149000A06181F00041484605F0DEFAE0610437C2
:1014A00004F12004CAD1B8F1000F29D0D4E9001505
:1014B000484605F0D1FA206085F00041484605F025
:1014C000CBFAB8F1010F60601AD0D4E90215484692
:1014D00005F0C2FAA06085F00041484605F0BCFA6C
:1014E000B8F1020FE0600BD0D4E90415484605F0CE
:1014F000B3FA206185F00041484605F0ADFA60611D
:1015000001B0BDE8F08F00002DE9F04F83B00588F1
:1015100098468146012A8A4633D195B3691E0AF15D
:101520000800032905F0030C16D325F003014C42F3
:101530004368416A4669476B83F0004381F000418C
:10154000436086F00043416287F00041436141639C
:10155000043400F14000EBD1BCF1000F11D0416820
:10156000BCF1010F81F0004141600AD04169BCF13A
:10157000020F81F00041416103D0416A81F00041D6
:101580004162FF2D01920DDDB5F5806F12DBB5F5DF
:10159000805F27D0B5F5006F18D0B5F5806F21D0EA
:1015A0001AE000BF3F2D0DDC102D1BD0202D0DD0DB
:1015B00012E000BFB5F5807F14D0B5F5007F05D0EF
:1015C0000AE000BF402D0DD0802D05D1D9F80420B0
:1015D0005046294600F006F9B8F1000F02950CD1EB
:1015E0004EE000BFD9F8042050462946012301F0FF
:1015F00043F8B8F1000F029542D0B9F80CC0BCF125
:10160000000F3DD0D9F8088000224FF0010E0027CE
:1016100042F0010538F8155038F81260AB085AF856
:101620003390B0080AEBC3045AF83010D4F804B071
:101630004AF830900AEBC000D0F80490C0F804B02B
:101640004AF833100EEB9503C4F804900AEBC30478
:101650005AF833500EEB960066685AF830104AF884
:1016600030500AEBC00002324568466047F100077F
:10167000B2EB0C0077F100004AF833106560C7D375
:101680000198029C012840F0AA80204604F074FED4
:101690000B4600210246C3F6F071002004F0CCFC9A
:1016A000002C00F09C808146601E0F46032804F049
:1016B000030850D324F00300464200BF9AE82C00F0
:1016C000DAF80C404846394604F06AFECAE90001DF
:1016D00084F00043484639462A4604F061FEDAE9C0
:1016E0000423CAE902014846394604F059FEDAE902
:1016F0000623CAE9040183F000434846394604F052
:101700004FFEDAE90823CAE906014846394604F0E3
:1017100047FEDAE90A23CAE9080183F00043484694
:10172000394604F03DFEDAE90C23CAE90A014846CD
:10173000394604F035FEDAE90E23CAE90C0183F0DC
:1017400000434846394604F02BFECAE90E01043630
:101750000AF1400AB2D1B8F1000F40D09AE82C004B
:10176000DAF80C404846394604F01AFECAE900018E
:1017700084F00043484639462A4604F011FEB8F189
:10178000010FCAE902012AD00AF110052CCDDAF8BE
:101790001C404846394604F003FECAE9040184F0BF
:1017A0000043484639462A4604F0FAFDB8F1020FD4
:1017B000CAE9060113D00AF120052CCDDAF82C4035
:1017C0004846394604F0ECFDCAE9080184F00043BC
:1017D000484639462A4604F0E3FDCAE90A0103B047
:1017E000BDE8F08F2DE9F04F9DB0154600220E4662
:1017F0000746B2EB510F4FEA510100F0CD810129AC
:10180000CDE901611797049500F0288102984FF007
:10181000000920F001010391179901F110021B92B8
:1018200001EB00100022169055F8090005EB09089D
:101830001C921090D8F804000F90D8F8080012906D
:10184000D8F80C001190179901EB0900199047681E
:10185000169851F8096050F809404844C1681A9038
:10186000D0E9015B0E910169304615913946224657
:101870002B4604F031FBCDE91310304639462246A1
:101880002B4604F097FE0A9082461B980F46484468
:101890001890099150E902450E9E204629465A4665
:1018A000334604F087FECDE90510204629465A4606
:1018B000334604F011FBCDE90D10109EDDF83CB06D
:1018C0003046594652463B4604F06AFDCDE90B10BE
:1018D000129C119D069FDDF814A0204629463A4629
:1018E000534604F05DFDCDE90710304659463A46AF
:1018F000534604F055FD1091DDE909328346204638
:10190000294604F04DFD04460D4617981499DDF85C
:1019100064A040F809101398189ECAF80400DDE985
:101920000D10DDE9073246E90201DDE90B1004F094
:10193000D3FA1A9F169A7960109942F8090058460E
:1019400022462B4604F036FE3A46C2E90201D8F898
:10195000100075681090D8F8140056690F90D8F8E8
:10196000180029461290D8F81C00904611901B9838
:10197000334650F809401C9802301C90159F2046B1
:101980003A4604F0A9FACDE91310204629463A4612
:10199000334604F00FFEDAE90667D8E906458346C8
:1019A0000B9088460A913046394622462B4604F071
:1019B00001FE07908A463046394622462B4604F0FF
:1019C0008BFA15900E91109D0F9F284639465A4666
:1019D000434604F0E5FCCDE90C10DDF848B0119E5B
:1019E000079C584631462246534604F0D9FCCDE9BF
:1019F0000810284639462246534604F0D1FCDDE95A
:101A00000A3280460D465846314604F0C9FC064667
:101A10000F461B9814990E9A40F8091018981399BC
:101A2000416019981599C0E90612DDE90C10DDE94D
:101A3000083204F051FA1A9C3246C4E904014046C7
:101A40002946049D3B4604F0B5FD1C9AC4E90601F5
:101A5000039809F1200990427FF4E6AE019E179F9A
:101A60000299B00740F1988005EB02101301EE587F
:101A7000406803F108041B9310960F9028192E5903
:101A8000406813961290501807EB02111A914E6895
:101A900007EB00110001A34657F803803C584D683E
:101AA0001C91824614904046314622462B4604F053
:101AB00013FACDE915104046314622462B4604F074
:101AC00079FD814607EB0B00CDF838B011904568E1
:101AD0000AF108003A1857F80B403E58D2F804B003
:101AE0001890199288462046294632465B4604F0F3
:101AF00061FD07468A462046294632465B4604F089
:101B0000EBF9CDE90C10109EDDF83CB0304659469B
:101B10004A46434604F044FCCDE90A10139C129D4A
:101B2000204629463A46534604F03AFCCDE90810CF
:101B3000304659463A46179F534604F031FC064654
:101B40008A46204629464A46434604F029FC044674
:101B50000D461B981699DDE9083239501A981599E7
:101B60004160DDE90D10395011980C994160DDE9B3
:101B70000A1004F0B1F9149A2B46B8501C9822466A
:101B800041603046019E5146049D04F013FD189AB1
:101B9000B8501998416002998CB2384621462A46BD
:101BA000022300F069FD07EBC60021462A46022306
:101BB0001DB0BDE8F04F00F05FBD00002DE9F04F13
:101BC0009DB00788049101EB8709426800210090CD
:101BD000B1EBD70F4FEA5700019000F05B810198FD
:101BE000049BF90803EB80063844090103EB8000ED
:101BF0001596039103F1080108304FF0000B029194
:101C00001490CDE9162900BF049E09EB0B0306EBE7
:101C10000B0413941C93DDF80880159808EB0B0552
:101C200014990F9555F804AC58F80B50E4680795D3
:101C3000129459F80B40D3F804909D68DB6807466E
:101C40000594CDF838900695089357F80B3000EBC3
:101C50000B0C1993DCF80430CDF824C00B93DCF89E
:101C6000083001EB0B000D93DCF80C3051F80B1031
:101C7000119350F8083C1A90189350F8043C4068AF
:101C800056F80BE00A930C91109002EB0B001B909E
:101C900070462146774604F0A7FD46F80B005046F3
:101CA000494604F0A1FD0F99079DDDF8189041F811
:101CB000040C2846494604F097FD129E089C48F8FB
:101CC0000B003046214604F08FFD1399C86005993A
:101CD000384604F08DFF0F900E99504604F088FFAF
:101CE0000E902846494604F083FF13903046214663
:101CF00004F07EFF1290DDE9181004F075FD1599CF
:101D0000DDF82C80DDF8289041F80B00404649466C
:101D100004F06AFD099CDDF834A00C9F6060504619
:101D2000394604F061FD119D109EA06028463146A1
:101D300004F05AFDE060DDE9180104F059FF099054
:101D40004846414604F054FF0B903846514604F093
:101D50004FFF19903046294604F04AFF169951F872
:101D60000B701B9918900F9E4D683046394604F051
:101D700073FE11900E9C2946204604F06DFE8146AC
:101D80002046394604F068FE82463046294604F073
:101D900063FE80461198494604F026FD179941F8E4
:101DA0000B005046414604F023FF1C99099C4860F3
:101DB0002046294604F050FE0B9E804630463946A8
:101DC00004F04AFE81463046294604F045FE0546A9
:101DD0002046394604F040FE07464046494604F096
:101DE00007FF1A9C294644F8080C384604F0FCFC0E
:101DF00044F8040C1B98139ED0E902453046214656
:101E000004F02AFE129F82463846294604F024FE3A
:101E100080463846214604F01FFE8146304629465A
:101E200004F01AFE06465046414604F0DDFC1C9FB5
:101E30003146B860484604F0DBFE199EF860304633
:101E4000294604F009FE189F80463846214604F0D2
:101E500003FE81463846294604F0FEFD054630461D
:101E6000214604F0F9FD04464046494604F0C0FE10
:101E70001499DDF85C9041F80B002046294604F0E7
:101E8000B3FC03990BF1100B169A59451A99486047
:101E90007FF4BAAE019D04982946022300F0D0FDDC
:101EA000009829464268484602231DB0BDE8F04F1D
:101EB00000F0C6BD2DE9F04FA7B00288D1E9005669
:101EC0004FEA520A01EB8A0808EB8A0303EB8A0BFC
:101ED0002592CDF814B006930290406858F82A4035
:101EE000039090088946CDF810800190284621463D
:101EF0001F4604F079FC1F902846214604F078FE26
:101F00007D68044620903046294604F06DFC1D9003
:101F10003046294604F06CFED8F8047006461E9040
:101F20002046394604F060FCDBF80450294604F0F2
:101F30005FFE59F82A4024903046214604F058FEAE
:101F4000069951F82AB0594604F04EFC23901F9E82
:101F50002146304604F04CFE594604F049FE2290DA
:101F6000DDF874803946404604F042FE294604F00C
:101F70003FFE21902098394604F03AFE294604F0AD
:101F800033FC20901E98214604F02EFC594604F0A4
:101F90002FFE1E903046214604F026FC594604F0E0
:101FA00023FCC9F800004046394604F01DFC2946D0
:101FB00004F01AFCC9F804002498DDE904E249F8A9
:101FC0002A002398DDF818C0CEF80400229825993D
:101FD0004EF82A0021989046CCF8040020984CF83E
:101FE0002A006FF0010000EB91000021B1EB500FCF
:101FF0001E99CDF89890516000F0208245086FF04E
:10200000030000EB0A140AEB4A006FF0070101EB32
:10201000800001EBCA0701EB8A0A0021002200269A
:1020200023ABCDF884A091C319AB4C44484464C39E
:102030001C9120941F9008EB0600229003980CEB53
:1020400006030244014430441892169109EB06013C
:10205000119009EB0A000EEB060B1D9009EB07002F
:10206000D1E90245D3E902671E900F91204631461F
:10207000179304F0B9FB80462046314604F0B8FDC2
:1020800082462846394604F0AFFB81462846394649
:1020900004F0AEFDDBE90247CDF840B08346504680
:1020A000394604F0A1FB2299D1E90265294604F0E2
:1020B0009FFD0D905846214604F09AFD314604F0EC
:1020C00093FB0C904046214604F092FD314604F00B
:1020D0008FFD13904846394604F08AFD294604F0E6
:1020E00087FD12905046394604F082FD294604F0DF
:1020F0007BFB15905846214604F076FB314604F0F0
:1021000077FD14904046214604F06EFB314604F002
:102110006BFB0F9C3946A060484604F065FB229992
:10212000C96804F061FBE06026982199445826981C
:10213000239945582046294604F056FB81462046FF
:10214000294604F055FD1D9904464D681F990F90CE
:102150004E682846314604F047FB07902846314632
:1021600004F046FD1E99249A4F68269982468D58A0
:102170003846294604F03CFD83462046594604F083
:1021800033FBDDE9252109908E585046314604F095
:102190002FFD209951F8048C414604F025FB08904E
:1021A000484631464C4604F023FD414604F020FDEC
:1021B0000B90DDF81C903946484604F019FD29467D
:1021C00004F016FD0A900F99584604F011FD0F9087
:1021D0004046314604F00CFD5146DDF884A004F081
:1021E00007FD0E904846394604F0FEFA294604F0F1
:1021F000FBFA1D994860DDE925104158204604F09E
:10220000F3FA0146404604F0EFFA26990D9E41F894
:102210000A001198D0E902453046214604F01CFC22
:102220000C9F80463846294604F016FC8346384603
:10223000214604F011FC81463046294604F00CFC8E
:1022400006464046594604F0CFFA109F3146B86022
:10225000484604F0CDFCF860089F2946384604F053
:10226000FBFB099E80463046214604F0F5FB814683
:102270003046294604F0F0FB05463846214604F076
:10228000EBFB04464046494604F0B2FC1E99486008
:102290002046294604F0A8FADDE92521139E88503E
:1022A0001698D0E904543046294604F0D5FB129F15
:1022B00080463846214604F0CFFB834638462946FF
:1022C00004F0CAFB81463046214604F0C5FB0646B1
:1022D0004046594604F088FA179F3146B860484690
:1022E00004F086FCF8600A9F284687F0004104F05D
:1022F000B3FB0B9E80463046214604F0ADFB814681
:102300003046294604F0A8FB05463846214604F02D
:10231000A3FB04464046494604F06AFC1F99486006
:102320002046294604F064FC2699239A159E88507D
:102330001898D0E906453046214604F08DFB149FDD
:1023400080463846294604F087FB834638462146B6
:1023500004F082FB81463046294604F07DFB0646A8
:102360004046594604F040FA229F3146B86048463C
:10237000DDF8989004F03CFCF8600E9F2946384642
:1023800004F06AFB0F9E80463046214604F064FB51
:1023900083463046294604F05FFB05463846214611
:1023A00004F05AFB04464046594604F021FC2499A7
:1023B00049F801002046294604F016FA209B19AE80
:1023C000DDE9244764CE1C9943F8040C2398DDF81A
:1023D00018C0DDE904E8013D06F10806A4F108048F
:1023E000A0F10800A7F1080702F1180201F110019D
:1023F000AAF1080A7FF414AE0EEB06002390083011
:10240000249008EB060082460830259003980CEBD8
:102410000607024421921832014422921F91103182
:10242000209109EB0601304407F108038B4601F1C6
:1024300008021C9008301D901BE000BF039809F1B2
:10244000080200F108011D9100F11001209100F136
:102450001801229108F1080125910EF108010CF1F3
:102460000803CDE923E16746C24621901F901C90E6
:10247000CB4614681D682046294619921B971E9367
:1024800004F0B2F912902046294604F0B1FBDBF8C3
:102490000C50FE68CDF868B00446159028463146C9
:1024A00004F0A2F980462846314604F0A1FB2399A6
:1024B0000646D1F80C902046494604F095F9DAF822
:1024C0000C505446294604F093FB24991490D1F8FB
:1024D00000A03046514604F08BFB2599D1F800B09E
:1024E0002591594604F080F918941390129F514693
:1024F000384604F07DFB594604F07AFB17904046BD
:10250000494604F075FB294604F072FB16901598B5
:10251000494604F06DFB294604F066F915903046F3
:10252000514604F061F9594604F062FB8146384691
:10253000514604F059F9594604F056F91999DDF855
:102540008CA00860DAF80C10404604F04DF9E16800
:1025500004F04AF91A99DDF850B0C8601D98056872
:102560001C982946C668584604F076FA139F8046A0
:102570003846314604F070FA04463846294604F0DD
:102580006BFA05465846314604F066FA0646404660
:10259000214604F029F9249908602846314604F0C0
:1025A00027FBCAF80C002098179E04681F98214644
:1025B0004569304604F050FA169F8246384629464F
:1025C00004F04AFA83463846214604F045FA0446A8
:1025D0003046294604F040FA05465046594604F074
:1025E00003F91E9908602046294604F001FB1B9957
:1025F000DDF85480C8602298046821982146C56996
:10260000404604F029FA06464846294604F024FAD2
:1026100007464846214604F01FFA0446404629462C
:1026200004F01AFA05463046394604F0DDF82599DB
:1026300008602046294604F0DBFA1899019DC8601D
:102640002698039A2946042300F0FAF9029C04987C
:1026500062682946042300F0F3F962680698294667
:10266000042300F0EDF9626805982946042327B099
:10267000BDE8F04F00F0E4B92DE9F04FABB002290E
:102680000492C0F0DA81083000900F4608460E46EA
:102690000A9100BF029098B206904FF0FF30B9083F
:1026A00000EB9700059001EB4100DDF800A00393DB
:1026B0003B010501480101914FEA01190024002165
:1026C0002890CDE90B37CDE9299500BF049A4FEA50
:1026D000011E52F80E0002EB011C1890DCF80400F9
:1026E000079117900EF1080002EB000C10584FEA0A
:1026F000411E1690DCF8040002EB411C159052F8C4
:102700000E00CDE908A41490DCF8040013900EF13B
:10271000080002EB000C10581290DCF80400119035
:1027200001EB410002EB001C000111580830109130
:10273000DCF804100F91111810580E9048680D9095
:102740002898259450445AE9025650E90247834696
:1027500024902846314622463B4603F0BDFB804686
:1027600089462846314622463B4603F023FF269001
:102770002898DAE900475AF80050DBF80460219104
:10278000204639462A46334603F0A6FBCDE91E1003
:10279000204639462A46334603F00CFF22902998FA
:1027A00020910AEB000252E9020793462A9A394621
:1027B0000AEB020656E9022303F08EFB04460D469F
:1027C0004046494622462B4603F086FB4AE9020171
:1027D0004046494622462B4603F0ECFE27902998B6
:1027E0002A9ADBF804705AF800005AF8022073683D
:1027F00089461A913946B046239603F06DFB1F9F18
:102800001E9C05460E46384621462A46334603F0AE
:1028100063FBCAE90001384621462A46334603F0E5
:10282000C9FE054629982A9ADBF804705AF8000078
:102830005AF80220D8F804300C463946CDF86CB06E
:1028400003F0B8FE1D905BE9020658E902231C91D3
:10285000314603F0AFFE149FDDF84C80279ACDE996
:102860001E10384641464B4603F09AFDDDF848906D
:10287000DDF844B006461991484659462A46234693
:1028800003F08EFD0B4619990246304603F024FBF7
:102890001B9E2A4646E9020138464146234603F07C
:1028A0007FFD279A1A9B04460D464846594603F079
:1028B00077FD02460B462046294603F07BFE299A07
:1028C0007160269C219D1D9E1C9F4AF80200204697
:1028D000294632463B4603F0FFFA80461B90894664
:1028E0001A912046294632463B4603F063FE229C5D
:1028F000209D1F9E1E9FCDE9260120462946324677
:102900003B4603F057FECDE91C10204629463246CF
:102910003B4603F0E1FADDF860B0179CCDE92110E9
:102920005846214642464B4603F03AFD169D159EF9
:10293000DDF87480DDF87090074620912846314616
:1029400042464B4603F02CFD0B4620990246384682
:1029500003F0C2FA249F424647E902015846214645
:102960004B4603F01DFDDDE91A3204468946284630
:10297000314603F015FD02460B462046494603F05A
:1029800019FE289A7960109E0F9F4AF80200DDE92F
:1029900026233046394603F003FD0E9C0D9DDDF8DD
:1029A0008880DDF8849024908B4620462946424654
:1029B0004B4603F0F5FC024624980B46594603F0BB
:1029C0008BFADDF88CB042464BE9020130463946BD
:1029D0004B4603F0E5FCDDE9262306460F4620467C
:1029E000294603F0DDFC02460B463046394603F02B
:1029F000E1FD0C9F259C2A9DDDE90A633C444AF8D1
:102A00000500B4429A44CBF80410FFF499AEDDE916
:102A10000601099C01440598DDF820A00134844298
:102A20000AF1100A7FF652AE039B0298019F9B00A9
:102A300007284FEA90003FF62DAE2BB0BDE8F08F8F
:102A40002DE9F04FB7B0CDE90432021D02920C30EF
:102A50000A460190199100BFD308D8003590A0EB29
:102A6000D200C000369003EB430006014FEAC00AD3
:102A700003EB8300DDF80880D7004FEA0319C40098
:102A800003935D0100233396CDE91A72CDF8D090FF
:102A9000CDF870A03094329508EB050058F8044C3E
:102AA00050F8046C289020463146319303F09CFE88
:102AB00082462046314604F09BF835992B904144DC
:102AC0002E9151F8046C30993046414451F8047C01
:102AD0002F91394603F088FE83463046394604F08C
:102AE00087F808EB0901269151F8046C3399299075
:102AF000414451F8047C27913046394603F074FE76
:102B000005463046394604F073F81C992A90414432
:102B10002D9151F8046C3699304608EB010252F8B9
:102B2000047C894639462C9203F05EFE044630460A
:102B3000394604F05DF824905046294604F058F8D0
:102B400022905046294603F04FFE0546584621463E
:102B500004F04EF823905846214603F045FE044603
:102B60002846214603F040FE48F8040C284621463A
:102B700004F03EF83299D8F8005058F801602899CE
:102B800041F8040C2846314603F02EFE0446284640
:102B9000314604F02DF83599289058F801503099B5
:102BA000284658F80160314603F01EFE8346284649
:102BB000314604F01DF83499219058F801503399AA
:102BC000284658F80160314603F00EFE824628463A
:102BD000314604F00DF81C9958F8096058F8015076
:102BE00025902846314603F0FFFD0746284631462A
:102BF00003F0FEFF81462046514603F0F9FF0546EB
:102C00002046514603F0F0FD04465846394603F08D
:102C1000EFFF06465846394603F0E6FD07462046D4
:102C2000394603F0E1FDC8F800002046394603F0BC
:102C3000DFFF3299229C48F801002046314603F01C
:102C4000D3FD269941F8040C2046314603F0D0FF0D
:102C50002799239C41F8040C2846214603F0C8FF1D
:102C6000349948F801002046294603F0BDFD339908
:102C7000299C249D48F801002046294603F0B8FF0E
:102C800040F2F347C3F63577394603F0E5FE824656
:102C90002046294603F0A8FD394603F0DDFE219CBD
:102CA00005462046494603F0A3FF394603F0D4FE0B
:102CB00006462046494603F097FD394603F0CCFE10
:102CC0002B9C07462046514603F092FF8346204640
:102CD000514603F089FD2A9C82462046294603F08E
:102CE00087FF2B902046294603F07EFD289C8146D5
:102CF0002046314603F07CFF2A902046314603F0FF
:102D000073FD259D04462846394603F071FF0646AB
:102D10002846394603F068FD07465046394603F019
:102D200063FD2E9941F8040C5046394603F060FFCC
:102D30002C9941F8040C5846314603F055FD2F9963
:102D400041F8040C5846DDF870B0314603F050FFEE
:102D50002D9941F8040C2046494603F049FF359966
:102D600048F801004846DDF8D0902146309C03F039
:102D70003BFD36992A9E2B9D48F801003046294696
:102D800003F036FF48F804002846314603F02CFDD6
:102D9000DDE931351B9ADDE91917134448F80B00BA
:102DA0008B42B844FFF478AE402AC0F0E582049824
:102DB000DA4680B20790039800240146022898BFA3
:102DC0000221C0EBC000DDF804C04FEAC0080127B3
:102DD0000691CDF8C48000BF0798059B0444E0002D
:102DE000043053F8341018584FEA0419189153F866
:102DF0000910119009F1040004EB440218581791CE
:102E00004FEAC20B53F8321010900BF104001691E8
:102E1000610118585E580F90081D159604EB840642
:102E200018584FEAC60E53F836600E900EF10400A3
:102E30001201185814969E580D90101D1396C4EB4D
:102E4000C40618580A94F4000C90201D53F83660FC
:102E5000185812960B90CDE908C700BF0CEB05007F
:102E60005CF8044C50F8046C2290204631462F97B1
:102E7000CDF8D8C003F0B8FC80462046314603F0B8
:102E8000B7FEDDE93521DDF8C0B011442B9151F8D2
:102E9000044C36992A90594451F8047C2D912046CF
:102EA000394603F0A1FC81462046394603F0A0FED6
:102EB0003699349A28901144239151F8044C36994C
:102EC000339A2046114451F8047C2691394603F088
:102ED0008BFC05462046394603F08AFE3699369A21
:102EE00051442E9151F8044C31992990114451F8D4
:102EF000047C2C912046394603F076FC0646204699
:102F0000394603F075FE24904046294603F070FED2
:102F10001D904046294603F067FC05464846314669
:102F200003F066FE1F904846314603F05DFC0646FE
:102F30002846314603F058FC369941F8040C2846DF
:102F4000314603F055FE3699369A0E6832991E9036
:102F500057583046394603F047FC05463046394657
:102F600003F046FEDDE9351227905758369938466A
:102F700051F80B40214603F037FC064638462146FF
:102F800003F036FE3699349A21908C583699339A4C
:102F900020468F58394603F027FC814620463946A3
:102FA00003F026FE3699369A51F80A403199259059
:102FB00057582046394603F017FC834620463946C9
:102FC00003F016FE20902846494603F011FE804685
:102FD0002846494603F008FC05463046594603F0AA
:102FE00007FE04463046594603F0FEFB1D9E074689
:102FF0003046214603F0F8FB83463046214603F075
:10300000F7FD1D902846394603F0EEFB369908601F
:103010002846394603F0ECFD1F9D044640462946EC
:1030200003F0E6FD82462846414603F0DDFB159F8E
:10303000DDF878801F903846414603F00DFDDDF83D
:10304000389005464846214603F006FD06463846B8
:10305000214603F001FD04464846414603F0FCFCCE
:1030600007462846314603F0BFFB229941F8040C7D
:103070002046394603F0BCFD3299369A179E5050CF
:103080003046594603F0E8FC109F04463846514646
:1030900003F0E2FC05463046514603F0DDFC0646EF
:1030A0003846594603F0D8FC07462846214603F027
:1030B0009BFB239941F8040C3046394603F098FDF8
:1030C0003699349A139E1D9C88503046214603F051
:1030D000C3FC0C9F1F9D80463846294603F0BCFC6C
:1030E00081463046294603F0B7FC0646384621465D
:1030F00003F0B2FC07464846414603F075FB2699AB
:1031000041F8040C3046394603F072FD3699339A83
:10311000289C249D88502046294603F069FD40F2F2
:10312000F346C3F63576314603F096FC80462046DA
:10313000294603F059FB314603F08EFC219C209D6B
:1031400081462046294603F053FD314603F084FCB6
:1031500007462046294603F047FB314603F07CFC36
:103160002A9C06462046414603F042FD8246204600
:10317000414603F039FB299D04462846494603F0A1
:1031800037FD26902846494603F02EFB279D8146B1
:103190002846394603F02CFD24902846394603F092
:1031A00023FB259D07462846314603F021FD804636
:1031B0002846314603F018FB06462046314603F008
:1031C00013FB83462046314603F012FD27905046FC
:1031D000414603F009FB29905046414603F008FDA3
:1031E0002A903846494603F003FD82464846394650
:1031F00003F0FAFA249D269C80462846214603F0D7
:10320000F7FC28902046294603F0EEFA189C8146E8
:103210002046594603F020FC119E05463046514693
:1032200003F01AFC07462046514603F015FC0446FD
:103230003046594603F010FC06462846394603F04E
:10324000D3FA2B9941F8040C2046314603F0D0FC08
:10325000DDE93521129E279C88503046214603F037
:10326000FBFB0B9F82463846414603F0F5FB0546C3
:1032700030464146DDF8C48003F0EEFB0646384692
:10328000214603F0E9FB07465046294603F0ACFA15
:103290002C9941F8040C3046394603F0A9FC3699C4
:1032A000149E299C41F808003046214603F0D4FBC7
:1032B0000D9FDDF8A0B082463846594603F0CCFB9E
:1032C00005463046594603F0C7FB064638462146B8
:1032D00003F0C2FB07465046294603F085FA2D99B4
:1032E00041F8040C3046394603F082FC3699309A96
:1032F000169E2A9C88503046214603F0ADFB0F9F56
:1033000082463846494603F0A7FB05463046494603
:1033100003F0A2FB06463846214603F09DFB074614
:103320005046294603F060FA2E9941F8040C3046C5
:10333000394603F05DFCDDF8D8C01C9A2F9F4CF88D
:1033400002001B98199907441A98329D92468F42A1
:103350008444FFF483AD099F0698DDF820C001374F
:103360000A9C87420CF1080C7FF436AD0498039A4E
:10337000C0000490FFF770BB37B0BDE8F08F0000CD
:10338000C0B14CF2D0324FF40071C0F60002938904
:103390000180D2E901128381C0E901124FF48061FA
:1033A000018244F28011C0F603014161002040B265
:1033B000704700BFFF2040B270470000D0B14FF40B
:1033C000007101804FF4806101824FF4F0718181BE
:1033D0004BF6407149F60072C0F60001C0F60102DA
:1033E000C0E901214CF20031C0F601014161002029
:1033F00040B27047FF2040B270470000B0B14CF2BD
:10340000E0324021C0F6000293890180D2E9011226
:103410008381C0E901128021018245F28011C0F64A
:1034200003014161002040B2704700BFFF2040B25D
:1034300070470000C0B14021018080210182382105
:1034400081814CF200314BF60072C0F60001C0F6EB
:103450000102C0E901214EF20031C0F601014161D3
:10346000002040B2704700BFFF2040B2704700000C
:10347000C0B14CF270324FF48061C0F60002938903
:103480000180D2E901128381C0E901124FF4006189
:10349000018245F28031C0F603014161002040B253
:1034A000704700BFFF2040B270470000D0B14FF41A
:1034B000806101804FF4006101824FF47871818155
:1034C0004AF2F8414CF20042C0F60001C0F6000298
:1034D000C0E901214EF20071C0F6010141610020F6
:1034E00040B27047FF2040B270470000B0B14CF2CC
:1034F00080328021C0F6000293890180D2E9011256
:103500008381C0E901124FF48071018247F280315A
:10351000C0F603014161002040B27047FF2040B275
:1035200070470000C0B1802101804FF4807101829A
:10353000702181814AF6B84140F20042C0F6000194
:10354000C0F60102C0E9012142F20071C0F6020199
:103550004161002040B27047FF2040B27047000038
:10356000B0B14CF290321021C0F600029389018074
:10357000D2E901128381C0E901122021018247F2C0
:103580008071C0F603014161002040B2704700BF66
:10359000FF2040B270470000C0B1102101802021FF
:1035A00001820C2181814AF6985140F60042C0F612
:1035B0000001C0F60102C0E9012142F60071C0F627
:1035C00002014161002040B2704700BFFF2040B2BD
:1035D00070470000C0B14CF2A0324FF40061C0F659
:1035E000000293890180D2E901128381C0E90112AE
:1035F0004FF48051018247F60001C0F6030141619A
:10360000002040B2704700BFFF2040B2704700006A
:10361000D0B14FF4006101804FF4805101824FF42A
:10362000F86181814AF6B05140F60052C0F60001BF
:10363000C0F60102C0E9012143F20001C0F6020117
:103640004161002040B27047FF2040B27047000047
:10365000C0B14CF2B0324FF48071C0F600029389D1
:103660000180D2E901128381C0E901124FF4007197
:1036700001824BF60001C0F603014161002040B217
:10368000704700BFFF2040B270470000D0B14FF438
:10369000807101804FF400710182F02181814BF62D
:1036A000305148F60052C0F60001C0F60102C0E9F0
:1036B00001214BF20001C0F602014161002040B23D
:1036C000704700BFFF2040B270470000B0B14CF21D
:1036D000C0322021C0F6000293890180D2E9011294
:1036E0008381C0E90112402101824CF20001C0F641
:1036F00003014161002040B2704700BFFF2040B28B
:1037000070470000C0B120210180402101821821B2
:1037100081814BF6107149F60052C0F60001C0F6E7
:103720000102C0E901214CF20001C0F60201416131
:10373000002040B2704700BFFF2040B27047000039
:10374000F0B581B014460E4605467BB12846314699
:1037500022461F4600F0B2FA284621463A46012387
:1037600001B0BDE8F040FDF71BBD00BF2846314663
:1037700000220123FDF714FD28463146224601B000
:10378000BDE8F04000F01CBFF0B581B00546008AEE
:1037900014460F464008288073B128463946224611
:1037A0001E4600F027FD284621463246012301B07F
:1037B000BDE8F040FDF7A8BE2846394600220123A7
:1037C000FDF7A2FE28463946224601B0BDE8F0408A
:1037D00001F08AB9B1F5007F0ADA7F2916DC2029C9
:1037E0002AD0402940D143F2CD61C0F600010847FC
:1037F000B1F5006F14DAB1F5007F23D0B1F5806F19
:1038000032D143F28131C0F60001084780291FD030
:10381000B1F5807F28D143F2ED41C0F600010847A1
:10382000B1F5805F1AD0B1F5006F1DD143F271413F
:10383000C0F60001084700BF43F26151C0F6000125
:10384000084700BF43F25161C0F60001084700BFBE
:1038500043F2FD31C0F60001084700BF43F2D551E5
:10386000C0F60001084700BF4FF0FF30704700006E
:10387000B1F5007F0ADA7F2916DC20292AD04029F9
:1038800040D143F20571C0F600010847B1F5006F61
:1038900014DAB1F5007F23D0B1F5806F32D143F255
:1038A000BD31C0F60001084780291FD0B1F5807FE7
:1038B00028D143F22551C0F600010847B1F5805FD9
:1038C0001AD0B1F5006F1DD143F2AD41C0F6000131
:1038D000084700BF43F29951C0F60001084700BFF6
:1038E00043F28D61C0F60001084700BF43F2354145
:1038F000C0F60001084700BF43F21161C0F60001A5
:10390000084700BF4FF0FF307047000001F0E4BAF5
:103910002DE9F04F89B003A84FF48071FFF75AFFEB
:1039200040F6B40040F6B448C2F20000C2F200080B
:1039300041F2624A40F6912B0027A0F11004A8F151
:1039400010050326C4F29D3AC3F6867BC3F6F077D2
:1039500040F20319F01E80B203F06AF8514603F0FA
:103960007BF84FF06A5103F077F8594602F03CFFBC
:1039700002F00EFF02F01AFA00223B4602F0ACFA07
:1039800002F078FA44F8100F45F8100FB01E80B21C
:1039900003F04EF8514603F05FF84FF06A5103F020
:1039A0005BF8594602F020FF02F0F2FE02F0FEF949
:1039B00000223B4602F090FA02F05CFA6060686018
:1039C000701E80B203F034F8514603F045F84FF012
:1039D0006A5103F041F8594602F006FF02F0D8FEA2
:1039E00002F0E4F900223B4602F076FA02F042FAD5
:1039F000A060A860B0B203F01BF8514603F02CF8A9
:103A00004FF06A5103F028F8594602F0EDFE02F03B
:103A1000BFFE02F0CBF900223B4602F05DFA02F055
:103A200029FA04364E45E060E86093D140F2B409CB
:103A3000C2F2000903A841464A460023FFF780FE70
:103A40004CF2F03AA8F104056FF00306C0F6000A44
:103A500055F8040F02F09CFE074609EB060040688B
:103A60000C4602F095FE009050463A4623460191DE
:103A7000FCF7CCFB0436B6F57F7FE9D140F2B40108
:103A8000C2F2000103A842460123FFF759FE40F6A7
:103A9000B400C2F200004CF2F039071F6FF00305CA
:103AA000C0F6000957F8040F02F072FE044608EB56
:103AB000050040680E4602F06BFE00904846224624
:103AC00033460191FCF7A2FB0435B5F57F7FE9D1C0
:103AD00009B0BDE8F08F00002DE9F04F89B003A8D0
:103AE0004FF48071FFF7C4FE42F2B80042F6B80905
:103AF000C2F20000C2F2000941F2624A40F6912B84
:103B00000027A0F12004A9F120050326C4F29D3A64
:103B1000C3F6867BC3F6F07740F20318F01E80B23E
:103B200002F086FF514602F097FF4FF06A5102F013
:103B300093FF594602F058FE02F02AFE02F036F9D1
:103B400000223B4602F0C8F944F8200F45F8200F48
:103B5000B01E80B26160696002F06AFF514602F0F7
:103B60007BFF4FF06A5102F077FF594602F03CFEAE
:103B700002F00EFE02F01AF900223B4602F0ACF908
:103B8000C4E90201C5E90201701E80B202F050FFD3
:103B9000514602F061FF4FF06A5102F05DFF594655
:103BA00002F022FE02F0F4FD02F000F900223B4692
:103BB00002F092F9C4E90401C5E90401B0B202F0CF
:103BC00037FF514602F048FF4FF06A5102F044FFC0
:103BD000594602F009FE02F0DBFD02F0E7F8002290
:103BE0003B4602F079F904364645C4E90601C5E9C9
:103BF000060193D141F2B805C2F2000503AE30468A
:103C000049462A460023FFF7BFFD304629464A466B
:103C10000123FFF7B9FD42F2B800C2F20000A0F1A3
:103C200008046FF007060AA509EB060054F8082FF0
:103C3000C16880686368009028460191FCF7E6FA45
:103C40000836B6F5FF6FEFD109B0BDE8F08F00BFC1
:103C5000252E3131662C20252E3131660D0A0000CB
:103C600043F60002C4F20102118849065FBF1188C1
:103C70005FEA416111885FEA416102D41188490617
:103C8000F2D544F20041C4F20001C3B293800A8825
:103C9000520609D40A8852065CBF0A885FEA42626B
:103CA00002D40A885206F2D58B807047FFF72EFEA9
:103CB000FFF72EFEFFF710FFFEE700002DE9F04FA3
:103CC0008DB0D1E900450E46D0F81490B0F80080D0
:103CD00020462946924602F087FD4FF07C5102F0C3
:103CE000BBFECAF800002046294602F081FF4FF0D3
:103CF0007C5102F0B1FEB8F1020FCAF80400C0F026
:103D00001982A8F1010006EBC00710F00303A8F127
:103D1000020200F0CA800A9230464A46CDF800807E
:103D200050F8088F52F8085F0590D0F804B050683A
:103D300039687C680690404607910994CDF820B018
:103D40000492CDE90B3702F053FF0746204659464F
:103D500002F04AFDCDF80890814638462946AB4628
:103D600002F07AFE069D044648462946CDF80CA08E
:103D700002F072FE82460798414602F035FD214668
:103D800002F036FF514602F033FF4FF07C5102F053
:103D900063FEDDF80CA029464AF8080F3846B04605
:103DA00002F05AFE04465846494602F055FE0546C2
:103DB000DDE9080102F01CFF214602F015FD29464D
:103DC00002F016FF4FF07C5102F046FEDDE90B27B2
:103DD000CAF80400012AA7F1080707D10A9ADDE909
:103DE00004961046032AC0F0A58161E00298CDF840
:103DF000048058F8109FD7E900A650F810BFD8F8F3
:103E00000440CDF81C800690D0F804804846514606
:103E1000099608940C9702F0EBFE054630462146C1
:103E200002F0E2FC07462846594602F015FE064617
:103E300038464146444602F00FFE80465046494609
:103E400002F0D2FC314602F0D3FE414602F0D0FE31
:103E50004FF07C5102F000FEDDF80CA021464AF83C
:103E6000100F284602F0F8FD04465846394602F085
:103E7000F3FD0546DDE9080102F0BAFE214602F035
:103E8000B3FC294602F0B4FE4FF07C5102F0E4FD91
:103E90000C9FCAF804000B98083F022840F04E819E
:103EA0000098DDE906960A9A0338032AC0F0428199
:103EB00007F1240104300B91002101AA82E8400699
:103EC000DDF82C80CDE9071058F8205D70185246B7
:103ED00058F804ACD0E902B609EB01030990501878
:103EE000D3E902970C9058465146069505960A93D9
:103EF00002F07EFE04462846314602F075FC054677
:103F00002046494602F0A8FD04902846394602F0B2
:103F1000A3FD06462046394602F09EFD044648466B
:103F2000294602F099FD05465046594602F05CFCD0
:103F3000049902F05DFE314602F05AFE4FF07C51CA
:103F400002F08AFD0C9EB060DDE9050102F050FE32
:103F5000214602F049FC294602F04AFE4FF07C510E
:103F600002F07AFDF060099858E903A5D0E904B69B
:103F70000A98CDF82C80D0E904875846514606951A
:103F8000059602F035FE04462846314602F02CFC28
:103F900005462046414602F05FFD06462846394662
:103FA00002F05AFD81462046394602F055FD04468E
:103FB0004046294602F050FD05465046594602F05B
:103FC00013FC314602F014FE494602F011FE4FF098
:103FD0007C5102F041FD0C9E3061DDE9050102F0EB
:103FE00007FE214602F000FC294602F001FE4FF0D8
:103FF0007C5102F031FD70610B9850E905A50998DC
:104000005146D0E906B60A980695D0E90687584683
:10401000059602F0EDFD04462846314602F0E4FB29
:1040200005462046414602F017FD06462846394619
:1040300002F012FD81462046394602F00DFD04468D
:104040004046294602F008FD05465046594602F012
:10405000CBFB314602F0CCFD494602F0C9FD4FF0E2
:104060007C5102F0F9FC0C9EB061DDE9050102F023
:10407000BFFD214602F0B8FB294602F0B9FD4FF022
:104080007C5102F0E9FCF0610B9850E907A5099812
:104090005146D0E908B60A980695D0E908875846EF
:1040A000099602F0A5FD04462846314602F09CFB25
:1040B00005462046414602F0CFFC064628463946D2
:1040C00002F0CAFC81462046394602F0C5FC04468F
:1040D0004046019F294602F0BFFC0546504659461E
:1040E00002F082FB3146DDF80CA03E4602F080FD76
:1040F0004946DDF8089002F07BFD4FF07C5102F05C
:10410000ABFC0C9F06993862099802F071FD2146BC
:1041100002F06AFB294602F06BFD4FF07C5102F081
:104120009BFC7862089807990438042801F1200163
:104130003FF7C6AE0DB0BDE8F08F00BF0198029A00
:1041400050F818BFD7E900A652F8184F45680190FB
:10415000D2F80480584651460B960894029209956D
:104160000C9702F045FD81463046294602F03CFBA3
:1041700007464846214602F06FFC0646384641464F
:10418000444602F069FC80465046594602F02CFB3A
:10419000314602F02DFD4146DDF80CA002F028FD6D
:1041A0004FF07C5102F058FC4AF8180F484621465F
:1041B00002F052FC04460898394602F04DFC0546D0
:1041C00009980B9902F014FD214602F00DFB2946D7
:1041D00002F00EFD4FF07C5102F03EFC0C9FCAF83D
:1041E00004000098DDE901690A9A083F0438032AAF
:1041F000A0D35DE62DE9F04F99B0D0F814A0008867
:1042000091E8200ACF68904602911890441E2846F3
:1042100049465A463B4601F05FFE0026C3F6E0766B
:104220000022334602F0BCF8C8E90001284649469E
:104230005A463B4602F0BEF90022334602F0B0F87F
:10424000002CCDF80480C8E9020100F0B581E00738
:10425000029800EB041705D11898022800F0AC81F1
:1042600097E000BFCDF80CA00398029E50F810BF55
:1042700056F8105F039003983A6840687B6817907F
:104280000398D7F808808068D7F80C9009900398B5
:104290007168C068D6F808A0F468089028460B92A8
:1042A0000A93CDF854800D950296CDF850900C915C
:1042B000CDF84CA01294169702F07CF905460F90A9
:1042C0000E460E91404649465246234601F004FEF2
:1042D000179B044610900F461191284631465A46C6
:1042E0005E4602F05DF880462046099CDDF820908D
:1042F000019D8A46394622464B4602F051F88346D4
:104300000F46DDE90A10DDE90C3201F0E5FD424619
:10431000534602F04FF95A463B4602F04BF9002350
:10432000C3F6E073002202F03BF80F4645F8100F89
:10433000DDE90E1022464B4602F032F80C46179982
:10434000DDE910238346304602F02AF80646884607
:10435000DDE91210DDE914326F6002F02BF95A46E4
:10436000DDF80CA0234601F0B7FD3246434602F0CB
:1043700021F900230022C3F6E07302F011F8C5E929
:104380000201169F1898103F841E0195022800F024
:10439000138107F1280017900020CDF80CA000BF72
:1043A0000299CDE915040C18E5690AEB0007DDF860
:1043B0005CB017953D691297109426696169D4F82D
:1043C00018900595D7E90554FF695BF8208D06978D
:1043D000019FDBF804A05BE90223384418903046C3
:1043E000CDF85080CDF84CA0CDE90C230E960F915E
:1043F000CDF844900B9402F0DDF8179B06460F466B
:104400000491404651464A4601F066FD0C46394645
:10441000059F824630463A462B4601F0C1FFDDF843
:104420002C80DDF81890CDE909105046214642460F
:104430004B4601F0B5FFCDE90710049930464246DE
:104440004B4601F0ADFF06460B91384629465246D1
:10445000234601F0A5FF0CAB81468A460FCB01F045
:104460003BFDDDE9093202F0A5F8DDE9073202F093
:10447000A1F800230022C3F6E0731D4601F090FF6F
:10448000189CDDE91332C4E904011198179902F070
:1044900091F80B9B324601F01FFD4A46534602F04D
:1044A00089F800222B4601F07BFF129DC4E906012A
:1044B0002F6A109C07976F6A5BF8182C0697AF6AF3
:1044C0005BF8143C5BF8108C5BF80C9C206A616A0A
:1044D000A66AE46A0897EF6A0E920D93CDF85080B1
:1044E000CDF85CB0CDF84C900C900F9111961094D3
:1044F00002F060F882468B464046494632462346E3
:1045000001F0EAFC079C069E8046894650465946C3
:104510002246334601F044FF089D12900B9140461D
:1045200049462A463B4601F03BFFCDE9091050467B
:1045300059462A463B4601F033FF08908B462046F9
:104540003146DDF80CA042464B4601F029FF0446F7
:104550000E46DDE90C21DDE90E0301F0BDFC129AE7
:104560000B9B02F027F8DDE9093202F023F800275F
:10457000C3F6E07700223B4601F012FF189DDDE90B
:104580001332C5E90801DDE9101002F013F8089AAA
:104590005B4601F0A1FC2246334602F00BF80022F4
:1045A0003B4601F0FDFE169CC5E90A011598023C48
:1045B00000F120007FF4F4AE19B0BDE8F08F0000E8
:1045C0002DE9F04F8DB0D0F814900588D1E90004A2
:1045D0008B4601461746A5F1010802F005F982460F
:1045E0002046214602F000F904465046214602F0DA
:1045F000FBF84FF07C5102F02FFA3860504621460C
:1046000002F0F6FA4FF07C5102F026FA786040464C
:10461000022D28BF0120291AC0430BEBC80211F05C
:104620000301284400F01681CDE9090558464B46A0
:1046300050F808AF53F8084FD2E90086019045685A
:1046400058680B9105904046514608960694079588
:1046500000930C9202F0CCFACDE903B981463046C2
:104660002946BB4602F0C0F806464846214602F0FD
:10467000F3F9059D07463046294602F0EDF9044658
:104680004046514602F0B0F8394602F0ADF82146F6
:1046900002F0AAF84FF07C5102F0DEF95F4647F8CD
:1046A000080F48462946CDF808B002F0D5F904466F
:1046B0000698314602F0D0F90546DDE9070102F01F
:1046C00097FA214602F090F8294602F091FA4FF04D
:1046D0007C5102F0C1F9DDE90B1278600129A2F1E9
:1046E000080205D10A98DDE9009BA0F10208B0E0BC
:1046F0000398049B50F810AFD2E900B653F8105F4E
:104700004768CDE905055C68584651460896079705
:1047100001930C9202F06CFA81463046394602F061
:1047200063F807464846294602F096F90646384699
:1047300021463D4602F090F980465846514602F027
:1047400053F8314602F050F8414602F04DF84FF070
:104750007C5102F081F9029F214647F8100F48462C
:1047600002F07AF904460698294602F075F90546E2
:10477000DDE9070102F03CFA214602F035F829464E
:1047800002F036FA4FF07C5102F066F90C9A78602C
:104790000B98083A022807D10A98DDF80490DDF852
:1047A00014B0A0F1030854E00398049950F818AF2E
:1047B000D2E900B651F8187F4568039004914C681F
:1047C000584651460B9608950C9202F011FA814614
:1047D0003046294602F008F805464846394602F0B8
:1047E0003BF906462846214602F036F980465846EF
:1047F000514601F0F9FF314601F0F6FF414601F064
:10480000F3FF4FF07C5102F027F9029E214646F853
:10481000180F484602F020F904463846294602F0AF
:104820001BF9054608980B9902F0E2F9214601F0C0
:10483000DBFF294602F0DCF94FF07C5102F00CF965
:104840000C9A70600A98DDE903B9083AA0F10408EF
:10485000374609980328C0F0438102F124000C90E8
:1048600008F104000021CDF81090CDE9027B00BFD3
:10487000CDE907100C9809EB0102034653F8204DCF
:104880000BEB010053F8049CD0E902A50A907818BC
:10489000D2E902680B90484651460C930694059560
:1048A000099202F0A5F907462046294601F09CFF2F
:1048B00083463846314602F0CFF804463846414632
:1048C00002F0CAF807463046594602F0C5F80546D8
:1048D0005846414602F0C0F806464846514601F0A7
:1048E00083FF214601F080FF314601F07DFF4FF04C
:1048F0007C5102F0B1F80B9CA060DDE9050102F0EB
:1049000077F9394601F070FF294602F071F94FF04E
:104910007C5102F0A1F8E0600C9850E903A50A98D8
:104920000695D0E9049609984946D0E9047850469E
:10493000059602F05DF904462846314601F054FF21
:1049400083462046394602F087F805462046414610
:1049500002F082F804463846594602F07DF80746D0
:104960005846414602F078F806465046494601F05E
:104970003BFF294601F038FF314601F035FF4FF08B
:104980007C5102F069F80B9D2861DDE9050102F018
:104990002FF9214601F028FF394602F029F94FF09E
:1049A0007C5102F059F868610C9850E905A50A9805
:1049B0000695D0E9069609984946D0E9067850460A
:1049C000059602F015F904462846314601F00CFF21
:1049D00083462046394602F03FF8054620464146C8
:1049E00002F03AF804463846594602F035F80746D0
:1049F0005846414602F030F806465046494601F016
:104A0000F3FE294601F0F0FE314601F0EDFE4FF0D5
:104A10007C5102F021F80B9DA861DDE9050102F04F
:104A2000E7F8214601F0E0FE394602F0E1F84FF0E8
:104A30007C5102F011F8E8610C9850E907A50A983A
:104A40000695D0E9089609984946D0E90878504675
:104A50000A9602F0CDF804462846314601F0C4FE1D
:104A600083462046394601F0F7FF05462046414679
:104A700001F0F2FF04463846594601F0EDFF099077
:104A80005846414601F0E8FF06465046494601F0C7
:104A9000ABFE294601F0A8FE314601F0A5FE4FF01D
:104AA0007C5101F0D9FF0B9E069930620A98DDE92E
:104AB000027BDDF8109002F09BF8214601F094FE95
:104AC000099902F095F84FF07C5101F0C5FF706232
:104AD000089807990438042801F120013FF7C8AE6F
:104AE0000DB0BDE8F08F00002DE9F04F99B0904671
:104AF00002880C46D0F814A0D1E900011892013ABE
:104B0000D4E90267149202460B4601F0E5F98146AA
:104B10000D463046394632463B4601F0DDF9064641
:104B20000F464846294632463B4601F0D5F940F249
:104B3000000BC3F6E07B00225B4601F031FCC8E9C4
:104B400000014846294632463B4601F033FD00222B
:104B50005B4601F025FCC8E902011499C346C80769
:104B600004EB01160AD108461899CDE902A40229DE
:104B7000DDE9022100F0AD8196E000BF5AF8100F88
:104B800054F8102F1790DAF8080037680990DAF80F
:104B90000C007168B568D6F80C90CDF804B0636865
:104BA000D4F808800394E468DAF804B00890384632
:104BB0000C970B9116950D92CDF854900A93CDF861
:104BC00050801394CDF844B0CDF808A0129601F0AF
:104BD000F1FC07460F900E460E9128464946424684
:104BE000234601F079F9179A044610900D4638468D
:104BF00031465B4601F0D4FB80462046099C089E66
:104C00008A46294622463346AB4601F0C9FB054693
:104C10000F46DDE90C02DDE90A31DDF8049001F010
:104C20005BF94246534601F057F92A463B4601F0EC
:104C300053F940F20008C3F6E0780022434601F041
:104C4000AFFB0D4649F8100FDDE90E102246334642
:104C500001F0A6FB04460F461798DDE910215B46DC
:104C600001F09EFB82460E46DDE91310DDE91532A8
:104C7000C9F8045001F09EFC22463B4601F02CF995
:104C80005246334601F096FC0022434601F088FB71
:104C9000129EC9E902011899CB46103E881E0229CE
:104CA000DDE9022100F0158106F1280300261893A2
:104CB0000391CDE901B200BF189DCDE913609019B1
:104CC0002A4652F8203D8D1951685C461693189279
:104CD0001195159152E902712A696B69D5F818A0EE
:104CE000D5F81CB0056912900D95456908970E9589
:104CF0008569C0690C910490A019179038460B92F1
:104D00000A93CDF840A0CDF83CB0059501F052FCD7
:104D100080468946DDE9151052465B4601F0DCF815
:104D2000DDF834A00E9F05468B4640464946524664
:104D30003B4601F035FB059E049CCDE9061040463C
:104D400049463246234601F02BFB099089465046DE
:104D500039462A465B4601F023FBCDE90D10284673
:104D600059463246234601F01BFB06468846089802
:104D70000C99DDE90A3201F0AFF8DDE9063201F005
:104D8000ABF83246434601F0A7F800230022C3F6F1
:104D9000E0731F4601F004FB179EDDE91532C6E9FA
:104DA0000401DDE90F1001F005FC099A4B4601F002
:104DB00093F8DDE90D3201F0FDFB00223B4601F0E6
:104DC000EFFA129CC6E90601256A189A0795656AEA
:104DD000119E0695A56A52F8180C52F8141C52F848
:104DE00010AC52F80CBC326A736AB76AF66A08955E
:104DF000E56A10900F91CDF858A0CDF854B00E92FE
:104E00000D930C97119601F0D5FB804689465046CC
:104E100059463A46334601F05FF8079F069E8246A0
:104E20008B46404649463A46334601F0B9FA089C5B
:104E3000CDE909104046494622462B4601F0B0FA1A
:104E40000B9088463846314652465B4601F0A8FA38
:104E50008146129150465946DDF804B022462B4651
:104E600001F09EFA04460D46DDE90F10DDE90D3232
:104E700001F032F8DDE9093201F02EF822462B4626
:104E800001F02AF80025C3F6E07500222B4601F058
:104E900087FA179CDDE91532C4E908010C981199CD
:104EA00001F088FB0B9A434601F016F8129B4A4624
:104EB00001F080FB00222B4601F072FA139EC4E938
:104EC0000A011498029A0399023806F120067FF429
:104ED000F3AE19B0BDE8F08F2DE9F04F85B044F284
:104EE00004000121FBF7F0FF40F2002040F600042F
:104EF000C1F60300C4F2010404AD04902046294623
:104F0000FBF7D4FD4FF48060ADF810004FF00408BB
:104F1000204629468DF81380FBF7C8FD04F540575D
:104F2000E9464FF4E13A00264FF4402B3846494613
:104F3000CDF800A00196CDF808B0ADF80C60FCF7F4
:104F4000D1F838460121FCF7C3F84FF400300121B5
:104F5000FBF7AEFF04200121FBF7B6FF0420C1F6EA
:104F60000300049020462946FBF7A0FD0820ADF879
:104F70001000204629468DF81380FBF797FDA4F515
:104F8000444420464946CDE900A6CDF808B0ADF826
:104F90000C60FCF7A7F820460121FCF799F805B052
:104FA000BDE8F08F5FEA400C08BF91F0000F4FEAB8
:104FB0008C234FEAC12243EA51514FEA1C5018BFDB
:104FC00000F5F0404FEA300018BF41F000415FEAC1
:104FD0006C5C00F02980BCF1FF3F08BF40F08040CE
:104FE0007047130C06BF12044FF0100C4FF0000C6A
:104FF000130E04BF12020CF1080C130F04BF1201B0
:105000000CF1040C930F04BF92000CF1020CD30FAF
:1050100004BF52000CF1010C11464FF00002A0F148
:105020001F00A0EB0C00704711F0004F08BF704745
:1050300031F000413FF4D5AF0B0C06BF09044FF02F
:10504000100C4FF0000C0B0E04BF09020CF1080C01
:105050000B0F04BF09010CF1040C8B0F04BF890076
:105060000CF1020CCB0F04BF49000CF1010CCCF188
:10507000200322FA03F341EA030102FA0CF2A0EB47
:105080000C0000F10100704723F07F4720F07F4CB7
:1050900080EA030000F00040ACEB070303F57C530B
:1050A00003F1FF032DE9804909B44FEA144324EAD0
:1050B00003484FEA154B25EA0B4E0FF2042606EB88
:1050C00013273E7803FB0667C7F5000707FB06F6C4
:1050D0004FEAD64606F102064FEA543707FB066C44
:1050E000CCF1005C4FEA1C472CEA074C0CFB06F5A0
:1050F00007FB06F404EB15464FEA961649085FEAEB
:10510000320234BF00204FF000404FEAD13706FB97
:1051100007FC4FEA1C4C0CFB0BF7D21B03FB0CF7F4
:1051200061EB07010CFB0EF7B0EB074072EB174287
:105130000CFB08F734BFA2EB0742B2EB074261EB6E
:1051400017414FEA0C444FEA910706FB07FC4FEA70
:105150001C4C0CFB0BF7B0EBC74072EB573203FB58
:105160000CF734BFA2EBC742B2EBC74261EB573139
:105170000CFB0EF7B0EBC70072EB57720CFB08F795
:1051800034BFA2EBC702B2EBC70261EB57714FEA23
:10519000816141EA92114FEA826242EA90124FEA3B
:1051A000806004EBCC04039F4FEAD13706FB07FC79
:1051B0004FEA1C4C0CFB0BF7D21B03FB0CF761EB0B
:1051C00007010CFB0EF7B0EB074072EB17420CFB2C
:1051D00008F734BFA2EB0742B2EB074261EB17417D
:1051E0004FEA8C5504EB9C244FEA910706FB07FC21
:1051F0004FEA1C4C0CFB0BF7B0EBC74072EB57327D
:1052000003FB0CF734BFA2EBC742B2EBC74261EB22
:1052100057310CFB0EF7B0EBC70072EB57720CFB6B
:1052200008F734BFA2EBC702B2EBC70261EB5771BC
:105230004FEA816141EA92114FEA826242EA90129A
:105240004FEA806015EB4C2544F100044FEAD1375A
:1052500006FB07FC4FEA1C4C0CFB0BF7D21B03FBB5
:105260000CF761EB07010CFB0EF7B0EB074072EB9C
:1052700017420CFB08F734BFA2EB0742B2EB074220
:1052800061EB17414FEA813141EA92414FEA8232A4
:1052900042EA90424FEA80304FEA0C7615EB1C153B
:1052A00044F1000448EA03434EEA0B484FF0000E75
:1052B000B2EB080C71EB030724BF624639464EEB94
:1052C0000E0E4FF0000B0018524149414BEB0B0BF7
:1052D000B2EB080C71EB03077BF1000B24BF6246B5
:1052E00039464EEB0E0E4FF0000B0018524149416B
:1052F0004BEB0B0BB2EB080C71EB03077BF1000BD4
:1053000024BF624639464EEB0E0E51EA020718BF23
:1053100046F0010616EB0E7655F1000254F100013D
:1053200003D5BDE88901BDE80088BDE88901BDE875
:105330000048B619524141EB0101A3F10103704746
:1053400080807F7E7D7C7B7A7978777676757473C2
:10535000727171706F6E6E6D6C6C6B6A6A69686881
:10536000676666656464636362616160605F5F5E17
:105370005E5D5D5C5C5B5B5A5A595958585757568D
:1053800056555555545453535252525151505050F2
:105390004F4F4F4E4E4D4D4D4C4C4C4B4B4B4A4A44
:1053A0004A49494948484847474747464646454588
:1053B00045444444444343434342424242414141C1
:1053C0009C46002B30D477002BD04FEA37071CB512
:1053D00003B44FF010004FF01001BAF1000F06D0E7
:1053E000BCF1000FDCBF40F0080040F008014FF0B6
:1053F00000000FBCBDE810400BF1010BBBF1010F29
:1054000008BF5FEA170722BF12F1010211F1010183
:105410004FF0004143F1000300F0004043EA000078
:105420007047F9D35708D0E746EA06464FEA1646D2
:1054300013F1400F1FDD13F1200FDFBF16430A46A3
:10544000002120335B42BED0C3F1200746EA064666
:105450004FEA164602FA07F746EA070622FA03F26F
:10546000C3F1200701FA07F742EA070221FA03F124
:105470004FF00003A7E746EA020646EA06464FEA6F
:10548000164646EA0106BCBF46EA0646360C4FF011
:1054900000034FF000024FF0000194E72DE9804C2B
:1054A00070B49A46934691E8380007C831EA400C38
:1054B00048BF34EA430C03D5FFF7E6FDFFF780FF52
:1054C000F0BCBDE8008C2DE9804C70B49A46934640
:1054D00091E8380007C810F0804F08BF13F0804FE4
:1054E00003D100F005F8FFF76BFFF0BCBDE8008CBE
:1054F00020F07F4723F07F4C80EA030000F000405B
:1055000007EB0C03A3F57C53A3F1FE0392F0000F0D
:1055100000F0B38095F0000F00F077802DE901498D
:105520004FEA114021EA00484FEA144624EA0647B0
:1055300000FB06FC08FB06F607FB08F818EB06481C
:105540004CEB164C00FB07F718EB07484CEB1740E9
:105550004FEA124B22EA0B4E4FEA154625EA064760
:105560000BFB06FC0EFB06F607FB0EFE1EEB064EC3
:105570004CEB164C0BFB07F71EEB074E4CEB174B97
:1055800018EB0B0840F1000018EB0E0B58EB00086D
:1055900040F100008F1A4FF000014FF000063CBFB1
:1055A000C943661B14BFB5EB040C00213CBFC943C3
:1055B000F61B4FEA174427EA04454FEA1C472CEA3A
:1055C000074C04FB076205FB07F70CFB05F616EB1F
:1055D000074642EB174204FB0CFC16EB0C4642EB71
:1055E0001C421BEB060658EB020241414EEA8E0EAE
:1055F00046EA9E0601D5BDE80189B619524141EB44
:105600000101A3F10103BDE801894FEA144524EA31
:1056100005464FEA114721EA074C05FB07F406FB54
:1056200007F70CFB06F111EB074144EB174405FBB0
:105630000CFC11EB0C4144EB1C444FEA124722EAEC
:10564000074C05FB07F206FB07F70CFB06F616EB0B
:10565000074642EB174205FB0CFC16EB0C4642EBEF
:105660001C456A1854F1000148BF7047B6195241F1
:1056700041EB0101A3F10103704795F0000F37D012
:105680004FEA114221EA02464FEA144724EA074C46
:1056900002FB07F106FB07F70CFB06F414EB0744CB
:1056A00041EB174102FB0CFC14EB0C4441EB1C4199
:1056B0004FEA154725EA074C02FB07F506FB07F7FB
:1056C0000CFB06F616EB074645EB174502FB0CFCF8
:1056D00016EB0C4645EB1C42121951F1000148BF74
:1056E0007047B619524141EB0101A3F10103704724
:1056F0004FEA144524EA05464FEA114721EA074CD0
:1057000005FB07F106FB07F70CFB06F212EB07425D
:1057100041EB174105FB0CFC12EB0C4251EB1C4119
:105720004FF0000648BF7047921841EB0101A3F10A
:1057300001037047490050EAC12018BF04204A0DF8
:1057400018BF40F0010040F2FF72B2EB515F08BF9A
:1057500040F00200012808BF052070472DE9F74FEF
:10576000144694B00021C4E902111599079121F063
:105770000045C9498D4206DC1599C4E9000117B0FE
:105780000020BDE8F08FC549DFF814A3A9423CDD35
:105790000799C44E0029C44FC44A1599534619DDD0
:1057A00000F008FF554506D0C14AC24B00F002FF89
:1057B000C4E900010AE04FF0D352BE4B00F0FAFEFC
:1057C00032463B4600F0F6FEC4E9000117B0012066
:1057D000BDE8F08F00F080FB554506D0B44AB54BCC
:1057E00000F07AFBC4E900010AE04FF0D352B14B5C
:1057F00000F072FB32463B4600F06EFBC4E900014C
:1058000017B04FF0FF30BDE8F08FAB49A9421599B2
:1058100078DB21F0004183468846A84AA84B00F077
:10582000BFFD0022A74B00F057FB00F05FFD099081
:1058300000F08BFD06460F469C4A534600F0B0FD33
:1058400043465A4600F0AAFE80468A46984A994B3B
:105850003046394600F0A4FD2A0D01250B92424640
:10586000534600F09BFE032DC4E9000139D00B988C
:10587000C1F30A51401A05EB45111139814230DA62
:105880009148C346784400EB0510CDF80CA00C906D
:10589000D0E900233046394600F082FD02460B462F
:1058A000049106905846039900F084FE80468A468B
:1058B00002460B465846039900F07CFE049B069A6C
:1058C00000F078FE83460C9803913946D0E9022314
:1058D000304600F065FD5A46039B00F06BFE6D1CE0
:1058E000BDE707980028A2BF099817B0BDE8F08F60
:1058F000616881F000416160099817B04042BDE8DD
:10590000F08FFFE784461598C1F31301C0F30A50E6
:10591000A0F2F5304FEA601800F01F06C6F1200033
:10592000139000200690079041F4801E05206D46DC
:1059300076B1664A08EB00017A4452F8213002EB56
:105940008101B3404A68139922FA01F1194305E035
:105950005F4908EB0002794451F82210A1FB0E27A1
:10596000A1FB0C131A449A4234BF0123002303EB1A
:10597000070A05EB8003D3E901B70F448F4234BF18
:105980000121002193448B4411B1934502D903E0D6
:10599000934501D2012100E00021C3E901B7514440
:1059A00045F82010011EA0F10100C1DC0298059FFE
:1059B00000F10050800F12900298DDE9035680003C
:1059C00000F0C3FC834628460D9100F0D5FC6FF033
:1059D0001D0201F0B6F9CDE90E01304600F0CCFC15
:1059E0006FF03D0201F0ADF980468A46384600F07E
:1059F000C3FC6FF05D0201F0A4F90746424653462E
:105A0000119100F069FADDE90E2300F065FA5A46BB
:105A10000D9B00F061FA00250E465A4628460D9B64
:105A200000F0C8FDDDE90E2300F0C4FD42465346F8
:105A300000F0C0FD3A46119B00F0B0FDDFF898A0E1
:105A4000244A534600F0ACFC07468846234A244BC0
:105A50003146284600F0A4FC3A46434600F03CFAA2
:105A6000074688464FF0A84253463146284600F084
:105A700097FC3A46434600F02FFA159A12F0004F71
:105A800004D0129A81F0004152421292C4E90001FE
:105A9000129817B0BDE8F08FFB21E93F7CD9024096
:105AA000FB21F93F7370032E8A19A33B0000405479
:105AB0003163621A61B4D03DFB21394183C8C96D9D
:105AC000305FE43F0000E03F78150000F414000070
:105AD000D6140000182D4454FB21F93D3326A6119D
