:020000040800F2
:1000000090060020CD0100083D04000835040008DA
:100010003904000819030008DD070008000000008B
:10002000000000000000000000000000550500086E
:100030001D030008000000003F04000841060008FE
:10004000E7010008E7010008E7010008E7010008F0
:10005000E7010008E7010008E7010008E7010008E0
:10006000E7010008E7010008E7010008E7010008D0
:10007000E7010008E7010008E7010008E7010008C0
:10008000E7010008E7010008E7010008E7010008B0
:10009000E7010008E7010008E7010008E7010008A0
:1000A000E7010008E7010008E7010008E701000890
:1000B000A5060008E7010008E7010008E7010008BD
:1000C000E7010008E7010008E7010008E701000870
:1000D000E7010008E7010008E7010008E701000860
:1000E000E7010008E7010008E7010008E701000850
:1000F000E7010008E7010008E7010008E701000840
:10010000E7010008E7010008E7010008E70100082F
:10011000E7010008E7010008E7010008E70100081F
:10012000E7010008E7010008E7010008E70100080F
:1001300000F002F800F03AF80AA090E8000C8244BF
:100140008344AAF10107DA4501D100F02FF8AFF29C
:10015000090EBAE80F0013F0010F18BFFB1A43F0A5
:1001600001031847CC070000EC070000103A24BF39
:1001700078C878C1FAD8520724BF30C830C144BF0C
:1001800004680C607047000000230024002500264E
:10019000103A28BF78C1FBD8520728BF30C148BFEA
:1001A0000B6070471FB51FBD10B510BD00F06EF895
:1001B0001146FFF7F7FF00F063FB00F0A0F803B46F
:1001C000FFF7F2FF03BC00F00BFB0000094880477B
:1001D00009480047FEE7FEE7FEE7FEE7FEE7FEE729
:1001E000FEE7FEE7FEE7FEE704480549054A064B41
:1001F000704700004506000831010008900000200B
:10020000900600209002002090020020704700001D
:100210000FB4044910B503AA029800F009F810BC05
:100220005DF814FB28000020704770477047704746
:10023000074B70B50D467B4400F011F80446284684
:1002400000F020F810B14FF0FF3070BD204670BDB7
:100250002706000001694A1C02610878704700B552
:100260008FB0CDE901310021059105497944CDE9EF
:1002700003101146684600F02EF80FB000BD0000D4
:10028000E5FFFFFF007B00F080007047754600F03F
:100290003FF8AE4605006946534620F00700854604
:1002A00018B020B5FFF7A0FFBDE820404FF00006D2
:1002B0004FF000074FF000084FF0000B21F007014E
:1002C000AC46ACE8C009ACE8C009ACE8C009ACE891
:1002D000C0098D4670472DE9F04106460024D6E955
:1002E0000170F5688046304603E04146B847641C1B
:1002F0003046A8470028F8D12046BDE8F08110B567
:100300000446AFF300802046BDE81040FFF757BF1A
:10031000004870473000002000BFFEE770472DE91D
:10032000F04102460025002600200023002400277B
:1003300091F803C00CF00F0591F803C00CF0100CFD
:10034000BCF1000F03D091F802C04CEA050591F80A
:1003500000C0BCF1000F31D0146800202BE04FF03A
:10036000010C0CFA00F3B1F800C00CEA03069E423F
:1003700020D183004FF00F0C0CFA03F7BC4305FAB1
:1003800003FC4CEA040491F803C0BCF1280F06D129
:100390004FF0010C0CFA00FCC2F814C00AE091F80E
:1003A00003C0BCF1480F05D14FF0010C0CFA00FC62
:1003B000C2F810C0401C0828D1D31460B1F800C0A6
:1003C000BCF1FF0F34DD546800202EE000F1080C72
:1003D0004FF0010808FA0CF3B1F800C00CEA03066C
:1003E0009E4221D183004FF00F0C0CFA03F7BC435F
:1003F00005FA03FC4CEA040491F803C0BCF1280F91
:1004000005D100F1080C08FA0CF8C2F8148091F834
:1004100003C0BCF1480F07D100F1080C4FF00108F0
:1004200008FA0CF8C2F81080401C0828CED354609B
:10043000BDE8F08100BFFEE700BFFEE770477047F0
:1004400029B1064AD2690243044BDA6104E0034A47
:10045000D2698243014BDA6170470000001002400C
:1004600029B1064A92690243044B9A6104E0034AA7
:1004700092698243014B9A6170470000001002406C
:1004800030B500210022002400232D4D6D6805F0B9
:100490000C0121B1042905D0082923D105E0294DFB
:1004A000056022E0274D05601FE0254D6D6805F4CD
:1004B0007012234D6D6805F48034022505EB9242DD
:1004C0001CB9214D554305600BE01D4D6D6805F4C9
:1004D00000351DB11C4D5543056002E0194D5543D3
:1004E000056002E0174D056000BF00BF144D6D6848
:1004F00005F0F0010909154D6B5C0568DD404560AC
:100500000F4D6D6805F4E061090A104D6B5C45689C
:10051000DD4085600A4D6D6805F46051C90A0B4DD8
:100520006B5C4568DD40C560054D6D6805F4404174
:10053000890B074D6B5CC568B5FBF3F5056130BDF4
:100540000010024000127A0000093D001400002053
:1005500024000020704710B500F002F810BD000024
:100560000CB50020019000903348006840F48030C2
:100570003149086000BF3048006800F40030009046
:100580000198401C0190009818B90198B0F5A06F2F
:10059000F1D12948006800F4003010B1012000902A
:1005A00001E0002000900098012843D12348006812
:1005B00040F01000214908600846006820F0030060
:1005C00008600846006840F0020008601A48406869
:1005D000194948600846406848600846406840F449
:1005E000806048600846406820F47C1048600846F7
:1005F000406840F4E81048600846006840F08070A9
:10060000086000BF0C48006800F000700028F9D0B6
:100610000948406820F003000749486008464068E0
:1006200040F00200486000BF0348406800F00C0042
:100630000828F9D10CBD0000001002400020024043
:100640007047000010B51348006840F001001149E0
:10065000086008464068104908400E49486008464E
:1006600000680E4908400B4908600846006820F4FD
:10067000802008600846406820F4FE0048604FF47F
:100680001F008860FFF767FF4FF0006004490860B3
:1006900010BD0000001002400000FFF8FFFFF6FE52
:1006A00008ED00E010B50121880700F00EF80128E0
:1006B00005D1034908700121800700F003F810BD3F
:1006C0002C000020CA430282704730B50246002049
:1006D00000230024158A05EA0103958905EA01042F
:1006E00013B10CB1012000E0002030BD21B182899E
:1006F00042F40052828104E082894DF6FF731A4071
:10070000828170472DE9F04786B005460E460024E9
:10071000A24600BFA1460027B08900B100BF2F4606
:100720002C8A4CF6FF700440F08804432C82AC897C
:100730004EF6F3100440B0883189084371890843AC
:100740000443AC81AC8A4FF6FF400440B0890443B7
:10075000AC8201A8FFF794FE1F48874202D1DDF862
:1007600010A001E0DDF80CA0A88900F4004040B121
:100770000AEBCA0000EB0A1031684900B0FBF1F83F
:1007800007E00AEBCA0000EB0A1031688900B0FBF1
:10079000F1F86420B8FBF0F004012009642101FBAA
:1007A0001089A88900F4004040B1322000EBC90054
:1007B000B0FBF1F000F00700044308E0322000EB4A
:1007C00009106421B0FBF1F000F00F0004432C810C
:1007D00006B0BDE8F08700000038014000BFFEE72A
:1007E00000BF704710B500F049F800F063F810BD85
:1007F00070B5034600220D4D2D680D4EB5FBF6F584
:1008000005FB03F40B4D69680CE00A4D68688842EB
:1008100008D0884202D9451A2A4402E0451E6D1AC2
:100820002A440146A242F0D370BD0000000000201F
:1008300040420F00001000E00748006840F0807060
:10084000054908600020054948600846006840F0F6
:100850000100086070470000FCED00E0001000E0BF
:1008600000BF054A128802F04002002AF9D0C2B245
:10087000014B1B1D1A807047004400407047000068
:10088000FFF7B0FFFFF7D8FF00BF06A0FFF7C0FCDF
:100890000548FFF7ADFF05A0FFF7BAFC0448FFF7D6
:1008A000A7FFF2E7310D0A0080841E00320D0A0016
:1008B00000093D0000B585B001210420FFF7D0FDFF
:1008C00001214804FFF7BCFD0420ADF8100003200F
:1008D0008DF8120018208DF8130004A91248FFF7B4
:1008E0001EFD0820ADF8100004208DF8130004A9A7
:1008F0000D48FFF714FD4FF4E13000900020ADF8F3
:100900000400ADF80600ADF80800ADF80C000C20AE
:10091000ADF80A0069460548FFF7F4FE01210348D7
:10092000FFF7E4FE05B000BD0008014000440040B0
:100930005009000800000020300000006C01000891
:1009400080090008300000206006000088010008CF
:1009500000A24A040000000000000000010203049D
:100960000607080900000000010203040102030455
:100970000607080902040608000000000000000045
:0400000508000131BD
:00000001FF
