:020000040800F2
:100000000005002045010008F112000875110008E4
:10001000ED120008D5010008D91600080000000004
:10002000000000000000000000000000451400086F
:10003000D90100080000000021130008791400080D
:100040005F0100085F0100085F0100085F01000810
:100050005F0100085F0100085F0100085F01000800
:100060005F0100085F0100085F0100085F010008F0
:100070005F0100085F0100085F0100085F010008E0
:100080005F0100085F0100085F0100085F010008D0
:100090005F0100085F0100085F0100085F010008C0
:1000A0005F0100085F0100085F0100085F010008B0
:1000B0005F0100085F0100085F0100085F010008A0
:1000C0005F0100085F0100085F0100085F01000890
:1000D0005F010008C91600085F0100085F01000801
:1000E0005F0100085F0100085F0100085F01000870
:1000F0005F0100085F0100085F0100085F01000860
:100100005F0100085F0100085F0100085F0100084F
:100110005F0100085F0100085F0100085F0100083F
:100120005F0100085F0100085F0100085F0100082F
:10013000DFF80CD000F03CF80048004751170008E9
:10014000000500200648804706480047FEE7FEE716
:10015000FEE7FEE7FEE7FEE7FEE7FEE7FEE7FEE777
:10016000D9140008310100080649074A08685043BD
:1001700043F23902104408604008704701490860A2
:1001800070470000000000206D4EC641D2B201E071
:1001900000F8012B491EFBD270470022F6E710B58C
:1001A00013460A4604461946FFF7F0FF204610BDE5
:1001B000064C074D06E0E06840F0010394E80700B4
:1001C00098471034AC42F6D3FFF7B6FFECB4000802
:1001D0000CB50008FEE70000704700007047000003
:1001E000014690F82100022813D10868D1E90FC315
:1001F000026822F00E020260026822F00102026030
:10020000012000FA03F2CCF8042081F8210000203C
:1002100002E0042088630120002281F8202070473A
:1002200080B590F82110022927D1026840F2040C11
:100230001368C4F2020C23F00E03136013680CF170
:100240007C018A4223F0010111601AD940F2084171
:10025000C4F202018A4247D040F21C41C4F20201BA
:100260008A4245D040F23041C4F202018A4243D171
:100270004FF48073CCF8003457E0042181630120EF
:1002800080BD4321C4F202018A420EDD6B21C4F21B
:1002900002018A421BDC4421C4F202018A4239D0A5
:1002A0005821C4F202018A4231E00821C4F202015D
:1002B0008A4232D01C21C4F202018A4232D030215B
:1002C000C4F202018A4222D14FF480722BE06C21E9
:1002D000C4F202018A4222D08021C4F202018A4281
:1002E00015D14FF080721EE00123CCF800341CE0E1
:1002F0001023CCF8003418E00CF588614FF48033FB
:100300008A4208BF4FF48053CCF800340DE04FF41C
:10031000803208E04FF4805205E0012203E04FF400
:10032000801200E01022CCF80020416B4FF4807264
:10033000028401B18847002080BD0000B0B50446AA
:1003400000F00AF9054640F21000C2F20000007801
:10035000611C18BF044400BF00F0FEF8401BA0421F
:10036000FAD3B0BD2DE9F04F83B00C68002C00F03B
:10037000EA80A0F18042A2F5843240F2004E4FEABA
:10038000B22241F60047C4F2010E0092C4F2010706
:10039000062200254FF001094FF0000B4FF0000A34
:1003A000B84208BF0522019209E000BF0C680BF1BA
:1003B000010B34FA0BF205F1040500F0C48009FAD0
:1003C0000BF814EA080CF1D04C684FF6FF72C1F23A
:1003D0001002944210DC122C50D8DFE804F0330AEB
:1003E00041454F4F4F4F4F4F4F4F4F4F4F4F4F483C
:1003F0004C00D1F80CA041E04FF6FF72C1F221028F
:1004000094420FDC0022C1F2110294421AD0002261
:10041000C1F21202944215D00022C1F2210294428C
:1004200010D02BE00022C1F2220294420AD0002216
:10043000C1F23102944205D00022C1F2320294424C
:100440001CD100BF8C6844B1012C14BFC0F81480CB
:10045000C0F810804FF0080A10E04FF0040A0DE0D9
:10046000CC6804F1080A09E04FF0000A06E0CC6805
:1004700004F1040A02E0CC6804F10C0A2C46074699
:10048000BCF5807F24BF203C04373A680F2303FA71
:1004900004F6B2430AFA04F422433A60CA79D20657
:1004A0007FF584AF41F21804C4F2020422684FF6CB
:1004B000084842F0010222602268CFF6FF7802F07D
:1004C00001020292029A2BF00302724452F8084091
:1004D00005F00C0603FA06F7009BBC43019F052BB1
:1004E00038BF1F4607FA06F6344342F808404C6806
:1004F000E203DEF8002054BF22EA0C0742EA0C07B0
:10050000A203CEF80070DEF8042054BF22EA0C07E4
:1005100042EA0C07E202CEF80470DEF8082054BF6D
:1005200022EA0C0742EA0C07A20240F20C44CEF881
:100530000870C4F20104226854BF22EA0C0242EAA5
:100540000C02226032E703B0BDE8F08F002A08BF3A
:10055000090401617047000040F2F800C2F2000097
:100560000068704740F2100040F2F801C2F200004B
:10057000C2F2000100780A68104408607047000069
:1005800080B542F20000C4F20200016841F010019F
:100590000160032000F066F8002000F005F800F08C
:1005A0002BF8002080BD0000B0B540F21002C2F26E
:1005B000000240F20C011278C2F200014FF47A738B
:1005C0000968B3FBF2F20446B1FBF2F1084600F011
:1005D0002FFC0F2C4FF001050CD858B94FF0FF300D
:1005E00021460022002500F02DF840F21400C2F24E
:1005F000000004602846B0BD82B041F21800C4F289
:1006000002000168022241F001010160016801F06D
:10061000010101910199416841F0805141604068B8
:1006200000F08050009000980420C4F2010001689E
:1006300062F31A61016002B07047000080B501F0FA
:100640004DF880BD70B514460D46064601F056F8CB
:100650002946224600F04EFE0146304601F056F88B
:1006600070BD000080B501F063F880BD2DE9F04356
:1006700081B0002800F0898042F20008C4F202082C
:100680000446D8F800000D4600F0070088420CD25E
:10069000D8F8000020F007002843C8F80000D8F878
:1006A000000000F00700A8426FD1206841F2040961
:1006B0008107C4F2020917D5410705D5D9F8001002
:1006C00041F4E061C9F80010010705D5D9F8001020
:1006D00041F46051C9F80010D9F80010A26821F067
:1006E000F0011143C9F80010C00745D1D8F8000047
:1006F00000F00700A8420CD9D8F8000020F007004D
:100700002843C8F80000D8F8000000F00700A8420D
:100710003BD12068410707D5D9F80010E26821F4E1
:10072000E0611143C9F80010000708D5D9F80000AE
:10073000216920F4605040EAC100C9F8000000F0CF
:1007400079F8D9F8001041F6F242C1F30311C0F66E
:100750000002515C40F20C0220FA01F140F2140058
:10076000C2F200000068C2F200021160FFF71CFF35
:10077000002001B0BDE8F0836068022809D001289C
:1007800029D159F8041C890307D4012001B0BDE820
:10079000F08359F8041C8901F7D5D9F8001021F02D
:1007A00003010843C9F80000FFF7D6FE064641F2F0
:1007B000883700BFD9F80000616800F00C00B0EB8A
:1007C000810F93D0FFF7C8FE801BB842F2D90320F7
:1007D00001B0BDE8F08359F8041C8907D5D5DCE7E2
:1007E00040F20C00C2F200000068704780B5FFF7CD
:1007F000F7FF41F20401C4F20201096841F6025216
:10080000C1F30221C0F60002515CC84080BD000067
:1008100080B5FFF7E5FF41F20401C4F20201096867
:1008200041F60252C1F3C221C0F60002515CC84039
:1008300080BD000041F2040CC4F2020CDCF8003070
:1008400003F00C00082841F20020C0F27A0018BF23
:100850007047C3F383420AA18A5CD90305D440F6EA
:100860000010C0F23D0050437047DCF8001008A3B0
:10087000C1F34041595C5043B0FBF1F0704700BFF9
:1008800002030405060708090A0B0C0D0E0F1010D1
:10089000010200002DE9F04182B0002800F0C48080
:1008A0000446007841F20006C007C4F2020643D0B5
:1008B000706800F00C00042817D0706800F00C007D
:1008C000082802D17068C0030FD465682DB1B5F552
:1008D000A02F10D0B5F5803F11D0306820F48030C3
:1008E0003060306820F480200CE03068800323D52D
:1008F000606808BB98E0306840F480203060306861
:1009000040F480303060FFF727FE002D054610D000
:100910003068800310D4FFF71FFE401B6428F7D90E
:1009200004E100BFFFF718FE401B64284FF00300EE
:1009300077D830688003F5D42078800718D57068A0
:1009400010F00C0F07D0706800F00C00082826D1BA
:100950007068C00323D43068800702D5206901285D
:1009600062D13068616920F0F80040EAC10030606F
:10097000207800073DD5A06938B30020C4F242209A
:100980000121C0F88014FFF7E7FD0546706A800773
:100990002DD4FFF7E1FD401B0228F7D9C6E02069FE
:1009A000002840F20000C4F2422000F096800121AD
:1009B0000160FFF7D1FD054630688007D1D4FFF70D
:1009C000CBFD401B0228F7D9B0E00020C4F2422042
:1009D0000021C0F88014FFF7BFFD0546706A80074C
:1009E00007D5FFF7B9FD401B0228F7D99EE000F0BC
:1009F00099FC207840071BD4E5698DB1706800F040
:100A00000C00082847D1012D0ED07068216A00F42F
:100A100080328A4208D1616A00F47010884203D1A2
:100A2000002002B0BDE8F081012002B0BDE8F081F5
:100A3000F06910F0805808D1F06940F08050F06102
:100A4000F06900F080500190019847F20007C4F26D
:100A500000073868C00510D4386840F480703860EA
:100A6000FFF77AFD054600BF3868C00505D4FFF7DB
:100A700073FD401B6428F7D958E0E5681DB1052DCA
:100A80003CD0012D3ED0306A20F001003062306A47
:100A900020F0040039E00027C4F242270020386625
:100AA000FFF75AFD022D05460CD100BF30688001CA
:100AB00054D5FFF751FD401B02284FF00300F5D934
:100AC000AFE700BF30688001AAD5FFF745FD401BA6
:100AD00002284FF00300F5D9A3E700210160FFF7DA
:100AE0003BFD0546306880077FF542AFFFF734FDD8
:100AF000401B02284FF00300F4D992E7306A40F01F
:100B000004003062306A40F001003062FFF724FDDB
:100B1000002D054641F2883714D000BF306A8007A7
:100B200013D4FFF719FD401BB842F7D9032002B0D8
:100B3000BDE8F081FFF710FD401BB8424FF0030005
:100B40003FF66FAF306A8007F4D4B8F1000F7FF43E
:100B500053AFF06920F08050F0614DE7206AB0F5A6
:100B6000803F05D17168A26821F4003111437160A2
:100B70007168626A21F474111043084370600120A7
:100B80003866FFF7E9FC0446306880013FF548AF5E
:100B9000FFF7E2FC001B02284FF00300F4D940E706
:100BA00070B538B10446406A30B10020206104F1CC
:100BB000140007E0012070BD6068B0F5827F03D0AB
:100BC00004F11C00002101600026A66294F8510087
:100BD00020B9204684F8506000F038F8022084F8EC
:100BE000510094E8071001F48271036802F4044292
:100BF00023F040030360236911440CF400621144A4
:100C000003F002026369114403F00102A369E5697C
:100C1000114403F40072114405F03802256A1144AE
:100C200005F08002A56A114305F4005211430160EA
:100C3000042101EA13414160C16921F40061C161ED
:100C40000120666584F85100304670BD80B586B0DD
:100C5000016843F60040C4F2000081424FF00001F9
:100C6000CDE90411CDE9021101D006B080BD41F2F9
:100C70001801C4F202014A6800F5504042F40042F3
:100C80004A604A6802F400420192019A0A6842F0FE
:100C900008020A60096801F0080101910199282100
:100CA0000291022103910321059102A9FFF75AFB4A
:100CB00006B080BD2DE9F04381B0044690F85000A5
:100CC000012803D1022001B0BDE8F0834FF00109F3
:100CD0001D4616460F4684F85090FFF73DFC94F8E9
:100CE000511001295DD18046002F4FF0010018BF3F
:100CF000002E00F09580032084F8510000206065EC
:100D00002763A686E686A063A087E087A168C4E97A
:100D10001000B1F5004F08D12068016821F04001B2
:100D20000160016841F48041016020680168490662
:100D300003D4016841F0400101606168731EE268FC
:100D4000B1FA81F1B3FA83F349095B09B2F5006F97
:100D500041EA030127D139B1216B0988C160B81C70
:100D60002063E08E0138E086E08E002841D06E1CC2
:100D70000AE000BF216B31F8022BC2602163E08ED4
:100D80000138E086E08EA0B3206881688907F1D43D
:100D9000FFF7E2FB002EF5D0A0EB0800A842F1D34C
:100DA00025E002203CE039B139780173206B013035
:100DB0002063E08E0138E086E08ED0B16E1C0AE040
:100DC000216B09780173206B01302063E08E0138BC
:100DD000E086E08E68B1206881688907F0D4FFF76B
:100DE000BBFB002EF5D0A0EB0800A842F1D30320F6
:100DF00016E020462946424600F0AAFA00281CBF09
:100E000020206065A06838B9002000902068C16883
:100E10000091806800900098606D002818BF012044
:100E2000002184F8519084F8501001B0BDE8F0839F
:100E300080B500F009FB80BD7047000070470000DE
:100E4000B0B582B0016805460868CA684C6900F010
:100E50002F03202B02F0200305D123B1284600F0F8
:100E600067FB02B0B0BD5FEA007C1EBF04F0010E5C
:100E700002F4907414EB0E0424D12B6B1040C206C4
:100E800017D5012B15D10020019008680190486802
:100E900001900198486940061CD4A88DEA8DEB8D1D
:100EA000002B1CBF801A5FEA004240F09A8002B01B
:100EB000B0BD010636D44006F9D5284600F02CFB1B
:100EC00002B0B0BDC10718BF12F480712FD1410725
:100ED00033D439E0A86B0268526893B2002BE6D095
:100EE000AC8DA342E3D2EA858269202A16D0CA6873
:100EF00022F48072CA604A6922F001024A614A699A
:100F000022F040024A61202285F83E2000222A6316
:100F1000CA6822F01002CA60FFF762F9A88DE98D55
:100F2000401A6FE0284600F0A5FB02B0B0BD296C66
:100F300041F001012964410706D5BEF1000F03D03D
:100F4000296C41F002012964810706D5BEF1000F2A
:100F500003D0296C41F004012964BCF1000F06D5CF
:100F60005EEA030103D0296C41F008012964296C71
:100F700000299CD01040800602D5284600F0D8FAFF
:100F800028684069296C00F0400001F00801401811
:100F900020D0284600F0AAFA28684169490614D5ED
:100FA000416921F040014161A86B70B141F2DD411E
:100FB000C0F600014163FFF733F900283FF477AF33
:100FC000A86B416B884702B0B0BD2846FFF736FFDB
:100FD00002B0B0BD2846FFF731FF0020286402B000
:100FE000B0BDCA6822F49072CA604A6922F0010258
:100FF0004A61202285F83E2000222A63CA6822F036
:101000001002CA6081B22846FFF716FF02B0B0BDD9
:10101000002804BF0120704710B5044690F83D0039
:1010200028B9002084F83C00204600F021F8242054
:1010300084F83D002068C16821F40051C160204659
:1010400000F0D0FA2068016921F490410161416902
:1010500021F02A014161C16841F40051C1600020C2
:101060002021206484F83D1084F83E1010BD00005B
:1010700070B586B0006844F20041C4F20001002659
:1010800088420596CDE9036602963FD043F60001FB
:10109000C4F20101884266D141F21800C4F2020094
:1010A000016840F6000441F4804101600168C4F227
:1010B000010401F4804101910199016802AD41F000
:1010C000040101600068294600F0040001900198C5
:1010D0004FF40070029002200390032005902046F8
:1010E000FFF740F94FF4806002900020CDE9030043
:1010F00020462946FFF736F9252000210022FFF778
:10110000A1FA2520FFF79AFA06B070BD41F2180047
:10111000C4F20200416840F6000441F4003141602D
:101120004168C4F2010401F40031019101990168A0
:1011300002AD41F0040101600068294600F004009E
:101140000190019804200290022003900320059052
:101150002046FFF707F90820CDE902062046294678
:101160000496FFF7FFF806B070BD0000704700005E
:1011700070470000FEE700002DE9F04786B04FF011
:10118000000A41F21800CDE904AACDE902AAC4F28E
:101190000200016840F6004941F010010160016859
:1011A000C4F2010901F0100101910199016809F5EA
:1011B000806541F0200101600168002201F02001FA
:1011C0000191019901684FF4005641F0040101605A
:1011D000016801F0040101910199016841F00801E1
:1011E000016000684FF4005100F008000190019880
:1011F0002846FFF7ABF948464FF4607100224FF4E0
:101200006078FFF7A3F9029602AE0124032728466F
:101210003146CDE9034A0597FFF7A4F84846314621
:10122000CDE90284CDE904A7FFF79CF806B0BDE83C
:10123000F087000080B540F2180043F6004CC2F27F
:101240000000C4F2000C4FF482724FF400430021FE
:101250004FF4007EC0E900C20A22C0E90231C0E9B1
:101260000411C0E906E1C0E90811C0E90A12FFF75C
:1012700097FC002818BFFEF7B1FF80BD80B540F293
:10128000700043F60001C2F20000C4F20101002325
:101290004FF00C0C4FF4E13280E80E00C0E903334C
:1012A000C0E905C3C361FFF7B3FE002818BFFEF70E
:1012B00095FF80BD80B540F2B40044F20041C2F217
:1012C0000000C4F2000100234FF0080C4FF4E1329B
:1012D00080E80E00C0E90333C0E905C3C361FFF72E
:1012E00097FE002818BFFEF779FF80BDFEE70000DB
:1012F0007047000000F0070080F00703042B28BFB0
:1013000004234FF0FF3C03380CFA03F338BF0020EE
:10131000994381400CFA00F022EA0000084370472C
:101320007047000081B040F20C00C2F2000000687B
:1013300044F6D351C1F26201A0FB0101480A0090BA
:1013400000BF0098411E00280091F9D101B07047FC
:1013500010B513460A468021044600F00BF8002819
:101360000FBF0020606D40F02000606518BF0320B3
:1013700010BD00002DE9F04381B01E4690460D4699
:101380008146FFF7E9F8301A00EB0807FFF7E4F8A9
:1013900040F20C01C2F200010968C1F3CB3179437C
:1013A0000091D9F8001089682940A94219D1064650
:1013B00008F1010406E000BFD9F800008068284069
:1013C000A8420ED1002CF7D0FFF7C6F8801BB84218
:1013D0000BD200980099002808BF0746481E0090CD
:1013E000EAE7002001B0BDE8F083D9E900014268D6
:1013F000B1F5827F22F0E00242600BD1D9F80810EB
:10140000B1F5004F02D0B1F5806F03D1016821F032
:1014100040010160D9F82810B1F5005F07D10168DB
:1014200021F400510160016841F400510160012084
:1014300089F85100002089F85000032001B0BDE870
:10144000F083000070470000B0B501380024B4EB11
:10145000106F1CBF0120B0BD4EF21005CEF200058A
:1014600068604FF0FF300F2100F050F90720AC60AA
:1014700028602046B0BD000080B5FFF773F880BD3E
:1014800070B590B006AC20462821FEF786FE0120FC
:1014900006900A904FF4E01000254FF480310226A8
:1014A0000F9020460595CDE90355CDE90155CDE9CD
:1014B0000715CDE90D61FFF7EDF90F20CDE9010624
:1014C0004FF48060CDE9040501A802210395FFF7E0
:1014D000CDF810B070BD00007047000080B5406AC4
:1014E0000021C185C184FFF7A9FC80BD0168CA68DD
:1014F00022F49072CA604A6922F001024A61026BCA
:10150000012A03D1CA6822F01002CA60202180F8A3
:101510003E1000210163704780B50168CA6822F05F
:101520004002CA60202180F83D10FFF721FE80BDF7
:1015300080B582B090F83E1022291ED18268B2F5A3
:10154000805F02D10169002940D0816AB2F5805FD5
:1015500007D00AB9026922B10268526802F07F021C
:1015600001E0026852680A700121826A11448162B6
:10157000C18D01390A04C18501D002B080BD016866
:10158000CA6822F02002CA60CA6822F48072CA6067
:101590004A6922F001024A61202280F83E20026B53
:1015A000012A1BD100220263CB6823F01003CB6019
:1015B0000B68DB0605D501920A6801924968019122
:1015C0000199818DFFF738FC02B080BD0168826A05
:1015D00049686FF35F2111800221C6E7FFF7C6FD5E
:1015E00002B080BD10B504460068D4E902C2236988
:1015F000016921F4405111430161616943EA0C0220
:101600001143C26841F20C639A431143C1604169BE
:10161000A26921F44071114343F60002C4F20102B1
:101620009042416102D0FFF7E1F801E0FFF7F0F8E6
:101630006268192148439100B0FBF1F048F21F5154
:10164000C5F2EB11A0FB01235A096FF0630302FB03
:101650000300322303EB0010A0FB0101F02303EA97
:101660005113206803EB0212C1F34311114481604E
:1016700010BD000090F83D10212923D18168B1F5FB
:10168000805F01D1016931B1016A02684B1C0362BC
:101690000978516007E0016A036831F8022B6FF3A3
:1016A0005F225A600162C18C01390A04C18418BFEB
:1016B00070470068C16821F08001C160C16841F0D5
:1016C0004001C1607047000080B540F27000C2F276
:1016D0000000FFF7B5FB80BDFEE70000002848BF13
:1016E000704700F01F01012202FA01F14EF20012D0
:1016F0004009CEF2000242F8201070474EF60C501E
:10170000CEF200000068C0F3022070474EF614537A
:1017100000F00F02CEF2000309011A4400F1604309
:10172000B0F1FF3FC8BF03F564421170704700007D
:101730004EF60C51CEF200010A684FF6FF031A4034
:1017400060F30A2242F0806040F0FD70086070474C
:1017500084B0FEF715FFFFF793FEFFF70DFDFFF7CF
:101760008DFDFFF767FDFFF7A5FD00F0E7F941F2FA
:101770000000C4F201004FF400510122FEF7E6FE22
:1017800046F267670024C6F2666700BF0020039434
:1017900000F0A2F84FF47A70FEF7D0FD40F204009A
:1017A000C2F20000D0E90030002100904FF47840F0
:1017B0000190002041A24FF6FF75029500F032F92A
:1017C0004FF47A70FEF7BAFD6FF0300A3FA600BF03
:1017D000FEF7CAFCC11700EB516121F07F01A0EBBD
:1017E0000108FEF7C1FCC11700EB916121F03F0138
:1017F000A0EB0109FEF7B8FC80FB0712111101EB09
:10180000D27101EB8101A0EBC10BFEF7ADFC80FBB7
:101810000712111101EBD27101EB8101A0EBC1059F
:10182000FEF7A2FC4AF6AB21C2F6AA2180FB011208
:1018300002EBD27101EB4101A0EB410036F8104000
:101840001FFA8BF2ABB21FFA88F01FFA89F10094ED
:1018500000F01CF96420FEF771FD1AF1010AB7D3FC
:101860004FF47A70FEF76AFD039C84F00104E0B245
:1018700000F0A0F94FF47A70FEF760FD43F276466F
:101880000020002180228023C0F60006009600F090
:1018900091F84FF4FA60FEF751FD42F276460020CF
:1018A000282180221023C0F60006009600F082F85E
:1018B0004FF47A70FEF742FD68E700BF68656C6C14
:1018C0006F2C20776F726C6400000000FF0700F837
:1018D0001F00E007E0FF000080B582B084460020D2
:1018E00000218022A023CDF800C000F0CFF802B084
:1018F00080BD00002DE9F04F83B0054640F6004062
:1019000091468A46C4F201004FF4007100221E463F
:10191000FEF71CFEF7B2C6F30724E8190AEB040130
:101920000138013982B28BB22846514600F072F973
:1019300001949CB3DDE90D420199A9F120004843CF
:101940004FEA14284FEA12294FF0000B0DF10A0656
:10195000009004E001980BF1010B83451ED0002F8D
:10196000F8D000980C99584431F810A000250BE0ED
:101970000E988DF808908DF8090002A8022100F059
:1019800093F90135AF42E5D00AFA05F00004EFD52E
:101990008DF80A808DF80B403046EFE740F60040A6
:1019A000C4F201004FF400710122FEF7CFFD03B035
:1019B000BDE8F08F2DE9F04381B040F60048C4F255
:1019C000010816460F46044640464FF400710022B7
:1019D0001D46FEF7BBFD7F2C98BF9F2F02D901B09B
:1019E000BDE8F08330198028F9D8E919A029F6D884
:1019F00001380139DDF8209082B28BB22046394699
:101A000000F008F906FB05F0400081B2484600F0FE
:101A10004BF940464FF400710122FEF797FD01B0EB
:101A2000BDE8F0832DE9F04F83B09B4613784BB3AC
:101A3000DDE90DA90D460646CBF307275FFA8BF4C7
:101A400002F101080FE000BF0C98A9B2CDE9000A2D
:101A5000B0B2DAB25B46CDF80890FFF74BFF2644F0
:101A600018F8013B73B1B0B220448028ECD33D4458
:101A7000A8B238449F2805D8D8B220284FF00006D5
:101A8000E2D1EDE703B0BDE8F08F00002DE9F047AB
:101A900082B040F60048C4F2010814460D460646DE
:101AA00040464FF4007100221F46FEF74FFD7F2E87
:101AB00098BF9F2D02D902B0BDE8F087A0198028F9
:101AC00007EB050088BFC6F18004A02888BFC5F1D8
:101AD000A0073019E91901380139DDF8289082B2E0
:101AE0008BB2304629461FFA84FABCB200F092F855
:101AF00099FA99F0ADF8060040464FF48071012242
:101B000004FB0AF6FEF722FD7EB140F21804C2F291
:101B100000040DF1060500BF204629460222FF23DE
:101B2000013EFFF7C7F8002EF6D140464FF4007192
:101B30000122FEF70BFD02B0BDE8F087F0B581B0E1
:101B400040F60044C4F2010420464FF40071002224
:101B5000FEF7FCFC00F048F84BF27640C0F60000BF
:101B6000461C0F2709E000BFB0780336FF2808BFE6
:101B70004FF4FA70FEF7E2FB013F38060DD03078E3
:101B800000F078F875782806EED4023630462946FB
:101B900000F08AF82E44013FEFE716F8017B002F92
:101BA000EBD120464FF400710122FEF7CFFC01B0CB
:101BB000F0BD0000B0B540F60045C4F20105044692
:101BC00028464FF400710022FEF7C0FC2120002CB3
:101BD00008BF202000F04EF828464FF40071012283
:101BE000FEF7B4FCB0BD000010B540F60044C4F2EE
:101BF0000104204680210022FEF7A8FC0A20FEF7FF
:101C00009DFB204680210122FEF7A0FC0A20FEF762
:101C100095FB10BD70B582B00024013001320194F3
:101C20008D1C010A8DF80500100A8DF806002A2087
:101C30009E1C8DF804108DF8072000F01BF801ACF5
:101C40002046042100F030F8280A8DF80400300AFC
:101C50008DF806002B208DF805508DF8076000F0F8
:101C600009F82046042100F01FF82C2000F002F8AB
:101C700002B070BD80B582B08DF8070040F600401C
:101C8000C4F201004FF480710022FEF75FFC40F2C5
:101C90001800C2F200000DF107010122FF23FFF737
:101CA00009F802B080BD0000B0B5054640F600401E
:101CB0000C46C4F201004FF480710122FEF746FC8D
:101CC00040F21800C2F2000029462246FF23FEF728
:101CD000F1FFB0BD02E008C8121F08C1002AFAD106
:101CE00070477047002001E001C1121F002AFBD19C
:101CF0007047000000000000000001020304060716
:101D000008090000000001020304000000000000B8
:101D100000000000000000000000000000000010B3
:101D20000010001000100010001000000010000053
:101D3000000000280028002800000000000000002B
:101D400000000000000000240024007C0024004863
:101D5000007C00480048000000000038005400509B
:101D60000038001400540054003800100000002017
:101D700000540058003000280054001400080000EF
:101D8000000000100028002800100034004800481F
:101D900000340000000000100010001000000000DF
:101DA00000000000000000000000000800100020FB
:101DB000002000200020002000200010000800204B
:101DC00000100008000800080008000800080010C3
:101DD0000020001000380010002800000000000063
:101DE0000000000000000000000000100010007C57
:101DF00000100010000000000000000000000000C3
:101E000000000000000000000010001000100000A2
:101E1000000000000000000000380000000000008A
:101E200000000000000000000000000000000000B2
:101E30000010000000000008000800100010001052
:101E40000010002000200000000000380044004482
:101E5000005400440044004400380000000000101A
:101E600000300050001000100010001000100000A2
:101E70000000003800440044000400080010002066
:101E8000007C00000000003800440004001800043A
:101E9000000400440038000000000008001800287A
:101EA00000280048007C0008000800000000007CBA
:101EB00000400040007800040004004400380000A6
:101EC0000000003800440040007800440044004412
:101ED000003800000000007C000400080010001022
:101EE00000200020002000000000003800440044D2
:101EF000003800440044004400380000000000386E
:101F0000004400440044003C000400440038000049
:101F100000000000000000100000000000000000B1
:101F20000010000000000000000000000010000091
:101F30000000000000100010001000000000000C65
:101F4000003000400030000C0000000000000000E5
:101F500000000000007C0000007C00000000000089
:101F6000000000000000006000180004001800607D
:101F700000000000000000380044000400080010C9
:101F80000010000000100000000000380044004C69
:101F90000054005C004000400038000000000010C9
:101FA0000028002800280028007C0044004400008D
:101FB00000000078004400440078004400440044DD
:101FC000007800000000003800440040004000405D
:101FD0000040004400380000000000700048004449
:101FE0000044004400440048007000000000007CF1
:101FF00000400040007C004000400040007C0000A9
:102000000000007C0040004000780040004000409C
:102010000040000000000038004400400040005C28
:102020000044004400380000000000440044004424
:10203000007C0044004400440044000000000038DC
:1020400000100010001000100010001000380000F8
:102050000000000400040004000400040004004424
:1020600000380000000000440048005000600050AC
:1020700000480048004400000000004000400040CC
:102080000040004000400040007C00000000004490
:10209000006C006C00540044004400440044000004
:1020A000000000440064006400540054004C004CE4
:1020B0000044000000000038004400440044004494
:1020C0000044004400380000000000780044004450
:1020D000004400780040004000400000000000384C
:1020E000004400440044004400440054003800040C
:1020F0000000007800440044004400780048004894
:102100000044000000000038004400400030000897
:1021100000040044003800000000007C00100010A3
:10212000001000100010001000100000000000441B
:1021300000440044004400440044004400380000CF
:10214000000000440044004400280028002800103B
:1021500000100000000000440044005400540054EB
:10216000006C00280028000000000044002800281F
:102170000010001000280028004400000000004467
:10218000004400280028001000100010001000007B
:102190000000007C00040008001000100020004037
:1021A000007C00000000001800100010001000105B
:1021B0000010001000100010001800200020001077
:1021C000001000100010000800080000000000309F
:1021D000001000100010001000100010001000107F
:1021E000003000100028002800440000000000001B
:1021F00000000000000000000000000000000000DF
:10220000000000000000000000FE002000100000A0
:1022100000000000000000000000000000000000BE
:10222000000000380044003C0044004C0034000032
:102230000000004000400058006400440044006476
:10224000005800000000000000000038004400407A
:102250000040004400380000000000040004003486
:10226000004C00440044004C00340000000000001A
:10227000000000380044007C0040004400380000AA
:102280000000000C0010007C001000100010001076
:10229000001000000000000000000034004C00446A
:1022A0000044004C00340004007800400040005816
:1022B000006400440044004400440000000000109A
:1022C000000000700010001000100010001000004E
:1022D000000000100000007000100010001000103E
:1022E0000010001000E00040004000480050006076
:1022F0000050004800440000000000700010001072
:10230000001000100010001000100000000000007D
:1023100000000078005400540054005400540000A1
:102320000000000000000058006400440044004425
:102330000044000000000000000000380044004499
:102340000044004400380000000000000000005875
:102350000064004400440064005800400040000055
:1023600000000034004C00440044004C00340004E1
:1023700000040000000000580064004000400040DD
:102380000040000000000000000000380044003061
:102390000008004400380000000000200020007801
:1023A0000020002000200020001800000000000095
:1023B00000000044004400440044004C003400008D
:1023C000000000000000004400440028002800280D
:1023D00000100000000000000000005400540054F1
:1023E000006C0028002800000000000000000044ED
:1023F0000028001000100028004400000000000029
:1024000000000044004400280028001000100010C4
:10241000006000000000007C000800100020004068
:10242000007C0000000000180010001000100020C8
:102430000020001000100010001800100010001004
:1024400000100010001000100010001000100030EC
:10245000001000100010000800080010001000100C
:1024600000300000000000000074004C000000007C
:10247000000000000000FA26FA25FA46FA46FA673C
:10248000FA47FA26FA06FA05F9E5F9C4F9E6F90376
:10249000F8A2F945F964F9E6FA46FA05FA46FA8827
:1024A000FA67FAC9FAE9FB09FB29FB4AFBCDFBED08
:1024B000FBEEFC0DFC2EFC4EFC2DFBEDFBACFBAC57
:1024C000FB8BFB6BFBEDFC2FFC0DFC2EFBEDFB6B8C
:1024D000FB8BFBCEFB6CFAC8FB0AFBAFFB8DFBCE84
:1024E000FB4CFBADFC0DFBCBFBEBFBCAFB89FBA95B
:1024F000FB68FB29FAE9FAA8FA88FA48FA27FA8869
:10250000FAC8FA67FA26F9C4F983F943F901F8E140
:10251000F8C1F0E0E100A0E068E439020100090040
:10252000114221A41983114121833207428A52ABFF
:1025300052CB52CB52EC52EB3AA932472A242222F8
:102540001A211AA33367540B5C4C4447344244802D
:102550004CC054C04CA04480448044A0446143E239
:102560004B8453064A8842484228420742063A06AC
:1025700039E739E639C6F921F983F9E4FA05FA05AC
:10258000FA26FA26FA25FA05F9C5F9C4F9C5F902B9
:10259000F921F902F8E2F963F964F9C4FA46FA2676
:1025A000FAA7FAE9FAA7FB29FB8AFB8BFB8BFB8CCA
:1025B000FB6BFBABFBEDFBACFB8BFB4AFB2AFB4A4B
:1025C000FB8BFB8BFBCDFC0DFC0DFC2DFC2DFBAC2C
:1025D000FB29FBEEFB4BFB0AFB8DFB8EFB6DFBAE81
:1025E000FAEAFB8DFBCEFB8CFB6AFB6AFB49FB49DD
:1025F000FB29FAE9FA88FA47FA46FA27FA68FAEA6A
:10260000FB4AFAA7FA25FA24F9E4F9C4F983F96335
:10261000F943F122C92199029125896439622984FB
:1026200041E7420739E731E64A495ACC6B0D6B0D59
:10263000630C630C6B4E6B8F63905B6D432A2AC7F0
:1026400022A7436C74B28D347D1354AC3C453C419D
:1026500044804CC04CC044C04CC045004CE04C8150
:102660004C024B844B074A67422742073A0739E638
:1026700039E639E631C6F921F942F983F983F9A33C
:10268000F9E4F9E4F9E4F9C4F9A4F942F8E1F8C18C
:10269000F8C1F901F922F962F942F983F9C4F9E4C0
:1026A000FA66FA47F9A4FB09FBACFB6BFB09FAE8F5
:1026B000FAC8FB29FB6AFB09FB09FB09FAE9FB4A9B
:1026C000FB8BFB8BFBCBFBECFC0DFC2DFC2DFBEC0F
:1026D000FB6AFC2DFB4AFB6BFB6CFB0AFB6DFB4CA6
:1026E000FACAFB6DFB4BFB2AFB08FAC8FAC7FAC80B
:1026F000FAA7FA87FA46FA26FA46FA47FA88FB4911
:10270000FB8AFB28FB06FB05FAC5FA85F9E4F9E527
:10271000E9A5C925A145B965C984D1C4A2476248C4
:102720004A274A28424842484A6952A9528952894E
:1027300052895ACB6B2D739083F3845384B47C936A
:102740006C7384F69D789DB895B78D956D0F446731
:1027500034413C603C8044A04CE04D004D204CE0B6
:102760004C614BE24B654AC742273A073A0639E6C5
:1027700039E639C631C6F941F941F942F921F96220
:10278000F9A3F9A3F983F983F943F902F8E0F8A072
:10279000F860F8E2F983F9A3F9C3F9C3F9C4F9C3FE
:1027A000FA25F9C4F942FAA7FB0AFAE9FA87FA46C8
:1027B000FA87FAE8FAC8FAC7FB09FB2AFB2AFB8B5F
:1027C000FB6AFB49FB69FB8AFBCBFC0CFC2CFBEC9A
:1027D000FBCCFC2CFBCBFC0BFBCBFB8CFBEFFB6C9F
:1027E000FB2AFB6CFB08FAC8FAC8FA87FA86FAA734
:1027F000FA87FA87FA67FA67FAA8FAE8FB68FC49E9
:10280000FC07FC09FC48FC28FBE7FB46F223E1A49B
:10281000D945C904C125D184F1C4F9C4E2478288ED
:1028200042284A0842273A263A2742464227424748
:1028300042684A895AAA5AEB632C73D0A4F8B5BBF4
:10284000B5FCAE1C9E1AA619B63BC65BA618755100
:102850004C68342133E03C00446044C04CE04CE020
:1028600044A04C204BA24B054287420739E639E68B
:1028700039C631C631A5F921F901F922F962F98287
:10288000F983F982F962F942F922F901F922F90191
:10289000F8E0F922F944F9A4F9E4FA04FA25FA0374
:1028A000FA45F983F983FAE8FAC9FA67FA25FA25AD
:1028B000FA66FAC8FB08FB08FB09FB6BFB8BFBAB5A
:1028C000FB4AFB49FB28FB29FB69FBAAFBEBFBCB83
:1028D000FBCCFBAAFBAAFC0AFC2BFC0CFC2EFBCDC0
:1028E000FB8AFB6BFB29FB08FAC8FA66FA87FAA792
:1028F000FAA7FAA7FA87FAA7FB8AFBEAFC88FD4742
:10290000FD46FD29FD28FCC7FC06FB06FA25F183E0
:10291000E901F0E2E921F182F9C4F9A5F9C5B1E6CE
:1029200051E739E73A073A063A053A053A26324579
:102930003A864287426632463A064A68638E8CB6C9
:10294000B5DBBE5DB69DB69DBE9DBE7CA6199595B8
:1029500064CD33E32B802B8033C03C40448044A0C3
:102960003C8044204BC04B224AA5422739E639C659
:1029700031C631C631A5F0E1F941F942F9C3F9A3F5
:10298000F983F962F942F942F942F922F984F983AB
:10299000F982F9C3F9E4F9E5F9C4FA06FA46FA66E8
:1029A000FA66F983F9E4FB8BFAA8FA26FA25FA8687
:1029B000FAE8FB08FB49FB6AFB8AFBABFBAAFB6955
:1029C000FB6AFB49FB28FB08FB08FB48FB69FB6A29
:1029D000FB8AFB6AFB8AFB89FBA9FBA9FBABFBCC4F
:1029E000FB89FB6BFB2DFACAFAA9FA46FA68FA478B
:1029F000F9E7FA48FA68FAC8FB69FC6AFCE7FDA641
:102A0000FDE7FD68FD07FC65FB25FA65F9E5F96260
:102A1000F921F942F962F9A3F9A3F9A4F9A5E1644E
:102A20008944498531E73A073A273A473A473A65B0
:102A3000328432842A64222322032A032A4543292A
:102A40006C309D58BE3DC69FBE7D9E198D96955596
:102A500064AE2BE41B6023602BA0340044403C4058
:102A60003C003BE03BA0432042A3426639E639C626
:102A700039A631A53185E880F901F921F982F9A358
:102A8000F983F983F963F943F922F942F984F9C426
:102A9000F9E4FA04FA65FA86FA04FA05FA06FA077E
:102AA000FA06F9A4FA05FAC9FA67FA26FA86FAC705
:102AB000FB49FB6AFBABFBCCFBECFC0CFBECFBAB84
:102AC000FBAAFB49FB48FB28FB07FB27FB48FB074E
:102AD000FB08FB08FB28FB47FB47FB47FB6AFB8B1C
:102AE000FB28FB09FACAFA89FA48F9E6FA49FA48D2
:102AF000F9E8F9E8FA07FA88FAA5FBA7FC47FCC64B
:102B0000FCE5FC66FBE7FB66FA64FA04F9A4F962EB
:102B1000F962F942F161F9A2F962F962F9A4F96482
:102B2000C9029122698649E7426842883A673A6554
:102B30003A8432A42A8322621A621A4322422A83E6
:102B400032C64B6C6C728D17A5799D789D789D5619
:102B50007CF2544A33C22BC133C03BC03BE03BE064
:102B60003BA033602B4032E03AA13A643A2531C6AB
:102B700031A631852985F0A0F8A0F8E0F8E1F90147
:102B8000F901F922F922F902F923F922F9C4F9E548
:102B9000F9E4F9E4FA25FA26FA25FA05FA05F9E640
:102BA000F9E6FA05FA47FA07FA07FA07FA68FAA700
:102BB000FB09FB8BFBCBFBECFC0CFC0CFC0CFC2C9E
:102BC000FBEAFB88FB88FB68FB47FB68FB69FB06AD
:102BD000FB26FB07FB07FB06FB26FB27FB28FB2846
:102BE000FAC7FA66FA66FA67FA25F9E5FA27FA6784
:102BF000FA46FA06FA05FA87FA85FAA6FB07FB46B3
:102C0000FB45FB05FAE7FAA6FA24F9C3F9C4F9A4CF
:102C1000F943F122F141F941F921F942F9A3F964AB
:102C2000F121C100912361A632273A673A663A85BD
:102C30003AA532A4328332632A642A453265328748
:102C40003A673A473AA8432B5BAE743194D69D1746
:102C50008D157491540A5BE844033BC033A0338064
:102C60003360330032C032C03AA03A823A643A0547
:102C700031A529852985F8C0F8C1F902F8A0F8C066
:102C8000F8E1F8E1F8E1F923F943F962FA05FA0508
:102C9000F9E4FA05FA45FA25FA25FA25FA46FA463C
:102CA000FA46FA67FAA8FA27FA06FA06FAA8FA869E
:102CB000FAC7FB49FBAAFBCBFBECFC2CFC0AFC4A49
:102CC000FC2AFC29FC69FC88FC28FC29FC08FBA6E2
:102CD000FBE6FBA6FB46FB25FB05FAE6FB06FAE650
:102CE000FA85FA65FA66FA45FA45FA85FAA5FAA56B
:102CF000FA85FA45FA46FA46FA66FA87FA87FAA793
:102D0000FA86FA86FAC7FAA7FA44FA04F983F9436D
:102D1000F123F943F963F942F942F962F962F942A0
:102D2000F921D9409122616539E532263A673A871F
:102D3000328632653A4532242A253A464A684A8A1A
:102D400042883A463225322532643AA7436B63F013
:102D50007C526C105BAD63EB43E43BC03BC03BA0DB
:102D600033803B4032C02AA032803AA13A823A6492
:102D700031E529852965F080F8C1F8E2F8E1F9012B
:102D8000F901F0E2F942F943F963FA44FA85FA6588
:102D9000FA65FA66FA86FA87FA67FA87FAC9FAC90B
:102DA000FA88FA68FA87FA87FA87FA66FAE7FAC6BB
:102DB000FAC5FB07FB47FB68FBA9FBE9FBE9FBE95D
:102DC000FC2AFCA9FD29FD49FD09FD2AFCCAFC6776
:102DD000FC87FC47FBC7FB86FB05FAE6FB06FAA56A
:102DE000FA64FA85FAA5FAA5FAA6FB07FB26FB0505
:102DF000FAA5FA65FA45FA45FA66FAC8FAA6FAC7D4
:102E0000FAA6FAA5FAA6FAE7FA66F983F903F9032E
:102E1000F982F9C4F9E5F9A3F962F962F942F90115
:102E2000F920F9A1D141A10161A432463A683A677B
:102E3000324632453A4632263A273A4842494A69AA
:102E400042483A4732252A0429E32A0332654AEAEE
:102E5000636E638E5B8D63CC53E94BC54BE253E2EB
:102E60004BC243A02B002280228032E032E13AA301
:102E70003A4431E42964F021F061F061F0C1F901D4
:102E8000F942F8E1F921F141F9E4FAA6FA65FA8587
:102E9000FA46FAA8FAC8FA89FACAFB0BFB0CFAEB55
:102EA000FA89FA67FAE7FB69FAE7FAC7FAC7FB0794
:102EB000FAE6FAC5FAC6FB06FB26FB67FB67FB874B
:102EC000FBC8FC28FC88FC87FCC7FCE9FC88FC48A4
:102ED000FC27FC08FBC8FB66FB47FB05FAE5FAC4C8
:102EE000FAE5FAC5FAE5FAE6FAE6FAE7FAA6FA44E6
:102EF000FA24FA64FA24FA86FAA6FB27FB67FB4653
:102F0000FB26FAC5FAA6FAC6FA24F982F963F96330
:102F1000F9E3FA24FA46FA04F921F941F941F8E013
:102F2000F900F9C1E140C0C079833A273A894AC91A
:102F30003A8842A74AA7428742663A663A473A48E1
:102F400042483A4832462A0429E429E32A043266F0
:102F5000428942AB52CC5B2D5B4B43474344438297
:102F600043813B402AC0228022A033003B413B22C8
:102F70003AC3324429C4F8A2F8A2F040F040F8A0C5
:102F8000F0E1F922F961F9A2FA45F1A3F9A3FA06F1
:102F9000FA27FB0AFAEAFAABFB0CFAECFAA9FAA850
:102FA000FA87FAC8FBAAFBEAFB67FB47FB07FB278C
:102FB000FB27FAE6FAA5FAA5FAC5FB27FB06FB06EE
:102FC000FB46FB86FBA6FBC5FBE5FC45FBE4FBE5FE
:102FD000FBC5FB46FB07FB06FB07FB05FB05FB648C
:102FE000FB65FAE5FAA3FAC5FA85FA44FA63FA63CF
:102FF000FA23FA23FA43FAA3FB64FB84FC04FC24BF
:10300000FBC5FB64FB04FAC4FA43FA23FA04F9C4CF
:10301000FA44FAA5FAA5FA84F161F120F920F8C082
:10302000F900F1C0E120D080A96362674ACA532B3E
:103030004B0942E842C642A53A8432842A443246C9
:103040003A673A483A2732052A0421E321E221C3AC
:1030500021E521E721C629C62A052A443283330106
:1030600033402AE02A80228022C033203B804381E3
:103070003B4232C23223F963F902E861F0C1F8E160
:10308000F8E1F941F9C3FA23F9E3F921F9C4FA4661
:10309000FA87FAC8FAC8FAA9FAA8FA67FA87FA8684
:1030A000FAC8FB69FC2AFC8AFC69FBC8FBC9FB88DF
:1030B000FB87FB66FAE4FAA5FAA5FB08FAC6FB074C
:1030C000FB06FB67FB46FB86FB85FBE4FBE5FC653B
:1030D000FC04FB85FB25FBA4FBC4FBA4FBA4FC03B5
:1030E000FB84FAE4FAA4FA83FAA2FAA2FB02FB42F6
:1030F000FAE2FA02FB23FC03FC83FCE3FD04FD047B
:10310000FC43FB83FAC2FA41FA42FAA3FAA3FA8417
:10311000FB24FB45FAE4FB03F222E920F8E0F8C0C7
:10312000D960D1A0E900D880B1426AA84AEB4B2B04
:103130004B2A3AE732A532A432832A622261226204
:103140002A832A843A663226222419E319C319A253
:1031500021A2218319631943196321832A0232A210
:10316000330132E022801AA022E02B413B8143A1AF
:1031700043A143423AA2E943F103F0A1F983F9A440
:10318000F962F982F9C3F9C2F962F9C3FA44FA663D
:10319000FA86FA85FAA5FAA6FAC7FAC7FAA7FAC80C
:1031A000FB49FBEAFCA9FD68FD49FC88FC8AFC0799
:1031B000FC28FBE7FB65FB06FB06FB28FAC4FB06C5
:1031C000FAE6FB46FB26FB46FB45FB66FBA6FC87B7
:1031D000FCA5FC04FBA5FC45FCC4FC64FC04FBC58D
:1031E000FB24FAC4FAA3FA83FAC2FB22FBA2FC0274
:1031F000FBE2FA82FC46FD25FC02FCE3FD45FC8572
:10320000FB83FAA2FA22FA21FA81FAE1FB82FC247A
:10321000FC05FBA3FB42FB63FAE3F141F080E10014
:10322000A1C0C960F8E0D8A0C1208A844B4A4B2ACB
:103230004B0A42E732A432832A8222812260226131
:10324000228122A332A532852A44220419E219A13F
:1032500019821982198219831982198221C22A615D
:1032600032E23B022AE22AC22AE133213B623B815D
:1032700043814B414302E0E2E881E8C1F1A5F9C591
:10328000F983F981F9A2F9A2F981FA24FA65FA45DC
:10329000FA65FAA5FAC5FAE6FB47FB28FB07FB89A6
:1032A000FC0AFC69FCE9FD68FD68FD68FD6BFD2812
:1032B000FCA8FC87FBE6FBE7FBA6FB67FB45FB45A1
:1032C000FB25FAE6FB06FAA5FAE6FAE5FAA5FB867F
:1032D000FC05FBE5FB45FBE5FC44FC24FB64FAA58F
:1032E000FA23FA23FA22FA63FAE2FBA2FC63FC63F4
:1032F000FC22FAA1FBE4FDC7FB02FB22FC24FB64D9
:10330000FAC3FA61FA01FA62FB01FBA1FCA2FCE438
:10331000FCA5FCA4FBE2FBC2FAC3F942E8C0B96019
:1033200099A0D900F8A0E0A0B140824252E84B0A2F
:103330004B09430732A53263328222812A402A4058
:10334000226122811AA22AC22AA222621A0211A191
:1033500011811162196319A319C221C119C1224136
:1033600032E13B423B2232E32AA22AA132E133017D
:103370003B21430142E2F0A2F081F102F166F944FF
:10338000F1C5FA44FA44FA43FA84FB07FAE7FA86ED
:10339000FA86FAC6FAE7FB28FB88FB89FBCAFC2AF7
:1033A000FC6AFCA8FD08FD47FD87FE08FE2AFE0911
:1033B000FD67FD27FCC7FCA7FC46FC27FBE7FBA736
:1033C000FB66FA65FA85FA44FA24FAE6FA64FA85A5
:1033D000FAA4FAE5FAC5FB05FB05FAC4FA64F9C3D9
:1033E000F9A2F981F9E2FA22FA61FB22FC43FC63BB
:1033F000FC43FAC1FAA1FCC6FB03F9C1FA83FA63E4
:10340000FA64FA82FA21FAC2FB62FC02FCE2FCC214
:10341000FC01FCC3FC41FB20F9E0F920E920B98064
:10342000B980E900F8E0D9009180520342C94B2BE2
:103430004B2943483B0632A43AA432A32A802240B7
:103440002261226012601A8022602260222121E221
:1034500019A1116111421162118219A119E11A41D8
:103460002AE133613B413AE22A8222412261226011
:1034700022802A8032816B0B630B6B0B6B2B6B2BC7
:103480006B2B6B2C6B2C6B2B6B2C73AC84AB9DCB95
:10349000B6ECCFCCE7ECEFECF7EBFFEAFFEBFFEBA2
:1034A000FFEBF7EDE7EDDFCCDFAACF4FB6DDB6DF00
:1034B000BEDF961E74FC53FC5BDD7CBE955FA5BF32
:1034C000ADFF8D1F63FC53774AD452D55B3552F361
:1034D000427152B65B3B7C3D6C7D8D5EBE7ECEDF25
:1034E000959B745A8C5A94BC8CBB8CB88CB7845402
:1034F0007C137C3484537374739BADDFBEDFA61FD3
:1035000074B93A30295139B67C1EB63FBEFF7D3DB5
:10351000643D6C1E5BBD4B5C537C4B3C42FD533D9C
:10352000A57FB69F8D3F747F749F745E84DFB65F06
:103530008D5A5B7963BE7C9FB63FCEDFB67F957EAA
:10354000CEBFB6FD63CE5AA95AC95A895A8A5A695A
:103550005269526952494A484A484A084A08420749
:1035600041E741C739C739C639A63186318531654A
:10357000316529442924630B632B6B0B6B0C6B2B7C
:103580006B2C6B2B6B2C6B2C6BAC852BA68AC76AB8
:10359000DFCBE7ECEFECFFEBFFEAFFEAFFEBFFEB43
:1035A000FFECF7EEDFF0BF8E966D756E75178D7FB1
:1035B000B63FBE7F9D9F747D63FB5BBB6BDD743D3F
:1035C000849E8CDE749A5BB65B14426E422D5292DE
:1035D00052F2428F421042548CDD8D9E7CDD9D7EE6
:1035E000B65FB67F8D5B74397C3A8C7B94DC94DC5F
:1035F0008C977C147BB17B9062F06B5794DD9D7F40
:10360000953F6C1B3A7232133A365B1C94FFBEBF77
:10361000A69F7D1F4B5C3ABA3ABB42FB4AFC3ADCA0
:103620004ABCA55EC73F6C9E63DE745E741E9D3F00
:10363000C73F859C533B535D84BEBE7FC6BFAE3F34
:10364000ADFFD75FAEBA6BAE84325B2B5A695A8A34
:103650005289526952694A4852484A284A284227A0
:10366000420741E741E739C739C639A63185318577
:103670003165294529446B0B6B0B6B2B6B0C6B2B4A
:103680006B2B6B2B6B2C738B9D8DD78FDFEEDFED50
:10369000E7EDEFEDF7ECFFEBFFCBFFEBFFECFFEC23
:1036A000F7CDEFCFDFF1C7708DD074D17CD68D7E92
:1036B000957FA5DFA5BF749D7C9C8D3C853D649B5B
:1036C0005BFA741A7C3A745A7C7863954ACE4A4CF9
:1036D0004A91427029CB29EE5B189CFEB65F9DFE95
:1036E000AE1FB67FBEFFAE7F8D5C849C73FA847C78
:1036F0008CFD8CBA7BD46B305AEE4A0B6B37957FBE
:10370000747E7C9E745B42733A353A38427A73FF1A
:10371000A5BFAEBF7D7E4B7B42B93A793A583A5A43
:10372000327A52FBBE3FC77F647D63BC63DB7C5E45
:10373000B5DFCF7F8DDE53BC63BD8CFFB63FBE5F70
:10374000ADFFC69FD77F8D999D7C9DD952CA526986
:103750005A895A8952695269526852484A484A28D5
:103760004208420741E741E739C639A631A631A5EB
:103770003185316529656B0B6B0B6B2B6B2B6B2BC1
:10378000732B732B6B2C738C94EDCF10EFF1EFEE4A
:10379000EFEDF7EDFFEBFFEBFFEBFFEBFFEBFFECEC
:1037A000FFCEEFF2CFF3BF52A6318D148CFAADFFEE
:1037B000B69FAE7F9DDF8D1F8D1FA5BFBE7FBEDF75
:1037C000B6BE95DC749A63D86BF97C1A7BF86B9360
:1037D000528F4A914AB14AD14AF34AD573DCB5DFD8
:1037E000CF1FAE7FA5FFCEDFCF5FA63F63FB6BBAD7
:1037F000849C845D7C196B955B334A4E5AF6955FC9
:10380000A65F8D7E6BFC53594B1742D93A383A9BD1
:10381000531D951FAE7F8D9F4B3A3A583A783A78B0
:103820003A79327B4ABCAD7FB6DF74BC84BCA5FE5E
:103830008D1FAD9FC73F95FE851E749D8CFEA5FF15
:10384000A5DFADFFCF1FBEFFBEBFD75F8D575AAA02
:103850005A895AA95A8952695269524852484A2883
:103860004A284A27420741E739E739C639C639A607
:103870003185318529656B0B630B6B2B6B2B6B2CA7
:103880006B2B6B2B6B2C6B6B73CC8D4CC74CE7EDA0
:10389000F7CCFFECFFEBFFEAFFEBFFCCFFECFFEC1C
:1038A000FFECFFEFD7D5B719AE58955484777C7EDF
:1038B000A59FBE9FBEDFB65F955F7C9E84BE9D3F89
:1038C000BE1FC6DFC71FA65D74B963765B366BF893
:1038D00073B352AD52AF4AB04AD24A9152D35AD57D
:1038E0008C5BBE5FAE1F8CFFADFFD77FB6BF9DBEAA
:1038F000849B6B99637873B86B965B144A5352FB45
:103900008CDFB65FA65E74DD539C42DA42993A586A
:10391000323A39FB6BDE8D3F6C9F3ABB325842FA2C
:103920003AF9325829F93A1B94FFB69F851EA5BE75
:103930009E1F84BFB5DFBEDFA5FFA61E7CBE8D1F08
:1039400084DF953FB63FB67FC6DFD75FC75F84D4BD
:103950005AA95AA95A8952895269526952484A4801
:103960004A284A284227420741E741E739C639C673
:1039700039A631A631856B2B6B2B6B2B6B2B6B2CEC
:103980006B2B6B4C6B4C73CB846B9D6BB6EBE7EC8A
:10399000FFECFFECFFEBFFEAFFEAFFEBE7CFCFD551
:1039A000E7D4FFEFF7F0D776B65C9D5B84976C1990
:1039B000745E8D1FADFFBEBFB65F8D3E6C3C639ADB
:1039C0006BBC7C5E9D7FB63FAE1F851D5BD863954B
:1039D00063526B516B715B314AAF52AF63515ACE38
:1039E00041CD6B179D3E6C5F429C7C1DBE5FBEBF90
:1039F00084FD63B963976B976B765314425031D152
:103A00004A19739EADBFB6BF8D7E539C3A9932580A
:103A1000325829D729D942DD5BBF53BC32783A38B6
:103A20003ABA431A3AF832573A5A743D7CBF6BDEC1
:103A3000A5BFAE9F955FA5DF9DBFADDFA61E747EBF
:103A40006C3E7C5EA5DFAE1FADFFBEDFD77FAE5CF8
:103A5000849373EF5A895289528952895268526805
:103A60004A684A284A284A27420741E741E639C6B8
:103A700039C639A631A5630B632B6B2C6B2B6B2BD3
:103A80006B2B634B7C2C8CCC958AC70BDFCCEFED7A
:103A9000FFECFFEAFFE9FFE9FFE9FFE9F7EACFF30F
:103AA000AF5EB6DECEF8C6989D9C7CBD7C9D7C7BCF
:103AB00063D96BBA7C5E951F9D9FA5BF7CBF5B9A47
:103AC00042F74AD75319637C6BBD63BC5B9A73F9A9
:103AD00084586BF66B947394633152CF528F5A9023
:103AE000526D422E4A1352B942D8321542366B7C7F
:103AF000745F63FA6BB66B7563555B354AB131EC35
:103B0000294D31B552DC7C5F9D9F8D5F6C5D4339E3
:103B10003A9A3ADB32382A392A3B639C8D7D5BF92D
:103B2000325732584B3C5B7B42F9327842BA42BB47
:103B300052FDADFFC73F959F84FF7C9FBEBF9E1F78
:103B40006C3E63BD8CDEAE3F957FB61FC6DFBEDF29
:103B5000ADFEAE3D638D52685A89528952895269D1
:103B6000526852484A484A484A274A0741E641E6CD
:103B700039E639C639A66B2B6B0B6B2B6B2B6B0C99
:103B80006B4C84ACAE0CB6ECC78BDFEBF7EBF7EB12
:103B9000FFEBFFEAFFC8FFE8FFE9FFE9FFE9FFE904
:103BA000DF909E5D859F6C9F647F84DF7CFF7CFE41
:103BB0007CBC641863B763BA63DD6C1E6BFE537C18
:103BC00042F74AD54B1553164AD63A743A734A937C
:103BD0006378745C7C7A6C176BF55B7252F05B31C6
:103BE00052D04A9052B33A5242B55337429431F0D0
:103BF0003A1352B45B5363525B535B734B11426F86
:103C0000296A296F31B53A1952DD639E743F959F39
:103C1000857E645D42FC29F721962A1984BFAE9FF8
:103C200074FC3AB931FA3A9A4AFB535B53593AB7A2
:103C300032375ABAB65FBEFF8D3F63DE94DECF3FA8
:103C40008D5F7C9E6C1C8CDE84DF8CDFAE3FBE7F84
:103C5000B63FC6DF95D85ACA5A895AAA5A895269B4
:103C6000526952694A684A484A484A274207420606
:103C700041E739C639C66B2B6B2B6B2B6B2C6B4C0E
:103C80007C8BB6ABD7ABDFECE7EAEFEAF7E9FFE90D
:103C9000FFEAFFE9FFE8FFE8FFC9FFEAF7EAF7E913
:103CA000FFE7DF6DA619751E649F6C5F747F84FF4C
:103CB0008D3F84FF749E6C1A4B5742D742B74256D1
:103CC0003A545B7784FC957C853B7CFA7CFA8519B9
:103CD00074996C5C747E7C9E747C745A6C176395CA
:103CE0006B54637552F44A9452D64AB542723A10F4
:103CF000422F528F4A8E4AEF52EF52F04AAF3A0C9F
:103D0000318B318D2990295231D6321731F7425BF0
:103D100094BEB67F8D9D53BB22161995321A73DF60
:103D2000AE5F8DBE3AB9219832393A5A637C5BDB7B
:103D300032B54AB673BDAE3F9DDF4B3C531CB65FF8
:103D4000A65F9D9E8D5D743D745D6BFE951F953FD6
:103D50009D9FC69FC71F7CD45AA95ACA5AA95A897F
:103D600052895269526852484A484A284A284207AA
:103D7000420739E639C66B0B6B2B6B2B6B6B7C8B5D
:103D8000AE6ACFAADFEAEFEAEFEAEFC9F7C8FFE8C9
:103D9000FFE8FFE8FFE8FFE8FFEAFFEBF7ECEFEFF3
:103DA000E7EFE74DBDEF8556753B53FC537C6BFE4B
:103DB000641F63FF5BDF539C63984AD442724AB12D
:103DC00053145B98741E84BF951FADBFBE9FCF3F39
:103DD000D79FC6FFAE7E9DFF74BD641A5B58531714
:103DE0005B3552F44252427342533A1139AE39AD07
:103DF000420C422D4A8F4ACE426A420A41EB420DA2
:103E00003A0E216B216D2991214E297029B229F694
:103E100031BA739DADDEB6BF6CBC327721D6219826
:103E200052FDA5FF9E9F437A29D829F631F64ABA5A
:103E30005B7B7CBD8D7E8D3F9DBF5BDC42BA849FEA
:103E4000A5FF955FAE5F851E5B9B537B745D747EA3
:103E50007C9FB5FFCF1FAE7D636D5AA95ACA62A978
:103E60005A895289528952684A484A284A284A2718
:103E7000420741E741E6630B6B0B6B8B8D0BB6CAB8
:103E8000D7CAE7EAEFEAF7EAF7CAF7E8F7C8FFE8C0
:103E9000FFE7FFE8FFE9FFE9FFEAFFCCFFEFE7F507
:103EA000CF5AB69A9D966C326C5874BA4B9653574B
:103EB0005B594ADA42D93A9752F552B34A7052D016
:103EC0006B7873FE639C533C4ABB3A7952BB6B7D63
:103ED0007C3E9D9FAE5FAE7F95BF6C7C5BB853769A
:103EE0004AF44293323031EE31AE4A71635442703B
:103EF000427052D35B5563746B946391426C39CDBD
:103F000042533A753234323331F1296F216E10CD7C
:103F1000190F31755AFC8CBEAE3F7CFD3AFA2A1659
:103F200021984A7DBE5FAEFF3AFB29F631F431B4E9
:103F300031D74ABC9D5FB6FF95DF6C5D4B3A531C91
:103F40006BDD849E9D3F955E6C1B7C9B6C196C3C6D
:103F500063FE94FFC69FBEFF8CF662EA62CA62CA25
:103F60005AA95A895A895289526952684A484A2834
:103F70004A274207420762EB6B6B8D2BBF2ADFEAB1
:103F8000E7EAEFC9F7E9FFEBF7EAFFE9FFE9FFE945
:103F9000FFE9FFE8FFE9FFEBFFEBEFEEE7D0E772A9
:103FA000B6598D9E8D7F749853B56C1A5BD84313A8
:103FB0004AD14AF44AD442924AD2531252D04A6F5A
:103FC0004A50423242134A3539F43216321629F732
:103FD0003A79951FBE7FC6DFC71FBEFFAE7E95BD77
:103FE000749B74996C764B33320E39EF7BFAA5FDD6
:103FF0008D7C63FA5B786B9873DB8CDDA5FC85396F
:104000005334425539F73A5842983A153A115311F8
:1040100021AA18EA2152425A741F7C9F5BFE32BAD1
:104020002A3829D94ABB8CFF74DF3ADB32163215A5
:1040300029B218D1421B8D1FAEFF6CBB5B395B9A56
:10404000429A535B635B94FE8D3E9D7E8D9B63B96C
:10405000535D639EA57FBEDFAE3E73CF5AA95ACA99
:104060005ACA5AA95A895289528952684A684A4892
:104070004A27422742076B4B8CCCBF0ADFE9E7E9AE
:10408000EFEAF7E9F7E9FFEAFFEBFFEAFFE9FFEA0A
:10409000FFEBFFEBFFEBFFEDFFEEEFEECF70A5F0D8
:1040A0007CB2645874DE957F7CDB5BF863D85394F4
:1040B0005372535152F152B05311637363745B5492
:1040C0004AD3421031CF294B18E9210B214E193028
:1040D000190F211141F76B5C94DEB5DFC6DFBEDF3F
:1040E0009E1FB67FBEDF851C42D529F03234631B8C
:1040F000A55FB67F9E1F6C5B53394A397BDFAE1FCD
:10410000B6DF855C42B731F631D4214F4A1183F9CD
:10411000957D8DD9539529D4193631FA4B3C3ADC2B
:10412000431C3299199731FB535F431D32373A973D
:104130003AB62A1208D12918845FA6DF5C385B39A9
:1041400042B84ADA52FA7BDC957F9D7FBEBF74FC91
:104150004B1B641E8D3FB67FB65F8D16630A62CA25
:1041600062CA5AA95AA952A95289528952884A4800
:104170004A484A274A277C2BAE6BD7E9E7EAEFEAA1
:10418000EFE9F7E9FFE9FFE9FFE9FFEAFFEAFFEA04
:10419000FFEBFFECFFECFFEDF7EEEFEFC7127D3822
:1041A00064B96479649C851F8D1F747C6C396C576D
:1041B000745663B26371635063B463D663964B36CF
:1041C000429442333211218D19491926190A192FA7
:1041D000190C08A9088A088E08B321566B5C955FF4
:1041E000A5DFB65FBE9F9DDF6C7C4B5742D429D4C0
:1041F000297662FA9D5DBEBF8D3D42F929B8421A0B
:104200007BFEA5BF95DF53BA3214218E192A18EC14
:1042100041F77BFFAE1F9DFE6C7932B8197842BA28
:104220004B3C3A7B2A3921B7219821D821F43A1402
:104230004297431921F408B1317A8D1F8E3E4339DC
:104240004B1B42983A5A427C6BDE84DFB63FA69FF6
:1042500053BC741DAE3FAE3FADFFADDB6B8C5AC996
:1042600062EA62CA5AC95AAA5AA95289528952683C
:104270004A484A484A27956BB72AD7E9E7E9EFE861
:10428000F7C8F7E9FFE9FFE9FFE9FFE9FFEBFFEB1B
:10429000FFEAF7EBF7EBEFEBE7ECDFCCB6B07D5BDB
:1042A00074BF74BF853F955F853F7D1E7CDC749A2B
:1042B0006C376BF573F57C9874BB749C745C6C1CE8
:1042C0006BFB4B58325229AF218C218A214A210C99
:1042D00018EC192D214D214F194F114E2153423BFE
:1042E0006B9E8CDFA5DFAE1FA61F84FE5B993A7420
:1042F0003A3232153A3673788CFDA61F855D42D866
:10430000217642195B1C63DE4B1A42D529F0194C09
:10431000193029784ADE847FB63F9E7F6CBC42DA32
:1043200029F82A3A327921D71994199219AF19CE5E
:1043300029D029F42257199319763A1C7CBF5C5C6A
:10434000325A4AFB6C1B327B429C5B7E845EBEBF52
:1043500074FE5B5DADFFB67F9DBFADFE740F5AC9A5
:1043600062EA5AEA62CA5ACA5AA952A952A95268BA
:1043700052684A484A47B6CBD7E9E7E9E7C9EFE8C8
:10438000F7C8F7E9FFE9FFE9FFE9FFC9FFEAFFEB3B
:10439000F7EAE7EAD7EADFEADFEBB78C85EC74F2FD
:1043A000641863FB749F84DF84FF8D5F84FF6C3B24
:1043B000745984DB7CBC84FE84DF8CDF9D3F955F79
:1043C0008D5F7CFF5BFD3AB621F0218B212A31AC59
:1043D000426E29EF32302A1321D421D429B1193168
:1043E000215429763A184A9A5B5B53394AB542718F
:1043F0003A0E3A0F3A0F31D242997C9EAE3F9E1F41
:104400005BFB42B742B73A7729766BBA84FC53F923
:104410002A542173217639FA425D741F9DBF74BFFF
:104420003AFB2A183A384B3A2A15199121AF11ACA8
:10443000196C216E1973199319B529B94B1E53DEE6
:104440002A593A1A849F6CBD3A7A531B535B9D7E5E
:10445000855E531C847EBE9F9D9FA5BF9D98632A49
:1044600062EA630A62EA5AEA5AC95AC95AA95289DF
:10447000528952684A48B6EBCFE9DFE8EFE9F7E93D
:10448000F7CAF7E9FFE9FFE9FFE9FFEAFFEBFFEA17
:10449000EFE9E7E9CFE7C7C7BFA996EE65AE5CAE27
:1044A0005431435242F84B1A5B9C641F5BBE5B7AEB
:1044B000741B94FE9D9FBE9FAE3F747F5BBF5B9E4F
:1044C00063BE6BDF535E42982A3221CE112A422D01
:1044D0005AB3425752FB427B3A7A32372A1329F1B8
:1044E000321221D121502991299221B039EE4A6E00
:1044F000426E42B04AD442B542763A384A9B73DEA5
:104500009D9F7CBE8D3DA61E74984AD66B7A9DBF3A
:104510008DBF43582195217421562139425D535E48
:104520003ADD4AFA3A78325A3AFB3AD7327419D11C
:10453000196E192D192F115321F721973A7B331C2E
:1045400032B621D3423B957F5BBB42DA42DB533E1E
:104550008D5F42FB637EAE1F9DBF8D1FBE7F8CF4BF
:10456000630A632B630A62EA5AE95AE95AA952A913
:10457000528952685268B68ACF88DFE8E7E9EFE8E7
:10458000EFE8F7EAF7EBFFEAFFEAFFEAFFEAF7EA0C
:10459000EFE9E7E8DFE6C786AF097E4C5D6D4CAD1D
:1045A00043AC3AEE2A302A315B99747F643F53DC86
:1045B0004B3942D75B5A73FC8CBD741E42BD2A191D
:1045C00029F829F7215429B3321229CF29AD218C9A
:1045D00010E710A818CE10D01954217329B0298ED5
:1045E00021701932213231D431F331F1424E424D32
:1045F000422D427152B442534274425429D32996F7
:104600006B5C957F641E7C1EA5DFA63E63DA52BA02
:104610007C1D959F6CDE32B92A1721D81957219736
:10462000119629B7745D5C3C21F93A7974BD749B8D
:104630004336196F195019521135197721973B1BC1
:10464000327419AC108F635E74BD42FA3A5B3A7BE8
:1046500063BE533B42BC847F8D1F849EA59FAE5D8D
:104660006C2E62EA632A5B0A630A5AE95AC95AA99C
:104670005AA952885268AE6AC788DFE8E7E8E7E8D7
:10468000EFE9F7E9F7EAF7ECFFECFFEBFFE9F7EA10
:10469000EFEAEFE7DFE6D7A7AF4A7E4D658E5C8E87
:1046A000436B32CB2A2C2A2E639B849F8CDF8CFF9A
:1046B00084DF641B4B16321431F442153A573A57D3
:1046C0002A3629F431F23234321342534292322FD5
:1046D0003A2C4AAD4A903211299029B02A122A3236
:1046E00022332A5321F329B53A593A96320F31EC45
:1046F00039CB39A94A4E42953A54427442943233E6
:1047000021554A5B7C5F74DF4AFD637E6C5F4B7CA6
:10471000323A4A7A63FE53BE2A5821F6217419535D
:104720001191115141F973FF6C9E2A77425A8CDF27
:104730009E3F5C3721701931091308F419923257E2
:104740002A3621D2110C20D37C7F74BE537C32B721
:104750003A9A4AF83A7553396BDA741C84DFB65FBB
:104760008D55630A6B2B632B630B5AEA5AEA62C9B5
:104770005AA95AA952889E49BF87D7E7DFE8E7E9D7
:10478000EFEAF7EAF7E9F7EAF7EBF7EBF7CAF7EA48
:10479000EFC9E7C7DFE6CFE7A70A760B5D6C548C5D
:1047A00043AB3AEB3AAD3A8F42B5429A52DC5B5E8C
:1047B0006BFF6BDF4B193A533A313A4F32312A14BF
:1047C00021B429B342B742F842B642B5429342708F
:1047D000424E4A904A7341F1316E297342BB63FFE6
:1047E000745F6C3F433B19B6195629B72191216C70
:1047F00039EB41EA31AF531C5B9C4AF7321531F576
:1048000029D4197429565B3D747F4B3C219829B8F3
:10481000323A29D829F8323A3A9A2A78323621D4CB
:1048200019B1196D1911295A73DF7D1F2A7820D506
:104830007C1EA63F751C3A96197408F01930197041
:104840003257217329F3197242397C7F7CFF53D987
:1048500032583A9431EC4AB163746B977C7F955F20
:104860009559636B6B2B632B632A630A62EA5AEADE
:104870005AC95AA952A97D499EA7B7C6CFE8D7E918
:10488000E7EAEFCBEFEAEFE9EFE9F7E8F7E9F7E975
:10489000EFE8E7C8DFE8BFC88EC86DEA554A4CAA02
:1048A000440C4BAE53B24B533AB12A1129B221B446
:1048B00029B631D529B3218F4AD3745A6C9B6C3BEE
:1048C00053985BD76C5B7CDD851D7CDD6C1B42F5F2
:1048D00042B0427031AD294A212718C718CE193588
:1048E000215829B821B7113008CD10F1190E192E11
:1048F0004B176C3B53DA42DB42BB6C1E63FD29F65F
:10490000193129B129B221973A5C42DD2A7821B4C4
:104910001931190E1930219431D829F82A182A177B
:1049200021B4196F194E191131BA5B5F645F2257B8
:1049300010504A1884DF7D5F4BBB118F0888214BD4
:1049400031F231F3215121541997321A6BFF857ED0
:104950004B9A4275318931AA4AAE633263FB749F28
:10496000959D6BEE6B2A6B2B632B632B5B0A5AEACC
:104970005AE95AC952A96D6986E8AFC8C7E9D7E9AB
:10498000DFE9E7EAEFEAEFEAEFCAEFEAF7EAF7E989
:10499000F7E9EFEBD7EABFC9A76A8ECD65CB5CEC30
:1049A000544E4C315C774B7542B1322F218E190D2C
:1049B000190D10EC10EC10C9212B5AD87BFF745F35
:1049C0007C9F8CBF94FF8CBF849F7C9F63DE3A5892
:1049D00039F42991214D214A2168214420E418CA43
:1049E000009108B3115311B219B21992198E21AE68
:1049F00029D85B7F7C9F4ADA2A173A9B4B1D42FAE3
:104A00002A1321B029F429D521552175217321B507
:104A10001971192D112A110C2111219719D921B8B9
:104A200021D729D329CF218F11311916429F4B7FCE
:104A300019D2084C21145AFC5BFF2A7419272968E3
:104A400031CD3A31194F10F119511952323B8D5F66
:104A50007D1C5338318A314739E94A2C6377749F7A
:104A60009DDF7C52632A6B4B6B4B6B2A632A630A74
:104A70005AEA5AEA5AC99F6AB7CAD7EBE7EBE7CABC
:104A8000EFEAF7EAF7EAF7C9EFEAE7CAE7EAEFED94
:104A9000EFEEE7CDDFEBC7EBB7EDAFB086506517B4
:104AA000549A64BB7D1D6C9C5BF93AD3198C10CA77
:104AB00008CA08A908881086088310A8215129D897
:104AC0003A1C3A3C3A5B29F929D931B821742A14A5
:104AD0003AB53A952A1229CC29E929C929ED32B7E4
:104AE0003AFB3ADA42FB643F6C3F42FC2A144AB973
:104AF000539E2A3C323B3AB8197229F742DB3A7985
:104B00003A584AF6431721D521932150194F217164
:104B10003296327721F3197018EC19502A392A5934
:104B200021F721D3214F2190218D21AD29522976C2
:104B30002A552A511991191129F429D1218A29C9F3
:104B400031EB31AD192D10AF112D194D19755B7F5A
:104B5000961F6C7B39CB4A2939884A4F63377C5D75
:104B6000A5DF84F5632A6B4A6B4B6B4A632A630AA1
:104B700062EA5AEA5AC9CFEBD7ECDFEAE7E9EFE994
:104B8000F7E9F7CAF7CAF7EAF7CAF7E9EFE8EFE992
:104B9000EFCCE7ECD7E9BFA796C875A95CAD4BF69B
:104BA0004BFC5BFF743F7C7F6C1F535C3212114BDC
:104BB000110B08AA00880867088808CA08EB10CB00
:104BC00010AE10AF10CE08AD110F32345B7A84FDF9
:104BD00084FF63FF3A9921F221CF296F3A194AFFE6
:104BE0004AFF323D217731B931D92134112E1931A3
:104BF00039FB29B921975B9D641B539C747F6C3CE6
:104C0000427832176BFD5BFD2A1822172A574AF9A2
:104C10006C1D8D1F7CDE53DC3A9721B0193129F7CA
:104C200029F7221621D421B1298D31ED320F29CF58
:104C3000218F2A11196F194F192C214A216831A986
:104C400031C92969214B18A910E9116D195031DAC0
:104C50007D1F8D1C5B335AEE39EA4A126C1A63BA17
:104C60008D1E8D7A63AD6B4A6B4B6B4B6B2B630A5E
:104C7000630A5B0A5AEAD7ECE7EBEFE9EFE8F7E8FB
:104C8000F7E9FFEAF7E9F7EAF7E9F7E9F7C9F7C95A
:104C9000F7EBEFEBE7EACFA89E46648A3BAE3BD248
:104CA00043B63AF832982A582A1629F529D229F219
:104CB0002990196E114D010F011119B329B1114C31
:104CC00008880887190B19B129F332363A5A321A73
:104CD00029BA2159113510D2089008AE10F31117D6
:104CE00008970074004D00280007004910EA114998
:104CF00010CB10A910CD217B42BE42DD533E84FF74
:104D0000749D2A5752D99DBF855F5C3E435D329B9F
:104D100029FA529C73BE7CBF74DF433A21B119302B
:104D2000219429B5111208EF196E216F2994217071
:104D3000297129F521F4194D10AA18E718C329265D
:104D40002946210518E710CA10E9214E2215191528
:104D50003A7D6C7D743873D4535453388D1E6C3B3C
:104D60007CDC9DBF7456634B6B4B6B4B6B4A632A69
:104D7000632A630A5AEADFEAE7EAEFC9F7C8F7E805
:104D8000FFE9FFC9F7E9F7EAF7E9F7E9F7C9F7EA51
:104D9000F7EBEFEBE7E9CF6795E75CAD44514BD616
:104DA0004BBA4B5942B62A14221521F222323274E0
:104DB000321229F13A944B3A329B3A9C42BA21F48E
:104DC000110C08C8212E31D9321B219808D0002C93
:104DD000002D002E004D084800AB117519DB199C01
:104DE00008D5008C08470883086118C7210A1907ED
:104DF00020E41902210521301918195719D54ADC68
:104E000063DF6C9D2A5831DC847F9DFF857F433CA6
:104E100011B608D310D32956423A327A2A1721B450
:104E200021D621B6427543363AF7325732DA2A583C
:104E3000112E10AE2153321329F242B342AD29474D
:104E400018A218C310A4086B088918EE29D919955F
:104E500019773AB852D4951C7D3A4AF78CBFA5BF52
:104E60009E1E7CFF63B76B4A6B4A6B4B6B4B632B8D
:104E7000632B630A62EADFC9EFE9EFE8F7C8F7E9F5
:104E8000FFE9F7C9F7E9F7EAF7E9F7E9F7EAF7EB36
:104E9000F7EBEFEAE7E9C78785C64C2A33AC2B4E20
:104EA000331343183A9529F53A9C539D63FE5BDC16
:104EB00043192A522A105B9A6C3D5B7A4B5D3ABAD1
:104EC00021D3090D00CD084D004F004F008C00ACE0
:104ED000008B0089006708A92A3821BB00740030C4
:104EE000004C004510821926194629A631C73A28D8
:104EF00042493A0842693A08294C19331A3121F2D9
:104F000021996BBE853F2A7B321C5B5E849F855F47
:104F100053FD3AFA32B819D521B621B61955219761
:104F20002A1919964ABA7C9F853F84FF84FE853FE3
:104F300074DD5C5A4B55323231D14235533B5BFB09
:104F40004311194610A2084710A910EE21982AD93A
:104F50002A771971316F73DBAEBE5B52637794DED3
:104F6000BE9F751E5BD663AF634B6B4B6B4B634B46
:104F7000632A632A630AE7E9E7E8EFE7F7C7F7E997
:104F8000F7C9F7E9F7E9F7EAF7E9F7EAF7CAF7EA5D
:104F9000EFEAEFCAE7E9CF889607654844A92BEB0B
:104FA0002B0E32B13A913233327A4B3F63DF6BDFF3
:104FB000537E4AF73A5019EF63BB7C7D7C9E6C3E72
:104FC0004B1B2A5819B510EE0069216F42FB4B5C50
:104FD0002A1708CC08EA091111130872002C0045A1
:104FE0000842086118E32126298839C82967314811
:104FF00031273968524D52CD3A28210A112F1129F3
:1050000010ED19356BDF53BE1A1B32BD3A5D52DD10
:10501000745F6C9F539F537D641D5C3D5C1C53DC2F
:10502000433B2A1708F21916427D5B9F745F7CDFB1
:105030007C7F7C7F7D1F645D5BD7320D082A39F74A
:10504000747F53D93A8E3A8F21CF190F11164B7EA8
:105050006D1E223421715298B67F74346BB77C3C3C
:105060009D3F95DF8DBEBEBC84B0632A6B6C636AC6
:10507000634A632A630AE7E8E7C7EFE8EFE8F7E87F
:10508000F7E9F7E9F7E9F7E9FFCAF7EAF7EAEFEA3C
:10509000EFEAEFCAE7E8CF86A6C796E88EE96E0B7F
:1050A000444D22CE21ED29AC3213321822172A1892
:1050B00029F829D4321129EF198E4AB863BC84DF4C
:1050C0007CBF4B3E2A173A943AF219D01936193858
:1050D00008D5008D08D300D6006D00470064086233
:1050E00010A22166298729661925286250006800C8
:1050F0006082592540C430C639C931A718E610C5A9
:1051000018E30888193521FC093521FA21FB1158CB
:1051100021BA3A7C42FD5B7E745F84FF8D5F95BF50
:10512000A63F7D1F3B3911F0088C107129B73A1941
:105130003A9B2A1942596C3C4B3721F0112C10CC68
:10514000211232173A767C7E6C7B21B5091629FC38
:10515000647F331A2196325A6BDD6BFA84BE7C9BD6
:105160005B59953F95BFDF5FAE37634B6B6B6B6BE6
:10517000636A634B632BDFE7E7C7E7E8EFE8F7E92C
:10518000F7E9F7E9F7E9F7E8F7EAF7CBEFEAE7EA53
:10519000E7EBE7E9E7E7E7E5D7E7B70775C654C9FF
:1051A0004C4E43B22AB0220A1168110C29913213D5
:1051B00029D2194F192C296F216E2A0F42B64B1B89
:1051C0007C5F6C1F3AD83A977C7F643B2215110FA5
:1051D000192F112F00AE004D08D2090C08A318C3D7
:1051E00029A7426A42693A2930E38840C8609000A2
:1051F0009B6FB5BB8BD162083083314731C72945DE
:10520000210529D031F43AFB19D5111521DB199864
:10521000091308F1193119542979321C3A5E425D9B
:1052200073FD8D1F8D7F753F4BB73292198B08E848
:10523000088A086B210D4AB2321019B210F010AE74
:1052400008CC1068216E31DB84BF5BFD11DA097870
:1052500021FC21F71932197429B43A197C5F851D94
:105260004AF65BDD749E953EB65C6BEE6B2A6B6B0B
:105270006B4B634B632BDFE7E7E8E7E7EFE9F7EA20
:10528000F7C9F7C8F7C7F7E7F7E9EFC9EFC8EFE8DD
:10529000E7EAD7C9C786B747A6CA85AE643153B413
:1052A0005BB863DB63FC539853B35BB12A0D196C95
:1052B00029AE31ED21AA0907192C42756C1C6C3CF2
:1052C000433D42FE4AFC2A36327A6C1F747F4B7A89
:1052D00042F85B9B3294114E21B908EF08632125F7
:1052E0004A8C52CD52AC39A9A0C1F100906028403F
:1052F0006C15959D851B8D19732E40C3294739C7A1
:1053000039C842973ABD4B1E431E08D31155093484
:1053100008F119B119D0195319750936115611151B
:1053200018F6217731D842594ADB42D729EE29ECC9
:1053300029CD21B04B165BB93AF63ABA221908F4D6
:10534000091110EA218A10F3321D4B5F19FA095333
:10535000092F110C194A192B10CC1933639E84FFA5
:105360005B995BBC74FE53B99D7F8D156B6A6B4B6B
:105370006B4B634B632BDFE8E7E8E7E7EFE9F7EA1E
:10538000EFE8EFE7F7E7F7C6F7E7F7E7F7C7EFE686
:10539000E7E6C765A6A47D855447332A228C228D73
:1053A000222F221232553A985B9A7C5B4B34322E74
:1053B000198929EB53115B75327021D052FA8CBFD9
:1053C00084FF539D32992A352A133A9B7CDF8D3F07
:1053D0006C3F63FF6C3E4B3A325A10ED10E342696A
:1053E0004A8B528B424B7105F0C09860100021A788
:1053F000851A8D5D7459537663F749054082422BB7
:105400004209318A29B221B829DC0911197419F726
:1054100019314B1B749E5C1C3299221919F819B66C
:1054200011B7095500F200ED090B08CA10CA216C2A
:1054300029AF196D212A20EB18F0219A3A5E2A7EB5
:105440000956008C10A610CA10D311580933090D43
:10545000092C08EE29D23AF611321998323C743FE1
:105460007CBE8D3EAE9F53F83AF984DA73AC634A42
:105470006B6B6B6B6B2BDFE8E7E7E7C9EFEAEFE9F4
:10548000EFE7EFE7EFE6EFE6F7E7F7E8EFE8F7E754
:10549000EFE5D784AE8585264BE623061AA62AC8F3
:1054A00032AB324E321032303A512A3129EE3A4F75
:1054B00042B04AD14AF47C5E8CBF63B93252323575
:1054C000847E957F6C7D3AD82A123A76637A851E5F
:1054D0008D5F5BBF5B9F5B5F4279216C3A286BF00D
:1054E0005B2C530D524AA8A1D0A02820004142CEE7
:1054F00074594293216C0887218C188340203926E7
:105500003A29318531AD327B08F108A810AE221E50
:1055100019752136425C63DF4B5C325721B8115656
:10552000117719B7119419F11A2F21AB218B196931
:1055300018A408851109192518C61091111A117B94
:10554000117B00D008AA196F110F00B0008A004922
:105550000916091829FB5BDF3A9D225D1116637D50
:105560008D7F955F9D9F749D4BFC4B786B4C6B6A58
:105570006B6B6B6B634BE7E7E7E7E7C9E7E9EFE9DD
:10558000EFC7EFE7EFC6EFE6F7E8EFE8EFE8F7E79A
:10559000E7C6B6E68DC86CC9542B43ED438D432C4A
:1055A000430A4B0D428D322D29AD214C21293A0D54
:1055B0005B7863B953364AFA5B3D6B9C63FC435599
:1055C00042D9743F8CFF5BDE329721F3113342D70F
:1055D000743D3A9E3A7E323D32372A0F52CC7C32AD
:1055E000632D42AC4967C8408060086108C431ED52
:1055F00029CD00240001000008A300822840488231
:1056000031A931443169297408EC08A310AB10F6B4
:10561000113719742A1A3A7C327B29F729F62A782D
:1056200021D6117419952A1921F61970194D21AF37
:1056300029F019B519D829D121CE29F4221A0956F1
:1056400000B2006D006919752ABE1217092E110FDC
:10565000117A091B219C4B1F5BBF3B1D29D863FEA0
:10566000853F6C1C42FB42FA43193251630C736B49
:105670006B6B636A636AE7E7E7E8E7C8E7E8EFE8C8
:10568000EFE7EFE7EFE7EFE7EFE7EFC7EFE6EFE78B
:10569000E7C7B7278E476528544A3BAB3B2D328A74
:1056A000226A2A2B21EA118919491927196729EB3E
:1056B0002A0F5316741C63DA5B9B4B3A4B5C747F66
:1056C00063FD3ADC535F63DF4B5E2A57113119509B
:1056D0002174325C3A9D19B81953198F3A0B632D16
:1056E0005AEB428B4905C840586000C310E40824B7
:1056F0000023000000000000084208C32081484049
:1057000030E431453186214708AA08B0113710F33B
:10571000193211112A1A42FE4B3E32BB095421B5EF
:105720005BDC53DB2A5919572A7B3B3D3AF82A5652
:10573000323832BA21F811970114321C5C1F4C3FE9
:105740002AB821F619D308F529FE32FF1A3C32BCDB
:105750003B1D19FA1117219B4ADF3AFE3ADD53BE71
:105760006BFF63FC2A1510CE112F29ED634B6B8B59
:10577000636B6B6A6B6AE7E7EFE8EFE9EFE8EFE886
:10578000F7E7EFE7EFE7EFE8EFE9EFE9EFE9EFE958
:10579000EFEAE7E8C7C8A70986084CE82C28236881
:1057A0001B4922C93AEC4B714B51535453764B135E
:1057B0003AB14B145B9B84BF7CBF5BFD5B7B533C6E
:1057C00063DF539D3A9B3A9C3ABD323A1952112EEF
:1057D000110E21764ADE329919B321701909422936
:1057E000632D428B4904C040586008C3190400006F
:1057F0000001002100010000002108C41061486080
:10580000492539A7318739E7298910F608F6089024
:10581000195619B6091610F721DC3AFF1A5B19510F
:105820007C3B8D7F5C3F2A5821F82A5C32DC329A1F
:10583000323A4B7E4BDF2B1E0176004C18B13A3AC0
:1058400021D92A1C437F1A1B08F71137093719BDC4
:10585000435E32DA111319D919BA195932BE32DA44
:105860003A79641E4B392A52114F4A4C6B4A6B8B62
:105870006B6B6B6B6B4ADFC4E7C5EFE7EFE6EFC717
:10588000F7C7EFE7EFE6EFE7EFE7EFE8EFE8EFE97D
:10589000EFEAE7E9DFE8CFE7A78686E855CA2C6B91
:1058A0002B4A4B8F74598D1E953F953F84FF745D35
:1058B00063DA53583AD74AD9637D5B9D5B7C4ADAF9
:1058C0006BBA953E6C3D433C3ABC21D61973112FFF
:1058D00010CD10B021594B1E3ADA21B4194C29666B
:1058E000632D4ACC41A7B08088A010A319450020A1
:1058F0000000000100010000002110A308415840F1
:10590000592531A8294531A631E8195100D508702B
:1059100010D4113A08F300AD08B3199B117408CAEA
:1059200018AC213629FA2A59223A1196008E084DD0
:1059300008B3113621992A9E227B099200AB0027D9
:105940000007084A193719B8112E002800290091BC
:105950001151190B18EE2A9E1218115422BB22194C
:10596000321842BA63FF4B9B2A375B326B6A6B6A11
:105970006B6B6B6B6B4BE7C3E7C5EFC5EFC6EFC750
:10598000EFE7F7E7EFE7EFE7EFE7EFE8EFE7EFC87D
:10599000EFEAEFE8DFC7C766A6C6758A43EE22CCFA
:1059A00022493AD05B9A847E951F953F8D1F7C9F3C
:1059B0006BFC5337429529F321D329F33A143A1655
:1059C00032357C7B9D5F747F5BDF3ADB19F21172AD
:1059D000008A08AD195629DB325B2196215131AA84
:1059E0006BCF4AAA422980E2B840304110E411034B
:1059F000000000000000000008A308A208206020AA
:105A000048832105294539E92149088C004F008F39
:105A1000087008B3088B0886086A00AF08CD110F1C
:105A200000D1004F006D1113199B19BB117308C8E9
:105A3000110F117508D321DD3AFF227F11951194C2
:105A4000099300870004006A006600430067086746
:105A50000864104118C711B809B7119819F81198BE
:105A600021B531F32A183ABD42FC5B526B8A6B6A4E
:105A70006B6B636A6B4BE7E5E7E6EFE7EFE7EFE8B1
:105A8000EFE8EFE7EFE8EFE9EFC8EFC8EFC7EFC6E1
:105A9000EFE8DFE6C784AE858D4753A92A8C224BF9
:105AA000226A3AAD3AD242D642D84B19533A5B7980
:105AB00063795315429129F029F121D029EF29CF9B
:105AC000219131F34299429C5B9F5B7F4AFC4B5989
:105AD0006C5621CC08F01956111410F218EF196BFE
