:020000040800F2
:1000000030220020ED010008B91A0008111900087B
:10001000B51A0008A1080008051F0008000000002C
:100020000000000000000000000000000D1C00089F
:10003000A508000800000000E91A0008411C00089B
:10004000070200080702000807020008070200086C
:10005000070200080702000807020008070200085C
:10006000070200080702000807020008070200084C
:10007000070200080702000807020008070200083C
:10008000070200080702000807020008070200082C
:10009000070200080702000807020008070200081C
:1000A000070200080702000807020008070200080C
:1000B00007020008070200080702000807020008FC
:1000C00007020008070200080702000807020008EC
:1000D00007020008F51E00080702000807020008D2
:1000E00007020008070200080702000807020008CC
:1000F00007020008070200080702000807020008BC
:1001000007020008070200080702000807020008AB
:10011000070200080702000807020008070200089B
:10012000070200080702000807020008070200088B
:1001300000F002F800F04BF80AA090E8000C8244AE
:100140008344AAF10107DA4501D100F040F8AFF28B
:10015000090EBAE80F0013F0010F18BFFB1A43F0A5
:10016000010318475C3F00007C3F0000103A24BFA9
:1001700078C878C1FAD8520724BF30C830C144BF0C
:1001800004680C607047000000230024002500264E
:10019000103A28BF78C1FBD8520728BF30C148BFEA
:1001A0000B607047692900F08180642900F07E802F
:1001B000002070471FB59DE8030000F07BFA00F0B7
:1001C00021F91FBD10B5002000F00CFA10BD00F0A1
:1001D0002FFA1146FFF7EEFF03F05EFC00F0C7FABE
:1001E00003B4FFF7EFFF03BC03F0EAFB09488047C5
:1001F00009480047FEE7FEE7FEE7FEE7FEE7FEE709
:10020000FEE7FEE7FEE7FEE704480549054A064B20
:1002100070470000A11C00083101000830020020D6
:100220003022002030120020301200200FB4044988
:1002300010B503AA029800F069F910BC5DF814FB30
:10024000440100202DE9F0410E46044600202062C2
:100250002046E168884730B3252805D0D4E901213C
:100260009047206A401CF2E7E16820460027884753
:10027000050018D0A5F14100192802D820354FF407
:1002800000673246294620462760FFF78BFF40B1C2
:10029000012804D0F61D26F007060836D8E7361DDB
:1002A000D6E72846DAE7206ABDE8F0812DE9F0417B
:1002B0000646002410687529314616A510D0AFF304
:1002C0000080002802DA404213A507E031688A075F
:1002D00001D512A502E0490704D511A5012401E0CA
:1002E000AFF3008000210A2206F1240709E0B0FBE9
:1002F000F2FCB0FBF2F302FB1C00303078541846DD
:10030000491C0028F3D123462A463046BDE8F04177
:1003100000F08AB8000000002D0000002B00000053
:100320002000000010B5044603E003F09BFB401CD6
:1003300009D014F8010B05490028F6D1BDE810409A
:100340000A2003F08FBB4FF0FF3010BD44010020A6
:100350000B460146184600F0EBB802F0FF0343EAF3
:10036000032242EA024200F002B84FF000020429E0
:10037000C0F0128010F0030C00F01B80CCF1040CD4
:10038000BCF1020F18BF00F8012BA8BF20F8022B08
:10039000A1EB0C0100F00DB85FEAC17C24BF00F8AE
:1003A000012B00F8012B48BF00F8012B70474FF0DC
:1003B000000200B5134694469646203922BFA0E8B5
:1003C0000C50A0E80C50B1F12001BFF4F7AF0907C1
:1003D00028BFA0E80C5048BF0CC05DF804EB8900B2
:1003E00028BF40F8042B08BF704748BF20F8022BF5
:1003F00011F0804F18BF00F8012B7047704770470D
:100400007047000070B5064C7C44064D7D4404E006
:100410002046016808448047241DAC42F8D170BDD5
:10042000D43C0000D43C00002DE9F0470D4699462D
:100430009246044600F124080168880604D5E06964
:1004400021F01001216000E00120A84201DD471BDE
:1004500000E00027A1697A1902EB0900081AA061DF
:100460002078C00602D42046AFF30080002608E0C2
:10047000D4E901211AF806009047206A401C761C36
:1004800020624E45F4DB2078C0060AD52046AFF343
:10049000008006E0D4E9012130209047206A401C0A
:1004A0002062381EA7F10107F4DC07E0D4E901213E
:1004B00018F805009047206A401C2062281EA5F10C
:1004C0000105F3DC2046AFF300802078000602D55A
:1004D0000220BDE8F0870120FBE7000001694A1C0B
:1004E00002610878704700B58FB0CDE90131002175
:1004F000059105497944CDE9031011466846FFF797
:10050000A1FE0FB000BD0000E5FFFFFF074B70B577
:100510000D467B44FFF7E7FF0446284600F053F8FA
:1005200010B14FF0FF3070BD204670BD4F35000058
:100530002DE9F041074615460E46102000F014F84C
:1005400004000AD06760C4E9026500F009F8016898
:10055000216004600020BDE8F0810120FBE700007D
:10056000004870474800002070B5064600F086F845
:10057000056806F10B0020F00704B4429CBF002080
:1005800070BD2B466A68BAB11068A04210D304F15E
:10059000080188423CBF5068586007D35168101961
:1005A00041601168091B016058601460101D70BD26
:1005B00013465268002AE7D12146284600F066F823
:1005C0000028DED170BD007B00F08000704710B5C0
:1005D000002000F0D5F8FFF7F5FDBDE81040012040
:1005E00003F0EEB92DE9F0410646FFF7B9FF80466A
:1005F000454613E016B1E068B0420ED1206828608D
:10060000D4E90101D8F800708847204600F088F846
:10061000D8F80000B842EBD100E025462C68002C49
:10062000E8D1BDE8F08100000048704710000020CC
:100630007546FFF7F9FFAE4605006946534620F0C0
:100640000700854618B020B5FFF7DEFDBDE8204065
:100650004FF000064FF000074FF000084FF0000B7E
:10066000AC46ACE8C009ACE8C009ACE8C009ACE8ED
:10067000C00921F007018D4670470000004870470F
:1006800018000020704770477047704738B504461F
:100690000A4600206946AFF30080002808BF38BD35
:1006A00002460099204600F072F8012038BD012072
:1006B00000F0A4B8F8B5AFF30080054600200C4662
:1006C000102000BF0646A819A0420DD9324669463F
:1006D0000020AFF30080070008BF00F08FF80098FB
:1006E000A04218BF0546C419FFF7C8FF05600746BA
:1006F000F01D20F007004619284600F00AF8B44221
:1007000008BFF8BDA21B31463868BDE8F84000F0CC
:100710003EB800210160C0E9011070471020704709
:1007200070B50446051FFFF7A9FF0068002C14BF31
:10073000446870BD002C18BFAC423CBF20466468C2
:10074000F8D301680A18AA4218BF456003D12A6885
:1007500005461144016028684119A1421CBF6C6024
:1007600070BD6168696021680844286070BD10B57B
:100770000446AFF300802046BDE81040FFF730BDCF
:1007800010B500F023F8BDE8104000F01AB8034699
:1007900040688C46002818BF88423CBF034640682A
:1007A000F8D318681844884207D00CF1030020F0F1
:1007B0000700001D411A521A0146081D0A60FFF782
:1007C000AFBF002801D003F0FBB8704710B500217F
:1007D00002A000F01BF8012010BD00005349474162
:1007E0004252543A2041626E6F726D616C207465A2
:1007F000726D696E6174696F6E00000010B500F073
:100800001FF8BDE81040FFF7DCBF704770B5054624
:100810000C460A2000E06D1C00F03AF835B128784B
:100820000028F8D102E0641C00F032F814B12078FE
:100830000028F8D1BDE870400A2000F029B8000077
:1008400010B5012805D0002103A0FFF7DFFF01202C
:1008500010BD09A1F8E7000053494752544D454DDA
:100860003A204F7574206F662068656170206D6551
:100870006D6F7279000000003A2048656170206D4C
:10088000656D6F727920636F727275707465640044
:1008900008B569468DF800000320ABBE08BD000016
:1008A000FEE700007047000070470000014690F826
:1008B0002100022813D10868D1E90FC3026822F091
:1008C0000E020260026822F001020260012000FABA
:1008D00003F2CCF8042081F82100002002E004207B
:1008E00088630120002281F82020704780B590F8AD
:1008F0002110022927D1026840F2040C1368C4F2C7
:10090000020C23F00E03136013680CF17C018A4281
:1009100023F0010111601AD940F20841C4F202012A
:100920008A4247D040F21C41C4F202018A4245D0BB
:1009300040F23041C4F202018A4243D14FF4807345
:10094000CCF8003457E004218163012080BD4321AD
:10095000C4F202018A420EDD6B21C4F202018A4216
:100960001BDC4421C4F202018A4239D05821C4F26E
:1009700002018A4231E00821C4F202018A4232D0E7
:100980001C21C4F202018A4232D03021C4F2020199
:100990008A4222D14FF480722BE06C21C4F2020112
:1009A0008A4222D08021C4F202018A4215D14FF03E
:1009B00080721EE00123CCF800341CE01023CCF838
:1009C000003418E00CF588614FF480338A4208BF88
:1009D0004FF48053CCF800340DE04FF4803208E03F
:1009E0004FF4805205E0012203E04FF4801200E052
:1009F0001022CCF80020416B4FF48072028401B1C8
:100A00008847002080BD0000B0B5044600F00AF918
:100A1000054640F20400C2F200000078611C18BFD5
:100A2000044400BF00F0FEF8401BA042FAD3B0BD62
:100A30002DE9F04F83B00C68002C00F0EA80A0F1A3
:100A40008042A2F5843240F2004E4FEAB22241F6D3
:100A50000047C4F2010E0092C4F2010706220025ED
:100A60004FF001094FF0000B4FF0000AB84208BFE9
:100A70000522019209E000BF0C680BF1010B34FA6A
:100A80000BF205F1040500F0C48009FA0BF814EA32
:100A9000080CF1D04C684FF6FF72C1F2100294427C
:100AA00010DC122C50D8DFE804F0330A41454F4FD8
:100AB0004F4F4F4F4F4F4F4F4F4F4F484C00D1F874
:100AC0000CA041E04FF6FF72C1F2210294420FDC0C
:100AD0000022C1F2110294421AD00022C1F2120285
:100AE000944215D00022C1F22102944210D02BE092
:100AF0000022C1F2220294420AD00022C1F2310245
:100B0000944205D00022C1F2320294421CD100BFAF
:100B10008C6844B1012C14BFC0F81480C0F8108058
:100B20004FF0080A10E04FF0040A0DE0CC6804F121
:100B3000080A09E04FF0000A06E0CC6804F1040A54
:100B400002E0CC6804F10C0A2C460746BCF5807F15
:100B500024BF203C04373A680F2303FA04F6B2435B
:100B60000AFA04F422433A60CA79D2067FF584AFC8
:100B700041F21804C4F2020422684FF6084842F019
:100B8000010222602268CFF6FF7802F00102029291
:100B9000029A2BF00302724452F8084005F00C064A
:100BA00003FA06F7009BBC43019F052B38BF1F4685
:100BB00007FA06F6344342F808404C68E203DEF8D0
:100BC000002054BF22EA0C0742EA0C07A203CEF829
:100BD0000070DEF8042054BF22EA0C0742EA0C073A
:100BE000E202CEF80470DEF8082054BF22EA0C07B7
:100BF00042EA0C07A20240F20C44CEF80870C4F29C
:100C00000104226854BF22EA0C0242EA0C0222606C
:100C100032E703B0BDE8F08F002A08BF0904016184
:100C20007047000040F22820C2F2000000687047C0
:100C300040F2040040F22821C2F20000C2F200019A
:100C400000780A68104408607047000080B542F2DE
:100C50000000C4F20200016841F0100101600320AD
:100C600000F066F8002000F005F800F02BF80020F6
:100C700080BD0000B0B540F20402C2F2000240F2B2
:100C800000011278C2F200014FF47A730968B3FBD5
:100C9000F2F20446B1FBF2F1084600F031FC0F2CF1
:100CA0004FF001050CD858B94FF0FF302146002213
:100CB000002500F02DF840F20800C2F200000460A8
:100CC0002846B0BD82B041F21800C4F202000168AB
:100CD000022241F001010160016801F0010101916E
:100CE0000199416841F080514160406800F08050B6
:100CF000009000980420C4F20100016862F31A61B8
:100D0000016002B07047000080B502F0F7FD80BDC1
:100D100070B514460D46064602F000FE29462246EE
:100D200000F0CCFE0146304602F000FE70BD00002F
:100D300080B502F00DFE80BD2DE9F04381B00028A2
:100D400000F0898042F20008C4F202080446D8F894
:100D500000000D4600F0070088420CD2D8F80000D1
:100D600020F007002843C8F80000D8F8000000F081
:100D70000700A8426FD1206841F204098107C4F23C
:100D8000020917D5410705D5D9F8001041F4E061F3
:100D9000C9F80010010705D5D9F8001041F46051D9
:100DA000C9F80010D9F80010A26821F0F001114331
:100DB000C9F80010C00745D1D8F8000000F00700BE
:100DC000A8420CD9D8F8000020F007002843C8F842
:100DD0000000D8F8000000F00700A8423BD12068CE
:100DE000410707D5D9F80010E26821F4E06111430A
:100DF000C9F80010000708D5D9F80000216920F4CF
:100E0000605040EAC100C9F8000000F079F8D9F854
:100E1000001043F60872C1F30311C0F60002515CE2
:100E200040F2000220FA01F140F20800C2F2000094
:100E30000068C2F200021160FFF71CFF002001B041
:100E4000BDE8F0836068022809D0012829D159F84B
:100E5000041C890307D4012001B0BDE8F08359F8D0
:100E6000041C8901F7D5D9F8001021F003010843CB
:100E7000C9F80000FFF7D6FE064641F2883700BFEA
:100E8000D9F80000616800F00C00B0EB810F93D03E
:100E9000FFF7C8FE801BB842F2D9032001B0BDE8BD
:100EA000F08359F8041C8907D5D5DCE740F200002F
:100EB000C2F200000068704780B5FFF7F7FF41F20B
:100EC0000401C4F20201096843F61872C1F3022159
:100ED000C0F60002515CC84080BD000080B5FFF73D
:100EE000E5FF41F20401C4F20201096843F61872F9
:100EF000C1F3C221C0F60002515CC84080BD0000B1
:100F000041F2040CC4F2020CDCF8003003F00C00D7
:100F1000082841F20020C0F27A0018BF7047C3F3DE
:100F200083420AA18A5CD90305D440F60010C0F2BE
:100F30003D0050437047DCF8001008A3C1F3404166
:100F4000595C5043B0FBF1F0704700BF0203040549
:100F5000060708090A0B0C0D0E0F10100102000005
:100F60002DE9F04182B0002800F0C48004460078EA
:100F700041F20006C007C4F2020643D0706800F0D8
:100F80000C00042817D0706800F00C00082802D16B
:100F90007068C0030FD465682DB1B5F5A02F10D0CF
:100FA000B5F5803F11D0306820F480303060306873
:100FB00020F480200CE03068800323D5606808BBF3
:100FC00098E0306840F480203060306840F4803031
:100FD0003060FFF727FE002D054610D030688003F3
:100FE00010D4FFF71FFE401B6428F7D904E100BFAF
:100FF000FFF718FE401B64284FF0030077D83068D5
:101000008003F5D42078800718D5706810F00C0F95
:1010100007D0706800F00C00082826D17068C00363
:1010200023D43068800702D52069012862D1306856
:10103000616920F0F80040EAC100306020780007C4
:101040003DD5A06938B30020C4F242200121C0F888
:101050008014FFF7E7FD0546706A80072DD4FFF77F
:10106000E1FD401B0228F7D9C6E02069002840F2C4
:101070000000C4F2422000F0968001210160FFF7D9
:10108000D1FD054630688007D1D4FFF7CBFD401B6A
:101090000228F7D9B0E00020C4F242200021C0F8B5
:1010A0008014FFF7BFFD0546706A800707D5FFF77C
:1010B000B9FD401B0228F7D99EE000F017FD20780B
:1010C00040071BD4E5698DB1706800F00C0008285A
:1010D00047D1012D0ED07068216A00F480328A4217
:1010E00008D1616A00F47010884203D1002002B078
:1010F000BDE8F081012002B0BDE8F081F06910F098
:10110000805808D1F06940F08050F061F06900F03B
:1011100080500190019847F20007C4F20007386838
:10112000C00510D4386840F480703860FFF77AFD4D
:10113000054600BF3868C00505D4FFF773FD401BA6
:101140006428F7D958E0E5681DB1052D3CD0012D84
:101150003ED0306A20F001003062306A20F0040096
:1011600039E00027C4F2422700203866FFF75AFD15
:10117000022D05460CD100BF3068800154D5FFF721
:1011800051FD401B02284FF00300F5D9AFE700BF27
:1011900030688001AAD5FFF745FD401B02284FF0BB
:1011A0000300F5D9A3E700210160FFF73BFD0546E9
:1011B000306880077FF542AFFFF734FD401B0228FF
:1011C0004FF00300F4D992E7306A40F00400306237
:1011D000306A40F001003062FFF724FD002D054623
:1011E00041F2883714D000BF306A800713D4FFF76C
:1011F00019FD401BB842F7D9032002B0BDE8F081C9
:10120000FFF710FD401BB8424FF003003FF66FAFF1
:10121000306A8007F4D4B8F1000F7FF453AFF0695F
:1012200020F08050F0614DE7206AB0F5803F05D195
:101230007168A26821F40031114371607168626ABB
:1012400021F4741110430843706001203866FFF7E1
:10125000E9FC0446306880013FF548AFFFF7E2FC47
:10126000001B02284FF00300F4D940E770B538B1F5
:101270000446406A30B10020206104F1140007E008
:10128000012070BD6068B0F5827F03D004F11C00BE
:10129000002101600026A66294F8510020B9204682
:1012A00084F8506000F038F8022084F8510094E887
:1012B000071001F48271036802F4044223F0400332
:1012C0000360236911440CF40062114403F002022C
:1012D0006369114403F00102A369E569114403F451
:1012E0000072114405F03802256A114405F08002AD
:1012F000A56A114305F4005211430160042101EA7B
:1013000013414160C16921F40061C161012066653A
:1013100084F85100304670BD80B586B0014640F675
:101320000000C4F20100096800F5205291424FF01C
:101330000001CDE90411CDE9021101D006B080BD54
:1013400041F21801C4F202010A6842F480520A60B4
:101350000A6802F480520192019A0A6842F004027B
:101360000A60096801F0040101910199A02102912C
:10137000022103910321059102A9FFF759FB06B051
:1013800080BD00002DE9F04381B0044690F8500084
:10139000012803D1022001B0BDE8F0834FF001091C
:1013A0001D4616460F4684F85090FFF73BFC94F814
:1013B000511001295DD18046002F4FF0010018BF68
:1013C000002E00F09580032084F851000020606515
:1013D0002763A686E686A063A087E087A168C4E9A4
:1013E0001000B1F5004F08D12068016821F04001DC
:1013F0000160016841F4804101602068016849068C
:1014000003D4016841F0400101606168731EE26825
:10141000B1FA81F1B3FA83F349095B09B2F5006FC0
:1014200041EA030127D139B1216B0988C160B81C99
:101430002063E08E0138E086E08E002841D06E1CEB
:101440000AE000BF216B31F8022BC2602163E08EFD
:101450000138E086E08EA0B3206881688907F1D466
:10146000FFF7E0FB002EF5D0A0EB0800A842F1D377
:1014700025E002203CE039B139780173206B01305E
:101480002063E08E0138E086E08ED0B16E1C0AE069
:10149000216B09780173206B01302063E08E0138E5
:1014A000E086E08E68B1206881688907F0D4FFF794
:1014B000B9FB002EF5D0A0EB0800A842F1D3032021
:1014C00016E020462946424600F026FB00281CBFB5
:1014D00020206065A06838B9002000902068C168AD
:1014E0000091806800900098606D002818BF01206E
:1014F000002184F8519084F8501001B0BDE8F083C9
:1015000080B500F085FB80BD70470000704700008B
:10151000B0B582B0016805460868CA684C6900F039
:101520002F03202B02F0200305D123B1284600F021
:10153000E3FB02B0B0BD5FEA007C1EBF04F0010E09
:1015400002F4907414EB0E0424D12B6B1040C206ED
:1015500017D5012B15D1002001900868019048682B
:1015600001900198486940061CD4A88DEA8DEB8D46
:10157000002B1CBF801A5FEA004240F09A8002B044
:10158000B0BD010636D44006F9D5284600F0A8FBC8
:1015900002B0B0BDC10718BF12F480712FD141074E
:1015A00033D439E0A86B0268526893B2002BE6D0BE
:1015B000AC8DA342E3D2EA858269202A16D0CA689C
:1015C00022F48072CA604A6922F001024A614A69C3
:1015D00022F040024A61202285F83E2000222A6340
:1015E000CA6822F01002CA60FFF760F9A88DE98D81
:1015F000401A6FE0284600F021FC02B0B0BD296C13
:1016000041F001012964410706D5BEF1000F03D066
:10161000296C41F002012964810706D5BEF1000F53
:1016200003D0296C41F004012964BCF1000F06D5F8
:101630005EEA030103D0296C41F008012964296C9A
:1016400000299CD01040800602D5284600F054FBAB
:1016500028684069296C00F0400001F0080140183A
:1016600020D0284600F026FB28684169490614D599
:10167000416921F040014161A86B70B141F6A5417B
:10168000C0F600014163FFF731F900283FF477AF5E
:10169000A86B416B884702B0B0BD2846FFF736FF04
:1016A00002B0B0BD2846FFF731FF0020286402B029
:1016B000B0BDCA6822F49072CA604A6922F0010281
:1016C0004A61202285F83E2000222A63CA6822F05F
:1016D0001002CA6081B22846FFF716FF02B0B0BD03
:1016E000002804BF0120704710B5044690F83D0063
:1016F00028B9002084F83C00204600F021F824207E
:1017000084F83D002068C16821F40051C160204682
:1017100000F04CFB2068016921F4904101614169AE
:1017200021F02A014161C16841F40051C1600020EB
:101730002021206484F83D1084F83E1010BD000084
:1017400070B586B0006844F20041C4F20001002682
:1017500088420596CDE9036602963FD043F6000124
:10176000C4F20101884266D141F21800C4F20200BD
:10177000016840F6000441F4804101600168C4F250
:10178000010401F4804101910199016802AD41F029
:10179000040101600068294600F0040001900198EE
:1017A0004FF4007002900220039003200590204621
:1017B000FFF73EF94FF4806002900020CDE903006E
:1017C00020462946FFF734F9252000210022FFF7A3
:1017D0009FFA2520FFF798FA06B070BD41F2180075
:1017E000C4F20200416840F6000441F40031416057
:1017F0004168C4F2010401F40031019101990168CA
:1018000002AD41F0040101600068294600F00400C7
:10181000019001980420029002200390032005907B
:101820002046FFF705F90820CDE9020620462946A3
:101830000496FFF7FDF806B070BD00007047000089
:101840002DE9F04381B0044690F83D0020280BD1EB
:101850000E4600294FF0010055D01746002A52D0FD
:1018600094F83C00012803D1022001B0BDE8F083C8
:10187000012084F83C004FF0000921201D46C4F8E7
:10188000409084F83D00FFF7CDF9A784E784A16874
:101890000746B1F5805F07D1206900281CBF30469C
:1018A0004E46B046064601E04FF0000884F83C90F2
:1018B00007E000BF16F8010B21684860E08C013892
:1018C000E084E08C80B1204680213A462B4600F02F
:1018D000DFFA80B9002EEDD138F8020B21686FF3E2
:1018E0005F2048600026E9E7204640213A462B4623
:1018F00000F0CEFA18B1032001B0BDE8F08320203B
:1019000084F83D00002001B0BDE8F083704700007E
:10191000FEE700002DE9F04F85B04FF0000841F2DE
:101920001800CDE90388CDE90188C4F202000168FE
:1019300040F6000641F0200101600168C4F2010692
:1019400001F02001009100990168002241F004019A
:1019500001600168102701F00401009100990168FD
:1019600041F010010160016801F01001009100993F
:10197000016841F0080101600068102100F00800D2
:10198000009000983046FFF747F906F500652846B5
:10199000302100224FF03009FFF73EF906F5806450
:1019A00020464FF480410022FFF736F9019701AF3E
:1019B0004FF0010B4FF0020A30463946CDE902B82C
:1019C000CDF810A0FFF734F828463946CDE9019B41
:1019D000CDE9038AFFF72CF84FF48040CDE9010BE5
:1019E00020463946CDE9038AFFF722F805B0BDE865
:1019F000F08F0000B0B540F2481043F20001C2F28F
:101A00000000C4F201014FF48272002380E80E004E
:101A100000F10C014FF0020C4FF0010E4FF4007476
:101A2000082581E808500A21C0E90645C0E90833C5
:101A3000C0E90A31FFF71AFC002818BFFEF734FF8F
:101A4000B0BD000080B540F2A01043F60001C2F224
:101A50000000C4F2010100234FF00C0C4FF4E132FE
:101A600080E80E00C0E90333C0E905C3C361FFF796
:101A700037FE002818BFFEF717FF80BD80B540F283
:101A8000E41044F20041C2F20000C4F2000100235D
:101A90004FF00C0C4FF4E13280E80E00C0E9033344
:101AA000C0E905C3C361FFF71BFE002818BFFEF79E
:101AB000FBFE80BDFEE700007047000000F007005D
:101AC00080F00703042B28BF04234FF0FF3C0338AA
:101AD0000CFA03F338BF0020994381400CFA00F060
:101AE00022EA0000084370477047000081B040F2CE
:101AF0000000C2F20000006844F6D351C1F2620156
:101B0000A0FB0101480A009000BF0098411E002878
:101B10000091F9D101B0704710B513460A468021F3
:101B2000044600F00BF800280FBF0020606D40F065
:101B30002000606518BF032010BD00002DE9F043B0
:101B400081B01E4690460D468146FFF76BF8301A6D
:101B500000EB0807FFF766F840F20001C2F200014F
:101B60000968C1F3CB3179430091D9F80010896835
:101B70002940A94219D1064608F1010406E000BF38
:101B8000D9F8000080682840A8420ED1002CF7D078
:101B9000FFF748F8801BB8420BD200980099002844
:101BA00008BF0746481E0090EAE7002001B0BDE8E4
:101BB000F083D9E900014268B1F5827F22F0E002AA
:101BC00042600BD1D9F80810B1F5004F02D0B1F541
:101BD000806F03D1016821F040010160D9F828101D
:101BE000B1F5005F07D1016821F40051016001687F
:101BF00041F400510160012089F85100002089F86A
:101C00005000032001B0BDE8F083000070470000E1
:101C1000B0B501380024B4EB106F1CBF0120B0BD7B
:101C20004EF21005CEF2000568604FF0FF300F2134
:101C300001F07CFE0720AC6028602046B0BD0000AB
:101C400080B5FEF7F5FF80BD70B590B006AC2046BC
:101C50002821FEF7ACFB012006900A904FF4E0101B
:101C600000254FF4803102260F9020460595CDE9DE
:101C70000355CDE90155CDE90715CDE90D61FFF714
:101C80006FF90F20CDE901064FF48060CDE904051E
:101C900001A802210395FFF74FF810B070BD0000B6
:101CA0007047000080B5406A0021C185C184FFF7FC
:101CB0002DFC80BD0168CA6822F49072CA604A692E
:101CC00022F001024A61026B012A03D1CA6822F0A4
:101CD0001002CA60202180F83E1000210163704785
:101CE00080B50168CA6822F04002CA60202180F8ED
:101CF0003D10FFF70BFE80BD80B582B090F83E101E
:101D000022291ED18268B2F5805F02D101690029C3
:101D100040D0816AB2F5805F07D00AB9026922B16A
:101D20000268526802F07F0201E0026852680A709D
:101D30000121826A11448162C18D01390A04C18581
:101D400001D002B080BD0168CA6822F02002CA60DA
:101D5000CA6822F48072CA604A6922F001024A61AC
:101D6000202280F83E20026B012A1BD10022026350
:101D7000CB6823F01003CB600B68DB0605D501921E
:101D80000A680192496801910199818DFFF7BCFBB6
:101D900002B080BD0168826A49686FF35F211180DB
:101DA0000221C6E7FFF74AFD02B080BD10B5044628
:101DB0000068D4E902C22369016921F4405111434A
:101DC0000161616943EA0C021143C26841F20C638C
:101DD0009A431143C1604169A26921F440711143E2
:101DE00043F60002C4F201029042416102D0FFF7C3
:101DF00063F801E0FFF772F8626819214843910027
:101E0000B0FBF1F048F21F51C5F2EB11A0FB01232A
:101E10005A096FF0630302FB0300322303EB001047
:101E2000A0FB0101F02303EA5113206803EB021227
:101E3000C1F343111144816010BD000090F83D10C2
:101E4000212923D18168B1F5805F01D1016931B1C8
:101E5000016A02684B1C03620978516007E0016A5D
:101E6000036831F8022B6FF35F225A600162C18C64
:101E700001390A04C18418BF70470068C16821F0A5
:101E80008001C160C16841F04001C160704700003D
:101E90002DE9F0410446006800680840884202D1FC
:101EA0000020BDE8F0811D460E4690465F1C04E010
:101EB000206800683040B042F2D0002FF8D02DB139
:101EC000FEF7B0FEA0EB0800A842F1D92068C16877
:101ED00021F4D071C160416921F0010141612020EC
:101EE00084F83D0084F83E00002084F83C00032084
:101EF000BDE8F08180B540F2A010C2F20000FFF70B
:101F000007FB80BDFEE7000080B501F045FD80BD08
:101F100001804280037170472DE9F04F93B08C88A7
:101F20000E884D880F34C98824094FEA16180F31DE
:101F3000A4EB161690F84E4025F00F07C5F31B1CB6
:101F4000090990F84FA0D0E90550A1EB1719B1B2DB
:101F5000A4EB061E04FB03F6069106FB0AF62946CF
:101F600005EB8601360A4FEA141B00EB460000EB36
:101F700048000BFB0CF600EB46061FFA89F000FB4D
:101F80000BF006EB400004904FEA0810039020018C
:101F90000D90CEF30B1002900AFB03F0012A4FEADA
:101FA000800005950E91079440F0AD80A50001904A
:101FB000109500BF0199B8B201EB800160430A900F
:101FC0000598069A04FB010006EB4202099003986B
:101FD00008970B9282B20E980A994FF0000900EB15
:101FE00081000D9900EB820000EB810011900998AF
:101FF0000F9600EB820A0C92DAE90067DAE90245F3
:102000003846314601F0A4FD002818BF374638464F
:10201000214601F052FD294601F04FFD0AF110075B
:10202000B0CFDAF81C6012902846214601F090FDEE
:10203000002818BF25462846394601F03EFD3146A6
:1020400001F03BFD0AF1200B9BE87008074628468B
:10205000214601F07DFD002818BF2546284631465F
:1020600001F02BFD594601F028FD0AF1300B9BE8E9
:10207000700880462846214601F06AFD002818BFF6
:1020800025462846109D314601F017FD594601F0BE
:1020900014FD129E04463846314601F059FD0028D1
:1020A00018BF37463846414601F007FD214601F08A
:1020B00004FD4946044601F04BFD002808BFA14637
:1020C0001198AA44824597D34FF600714846C4F24E
:1020D0007F7101F04DFE01F0C7FD0F9E26F8020B47
:1020E0000B9886420C9800F11000FFF473AF029831
:1020F000089F06EB40060498079C864207F11007EC
:10210000FFF458AF89E04FEA84080A900A99B8B200
:1021100001EB800160430C900598069A04FB0100D6
:1021200006EB42020B9003980897109282B20E9829
:102130000C994FF0000A00EB81000D9900EB820032
:1021400000EB810012900B980F9600EB820B11921E
:102150009BE8C30001F0C5FC314601F0C2FC3946E2
:1021600001F0BFFCDBE90421DBE90674814610467F
:1021700001F0B7FC394601F0B4FC214601F0B1FC96
:10218000DBE90821DBE90A460746104601F0A9FC15
:10219000214601F0A6FC314601F0A3FCDBE90C214D
:1021A000DBE90E460546104601F09BFC214601F096
:1021B00098FC314601F095FC04464846394601F04A
:1021C00090FC294601F08DFC214601F08AFC014675
:1021D000504601F086FC1299C3448B458246B7D322
:1021E0004FF600715046C4F27F7101F0C1FD01F05D
:1021F0003BFD0F9E26F8020B10988642119800F1C5
:10220000100093D30298089F06EB40060498079CA1
:10221000864207F11007FFF479AF13B0BDE8F08FE5
:102220002DE9F04F89B08C880E884D880F34C9880D
:10223000240990F84E800F31A4EB161425F00F07F7
:10224000C5F31B1E0D09A1B2A8EB041990F84F406D
:10225000039108FB03F3D0E90510A5EB171C03FB62
:1022600004F503FB04112B0A4FEA161A4FEA18165D
:1022700000EB430000EB4A0006FB0EF300EB430BC0
:102280001FFA8CF070430BEB400002904FEA0A10EB
:1022900001904FEA08100790012AC9F30B1008912A
:1022A00000906BD1039804970BEB40000690B8B2F6
:1022B00000FB08F0059001981FFA80FA089805992C
:1022C0004FF00009084400EB0A02079802EB000EE9
:1022D00014785778957892F803C0A74238BF2746FC
:1022E000AF4298BF2F46674598BF67461579547926
:1022F0009379D179AC4238BF2C469C4298BF1C469A
:102300008C4298BF0C46117A557A937AD67A8D42D0
:1023100038BF0D469D4298BF1D46B54298BF354611
:10232000117B537B967BD07B8B4238BF0B46B342ED
:1023300098BF3346834298BF0346BC4238BF3C46F1
:10234000AC4298BF2C469C4298BF1C464C45424428
:1023500028BFA1467245BBD34FEA09202BF8020BD8
:10236000069883450AF11000A6D30098049F0BEB52
:10237000400B02981037834594D367E00398049785
:102380000BEB40000690B8B200FB08F4019800BFC8
:1023900085B2089820444219079802EB000E0020ED
:1023A000117856789378D778B14238BF0E469E425E
:1023B00028BF1E46BE4228BF3E46117992F80590BE
:1023C0009379D779494538BF8946994528BF9946B9
:1023D000B94528BFB946117A92F809A0937AD77AFD
:1023E000514538BF8A469A4528BF9A46BA4528BF04
:1023F000BA46117B537B977B92F80FC0994238BF46
:102400000B46BB4228BF3B46634528BF63464E454B
:1024100038BFB146D14528BFD146994528BF994616
:102420004845424428BF48467245B9D300022BF8BC
:10243000020B0698834505F11000A9D30098049F6C
:102440000BEB400B02981037834597D309B0BDE8DA
:10245000F08F00002DE9F04F8CB08C880E884D88ED
:102460000F34C98824094FEA16180F31A4EB161649
:1024700090F84E4025F00F07090990F84FA0C5F3DA
:102480001B19A1EB171CB5B2A4EB061E04FB03F647
:10249000D0E9051006FB0AF605950D46049101EBFF
:1024A0004601360A4FEA141B00EB460000EB4800D9
:1024B0000BFB09F500EB45091FFA8CF000FB0BF054
:1024C00009EB400003904FEA0810029020010A90A7
:1024D000CEF30B1001900AFB03F0012A4FEA4000F3
:1024E0000B91069478D14FEA440800900099B8B255
:1024F00001EB4001604308900498059A04FB010C2D
:10250000029809EB42020797099200BF1FFA80FE6A
:102510000B980899002400EB41000A9900EB4E004B
:1025200000EB410A0CEB4E0002884788264684885F
:10253000B0F806B0974238BF1746A74298BF274663
:102540005F4598BF5F46028944898589C389944263
:1025500038BF1446AC4298BF2C469C4298BF1C46DC
:10256000038A428A858AC18A9A4238BF1A46AA4299
:1025700098BF2A468A4298BF0A46018B438B858BB7
:10258000B0F81EB08B4238BF0B46AB4298BF2B460B
:102590005B4598BF5B46BC4238BF3C46944298BFFF
:1025A00014469C4298BF1C46B442404438BF34464F
:1025B0005045B9D3099829F8024B81450EF1100016
:1025C000A4D30198079F09EB40090398069C814515
:1025D00007F110078AD377E0630000900099B8B242
:1025E00001EB4001604308900498059A04FB010E3A
:1025F000029809EB42020797099200BF82B20B983A
:102600000899002400EB41000A9900EB420000EB1E
:1026100041080EEB420000BF0588B0F802A0214639
:102620008488C688554538BFAA46A24528BFA24619
:10263000B24528BFB246068944898589C789A64222
:1026400038BF3446AC4228BF2C46BC4228BF3C466B
:10265000058AB0F812C0868AC78A654538BFAC467D
:10266000B44528BFB446BC4528BFBC46058B468B45
:10267000878BB0F81EB0B54238BF2E46BE4228BF89
:102680003E465E4528BF5E46A24538BF5446644577
:1026900028BF6446B44228BF3446A142184438BF1C
:1026A0000C464045B8D3099829F8024B814502F100
:1026B0001000A3D30198079F09EB40090398069CDB
:1026C000814507F1100789D30CB0BDE8F08F0000F9
:1026D0002DE9F04F03AFA3B08146967999F85240A7
:1026E00047F8946CA640B9F84A409B46D57999F8CA
:1026F000533090F84E0047F8306CA61B47F8985CB2
:102700009D40B3B28342B9F84C3047F8641C99F845
:102710004F10A3EB05081FFA88F328BF064647F8B9
:10272000345C8B4228BF8846B2F804A0158801FBB0
:1027300000F4A7F1240047F88C2C00F099FCB9F8BC
:102740002A000022073020F00700ADEB000027F838
:10275000246C27F8228C47E9062247F8202C07F83A
:102760001C2C47F8380C8546BAF1000F47F8904CFE
:1027700000F0E28157F830EC57F8343CCEF30B1000
:1027800047F8780CC3F30B1047F87C0C99F86400F9
:10279000022200284FEA142000FB0BF008BF0122A0
:1027A00047F8800C04FB0BF047F8680C98B247F828
:1027B0006C0C1FFA8EF047F8700C4FF6FF7047F85C
:1027C000300C002047F8340C0020002447F8440C5B
:1027D00000205346D44647F8602C47E9158647E960
:1027E000136847F8400C47F85C9C47F874BC07E056
:1027F00057F8880C57F8843C0588180400F0A48129
:10280000B9F85800A84240F2D483D9F84000B9F88A
:102810004410B9F8462001FB0506501C81B29AB25B
:102820008A4238BF1846C0B206F1020A1B1A0AEBE8
:10283000400047E9226347F83C0C2DE02268D9F8B4
:102840000010B8F80200BAF8003096688AB057F85D
:10285000542C57F8705C92B2089357F8503C03928E
:1028600057F8682C009557F86C5C9BB2049257F8A7
:10287000382CCDE9015357F8643C05920790204667
:10288000A7F12402CDF818B0B0470AB057F83C0CB5
:102890000AF1020A8245ABD2BAF80000B9F8561024
:1028A000814240F26983D9F8381000EB400231F8D8
:1028B000220057F8303C01EB8208834200F0B780D9
:1028C000D9F80410B9F82A2051F8303001EBC006CD
:1028D0001B6857F8381C30469847D9F8180047F855
:1028E000586C002870D057F84C1C37F8245C88B21C
:1028F000A84238BF0D4657F8481C37F8229C88B2CA
:10290000484537F820BC38BF894657F8400C584531
:1029100088BF8346306837F81E4C57F8442C41680E
:102920003046A24288BF1446884757F8302C4FF6ED
:10293000FF71511A18BF0121B0FA80F30028024636
:1029400018BF012203284FEA531315D057F8606CC3
:10295000F6B2B04210D07BB9012607F81C6C0026F5
:1029600047F8246C57F8506C47F8600C27F8206C37
:1029700057F8546C27F81E6C17F81C0CB0FA80F04E
:102980004009184301EA020047F8340C43D137F8F4
:10299000200C00283FD037F81E0CE0B357F85C0C31
:1029A000007F032821D0022813D0012840F0EE82B6
:1029B00057F8600C57F8743CC2B257F85C0CA7F19A
:1029C0002401FFF72DFC1BE057E9114B57E9135980
:1029D00021E057F8600C57F8743CC2B257F85C0C11
:1029E000A7F12401FFF736FD0AE057F8600C57F80D
:1029F000743CC2B257F85C0CA7F12401FFF78CFAC3
:102A000057F8500C27F8240C57F8540C27F8220CD0
:102A1000002047F8200CB8F8000047E9114B47E9BF
:102A2000135957F874BC57E9179447F8300C57F806
:102A3000340CC0073FF402AF98F8040057F8781C34
:102A400098F8063098F80520401A57F87C6C99F8E9
:102A50004EC0A64698F8074020EAE0711844951B3E
:102A6000C1EB1C16431A99F84F0025EAE5729E4205
:102A7000B8BF33462E19C2EB1010B41AA042B8BF2B
:102A80000446002B4FF0050018BF5FEA044604D14E
:102A9000002874467FF4FAAED0E64FEA1C161FFAFF
:102AA00081FCD9F8185057F8801C92B205EB41050B
:102AB00005EB4C01724301EB4201A2B298B27243A2
:102AC000F31A57F8606C9BB2F6B201EB4202012E8A
:102AD0004FEA43034FF0000618D100BF01EB40045A
:102AE000354631F8026BAE4238BF2E46A142F7D3CD
:102AF00019449142F2D3B8F8080086424FF0000022
:102B000038BF0520C4D30020C2E700BF01EB40045A
:102B1000354631F8026BB54238BF2E46A142F7D395
:102B200019449142F2D3B8F80A0086424FF00000EF
:102B30008CBF05200020ABE7002047F8400C0020A8
:102B400047F8440C47E9136857F84C3C37F8240C15
:102B500099B2884238BF034657F8482C37F8220C00
:102B600091B2884238BF024698B237F8201C57F815
:102B7000405C40EA024047F8240CA94237F81E2C7A
:102B800088BF0D4657F8441C80B28A4288BF114660
:102B900045EA014147F8201C57E90612D9F8703080
:102BA000D9F878608B4238BF0B46C9F8703096422E
:102BB00038BF1646C9F8786057F88C6C37F8223C55
:102BC000317A727A884238BF0146934238BF1A463A
:102BD00041EA024047F8280CB07AF17AAAB237F8F5
:102BE0001E3C824288BF10468B4288BF194640EA8D
:102BF000014147F82C1C17F8241C17F8222C3172BD
:102C000017F81E1C00287272B572F17200F0AF81C5
:102C100037F82A0C002800F0AA81D9F800000168D2
:102C20004E6882B0A7F12C01009157E92621A7F147
:102C30002803CDF804B0B04702B037F8241C19B10E
:102C4000012047F8300C16E037F8200C99F84E2098
:102C500090424FF0010047F8300C0CD337F8220CAB
:102C600048B937F81E0C99F84F200023904238BF1E
:102C7000012347F8303C37F8203C002B00F07781E7
:102C800037F81E2C002A00F0728199F81C0047F8D2
:102C90005C9C032800F2948157F8905C05FB0BFACA
:102CA000DFE810F0FA0004003200730057F85C4CC3
:102CB0004FF0000C94F86400002808BF4FF0FF3C70
:102CC000666957F8300C002806EB0A0000F0AF8068
:102CD0005D1A94F84E9037F8223C084403FB09062D
:102CE000D01A00FB09645FFA8CF808E030462946E8
:102CF0004246FDF732FB4E44A64280F0CD80002DC7
:102D0000F4D0002EF2D133E057F85C5C4FF00008AD
:102D100095F86400002808BF4FF0FF386E6957F837
:102D2000300C002806EB4A0074D05C1A95F84E303F
:102D300037F8225C00EB410005FB03F100EB410694
:102D4000501B58434FEA440B06EB40054FEA43093A
:102D50000AE000BF5FFA88F230465946FDF7FDFAF7
:102D60004E44AE4280F09880002CF3D0002EF1D17A
:102D700044F20600C0F60000FDF758FA43F6E3708F
:102D8000C0F60000FDF7CEFAFEDE57F85C4C57F8AF
:102D9000300C6569002805EB8A0054D037F8226CA6
:102DA00094F84EC000EB810094F864E00CFB06F44C
:102DB000921B00EB840002FB0CF2A3EB0109BEF1B5
:102DC000000F00EB82064DD057F8902C4FEA890097
:102DD00047F8340C02FB0BF0800005EB840400EB99
:102DE000810502FB0B104FEA8C084FEA800B09E0CB
:102DF00057F8341CFDF7B9FAC34404EB0B00B0429A
:102E0000454449D2B9F1000F04EB0500F0D0002889
:102E1000EED19FE057F8901C09B1002EA8D057F8CA
:102E2000901C5FFA88F24900FDF797FA34E057F8F2
:102E3000901C09B1002E9BD057F8901C5FFA8CF2C1
:102E4000FDF78BFA28E094F86410D9B157F8901C7C
:102E500011B1002D00F07E8057F8901C8900FDF71D
:102E600084FA19E06144C91A89004FF07E5200BF0C
:102E700000EB890340F8042B9842FBD30844B0428E
:102E8000F6D309E057F8901C4FF07E5200EB810119
:102E900040F8042B8842FBD357F85CBCDBF81800E1
:102EA00070B14FEA1A2100EB410057F8901C9BF8D3
:102EB0006430C9090022002B08BFFF22FDF74DFA3C
:102EC0004FF0000809E000BF0AFB0020FDF74DFAB3
:102ED00008F10108B8F1040F49D00BEB080090F895
:102EE00020000028F4D09BF84E1057F8302C01FB3E
:102EF00000F91AB337F8202C37F8243CDBF82460AB
:102F000037F8224CD21A534456F8286004FB01319A
:102F100037F81E3C01FB0065191B01FB095402FB3D
:102F200000F606E028463146FDF71FFA4D44A5425B
:102F3000CED2002EF6D0002DF4D10BE0DBF8241019
:102F400051F828209BF84F10002A09FB01F1BBD152
:102F50000029B9D044F27200C0F60000FDF766F90E
:102F600043F6E370C0F60000FDF7DCF9FEDEA7F1E2
:102F70000C04A546BDE8F08F44F24800C0F60000FE
:102F8000FDF754F930A0FDF7CDF9FEDE44F28F00D5
:102F9000C0F60000FDF74AF944F2B400C0F60000A4
:102FA000FDF744F943F6C870C0F60000FDF7BAF922
:102FB000FEDE0DA0FDF73AF916A0FDF7B3F9FEDE2F
:102FC00044F22300C0F60000FDF730F944F2B400EB
:102FD000C0F60000FDF72AF943F6C870C0F60000FD
:102FE000FDF7A0F9FEDE00BF2E2E2F2E2E2F4C69EE
:102FF000622F65676C5F726173746572697A65725E
:103000005F74696C696E672E682832353229203A00
:1030100020000000617373657274206661696C65DD
:1030200064203A2073747269705F6964785F3C6DE4
:103030005F6E756D5F636C75737465725F737472C8
:103040006970730D0000000061737365727420660F
:1030500061696C6564203A206964785F3C6D5F6EDD
:10306000756D5F636C7573746572730D000000009D
:1030700070470000B0B50446043000F01DF804F1BC
:103080002C0000F04BF90020A4F85C0084F86400E8
:1030900020462C2104F16805FDF789F9284600F047
:1030A00033F92046B0BD000010B504462C3000F0C6
:1030B0003FF9204610BD0000002101608180C0E979
:1030C0000211C0E904110176C0E90811704700003F
:1030D0002DE9F04F85B000290E9D48BF0B44002A12
:1030E00022EAE27648BF15444F2E00F3E18021EA40
:1030F000E178B8F19F0F00F3DB80834618B2012816
:10310000C0F2D68028B20128C0F2D280C8F1A00057
:1031100081B29AB28A42C6F1500238BF184691B2C3
:10312000ABB28B4238BF2A4600EB0804DBF8B00094
:10313000BBF8C0100F9F9519002202940195FDF76E
:103140006BFD2A22DBF8B800BBF8C4108DF80F2005
:103150000022A4F1010906F118041735FDF75CFD02
:10316000DBF8AC000DF10F0101224FF0FF33FEF749
:1031700009F9DBF8B800BBF8C4100122FDF74CFDDB
:1031800098FA88F0010CDBF8AC000DF1100AADF8EC
:103190001010514602224FF0FF33FEF7F3F899FA70
:1031A00089F0010CDBF8AC00ADF81010514602229A
:1031B0004FF0FF33FEF7E6F82B22DBF8B800BBF840
:1031C000C4108DF812200022FDF726FDDBF8AC00BC
:1031D0000DF1120101224FF0FF33FEF7D3F8DBF8B7
:1031E000B800BBF8C4100122FDF716FD20BA010C8F
:1031F000DBF8AC00ADF81010514602224FF0FF335F
:10320000FEF7C0F828BA010CDBF8AC00ADF81010DE
:10321000514602224FF0FF33FEF7B4F82C22DBF8C0
:10322000B800BBF8C4108DF813200022FDF7F4FCA1
:10323000DBF8AC000DF1130101224FF0FF33FEF774
:10324000A1F8DBF8B800BBF8C4100122FDF7E4FCDC
:10325000029885B201981FFA80F900BF444600BF6A
:103260003878B978201A3A7900F07C00711A400257
:10327000C1F3450140EAD20040EA411041BADBF80F
:10328000AC00ADF81010514602224FF0FF33FEF7AC
:1032900079F80134A0B2A842E2D30136B0B2484571
:1032A000DCD3DBF8B000BBF8C0100122FDF7B4FCA2
:1032B00005B0BDE8F08F000010B5044600F00EFB2D
:1032C00043F69870C0F600000830206004F10C004E
:1032D000FFF7D0FE04F1900000F0D6FA002120465E
:1032E0006160A16010BD000010B5044643F69870FF
:1032F000C0F6000000F10801204640F80C1BFFF763
:10330000D3FE204610BD000000210183C0E900115A
:10331000C0E90211C0E904117047000010B504466D
:1033200000F008F82E21FDF720F8204610BD00001F
:10333000704700000121017000214161C0E90111C5
:10334000C1600182C0E90711704700002DE9F04F0C
:103350008BB0044694F8CC701D8894F8CDC05E887C
:1033600007FB0153149808930CFB0263B0F800A00C
:103370000793B0F80280D4F8C8306068AAEB05095A
:10338000A8EB060E03EB45057E4305EB460BC8B1E3
:103390000668079DD6F804C0AEB2089D216BABEB62
:1033A000030304F120025B101FFA8EFE1FFA89F45A
:1033B000ADB2CDE90056CDE9024E0497E0470BB01F
:1033C000BDE8F08F07FB01F5D4F8B000B4F8C010E9
:1033D0000CFB02F600227746FDF71EFC05EB0A0007
:1033E000A0F1010AB8B20690079806EB080200F1B6
:1033F00018072A208DF82900D4F8B800B4F8C410B2
:1034000002F1170600221FFA89F9FDF705FCD4F82E
:10341000AC000DF1290101224FF0FF33FDF7B2FF9F
:10342000D4F8B800B4F8C4100122FDF7F5FB0898F1
:103430000DF1270500BA010CD4F8AC00ADF8271047
:10344000294602224FF0FF33FDF79CFF9AFA8AF0DB
:10345000010CD4F8AC00ADF82710294602224FF039
:10346000FF33FDF78FFF2B22D4F8B800B4F8C41057
:103470008DF82A200022FDF7CFFBD4F8AC000DF127
:103480002A0101224FF0FF33FDF77CFFD4F8B8008A
:10349000B4F8C4100122FDF7BFFB38BA010CD4F810
:1034A000AC00ADF82710294602224FF0FF33FDF79C
:1034B00069FF30BA010CD4F8AC00ADF827102946EA
:1034C00002224FF0FF33FDF75DFF2C22D4F8B80045
:1034D000B4F8C4108DF82B200022FDF79DFBD4F822
:1034E000AC000DF12B0101224FF0FF33FDF74AFF35
:1034F000D4F8B800B4F8C4100122FDF78DFB94F89D
:10350000CC00069948430BEB400800BF0BEB490782
:10351000ABF1020636F8020F022200BA010CD4F811
:10352000AC00ADF8271029464FF0FF33FDF72AFF16
:10353000B01CB842EED394F8CC000BEB400BC34563
:10354000E4D3D4F8B000B4F8C0100122FDF764FB56
:103550000BB0BDE8F08F00002DE9F04F83B0DDE93E
:103560000EB8DDE90CA904464FF47A701D461646E4
:103570000F46FDF749FA10984146A4F8C400119887
:103580000022A4F8C6002846C4E92B76C4E92D5AC7
:10359000C4F8BC90A4F8C0B0A4F8C280FDF73CFB0E
:1035A0000520FDF731FAD4F8B400B4F8C2100122B6
:1035B000FDF732FB0520FDF727FAD4F8B000B4F888
:1035C000C0100022FDF728FB43F62070C0F6000073
:1035D000471C0F250DF1050808E000BFB878033738
:1035E000FF2808BFF420FDF70FFA013D280627D079
:1035F0003A78D4F8B800B4F8C4108DF80520002249
:10360000FDF70AFBD4F8AC00414601224FF0FF332E
:10361000FDF7B8FE7E783006E0D4D4F8B800B4F8F0
:10362000C41001220237FDF7F7FAD4F8AC0039468E
:1036300032464FF0FF33FDF7A5FE3744013DD5E795
:1036400017F8015B002DD1D12022D4F8B800B4F8CE
:10365000C4108DF8062000220026FDF7DDFAD4F80C
:10366000AC000DF1060101224FF0FF33FDF78AFE99
:103670002A22D4F8B800B4F8C4108DF8072000222C
:10368000FDF7CAFAD4F8AC000DF1070101224FF0A2
:10369000FF33FDF777FED4F8B800B4F8C410012268
:1036A000FDF7BAFAD4F8AC0002AD294602224FF079
:1036B000FF33ADF80860FDF765FE4FF41F41D4F805
:1036C000AC00ADF80810294602224FF0FF33FDF799
:1036D00059FE2B22D4F8B800B4F8C4108DF80A2093
:1036E0000022FDF799FAD4F8AC000DF10A0101228D
:1036F0004FF0FF33FDF746FED4F8B800B4F8C4101D
:103700000122FDF789FA4FF4C051D4F8AC00ADF8AE
:103710000810294602224FF0FF33FDF733FE4FF425
:10372000CE41D4F8AC00ADF80810294602224FF083
:10373000FF33FDF727FE2C22D4F8B800B4F8C410EC
:103740008DF80B200022FDF767FAD4F8AC000DF1DC
:103750000B0101224FF0FF33FDF714FED4F8B8003F
:10376000B4F8C4100122FDF757FA4FF4485700BFD0
:10377000D4F8AC00294602224FF0FF33ADF80860C0
:10378000FDF700FE013FF3D10BA0FCF7CBFDD4F811
:10379000B000B4F8C0100122FDF73EFA4FF47A7081
:1037A000FDF732F9D4F8BC00B4F8C6100022FDF7DA
:1037B00033FA03B0BDE8F08F535437373335206701
:1037C00072617068696373206465766963652069F6
:1037D0006E697469616C697A6564210D000000008E
:1037E00080B5FFF769FD40F24011C2F2000143F6D7
:1037F000A8720B68C0F600020832002B026001BFFD
:1038000008600021C0F8C81080BD03A0FCF70EFDC1
:103810000DA0FCF787FDFEDE2E2E2F2E2E2F4C69DD
:10382000622F647269766572732F65676C5F646579
:10383000766963655F7374373733352E637070282C
:10384000393629203A20000061737365727420664E
:1038500061696C6564203A2021735F6163746976E5
:10386000655F6465760D000080B543F6A871C0F60B
:1038700000010831016040F24011C2F20001002253
:103880000A60FFF731FD80BD80B500F02FF8002100
:10389000816141610161C16081604160016080BD01
:1038A000F0B581B006981C4600EB400015460E4668
:1038B00003EB8007B6F88000A1882246814238BF1A
:1038C0000146A6F88010304629460023FEF700FF87
:1038D0000C34BC42EED301B0F0BD000043F6B87129
:1038E000C0F6000108310160704700000021C0E906
:1038F0000011C0E90211C0E904117047002848BF57
:10390000704700F01F01012202FA01F14EF200128D
:103910004009CEF2000242F8201070474EF60C50DB
:10392000CEF200000068C0F3022070474EF6145338
:1039300000F00F02CEF2000309011A4400F16043C7
:10394000B0F1FF3FC8BF03F564421170704700003B
:103950004EF60C51CEF200010A684FF6FF031A40F2
:1039600060F30A2242F0806040F0FD70086070470A
:1039700001A000F026F800BF5075726520766972CC
:103980007475616C2066756E6374696F6E20636117
:103990006C6C65642100000010B540F27004C2F246
:1039A00000042046FFF71CFF43F6690040F20002C6
:1039B000C0F60000C0F600022146FCF7C9FC10BDAD
:1039C0007047FCF704FE00008AB041F20003C4F225
:1039D00001031021202640F27009A3F58060CDE993
:1039E00002160491C2F2000940F24811A3F50062E8
:1039F0004FF48047CDE90030C2F2000148460597F8
:103A0000FFF7AAFD002708AD462406AE0FF24808CE
:103A1000FBB2284650210522FEF77AFA484650218B
:103A20000522462300940195FFF752FBF843C3B2E9
:103A300030460A210522FEF76BFA48460A21052284
:103A4000462300940196FFF743FB0537F9B2404641
:103A5000FCF7ECFBDCE700BF6672616D653A25643C
:103A60000D0A000010B582B0019040F2A01001AC28
:103A7000C2F2000021460122FF23FDF7E1FE40F2E1
:103A8000E410C2F2000021460122FF23FDF7D8FE18
:103A9000019802B010BD0000FDF7D8F8FEF7D4F889
:103AA000FDF738FFFDF7CEFFFDF7A4FFFDF7E6FFBA
:103AB0000020FFF789FF00BFFEE770B50C46054602
:103AC00000F077F800F07040B0F1005F07D024F00C
:103AD0000040C0F1FF40C00F04BF204670BD284623
:103AE00070BD70B50C46054600F063F800F07040FC
:103AF000B0F1004F07D024F00040C0F1FF40C00FEC
:103B000004BF204670BD284670BD10B500F078F89F
:103B10000CBF0120002010BD10B500F071F814BFDB
:103B20000120002010BD10B500F0BAF88CBF0120B4
:103B3000002010BD10B500F0B3F82CBF012000200C
:103B400010BD10B500F0E0F894BF0120002010BDBA
:103B500010B500F0D9F834BF0120002010BD0000DE
:103B600050EA010C00F113801CF5000F58BFBCF5A2
:103B7000000F01D48842704707D710F5000F58BFD7
:103B800011F5000F22D488427047894270471CF516
:103B9000000F04D5BCF5000FF7D5814270474FF0F8
:103BA000807C1CEB400F38BF1CEB410F0ED28142D2
:103BB000704710B5FFF7D4FFEFF3008020F01040FE
:103BC00038BF40F0004080F3008810BD00F051F98C
:103BD0000000000900F007B84FF0404010F1004F1E
:103BE000EFF300807047401058BFC0F140404910CB
:103BF00058BFC1F140418142EFF30080704700009F
:103C000050EA010C00F113801CF5000F58BFBCF501
:103C1000000F01D48842704707D710F5000F58BF36
:103C200011F5000F15D488427047894270471CF582
:103C3000000F04D5BCF5000FF7D5814270474FF057
:103C4000807C1CEB400F38BF1CEB410F01D281423E
:103C5000704710B500F00DF9922449004FF0005064
:103C60004FF08051FFF7BFBF41000B0ED3F19E0212
:103C700008D950F400034FEA032323FA02F048BFA7
:103C80004042704710B500F0F4F800BF499224801C
:103C9000002070476FF0004282EA20007047000069
:103CA00050EA010C00F113801CF5000F58BFBCF561
:103CB000000F01D48842704707D710F5000F58BF96
:103CC00011F5000F15D488427047894270471CF5E2
:103CD000000F04D5BCF5000FF7D5814270474FF0B7
:103CE000807C1CEB400F38BF1CEB410F01D281429E
:103CF000704710B500F0BDF8922449004FF0805095
:103D00004FF00051FFF76FBF50EA010C00F1138034
:103D10001CF5000F58BFBCF5000F01D48842704756
:103D200007D710F5000F58BF11F5000F15D48842C2
:103D30007047894270471CF5000F04D5BCF5000F91
:103D4000F7D5814270474FF0807C1CEB400F38BFA5
:103D50001CEB410F01D28142704710B500F089F889
:103D6000922449004FF000504FF08051FFF73BBFC5
:103D70004FF47F0C1CEAD0121EBF1CEAD11392EA4A
:103D80000C0F93EA0C0F00F0478090EA010F48BF38
:103D900042F480724FF0004C4CEA00204CEA0121C2
:103DA00002EB0302A0FB0113A2F50002002918BFD9
:103DB00043F001035B0028BF4FEA330342EB22428A
:103DC0005FEA132C4CEBC2502EBFBCEB436FB2F535
:103DD0007C0F70474FEA036CBCF1004F08BF20F026
:103DE0000100B2F57C0F38BF70470BD582F0FF029F
:103DF00012F5803FC8BF704700F1C040D8BF00F047
:103E00000040704700F5000C5FEA4C0C48BF70475B
:103E1000B0F1C04000F073B80CEAD11390EA010F82
:103E200048BF42F48072624538BF634504D280EADD
:103E3000010000F00040704710B500F01AF800BF14
:103E40008900013E00F007B800F009B85FEA410CB4
:103E50005FEA1C6C08D080EA010000F050B85FEA0D
:103E6000400C5FEA1C6CF6D14FF00040A0F58000DA
:103E700070470EF1020E2EF0030E5EF8044B244242
:103E800004D44FEA4102B2F17F4F11D84FEA400308
:103E9000B3F17F4F0CD80ED14FEAD07C0CEB4C0C19
:103EA0000CF1020CB2F17F4F08BF4CEBD17C04E067
:103EB0004FF0080C01E04FEAD17C0CEB4C0324FAE4
:103EC00003F404F00704B4F1040C06D20EEB840CE6
:103ED000BDE810404CF0010C6047DFE80CF007082B
:103EE00002024FF00040A0F5800010BD08464200DD
:103EF00018BFD2F1807288BF00F0004010BDFF21D2
:103F000041EAD050C00570470000000000000000EA
:103F1000010203040607080900000000010203046F
:103F20000F0180961180FFB103012C2DB203012CEB
:103F30002DB306012C2D012C2DB40107C003A202C4
:103F400084C101C5C2020A00C3028A2AC4028AEEE1
:103F5000C5010E20003601A83A0105032A0400001D
:103F6000004F2B040000009F210004E010021C07FA
:103F7000123732292D29252B3900010310E11003B6
:103F80001D07062E2C292D2E2E373F000002101360
:103F9000800A29806400000000000000000000008A
:103FA000A13800087139000800000000000000007E
:103FB000A13800084D330008000000000000000098
:103FC000A138000871390008556E737570706F72F2
:103FD00074656420646570746820666F726D6174C6
:103FE0002E0D00617373657274206661696C65647F
:103FF000203A20216E756D5F62797465735F207C55
:104000007C20705F0D002E2E2F2E2E2F4C69622FDC
:1040100065676C5F636F72652E68283535322920BD
:104020003A20002E2E2F2E2E2F4C69622F65676CA2
:104030005F726173746572697A65722E637070283D
:1040400034343329203A20002E2E2F2E2E2F4C6967
:10405000622F65676C5F726173746572697A6572ED
:104060005F74696C696E672E682832343529203A8E
:1040700020002E2E2F2E2E2F4C69622F65676C5F2D
:10408000636F72652E682835343529203A20002E5A
:104090002E2F2E2E2F4C69622F65676C5F72617315
:1040A000746572697A65722E6370702832373929A7
:1040B000203A20006572726F72203A2000000000E2
:1040C000E840000800000020100000006C0100081B
:1040D000F84000081000002020220000880100089D
:1040E00029DEFFFF000000000024F40001000000B2
:0840F0001000000000000000B8
:0400000508000131BD
:00000001FF
