:020000040800F2
:10000000B00400204501000821110008311000084B
:100010001D110008F101000879140008000000001B
:100020000000000000000000000000008111000836
:100030002D0200080000000051110008B511000851
:100040005F0100085F0100085F0100085F01000810
:100050005F0100085F0100085F0100085F01000800
:100060005F0100085F0100085F0100085F010008F0
:100070005F0100085F0100085F0100085F010008E0
:100080005F0100085F0100085F0100085F010008D0
:100090005F0100085F0100085F0100085F010008C0
:1000A0005F0100085F0100085F0100085F010008B0
:1000B0005F0100085F0100085F0100085F010008A0
:1000C0005F0100085F0100085F0100085F01000890
:1000D0005F010008691400085F0100085F01000863
:1000E0005F0100085F0100085F0100085F01000870
:1000F0005F0100085F0100085F0100085F01000860
:100100005F0100085F0100085F0100085F0100084F
:100110005F0100085F0100085F0100085F0100083F
:100120005F0100085F0100085F0100085F0100082F
:10013000DFF80CD000F040F800480047491A0008EA
:10014000B00400200648804706480047FEE7FEE767
:10015000FEE7FEE7FEE7FEE7FEE7FEE7FEE7FEE777
:100160001512000831010008D2B201E000F8012B9D
:10017000491EFBD270470022F6E710B513460A4627
:1001800004461946FFF7F0FF204610BD30B50B4678
:10019000014600202022012409E021FA02F59D42B7
:1001A00005D303FA02F5491B04FA02F52844151E8B
:1001B000A2F10102F1DC30BD064C074D06E0E0681B
:1001C00040F0010394E8070098471034AC42F6D39E
:1001D000FFF7B2FF281D0008481D0008010901EBC8
:1001E000810100F00F0000EB4100C0B27047000039
:1001F000FEE7000080B540F20401C2F200010020D9
:10020000486040F60040C4F2010000F0D5F880BD1F
:1002100080B540F20401C2F200010120486040F6BE
:100220000040C4F2010000F0C7F880BD7047000034
:1002300070470000014690F82100022813D1086899
:10024000D1E90FC3026822F00E020260026822F0B8
:1002500001020260012000FA03F2CCF8042081F8C8
:100260002100002002E0042088630120002281F8A0
:100270002020704780B590F82110022927D102680C
:1002800040F2040C1368C4F2020C23F00E03136056
:1002900013680CF17C018A4223F0010111601AD924
:1002A00040F20841C4F202018A4247D040F21C41A8
:1002B000C4F202018A4245D040F23041C4F2020148
:1002C0008A4243D14FF48073CCF8003457E00421C4
:1002D0008163012080BD4321C4F202018A420EDD08
:1002E0006B21C4F202018A421BDC4421C4F20201E8
:1002F0008A4239D05821C4F202018A4231E00821F1
:10030000C4F202018A4232D01C21C4F202018A42A4
:1003100032D03021C4F202018A4222D14FF48072DD
:100320002BE06C21C4F202018A4222D08021C4F267
:1003300002018A4215D14FF080721EE00123CCF8F1
:1003400000341CE01023CCF8003418E00CF5886170
:100350004FF480338A4208BF4FF48053CCF8003406
:100360000DE04FF4803208E04FF4805205E00122A6
:1003700003E04FF4801200E01022CCF80020416B23
:100380004FF48072028401B18847002080BD0000D4
:10039000B0B5044600F010F9054640F21800C2F26C
:1003A00000000078611C18BF044400BF00F004F98D
:1003B000401BA042FAD3B0BD2DE9F04F83B00C68CA
:1003C000002C00F0EA80A0F18042A2F5843240F2D5
:1003D000004E4FEAB22241F60047C4F2010E0092ED
:1003E000C4F20107062200254FF001094FF0000B6F
:1003F0004FF0000AB84208BF0522019209E000BF91
:100400000C680BF1010B34FA0BF205F1040500F056
:10041000C48009FA0BF814EA080CF1D04C684FF6C6
:10042000FF72C1F21002944210DC122C50D8DFE8A7
:1004300004F0330A41454F4F4F4F4F4F4F4F4F4FEF
:100440004F4F4F484C00D1F80CA041E04FF6FF72DF
:10045000C1F2210294420FDC0022C1F21102944247
:100460001AD00022C1F21202944215D00022C1F229
:100470002102944210D02BE00022C1F222029442C9
:100480000AD00022C1F23102944205D00022C1F20A
:10049000320294421CD100BF8C6844B1012C14BFBD
:1004A000C0F81480C0F810804FF0080A10E04FF038
:1004B000040A0DE0CC6804F1080A09E04FF0000AD4
:1004C00006E0CC6804F1040A02E0CC6804F10C0AEE
:1004D0002C460746BCF5807F24BF203C04373A6891
:1004E0000F2303FA04F6B2430AFA04F422433A60F3
:1004F000CA79D2067FF584AF41F21804C4F202042F
:1005000022684FF6084842F0010222602268CFF6C6
:10051000FF7802F001020292029A2BF00302724469
:1005200052F8084005F00C0603FA06F7009BBC439E
:10053000019F052B38BF1F4607FA06F6344342F8E1
:1005400008404C68E203DEF8002054BF22EA0C07A2
:1005500042EA0C07A203CEF80070DEF8042054BF74
:1005600022EA0C0742EA0C07E202CEF80470DEF839
:10057000082054BF22EA0C0742EA0C07A20240F20C
:100580000C44CEF80870C4F20104226854BF22EA79
:100590000C0242EA0C02226032E703B0BDE8F08FA1
:1005A0008068084018BF012070470000002A08BF7B
:1005B000090401617047000040F2A800C2F2000087
:1005C0000068704740F2180040F2A801C2F2000033
:1005D000C2F2000100780A68104408607047000009
:1005E00080B542F20000C4F20200016841F010013F
:1005F0000160032000F066F8002000F005F800F02C
:100600002BF8002080BD0000B0B540F21802C2F205
:10061000000240F214011278C2F200014FF47A7322
:100620000968B3FBF2F20446B1FBF2F1084600F0B0
:10063000E7FA0F2C4FF001050CD858B94FF0FF30F6
:1006400021460022002500F02DF840F21C00C2F2E5
:10065000000004602846B0BD82B041F21800C4F228
:1006600002000168022241F001010160016801F00D
:10067000010101910199416841F080514160406858
:1006800000F08050009000980420C4F2010001683E
:1006900062F31A61016002B07047000080B500F09B
:1006A000EDFE80BD70B514460D46064600F0F6FE20
:1006B0002946224600F036FD0146304600F0F6FE9F
:1006C00070BD000080B500F003FF80BD2DE9F04350
:1006D00081B0002800F0898042F20008C4F20208CC
:1006E0000446D8F800000D4600F0070088420CD2FE
:1006F000D8F8000020F007002843C8F80000D8F818
:10070000000000F00700A8426FD1206841F2040900
:100710008107C4F2020917D5410705D5D9F80010A1
:1007200041F4E061C9F80010010705D5D9F80010BF
:1007300041F46051C9F80010D9F80010A26821F006
:10074000F0011143C9F80010C00745D1D8F80000E6
:1007500000F00700A8420CD9D8F8000020F00700EC
:100760002843C8F80000D8F8000000F00700A842AD
:100770003BD12068410707D5D9F80010E26821F481
:10078000E0611143C9F80010000708D5D9F800004E
:10079000216920F4605040EAC100C9F8000000F06F
:1007A00079F8D9F8001041F61052C1F30311C0F6E0
:1007B0000002515C40F2140220FA01F140F21C00E8
:1007C000C2F200000068C2F200021160FFF71CFFD5
:1007D000002001B0BDE8F0836068022809D001283C
:1007E00029D159F8041C890307D4012001B0BDE8C0
:1007F000F08359F8041C8901F7D5D9F8001021F0CD
:1008000003010843C9F80000FFF7D6FE064641F28F
:10081000883700BFD9F80000616800F00C00B0EB29
:10082000810F93D0FFF7C8FE801BB842F2D9032096
:1008300001B0BDE8F08359F8041C8907D5D5DCE781
:1008400040F21400C2F200000068704780B5FFF764
:10085000F7FF41F20401C4F20201096841F6205297
:10086000C1F30221C0F60002515CC84080BD000007
:1008700080B5FFF7E5FF41F20401C4F20201096807
:1008800041F62052C1F3C221C0F60002515CC840BB
:1008900080BD000041F2040CC4F2020CDCF8003010
:1008A00003F00C00082841F20020C0F27A0018BFC3
:1008B0007047C3F383420AA18A5CD90305D440F68A
:1008C0000010C0F23D0050437047DCF8001008A350
:1008D000C1F34041595C5043B0FBF1F0704700BF99
:1008E00002030405060708090A0B0C0D0E0F101071
:1008F000010200002DE9F04182B0002800F0C48020
:100900000446007841F20006C007C4F2020643D054
:10091000706800F00C00042817D0706800F00C001C
:10092000082802D17068C0030FD465682DB1B5F5F1
:10093000A02F10D0B5F5803F11D0306820F4803062
:100940003060306820F480200CE03068800323D5CC
:10095000606808BB98E0306840F480203060306800
:1009600040F480303060FFF727FE002D054610D0A0
:100970003068800310D4FFF71FFE401B6428F7D9AE
:1009800004E100BFFFF718FE401B64284FF003008E
:1009900077D830688003F5D42078800718D5706840
:1009A00010F00C0F07D0706800F00C00082826D15A
:1009B0007068C00323D43068800702D520690128FD
:1009C00062D13068616920F0F80040EAC10030600F
:1009D000207800073DD5A06938B30020C4F242203A
:1009E0000121C0F88014FFF7E7FD0546706A800713
:1009F0002DD4FFF7E1FD401B0228F7D9C6E020699E
:100A0000002840F20000C4F2422000F0968001214C
:100A10000160FFF7D1FD054630688007D1D4FFF7AC
:100A2000CBFD401B0228F7D9B0E00020C4F24220E1
:100A30000021C0F88014FFF7BFFD0546706A8007EB
:100A400007D5FFF7B9FD401B0228F7D99EE000F05B
:100A500081FB207840071BD4E5698DB1706800F0F8
:100A60000C00082847D1012D0ED07068216A00F4CF
:100A700080328A4208D1616A00F47010884203D142
:100A8000002002B0BDE8F081012002B0BDE8F08195
:100A9000F06910F0805808D1F06940F08050F061A2
:100AA000F06900F080500190019847F20007C4F20D
:100AB00000073868C00510D4386840F4807038608A
:100AC000FFF77AFD054600BF3868C00505D4FFF77B
:100AD00073FD401B6428F7D958E0E5681DB1052D6A
:100AE0003CD0012D3ED0306A20F001003062306AE7
:100AF00020F0040039E00027C4F2422700203866C5
:100B0000FFF75AFD022D05460CD100BF3068800169
:100B100054D5FFF751FD401B02284FF00300F5D9D3
:100B2000AFE700BF30688001AAD5FFF745FD401B45
:100B300002284FF00300F5D9A3E700210160FFF779
:100B40003BFD0546306880077FF542AFFFF734FD77
:100B5000401B02284FF00300F4D992E7306A40F0BE
:100B600004003062306A40F001003062FFF724FD7B
:100B7000002D054641F2883714D000BF306A800747
:100B800013D4FFF719FD401BB842F7D9032002B078
:100B9000BDE8F081FFF710FD401BB8424FF00300A5
:100BA0003FF66FAF306A8007F4D4B8F1000F7FF4DE
:100BB00053AFF06920F08050F0614DE7206AB0F546
:100BC000803F05D17168A26821F400311143716042
:100BD0007168626A21F47411104308437060012047
:100BE0003866FFF7E9FC0446306880013FF548AFFE
:100BF000FFF7E2FC001B02284FF00300F4D940E7A6
:100C000080B500F0BFFA80BD70470000704700005B
:100C1000B0B582B0016805460868CA684C6900F042
:100C20002F03202B02F0200305D123B1284600F02A
:100C30001DFB02B0B0BD5FEA007C1EBF04F0010ED8
:100C400002F4907414EB0E0424D12B6B1040C206F6
:100C500017D5012B15D10020019008680190486834
:100C600001900198486940061CD4A88DEA8DEB8D4F
:100C7000002B1CBF801A5FEA004240F09A8002B04D
:100C8000B0BD010636D44006F9D5284600F0E2FA98
:100C900002B0B0BDC10718BF12F480712FD1410757
:100CA00033D439E0A86B0268526893B2002BE6D0C7
:100CB000AC8DA342E3D2EA858269202A16D0CA68A5
:100CC00022F48072CA604A6922F001024A614A69CC
:100CD00022F040024A61202285F83E2000222A6349
:100CE000CA6822F01002CA60FFF7A4FAA88DE98D45
:100CF000401A6FE0284600F05BFB02B0B0BD296CE3
:100D000041F001012964410706D5BEF1000F03D06F
:100D1000296C41F002012964810706D5BEF1000F5C
:100D200003D0296C41F004012964BCF1000F06D501
:100D30005EEA030103D0296C41F008012964296CA3
:100D400000299CD01040800602D5284600F08EFA7B
:100D500028684069296C00F0400001F00801401843
:100D600020D0284600F060FA28684169490614D569
:100D7000416921F040014161A86B70B141F2192134
:100D8000C0F600014163FFF775FA00283FF477AF22
:100D9000A86B416B884702B0B0BD2846FFF736FF0D
:100DA00002B0B0BD2846FFF731FF0020286402B032
:100DB000B0BDCA6822F49072CA604A6922F001028A
:100DC0004A61202285F83E2000222A63CA6822F068
:100DD0001002CA6081B22846FFF716FF02B0B0BD0C
:100DE000002804BF0120704710B5044690F83D006C
:100DF00028B9002084F83C00204600F021F8242087
:100E000084F83D002068C16821F40051C16020468B
:100E100000F086FA2068016921F49041016141697E
:100E200021F02A014161C16841F40051C1600020F4
:100E30002021206484F83D1084F83E1010BD00008D
:100E400070B586B0006844F20041C4F2000100268B
:100E500088420596CDE9036602963FD043F600012D
:100E6000C4F20101884266D141F21800C4F20200C6
:100E7000016840F6000441F4804101600168C4F259
:100E8000010401F4804101910199016802AD41F032
:100E9000040101600068294600F0040001900198F7
:100EA0004FF400700290022003900320059020462A
:100EB000FFF782FA4FF4806002900020CDE9030032
:100EC00020462946FFF778FA252000210022FFF767
:100ED000E9FB2520FFF7E2FB06B070BD41F21800E8
:100EE000C4F20200416840F6000441F40031416060
:100EF0004168C4F2010401F40031019101990168D3
:100F000002AD41F0040101600068294600F00400D0
:100F10000190019804200290022003900320059084
:100F20002046FFF749FA0820CDE902062046294667
:100F30000496FFF741FA06B070BD0000704700004C
:100F40002DE9F04381B0044690F83D0020280BD1F4
:100F50000E4600294FF0010055D01746002A52D006
:100F600094F83C00012803D1022001B0BDE8F083D1
:100F7000012084F83C004FF0000921201D46C4F8F0
:100F8000409084F83D00FFF717FBA784E784A16831
:100F90000746B1F5805F07D1206900281CBF3046A5
:100FA0004E46B046064601E04FF0000884F83C90FB
:100FB00007E000BF16F8010B21684860E08C01389B
:100FC000E084E08C80B1204680213A462B4600F038
:100FD00019FA80B9002EEDD138F8020B21686FF3B1
:100FE0005F2048600026E9E7204640213A462B462C
:100FF00000F008FA18B1032001B0BDE8F08320200A
:1010000084F83D00002001B0BDE8F0837047000087
:101010004CF6CD42C1B2CCF6CC42A1FB0212D108B3
:1010200001EB8102A0EB420040EA0110C0B2704720
:10103000FEE7000070B586B0002541F21800CDE94A
:101040000455CDE90255C4F20200016840F600449F
:1010500041F0200101600168C4F2010401F02001A7
:10106000019101990168002241F0040101600168C9
:10107000382601F0040101910199016841F008014D
:1010800001600068382100F00800019001982046B6
:10109000FFF78CFA0120CDE903050220059002A993
:1010A00020460296FFF788F906B070BD80B540F281
:1010B000200043F60001C2F20000C4F20101002347
:1010C0004FF0080C4FF4E13280E80E00C0E9033322
:1010D000C0E905C3C361FFF783FE002818BFFFF70F
:1010E000A7F880BD80B540F2640044F20041C2F22E
:1010F0000000C4F2000100234FF0080C4FF4E1326D
:1011000080E80E00C0E90333C0E905C3C361FFF7FF
:1011100067FE002818BFFFF78BF880BDFEE70000D0
:101120007047000000F0070080F00703042B28BF81
:1011300004234FF0FF3C03380CFA03F338BF0020C0
:10114000994381400CFA00F022EA000008437047FE
:101150007047000081B040F21400C2F20000006845
:1011600044F6D351C1F26201A0FB0101480A00908C
:1011700000BF0098411E00280091F9D101B07047CE
:1011800070470000B0B501380024B4EB106F1CBFED
:101190000120B0BD4EF21005CEF2000568604FF0A0
:1011A000FF300F2100F082F90720AC602860204654
:1011B000B0BD000080B5FFF705FA80BD70B590B0F6
:1011C00006AC20462821FEF7D6FF012006900A90A3
:1011D0004FF4E01000254FF4803102260F90204696
:1011E0000595CDE90355CDE90155CDE90715CDE9C3
:1011F0000D61FFF77FFB0F20CDE901064FF4806002
:10120000CDE9040501A802210395FFF75FFA10B0AC
:1012100070BD00007047000080B5406A0021C185A4
:10122000C184FFF7F3FC80BD0168CA6822F49072A4
:10123000CA604A6922F001024A61026B012A03D1A5
:10124000CA6822F01002CA60202180F83E100021F6
:101250000163704780B50168CA6822F04002CA6025
:10126000202180F83D10FFF7D1FE80BD80B582B00F
:1012700090F83E1022291ED18268B2F5805F02D11B
:101280000169002940D0816AB2F5805F07D00AB9B0
:10129000026922B10268526802F07F0201E002682E
:1012A00052680A700121826A11448162C18D01393C
:1012B0000A04C18501D002B080BD0168CA6822F06D
:1012C0002002CA60CA6822F48072CA604A6922F0A9
:1012D00001024A61202280F83E20026B012A1BD1C4
:1012E00000220263CB6823F01003CB600B68DB069F
:1012F00005D501920A680192496801910199818D91
:10130000FFF782FC02B080BD0168826A49686FF312
:101310005F2111800221C6E7FFF710FE02B080BDF9
:1013200010B504460068D4E902C22369016921F4BA
:10133000405111430161616943EA0C021143C268E3
:1013400041F20C639A431143C1604169A26921F4DF
:101350004071114343F60002C4F201029042416120
:1013600002D0FFF773FA01E0FFF782FA62681921F1
:1013700048439100B0FBF1F048F21F51C5F2EB1168
:10138000A0FB01235A096FF0630302FB0300322321
:1013900003EB0010A0FB0101F02303EA51132068C6
:1013A00003EB0212C1F343111144816010BD000030
:1013B00090F83D10212923D18168B1F5805F01D1DA
:1013C000016931B1016A02684B1C036209785160FE
:1013D00007E0016A036831F8022B6FF35F225A605D
:1013E0000162C18C01390A04C18418BF70470068CA
:1013F000C16821F08001C160C16841F04001C16055
:10140000704700002DE9F04104460068006808407C
:10141000884202D10020BDE8F0811D460E4690466C
:101420005F1C04E0206800683040B042F2D0002F1A
:10143000F8D02DB1FFF7C0F8A0EB0800A842F1D911
:101440002068C16821F4D071C160416921F00101B7
:101450004161202084F83D0084F83E00002084F89B
:101460003C000320BDE8F08180B540F22000C2F2CC
:101470000000FFF7CDFB80BDFEE70000002848BF5D
:10148000704700F01F01012202FA01F14EF2001232
:101490004009CEF2000242F8201070474EF60C5080
:1014A000CEF200000068C0F3022070474EF61453DD
:1014B00000F00F02CEF2000309011A4400F160436C
:1014C000B0F1FF3FC8BF03F56442117070470000E0
:1014D0004EF60C51CEF200010A684FF6FF031A4097
:1014E00060F30A2242F0806040F0FD7008607047AF
:1014F000B0B50025ECB22046002100F073FA302C84
:1015000005F10105F6D3B0BD10B504468C2000F0FE
:1015100075F8FEF763FE2070882000F06FF8FEF784
:101520005DFE6070862000F069F8FEF757FEA0703F
:10153000842000F063F8FEF751FEE070822000F096
:101540005DF8FEF74BFE2071802000F057F800F0A8
:101550007F00FEF743FE607110BD000010B582B041
:1015600004460020CDE900006946BE20082200F0B4
:101570009FF89DF80600FEF731FE9DF804102070DC
:101580000846FEF72BFE9DF8031060700846FEF734
:1015900025FE9DF80210A0700846FEF71FFE9DF87C
:1015A0000110E0700846FEF719FE9DF8001020714A
:1015B0000846FEF713FE9DF8051060710846FEF719
:1015C0000DFE9DF80710A071E17102B010BD000082
:1015D00010B540F60044C4F2010420460821002260
:1015E000FEF7E4FF204620210022FEF7DFFF204621
:1015F00010210022FEF7DAFF10BD0000F0B581B027
:1016000040F600440546C4F20104FEF701FE204600
:10161000202100220026FEF7C9FF204608210022D3
:10162000FEF7C4FF204608210122FEF7BFFF45F068
:10163000010500BF05F0010220461021EFB2FEF7C0
:10164000B5FF2046202101227D08FEF7AFFF20468E
:1016500020210022FEF7AAFF072E06F10106E9D39A
:10166000FEF7C8FD0026002520461021C5F34605DB
:10167000FEF796FF002820464FF020014FF00102B0
:1016800018BF65F07F05FEF791FF2046202100225C
:10169000FEF78CFF072E06F10106E5D32046082150
:1016A0000022FEF783FFFEF7B3FDE8B201B0F0BD04
:1016B0002DE9F0478946804640F600448E200021FF
:1016C0009246C4F20104002700F0D2F8FEF7A0FD14
:1016D000204620210022FEF769FF20460821012232
:1016E000FEF764FF48F0010505F0010220461021D5
:1016F000EEB2FEF75BFF2046202101227508FEF7BF
:1017000055FF204620210022FEF750FF072F07F14A
:101710000107E9D3FEF76EFDBAF1000F21D00027D3
:10172000002500BF20461021C6F34606FEF738FF0D
:10173000002820464FF020014FF0010218BF66F04C
:101740007F06FEF733FF204620210022FEF72EFF02
:10175000072D05F10105E5D309F807600137574565
:10176000DED1204608210022FEF720FFFEF750FDC3
:10177000BDE8F087302884BF0020704780B56FF047
:101780003F0101EB4000C0B2FFF738FF80BD000011
:1017900010B504468E20002100F06AF880208021D8
:1017A00000F066F82078FFF733FC01468C2000F04B
:1017B0005FF86078FFF72CFC0146882000F058F8AD
:1017C000A078FFF725FC0146862000F051F8E0786C
:1017D000FFF71EFC0146842000F04AF82079FFF74D
:1017E00017FC0146822000F043F86079FFF710FCF7
:1017F0000146802000F03CF88E20802100F038F86F
:1018000010BD000010B582B004464079FFF700FC1F
:1018100021798DF800000846FFF7FAFBE1788DF892
:1018200001000846FFF7F4FBA1788DF80200084696
:10183000FFF7EEFB61788DF803000846FFF7E8FB41
:10184000A1798DF804000846FFF7E2FB21788DF8B6
:1018500005000846FFF7DCFB8DF8060000208DF838
:1018600007006946BE20082200F058F802B010BDFB
:101870002DE9F04140F600480D460646C4F2010845
:10188000FEF7C6FC4046082100220027FEF78EFE28
:10189000404620210022FEF789FE40460821012211
:1018A000FEF784FE06F0FE0606F001024046102117
:1018B000F4B2FEF77BFE4046202101226608FEF7C7
:1018C00075FE404620210022FEF770FE072F07F12B
:1018D0000107E9D3002600BF05F0010240461021B0
:1018E000ECB2FEF763FE4046202101226508FEF7B8
:1018F0005DFE404620210022FEF758FE072E06F12D
:101900000106E9D3404608210022FEF74FFE40467B
:1019100010210022FEF74AFEBDE8F0812DE9F047D4
:101920008846074640F600448E2000219146C4F2C6
:1019300001040026FFF79CFFFEF76AFC20462021E9
:101940000022FEF733FE204608210122FEF72EFE7C
:1019500007F0010220461021FDB2FEF727FE2046C7
:10196000202101226F08FEF721FE204620210022BF
:10197000FEF71CFE072E06F10106E9D3B9F1000FB0
:1019800020D04FF0000A00BF18F80A50002700BF0F
:1019900005F0010220461021EEB2FEF707FE2046B8
:1019A000202101227508FEF701FE20462021002299
:1019B000FEF7FCFD072F07F10107E9D30AF1010A41
:1019C000CA45E1D1204608210022FEF7EFFD20465E
:1019D00010210022FEF7EAFD8E208021FFF748FF4C
:1019E000BDE8F087B0B50C4605468E200021FFF714
:1019F0003FFF302D88BFB0BD6FF03F0000EB4500CA
:101A0000C0B22146FFF734FF8E208021FFF730FF60
:101A1000B0BD000010B582B0019040F2200001ACD2
:101A2000C2F2000021460122FF23FFF789FA40F2AB
:101A30006400C2F2000021460122FF23FFF780FA72
:101A4000019802B010BD000086B0FEF7C9FDFFF797
:101A5000B5FBFFF7EFFAFFF729FBFFF743FB41F672
:101A60003B60059040F60C40C1F2147004901220C7
:101A7000FFF780FE0446FFF7ABFD1F2C08D1FFF7F0
:101A800037FD12201F21FFF7ADFF04A8FFF780FEEE
:101A900004AF3846FFF762FD9DF813009DF814501F
:101AA0009DF810109DF811209DF812309DF815C07A
:101AB000CDE900051CA0CDF808C000F05FF838465D
:101AC000FFF7A0FE3846FFF749FD9DF813009DF88B
:101AD00014509DF810109DF811209DF812309DF8BB
:101AE00015C0CDE9000518A0CDF808C000F046F8F3
:101AF0001DA500BF3846FFF707FD9DF813009DF8B0
:101B000014409DF810109DF811209DF812309DF89A
:101B10001560CDE900042846029600F02FF84FF436
:101B20007A70FEF735FCE5E75B62727573745F31BE
:101B30005D2025642F25642F25642025643A2564C3
:101B40003A25640D0A0000005B62727573745F329F
:101B50005D2025642F25642F25642025643A2564A3
:101B60003A25640D0A00000025642F25642F2564A2
:101B70002025643A25643A25640D0A000FB4054B0C
:101B800010B503A9044A029800F018F810BC5DF8DB
:101B900014FB0000151A00080000002002E008C82D
:101BA000121F08C1002AFAD170477047002001E0D7
:101BB00001C1121F002AFBD1704700002DE9FF4F21
:101BC00089B09B460446002506E025280BD05A46DE
:101BD0000B999047641C6D1C20780028F5D10DB03E
:101BE0002846BDE8F08F0027B8460122474900E0AB
:101BF000074314F8013F203B02FA03F00842F7D1F3
:101C000020782E2819D114F8010F47F004072A284C
:101C10000ED06FF02F022078A0F1300109290CD8E6
:101C200008EB880102EB410100EB0108641CF2E7BC
:101C30000A98641C50F8048B0A9020780028CED0B3
:101C4000642808D0692806D075281ED05A460B99FA
:101C500090476D1C58E00A994FF00A0901C90A9192
:101C6000002802DA40422D2102E0390504D52B215B
:101C70008DF82010012103E0F90704D02021F7E7B7
:101C80008A4608AE0DE00021FAE70A994FF00A09EA
:101C900001C90A91F7E74946FEF778FA303106F8AC
:101CA000011D0028F7D1ADEB060000F120097807EF
:101CB00001D44FF00108C84502DDA8EB090000E09F
:101CC00000208046002706E008A85A46C05D0B9910
:101CD00090476D1C7F1C5745F6DB04E030205A46C8
:101CE0000B9990476D1CB8F10001A8F10108F5DCD3
:101CF00005E016F8010B5A460B9990476D1CB9F197
:101D00000001A9F10109F4DC641C65E70928010060
:101D1000000000000000000001020304060708099B
:101D20000000000001020304481D0008000000201C
:101D3000200000009C1B0008681D000820000020F7
:101D400090040000AC1B0008000000001000000020
:101D50000000000001000000030000000024F40067
:081D600001000000100000006A
:0400000508000131BD
:00000001FF
