:020000040800F2
:100000005020002049010008831100087F110008DA
:1000100081110008D5100008A51400080000000098
:100020000000000000000000000000006D12000849
:10003000D7100008000000008511000825130008F3
:100040006301000863010008630100086301000800
:1000500063010008630100086301000863010008F0
:1000600063010008630100086301000863010008E0
:1000700063010008630100086301000863010008D0
:1000800063010008630100086301000863010008C0
:1000900063010008630100086301000863010008B0
:1000A00063010008630100086301000863010008A0
:1000B0008913000863010008630100086301000858
:1000C0006301000863010008630100086301000880
:1000D0006301000863010008630100086301000870
:1000E0006301000863010008630100086301000860
:1000F0006301000863010008630100086301000850
:10010000630100086301000863010008630100083F
:10011000630100086301000863010008630100082F
:10012000630100086301000863010008630100081F
:10013000DFF810D000F0B2FD00480047C5240008E9
:10014000AFF3008050200020064880470648004753
:10015000FEE7FEE7FEE7FEE7FEE7FEE7FEE7FEE777
:10016000FEE7FEE73913000831010008A0F1410164
:10017000192900D82030704740EA01039B0703D0BB
:1001800009E008C9121F08C0042AFAD203E011F8D6
:10019000013B00F8013B521EF9D27047D2B201E098
:1001A00000F8012B491EFBD270470022F6E710B57C
:1001B00013460A4604461946FFF7F0FF204610BDD5
:1001C000421C10F8011B0029FBD1801A704710B5A2
:1001D000002200E0521C835C8C5CA34201D1002B06
:1001E000F8D1D8B2E1B2401A10BD034611F8012B84
:1001F00000F8012B002AF9D11846704730B50546A2
:100200000020034600E05B1C934205D2EC5CC85C16
:10021000201A01D1002CF6D130BD00000FB400B57A
:100220008DB010A909900B9000914FF0FF300A900B
:1002300000200C9005480690054807906A4609A8DA
:100240000F9900F0F9FA0DB05DF814FB550800089D
:10025000730800082DE9FF4F087883B09946FF28FE
:1002600005D0491C2D2804D00024002008E00020DF
:100270000BE00124F9E700EB800003EB4000491C90
:100280000B78FF2BF7D104B140420023029314787E
:1002900019461D462D2C01D02B2C04D1521C2D2C7F
:1002A00013D000240294AA461478FF2C0FD00A25FC
:1002B000A3FB057801FB05814FF0000C03FB0C113B
:1002C000521CE3194AEB0101EEE70124EAE78144FD
:1002D00053EA010002D019F5C87F06DA039800211D
:1002E000C0E9001107B0BDE8F08F0025AE4E2F46E3
:1002F000DFF8B882184600F091FCCDE90001B9F1B1
:10030000000002DAC9F1000400E004460023A74A15
:100310001AEB030B42EB045A12E0E00707D02A461F
:1003200033463846414600F007FC074688462A46D1
:1003300033461046194600F0FFFB05460E46641092
:10034000002CEAD1DDE90001B9F1000F5A4653460D
:1003500006DA00F02FF93A46434600F02BF905E0A3
:1003600000F0EAFB3A46434600F0E6FB029A0AB187
:1003700081F00041039AC2E90001B3E72DE9FF4F84
:100380001F468DB0D7E901464FF0FF382E20454675
:100390004FF000090B90B9696D1C0E988847396AB7
:1003A000824688470028F6D1BAF1FF3F0AD024F4EC
:1003B000D064002E11DDBAF12B0F08D0BAF12D0F49
:1003C0000BD102E0404611B08DE744F48064B96976
:1003D0006D1C0E9888478246761E6946600501D5D9
:1003E0002D2000E02B208DF8000001F1010B0DF114
:1003F000200809E0B9696D1C0E98884782460F985D
:1004000044F40074761E0560002E02DDBAF1300F50
:10041000F0D00B998A453ED144F0800406E00F9954
:10042000681CA9F1010944F400740860B9696D1CE5
:10043000761E0E98884782463028F0D02BE00B9924
:100440008A4505D1200603D444F08004761E18E0C6
:10045000504601F075F908B30DF11301761E44F40E
:1004600000748B4508D2AAF130000BF8010B20066E
:1004700007D5A9F1010003E0200602D409F101002B
:100480008146A00502D50F99681C0860B9696D1CEA
:100490000E9888478246002ED1DC53E0002E51DDB5
:1004A000BAF1650F02D0BAF1450F4BD1A00549D57D
:1004B000B9696D1C24F44074761E0E9888478246F4
:1004C000002E0CDD2B2804D0BAF12D0F07D144F4F7
:1004D0008074B9696D1C0E9888478246761EE005C7
:1004E00001D52D2100E02B2108F8011BCDF82C802F
:1004F00021E00DF12901761E44F4007488450CD2E8
:10050000AAF1300010F0FF0088F8000002D10B992A
:10051000884509D908F1010806E0E00501D524481D
:1005200001E042F20F708146B9696D1C0E98884750
:1005300082460F980560002E04DD504601F000F958
:100540000028D6D1F9690E988847FF208BF8000063
:1005500088F800000020069007904B466A4608A9DC
:1005600006A8FFF777FEA00502D46FF001002AE786
:1005700014F0240F0AD0E00714D1DDE90612386820
:10058000031D3B600068C0E900120BE0DDE90601D5
:1005900000F068FB0146E00704D13868021D3A60AC
:1005A0000068016028460EE7000014400000F03F9C
:1005B000F1D8FFFF2DE9F04D81EA030404F0004B70
:1005C00021F0004514464FF0000A23F0004150EAA4
:1005D000050220D054EA01021DD0C5F30A57024695
:1005E000C5F31303C1F31300C1F30A5640F4801599
:1005F00043F48013A7EB0608101BD64608F2FD381B
:1006000073EB050002D308F1010801E092185B4189
:10061000B8F1000F03DA00200146BDE8F08D00209C
:100620004FF48011064684460EE0171B73EB050756
:1006300005D3121B63EB050306434CEA010C490882
:100640004FEA300092185B4150EA0107EDD152EABF
:10065000030012D082EA040083EA0501084305D0B2
:10066000101BAB4106D20122002306E000224FF00E
:10067000004302E06FF0010253101AEB06004CEB4E
:10068000085110EB0A0041EB0B01BDE8F04D00F002
:100690004FB90EB540F2334102910021CDE900116E
:1006A0000A460B4600F053F903B000BD70B5C1F324
:1006B0000A5201F000450024C1F3130140F2FF3358
:1006C00041F480119A4201DA002070BD40F23343B8
:1006D0009A42A2F2334203DC524200F096F800E064
:1006E00090402C43F1D0404270BDC1F30A5210B586
:1006F000C1F3130140F2FF3341F480119A4201DA51
:10070000002010BD40F233439A42A2F2334203DC90
:10071000524200F07AF810BD904010BD30B5041E72
:1007200071F1000404DB4FF00044404264EB01012E
:10073000141E73F1000405DB1C464FF000435242C7
:1007400063EB04038B4208BF824230BD30B5041E08
:1007500071F1000404DB4FF00044404264EB0101FE
:10076000141E73F1000405DB1C464FF00043524297
:1007700063EB0403994208BF904230BD30B50B468D
:10078000014600202022012409E021FA02F59D42C1
:1007900005D303FA02F5491B04FA02F52844151E95
:1007A000A2F10102F1DC30BD2DE9F05F0546002029
:1007B00092469B4688460646814640241BE02846D2
:1007C00041464746224600F020F853465A46C01A92
:1007D000914110D311461846224600F071FA2D1AA5
:1007E00067EB01084F4622460120002100F068FA1D
:1007F00017EB00094E41201EA4F10104DFDC48463E
:1008000031462A464346BDE8F09F202A04DB203AC1
:1008100021FA02F00021704721FA02F3D040C2F120
:1008200020029140084319467047000002681144B5
:100830001378016018467047D1600449516104493A
:10084000116200211161114600F060BA2D08000804
:10085000030D0008426842B1016811F8013B23B161
:10086000521EC0E90012184670470121C160881E5F
:10087000704742685AB1C368016843B983688B42C4
:1008800005D0491E521CC0E90012002070474FF0ED
:10089000FF3070470FB4002300B589B00CA9009158
:1008A0000B996FF00042CB601E4B06931E4B0793D3
:1008B0000423CDE901321D4A089202466B4600200E
:1008C000FFF75CFD09B05DF814FB70B586B0064615
:1008D0004FF0FF300091CDE90101002015460C4694
:1008E00004903246694604A8FFF7D4FF02460498F4
:1008F000211825B108B1084600E020462860049878
:1009000000280DD0002A02DD0098884208D0081B7C
:100910000094CDE901043246694604A8FFF7BAFF06
:1009200006B070BD5508000873080008030D0008E4
:1009300010B5141E73F1000408DA401C41F10001E7
:1009400092185B411A4301D120F0010010BD2DE93E
:10095000F04D92469B4611B1B1FA81F202E0B0FA35
:1009600080F22032904600F0ABF904460F4640EA90
:100970000A0041EA0B0153465A46084313D0114678
:1009800053EA010019D0C8F140025046FFF73DFF7D
:1009900005460E4650465946424600F091F9084336
:1009A00005D0012004E020463946BDE8F08D002046
:1009B000054346EAE0762C4337430A986305E40A88
:1009C000A0EB08000022FD0A44EA47540A3002D591
:1009D00000200146E9E7010510196941DDE90845F4
:1009E00000196941BDE8F04DA2E72DE9FE4F8046B0
:1009F00081EA0300C00F0C46009021F0004123F073
:100A00000045B8EB0200A94105D240462146904678
:100A10001C460B46024623F00040104347D0270DEA
:100A2000C7F30A00C3F30A510290401A019040280C
:100A30006BDAC3F3130040F4801B0098924620B198
:100A40000023D2EB030A63EB0B0B01985946C0F16C
:100A50004002504600F034F906460D4650465946CD
:100A6000019A00F03CF910EB08006141002487EA8C
:100A7000115284EAE7731A4340D0009A62B3019A94
:100A8000012A4FEA075215DC001B61EB02014FF00F
:100A9000004202EA0752CDE90042001C41F58011F4
:100AA00032462B46FFF753FF03B0BDE8F08F4046B8
:100AB0002146F9E7001B61EB0201001C41F58013A0
:100AC00000185B412018A2F5001747EB030140EA2C
:100AD000D570B6196D4111E06D084FEA360645EA4A
:100AE000C0754FEA0752001B61EB0201001C41F583
:100AF000801149084FEA30000019514132462B4617
:100B000003B0BDE8F04FFFF713BF0098012240008B
:100B10000023D0EB020263EBE073009821464FEA1A
:100B2000E074B8EB000061EB0401E9E783F00043F7
:100B30005BE781F0004158E72DE9FE4F81EA0304AD
:100B400004F0004421F0004100944FF0000B23F02A
:100B5000004350EA01045ED052EA03045BD0C3F3C1
:100B60000A54C1F30A552C44A4F2F3340194A0FBB7
:100B70000254C1F3130141F48011C3F3130343F48E
:100B8000801301FB024400FB034E840A970A44EAE7
:100B9000815447EA8357A4FB076802958D0A05FB39
:100BA00007854FEA932C04FB0C542705029D4FEA5E
:100BB000065847EA1637B5EB08056EEB070C870EAB
:100BC000920E47EA811742EA8312A7FB0201B6EBB5
:100BD0000B0164EB00042B0D43EA0C335E1844EB6D
:100BE0001C50DA465146E7FB0201C5F313044FEAF5
:100BF0000B3343EA14534FEA0432019C43EA0603E1
:100C0000A4F10C040294009CCDE900B4FFF79FFE10
:100C100003B0BDE8F08F00200146F9E70EB540F2C1
:100C2000334202920022CDE900221346FFF78FFEE5
:100C300003B000BDC1F30A52C1F3130140F2FF3308
:100C400041F480119A4202DA00200146704740F2D6
:100C500033439A42A2F2334202DC5242FFF7D5BD3F
:100C600000F02EB801F0004330B421F0004150EA0A
:100C7000010206D00A0DA2F56072C1F31301002A29
:100C800002DC30BC00207047440F44EAC104C100BC
:100C9000E01830BC00EBC25000F0D0B9064C074D54
:100CA00006E0E06840F0010394E80700984710343C
:100CB000AC42F6D3FFF740FAB4340008D43400084D
:100CC000202A04DB203A00FA02F10020704791400C
:100CD000C2F1200320FA03F3194390407047202A01
:100CE00006DBCB17203A41FA02F043EAE07306E054
:100CF00041FA02F3D040C2F1200291400843194664
:100D00007047C0B24FF4F05100F0D0B92DE9F34F65
:100D10008BB04FF0000801F10C000C464FF0010BB6
:100D200046460DF1080A0190626901210198904739
:100D3000051E2DD0252D2CD0216A8847C0B16269AF
:100D4000012101989047216A88470028F7D1411E68
:100D500062690198904700E0761CA1690B9888476A
:100D6000216A88470028F7D1E1690B988847DBE7BB
:100D7000A1690B9888470746A84201D1761CD3E7A2
:100D8000E1690B9888477F1C02D1B8F1000F6FD042
:100D900047E1002762693D463946019890472A2875
:100DA00004D162690121019890470125DFF88892FA
:100DB0006269012101989047A0F130010A290AD205
:100DC0004F45E5DC07EB870100EB4107303FDFD4FF
:100DD00045F01005ECE7E90601D46FF000476C28F8
:100DE0000AD04C2814D0682815D06A280DD0742851
:100DF0001CD07A281AD01DE0626901210198904721
:100E00006C2802D045F0040514E045F002050DE021
:100E100045F020050AE062690121019890476828A1
:100E200002D045F0080505E045F40065626901213E
:100E300001989047C4E9015765283DD019DC58282E
:100E40007AD00CDC452837D004DC252826D0412870
:100E500031D131E046282FD047282CD12CE05B2817
:100E600077D0612828D063287CD0642823D15AE029
:100E7000D1E06F2848D008DC66281DD067281BD039
:100E8000692821D06E2816D127E0702845D0732814
:100E900068D0752847D078280DD14DE0A1690B980E
:100EA0008847054625283FF469AFE1690B988847D4
:100EB0006D1C3FF46AAFB4E023466A466FF0010050
:100EC0000B99FFF75BFA9FE045F040006060A807D0
:100ED00023464FF0000236D43EE0E8077FF447AFE8
:100EE0002068011D21600068290501D506701BE7F7
:100EF000290701D5068017E7A90703D5F117C0E92F
:100F0000006111E706600FE745F040006060A80748
:100F100023464FF0080216D41EE040F60E0125EAE3
:100F20000100606016E045F040006060A8072346BD
:100F30004FF00A0207D40FE045F040006060A807B8
:100F400008D5234610226FF001000B99AFF3008003
:100F50005AE007E0234610226FF001000B99AFF32F
:100F6000008051E04FF000094F464B46632802D005
:100F70005B2807D041E02079C00601D40120A060A1
:100F800001273AE062690121019890475E2805D166
:100F90004FF001096269494601989047216939B9C2
:100FA00000210A46534643F82120491C0829FADB50
:100FB000B0B3216969B9C11700EBD16253110AEBD3
:100FC000830122F01F02821A01200B689040034324
:100FD0000B6062690121019890475D28E8D1B9F161
:100FE000000F09D00020514651F82020D24341F88B
:100FF0002020401C0828F7DB02AB224600976FF048
:1010000001000B99AFF3008000280CDA401C08D1D6
:10101000BBF1000F05D04FF0FF300DB0BDE8F08FF1
:10102000FFE74046F9E7E90701D108F10108064466
:101030004FF0000B78E60000CCCCCC0C0029A8BF08
:101040007047401C490008BF20F00100704710B4F1
:10105000B0FA80FC00FA0CF050EA010404BF10BCA6
:10106000704749B1CCF1200421FA04F411FA0CF1D3
:1010700018BF012121430843A3EB0C01CB1D4FEA0C
:1010800000614FEA102042BF002010BC704700EB07
:10109000C35010440029A4BF10BC7047401C490035
:1010A00008BF20F0010010BC704700007F2801D964
:1010B000002208E0064A02EB5002C007127800D175
:1010C000120902F00F020120904008407047000012
:1010D00074340008FEE770472DE9F0410022CC7817
:1010E00004F00F03E40601D58C7823430C784FF00D
:1010F0000F0714F0FF0F4FF0010C1CD005680CFA1D
:1011000002F40E882640A64211D1960007FA06F88E
:1011100025EA080503FA06F848EA0505CE78282EE0
:1011200002D0482E02D002E0446100E00461521C6B
:10113000082AE4D305600A88FF2A1ED945680022E0
:1011400002F108060CFA06F40E882640A64210D1D9
:10115000960007FA06F825EA080503FA06F848EAB1
:101160000505CE78282E00D14461CE78482E00D1D6
:101170000461521C082AE3D34560BDE8F081FEE714
:10118000FEE7704770470000054A002903D0D16987
:101190000143D1617047D1698143D161704700003B
:1011A00000100240054A002903D091690143916172
:1011B00070479169814391617047000000100240BF
:1011C00010B5264A516801F00C01254B002927D0A3
:1011D000042927D0082927D00360516801F0F001C5
:1011E0000909204B5C5C0168E1404160546804F4EB
:1011F000E064240A1C5D21FA04F48460546804F459
:101200006054E40A1B5DD940C160526802F4404258
:10121000920B144B1B1F9A5CB1FBF2F1016110BDE4
:101220000360DAE70360D8E7516801F4701153688E
:1012300003F48033022404EB914133B153689B03E0
:1012400007D5094B59430160C7E7074B5943016074
:10125000C3E7034B59430160BFE7000000100240A1
:1012600000127A001800002000093D00704700F0CD
:1012700001B800000CB500220192009227480168D5
:1012800041F4803101604FF4A063016801F4003142
:1012900000910199491C0191009911B90199994254
:1012A000F3D10168890302D50121009100E0009289
:1012B0000099012930D11A490A6842F010020A60E7
:1012C0000A6822F003020A600A6842F002020A6019
:1012D0004168416041684160416841F4806141601A
:1012E000416821F47C114160416841F4E81141609A
:1012F000016841F08071016001688901FCD5416895
:1013000021F003014160416841F002014160416800
:10131000C1F381010229FAD10CBD00000010024086
:101320000020024003490868002801D0401E0860E0
:10133000704700002C00002010B50F48016841F0F4
:101340000101016041680D4A1140416001680C4A89
:1013500011400160016821F480210160416821F49D
:10136000FE0141604FF41F018160FFF780FF0549D6
:101370004FF00060086010BD001002400000FFF850
:10138000FFFFF6FE08ED00E010B501218C072046B6
:1013900000F011F8012807D1044908702046BDE883
:1013A0001040012100F004B810BD0000280000200A
:1013B000C9430182704702460020138A0B4092897C
:1013C0000A40002B02D0002A00D0012070470029DB
:1013D00004D0818941F4005181817047818921F4D1
:1013E000005181817047000030B585B004460D463C
:1013F000208A4CF6FF710840E98801432182A089C8
:101400004EF6F3110840A9882A8911436A890243DC
:101410001143A181A08A4FF6FF410840A9890143E9
:10142000A1826846FFF7CCFE1D48844201D1039893
:1014300000E00298A189090408D500EBC00101EB86
:10144000001029684900B0FBF1F007E000EBC00193
:1014500001EB001029688900B0FBF1F06422B0FBB9
:10146000F2F109010B096FF018056B4300EB8300E3
:10147000A3891D044FF0320307D503EBC000B0FB76
:10148000F2F000F00700084306E003EB0010B0FBA9
:10149000F2F000F00F000843208105B030BD0000DD
:1014A00000380140FEE700000FB4054B10B503A95A
:1014B000044A029800F04CF910BC5DF814FB0000DF
:1014C000C1230008440000200FB4084B10B504A944
:1014D00002AA039800F03CF9044602A9002000F09B
:1014E000BAFC204610BC5DF814FB0000571E000833
:1014F00030B528B1144C031F002021680A4605E0CE
:10150000084630BD9A4203D810465268002AF9D1E5
:10151000002800D041680BD00468A3EB0005A54269
:1015200004D11B681C440346046002E0436000E0F1
:1015300023603AB11C68D51AA54203D115682C4422
:101540001C6052685A6030BD480000202DE9F04709
:1015500082460F4C10480D4E0E4F001B4FF00008F6
:1015600020F007054FF0010900221146504600F017
:1015700081FF002802D1306810B10020BDE8F0875B
:101580003C60C4E90058C6F80090EDE74C0000202C
:1015900054000020480000205010002002E008C83D
:1015A000121F08C1002AFAD170477047002001E0DD
:1015B00001C1121F002AFBD1704700002DE9FF5F17
:1015C00082B00021DDE90430020DDDF840B00343B4
:1015D00018D044F61050A2F2FF324243151411986D
:1015E00001281FD0A5EB0B00401C5FEA000A4FF05A
:1015F00000064E4FDFF83891B046504615D5CAF177
:10160000000413E0119801244AA3012801D16FEAD4
:101610000B010298119AC0E90031C0E9024206B0FC
:10162000BDE8F09FCBF10000DFE704460021404A0F
:10163000491842EB0450CDE9001012E0E00707D052
:1016400032463B4640464946FFF776FA8046894691
:1016500032463B4610461946FFF76EFA06460F46DD
:101660006410002CEAD1DDE90401DDE90023BAF1C0
:10167000000F06DAFFF760FA42464B46FFF75CFAC6
:1016800005E0FEF797FF42464B46FEF793FF044600
:101690000E460022284BFFF759F803D84FF0FF30D1
:1016A000014607E00022254B20463146FFF79DF911
:1016B000FFF7C0FA102409E0002C0ADB0A220023FD
:1016C000FFF772F8039B30321A55641E50EA01028C
:1016D000F2D1641C039AC4F111031444119A012A33
:1016E00003D0012208430DD10AE0084304D00020B2
:1016F0004FF0110B119072E7A3EB0B056D1E0DE07F
:101700005B4504DD4FF0000205F1010504E003DA5A
:101710004FF00002A5F10105002AECD002981199C2
:10172000C0E90231C0E9004579E70000000014403B
:101730000000F03F300000000000F0430000E03FF8
:1017400030380A2801D2012070470020704700007D
:101750002DE9FF4F95B09A46884606460025EEE1F2
:10176000252877D100242746F94A0121039400E077
:10177000044316F8013F203B01FA03F01042F7D171
:1017800030782A2811D06FF02F033078A0F1300282
:10179000092A16D8039A44F0020402EB820203EBF2
:1017A00042021044761C0390EFE758F8042B039292
:1017B000002A03DA504244F40054039044F0020437
:1017C000761C30782E2816D116F8010F44F0040448
:1017D0002A280DD06FF02F023078A0F13003092BAA
:1017E00009D807EB870302EB4303C718761CF3E71E
:1017F00058F8047B761C30786C280FD006DC4C2817
:1018000017D068280DD06A2814D104E0742810D0AD
:101810007A280FD10DE044F400140AE044F4801457
:1018200001E044F440147278824202D104F580143D
:10183000761C761C307866280BD013DC582877D0BD
:1018400009DC002875D04528F6D04628F4D0472872
:101850001AD193E118E0632835D0642879D065283F
:1018600012D18BE1702873D008DC6728F1D0692889
:101870006FD06E280DD06F2806D1ACE073282CD025
:10188000752874D0782853D05246179990476D1C0C
:1018900054E1C4F30250022809D003280DD0D8F82F
:1018A000001004280DD00D6008F1040846E1D8F8B6
:1018B0000010EA17C1E90052F6E7D8F800100D80D1
:1018C000F2E70D70F0E718F8041B8DF80010002007
:1018D0008DF80100EB46012003E058F804BB4FF0FF
:1018E000FF3061074FF0000102D40DE009F1010162
:1018F0008946B9420FDA8145F8DB1BF80910002947
:10190000F4D108E009F1010189468142FADB1BF8B4
:1019100009100029F6D103985346A0EB0907214688
:101920003846179A00F080FA284400EB090507E0D2
:1019300044E008E10DE01BF8010B5246179990476F
:10194000B9F10109F7D2534621463846179AF2E019
:1019500039E00A21C4F302524FF0000B0091022A31
:1019600006D058F8040BC117032A09D00AE023E077
:1019700008F1070020F00702F2E80201904605E0B6
:1019800000B2C117042A01D140B2C117002906DAFA
:101990000A460021404261EB02012D2202E02205AD
:1019A00004D52B228DF80420012203E0E20701D0A8
:1019B0002022F7E7914657E00A2100E010214FF07E
:1019C000000B00910BE010214FF0000B44F00404D9
:1019D0000827009103E008204FF0000B0090C4F3AB
:1019E0000252022A05D058F8040B0021032A08D01D
:1019F00008E008F1070020F00702F2E80201904633
:101A000003E080B2042A00D1C0B24FF000092207DF
:101A10002AD53278702A07D0DDF800C08CF0100C7F
:101A20005CEA0B0C05D00EE040228DF80420012268
:101A300008E050EA010306D030238DF804308DF819
:101A4000052002229146009B83F0080353EA0B0312
:101A50000AD150EA010201D1620705D530228DF882
:101A600004204FF001097F1E3278582A04D039A291
:101A70000C920CAA02920BE03BA2F9E75B46009A9B
:101A8000FEF792FE0C9B9B5C029A521E0292137010
:101A900050EA0102F2D1029804A9081A00F1200BC1
:101AA000600702D524F4803400E001275F4502DDA1
:101AB000A7EB0B0000E0002000EB0B010090039867
:101AC0004944401A0390E00306D453462146179A2E
:101AD000039800F0A9F90544002706E001A8524642
:101AE000C05D179990476D1C7F1C4F45F6DBE003E6
:101AF0000CD553462146179A039800F095F90544F2
:101B000004E030205246179990476D1C0099481EFA
:101B100000900029F5DC08E002980299524600780E
:101B2000491C0291179990476D1CBBF10001ABF164
:101B3000010BF1DC5BE100F065F90544761C3078BF
:101B400000287FF40DAE19B02846BDE8F08F0000E4
:101B50000928010030313233343536373839616283
:101B60006364656600000000303132333435363747
:101B7000383941424344454600000000600700D424
:101B8000062708F1070020F00700F0E8022380464E
:101B900003F0004C5FEA0C0001D097A009E020059B
:101BA00001D596A005E0E00701D095A001E0AFF2D5
:101BB0004C001390307823F0004365280CD006DCED
:101BC000452809D046281DD047287FD13BE066280C
:101BD00018D067287AD136E00021112F01DB1120BF
:101BE00000E0781CCDE9000104A90CA8FFF7E6FC91
:101BF000DDE90D010C9A4FF0000B07F1010910927D
:101C000000914EE04FF000400097CDE9011004A98B
:101C10000CA8FFF7D3FCDDE90D020C9B0F994FF0E8
:101C2000000B91461093009211B9791C00EB010949
:101C3000B7EB090003D4C0F1FF3B07F10109A9EBA1
:101C40000700019042E0012F00DA01270021112F47
:101C500001DD112000E03846CDE9000104A90CA8FF
:101C6000FFF7ACFCDDE90D010C9A00914FF0000B81
:101C7000B946109221070FD4009A4A4503DA9146DB
:101C800001E0A9F10109B9F1010F05DD109AA9F1EF
:101C90000101515C3029F4D0B84202DA10F1040F8E
:101CA00003DA0121CDE9011010E0002803DC8344B0
:101CB000A9EB000102E0411C494500DD8946A0EB8B
:101CC0000B00401C01904FF000400290200705D40B
:101CD0000198484502DB4FF0FF30019000208DF85D
:101CE0004B0002980DF14B07B0F1004F25D00220B8
:101CF0000C902B200D90029800280CDA40420290A4
:101D00002D200D9007E00A210298FEF737FD3031B3
:101D1000029007F8011D0C99481E0C900029F2DC76
:101D200002980028EFD1791E0D980870307800F0E5
:101D3000200040F0450007F8020D11A8C01BC01D8F
:101D400002901398007800B1012000EB090101987E
:101D500001EBE071029801440398401A401E039081
:101D6000E00306D453462146179A039800F05CF826
:101D700005441398007818B15246179990476D1C86
:101D8000E00323D553462146179A039800F04CF8F8
:101D900005441BE0BBF1000F07DB0098584504DD4C
:101DA0001098179910F80B0001E01799302052464F
:101DB000904701980BF1010B401E05F101050190C0
:101DC00004D12E205246179990476D1CB9F100019D
:101DD000A9F10109DEDC05E017F8010B524617995D
:101DE00090476D1C0299481E02900029F4DC53466E
:101DF0002146179A03989EE62D0000002B00000054
:101E0000200000002DE9F041044600251E4617463B
:101E1000880404D405E039462020B0476D1C641EB8
:101E2000F9D52846BDE8F0812DE9F04104460025AA
:101E30001E469046C80301D5302700E020278804BD
:101E400004D505E041463846B0476D1C641EF9D5FF
:101E50002846BDE8F0810A68531C0B60107070477B
:101E600010B50246002903D012B1906810B104E009
:101E7000002010BD916005E010460268002AFBD1E9
:101E800001F03AFA012010BD2DE9F041074608465D
:101E9000069914469846002F09D040B13CB149B18B
:101EA00000F00BFA0546E06840F400760AE00020F6
:101EB000BDE8F081414600F0C3F9054695B1E06800
:101EC00020F40076A089800504D4206A10B1D8F8E7
:101ED000041088472562E66021463846BDE8F04197
:101EE000FFF7BEBF0020E3E710B500F0E7F900F010
:101EF0009FFABDE8104001F003BA10B5002803D0E6
:101F000003680BB1426803E0002010BD491C8160EA
:101F100028B18168914202D25C5C202CF6D981689C
:101F20009142F2D1491E816010BD0000F8B504460F
:101F30000D46104600F060F8064600200090074B62
:101F4000324629462046FFF79FFF08B13046F8BDCC
:101F5000304600F0B7F80020F8BD0000380000203F
:101F6000FFF77EBF08B500230093024BFFF78CFFFD
:101F700008BD000038000020F8B504460D461046A4
:101F8000194600F049F8064600200090064B3246FC
:101F900029462046FFF778FF08B13046F8BD3046A5
:101FA00000F090F80020F8BD38000020F8B5044695
:101FB0000D46104600F06EF8064600200090074BD4
:101FC000324629462046FFF75FFF08B13046F8BD8C
:101FD000304600F077F80020F8BD000038000020FF
:101FE00010B5044800F0A8F8002801D02021C160F5
:101FF00010BD00003800002010B50446054800F070
:102000009BF8002804D00CB1022100E00121C1603E
:1020100010BD00003800002070B504460D4613487E
:1020200000F08AF80646F6B10820F060C6E90645D9
:102030000F4A104B20462946FEF788FB03D86FF065
:10204000004070610FE000220B4B20462946FEF74E
:1020500065FB03D84FF00040706104E0204629463C
:10206000FEF724FB7061304670BD00003800002090
:102070000000C0FFFFFFDF410000E0C110B50448D1
:1020800000F05AF8002801D04021C16010BD0000C6
:102090003800002070B50546094800F04DF80446A8
:1020A0003CB11020E0600649284600F0C9F82061E4
:1020B00008B1204670BD204600F004F8002070BD35
:1020C0003800002070B504460F4E19E02568A0893D
:1020D000C00503D4A06808B1FFF7F4FFA089C005CC
:1020E00003D4206908B171688847A089800503D4AA
:1020F000206A08B1716888477168204688472C4675
:10210000002CE3D170BD000038000020002901DA66
:102110000020704700F060B901460020002901D07E
:10212000896803E000207047401C09680029FBD142
:102130007047002200F05FB910B501682820884779
:1021400004461CB128212046FEF72FF8204610BD7A
:1021500000221146AFF300802DE9F04389B0044618
:102160000D4691461C2102A8FEF71FF800262D48B7
:10217000B046C0F80080C0F8048007465CB3029403
:102180002046FEF71DF8401C0390CDF81080D7E9DB
:102190000312B86806AB07C307F10800FFF7CCFFCE
:1021A0000646300017D002A801F07EF8FFF7A5FE22
:1021B0000146304600F002FD68B1B9F1000F19D0B8
:1021C00002A8FFF79AFEDDE90310884203D20499C2
:1021D0000298405C70B116B13046FFF773FFFCB156
:1021E0000094CDF80480DDE9031088420BD20498F6
:1021F00001900DE01DB10499029808442860304612
:1022000009B0BDE8F083039810B10398401E019017
:102210001DB1DDE9000108442860DDE9000103C7C4
:102220000020EDE730000020014A012100F04CBD04
:1022300038000020014949680847000038000020A4
:1022400070B505460C46002D0FD02846FDF7B8FFA7
:10225000461C216830468847044644B13246294628
:102260002046FDF789FF204670BD002070BD00208C
:1022700070BD70B504460D46002C04D01DB1AC42B3
:1022800007D1002070BD012070BD207898B1641C7A
:102290006D1C2078FDF76AFF06462878FDF766FF7B
:1022A0008642F2D02078FDF761FF04462878FDF7DA
:1022B0005DFF201A70BD002070BD704770B51248D8
:1022C000124D4FF080740068FEF7E3F900222B46B0
:1022D000FEF770F9FEF709FA401E4FF0E022A04227
:1022E00001D3012108E05061094BF0211970002150
:1022F00091610721116100210029F0D1106920F0BE
:102300000100106170BD00000000002080842E419B
:1023100023ED00E02DE9F0410446002C09D02268AD
:102320003AB163683BB1A068984204D30020BDE88D
:10233000F0810020FBE74FF00046B14201D30020BE
:10234000F5E7A568491C6818834201D35019EEE7E8
:10235000216909B10020EAE7B0F1804F06D3B0420D
:1023600002D26FF0004602E00020E0E74600236A58
:1023700000275BB13146104698470546A5B9E1698B
:1023800020688847676027600020D0E7A169304651
:10239000884705466DB1A2682846521C2168FDF7A2
:1023A000EBFEE1692068884766602560A0682844E4
:1023B000BDE7E16920688847676027600020B6E7CD
:1023C00004490A885206FCD5024AC1B2121D118086
:1023D0007047000000440040002801D0806803E0FE
:1023E00000207047491E00680028FAD00029F9D162
:1023F00070472E20704770B50D46002803D015B1E8
:1024000084681AB90BE0002070BD246874B12846B6
:10241000216AFDF7DCFE0028F7D107E024682CB123
:102420002846216AFFF725FF0028F7D1204670BD16
:1024300038B501210420FEF7B5FE4FF48070ADF8E9
:10244000000010208DF8030003208DF80200084CD6
:1024500069462046FEF740FE0121ADF80010282114
:102460008DF8031069462046FEF736FE38BD0000A1
:10247000000801402DE9F0410B3020F00706104D17
:1024800019E02068B04215D3B0420AD9871B201D3D
:10249000D4F80480FDF770FEA019C0E90078286028
:1024A00004E060682860201DFDF766FE201D2660A0
:1024B000BDE8F081251D2C68002CE2D10020F7E753
:1024C00048000020FFF710FDFFF7D8FD064658A290
:1024D0005AA13046FFF76AFD5AA25CA13046FFF7C9
:1024E00065FD01225BA13046FFF720FD00225AA1C5
:1024F0003046FFF71BFD0022584B59A13046FFF72D
:102500003BFD00224FF0804356A13046FFF734FDDB
:10251000554A564B56A13046FFF72EFDFFF7AEFD4C
:102520000446FFF7ABFD054652A248A12046FFF73F
:102530003DFD53A245A12846FFF738FDFFF750FDAA
:10254000074621463846FFF70BFD29463846FFF778
:1025500007FD3A464DA13046FFF704FD3046FFF730
:1025600063FE044621464CA0FEF79EFF3046FFF76F
:10257000A9FD2046FFF7ECFD054644A12846FFF7DC
:10258000D8FD06463046FFF7C7FD014644A0FEF7DA
:102590008BFF30A12846FFF7CCFD14300EC846A0B3
:1025A000FEF782FF2CA12846FFF7C3FD14300EC8AA
:1025B00046A0FEF779FF2AA12846FFF7BAFD14309E
:1025C0000EC847A0FEF770FF26A12846FFF7B1FD11
:1025D00014300EC847A0FEF767FF25A12846FFF775
:1025E000A8FD14300EC848A0FEF75EFF002130465B
:1025F000FFF78CFD074601213046FFF787FD0646B1
:1026000012A13846FFF795FD016944A0FEF74CFF83
:102610000EA13046FFF78DFD016946A0FEF744FF8D
:102620002046FFF707FE2846FFF74CFDFEE70000B7
:10263000434A534F4E205465737400005469746CC0
:10264000650000006F626A54657374006E616D65A9
:102650000000000076310000763200000000F03FFC
:102660007633000076340000CDCCCCCCCCCCF83F17
:10267000763500006F626A4974656D3100000000B4
:102680006F626A4974656D32000000004368696CCE
:102690006472656E3100000025730D0A00000000B1
:1026A0006F626A41727261792073697A65203A209B
:1026B00025640D0A000000006F626A54657374207F
:1026C00076313A2025642C25660D0A006F626A5423
:1026D0006573742076323A2025642C25660D0A0035
:1026E0006F626A546573742076333A2025642C2512
:1026F000660D0A006F626A546573742076343A205E
:1027000025642C25660D0A006F626A546573742077
:1027100076353A2025642C25660D0A006F626A49D9
:1027200074656D31206E616D65203A2025730D0A48
:10273000000000006F626A4974656D32206E616D41
:1027400065203A2025730D0A000000002DE9F041B4
:1027500007460C4600260025E068B0F57A7F02D3D4
:102760000020BDE8F081401CE0602168A068095CA1
:102770005B2942D1401CA0602046FFF7BEFB3CB164
:10278000D4E90110884203D22168085C5D283DD05D
:102790001CB1D4E90110884203D3A068401EA06098
:1027A0002BE0401EA06004F110084046FFF7C4FC77
:1027B00018B346B3286045600546A068401CA06079
:1027C0002046FFF79AFB2146284600F0F7F9A0B112
:1027D0002046FFF792FB3CB1D4E90110884203D2B6
:1027E0002168085C2C28E0D03CB1D4E90110884273
:1027F00003D22168085C5D2808D016B13046FFF787
:1028000061FC0020ADE706460546D6E7E068401EBD
:10281000E0602020F860BE60A068401CA06001203D
:102820009FE710B5044600200022A15CA1F130030F
:10283000092B02D8303808440CE0A1F14103052BE4
:1028400002D83738084405E0A1F16103052B08D808
:1028500057380844032A00D20001521C042AE4D34A
:1028600010BD002010BD00002DE9F04192B00746D8
:102870000E4600241194FFF7BCFD0346002126B14B
:10288000306810B10DF104082AE0002012B0BDE854
:10289000F08132681044085C34281BD00ADCA0F1B7
:1028A0002B02092A24D2DFE802F01523151823157C
:1028B0001515150038280DD006DC35280AD0362825
:1028C00008D0372814D105E0392803D0452801D095
:1028D00065280DD108F8010001E008F80130491C15
:1028E0003F2905D226B1B06875684218AA42D0D3F4
:1028F00008F8014011A901A800F0F0FC04460D46BB
:102900001198804501D10020C0E7C7E90645124A69
:10291000124B20462946FDF719FF03D86FF00040FF
:1029200078610FE000220E4B20462946FDF7F6FEA7
:1029300003D84FF00040786104E020462946FDF7B7
:10294000B5FE78610820F8601199B068A1EB080124
:102950000844B060012099E70000C0FFFFFFDF419D
:102960000000E0C12DE9F04107460C460026002595
:10297000E068B0F57A7F02D30020BDE8F081401C0A
:10298000E060002C63D0D4E9011088425FD2216856
:10299000095C7B295BD1401CA0602046FFF7ADFAA3
:1029A000D4E90110884203D22268125C7D2A54D0F7
:1029B000884202D3401EA06049E0401EA06004F19E
:1029C00010084046FFF7B8FBF0B3F6B12860456049
:1029D0000546A068401CA0602046FFF78EFA2146FD
:1029E000284600F045F878B32046FFF786FA2869B4
:1029F0002862002028613CB3D4E90110884226D225
:102A00002168095C3A2922D102E006460546E0E742
:102A1000401CA0602046FFF770FA2146284600F0CF
:102A2000CDF888B12046FFF768FAD4E90110884252
:102A300003D22168095C2C29C3D0D4E90121914239
:102A400005D22168085C00E001E07D2805D016B1C0
:102A50003046FFF737FB00208FE7E068401EE0605C
:102A60004020F860BE60A068401CA060012084E7A0
:102A70002DE9F84F80460E46D6F808A0306800EBE6
:102A80000A04651C641C4FF00009CDF80090002773
:102A9000D6F800C01CF80A0022287DD100207168F9
:102AA00007E05C2B04D1521C8A427CD2401C641C7F
:102AB000641CA4EB0C028A4202D22378222BF0D1B0
:102AC000A4EB0C028A426ED2217822296BD10CEB46
:102AD0000A01611A081A3169401C88470746380004
:102AE00061D000974CE029785C2905D000986D1CD6
:102AF00000F8011B009043E00220611B012952DB1A
:102B00006A78662A18D008DC222A2DD02F2A2BD0EA
:102B10005C2A29D0622A46D108E06E2A12D0722A95
:102B200016D0742A1AD0752A3DD122E000990822C5
:102B300001F8012B009122E000990C2201F8012BF1
:102B400000911CE000990A2201F8012B009116E087
:102B500000990D2201F8012B009110E00099092243
:102B600001F8012B00910AE0009901F8012B009176
:102B700005E06A462146284600F011FC60B1054494
:102B8000A542B0D3009880F800901020C8F80C003F
:102B9000C8F81070306800E005E0201A401CB060F2
:102BA0000120BDE8F88F17B171693846884715B123
:102BB0003068281AB0600020F3E7000070B50546C1
:102BC0000C46002C3CD02168D1B3A0686368021D7C
:102BD0009A4205D80844042235A1FDF70FFB88B3BB
:102BE000A0686268411D0126914206D8216805222D
:102BF000084431A1FDF702FB60B3A0686268011DC3
:102C0000914206D82168042208442DA1FDF7F6FA66
:102C100030B3D4E90101814203D22268525C222AF6
:102C200026D081422AD22268525C2D2A02D0303A24
:102C3000092A23D821462846BDE87040FFF714BE74
:102C4000002070BDFFE70420E860A068001DA060C0
:102C50000120F6E7EE60A068401DA0600120F0E7CB
:102C60000220E8606E61A068001DA0600120E8E716
:102C700021462846BDE87040FFF7FABE814203D2E4
:102C80002268525C5B2A07D0814203D22068405CF4
:102C90007B2807D00020D4E721462846BDE87040B5
:102CA000FFF754BD21462846BDE87040FFF75ABEE5
:102CB0006E756C6C0000000066616C73650000004E
:102CC0007472756500000000F0B589B006460F46C5
:102CD000144624216846FDF768FA4FF4807522688F
:102CE0002846904700900195059794E8070006ABA9
:102CF00007C3009868B36946304600F025FA40B330
:102D0000684600F03DFBA26800263AB1029900989F
:102D1000491C90470546E5B1009617E002982168E6
:102D2000401C88470546A5B1DDE90110401C8142E1
:102D300001D2019A01E0029A521C28460099FDF73F
:102D40001BFA02982E54616800988847284609B0FB
:102D5000F0BD009808B1616888470020F7E72DE9C9
:102D6000F0410C468568002C0ED001212046FFF76B
:102D7000D1FA60B15B210170A068401CA060E068DE
:102D8000401CE060002727E00020BDE8F081002023
:102D9000FBE72146284600F0D7F940B1204600F075
:102DA000EFFA2868B8B1606918B1022602E0002085
:102DB000EBE70126711C2046FFF7ACFAD8B12C21B5
:102DC00000F8011B616911B1202100F8011B077097
:102DD000A0683044A0602D68002DDAD10221204681
:102DE000FFF798FA48B15D2101704770E068401E16
:102DF000E0600120C9E70020C7E70020C5E7000028
:102E00002DE9F04389B08846D0E906450026FFF752
:102E1000F0FA8146B8F1000F0ED022462B461FA1D2
:102E200002A8FEF751FB07466A461EA102A8FDF75D
:102E3000F5F901280BD103E0002009B0BDE8F083CB
:102E4000DDE9000122462B46FDF768FC06D022464C
:102E50002B4615A102A8FEF737FB07461A2F01D310
:102E60000020EAE7791C4046FFF754FA10B102AAA5
:102E70002E2308E00020E0E7915D494501D183550C
:102E800000E08155761CBE42F6D300218155D8F86A
:102E900008003844C8F808000120CEE725312E315B
:102EA00035670000256C670025312E31376700003B
:102EB0002DE9F0470C468568002C03D0606920B1ED
:102EC000022603E00020BDE8F0870126711C2046A1
:102ED000FFF720FA88B17B2100F8011BE168491C4B
:102EE000E16061694FF00A0809B180F80080A068CC
:102EF0003044A0600027092661E00020E3E7606914
:102F000090B12046E168FFF705FA08B1002104E01E
:102F10000020D8E700F8016B491CE2688A42F9D822
:102F2000D4E902010844A0602146286A00F06EF846
:102F300038B1204600F024FA606920B14FF0020950
:102F400003E00020BFE74FF0010949462046FFF7A4
:102F5000E1F9A0B13A2100F8011B616901B10670E5
:102F6000A0684844A0602146284600F0EDF840B132
:102F7000204600F005FA606928B1012004E0002035
:102F8000A1E700209FE70020296809B1012100E0A6
:102F9000002100EB010909F101012046FFF7BAF910
:102FA000A0B1296811B12C2100F8011B616909B198
:102FB00000F8018B0770A0684844A0602D68002DC0
:102FC0009DD1606920B1E168491C02E000207AE7E8
:102FD00002212046FFF79EF918B1616951B1002125
:102FE00004E000206FE700F8016B491CE268521E04
:102FF0008A42F8D87D2101704770E068401EE06089
:10300000012060E7006900F001B800002DE9F047F9
:1030100005460A460024002A02D025B1294622E0AE
:103020000020BDE8F08703211046FFF773F920B1B7
:1030300042A1FDF7DAF80120F3E70020F1E70C28C0
:1030400028D006DC082825D0092823D00A2806D154
:1030500020E00D281ED022281CD05C281AD0202861
:1030600000D2641D491C08780028E8D1481B0719C4
:10307000F91C1046FFF74EF9064630000CD04FF011
:1030800000094FF022084CB186F80080741C4FF004
:103090005C0A33E0641CE5E70020C2E786F80080A4
:1030A0003A462946701CFDF767F8F01980F8018050
:1030B00080F802900120B4E71F2805D9222803D008
:1030C0005C2801D0207017E004F801AB2A780C2AA4
:1030D00027D006DC082A21D0092A2BD00A2A06D1BB
:1030E00022E00D2A23D0222A15D05C2A10D014A168
:1030F0002046FEF7E9F9241D6D1C641C2878002881
:10310000DAD1F01980F8018080F80290012088E778
:1031100084F800A0F0E784F80080EDE762202070DA
:10312000EAE766202070E7E76E202070E4E772206F
:103130002070E1E774202070DEE70000222200000A
:10314000752530347800000070B504460D46002C1B
:103150000DD065B1207B102851D00ADC01281CD08D
:10316000022826D004280CD0082808D12DE0002001
:1031700070BD202849D040284DD080282BD0002079
:1031800070BD05212846FFF7C5F820B125A1FDF740
:103190002CF8012070BD002070BD06212846FFF7E5
:1031A000B9F820B121A1FDF720F8012070BD002061
:1031B00070BD05212846FFF7ADF820B11DA1FDF730
:1031C00014F8012070BD002070BD29462046BDE8DE
:1031D0007040FFF715BE206968B1FCF7F1FF461C8F
:1031E00031462846FFF796F838B132462169FCF798
:1031F000C3FF012070BD002070BD002070BD2946B6
:103200002046BDE87040FFF7FDBE29462046BDE8D8
:103210007040FFF7A4BD29462046BDE87040FFF787
:1032200047BE00006E756C6C0000000066616C7338
:103230006500000074727565000000002DE9F0471C
:1032400004008A4616D054F8047CD4F800903E1F3F
:10325000564500D956462046FEF74AF905468846A7
:10326000324621465046FFF705F940B1C0F80090BC
:10327000BDE8F087BDE8F0470846FEF767B944E9C6
:10328000017955B129686A18211F8A4202D9611B48
:10329000091F2960C5F80480EAE7024AC2F80080E5
:1032A000E6E700004800002010B50446002C03D0DB
:1032B000206808B1A16809B1002010BD6168042927
:1032C00007D9032204A1FCF799FF10B9A068C01C1C
:1032D000A060204610BD0000EFBBBF0000B583B06A
:1032E0000A460021CDE9001101466846FDF7EDFAD6
:1032F000DDE9000103B000BD0160486070470000D7
:1033000030B585B001210420FDF74CFF01214804B0
:10331000FDF73AFF0424ADF8104003208DF81200A9
:1033200018208DF81300144D04A92846FDF7D4FE8B
:103330000821ADF810108DF8134004A92846FDF7B8
:10334000CBFE4FF4E13000900020ADF80400ADF862
:103350000600ADF80800ADF80C000C20ADF80A002E
:10336000064C69462046FEF73FF801212046FEF74D
:103370002EF805B030BD00000008014000440040B8
:1033800010B50446002C09D02068002806D0A1689A
:103390000844FCF715FFA1680844A06010BD2DE9A2
:1033A000F04780468A4614460026AAEB0800062805
:1033B0005EDB08F10200FFF734FA0546A5F55C4034
:1033C0004FF48069484553D3A5F5584048451AD273
:1033D00008F106000C27AAEB0001062948DB01785A
:1033E0005C2945D14178752942D1801CFFF719FA33
:1033F000A0F55C4149453BD2C5F3090161F39F202B
:1034000000F5803001E006272846802801D20123FC
:1034100010E0B0F5006F02D20223C0260AE0B0F53A
:10342000803F02D20323E02604E0B0F5881F1FD2BC
:103430000423F026591EC9B208E0256800F0BF0237
:1034400042F080026A548009491EC9B20029F4D1B1
:10345000012B03D921683043087003E0216800F094
:103460007F0008702068184420603846BDE8F08767
:103470000020FBE7DDDDDDDDDCBBBBDDDDDDDDDD33
:10348000DDDDDDDD9888888888888888777777779C
:103490007788888885555556666666666666666668
:1034A0006668888883333332222222222222222213
:1034B0002228888DD434000800000020500000002D
:1034C0009C15000824350008500000200020000052
:1034D000AC15000800A24A04000000000000000033
:1034E00001020304060708090204060800000000A0
:1034F000010203040102030406070809000000009A
:103500000000000000000000000000004D15000851
:10351000F11400083D320008000000000000000027
:0435200000000000A7
:0400000508000131BD
:00000001FF
