:020000040800F2
:100000004841002045010008191C0008B11A0008E9
:10001000151C0008DD010008B52F000800000000D5
:10002000000000000000000000000000BD2C0008DF
:100030006502000800000000992B0008F12C000860
:100040005F0100085F0100085F0100085F01000810
:100050005F0100085F0100085F0100085F01000800
:100060005F0100085F0100085F0100085F010008F0
:100070005F0100085F0100085F0100085F010008E0
:100080005F0100085F0100085F0100085F010008D0
:100090005F0100085F0100085F0100085F010008C0
:1000A0005F0100085F0100085F0100085F010008B0
:1000B0005F0100085F0100085F0100085F010008A0
:1000C0005F0100085F0100085F0100085F01000890
:1000D0005F010008A52F00085F0100085F0100080C
:1000E0005F0100085F0100085F0100085F01000870
:1000F0005F0100085F0100085F0100085F01000860
:100100005F0100085F0100085F0100085F0100084F
:100110005F0100085F0100085F0100085F0100083F
:100120005F0100085F0100085F0100085F0100082F
:10013000DFF80CD000F040F80048004761300008BC
:10014000484100200648804706480047FEE7FEE792
:10015000FEE7FEE7FEE7FEE7FEE7FEE7FEE7FEE777
:10016000512D000831010008D2B201E000F8012B46
:10017000491EFBD270470022F6E710B513460A4627
:1001800004461946FFF7F0FF204610BD30B50B4678
:10019000014600202022012409E021FA02F59D42B7
:1001A00005D303FA02F5491B04FA02F52844151E8B
:1001B000A2F10102F1DC30BD064C074D06E0E0681B
:1001C00040F0010394E8070098471034AC42F6D39E
:1001D000FFF7B2FF807E0008A07E0008FEE7000067
:1001E00010B540F60044C4F2010420464FF480717B
:1001F000002200F0E3FD20464FF40071002200F0E1
:10020000DDFD20468021002200F0D8FD10BD000059
:1002100010B540F60044C4F2010420464FF480714A
:10022000002200F0CBFD20464FF40071002200F0C8
:10023000C5FD20468021012200F0C0FD002010BD38
:1002400080B582B08DF8070040F26000C2F2000075
:100250000DF1070101224FF47A7301F063F902B046
:1002600080BD000070470000B0B5102000F01CF900
:10027000002400BF002500BF002000F031F90F2D41
:1002800005F10105F8D3B4F5937F04F10104F1D928
:10029000132000F009F90024002500BFFF2000F022
:1002A0001FF90F2D05F10105F8D3B4F5937F04F183
:1002B0000104F1D900F0DEF9B0BD000070B50446CC
:1002C000102000F0F1F80025002600BF002000F00B
:1002D00007F90F2E06F10106F8D3B5F5937F05F166
:1002E0000105F1D9132000F0DFF800254FF0FF36AB
:1002F000A019407800F0F4F801360F2EF8D101353E
:10030000B5F5947F04F11004F0D100F0B3F970BD9D
:1003100070B5044600F000F9912000F0C5F8902077
:1003200000F0C2F80020002500F0DAF87F2000F08D
:10033000D7F8002000F0D4F8002000F0D1F8012018
:1003400000F0CEF8272000F0CBF8282000F0C8F805
:10035000132000F0A9F800BF4FF0FF36A019407835
:1003600000F0BEF801360F2EF8D10135B5F5947FB7
:1003700004F11004F0D100F07DF970BD80B500F0FB
:1003800055F8042000F090F800F01AF8002000F072
:100390008BF81F2000F0A4F8612000F085F8802081
:1003A00000F09EF8012000F09BF8282000F098F85B
:1003B000502000F079F8972000F092F880BD0000FE
:1003C00010B50CA002F0BAFF41F20004C4F201041F
:1003D000712000F069F820464FF4005100F0E8FC6D
:1003E000C007F5D0142000F0DBFB08A002F0A6FF48
:1003F00010BD00BF44656275673A20652D5061707D
:10040000657220627573790D0000000044656275A5
:10041000673A20652D50617065722062757379208E
:1004200072656C656173650D0000000010B540F6E3
:100430000044C4F2010420468021012200F0BEFCE9
:10044000142000F0ADFB20468021002200F0B6FC15
:10045000022000F0A5FB20468021012200F0AEFC26
:10046000142000F09DFB20468021002200F0A6FC15
:10047000022000F095FB20468021012200F09EFC26
:10048000142000F08DFB20468021002200F096FC15
:10049000022000F085FB20468021012200F08EFC26
:1004A000142000F07DFB10BDB0B540F60045C4F24D
:1004B0000105044628464FF48071002200F07EFCBE
:1004C00028464FF40071002200F078FC2046FFF728
:1004D000B7FE28464FF40071012200F06FFCB0BD5A
:1004E000B0B540F60045C4F20105044628464FF475
:1004F0008071012200F062FC28464FF40071002256
:1005000000F05CFC2046FFF79BFE28464FF400718C
:10051000012200F053FCB0BDB0B50120FFF7C4FFCD
:100520000320FFF7DDFF0020FFF7DAFF2B20FFF7A6
:10053000D7FF2B20FFF7D4FF0320FFF7D1FF0620C2
:10054000FFF7B2FF1720FFF7CBFF1720FFF7C8FF19
:100550001720FFF7C5FF0420FFF7A6FFFFF730FFC6
:100560000020FFF7A1FFBF20FFF7BAFF3020FFF701
:100570009BFF3A20FFF7B4FF6120FFF795FF802033
:10058000FFF7AEFF0120FFF7ABFF2820FFF7A8FF22
:100590008220FFF789FF1220FFF7A2FF5020FFF70C
:1005A00083FF9720FFF79CFF2020FFF77DFF43F29A
:1005B000D630C0F60000441E2C2500BF14F8010FF1
:1005C000FFF78EFF013DF9D12120FFF76DFF43F2C8
:1005D0002C40C0F60000441E2A2500BF14F8010F6D
:1005E000FFF77EFF013DF9D12220FFF75DFF43F2C7
:1005F000AC30C0F60000441E2A2500BF14F8010FDD
:10060000FFF76EFF013DF9D12320FFF74DFF43F2C5
:100610000240C0F60000441E2A2500BF14F8010F56
:10062000FFF75EFF013DF9D12420FFF73DFF43F2C4
:100630008230C0F60000441E2A2500BF14F8010FC6
:10064000FFF74EFF013DF9D1B0BD000080B550204D
:10065000FFF72AFFF720FFF743FF0220FFF724FFF1
:10066000FFF7AEFE0720FFF71FFFA520FFF738FFBB
:1006700080BD000080B51220FFF716FF0A2000F0B1
:100680008FFAFFF79DFE80BD2DE9F04385B0C3A032
:1006900002F054FEFFF7BCFDC6A002F04FFEFFF7CC
:1006A0006DFEFFF7E1FD4FF4FA7000F079FA4FF4B8
:1006B000945002F00DFE002800F06581814647F657
:1006C0005960C0F6000002F039FE4FF0FF084846BE
:1006D00080214FF494724FF48773CDF8008002F0BC
:1006E00065F947F66960C0F6000002F027FE48464B
:1006F00002F08CF9FF2001F0A7FA46F6DA20C0F6E6
:10070000000001F03BFB4846FFF7D8FD4FF4FA60CC
:1007100000F046FA47F64160C0F6000002F00EFE17
:10072000484602F073F9FF2001F08EFAA8A002F00B
:1007300005FE01250A2050210022012300950027F3
:1007400001F04CFE0A205A2100220223009501F0FC
:1007500045FE0A20642100220323009501F03EFE9D
:100760001420462146227823CDE9007502971424EF
:1007700001F016FD4620462114227823CDE90075AC
:10078000029701F00DFD1420462146227823CDE981
:100790000075029701F0BAFE50204621822278238C
:1007A000CDE90075029501F0B1FE2D205F211422E4
:1007B00000230095019701F095FB69205F21142229
:1007C000FF230095019501F08DFB55205F217D22CF
:1007D0005F23CDE90075029501F0E2FC69204B2111
:1007E00069227323CDE90075029501F0D9FC40F22E
:1007F0002005C2F200057BA20A2000212B460097AB
:10080000CDF8048001F0CEFF40F20C06C2F20006E3
:1008100077A20A2014213346CDF80080019701F019
:10082000C1FF4CF61552C0F25B720A2021213346FB
:100830000097CDF8048001F053FD46F6B102C3F6EF
:10084000DE220A2032212B46CDF80080019701F0EC
:1008500047FD40F2140369A2C2F200038220002186
:100860000097CDF8048001F0CBFE40F2300365A282
:10087000C2F2000382201421CDF80080019701F01C
:10088000BFFE63A002F05AFD4846FFF717FD4FF484
:10089000FA6000F085F962A002F050FD42F20C20EF
:1008A00040F22805ADF810003820C2F2000503AE72
:1008B0008DF812009DF812000130C1B23C298DF86C
:1008C000120017D19DF811008DF812700130C1B2DD
:1008D0003C298DF811000DD19DF810008DF8117094
:1008E0000130C1B28DF81000182904BFADF81070A6
:1008F0008DF81270A888E988C0EBC000963050319E
:100900008BB282B296205021CDF8008001F014FA0B
:100910009620502132462B46CDF80080019701F0F9
:1009200087FFE0B2441E200607D04846FFF7F0FCE0
:100930004FF4FA7000F034F9BCE73EA002F0FEFC80
:10094000FFF71CFDFFF790FC4FF4FA6000F028F968
:1009500047F60D60C0F6000002F0F0FCFFF776FEEF
:10096000484602F08DFC4FF4FA6000F019F947F6A2
:10097000DC50C0F6000002F0E1FCFFF731FC002083
:1009800005B0BDE8F08347F61C60C0F6000002F039
:10099000D5FC4FF0FF3005B0BDE8F0834550445F13
:1009A00032494E39445F746573742044656D6F0D30
:1009B00000000000652D506170657220496E6974F9
:1009C00020616E6420436C6561722E2E2E0D000036
:1009D00044726177696E673A426C61636B496D611D
:1009E00067650D0077617665736861726500000068
:1009F00068656C6C6F20776F726C6400C4E3BAC377
:100A000061626300CEA2D1A9B5E7D7D30000000090
:100A10004550445F446973706C61790D00000000BB
:100A20005061727469616C20726566726573680DDD
:100A300000000000436C6561722E2E2E0D00000038
:100A400070470000014690F82100022813D1086881
:100A5000D1E90FC3026822F00E020260026822F0A0
:100A600001020260012000FA03F2CCF8042081F8B0
:100A70002100002002E0042088630120002281F888
:100A80002020704780B590F82110022927D10268F4
:100A900040F2040C1368C4F2020C23F00E0313603E
:100AA00013680CF17C018A4223F0010111601AD90C
:100AB00040F20841C4F202018A4247D040F21C4190
:100AC000C4F202018A4245D040F23041C4F2020130
:100AD0008A4243D14FF48073CCF8003457E00421AC
:100AE0008163012080BD4321C4F202018A420EDDF0
:100AF0006B21C4F202018A421BDC4421C4F20201D0
:100B00008A4239D05821C4F202018A4231E00821D8
:100B1000C4F202018A4232D01C21C4F202018A428C
:100B200032D03021C4F202018A4222D14FF48072C5
:100B30002BE06C21C4F202018A4222D08021C4F24F
:100B400002018A4215D14FF080721EE00123CCF8D9
:100B500000341CE01023CCF8003418E00CF5886158
:100B60004FF480338A4208BF4FF48053CCF80034EE
:100B70000DE04FF4803208E04FF4805205E001228E
:100B800003E04FF4801200E01022CCF80020416B0B
:100B90004FF48072028401B18847002080BD0000BC
:100BA000B0B5044600F010F9054640F24000C2F22C
:100BB00000000078611C18BF044400BF00F004F975
:100BC000401BA042FAD3B0BD2DE9F04F83B00C68B2
:100BD000002C00F0EA80A0F18042A2F5843240F2BD
:100BE000004E4FEAB22241F60047C4F2010E0092D5
:100BF000C4F20107062200254FF001094FF0000B57
:100C00004FF0000AB84208BF0522019209E000BF78
:100C10000C680BF1010B34FA0BF205F1040500F03E
:100C2000C48009FA0BF814EA080CF1D04C684FF6AE
:100C3000FF72C1F21002944210DC122C50D8DFE88F
:100C400004F0330A41454F4F4F4F4F4F4F4F4F4FD7
:100C50004F4F4F484C00D1F80CA041E04FF6FF72C7
:100C6000C1F2210294420FDC0022C1F2110294422F
:100C70001AD00022C1F21202944215D00022C1F211
:100C80002102944210D02BE00022C1F222029442B1
:100C90000AD00022C1F23102944205D00022C1F2F2
:100CA000320294421CD100BF8C6844B1012C14BFA5
:100CB000C0F81480C0F810804FF0080A10E04FF020
:100CC000040A0DE0CC6804F1080A09E04FF0000ABC
:100CD00006E0CC6804F1040A02E0CC6804F10C0AD6
:100CE0002C460746BCF5807F24BF203C04373A6879
:100CF0000F2303FA04F6B2430AFA04F422433A60DB
:100D0000CA79D2067FF584AF41F21804C4F2020416
:100D100022684FF6084842F0010222602268CFF6AE
:100D2000FF7802F001020292029A2BF00302724451
:100D300052F8084005F00C0603FA06F7009BBC4386
:100D4000019F052B38BF1F4607FA06F6344342F8C9
:100D500008404C68E203DEF8002054BF22EA0C078A
:100D600042EA0C07A203CEF80070DEF8042054BF5C
:100D700022EA0C0742EA0C07E202CEF80470DEF821
:100D8000082054BF22EA0C0742EA0C07A20240F2F4
:100D90000C44CEF80870C4F20104226854BF22EA61
:100DA0000C0242EA0C02226032E703B0BDE8F08F89
:100DB0008068084018BF012070470000002A08BF63
:100DC000090401617047000040F24010C2F20000C7
:100DD0000068704740F2400040F24011C2F200004B
:100DE000C2F2000100780A681044086070470000F1
:100DF00080B542F20000C4F20200016841F0100127
:100E00000160032000F066F8002000F005F800F013
:100E10002BF8002080BD0000B0B540F24002C2F2C5
:100E2000000240F23C011278C2F200014FF47A73E2
:100E30000968B3FBF2F20446B1FBF2F1084600F098
:100E40002FFC0F2C4FF001050CD858B94FF0FF3094
:100E500021460022002500F02DF840F24400C2F2A5
:100E6000000004602846B0BD82B041F21800C4F210
:100E700002000168022241F001010160016801F0F5
:100E8000010101910199416841F080514160406840
:100E900000F08050009000980420C4F20100016826
:100EA00062F31A61016002B07047000080B502F081
:100EB00083F880BD70B514460D46064602F08CF8E6
:100EC0002946224600F0AAFE0146304602F08CF880
:100ED00070BD000080B502F099F880BD2DE9F043A7
:100EE00081B0002800F0898042F20008C4F20208B4
:100EF0000446D8F800000D4600F0070088420CD2E6
:100F0000D8F8000020F007002843C8F80000D8F8FF
:100F1000000000F00700A8426FD1206841F20409E8
:100F20008107C4F2020917D5410705D5D9F8001089
:100F300041F4E061C9F80010010705D5D9F80010A7
:100F400041F46051C9F80010D9F80010A26821F0EE
:100F5000F0011143C9F80010C00745D1D8F80000CE
:100F600000F00700A8420CD9D8F8000020F00700D4
:100F70002843C8F80000D8F8000000F00700A84295
:100F80003BD12068410707D5D9F80010E26821F469
:100F9000E0611143C9F80010000708D5D9F8000036
:100FA000216920F4605040EAC100C9F8000000F057
:100FB00079F8D9F8001043F26A32C1F30311C0F690
:100FC0000002515C40F23C0220FA01F140F2440080
:100FD000C2F200000068C2F200021160FFF71CFFBD
:100FE000002001B0BDE8F0836068022809D0012824
:100FF00029D159F8041C890307D4012001B0BDE8A8
:10100000F08359F8041C8901F7D5D9F8001021F0B4
:1010100003010843C9F80000FFF7D6FE064641F277
:10102000883700BFD9F80000616800F00C00B0EB11
:10103000810F93D0FFF7C8FE801BB842F2D903207E
:1010400001B0BDE8F08359F8041C8907D5D5DCE769
:1010500040F23C00C2F200000068704780B5FFF724
:10106000F7FF41F20401C4F20201096843F27A3247
:10107000C1F30221C0F60002515CC84080BD0000EF
:1010800080B5FFF7E5FF41F20401C4F202010968EF
:1010900043F27A32C1F3C221C0F60002515CC8406B
:1010A00080BD000041F2040CC4F2020CDCF80030F8
:1010B00003F00C00082841F20020C0F27A0018BFAB
:1010C0007047C3F383420AA18A5CD90305D440F672
:1010D0000010C0F23D0050437047DCF8001008A338
:1010E000C1F34041595C5043B0FBF1F0704700BF81
:1010F00002030405060708090A0B0C0D0E0F101059
:10110000010200002DE9F04182B0002800F0C48007
:101110000446007841F20006C007C4F2020643D03C
:10112000706800F00C00042817D0706800F00C0004
:10113000082802D17068C0030FD465682DB1B5F5D9
:10114000A02F10D0B5F5803F11D0306820F480304A
:101150003060306820F480200CE03068800323D5B4
:10116000606808BB98E0306840F4802030603068E8
:1011700040F480303060FFF727FE002D054610D088
:101180003068800310D4FFF71FFE401B6428F7D996
:1011900004E100BFFFF718FE401B64284FF0030076
:1011A00077D830688003F5D42078800718D5706828
:1011B00010F00C0F07D0706800F00C00082826D142
:1011C0007068C00323D43068800702D520690128E5
:1011D00062D13068616920F0F80040EAC1003060F7
:1011E000207800073DD5A06938B30020C4F2422022
:1011F0000121C0F88014FFF7E7FD0546706A8007FB
:101200002DD4FFF7E1FD401B0228F7D9C6E0206985
:10121000002840F20000C4F2422000F09680012134
:101220000160FFF7D1FD054630688007D1D4FFF794
:10123000CBFD401B0228F7D9B0E00020C4F24220C9
:101240000021C0F88014FFF7BFFD0546706A8007D3
:1012500007D5FFF7B9FD401B0228F7D99EE001F042
:101260009DFC207840071BD4E5698DB1706800F0C3
:101270000C00082847D1012D0ED07068216A00F4B7
:1012800080328A4208D1616A00F47010884203D12A
:10129000002002B0BDE8F081012002B0BDE8F0817D
:1012A000F06910F0805808D1F06940F08050F0618A
:1012B000F06900F080500190019847F20007C4F2F5
:1012C00000073868C00510D4386840F48070386072
:1012D000FFF77AFD054600BF3868C00505D4FFF763
:1012E00073FD401B6428F7D958E0E5681DB1052D52
:1012F0003CD0012D3ED0306A20F001003062306ACF
:1013000020F0040039E00027C4F2422700203866AC
:10131000FFF75AFD022D05460CD100BF3068800151
:1013200054D5FFF751FD401B02284FF00300F5D9BB
:10133000AFE700BF30688001AAD5FFF745FD401B2D
:1013400002284FF00300F5D9A3E700210160FFF761
:101350003BFD0546306880077FF542AFFFF734FD5F
:10136000401B02284FF00300F4D992E7306A40F0A6
:1013700004003062306A40F001003062FFF724FD63
:10138000002D054641F2883714D000BF306A80072F
:1013900013D4FFF719FD401BB842F7D9032002B060
:1013A000BDE8F081FFF710FD401BB8424FF003008D
:1013B0003FF66FAF306A8007F4D4B8F1000F7FF4C6
:1013C00053AFF06920F08050F0614DE7206AB0F52E
:1013D000803F05D17168A26821F40031114371602A
:1013E0007168626A21F4741110430843706001202F
:1013F0003866FFF7E9FC0446306880013FF548AFE6
:10140000FFF7E2FC001B02284FF00300F4D940E78D
:1014100070B538B10446406A30B10020206104F153
:10142000140007E0012070BD6068B0F5827F03D032
:1014300004F11C00002101600026A66294F851000E
:1014400020B9204684F8506000F038F8022084F873
:10145000510094E8071001F48271036802F4044219
:1014600023F040030360236911440CF4006211442B
:1014700003F002026369114403F00102A369E56904
:10148000114403F40072114405F03802256A114436
:1014900005F08002A56A114305F400521143016072
:1014A000042101EA13414160C16921F40061C16175
:1014B0000120666584F85100304670BD80B586B065
:1014C000016843F60040C4F2000081424FF0000181
:1014D000CDE90411CDE9021101D006B080BD41F281
:1014E0001801C4F202014A6800F5504042F400427B
:1014F0004A604A6802F400420192019A0A6842F086
:1015000008020A60096801F0080101910199282187
:101510000291022103910321059102A9FFF754FBD7
:1015200006B080BD2DE9F04381B0044690F850002C
:10153000012803D1022001B0BDE8F0834FF001097A
:101540001D4616460F4684F85090FFF73DFC94F870
:10155000511001295DD18046002F4FF0010018BFC6
:10156000002E00F09580032084F851000020606573
:101570002763A686E686A063A087E087A168C4E902
:101580001000B1F5004F08D12068016821F040013A
:101590000160016841F480410160206801684906EA
:1015A00003D4016841F0400101606168731EE26884
:1015B000B1FA81F1B3FA83F349095B09B2F5006F1F
:1015C00041EA030127D139B1216B0988C160B81CF8
:1015D0002063E08E0138E086E08E002841D06E1C4A
:1015E0000AE000BF216B31F8022BC2602163E08E5C
:1015F0000138E086E08EA0B3206881688907F1D4C5
:10160000FFF7E2FB002EF5D0A0EB0800A842F1D3D3
:1016100025E002203CE039B139780173206B0130BC
:101620002063E08E0138E086E08ED0B16E1C0AE0C7
:10163000216B09780173206B01302063E08E013843
:10164000E086E08E68B1206881688907F0D4FFF7F2
:10165000BBFB002EF5D0A0EB0800A842F1D303207D
:1016600016E020462946424601F0AEFA00281CBF8B
:1016700020206065A06838B9002000902068C1680B
:101680000091806800900098606D002818BF0120CC
:10169000002184F8519084F8501001B0BDE8F08327
:1016A00080B501F00DFB80BD704700007047000061
:1016B000B0B582B0016805460868CA684C6900F098
:1016C0002F03202B02F0200305D123B1284601F07F
:1016D0006BFB02B0B0BD5FEA007C1EBF04F0010EE0
:1016E00002F4907414EB0E0424D12B6B1040C2064C
:1016F00017D5012B15D1002001900868019048688A
:1017000001900198486940061CD4A88DEA8DEB8DA4
:10171000002B1CBF801A5FEA004240F09A8002B0A2
:10172000B0BD010636D44006F9D5284601F030FB9D
:1017300002B0B0BDC10718BF12F480712FD14107AC
:1017400033D439E0A86B0268526893B2002BE6D01C
:10175000AC8DA342E3D2EA858269202A16D0CA68FA
:1017600022F48072CA604A6922F001024A614A6921
:1017700022F040024A61202285F83E2000222A639E
:10178000CA6822F01002CA60FFF75CF9A88DE98DE3
:10179000401A6FE0284601F0A9FB02B0B0BD296CE9
:1017A00041F001012964410706D5BEF1000F03D0C5
:1017B000296C41F002012964810706D5BEF1000FB2
:1017C00003D0296C41F004012964BCF1000F06D557
:1017D0005EEA030103D0296C41F008012964296CF9
:1017E00000299CD01040800602D5284601F0DCFA82
:1017F00028684069296C00F0400001F00801401899
:1018000020D0284601F0AEFA28684169490614D56F
:10181000416921F040014161A86B70B142F6555118
:10182000C0F600014163FFF72DF900283FF477AFC0
:10183000A86B416B884702B0B0BD2846FFF736FF62
:1018400002B0B0BD2846FFF731FF0020286402B087
:10185000B0BDCA6822F49072CA604A6922F00102DF
:101860004A61202285F83E2000222A63CA6822F0BD
:101870001002CA6081B22846FFF716FF02B0B0BD61
:10188000002804BF0120704710B5044690F83D00C1
:1018900028B9002084F83C00204600F021F82420DC
:1018A00084F83D002068C16821F40051C1602046E1
:1018B00001F0D4FA2068016921F490410161416985
:1018C00021F02A014161C16841F40051C16000204A
:1018D0002021206484F83D1084F83E1010BD0000E3
:1018E00070B586B0006844F20041C4F200010026E1
:1018F00088420596CDE9036602963FD043F6000183
:10190000C4F20101884266D141F21800C4F202001B
:10191000016840F6000441F4804101600168C4F2AE
:10192000010401F4804101910199016802AD41F087
:10193000040101600068294600F00400019001984C
:101940004FF400700290022003900320059020467F
:10195000FFF73AF94FF4806002900020CDE90300D0
:1019600020462946FFF730F9252000210022FFF705
:10197000A1FA2520FFF79AFA06B070BD41F21800CF
:10198000C4F20200416840F6000441F400314160B5
:101990004168C4F2010401F4003101910199016828
:1019A00002AD41F0040101600068294600F0040026
:1019B00001900198042002900220039003200590DA
:1019C0002046FFF701F90820CDE902062046294606
:1019D0000496FFF7F9F806B070BD000070470000EC
:1019E0002DE9F04381B0044690F83D0020280BD14A
:1019F0000E4600294FF0010055D01746002A52D05C
:101A000094F83C00012803D1022001B0BDE8F08326
:101A1000012084F83C004FF0000921201D46C4F845
:101A2000409084F83D00FFF7CFF9A784E784A168D0
:101A30000746B1F5805F07D1206900281CBF3046FA
:101A40004E46B046064601E04FF0000884F83C9050
:101A500007E000BF16F8010B21684860E08C0138F0
:101A6000E084E08C80B1204680213A462B4601F08C
:101A700067FA80B9002EEDD138F8020B21686FF3B8
:101A80005F2048600026E9E7204640213A462B4681
:101A900001F056FA18B1032001B0BDE8F083202010
:101AA00084F83D00002001B0BDE8F08370470000DD
:101AB000FEE700002DE9F04186B0002641F2180053
:101AC000CDE90466CDE90266C4F20200016840F681
:101AD000004441F0100101600168C4F2010401F00A
:101AE0001001019101990168002241F0200101607B
:101AF00001684FF4607801F02001019101990168BB
:101B000041F004010160016801F0040101910199B3
:101B1000016841F00801016000684FF4607100F055
:101B20000800019001982046FFF748F94FF4005053
:101B300002ADCDE90206012704F58060294604972D
:101B4000FFF742F80220059020462946CDE902879A
:101B50000496FFF739F806B0BDE8F08180B540F291
:101B6000600043F6004CC2F20000C4F2000C4FF4D7
:101B700082724FF4004300214FF4007EC0E900C29E
:101B80000A22C0E90231C0E90411C0E906E1C0E956
:101B90000811C0E90A12FFF73BFC002818BFFEF746
:101BA0004FFF80BD80B540F2B80043F60001C2F29D
:101BB0000000C4F2010100234FF00C0C4FF4E1329D
:101BC00080E80E00C0E90333C0E905C3C361FFF735
:101BD00057FE002818BFFEF733FF80BD80B540F2E6
:101BE000FC0044F20041C2F20000C4F200010023F4
:101BF0004FF0080C4FF4E13280E80E00C0E90333E7
:101C0000C0E905C3C361FFF73BFE002818BFFEF71C
:101C100017FF80BDFEE700007047000000F00700DE
:101C200080F00703042B28BF04234FF0FF3C033848
:101C30000CFA03F338BF0020994381400CFA00F0FE
:101C400022EA00000843704780B540F2480CC2F217
:101C5000000CBCF81610022926D0042945D007290B
:101C600068D1BCF81410002964D040EA001E00229C
:101C700005E000BFBCF8141001328A425AD2BCF809
:101C80001230002BF6D04FF0FF3100BFDCF800001F
:101C900002FB0300084480F801E0BCF81230881C05
:101CA00001319842F2D3E5E7BCF81410002908BFCF
:101CB00080BD4FF0000E05E0BCF814100EF1010ECF
:101CC0008E4537D2BCF81230002BF5D04FF0FF31E3
:101CD000DCF800200EFB03220A445070BCF81230DE
:101CE0008A1C01319A42F3D3E6E7BCF8141009B319
:101CF00040EA001141EA801141EA800E002204E02E
:101D0000BCF8141001328A4214D2BCF81230002BF5
:101D1000F6D04FF0FF3100BFDCF8000002FB0300FB
:101D2000084480F801E0BCF81230881C0131984268
:101D3000F2D3E5E780BD00002DE9F04381B0994280
:101D400018D2089C984615460E46814604E000BF0E
:101D50000136B0B240450DD2A945F9D24F4600BF79
:101D6000B8B2B1B2224600F057FE0137B8B2A8426D
:101D7000F6D3EDE701B0BDE8F083000010B540F206
:101D8000480CC2F2000CBCF81410002908BF10BDAA
:101D90004FF0000E06E000BFBCF814100EF1010E6B
:101DA0008E4516D2BCF81230002BF5D04FF0FF3123
:101DB0000EFB0312DCF8004002440EFB0343527892
:101DC0000B445A70BCF812308A1C01319A42EFD38E
:101DD000E2E710BD2DE9F04F83B01C4640F2480306
:101DE000C2F200039F88874256D30546D8888842AE
:101DF00052D3E088002852D0A088E388D4F800E0CD
:101E0000203A5A43C30846070D9F4FF0010C18BFF4
:101E10000CEBD00302FB03E600234FF0800B019193
:101E20000AE000BFDDE90113400718BF01360133A6
:101E3000E0889AB2824232D2A0880028F4D003EB24
:101E400001084FF00009029313E000BF002809EBDE
:101E500005001CD00C9A80B21FFA88F100F0DCFD5E
:101E6000BAF1070F08BF0136A08809F101098145C1
:101E7000D8D2307809F0070A2BFA0AF1FF2F00EACE
:101E80000100E3D10028EBD009EB0500E2E780B2C6
:101E90001FFA88F13A46E1E702A001F04FFA03B0D9
:101EA000BDE8F08F44656275673A205061696E74D1
:101EB0005F447261774368617220496E7075742067
:101EC0006578636565647320746865206E6F726DF4
:101ED000616C20646973706C61792072616E6765F2
:101EE0000D0000002DE9F04F8DB0934640F24802FE
:101EF000C2F2000296880C908642C0F0AB80D08877
:101F0000884240F2A780179803220128A2EB4B06D3
:101F10000FFA8BF00A91029340F0A280002800F1A2
:101F20001C81DDF80880DDF828A0002001251AE0DA
:101F3000019B039D049EE91A0A2230B202EB810143
:101F4000F24312B200284FF0060003EBD23248BF32
:101F500000EB8501681C0FFA82FB00B20125584591
:101F60000E4400F3FA800FFA8BF1039000B288421E
:101F70000496CDF804B0DBDCDDF80C900C980991E8
:101F800009EB0002A0EB090007900A98089209EB00
:101F90000002A0EB09000692059000BF09EB0A00C1
:101FA00084B20898214680B2424601230B900095E6
:101FB00000F014FA0798214687B2384642460123BA
:101FC000009500F00BFA0C984246A0EB09001FFAAE
:101FD00080FB0698012386B258463146009500F0F2
:101FE000FDF90598424684B25846214601230095E2
:101FF00000F0F4F9AAEB090085B24FF0010B384666
:10200000294642460123CDF800B000F0E7F90B98CD
:10201000294642460123CDF800B000F0DFF90C98C4
:102020002146484485B2284642460123CDF800B0F7
:1020300000F0D4F928460125314642460123009597
:1020400000F0CCF9099909F101000FFA80F98945EE
:10205000A4DD6DE742A001F071F90DB0BDE8F08F8D
:1020600000287AD4DDF82880029D4FF0000A00BFD6
:102070000C980BEB0801DDF8589050448CB2049694
:1020800080B221462A464B4601260B90009600F06E
:10209000A5F90C982146A0EB0A0086B230462A46E4
:1020A0004B460124009400F099F90C980AEB0801C2
:1020B000A0EB0B0087B289B238462A464B460991FD
:1020C000009400F08BF9A8EB0A0084B23846214650
:1020D0002A464B460127009700F080F9A8EB0B0039
:1020E00087B2304639462A464B460126009600F014
:1020F00075F90B9839462A464B460096012700F0A1
:102100006DF90C982146584486B230462A464B4613
:102110000097012400F062F9099930462A464B469F
:10212000009400F05BF9049EAAEB0B010A2230B286
:1021300002EB8101F24312B200284FF006000BEBD4
:10214000D23248BF00EB8A010AF101000FFA82FB8C
:102150000FFA80FADA450E448ADD0DB0BDE8F08F43
:1021600044656275673A205061696E745F447261BC
:1021700077436972636C6520496E70757420657869
:10218000636565647320746865206E6F726D616C41
:1021900020646973706C61792072616E67650D00EF
:1021A0002DE9F04F89B040F24805C2F200050692D1
:1021B000AA880891824205D239A001F0BFF809B07F
:1021C000BDE8F08F8046E8889842F5D306998A42A8
:1021D000F2D308998842EFD306984FF0000BB0EB8A
:1021E000080448BF644208991498591A81EAE172B8
:1021F0000F4648BF4F42C2EBE171079106994FF07D
:10220000FF3288454FF0FF3138BF0121CDE903315E
:102210000899A4EB070980F0010A01268B4288BFC8
:1022200001220292059703E03C46B4EB490F2DDAF8
:102230000BF101004AF6AB22C1B2CAF6AA22A1FBF9
:1022400002235A0802EB4202891A5AEA010B129A37
:102250000CBFFF228346089827461FFA88F485B2F0
:10226000139B20462946009600F0B8F80798B0EB7B
:10227000490FD9DC06988442A1D005983C46A9EBC9
:10228000000904988044B4EB490FD1DB03988542E0
:1022900095D008980299A14408440890C8E700BF67
:1022A00044656275673A205061696E745F4472617B
:1022B000774C696E6520496E70757420657863652A
:1022C00065647320746865206E6F726D616C206444
:1022D0006973706C61792072616E67650D00000032
:1022E0002DE9F04FADF5037D0DF586798A468346DD
:1022F0004846FF2198461746FDF73DFF03AC2046B0
:10230000FF21FDF738FF40F24800C2F2000081884B
:1023100059453DD3C08850453AD3DDE98CCE46F2CD
:10232000676300210122C6F2666300BF87FB0305D5
:102330001046AA1002EBD57505EB8502A7EB420209
:1023400030320EB2A255013107F1090609B2421C22
:10235000122E2F46EAD801290CDB01B221440139A3
:10236000A9F1010382B200BF11F80109013A03F893
:10237000010FF9D143AA584651464346CDF800E033
:10238000CDF804C000F00EFA0DF5037DBDE8F08F26
:1023900003A000F0D3FF0DF5037DBDE8F08F00BF73
:1023A00044656275673A205061696E745F44697371
:1023B0004E756D20496E707574206578636565642F
:1023C0007320746865206E6F726D616C2064697330
:1023D000706C61792072616E67650D002DE9F04FB8
:1023E00081B040F24806C2F200069346B288074622
:1023F0008242884602D3F088404512D247F69D506B
:10240000C0F6000000F09AFFB2882DA0394600F017
:102410003BFEF28833A0414600F036FE01B0BDE835
:10242000F08F0A981D4601282AD1002D44D04FF084
:10243000FF3000EB4506A7EB0509A8EB050A0020D5
:102440004FF0000806E000BF08F101080FFA88F01D
:10245000864231DD19EB0007F6D40020002500BFCD
:102460001AEB0001F0D4B8B289B25A4600F0D4FA9F
:10247000013528B28642C8BFB7F1FF3FF0DCE3E781
:10248000D5B1A7F10109A8F101074FF0000800BF7D
:1024900009EB0806002400BF381981B2B0B25A46D1
:1024A00000F0BAFA013420B2A842F5DB08F10108C5
:1024B0000FFA88F0A842EBDB01B0BDE8F08F00BF57
:1024C00058706F696E74203D202564202C20506167
:1024D000696E742E5769647468203D20256420203D
:1024E0000D0A200059706F696E74203D202564200C
:1024F0002C205061696E742E486569676874203DB0
:1025000020256420200D0A20000000002DE9F0475E
:1025100084B01C4640F24803C2F200031546DA8834
:10252000A24222D306469888A8421ED3B0421CD3AA
:102530000F468A4219D30E98DDE90C98D8B1A7420C
:1025400010D24FF0000A00BFB9B230462A460B46FF
:10255000CDE90098CDF808A0FFF722FE0137B8B208
:10256000A042F1D304B0BDE8F08719A000F0E6FE68
:1025700004B0BDE8F0874FF0000A304639462A46DD
:102580003B46CDE90098CDF808A0FFF709FE30469C
:10259000394632462346CDE90098CDF808A0FFF72A
:1025A000FFFD284621462A463B46CDE90098CDF856
:1025B00008A0FFF7F5FD2846214632462346CDE91F
:1025C0000098CDF808A0FFF7EBFD04B0BDE8F08758
:1025D00044656275673A20496E707574206578634A
:1025E0006565647320746865206E6F726D616C2020
:1025F000646973706C61792072616E67650D0000AB
:102600002DE9F04F85B015780491002D00F0C680BB
:102610000746DDF83C8003F108001C460190981D38
:10262000029008E0019902200988155C02440F44D9
:10263000002D00F0B38068B2B0F1FF3F14DDA08838
:10264000002800F0A580206800F1020B002000BFE8
:102650001BF8021C8D425DD0A188013088420BF12D
:10266000A60BF5D394E000BFA0880028DAD020683C
:102670000021013006E000BFA3880131994200F13A
:10268000A600CFD210F8013C9D42F5D153780678D0
:10269000B342F1D161890029C4D0461C00210392C4
:1026A00009E000BF039A5146400718BF0136608910
:1026B00001318142B6D220890028F5D004988A469B
:1026C00001EB0009002511E0002807EB05001CD0F4
:1026D0000E9A80B21FFA89F100F09EF9BBF1070F44
:1026E00008BF0136208901358542DBD2307805F0FC
:1026F000070B802121FA0BF1B8F1FF0F00EA01006E
:10270000E2D10028EAD07819E2E780B21FFA89F115
:102710004246E1E76089D8B34FF00009039208E030
:10272000400718BF0BF1010B608909F101098145D0
:1027300031D220890028F3D00498002609EB000547
:1027400012E000BF002807EB06001DD00E9A80B2F1
:10275000A9B200F061F9BAF1070F08BF0BF1010B44
:10276000208901368642DBD29BF8000006F0070A7A
:10277000802121FA0AF1B8F1FF0F00EA0100E1D14E
:102780000028E8D0B819E1E780B2A9B24246E0E7F4
:102790000299012048E7DDE90212FAE705B0BDE839
:1027A000F08F00002DE9F04F83B040F2480AC2F2EA
:1027B000000A1C46BAF80430834230D38046BAF887
:1027C00006008B4688422AD3137873B3DDF8309025
:1027D000571C5E46454617E0E188B0B2BAF80620BD
:1027E000084490420D9884BF45465E460090A8B2CA
:1027F000B1B2DAB22346CDF80490FFF7EBFA17F83E
:10280000013BA088054483B1A188A8B2BAF804208E
:1028100008449042E0D9E08845460644DCE747F6A4
:102820005A50C0F6000000F089FD03B0BDE8F08FFB
:102830002DE9F04F83B0914612794CF6CD48CCF695
:10284000CC48A2FB08270D46F90843F260371C4626
:10285000DDE90C63C0F600077A5CB4F804A00093CD
:102860002946234683460196FFF7B4FA99F80400F7
:102870000C9EA0FB0812D10801EB8101A0EB4100E6
:102880003A5C0D980AEB0B070090B8B22946234634
:102890000196FFF79FFA07EB9A000D9900EB5A009B
:1028A0000C9F009180B229463A2223460197FFF7F8
:1028B00091FA99F805004CF6CD47CCF6CC47A0FB31
:1028C00007015E460BEB5A0843F2603BC808C0F6AE
:1028D000000B0D991BF8002008EB4A000C9F00919B
:1028E00080B2294623460197FFF774FA99F805004C
:1028F0004CF6CD41CCF6CC41A0FB0112D10801EB46
:1029000081010AEB4A03A0EB41001BF8002008EB11
:102910000300DDF834B00C9F029380B229462346B1
:10292000CDF800B00197FFF755FA08EB8A00A0EB4D
:102930009A000C9F80B229463A222346CDF800B077
:102940000197FFF747FA99F806004CF6CD48CCF608
:10295000CC48A0FB08010AEB8A0043F2603AC908A0
:10296000C0F6000A1AF80120304480B229462346F6
:10297000CDF800B00197FFF72DFA99F8060023462D
:10298000A0FB0812D10801EB8101A0EB41001AF86D
:1029900000200298294606EB400080B2CDF800B036
:1029A0000197FFF717FA03B0BDE8F08F10B540F2BA
:1029B000480CC2F2000CDDF808E0CCF80000022060
:1029C000ACF81600C808ACF80810ACF80A20ACF84F
:1029D0000CE04FF0010E4C0718BF0EEBD100ACF825
:1029E00012000020ACF81420ACF80E30ACF8100047
:1029F0002BB1B42B12BF10460846114601E0084621
:102A00001146ACF80400ACF8061010BD40F24801C5
:102A1000C2F200010860704710B540F2480EC2F2E1
:102A2000000EBEF8043083424AD3BEF806308B4213
:102A300046D3BEF80E30B32B09DC9BB15A2B40F0C5
:102A40007D80BEF80830C9431944844616E0B42B93
:102A50000AD0B3F5877F71D1BEF80A30C04303EBCB
:102A6000000C0BE08C4608E0BEF808C0BEF80A3047
:102A7000C043C943604403EB010C0146BEF810009B
:102A800003285BD8DFE800F011020B07BEF808004E
:102A9000C943014409E0BEF80800C9430144BEF837
:102AA0000A006FEA0C0300EB030CBEF8083088B292
:102AB000984205D8BEF80A301FFA8CFC9C4503D911
:102AC0002BA000F03BFC10BDBEF81630072B1ED02B
:102AD000042B34D0022B18BF10BDBEF81230DEF824
:102AE00000E003FB0CFC0CEBD00C1EF80C3001F0EA
:102AF00007018020C84018436FF0800444FA01F1B8
:102B0000002A08BF03EA01000EF80C0010BDBEF851
:102B10001210DEF8003001FB0CF101EB500104242F
:102B200013F801C004EA80006FF0F00404411201C0
:102B300004EA0C0422FA00F02043585410BDBEF8F9
:102B40001210DEF8003001FB0CF101EB90010624BD
:102B500013F801C004EA40006FF0C0049201044180
:102B6000D2B204EA0C0422FA00F02043585410BDFB
:102B700044656275673A20457863656564696E6788
:102B800020646973706C617920626F756E64617224
:102B90006965730D000000007047000081B040F2CD
:102BA0003C00C2F20000006844F6D351C1F2620159
:102BB000A0FB0101480A009000BF0098411E0028B8
:102BC0000091F9D101B0704710B513460A46802133
:102BD000044600F00BF800280FBF0020606D40F0A5
:102BE0002000606518BF032010BD00002DE9F043F0
:102BF00081B01E4690460D468146FEF7E5F8301A34
:102C000000EB0807FEF7E0F840F23C01C2F20001D9
:102C10000968C1F3CB3179430091D9F80010896874
:102C20002940A94219D1064608F1010406E000BF77
:102C3000D9F8000080682840A8420ED1002CF7D0B7
:102C4000FEF7C2F8801BB8420BD20098009900280A
:102C500008BF0746481E0090EAE7002001B0BDE823
:102C6000F083D9E900014268B1F5827F22F0E002E9
:102C700042600BD1D9F80810B1F5004F02D0B1F580
:102C8000806F03D1016821F040010160D9F828105C
:102C9000B1F5005F07D1016821F4005101600168BE
:102CA00041F400510160012089F85100002089F8A9
:102CB0005000032001B0BDE8F08300007047000021
:102CC000B0B501380024B4EB106F1CBF0120B0BDBB
:102CD0004EF21005CEF2000568604FF0FF300F2174
:102CE00000F082F90720AC6028602046B0BD0000EB
:102CF00080B5FEF76FF880BD70B590B006AC204689
:102D00002821FDF738FA012006900A904FF4E010D0
:102D100000254FF4803102260F9020460595CDE91D
:102D20000355CDE90155CDE90715CDE90D61FEF754
:102D3000E9F90F20CDE901064FF48060CDE90405E3
:102D400001A802210395FEF7C9F810B070BD00007C
:102D50007047000080B5406A0021C185C184FEF73C
:102D6000A5FC80BD0168CA6822F49072CA604A69F5
:102D700022F001024A61026B012A03D1CA6822F0E3
:102D80001002CA60202180F83E10002101637047C4
:102D900080B50168CA6822F04002CA60202180F82C
:102DA0003D10FEF783FE80BD80B582B090F83E10E6
:102DB00022291ED18268B2F5805F02D10169002903
:102DC00040D0816AB2F5805F07D00AB9026922B1AA
:102DD0000268526802F07F0201E0026852680A70DD
:102DE0000121826A11448162C18D01390A04C185C1
:102DF00001D002B080BD0168CA6822F02002CA601A
:102E0000CA6822F48072CA604A6922F001024A61EB
:102E1000202280F83E20026B012A1BD1002202638F
:102E2000CB6823F01003CB600B68DB0605D501925D
:102E30000A680192496801910199818DFEF734FC7D
:102E400002B080BD0168826A49686FF35F2111801A
:102E50000221C6E7FEF7C2FD02B080BD10B50446F0
:102E60000068D4E902C22369016921F44051114389
:102E70000161616943EA0C021143C26841F20C63CB
:102E80009A431143C1604169A26921F44071114321
:102E900043F60002C4F201029042416102D0FEF703
:102EA000DDF801E0FEF7ECF8626819214843910073
:102EB000B0FBF1F048F21F51C5F2EB11A0FB01236A
:102EC0005A096FF0630302FB0300322303EB001087
:102ED000A0FB0101F02303EA5113206803EB021267
:102EE000C1F343111144816010BD000090F83D1002
:102EF000212923D18168B1F5805F01D1016931B108
:102F0000016A02684B1C03620978516007E0016A9C
:102F1000036831F8022B6FF35F225A600162C18CA3
:102F200001390A04C18418BF70470068C16821F0E4
:102F30008001C160C16841F04001C160704700007C
:102F40002DE9F0410446006800680840884202D13B
:102F50000020BDE8F0811D460E4690465F1C04E04F
:102F6000206800683040B042F2D0002FF8D02DB178
:102F7000FDF72AFFA0EB0800A842F1D92068C1683C
:102F800021F4D071C160416921F00101416120202B
:102F900084F83D0084F83E00002084F83C000320C3
:102FA000BDE8F08180B540F2B800C2F20000FEF743
:102FB0007FFB80BDFEE70000002848BF704700F09F
:102FC0001F01012202FA01F14EF200124009CEF275
:102FD000000242F8201070474EF60C50CEF200006E
:102FE0000068C0F3022070474EF6145300F00F0241
:102FF000CEF2000309011A4400F16043B0F1FF3F33
:10300000C8BF03F564421170704700004EF60C51C2
:10301000CEF200010A684FF6FF031A4060F30A225D
:1030200042F0806040F0FD700860704710B582B0DB
:10303000019040F2B80001ACC2F20000214601222A
:10304000FF23FEF7CDFC40F2FC00C2F20000214657
:103050000122FF23FEF7C4FC019802B010BD00005E
:10306000FDF7C6FEFFF748FEFEF724FDFEF79AFDCA
:10307000FEF774FDFEF7B2FD4FF4FA60FDF790FD28
:10308000FDF702FBFEE700000FB4054B10B503A9E6
:10309000044A029800F018F810BC5DF814FB000018
:1030A0002D3000080000002002E008C8121F08C1EF
:1030B000002AFAD170477047002001E001C1121FB9
:1030C000002AFBD1704700002DE9FF4F8BB09A46D4
:1030D0000F460546002606E025280BD052460D99DE
:1030E00090476D1C761C28780028F5D10FB030462B
:1030F000BDE8F08F0024A0460122604900E00443AF
:1031000015F8013F203B02FA03F00842F7D1287876
:103110002E2817D115F8010F44F004042A280ED0E8
:103120006FF02F022878A0F1300109290AD808EBA6
:10313000880102EB410100EB01086D1CF2E757F832
:10314000048B6D1C287869283ED006DC0028CDD081
:1031500063280BD0642804D136E0732810D075287A
:103160004BD052460D999047761C85E017F8040B1A
:103170008DF8000000208DF80100E946012003E0F1
:1031800057F8049B4FF0FF3061074FF0000401D463
:103190000AE0641C44450DDA8442FADB19F8041095
:1031A0000029F6D106E0641C8442FCDB19F8041007
:1031B0000029F8D1264404E019F8010B52460D9974
:1031C0009047641EF8D257E001CF4FF00A0B002859
:1031D00002DA40422D2102E0210504D52B218DF891
:1031E0002410012103E0E10705D02021F7E70DF1CC
:1031F000200908910CE00021F9E701CF4FF00A0BFC
:10320000F9E75946FCF7C2FF01F1300209F8012D38
:103210000028F6D1ADEB090000F1200B600701D4C6
:103220004FF00108D84502DDA8EB0B0000E00020BC
:103230008046002406E009A85246005D0D9990479B
:10324000641C761C08988442F5DB04E0302052466A
:103250000D999047761CB8F10001A8F10108F5DC42
:1032600005E019F8010B52460D999047761CBBF109
:103270000001ABF1010BF4DC6D1C34E709280100FF
:1032800010B5002821D0114B0022001F196803E05F
:10329000814203D80A4649680029F9D152B113681E
:1032A000841A9C4204D1006818441060104602E061
:1032B000506000E0186039B102680B1A934203D1E4
:1032C0000B681A4402604968416010BD0400002088
:1032D000F0B50B30154D20F007010024144A0FE023
:1032E00003688B420BD38B4205D95E1A431847689B
:1032F000C3E9006700E04368136002C004E0021DF8
:1033000010680028ECD12046002802D1286808B1B6
:103310000020F0BD064A07481060074A121A22F042
:103320000702C0E9002401202860D7E70800002038
:10333000040000204C0100204821002010B5044664
:1033400001E0FFF773FE14F8010B04490028F8D1DF
:10335000BDE810400A20FFF769BE00000000002011
:103360003031323334353637383900000000000050
:103370000000010203040607080900000000010222
:10338000030400190100000100000000000000001B
:10339000000000000000000000000000000000002D
:1033A0000000000000000000000000008019010083
:1033B000000100000000000000000000000000000C
:1033C00000000000000000000000000000000000FD
:1033D00000000000000000190100000100000000D2
:1033E00000000000000000000000000000000000DD
:1033F00000000000000000000000000000000000CD
:103400000000401901000001000000000000000061
:1034100000000000000000000000000000000000AC
:103420000000000000000000000000000019010082
:10343000000100000000000000000000000000008B
:10344000000000000000000000000000000000007C
:10345000000000000000C4E30000000000000000C5
:103460001DC01D803BFF3B073F777E76F870FBFE5B
:10347000FBFE3F773F773E73387038703BE00000CB
:10348000000000000000000000000000000000003C
:10349000000000000000000000000000000000002C
:1034A000000000000000000000000000000000001C
:1034B000000000000000000000000000000000000C
:1034C00000000000000000000000000000000000FC
:1034D00000000000000000000000000000000000EC
:1034E00000000000000000000000000000000000DC
:1034F000000000000000000000000000BAC300004F
:10350000000000000000300073FF700FFE1E7E3CC4
:103510006E38EE30EFFFFC307C3038303E307E309D
:10352000E030C1F0000000000000000000000000DA
:10353000000000000000000000000000000000008B
:10354000000000000000000000000000000000007B
:10355000000000000000000000000000000000006B
:10356000000000000000000000000000000000005B
:10357000000000000000000000000000000000004B
:10358000000000000000000000000000000000003B
:10359000000000000000000000000000000000002B
:1035A0000000CAF70000000000000000300E300EDE
:1035B0003FEE30EEFCFF76CE77FE7BFEFFFEF3DEC5
:1035C000F3CE37EE3E6E3C0E303E000000000000B1
:1035D00000000000000000000000000000000000EB
:1035E00000000000000000000000000000000000DB
:1035F00000000000000000000000000000000000CB
:1036000000000000000000000000000000000000BA
:1036100000000000000000000000000000000000AA
:10362000000000000000000000000000000000009A
:10363000000000000000000000000000000000008A
:103640000000000000000000DDAE000000000000EF
:1036500000000670FFFF3E7038007FFFE000FFFCB7
:103660003B8C39CCFFFF739C71DC7FFF001C01F8A1
:10367000000000000000000000000000000000004A
:10368000000000000000000000000000000000003A
:10369000000000000000000000000000000000002A
:1036A000000000000000000000000000000000001A
:1036B000000000000000000000000000000000000A
:1036C00000000000000000000000000000000000FA
:1036D00000000000000000000000000000000000EA
:1036E0000000000000000000000000000000C5C94C
:1036F0000000000000000000E01FFFF03E000E1F71
:10370000CFFBFFF83FFF0FFF7FD87FDC6FCEEDFFD1
:10371000FDF7F9C0000000000000000000000000FC
:103720000000000000000000000000000000000099
:103730000000000000000000000000000000000089
:103740000000000000000000000000000000000079
:103750000000000000000000000000000000000069
:103760000000000000000000000000000000000059
:103770000000000000000000000000000000000049
:103780000000000000000000000000000000000039
:1037900000000000610000000000000000000000C8
:1037A0000000000000003E00670007800F807F805F
:1037B000E380E780E7807F800000000000000000D9
:1037C00000000000000000000000000000000000F9
:1037D00000000000000000000000000000000000E9
:1037E00000000000000000000000000000000000D9
:1037F00000000000000000000000000000000000C9
:1038000000000000000000000000000000000000B8
:1038100000000000000000000000000000000000A8
:103820000000000000000000000000000000000098
:103830000000000000000000000062000000000026
:103840000000000070007000700070007F007B803E
:1038500071C071C071C071C071C07B807F000000F9
:103860000000000000000000000000000000000058
:103870000000000000000000000000000000000048
:103880000000000000000000000000000000000038
:103890000000000000000000000000000000000028
:1038A0000000000000000000000000000000000018
:1038B0000000000000000000000000000000000008
:1038C00000000000000000000000000000000000F8
:1038D00000000000000000000000000000000000E8
:1038E0006300000000000000000000000000000075
:1038F00000003F007300F000E000E000E000F00096
:1039000073003F0000000000000000000000000005
:1039100000000000000000000000000000000000A7
:103920000000000000000000000000000000000097
:103930000000000000000000000000000000000087
:103940000000000000000000000000000000000077
:103950000000000000000000000000000000000067
:103960000000000000000000000000000000000057
:103970000000000000000000000000000000000047
:1039800000000000000041000000000000000000F6
:1039900000000E001F001F001F003B803B80718055
:1039A0007FC071C0E0E0E0E0E0E000000000000067
:1039B0000000000000000000000000000000000007
:1039C00000000000000000000000000000000000F7
:1039D00000000000000000000000000000000000E7
:1039E00000000000000000000000000000000000D7
:1039F00000000000000000000000000000000000C7
:103A000000000000000000000000000000000000B6
:103A100000000000000000000000000000000000A6
:103A20000000000000000000000000000000000096
:103A30000000000000000000001010101010000036
:103A400010000000006C484800000000000000006A
:103A5000001414287C287C285050000000103840A6
:103A60004038487010100000002050200C700814DE
:103A70000800000000000018202054483400000016
:103A800000101010100000000000000000080810D6
:103A90001010101010080800002020101010101036
:103AA0001020200000107C102828000000000000DA
:103AB0000000101010FE10101000000000000000A8
:103AC000000000181030200000000000007C000002
:103AD0000000000000000000000000303000000086
:103AE000000404080810102020400000003844445E
:103AF00044444444380000000030101010101010EE
:103B00007C00000000384404081020447C000000C1
:103B1000003844041804044438000000000C141455
:103B200024447E040E000000003C2020380404449D
:103B300038000000001C2040784444443800000055
:103B4000007C4404080808101000000000384444B9
:103B5000384444443800000000384444443C0408DD
:103B60007000000000000030300000303000000025
:103B700000000018180000183020000000000C1091
:103B8000608060100C000000000000007C007C00E1
:103B9000000000000000C02018041820C000000031
:103BA0000000182404081000300000003844444C81
:103BB00054544C40443800000030102828287C44DD
:103BC000EE00000000F8444478444444F80000004B
:103BD000003C4440404040443800000000F048446D
:103BE00044444448F000000000FC445070504044FD
:103BF000FC000000007E22283828202070000000F1
:103C0000003C4440404E44443800000000EE444430
:103C10007C444444EE000000007C10101010101092
:103C20007C000000003C08080848484830000000BC
:103C300000EE444850704844E60000000070202028
:103C4000202024247C00000000EE6C6C545444447A
:103C5000EE00000000EE64645454544CEC0000008C
:103C6000003844444444444438000000007824248C
:103C70002438202070000000003844444444444468
:103C8000381C000000F8444444784844E200000036
:103C900000344C40380404645800000000FE9210C8
:103CA000101010103800000000EE44444444444416
:103CB0003800000000EE44442828281010000000BE
:103CC00000EE4444545454542800000000C64428D4
:103CD00010102844C600000000EE442828101010E0
:103CE00038000000007C4408101020447C000000D4
:103CF00000382020202020202020380000402020D4
:103D000020101008080800000038080808080808F3
:103D100008083800001010284400000000000000CF
:103D20000000000000000000000000FE001008007D
:103D3000000000000000000000000038443C444443
:103D40003E00000000C0405864444444F8000000B5
:103D50000000003C4440404438000000000C0434A3
:103D60004C4444443E00000000000038447C404085
:103D70003C000000001C207C202020207C00000053
:103D8000000000364C4444443C04380000C0405815
:103D900064444444EE000000001000701010101045
:103DA0007C0000000010007808080808080870006F
:103DB00000C0405C48705048DC000000003010102B
:103DC000101010107C000000000000E854545454FF
:103DD000FE000000000000D864444444EE000000EF
:103DE000000000384444444438000000000000D87B
:103DF000644444447840E000000000364C444444AD
:103E00003C040E000000006C302020207C000000EC
:103E10000000003C44380444780000000000207C8E
:103E2000202020221C000000000000CC4444444C10
:103E300036000000000000EE444428281000000076
:103E4000000000EE4454545428000000000000CC50
:103E500048303048CC000000000000EE4424281810
:103E6000101078000000007C481020447C00000006
:103E70000008101010102010101008000010101072
:103E8000101010101010000000201010101008105A
:103E90001010200000000000002458000000000066
:103EA0000000000000000000000000000000000012
:103EB0000000000000000000000000000000000002
:103EC00000000C000C000C000C000C000C000C009E
:103ED0000C0000000C0000000000000000000000CA
:103EE000000000001DC01DC0088008800880000080
:103EF00000000000000000000000000000000000C2
:103F000000000D800D800D800D803FC01B003FC064
:103F10001B001B001B001B00000000000000000035
:103F200004001F803180318038001E000F000380A4
:103F3000318031803F0004000400000000000000D8
:103F4000000018002400240018C007801E003180E3
:103F5000024002400180000000000000000000005C
:103F6000000000000F001800180018000C001D8051
:103F7000370033001D80000000000000000000003A
:103F8000000000000700070002000200020000001D
:103F90000000000000000000000000000000000021
:103FA00000000300030006000E000C000C000C00D3
:103FB0000C000E00060003000300000000000000DB
:103FC0000000180018000C0006000600060006009D
:103FD000060006000C001C00180000000000000095
:103FE0000000060006003FC03FC00F001F80198080
:103FF00000000000000000000000000000000000C1
:104000000000000000000400040004003F800400E1
:104010000400040000000000000000000000000098
:104020000000000000000000000000000000000090
:104030000000060004000C0008000800000000005A
:104040000000000000000000000000003F800000B1
:104050000000000000000000000000000000000060
:104060000000000000000000000000000000000050
:1040700000000C000C000000000000000000000028
:1040800000C000C0018001800300030006000C0096
:104090000C00180018003000300000000000000084
:1040A00000000E001B003180318031803180318072
:1040B00031801B000E000000000000000000000026
:1040C000000006003E00060006000600060006008E
:1040D000060006003FC000000000000000000000D5
:1040E00000000F00198031803180030006000C00B1
:1040F000180030003F8000000000000000000000B9
:1041000000003F006180018003001F0003800180E8
:10411000018061803F0000000000000000000000FE
:104120000000070007000F000B001B001300330006
:104130003F8003000F80000000000000000000002E
:1041400000001F801800180018001F001180018057
:10415000018021801F00000000000000000000001E
:10416000000007801C0018003000370039803180C3
:10417000318019800F0000000000000000000000E6
:1041800000007F0043000300060006000600060052
:104190000C000C000C0000000000000000000000FB
:1041A00000001F003180318031801F00318031805C
:1041B000318031801F00000000000000000000007E
:1041C00000001E0033003180318033801D8001806B
:1041D000030007003C000000000000000000000099
:1041E00000000000000000000C000C0000000000B7
:1041F00000000C000C0000000000000000000000A7
:1042000000000000000000000300030000000000A8
:104210000000060004000800080000000000000084
:104220000000000000C00300040018006000180037
:104230000400030000C000000000000000000000B7
:10424000000000000000000000007FC000007FC0F0
:10425000000000000000000000000000000000005E
:1042600000000000600018000400030000C003000C
:1042700004001800600000000000000000000000C2
:10428000000000001F0031803180018007000C0019
:104290000C0000000C000000000000000000000006
:1042A00000000E0011002100210027002900290034
:1042B0002700200011000E00000000000000000098
:1042C000000000003F000F000900198019801F80C6
:1042D00030C030C079E000000000000000000000A5
:1042E000000000007F003180318031803F0031804C
:1042F000318031807F0000000000000000000000DD
:10430000000000001F4030C060406000600060009E
:10431000604030801F00000000000000000000002E
:10432000000000007F00318030C030C030C030C09D
:1043300030C031807F00000000000000000000005D
:10434000000000007F803080308032003E0032006C
:10435000308030807F8000000000000000000000FE
:10436000000000007FC03040304032003E0032008C
:10437000300030007C000000000000000000000061
:10438000000000001E80318060806000600067C017
:10439000618031801F00000000000000000000006C
:1043A000000000007BC03180318031803F8031804F
:1043B000318031807BC00000000000000000000060
:1043C000000000003FC006000600060006000600D0
:1043D000060006003FC000000000000000000000D2
:1043E000000000001FC0030003000300030063007F
:1043F000630063003E0000000000000000000000B9
:10440000000000007BC03180330036003C003E00DD
:104410003300318079C0000000000000000000007F
:10442000000000007E001800180018001800184056
:10443000184018407FC0000000000000000000008D
:1044400000000000E0E060C071C07BC06AC06EC0C8
:1044500064C060C0FBE0000000000000000000003D
:104460000000000073C0318039803D803580378086
:1044700033803180798000000000000000000000DF
:10448000000000001F00318060C060C060C060C0DC
:1044900060C031801F00000000000000000000002C
:1044A000000000007F0031803180318031803F008A
:1044B000300030007E00000000000000000000001E
:1044C000000000001F00318060C060C060C060C09C
:1044D00060C031801F000CC01F8000000000000081
:1044E000000000007F003180318031803E003300C9
:1044F000318031807CE000000000000000000000FE
:10450000000000001F803180318038001F000380D0
:10451000318031803F0000000000000000000000FA
:10452000000000007F804C804C804C800C000C0010
:104530000C000C003F000000000000000000000024
:10454000000000007BC031803180318031803180BB
:10455000318031801F0000000000000000000000DA
:10456000000000007BC0318031801B001B001B005D
:104570000A000E000E000000000000000000000015
:1045800000000000FBE060C064C06EC06EC02A8006
:104590003B803B80318000000000000000000000F4
:1045A000000000007BC031801B000E000E000E00DA
:1045B0001B0031807BC000000000000000000000F4
:1045C0000000000079E030C019800F0006000600EE
:1045D000060006001F800000000000000000000030
:1045E000000000003F8021802300060004000C0032
:1045F000188030803F8000000000000000000000B4
:1046000000000780060006000600060006000600FF
:1046100006000600060006000780000000000000FB
:1046200030003000180018000C000C0006000300D9
:1046300003000180018000C000C0000000000000F5
:1046400000001E0006000600060006000600060028
:1046500006000600060006001E0000000000000024
:1046600004000A000A0011002080208000000000E1
:10467000000000000000000000000000000000003A
:10468000000000000000000000000000000000002A
:104690000000000000000000000000000000FFE03B
:1046A00008000400020000000000000000000000FC
:1046B00000000000000000000000000000000000FA
:1046C00000000000000000001F00018001801F802A
:1046D000318033801DC00000000000000000000099
:1046E00000007000300030003700398030C030C02A
:1046F00030C039807700000000000000000000009A
:1047000000000000000000001E803180608060001A
:10471000608031801F0000000000000000000000E9
:1047200000000380018001801D80338061806180F2
:10473000618033801DC00000000000000000000008
:1047400000000000000000001F00318060C07FC03A
:10475000600030C01F80000000000000000000006A
:10476000000007E00C000C003F800C000C000C0067
:104770000C000C003F800000000000000000000062
:1047800000000000000000001DC0338061806180D7
:10479000618033801D80018001801F0000000000C7
:1047A00000007000300030003700398031803180E7
:1047B000318031807BC0000000000000000000005C
:1047C00000000600060000001E00060006000600AD
:1047D000060006003FC000000000000000000000CE
:1047E00000000600060000003F0003000300030075
:1047F000030003000300030003003E00000000006C
:104800000000700030003000378036003C003C0073
:104810003600330077C000000000000000000000F8
:1048200000001E0006000600060006000600060046
:10483000060006003FC0000000000000000000006D
:1048400000000000000000007F8036C036C036C087
:1048500036C036C076E00000000000000000000016
:1048600000000000000000007700398031803180B6
:10487000318031807BC0000000000000000000009B
:1048800000000000000000001F00318060C060C018
:1048900060C031801F000000000000000000000028
:1048A00000000000000000007700398030C030C0F8
:1048B00030C039803700300030007C00000000003C
:1048C00000000000000000001DC033806180618096
:1048D000618033801D800180018007C000000000DE
:1048E00000000000000000007B801CC018001800C1
:1048F000180018007F000000000000000000000009
:1049000000000000000000001F8031803C001F00FC
:10491000038031803F000000000000000000000024
:1049200000001800180018007F0018001800180078
:10493000180018800F0000000000000000000000B8
:104940000000000000000000738031803180318061
:10495000318033801DC00000000000000000000016
:1049600000000000000000007BC0318031801B008F
:104970001B000E000E000000000000000000000000
:104980000000000000000000F1E060C064C06EC0E4
:104990003B803B80318000000000000000000000F0
:1049A00000000000000000007BC01B000E000E0095
:1049B0000E001B007BC00000000000000000000093
:1049C000000000000000000079E030C0198019806C
:1049D0000B000F00060006000C003E000000000067
:1049E00000000000000000003F80218003000E0056
:1049F000180030803F800000000000000000000030
:104A0000000006000C000C000C000C000C0018004C
:104A10000C000C000C000C00060000000000000060
:104A2000000006000600060006000600060006005C
:104A30000600060006000600060000000000000058
:104A400000000C0006000600060006000600030039
:104A500006000600060006000C0000000000000032
:104A60000000000000000000000018002480030087
:104A70000000000000000000000000000000000036
:104A80000000000000000000000000000000000026
:104A90000000000000000000000000000000000016
:104AA00000000000000000000000070007000700F1
:104AB00007000700070007000200020000000000D6
:104AC00007000700000000000000000000000000D8
:104AD000000000001CE01CE01CE00840084008400A
:104AE00000000000000000000000000000000000C6
:104AF00000000000000000000CC00CC00CC00CC086
:104B00000CC03FF03FF00CC00CC03FF03FF00CC0B9
:104B10000CC00CC00CC00CC0000000000000000065
:104B20000300030007E00FE0186018001F000FC02B
:104B300000E0186018601FC01F800300030003001E
:104B4000000000000000000000001C002200220005
:104B500022001C6001E00F803C0031C002200220D6
:104B6000022001C000000000000000000000000062
:104B700000000000000003E00FE00C000C00060045
:104B80000F301FF019E018C01FF007B00000000040
:104B9000000000000000000000000000038003800F
:104BA000038001000100010000000000000000007F
:104BB00000000000000000000000000000000000F5
:104BC000000000C000C001800180018003000300DC
:104BD000030003000300030001800180018000C086
:104BE00000C000000000000000000C000C000600E7
:104BF0000600060003000300030003000300030097
:104C00000600060006000C000C000000000000007A
:104C100000000300030003001B601FE00780078003
:104C20000FC00CC0000000000000000000000000E9
:104C30000000000000000000000000000000030071
:104C40000300030003003FF03FF0030003000300F4
:104C50000300000000000000000000000000000051
:104C60000000000000000000000000000000000044
:104C7000000000000000038003000300060006009F
:104C80000400000000000000000000000000000020
:104C90000000000000003FE03FE0000000000000D6
:104CA0000000000000000000000000000000000004
:104CB00000000000000000000000000000000000F4
:104CC000000000000000038003800380000000005B
:104CD00000000000000000000060006000C000C094
:104CE00000C00180018003000300060006000C00E4
:104CF0000C000C001800180000000000000000006C
:104D000000000F801FC018C030603060306030601D
:104D100030603060306018C01FC00F80000000009D
:104D20000000000000000000000003001F001F0042
:104D3000030003000300030003000300030003005B
:104D40001FE01FE000000000000000000000000065
:104D500000000F801FC038E03060006000C001809C
:104D6000030006000C0018003FE03FE000000000D8
:104D7000000000000000000000000F803FC030E095
:104D8000006000E007C007C000E00060006060E075
:104D90007FC03F8000000000000000000000000015
:104DA000000001C003C003C006C00CC00CC018C086
:104DB00030C03FE03FE000C003E003E0000000003F
:104DC000000000000000000000001FC01FC018000D
:104DD00018001F801FC018E000600060006030E015
:104DE0003FC01F8000000000000000000000000025
:104DF000000003E00FE01E001800380037803FC0BD
:104E000038E03060306018E01FC00780000000000C
:104E1000000000000000000000003FE03FE03060C4
:104E2000006000C000C000C001800180018003005C
:104E3000030003000000000000000000000000006C
:104E400000000F801FC038E0306038E01FC01FC076
:104E500038E03060306038E01FC00F800000000094
:104E6000000000000000000000000F001FC038C05C
:104E70003060306038E01FE00F6000E000C003C029
:104E80003F803E0000000000000000000000000025
:104E90000000000000000000000003800380038089
:104EA0000000000000000380038003800000000079
:104EB00000000000000000000000000000000000F2
:104EC000000001C001C001C000000000000003801C
:104ED00003000600060004000000000000000000BF
:104EE000000000000000003000F003C007001C00BC
:104EF00078001C00070003C000F000300000000034
:104F000000000000000000000000000000000000A1
:104F100000007FF07FF0000000007FF07FF00000D5
:104F20000000000000000000000000000000000081
:104F300000000000000030003C000F00038000E093
:104F4000007800E003800F003C003000000000000B
:104F50000000000000000000000000000F801FC0E3
:104F600018601860006001C00380030000000000AA
:104F70000700070000000000000000000000000023
:104F8000000003800C8008401040104011C0124007
:104F90001240124011C010000800084007800000B5
:104FA0000000000000000000000000001F801F80C3
:104FB000038006C006C00CC00C601FE01FE030304C
:104FC0007878787800000000000000000000000001
:104FD000000000003F803FC01860186018E01FC04C
:104FE0001FE01870183018303FF03FE0000000005C
:104FF00000000000000000000000000007B00FF0FB
:105000001C703830300030003000300038301C70F8
:105010000FE007C0000000000000000000000000DA
:10502000000000007F807FC030E0307030303030D2
:1050300030303030307030E07FC07F8000000000C2
:105040000000000000000000000000003FF03FF002
:105050001830183019801F801F80198018301830C0
:105060003FF03FF0000000000000000000000000E2
:10507000000000003FF03FF01830183019801F800A
:105080001F801980180018003F003F00000000003A
:1050900000000000000000000000000007B01FF04A
:1050A000187030303000300031F831F830301830BE
:1050B0001FF007C00000000000000000000000001A
:1050C000000000003CF03CF01860186018601FE021
:1050D0001FE01860186018603CF03CF00000000011
:1050E0000000000000000000000000001FE01FE0C2
:1050F0000300030003000300030003000300030098
:105100001FE01FE0000000000000000000000000A1
:105110000000000003F803F8006000600060006019
:1051200030603060306030E03FC00F800000000031
:105130000000000000000000000000003EF83EF803
:1051400018E019801B001F001D8018C018C01860CF
:105150003E783E3800000000000000000000000023
:10516000000000003F003F000C000C000C000C0091
:105170000C000C300C300C303FF03FF00000000011
:10518000000000000000000000000000787878783F
:1051900038703CF034B037B037B033303330303063
:1051A0007CF87CF800000000000000000000000017
:1051B0000000000039F03DF01C601E601E601B60A6
:1051C0001B6019E019E018E03EE03E6000000000BE
:1051D00000000000000000000000000007800FC079
:1051E0001CE03870303030303030303038701CE0F7
:1051F0000FC0078000000000000000000000000059
:10520000000000003FC03FE01870183018301870E0
:105210001FE01FC0180018003F003F000000000002
:1052200000000000000000000000000007800FC028
:105230001CE03870303030303030303038701CE0A6
:105240000FC0078007B00FF00CE000000000000066
:10525000000000003FC03FE01870183018701FE0D9
:105260001FC018E0186018703E383E18000000009B
:105270000000000000000000000000000FB01FF060
:105280003870303038001F8007E0007030303870E0
:105290003FE037C0000000000000000000000000F8
:1052A000000000003FF03FF0333033303330030074
:1052B00003000300030003000FC00FC00000000044
:1052C0000000000000000000000000003CF03CF086
:1052D00018601860186018601860186018601CE08A
:1052E0000FC0078000000000000000000000000068
:1052F0000000000078F078F03060306018C018C00E
:105300000D800D800D8007000700070000000000E1
:105310000000000000000000000000007C7C7C7C9D
:10532000301833983398339836D816D01C701C70C8
:105330001C70183000000000000000000000000099
:105340000000000078F078F0306018C00D80070091
:1053500007000D8018C0306078F078F00000000081
:105360000000000000000000000000003CF03CF0E5
:1053700018600CC0078007800300030003000300CF
:105380000FC00FC00000000000000000000000007F
:10539000000000001FE01FE0186018C0018003003B
:1053A000030006000C6018601FE01FE00000000012
:1053B0000000000000000000000003C003C0030064
:1053C00003000300030003000300030003000300C5
:1053D00003000300030003C003C00000000000003E
:1053E000180018000C000C000C000600060003005A
:1053F00003000180018000C000C000C000600060A8
:10540000000000000000000000000F000F0003007B
:105410000300030003000300030003000300030074
:105420000300030003000F000F0000000000000055
:105430000000020007000D8018C03060202000002E
:10544000000000000000000000000000000000005C
:10545000000000000000000000000000000000004C
:10546000000000000000000000000000000000003C
:10547000000000000000000000000000FFFCFFFC36
:105480000000040003000080000000000000000095
:10549000000000000000000000000000000000000C
:1054A00000000000000000000000000000000000FC
:1054B00000000FC01FE000600FE01FE0386030E028
:1054C0003FF01F700000000000000000000000001E
:1054D0000000700070003000300037803FE038601E
:1054E00030303030303038607FE0778000000000AE
:1054F00000000000000000000000000000000000AC
:10550000000007B01FF01830303030003000383065
:105510001FF00FC0000000000000000000000000AD
:105520000000007000700030003007B01FF01870ED
:1055300030303030303038701FF807B800000000CD
:10554000000000000000000000000000000000005B
:10555000000007801FE018603FF03FF03000183077
:105560001FF007C000000000000000000000000065
:10557000000003F007F0060006001FE01FE0060031
:1055800006000600060006001FE01FE00000000005
:10559000000000000000000000000000000000000B
:1055A000000007B81FF818703030303030301870F5
:1055B0001FF007B0003000700FE00FC000000000C7
:1055C000000038003800180018001BC01FE01C60E5
:1055D00018601860186018603CF03CF00000000093
:1055E00000000000000000000000030003000000B5
:1055F00000001F001F00030003000300030003005E
:105600001FE01FE00000000000000000000000009C
:10561000000003000300000000001FC01FC000C006
:1056200000C000C000C000C000C000C000C001C079
:105630003F803F00000000000000380038001800E4
:1056400018001BE01BE01B001E001E001B00198041
:1056500039F039F0000000000000000000000000F8
:1056600000001F001F0003000300030003000300ED
:1056700003000300030003001FE01FE00000000020
:10568000000000000000000000000000000000001A
:1056900000007EE07FF0333033303330333033304E
:1056A0007BB87BB800000000000000000000000094
:1056B000000000000000000000003BC03FE01C6054
:1056C00018601860186018603CF03CF000000000A2
:1056D00000000000000000000000000000000000CA
:1056E000000007801FE01860303030303030186024
:1056F0001FE0078000000000000000000000000024
:105700000000000000000000000077807FE03860AB
:1057100030303030303038603FE03780300030009B
:105720007C007C0000000000000000000000000081
:10573000000007B81FF81870303030303030187063
:105740001FF007B00030003000F800F80000000043
:10575000000000000000000000003CE03DF00F30C1
:105760000E000C000C000C003FC03FC00000000009
:105770000000000000000000000000000000000029
:10578000000007E01FE018601E000FC001E0186075
:105790001FE01F800000000000000000000000006B
:1057A000000000000C000C000C003FE03FE00C008B
:1057B0000C000C000C000C300FF007C000000000C3
:1057C00000000000000000000000000000000000D9
:1057D000000038E038E0186018601860186018E0C1
:1057E0001FF00F700000000000000000000000002B
:1057F0000000000000000000000078F078F0306049
:1058000018C018C00D800D800700070000000000C0
:105810000000000000000000000000000000000088
:10582000000078F078F03260326037E01DC01DC0B3
:1058300018C018C0000000000000000000000000B8
:10584000000000000000000000003CF03CF00CC034
:105850000780030007800CC03CF03CF00000000013
:105860000000000000000000000000000000000038
:10587000000078F078F0306018C018C00D800F80FC
:105880000700060006000C007F007F0000000000FB
:10589000000000000000000000001FE01FE018C032
:1058A0000180030006000C601FE01FE00000000004
:1058B0000000000000000000000001C003C0030061
:1058C000030003000300030007000E0007000300AD
:1058D00003000300030003C001C00000000000003B
:1058E00000000300030003000300030003000300A3
:1058F0000300030003000300030003000300030090
:10590000030000000000000000001C001E00060054
:1059100006000600060006000700038007000600D8
:105920000600060006001E001C000000000000002B
:105930000000000000000000000000000E003F30EA
:1059400033F001E000000000000000000000000053
:105950000000000000000000C4E3000000000000A0
:105960000000000000000000000000000000000037
:1059700000000000000001C1C00001E3E00003E3FB
:10598000C00003C7800003C7FFFF078FFFFF078F1B
:10599000000F0F1E001E0F3C1E1E1F3C1E3E1F1838
:1059A0001E3C3F001E1C7F001E007F079E70FF07ED
:1059B0009EF0EF0F9E786F0F1E780F0F1E3C0F1E8C
:1059C0001E3C0F1E1E1E0F3C1E1E0F3C1E1F0F7C7A
:1059D0001E0F0F781E0E0F001E000F001E000F007E
:1059E0003C000F07FC000F07F8000000000000005B
:1059F0000000000000000000000000000000BAC32A
:105A00000000000000000000000000000000000096
:105A100000000000000000000F0000000F00000068
:105A20000F07FFFE0F07FFFE0F00003E1E0000FCE9
:105A3000FFF801F0FFF803E01E7807C01E780F8022
:105A40003C780F003C780F003C780F003C780F004A
:105A50003C7FFFFF78FFFFFF78F00F0078F00F002A
:105A60003DE00F001FE00F000FE00F0007C00F0028
:105A700007E00F0007F00F000FF80F001E7C0F006B
:105A80003C380F0078000F00F003FF006001FE00BB
:105A90000000000000000000000000000000000006
:105AA00000000000CEA20000000000000000000086
:105AB00000000000000000000000000000000307DC
:105AC00001E0078701E0070701C00FF779C01EF763
:105AD0007BC01EF77B803CF77BFF78F77BFFF8F7F6
