:020000040800F2
:1000000068DE0020F9010008B92000080D1F000873
:10001000B52000080D0B0008812200080000000038
:10002000000000000000000000000000A521000802
:10003000110B000800000000BD200008A9210008E5
:10004000130200081302000813020008130200083C
:10005000130200081302000813020008130200082C
:10006000130200081302000813020008130200081C
:10007000130200081302000813020008130200080C
:1000800013020008130200081302000813020008FC
:1000900013020008130200081302000813020008EC
:1000A00013020008130200081302000813020008DC
:1000B00013020008130200081302000813020008CC
:1000C00013020008130200081302000813020008BC
:1000D000130200087522000813020008130200082A
:1000E000130200081302000813020008130200089C
:1000F000130200081302000813020008130200088C
:10010000130200081302000813020008130200087B
:10011000130200081302000813020008130200086B
:10012000130200081302000813020008130200085B
:1001300000F002F800F051F80AA090E8000C8244A8
:100140008344AAF10107DA4501D100F046F8AFF285
:10015000090EBAE80F0013F0010F18BFFB1A43F0A5
:100160000103184704C0010024C00100103A24BF55
:1001700078C878C1FAD8520724BF30C830C144BF0C
:1001800004680C607047000000230024002500264E
:10019000103A28BF78C1FBD8520728BF30C148BFEA
:1001A0000B607047692900F0C580752900F0C28096
:1001B000782900F0FB80732900F0A38200207047AB
:1001C0001FB59DE8030000F0ABFB00F0F5F91FBD83
:1001D00010B5002000F03CFB10BD00F05FFB1146A5
:1001E000FFF7EEFF0DF0DCF800F0F7FB03B4FFF7CC
:1001F000EFFF03BC0CF0C8FD0948804709480047E1
:10020000FEE7FEE7FEE7FEE7FEE7FEE7FEE7FEE7C6
:10021000FEE7FEE704480549054A064B7047000023
:10022000AD2100083101000868AE002068DE002022
:1002300068BE002068BE00200FB4044910B503AAB0
:10024000029800F063FA10BC5DF814FB7CAD00204E
:100250000FB41CB5074B06AA7B446946009005986D
:1002600000F025FA0020694600F034FA1CBC5DF865
:1002700014FB0000790400002DE9F0410E4604460D
:10028000002020622046E168884730B3252805D049
:10029000D4E901219047206A401CF2E7E16820463A
:1002A00000278847050018D0A5F14100192802D879
:1002B00020354FF400673246294620462760FFF775
:1002C00071FF40B1012804D0F61D26F0070608365C
:1002D000D8E7361DD6E72846DAE7206ABDE8F08180
:1002E00070B50C460546012A05D02878800600D551
:1002F000EA69002302E0012305E05B1C934202D27D
:10030000E05C0028F9D1A869E618C01AA861286A3B
:10031000184428622846AFF3008004E0D5E90121A3
:1003200014F8010B9047B442F8D32846AFF300808D
:1003300070BD00002DE9F0410646002410687529C3
:10034000314616A510D0AFF30080002802DA4042F3
:1003500013A507E031688A0701D512A502E0490715
:1003600004D511A5012401E0AFF3008000210A2289
:1003700006F1240709E0B0FBF2FCB0FBF2F302FB4C
:100380001C00303078541846491C0028F3D123460D
:100390002A463046BDE8F04100F02BB900000000CD
:1003A0002D0000002B0000002000000070B5044666
:1003B0000D4621461068AFF300802188090502D55B
:1003C0000F4A7A4402E00E4A7A440E32002104F1C8
:1003D000240305E000F00F060009965D5E54491CF9
:1003E0000028F7D120780023000704D5702D02D013
:1003F00009B1022311322046BDE8704000F0F9B87F
:10040000C8DF000001490CF0B1BF00007CAD002046
:1004100010B5044603E00CF0A9FF401C09D014F805
:10042000010B05490028F6D1BDE810400A200CF068
:100430009DBF4FF0FF3010BD7CAD00200B46014644
:10044000184600F075B910B5431C02E010F8011B06
:1004500071B18107FAD14FF0013202C88C1A8C4376
:1004600014EAC211F9D0C01A0A0603D0C01E10BD8A
:10047000C01A10BD0A0401D0801E10BD0902FCD0B4
:10048000401E10BD032A40F2308010F0030C00F033
:10049000158011F8013BBCF1020F624498BF11F8BE
:1004A00001CB00F8013B38BF11F8013BA2F1040277
:1004B00098BF00F801CB38BF00F8013B11F00303EF
:1004C00000F04D81083AC0F0088051F8043B083A2A
:1004D00051F804CBA0E80810F5E7121D5CBF51F8F5
:1004E000043B40F8043BAFF30080D20724BF11F86F
:1004F000013B11F801CB48BF11F8012B24BF00F8D4
:10050000013B00F801CB48BF00F8012B704702F017
:10051000FF0343EA032242EA024200F002B84FF02E
:1005200000020429C0F0128010F0030C00F01B80C0
:10053000CCF1040CBCF1020F18BF00F8012BA8BFCE
:1005400020F8022BA1EB0C0100F00DB85FEAC17C92
:1005500024BF00F8012B00F8012B48BF00F8012B45
:1005600070474FF0000200B5134694469646203976
:1005700022BFA0E80C50A0E80C50B1F12001BFF45C
:10058000F7AF090728BFA0E80C5048BF0CC05DF8C2
:1005900004EB890028BF40F8042B08BF704748BF10
:1005A00020F8022B11F0804F18BF00F8012B704784
:1005B000704770477047000070B5064C7C44064D8C
:1005C0007D4404E02046016808448047241DAC4275
:1005D000F8D170BDC8BB0100C8BB010010B500F068
:1005E000F5F8006810BD10B5044600F0EFF804609F
:1005F00010BD2DE9F0470D4699469246044600F19C
:1006000024080168880604D5E06921F01001216002
:1006100000E00120A84201DD471B00E00027A1699E
:100620007A1902EB0900081AA0612078C00602D4EA
:100630002046AFF30080002608E0D4E901211AF833
:1006400006009047206A401C761C20624E45F4DB71
:100650002078C0060AD52046AFF3008006E0D4E932
:10066000012130209047206A401C2062381EA7F1EB
:100670000107F4DC07E0D4E9012118F805009047F0
:10068000206A401C2062281EA5F10105F3DC2046EB
:10069000AFF300802078000602D50220BDE8F08785
:1006A0000120FBE701694A1C02610878704700B528
:1006B0008FB0CDE901310021059105497944CDE99B
:1006C000031011466846FFF7D7FD0FB000BD0000CC
:1006D000E5FFFFFF0A6802F8010B0A60704710B5DA
:1006E000436913B1AFF3008001E0FFF7F9FD01208A
:1006F00010BD127800F124010A7000224A70012214
:10070000EDE711684FF0FF32E9E70000074B70B5E5
:100710000D467B44FFF7CBFF0446284600F089F8DE
:1007200010B14FF0FF3070BD204670BD57CC0000B7
:100730002DE9F041074615460E46102000F04AF814
:1007400004000AD06760C4E9026500F03BF8016864
:10075000216004600020BDE8F0810120FBE710B5B6
:10076000203AC0F00B80B1E81850A0E81850B1E86A
:100770001850A0E81850203ABFF4F5AF5FEA027CA9
:1007800024BFB1E81850A0E8185044BF18C918C0D9
:10079000BDE810405FEA827C24BF51F8043B40F87A
:1007A000043B08BF7047D20728BF31F8023B48BF5F
:1007B00011F8012B28BF20F8023B48BF00F8012B9D
:1007C000704700000048704748000020004870470C
:1007D0001000002070B5064600F086F8056806F1A6
:1007E0000B0020F00704B4429CBF002070BD2B46D4
:1007F0006A68BAB11068A04210D304F108018842B7
:100800003CBF5068586007D35168101941601168A7
:10081000091B016058601460101D70BD13465268BA
:10082000002AE7D12146284600F066F80028DED1EC
:1008300070BD007B00F08000704710B5002000F014
:10084000D5F8FFF7C5FCBDE8104001200CF09CBABC
:100850002DE9F0410646FFF7B5FF8046454613E017
:1008600016B1E068B0420ED120682860D4E90101D9
:10087000D8F800708847204600F088F8D8F80000C3
:10088000B842EBD100E025462C68002CE8D1BDE849
:10089000F081000000487047100000207546FFF707
:1008A000F9FFAE4605006946534620F0070085462D
:1008B00018B020B5FFF7AEFCBDE820404FF00006B1
:1008C0004FF000074FF000084FF0000BAC46ACE8CB
:1008D000C009ACE8C009ACE8C009ACE8C00921F027
:1008E00007018D467047000000487047180000203F
:1008F000704770477047704738B504460A46002075
:100900006946AFF30080002808BF38BD0246009951
:10091000204600F072F8012038BD012000F0A4B894
:10092000F8B5AFF30080054600200C46102000BF4C
:100930000646A819A0420DD9324669460020AFF3F9
:100940000080070008BF00F08FF80098A04218BF91
:100950000546C419FFF7C8FF05600746F01D20F0E3
:1009600007004619284600F00AF8B44208BFF8BD4F
:10097000A21B31463868BDE8F84000F03EB80021BF
:100980000160C0E9011070471020704770B504463F
:10099000051FFFF7A9FF0068002C14BF446870BD55
:1009A000002C18BFAC423CBF20466468F8D30168F5
:1009B0000A18AA4218BF456003D12A6805461144A7
:1009C000016028684119A1421CBF6C6070BD61685C
:1009D000696021680844286070BD10B50446AFF313
:1009E00000802046BDE81040FFF700BC10B500F0C5
:1009F00023F8BDE8104000F01AB8034640688C4662
:100A0000002818BF88423CBF03464068F8D31868E6
:100A10001844884207D00CF1030020F00700001DA5
:100A2000411A521A0146081D0A60FFF7AFBF00289D
:100A300001D00CF0A9B9704710B5002102A000F058
:100A40001BF8012010BD0000534947414252543A5F
:100A50002041626E6F726D616C207465726D696E9B
:100A60006174696F6E00000010B500F01FF8BDE8FA
:100A70001040FFF7DCBF704770B505460C460A20F2
:100A800000E06D1C00F03AF835B128780028F8D164
:100A900002E0641C00F032F814B120780028F8D18C
:100AA000BDE870400A2000F029B8000010B5012808
:100AB00005D0002103A0FFF7DFFF012010BD09A131
:100AC000F8E7000053494752544D454D3A204F75C1
:100AD00074206F662068656170206D656D6F727936
:100AE000000000003A2048656170206D656D6F72EE
:100AF0007920636F727275707465640008B5694619
:100B00008DF800000320ABBE08BD0000FEE700002A
:100B10007047000070470000014690F8210002284D
:100B200016D10868D1E90FC3026822F00E020260F4
:100B3000026822F001020260012000FA03F2CCF800
:100B4000042081F821000020002281F82020704735
:100B5000042088630120002281F8202070470000D3
:100B600080B590F82110022928D1026840F2040CC7
:100B70001368C4F2020C23F00E03136013680CF127
:100B80007C018A4223F0010111601BD940F2084127
:100B9000C4F202018A4249D040F21C41C4F202016F
:100BA0008A4247D040F23041C4F202018A4245D124
:100BB0004FF48073CCF800345DE000BF0421816302
:100BC000012080BD4321C4F202018A420EDD6B2167
:100BD000C4F202018A421BDC4421C4F202018A42AF
:100BE0003CD05821C4F202018A4233E00821C4F209
:100BF00002018A4236D01C21C4F202018A4237D057
:100C00003021C4F202018A4224D14FF4807230E0D4
:100C10006C21C4F202018A4226D08021C4F2020172
:100C20008A4217D14FF0807223E000BF0123CCF835
:100C3000003420E01023CCF800341CE00CF588616F
:100C40004FF480338A4208BF4FF48053CCF800340D
:100C500011E000BF4FF480320BE000BF4FF4805230
:100C600007E000BF012204E04FF4801201E000BF62
:100C70001022CCF80020416B4FF48072028401B145
:100C80008847002080BD0000B0B5044600F014F98C
:100C9000054640F20000C2F200000078611C18BF57
:100CA000044400BF00F008F9401BA042FAD3B0BDD5
:100CB0002DE9F04F82B0D1F800C0BCF1000F00F078
:100CC000F180A0F1804241F60045A2F58432C4F2E1
:100CD000010540F2004E4FEAB2240627A842C4F2B2
:100CE000010E08BF0527052C4FF000044FF0010846
:100CF0004FF00F034FF0000A4FF0000B38BF4FEAE0
:100D0000B22700970AE000BFD1F800C00AF1010A3B
:100D10003CFA0AF204F1040400F0C48008FA0AF96B
:100D20001CEA090FF0D04E684FF6FF72C1F21002B4
:100D3000964211DC122E55D8DFE806F0340A4448FA
:100D4000545454545454545454545454544C5000C3
:100D5000D1F80CB046E000BF4FF6FF72C1F221029D
:100D600096420FDC0022C1F2110296421AD00022F4
:100D7000C1F21202964215D00022C1F2210296421F
:100D800010D02FE00022C1F2220296420AD00022A7
:100D9000C1F23102964205D00022C1F232029642DF
:100DA00020D100BF8A684AB1012A14BFC0F814904C
:100DB000C0F810904FF0080B14E000BF4FF0040B88
:100DC00010E000BFCA6802F1080B0BE04FF0000B07
:100DD00008E000BFCA6802F1040B03E0CA6802F130
:100DE0000C0B00BF22460646BAF1080F24BF203A7A
:100DF0000436376803FA02F5AF430BFA02F23A43BE
:100E00003260CA79D2067FF57FAF41F21807C4F28B
:100E100002073A684FF6084342F001023A603A6826
:100E2000CFF6FF7302F001020192019A2AF0030249
:100E300072440F25D75804F00C06B540AF43009D0F
:100E400005FA06F63743D7504E680F23F203DEF853
:100E5000002054BF22EA090242EA0902CEF800202B
:100E6000DEF80420B70354BF22EA090242EA09026D
:100E7000CEF80420F702DEF8082054BF22EA090267
:100E800042EA0902B70240F20C47CEF80820C4F249
:100E900001073A6854BF22EA090242EA09023A60AD
:100EA00032E700BF02B0BDE8F08F0000002A08BFA3
:100EB00009040161704700004AF66060C2F2000058
:100EC0000068704740F200004AF66061C2F200001C
:100ED000C2F2000100780A68104408607047000000
:100EE00080B542F20000C4F20200016841F0100136
:100EF0000160032000F08AF8002000F005F800F0FF
:100F000027F8002080BD000070B540F20006C2F254
:100F1000000640F208013278C2F200014FF47A7301
:100F20000968B3FBF2F20446B1FBF2F1084600F0A7
:100F3000D9FC0F2C4FF0010508D838B94FF0FF301D
:100F400021460022002500F035F87460284670BD67
:100F500082B041F21800C4F202000168022241F09E
:100F600001010160016801F00101019101994168ED
:100F700041F080514160406800F08050009000983E
:100F80000420C4F20100016862F31A61016002B03A
:100F900070470000002848BF704700F01F01012281
:100FA00002FA01F14EF200124009CEF2000242F8BC
:100FB0002010704710B54EF60C5CCEF2000CDCF839
:100FC0000030C3F3022E8EF00704042C28BF042443
:100FD000BEF103034FF0FF3E0EFA04F438BF0023C6
:100FE000A14399400EFA03F39A4300F00F03043B28
:100FF0001143634409010C3300F16042B0F1FF3F3B
:10100000C8BF02F56443197010BD00004EF60C51C4
:10101000CEF200010A684FF6FF031A4060F30A227D
:1010200042F0806040F0FD70086070472DE9F043A9
:1010300081B0002800F0858042F20008C4F2020866
:101040000446D8F800000D4600F0070088420CD294
:10105000D8F8000020F007002843C8F80000D8F8AE
:10106000000000F00700A8426BD1206841F204099B
:101070008107C4F2020917D5410705D5D9F8001038
:1010800041F4E061C9F80010010705D5D9F8001056
:1010900041F46051C9F80010D9F80010A26821F09D
:1010A000F0011143C9F80010C00741D1D8F8000081
:1010B00000F00700A8420CD9D8F8000020F0070083
:1010C0002843C8F80000D8F8000000F00700A84244
:1010D00037D12068410707D5D9F80010E26821F41C
:1010E000E0611143C9F80010000708D5D9F80000E5
:1010F000216920F4605040EAC100C9F80000D9F825
:10110000002002F00C00082841F20020C0F27A0012
:1011100050D14BF2D473C2F38341C0F60103595C42
:10112000D2033BD440F60010C0F23D00484341E0FA
:10113000606802280AD001282AD159F8041C8903C2
:1011400008D4012001B0BDE8F08300BF59F8041CA9
:101150008901F6D5D9F8001021F003010843C9F838
:101160000000FFF7A9FE064641F28837D9F80000D3
:10117000616800F00C00B0EB810F97D0FFF79CFE88
:10118000801BB842F2D9032001B0BDE8F08300BF54
:1011900059F8041C8907D4D5DCE700BFD9F8002032
:1011A0004EF2D833C2F34042C0F600039A5C484383
:1011B000B0FBF2F0D9F800104EF2DA32C1F30311AD
:1011C000C0F60002515C40F2080220FA01F140F240
:1011D0000400C2F200000068C2F200021160FFF7D2
:1011E00093FE002001B0BDE8F083000040F208004B
:1011F00041F20401C2F20000C4F202010068096871
:101200004EF2EA32C1F30221C0F60002515CC8403E
:101210007047000040F2080041F20401C2F20000F1
:10122000C4F20201006809684EF2EA32C1F3C22139
:10123000C0F60002515CC840704700002DE9F04143
:1012400082B0002868D00446007841F20006C0074A
:10125000C4F2020625D0706800F00C0004281BD0F0
:10126000706800F00C00082802D17068C00313D425
:101270006068002800F06881B0F5A02F00F07C8144
:10128000B0F5803F00F07C81306820F48030306021
:10129000306820F4802076E13068800301D56068F2
:1012A000D0B32078800718D5706810F00C0F07D0E5
:1012B000706800F00C0008286ED17068C0036BD411
:1012C0003068800702D52069012825D1306861691E
:1012D00020F0F80040EAC1003060207800071FD4F9
:1012E0002078400732D4E56995B1706800F00C00B1
:1012F000082840F08F80012D0ED07068216A00F41C
:1013000080328A4208D1616A00F47010884203D1A9
:10131000002002B0BDE8F081012002B0BDE8F081FC
:10132000A069002862D00020C4F242200121C0F848
:101330008014FFF7C1FD0546706A800700F18C80BC
:10134000FFF7BAFD401B0228F6D92AE1F06910F038
:10135000805808D1F06940F08050F061F06900F0E9
:1013600080500090009847F20007C4F200073868E8
:10137000C00529D4386840F480703860FFF79CFDC0
:10138000054600BF3868C0051ED4FFF795FD401B19
:101390006428F7D905E100BF2069002840F2000069
:1013A000C4F2422000F0828001210160FFF784FD39
:1013B000054600BF306880073FF588AFFFF77CFD2A
:1013C000401B0228F6D9ECE0E068002800F080809D
:1013D000052800F09780012800F09880306A20F0FE
:1013E00001003062306A20F0040092E00020C4F274
:1013F00042200021C0F88014FFF75EFD054600BFC3
:10140000706A80077FF56CAFFFF756FD401B02281E
:10141000F6D9C6E00027C4F2422700203866FFF75D
:101420004BFD022D05460BD13068800140F1BE8096
:10143000FFF742FD401B02284FF00300F4D968E794
:10144000306880017FF564AFFFF736FD401B02284E
:101450004FF00300F4D95CE740F20800C2F200004C
:10146000006844F6D351C1F26201A0FB0101480AB1
:10147000019000BF00BF0198411E002801913FF478
:101480002FAF00BF0198411E002801913FF428AF03
:1014900000BF0198411E002801913FF421AF00BF19
:1014A0000198411E00280191E4D119E70021016053
:1014B000FFF702FD054600BF306880077FF50DAFDE
:1014C000FFF7FAFC401B02284FF00300F4D920E795
:1014D000306A20F001003062306A20F0040030628F
:1014E000FFF7EAFC054641F2883700BF306A800703
:1014F00020D5FFF7E1FC401BB8424FF00300F5D9BF
:1015000007E700BF306A40F004003062306A40F004
:1015100001003062FFF7D0FC054641F2883700BF7A
:10152000306A800706D4FFF7C7FC401BB842F7D9E2
:1015300037E000BFB8F1000F7FF4D5AEF06920F0BE
:101540008050F061CFE600BF306820F4803030601A
:10155000306820F480203060FFF7AEFC054600BF05
:10156000306880037FF59DAEFFF7A6FC401B642822
:101570004FF00300F4D9CCE6306840F480203060AE
:10158000306840F480303060FFF796FC054600BFBD
:10159000306880033FF585AEFFF78EFC401B642862
:1015A000F6D9032002B0BDE8F08100BF206AB0F593
:1015B000803F05D17168A26821F400311143716048
:1015C0007168626A21F4741110430843706001204D
:1015D0003866FFF771FC0446306880013FF598AE2D
:1015E000FFF76AFC001B02284FF00300F4D990E6D5
:1015F00070B538B10446406A30B10020206104F172
:10160000140007E0012070BD6068B0F5827F03D050
:1016100004F11C00002101600026A66294F851002C
:101620004FF0000C38B9204684F8506000F03AF8CA
:10163000A06A00F4005C022184F8511094E80E00C6
:10164000E0680D6802F4827225F040050D6003F435
:1016500004431A44236900F40060104403F00202BA
:101660006369104403F00102A369E569104403F4BF
:101670000072104405F03802256A104405F080021B
:10168000104340EA0C000860042000EA1340486060
:10169000C86920F40060C8610120666584F85100C3
:1016A000304670BD80B586B0014640F60000C4F2F9
:1016B0000100096800F5205300229942049201D0EC
:1016C00006B080BD41F21801C4F202010A6842F47A
:1016D00080520A600A6802F480520192019A0A68F4
:1016E00042F004020A60096801F0040101910199C5
:1016F000A0210291022103910321059102A9FFF784
:10170000D7FA06B080BD00002DE9F04381B0044651
:1017100090F85000012803D1022001B0BDE8F08309
:101720004FF001091D4616460F4684F85090FFF70A
:10173000C3FB94F85110012972D18046002F4FF05D
:10174000010018BF002E00F0C2800320002184F8A1
:10175000510061652763A686E686A163A187E187BC
:10176000A0682164B0F5004F2068616407D101686A
:1017700021F040010160016841F48041016001688D
:10178000490603D4016841F0400101606168731E9D
:10179000E268B1FA81F1B3FA83F349095B09B2F562
:1017A000006F41EA03013DD131B137F8021BC1603E
:1017B0002763E18E0139E186E18E00296CD0691C36
:1017C0001BD000BF8168890706D4FFF775FBA0EB2B
:1017D0000800A84208D383E0216B31F8022BC260D5
:1017E0002163E08E0138E086E08E002854D0206826
:1017F00081688907E9D5EFE720688168890703D404
:10180000FFF75AFB08E000BF216B31F8022BC260E2
:101810002163E08E0138E086E08E0028ECD13BE0C9
:10182000022054E039B139780173206B0130206314
:10183000E08E0138E086E08E70B3681C0BD11BE0AF
:10184000216B09780173206B01302063E08E013831
:10185000E086E08E00B3206881688907F0D4FFF746
:101860002BFBA0EB0800A842F3D303202FE000BF1E
:10187000FFF722FBE08E78B1206881688907F7D5F1
:10188000216B09780173206B01302063E08E0138F1
:10189000E086E08E0028EFD1204680212A4643468C
:1018A00000F00EFC28B1606D40F020006065202043
:1018B0006065A06838B9002000902068C168009178
:1018C000806800900098606D002818BF01200021FA
:1018D00084F8519084F8501001B0BDE8F08300BF47
:1018E0000320F4E7411E0020B0EB116F1CBF012064
:1018F00070474EF21002CEF2000251604EF62351B4
:10190000CEF20001F0230B70072190601160704748
:101910007047000070470000B0B582B0026805460D
:101920001068D168546900F02F03202B01F02003C8
:1019300006D12BB1284602B0BDE8B04000F03EBC55
:101940005FEA007C1EBF04F0010E01F4907414EBFA
:101950000E042DD12B6B0840C10617D5012B15D1D4
:101960000020019010680190506801900198506922
:10197000400625D4A88DE98DEB8D002B1CBF401AA5
:101980005FEA004140F0CA8002B0B0BD010645D414
:101990004006F9D5D068202120F04000D0602846CC
:1019A00085F83D1002B0BDE8B04000F0ADBA00BF10
:1019B000C40718BF11F4807442D1440746D44CE0E8
:1019C000A86B01684B689CB2002CDDD0A98D8C42BD
:1019D000DAD2EB858369202B17D0D16821F480718E
:1019E000D160516921F001015161516921F040013B
:1019F0005161202185F83E1000212963D16821F032
:101A00001001D160FFF788F8A98DE88D081A81B21E
:101A1000284602B0BDE8B040FFF77ABF95F83D0018
:101A20002128B1D1A868B0F5805F03D128690028CA
:101A300000F08C80286A411C2962007850608CE09C
:101A40002C6C44F001042C64440706D5BEF1000F51
:101A500003D02C6C44F002042C64840706D5BEF13C
:101A6000000F03D02C6C44F004042C64BCF1000F74
:101A700006D553EA0E0303D02B6C43F008032B6406
:101A80002B6C002B3FF480AF0840800603D528461E
:101A900000F094FB2A685069296C00F0400001F0C6
:101AA0000801401832D0D06820F49070D06050699E
:101AB00020F001005061286B012803D1D06820F08C
:101AC0001000D060202085F83E0000202863506977
:101AD000400615D5506920F040005061A86B78B1E0
:101AE00042F2B111C0F600014163FFF739F8002856
:101AF0003FF44AAFA86B416B02B0BDE8B040084765
:101B0000284602B0BDE8B040FFF704BF2846FFF703
:101B100001FF0020286402B0B0BD00BFD16821F4ED
:101B20009071D160516921F001015161202185F846
:101B30003E1000212963D16821F0100381B22846AC
:101B4000D36002B0BDE8B040FFF7E2BE286A30F8CB
:101B5000021B6FF35F2151602862E88C0138010499
:101B6000E8847FF411AFD06820F08000D060D068A6
:101B700040F04000D06002B0B0BD0000002804BFBB
:101B80000120704710B5044690F83D0028B90020A8
:101B900084F83C00204600F05FF8242084F83D00E3
:101BA0002068D4E90212C36823F40053C3600369B8
:101BB00023F440531A430261D4E904231143C26859
:101BC000194341F20C639A431143C1604169A26910
:101BD00021F44071114343F60002C4F20102904225
:101BE000416103D0FFF702FB02E000BFFFF712FBE9
:101BF0006268192148439100B0FBF1F048F21F518F
:101C0000C5F2EB11A0FB01235A096FF0630302FB3D
:101C10000300322303EB0010A0FB0101F02303EAD1
:101C20005113206803EB0212C1F343111144816088
:101C3000016921F490410161416921F02A0141616A
:101C4000C16841F40051C16000202021206484F863
:101C50003D1084F83E1010BD70B586B0006844F2A7
:101C60000041C4F20001002688420596CDE90366D2
:101C700002963FD043F60001C4F20101884266D1CA
:101C800041F21800C4F20200016840F6000441F479
:101C9000804101600168C4F2010401F480410191B6
:101CA0000199016802AD41F0040101600068294614
:101CB00000F00400019001984FF40070029002209F
:101CC0000390032005902046FEF7F2FF4FF480605A
:101CD00002900020CDE9030020462946FEF7E8FFE8
:101CE000252000210022FFF765F92520FFF752F992
:101CF00006B070BD41F21800C4F20200416840F61F
:101D0000000441F4003141604168C4F2010401F46F
:101D1000003101910199016802AD41F004010160B7
:101D20000068294600F00400019001980420029008
:101D300002200390032005902046FEF7B9FF0820FB
:101D4000CDE90206204629460496FEF7B1FF06B00B
:101D500070BD0000704700002DE9F04381B00446DB
:101D600090F83D0020280DD10F4600294FF00100CA
:101D700000F092801646002A00F08E8094F83C0015
:101D8000012803D1022001B0BDE8F083012084F8CE
:101D90003C004FF0000921201D46C4F8409084F813
:101DA0003D00FFF789F8A684E684A1688046B1F576
:101DB000805F25D1206900281CBF38464F463E462B
:101DC000074684F83C90E08C00B3681C20D0002DBE
:101DD00066D120680BE000BF36F8021B00276FF3C6
:101DE0005F214160E18C0139E184E18C81B30168BC
:101DF000090675D5002FEFD017F8011BF1E700BFDA
:101E0000002684F83C90E08C0028DED120681FE09A
:101E1000206802E00168090609D4016809065FBF6D
:101E200001685FEA016101685FEA0161F2D51FB1F3
:101E300017F8011B05E000BF36F8021B00276FF3FF
:101E40005F214160E18C0139E184E18C0029E4D11A
:101E5000016849061CD4002D42D0691C0ED10168CE
:101E6000490615D4016849065CBF01685FEA416113
:101E70000ED401684906F2D50AE000BFFFF71CF84E
:101E8000A0EB08012068A9422AD800684006F5D5D1
:101E9000202084F83D00002001B0BDE8F08300BFA1
:101EA000206800BF0168090608D4FFF705F8A0EB19
:101EB00008012068A942F5D912E000BF17B117F850
:101EC000011B04E036F8021B00276FF35F2141601D
:101ED000E18C0139E184E18C0029E3D1B8E700BF4E
:101EE000C16821F4D071C160416921F001014161F3
:101EF000202084F83D0084F83E00002084F83C0057
:101F0000032001B0BDE8F08370470000FEE7000049
:101F10002DE9F04F85B041F21800C4F202000168CB
:101F200040F6000641F0200101600168C4F201069C
:101F300001F02001019101990168002241F00401A2
:101F400001600168102701F0040101910199016805
:101F50004FF0000841F010010160016801F010012C
:101F600001910199016841F00801016000681021A8
:101F700000F00800019001983046FEF797FF06F543
:101F800000652846302100224FF03009FEF78EFF11
:101F900006F5806420464FF480410022FEF786FF5C
:101FA000019701AF4FF0010B4FF0020A304639465E
:101FB000CDE902B8CDF810A0FEF77AFE28463946E2
:101FC000CDE9019BCDE9038AFEF772FE4FF4804014
:101FD000CDE9010B20463946CDE9038AFEF768FEBC
:101FE00005B0BDE8F08F0000B0B54AF6805043F26E
:101FF0000001C2F20000C4F201014FF4827200231A
:1020000080E80E0000F10C014FF0020C4FF0010EC1
:102010004FF40074082581E808500A21C0E90645FC
:10202000C0E90833C0E90A31FFF7E2FA002808BF27
:10203000B0BDBDE8B040FEF76DBD000080B54AF60A
:10204000D85043F60001C2F20000C4F2010100239F
:102050004FF00C0C4FF4E13280E80E00C0E903337E
:10206000C0E905C3C361FFF789FD002808BF80BD33
:10207000BDE88040FEF74EBD80B54AF61C6044F2D4
:102080000041C2F20000C4F2000100234FF00C0C2A
:102090004FF4E13280E80E00C0E90333C0E905C324
:1020A000C361FFF76BFD002808BF80BDBDE880401D
:1020B000FEF730BDFEE700007047000070470000EB
:1020C0002DE9F04182B01E4690460D460446FEF7CB
:1020D000F3FE301A00EB0807FEF7EEFE40F20801AF
:1020E000C2F200010968C1F3CB3179430191216843
:1020F0008A682A40AA4227D1064618F101001FD05B
:10210000FEF7DAFE801BB84222D20198019900281E
:10211000A1F1010101912168896808BF074601EA20
:102120000500A842ECD00FE088682840A8420BD1F7
:1021300088682840A84207D188682840A84203D16F
:1021400088682840A842EFD0002002B0BDE8F081A6
:10215000D4E900014268B1F5827F22F0E0024260DA
:102160000AD1A168B1F5004F02D0B1F5806F03D15B
:10217000016821F040010160A16AB1F5005F07D15B
:10218000016821F400510160016841F400510160CF
:10219000012084F85100002084F85000032002B090
:1021A000BDE8F08170470000FEF78CBE704700006C
:1021B000406A0021C185C184FFF7ACBB81B090F8B3
:1021C0003E10222920D18368B3F5805F08D10169D0
:1021D000002941D000F128010A6803685B680AE021
:1021E000014651F8282F13B90369002BF5D0036875
:1021F0005B6803F07F0313700A6801320A60C18DC7
:1022000001390A04C18501D001B070470168CA686C
:1022100022F02002CA60CA6822F48072CA604A6949
:1022200022F001024A61202280F83E20026B012A3E
:102230001CD100220263CB6823F01003CB600B6833
:10224000DB0605D500920A68009249680091009962
:10225000818D01B0FFF75CBB0168826A49686FF34A
:102260005F2122F8021B8262C9E700BF01B0FFF7BD
:1022700071BD00004AF6D850C2F20000FFF74CBB17
:10228000FEE7000010B540F29804C2F200042046B8
:1022900003F05AFB45F6F11040F20002C0F60000D0
:1022A000C0F600022146FEF7C9F840F27004C2F2FF
:1022B000000404F10C0005F0A1FC04F1180005F085
:1022C0009DFC4AF60040C2F200004FF07E51002211
:1022D000C0E90012C0E90222C0E90421C0E90622D7
:1022E000C0E90822C0E90A12C0E90C22C0E90E21A7
:1022F000C0E92012C0E92222C0E92421C0E9262237
:10230000C0E92822C0E92A12C0E92C12C0E92E2215
:10231000C0E93021C0E93222C0E93422C0E93612D6
:10232000C0E95821BDE8104004F080BA2DE9F04F13
:1023300093B08C880E884D880F34C98824094FEAE1
:1023400016180F31A4EB161690F84E4025F00F0723
:10235000C5F31B1C090990F84FA0D0E90550A1EB6B
:102360001719B1B2A4EB061E04FB03F6079106FB96
:102370000AF6294605EB8601360A4FEA141B00EBE4
:10238000460000EB48000BFB0CF600EB46061FFA7C
:1023900089F000FB0BF006EB400004904FEA0810B8
:1023A000039020010E90CEF30B1002900AFB03F075
:1023B000012A4FEA800006950591089440F0B0800C
:1023C000A5000190109500BF079A019906EB420203
:1023D000B8B20C92059A01EB8001604302EB8000D9
:1023E0000B900698099704FB01000A90039800BF20
:1023F00082B20B980E9900EB820000EB81001190E5
:102400000A984FF0000900EB820A0F960D9200BF68
:10241000DAE90067DAE90245384631460BF047FB56
:10242000002818BF3746384621460BF0B3F9294635
:102430000BF0B0F90AF11007B0CFDAF81C60129077
:10244000284621460BF033FB002818BF25462846B6
:1024500039460BF09FF931460BF09CF90AF1200B3D
:102460009BE870080746284621460BF020FB002811
:1024700018BF2546284631460BF08CF959460BF01B
:1024800089F90AF1300B9BE87008804628462146FE
:102490000BF00DFB002818BF25462846109D31463D
:1024A0000BF078F959460BF075F9129E0446384640
:1024B00031460BF0FCFA002818BF37463846414633
:1024C0000BF068F921460BF065F9494604460BF01C
:1024D000EEFA002808BFA1461198AA44824597D376
:1024E0004FF600714846C4F27F710BF0DDFC0BF033
:1024F0002BFC0F9E26F8020B0C9886420D9800F1DB
:102500001000FFF475AF0298099F06EB400604988F
:10251000089C864207F11007FFF456AF8DE000BF1C
:102520004FEA84080B9000BF079A0B9906EB420212
:10253000B8B21092059A01EB8001604302EB800073
:102540000D900698099704FB01000C90039800BFBA
:1025500082B20D980E9900EB820000EB8100129080
:102560000C984FF0000A00EB820B0F96119200BFFF
:102570009BE8C3000BF022F931460BF01FF93946F6
:102580000BF01CF9DBE90421DBE9067481461046F7
:102590000BF014F939460BF011F921460BF00EF946
:1025A000DBE90821DBE90A46074610460BF006F98D
:1025B00021460BF003F931460BF000F9DBE90C2161
:1025C000DBE90E46054610460BF0F8F821460BF005
:1025D000F5F831460BF0F2F80446484639460BF060
:1025E000EDF829460BF0EAF821460BF0E7F8014632
:1025F00050460BF0E3F81299C3448B458246B7D39B
:102600004FF600715046C4F27F710BF04DFC0BF099
:102610009BFB0F9E26F8020B10988642119800F142
:10262000100095D30298099F06EB40060498089C79
:10263000864207F11007FFF477AF13B0BDE8F08FC3
:102640002DE9F04F89B08C880E884D880F34C988E9
:10265000240990F84E800F31A4EB161425F00F07D3
:10266000C5F31B1E0D09A1B2A8EB041990F84F4049
:10267000049108FB03F3D0E90510A5EB171B03FB3E
:1026800004F503FB04112B0A4FEA161A4FEA181639
:1026900000EB430000EB4A0006FB0EF300EB430C9B
:1026A0001FFA8BF070430CEB400002904FEA0A10C7
:1026B00001904FEA08100890012AC9F30B1003910A
:1026C00000906BD1049803990CEB40000790B8B2CE
:1026D00000FB081005970690019800BF1FFA80FACA
:1026E00006984FF0000900EB0A05089805EB000E6C
:1026F00028786F78AC7895F803B0874238BF0746E2
:10270000A74298BF27465F4598BF5F462C796879F6
:10271000AB79E979A04238BF2046984298BF184665
:10272000884298BF0846297A6C7AAB7AEE7A8C4256
:1027300038BF0C469C4298BF1C46B44298BF3446F2
:10274000297B6B7BAE7BEA7B8B4238BF0B46B34267
:1027500098BF3346934298BF1346B84238BF3846B5
:10276000A04298BF2046984298BF18464845454425
:1027700028BF81467545BBD34FEA09202CF8020BD0
:10278000079884450AF11000A8D30098059F0CEB28
:10279000400C02981037844594D365E0049803995F
:1027A0000CEB40000790B8B200FB0810019A0597A7
:1027B00094B20899051905EB010E002229786E786C
:1027C000AB78EF78B14238BF0E469E4228BF1E4616
:1027D000BE4228BF3E46297995F80590AB79EF793E
:1027E000494538BF8946994528BF9946B94528BF0C
:1027F000B946297A95F809A0AB7AEF7A514538BFE6
:102800008A469A4528BF9A46BA4528BFBA46297BC8
:102810006B7BAF7B95F80FB0994238BF0B46BB423C
:1028200028BF3B465B4528BF5B464E4538BFB14697
:10283000D14528BFD146994528BF99464A454544C8
:1028400028BF4A467545B9D311022CF8021B0799D7
:1028500004F110028C45ABD30098059F0CEB400CA3
:1028600002981037844599D309B0BDE8F08F000075
:102870002DE9F04F8CB08C880E884D880F34C988B4
:1028800024094FEA161C0F31A4EB161690F84E409F
:1028900025F00F07090990F84FA0C5F31B19A1EB0C
:1028A000171EB5B2A4EB061804FB03F6D0E9051019
:1028B00006FB0AF606950D46059101EB4601360A20
:1028C0004FEA141B00EB460000EB4C000BFB09F534
:1028D00000EB45091FFA8EF000FB0BF009EB4000FE
:1028E00003904FEA0C10029020010B90C8F30B10DC
:1028F00001900AFB03F0012A4FEA4000049107947B
:1029000078D14FEA44080090069A009909EB4202F8
:10291000B8B20A92049A01EB4001604302EB400016
:1029200009900598089704FB010B02981FFA80FE96
:1029300009980B9900EB4E0000EB410A0BEB4E019E
:10294000002000BF044608884E888F88B1F806C072
:10295000864238BF0646BE4298BF3E46664598BF8F
:1029600066460F8948898D89CB89B84238BF384679
:10297000A84298BF2846984298BF18460B8A4F8AAB
:102980008D8ACA8A9F4238BF1F46AF4298BF2F46E2
:10299000974298BF17460A8B4B8B8D8BB1F81EC0A0
:1029A000934238BF1346AB4298BF2B46634598BF4E
:1029B0006346B04238BF3046B84298BF3846984266
:1029C00098BF1846A042414438BF20465145B9D36C
:1029D00029F8020B0A9881450EF11000A6D3019840
:1029E000089F09EB40090398079C814507F11007F0
:1029F0008AD375E063000090069A009909EB4202C1
:102A0000B8B20A92049A01EB4001604302EB400025
:102A100009900598089704FB010E029887B209985F
:102A20000B9900EB470000EB41080EEB4701002239
:102A300010460A88B1F802A08D88CC88524538BF6C
:102A40009246AA4528BFAA46A24528BFA2460C899D
:102A50004A898D89CE89944238BF2246AA4228BF2E
:102A60002A46B24228BF32460C8AB1F812B08D8A8B
:102A7000CE8A5C4538BFA346AB4528BFAB46B345BD
:102A800028BFB3460C8B4D8B8E8BB1F81EC0AC4269
:102A900038BF2546B54228BF3546654528BF65463F
:102AA000924538BF52465A4528BF5A46AA4228BFC7
:102AB0002A469042194438BF02464145B8D30A9885
:102AC00029F8022B814507F11000A7D30198089F30
:102AD00009EB40090398079C814507F110078BD348
:102AE0000CB0BDE8F08F000070B50546007F85F89A
:102AF0006410032862D80C4695F84E1095F84F20C4
:102B000051432A8D01FB02F6DFE800F00212061E97
:102B10000020C5E9050021E068690EB100283FD01A
:102B200071000022002C08BFFF22FDF7F0FC15E029
:102B3000686906B1A0B300223146002C08BFFF220D
:102B4000FDF7E5FC0AE000BF68699CB10021B1EB2C
:102B5000860F00D020B3B100FDF7E1FCA869002882
:102B600008BF70BD310A0022002C08BFFF22FDF70C
:102B7000CEFC70BD00EB86014FF07E5240F8042B76
:102B80008842EBD240F8042B8842E7D240F8042B6D
:102B90008842E3D240F8042B8842EFD3DEE700BF3F
:102BA0004BF62F60C0F60100FDF746FB4BF6C35015
:102BB000C0F60100FDF72CFCFEDE00BF07A0FDF70C
:102BC0003BFB4BF6DD60C0F60100FDF735FB4BF635
:102BD000A850C0F60100FDF71BFCFEDE2E2E2F2EA6
:102BE0002E2F4C69622F65676C5F7261737465721A
:102BF000697A65722E6370702831363929203A203F
:102C0000000000002DE9F047A2B04668002E6FD00A
:102C10008046B0F85C400089844277D2D8F86000E2
:102C2000D8F8102000F15803934200F28580D8F8BC
:102C30000C20002A00F0968002EB000A8A450DD095
:102C40008A4503D20AF15800884207D98A4540F2E2
:102C5000978001F158008245C0F09280504658227A
:102C6000FDF710FC4BF26871C0F6010106EBC400E1
:102C7000083146F83410C0F804A0D8F860000021EC
:102C80005830C8F86000DAF80400C4884FF07E506D
:102C90000290CDE90311CDE90511CDE90701CDE998
:102CA0000911CDE90B100D9102A9504606F050FE16
:102CB0008CB108F12C0600270DF10809B8F85C303A
:102CC000BDB2504631464A46009506F04FFC0137EA
:102CD000B8B2A042F2D3B8F85E00B8F85C10204455
:102CE000A8F85E00481CA8F85C0022B0BDE8F08798
:102CF0004BF6F730C0F60100FDF79EFA4BF6402088
:102D0000C0F60100FDF784FBFEDE00BF4BF61A4063
:102D1000C0F60100FDF790FA4BF6A640C0F60100A0
:102D2000FDF78AFAB8F808104BF63100C0F601003A
:102D3000FDF782FAFEDE00BF4BF63D40C0F6010013
:102D4000FDF77AFA4BF6A640C0F60100FDF774FADB
:102D5000D8F810104BF6B600C0F60100FDF76CFA7B
:102D6000FEDE00BF4BF6E920C0F60100FDF764FA75
:102D70004BF6DC00C0F60100FDF74AFBFEDE00BFAB
:102D80004BF64E30C0F60100FDF756FA4BF60B102D
:102D9000C0F60100FDF73CFBFEDE00002DE9F04728
:102DA000A2B04668002E6FD08046B0F85C40008923
:102DB000844277D2D8F86000D8F8102000F1580388
:102DC000934200F28580D8F80C20002A00F096800B
:102DD00002EB000A8A450DD08A4503D20AF1580059
:102DE000884207D98A4540F2978001F15800824510
:102DF000C0F0928050465822FDF744FB4BF27C71A4
:102E0000C0F6010106EBC400083146F83410C0F8E2
:102E100004A0D8F8600000215830C8F86000DAF843
:102E20000400C4884FF07E500290CDE90311CDE933
:102E30000511CDE90701CDE90911CDE90B100D917F
:102E400002A9504607F050FF8CB108F12C0600276C
:102E50000DF10809B8F85C30BDB2504631464A461B
:102E6000009507F04FFD0137B8B2A042F2D3B8F891
:102E70005E00B8F85C102044A8F85E00481CA8F872
:102E80005C0022B0BDE8F0874BF6F730C0F60100D9
:102E9000FDF7D2F94BF64020C0F60100FDF7B8FA75
:102EA000FEDE00BF4BF61A40C0F60100FDF7C4F984
:102EB0004BF6A640C0F60100FDF7BEF9B8F80810C1
:102EC0004BF63100C0F60100FDF7B6F9FEDE00BF9B
:102ED0004BF63D40C0F60100FDF7AEF94BF6A640BB
:102EE000C0F60100FDF7A8F9D8F810104BF6B600AF
:102EF000C0F60100FDF7A0F9FEDE00BF4BF6E920A9
:102F0000C0F60100FDF798F94BF6DC00C0F60100B1
:102F1000FDF77EFAFEDE00BF4BF64E30C0F6010034
:102F2000FDF78AF94BF60B10C0F60100FDF770FAB9
:102F3000FEDE00002DE9F047A2B04668002E6FD0FB
:102F40008046B0F85C400089844277D2D8F86000AF
:102F5000D8F8102000F15803934200F28580D8F889
:102F60000C20002A00F0968002EB000A8A450DD062
:102F70008A4503D20AF15800884207D98A4540F2AF
:102F8000978001F158008245C0F092805046582247
:102F9000FDF778FA4BF29071C0F6010106EBC40020
:102FA000083146F83410C0F804A0D8F860000021B9
:102FB0005830C8F86000DAF80400C4884FF07E503A
:102FC0000290CDE90311CDE90511CDE90701CDE965
:102FD0000911CDE90B100D9102A9504608F018FF18
:102FE0008CB108F12C0600270DF10809B8F85C3007
:102FF000BDB2504631464A46009508F017FD0137EC
:10300000B8B2A042F2D3B8F85E00B8F85C10204421
:10301000A8F85E00481CA8F85C0022B0BDE8F08764
:103020004BF6F730C0F60100FDF706F94BF64020ED
:10303000C0F60100FDF7ECF9FEDE00BF4BF61A40CA
:10304000C0F60100FDF7F8F84BF6A640C0F6010007
:10305000FDF7F2F8B8F808104BF63100C0F60100A1
:10306000FDF7EAF8FEDE00BF4BF63D40C0F601007A
:10307000FDF7E2F84BF6A640C0F60100FDF7DCF8DC
:10308000D8F810104BF6B600C0F60100FDF7D4F8E2
:10309000FEDE00BF4BF6E920C0F60100FDF7CCF8DC
:1030A0004BF6DC00C0F60100FDF7B2F9FEDE00BF12
:1030B0004BF64E30C0F60100FDF7BEF84BF60B1094
:1030C000C0F60100FDF7A4F9FEDE00002DE9F04F87
:1030D00003AFA3B0864647F8681C96799EF8521055
:1030E000D5799EF8538047F8946C06FA01FCBEF837
:1030F0004A6090F84E0005FA08F9A6EB0C081FFA92
:1031000088F68642BEF84C609EF84F40A6EB090157
:103110008EB247F8985C28BF8046A64228BF214659
:10312000BEF82A504443968847F88C2C1088002219
:1031300047E9062247F8202C07F81C2CEA1D22F04C
:103140000702ADEB020227F8248C27F8221C47F86F
:103150004C2C9546002E47F848EC47F8643C47F85D
:10316000904C00F05182CCF30B1247F8782CC9F345
:103170000B129EF8645047F87C2C0222002D08BFE9
:10318000012247F8602C220A5A4347F8802C04FB9E
:1031900003F247F86C2C1FFA89F247F8702C1FFADB
:1031A0008CF247F8742C4FF6FF7247F8402C00223F
:1031B00047F8442C00220C4600254FF0000947F840
:1031C000502C47F85C1C47F8588C07E057F8880CDF
:1031D00057F8846C0088310400F00682BEF858105D
:1031E000814240F2C587DEF84010BEF84420BEF8A8
:1031F000463002FB0011581C83B2B2B29A4238BF6B
:103200003046C0B201F1020A361A0AEB400047E923
:10321000221647F8540C3AE0002047F8440C47E9DE
:103220000F5447E90D9857F8500CDEF8001002686B
:10323000BBF80240BAF8003096688AB057F85C2CA8
:1032400057F8745C92B2089357F8583C039257F8B9
:103250006C2C009557F8705C9BB2049257F84C2C7C
:10326000CDE9015357E91A350592A7F124020794D5
:103270000695B04757F848EC0AB057E90F5457E99C
:103280000D9857F8540C0AF1020A82459ED2BAF8FA
:103290000000BEF85610814240F24C87DEF838102C
:1032A00000EB400231F8220057F8403C01EB820B62
:1032B000834209D157F8440CC007ADD047E90F54F9
:1032C00047E90D9888E000BFDEF80410BEF82A2018
:1032D00051F8303001EBC0061B6857F84C1C3046E3
:1032E000984757F848EC47F8506CDEF8180000286B
:1032F0004CD037F8241C1FFA88F0884238BF41466A
:1033000047F8301C37F8221CA0B2884237F8200C4E
:1033100038BF214647F8381C814588BF484647F8E2
:10332000340C306837F81E2C41683046954288BF0F
:103330002A4647F83C2C884757F8402C4FF6FF7137
:10334000511A18BF0121B0FA80F30028024618BFB5
:10335000012203284FEA531320D057F8606CF6B2CD
:10336000B0421BD0D3B9002647F8246C57F8586CEC
:1033700057F85CCC0125344607F81C5C27F8206C14
:1033800027F81ECC47F8600C10E000BF47E90F5447
:1033900057F8445C47E90D9817E000BF17F81C5C2C
:1033A00037F8204C37F81ECC57F8586CB5FA85F032
:1033B000400957F848EC184301EA020505D12004FA
:1033C00018BF5FEA0C4040F0CD80BBF8000047F822
:1033D000400CE80700F0A2809BF8040057F8783C06
:1033E0009BF80510C51A57F87C3C9BF80620CC1AB0
:1033F0009EF84E309BF807C025EAE5702A449EF8F7
:103400004F5024EAE471C0EB1316121A9642B8BF6B
:103410003246C1EB151604EB0C056D1AAE42B8BF6F
:103420003546002A18BF5FEA054603D1012047F858
:10343000440C22E71E09DEF8183057F8804C80B2A1
:1034400089B203EB440303EB4000714300EB4103FB
:10345000A8B270431FFA82FC03EB4001B01A57F880
:10346000602C0026D2B2012A82B206D02FE000BF23
:10347000023303EB42038B4254D203EB4C0400BFF4
:10348000184630F8025BB54228BF2E46A042EFD264
:103490005888B04228BF0646181DA0420FD29D880A
:1034A000981DB54238BF3546A04207D2DE880833A2
:1034B000AE4238BF2E46A342E2D3DAE72E46034699
:1034C000D7E700BF023303EB42038B423CD203EB4E
:1034D0004C0400BF184630F8025BAE4228BF2E46AF
:1034E000A042EFD258881D1D864228BF0646A5423D
:1034F0000ED29D88981DAE4238BF3546A04209D2F3
:10350000DE880833B54238BF2E46A342E2D3DAE75D
:103510002B46D8E72E460346D5E700BF002047F8E4
:10352000440C80E6BBF8080057E90F5457E90D98A2
:10353000012186424FF0010047F8441C47F8600C17
:10354000BFF471AE9DE600BFBBF80A0057E90F5407
:1035500057E90D980121864247F8441C7FF663AE77
:103560008FE600BF9EF81C0003281BD002280DD058
:10357000012840F0E98557F8600C57F8643CC2B266
:103580007046A7F12401FFF75BF815E057F8600CCF
:1035900057F8643CC2B27046A7F12401FFF768F9FE
:1035A0000AE000BF57F8600C57F8643CC2B270469E
:1035B000A7F12401FEF7BAFE57F85C0C27F8246C3B
:1035C00027F8220C002047F8200CBBF8000057F821
:1035D00048EC47F8400C002D4FF0000047F8440C31
:1035E0003FF421AEF8E600BF37F8240C37F8221C70
:1035F00037F8202C37F81ECC57F8183C57F814AC85
:1036000047F8303C0DE000BF002047F8300C4FF089
:10361000000C00224FF00009002540460C464FF0F8
:10362000000A1FFA88F386B29E42A3B28EB238BF58
:1036300080469E421FFA88F638BF0C4646EA044090
:103640004A4547F8240C88BF9146AC4588BF65467B
:1036500049EA054047F8200CDEF8700057F8302C96
:10366000DEF87810904238BF1046CEF87000514511
:1036700038BF514657F88C3CCEF87810187A597AF2
:103680001FFA84FB864238BF40468B4538BF21462F
:1036900080B240EA0140997A47F8280CD87A8945E7
:1036A00088BF4946854288BF284683F8088057F876
:1036B000648C41EA0042002947F82C2C5C7283F8A4
:1036C0000A90DD7218BF002804D1A7F10C04A546AA
:1036D000BDE8F08FDEF8000001684E6882B0A7F107
:1036E0002C01009157E92621A7F12803CDF8048089
:1036F0007446B04702B037F8241C37F8202C19B1B3
:103700000125264611E000BF94F84E0001258242B3
:1037100026460AD337F8220C38B937F81E0C96F82B
:103720004F300025984238BF0125002ACDD037F808
:103730001E3C002BC9D0307F47F8345C032800F2D0
:10374000338557F8905C05FB08F547F8305CDFE8F7
:1037500010F0CB0105005100C90000BF57F8484CDC
:103760004FF0000E94F86400002808BF4FF0FF3EB1
:1037700057F8340CD4F814C0002857F8300C6044C3
:1037800000F02A8194F84E5037F8229C084409FB37
:103790000506A3EB090000FB056AB2EB010800F087
:1037A00035815FFA8EF9002E00F0F88430464146EC
:1037B0004A46FCF7ACFE2E44564580F095813046D3
:1037C00041464A46FCF7A3FE2E44564580F08C81C4
:1037D000304641464A46FCF79AFE2E44564580F054
:1037E0008381304641464A46FCF791FE2E445645B9
:1037F000D9D379E157F8485C4FF0000C95F8640094
:10380000002808BF4FF0FF3C57F8340C6E690028C1
:1038100057F8300C06EB400000F0D280521A4FEA05
:10382000420895F84E2037F8225C00EB410005FB7A
:1038300002F100EB4106A3EB050002FB00F006EBF2
:1038400040044FEA42055FFA8CF942D0002E00F0A6
:10385000A584304641464A46FCF759FE2E44A6420E
:1038600080F04281304641464A46FCF750FE2E44E5
:10387000A64280F03981304641464A46FCF747FE71
:103880002E44A64280F03081304641464A46FCF73D
:103890003EFE2E44A642D9D326E100BF3046414623
:1038A0004A46FCF734FE2E44A64280F01D81304685
:1038B00041464A46FCF72BFE2E44A64280F0148176
:1038C000304641464A46FCF722FE2E44A64280F08E
:1038D0000B81304641464A46FCF719FE2E44A6426B
:1038E000DCD301E157F8485C57F8340C6E690028C6
:1038F00057F8300C06EB80007AD0521A00EB8101A9
:1039000037F8226C95F84E0095F8645000FB06F4E9
:1039100001EB840B991B4143002D0BEB810A00F056
:10392000A580002A4FEA82084FEA80093FD0BBF108
:10393000000F00F0258458464146FCF7F0FD0BEBE4
:103940000906564580F0D08030464146FCF7E7FD39
:103950004E44564580F0C88030464146FCF7DFFDB6
:103960004E44564580F0C08030464146FCF7D7FDB6
:1039700006EB090BD345DAD3B6E000BF304641462B
:10398000FCF7CDFD4E44564580F0AE8030464146B2
:10399000FCF7C5FD4E44564580F0A68030464146B2
:1039A000FCF7BDFD06EB090BD34580F09D80584622
:1039B0004146FCF7B4FD0BEB09065645DED393E018
:1039C00057F8901C11B1002E00F0E88349005FFA0F
:1039D0008CF2FCF79CFD87E057F8901C19B1BCF104
:1039E000000F00F0DB835FFA8EF2FCF790FD7BE0C6
:1039F00095F86410002961D057F8901C11B1002E81
:103A000000F0BE838900FCF78AFD6DE057F8648CF6
:103A100057F8904C09F1020609F103026E4309F1CF
:103A200004006A4304FB086E09F10106684304FBC5
:103A30000823AA00754304FB080004FB08556044F2
:103A400063440CEB0E0665446C1854454CD2741854
:103A5000544549D25C18544546D244181044134486
:103A6000164454451544EFD33EE000BF801A4FF092
:103A70007E5105E00BF1040B0BEB800BD34533D2E9
:103A80000BEB82035C4644F8041B9C42F2D20BF120
:103A900008069E42CBF804100CD20BF10C059D4297
:103AA000CBF8081008D2CBF80C100BF1100B9B458B
:103AB000E8D3E1E7B346DFE7AB46DDE757F8901C14
:103AC0004FF07E5200EB810140F8042B88420BD26C
:103AD00040F8042B884207D240F8042B884203D2D6
:103AE00040F8042B8842EFD357F8483C986988B1D6
:103AF00057F8301C93F86430090A00EB410057F87E
:103B0000901C0022C909002B08BFFF22FCF7FFFC14
:103B100057F8483C57F8340C93F82090002871D09F
:103B2000B9F1000F00F00A8157F8482C37F8201C33
:103B300037F824CC536AA1EB0C0157F8300C92F8FB
:103B40004EE001FB09F637F8221C1C6800EB0C0361
:103B500001FB0E3337F81E5C03FB09420EFB09FB29
:103B60006D1A05FB0B25002E00F0B28003FB09F84F
:103B7000CA1C57F864AC57F8900C4FEA8B0302FB51
:103B80000EF247F8343C8B1C013100FB0A2203FB88
:103B90000EF301FB0EF100FB0A3300FB0A11624435
:103BA00002FB09FB03EB0C02614402FB09FA01FB77
:103BB00009F900BF14EB080000F0E2823146FCF77F
:103BC000AEFC04EB0900A84280F0B8803146FCF757
:103BD000A6FC04EB0A00A84280F0B0803146FCF756
:103BE0009EFC04EB0B00A84280F0A8803146FCF755
:103BF00096FC57F8340C044404EB0800A842D9D3CF
:103C00009CE000BFB9F1000F15D0596A93F84E003F
:103C10000A6893F84F1000FB09F000FB01F112B99C
:103C2000002940F0AD8257F8300C00FB0920FCF76A
:103C300076FC57F8483C93F82100A0B15A6A93F8F3
:103C40004E10526893F84F30414303FB01F112B913
:103C5000002940F0958257F8303C03FB0020FCF728
:103C60005EFC57F8483C93F82200A0B15A6A93F8DA
:103C70004E10926893F84F30414303FB01F112B9A3
:103C8000002940F07D8257F8303C03FB0020FCF710
:103C900046FC57F8483C93F8230000283FF415AD44
:103CA0005A6A93F84E10D26893F84F30414303FBA1
:103CB00001F112B9002940F0638257F8303C03FB50
:103CC0000020FCF72CFCA7F10C04A546BDE8F08F02
:103CD0000A1D57F8643C57F8908C02FB0EF208FB63
:103CE00003224FEA8B06624402FB09FACA1C02FB5C
:103CF0000EF208FB032202EB0C0B8A1C02FB0EF2F5
:103D0000013108FB032001FB0EF108FB031E604498
:103D100000FB09F10EEB0C000BFB09F200FB09F0B4
:103D20002318AB420AD26318AB4207D2A318AB42A6
:103D300004D204EB0A03AB423444F1D357F8480CE5
:103D400090F82190B9F1000F00F09E8057F8482CB0
:103D500037F8201C37F824CC536AA1EB0C0157F834
:103D6000300C92F84EE001FB09F637F8221C5C6833
:103D700000EB0C0301FB0E3337F81E5C03FB09421A
:103D80000EFB09FB6D1A05FB0B25002E46D003FB2D
:103D900009F8CA1C57F864AC57F8900C4FEA8B032B
:103DA00002FB0EF247F8343C8B1C013100FB0A2267
:103DB00003FB0EF301FB0EF100FB0A3300FB0A11BB
:103DC000624402FB09FB03EB0C02614402FB09FAAB
:103DD00001FB09F914EB080000F0D2813146FCF731
:103DE0009EFB04EB0900A8424ED23146FCF797FB3C
:103DF00004EB0A00A84247D23146FCF790FB04EBE3
:103E00000B00A84240D23146FCF789FB57F8340C2E
:103E1000044404EB0800A842DCD335E00A1D57F83F
:103E2000643C57F8908C02FB0EF208FB03224FEA29
:103E30008B06624402FB09FACA1C02FB0EF208FB65
:103E4000032202EB0C0B8A1C02FB0EF2013108FB71
:103E5000032001FB0EF108FB031E604400FB09F187
:103E60000EEB0C000BFB09F200FB09F02318AB4230
:103E70000AD26318AB4207D2A318AB4204D204EBB8
:103E80000A03AB423444F1D357F8480C90F822901F
:103E9000B9F1000F00F09E8057F8482C37F8201C2D
:103EA00037F824CC536AA1EB0C0157F8300C92F888
:103EB0004EE001FB09F637F8221C9C6800EB0C036E
:103EC00001FB0E3337F81E5C03FB09420EFB09FBB6
:103ED0006D1A05FB0B25002E46D003FB09F8CA1C02
:103EE00057F864AC57F8900C4FEA8B0302FB0EF2C4
:103EF00047F8343C8B1C013100FB0A2203FB0EF314
:103F000001FB0EF100FB0A3300FB0A11624402FBC5
:103F100009FB03EB0C02614402FB09FA01FB09F9FE
:103F200014EB080000F02C813146FCF7F8FA04EBA2
:103F30000900A8424ED23146FCF7F1FA04EB0A0020
:103F4000A84247D23146FCF7EAFA04EB0B00A8423C
:103F500040D23146FCF7E3FA57F8340C044404EB42
:103F60000800A842DCD335E00A1D57F8643C57F836
:103F7000908C02FB0EF208FB03224FEA8B06624490
:103F800002FB09FACA1C02FB0EF208FB032202EB39
:103F90000C0B8A1C02FB0EF2013108FB032001FB13
:103FA0000EF108FB031E604400FB09F10EEB0C0050
:103FB0000BFB09F200FB09F02318AB420AD263188D
:103FC000AB4207D2A318AB4204D204EB0A03AB42C4
:103FD0003444F1D357F8480C57F864AC90F8239068
:103FE000B9F1000F3FF471AB37F8201C37F824CC3F
:103FF000024690F84EE0A1EB0C01436A57F8300CF2
:1040000001FB09F437F8221CDD6800EB0C0301FB0F
:104010000E3337F81E6C03FB09520EFB09FB761AB0
:1040200006FB0B26002C49D0CA1C57F8900C02FB4B
:104030000EF203FB09F800FB0A224FEA8B0347F854
:10404000303C8B1C013102EB0C0B03FB0EF3524690
:1040500001FB0EF100FB0A3300FB021163446144D3
:104060000BFB09FA03FB09FB01FB09F915EB08003F
:1040700000F086802146FCF752FA05EB0900B042B9
:10408000BFF423AB2146FCF74AFA05EB0B00B04224
:10409000BFF41BAB2146FCF742FA05EB0A00B04225
:1040A000BFF413AB2146FCF73AFA57F8300C05443D
:1040B00005EB0800B042D9D3FFF707BB0A1D57F83C
:1040C000908C02FB0EF208FB0A225346624402FB6C
:1040D00009FACA1C02FB0EF208FB03224FEA8B040A
:1040E00002EB0C0B8A1C02FB0EF2013108FB0320D1
:1040F00001FB0EF108FB031E604400FB09F10EEB0F
:104100000C000BFB09F200FB09F000BF2B18B342B7
:10411000BFF4DBAA6B18B342BFF4D7AAAB18B34203
:10412000BFF4D3AA05EB0A03B3422544EED3FFF74D
:10413000CCBA00BF4BF67160C0F60100FCF77CF80A
:1041400034A0FCF765F9FEDE4BF6B860C0F601005E
:10415000FCF772F84BF6DD60C0F60100FCF76CF876
:104160004BF6A850C0F60100FCF752F9FEDE00BF86
:1041700010A0FCF761F81AA0FCF74AF9FEDE00BFB8
:104180004BF69B60C0F60100FCF756F84BF6C350A7
:10419000C0F60100FCF73CF9FEDE00BF4BF62F60D5
:1041A000C0F60100F0E700BF4BF64C60C0F601001E
:1041B000CEE700BF2E2E2F2E2E2F4C69622F656763
:1041C0006C5F726173746572697A65725F74696C31
:1041D000696E672E682832353229203A20000000A7
:1041E000617373657274206661696C6564203A203E
:1041F00073747269705F6964785F3C6D5F6E756D32
:104200005F636C75737465725F7374726970730D3C
:1042100000000000617373657274206661696C65EB
:1042200064203A206964785F3C6D5F6E756D5F63F2
:104230006C7573746572730D0000000070B50446F0
:10424000007F0D4610B16069002865D004F12C0094
:104250001146261D00F0EEFCD5E900CED5E902237B
:10426000D5E90410C6E90223C6E90410C6E900CE68
:1042700005F118030FCB06F1180C8CE80F00002095
:10428000C4E91700287A80073CD194F84E0094F8CE
:104290004F10626A4843218D00FB01F5106894F8C5
:1042A000201005FB01F100B9F1B9FCF738F9606A9B
:1042B00094F821104068694300B9A9B9FCF72FF9B7
:1042C000606A94F822108068694300B961B9FCF70C
:1042D00026F9606A94F82310C068694300B919B9D7
:1042E000FCF71DF970BD00BF4BF69B60C0F60100E6
:1042F000FBF7A2FF4BF6C350C0F60100FCF788F8AD
:10430000FEDE00BF13A0FBF797FF1CA0FBF794FF96
:104310001FA0FCF77DF8FEDE04A0FBF78DFF4BF637
:10432000E650C0F60100FCF773F8FEDE2E2E2F2EAD
:104330002E2F4C69622F65676C5F726173746572B2
:10434000697A65722E6370702831313629203A20DF
:10435000000000002E2E2F2E2E2F4C69622F656735
:104360006C5F726173746572697A65722E637070C6
:104370002831323229203A20000000006173736531
:104380007274206661696C6564203A200000000048
:1043900050534F2073746F7265206E6F742070726B
:1043A0006F7065726C7920616C69676E65642E0D43
:1043B000000000002DE9F04389B0D0F80090B9F179
:1043C000000F53D0044600F12C08B0F84A00B4F8AE
:1043D0004C506FF00806ADF8040006EAC000ADF8D6
:1043E000065009F0CDFC074606EAC50009F0C8FCF6
:1043F00004F11402CDE9027007CA0DF1140C636ACE
:104400008CE80F0094F84E00B4F85C10A26EADF882
:1044100010008A4238BF0A46206EE16EA266236B06
:10442000626F814238BF0146B4F85800E1668242AB
:1044300038BF0246B4F85E00E16F6267814238BF60
:104440000146E167D9F80000B4F85070066801AA87
:10445000484621460097B047404600F007FE00203E
:10446000C4E9170009B0BDE8F08300BF03A0FBF763
:10447000E3FE0CA0FBF7CCFFFEDE00BF2E2E2F2E9E
:104480002E2F4C69622F65676C5F72617374657261
:10449000697A65722E6370702831383129203A208C
:1044A00000000000617373657274206661696C6559
:1044B00064203A206D5F63616C6C6261636B0D0018
:1044C000B0B50025044645600581C0E90355C0E943
:1044D00005550577C0E909552C3000F0F3FD20465D
:1044E0002C21A4F85C5084F86450C4E91A55C4E93E
:1044F0001C55C4E91E55A4F88050FCF732F820463C
:10450000B0BD0000C0E90212C38470470160828020
:104510007047000080B5DDE902EC0162C0E90423C8
:1045200080F818E0A0F824C080BD000000210160E0
:104530008180C0E90211C0E904110176C0E90811C7
:104540007047000070B50C460A0B0CA10546FBF73E
:104550007FFE28462601FBF776FF2C1808A500BF32
:10456000B0B2020B20462946FBF772FE360130043A
:1045700004F10104F4D10020207070BD25692E00E3
:10458000257800002DE9F0479CB049F678050DF13B
:1045900048080646471940460C46FFF7C7FF44F255
:1045A00024003118404640224FF0400AFFF7AEFF8A
:1045B00044F22420311840464FF400624FF48073D7
:1045C000FFF7A0FF42F220003044705102204FF06C
:1045D00000091990C7E90199C7F80C9006F5005336
:1045E000012500904046394632460195FFF792FF7B
:1045F00009AF384600F0D4FDA021502200F0C2FDE2
:1046000044F63020311844F624203218384640232E
:10461000CDF800A000F0BAFD3846012100F060FDA1
:1046200044F67820311838464FF4807200F054FD7B
:1046300045F27860311838464FF48072202300F03C
:1046400051FD03AD284602F0E9F849F6880031181B
:1046500028464FF4006202F0D9F84AF28800311877
:1046600028464FF4006202F0D5F84AF68800311867
:1046700028464FF4807202F0C5F8204641463A467B
:104680002B4600F0D9FF40F29400C2F200000078FF
:104690004AF67055C007C2F20005BFF35F8F0BD01A
:1046A0004AF66C50C2F20000C5E90140C4E9019924
:1046B0001CB0BDE8F08700BF40F29400C2F20000D9
:1046C00008F0A4FE0028EBD04BF2C470C0F6010045
:1046D0000830286040F29400C2F2000008F0C4FEE6
:1046E000DEE700002DE9F04F85B0D0F80490B9F175
:1046F000000F00F095810E9D824628B2B0F1FF3F79
:1047000040F39C81BAF81E000D6814468846039356
:1047100007B209F04DFB06462846314609F0C4FBB6
:1047200009F012FB216804900846314609F0BCFBF1
:1047300009F00AFBB7F1FF3F40F364810646BAF87F
:104740002000D8F80450CDF804800FFA80FB09F05F
:104750002FFB80462846414609F0A6FB09F0F4FAF3
:104760006168054608464146029409F09DFB09F040
:10477000EBFABBF1FF3F40F34581721C12B2049982
:104780000130BA4200B2D8BF1746002A21EAE171CF
:1047900048BF00275845D8BF8346002848BF4FF080
:1047A000000B88B29AF82210BAB225EAE5739AF89B
:1047B000265011449AF82360013941FA05F799B25D
:1047C0001FFA8BF39AF827401E4420FA05FC013E9D
:1047D00046FA04F5A7EB0C0621FA04FE37B2002FC7
:1047E000A5EB0E073DB24FF00004D8BF2646002DC2
:1047F000C8BF3C46370618BF5FEA046702D105B060
:10480000BDE8F08FBAF82AB05FFA86F80BF101071D
:10481000E6B2AAF82A7088F0010786F0010637434D
:10482000DAF80C70039D0BEB4B0627F8265007EBCC
:1048300086060E9F02F10F0208BF47F400471209D7
:1048400077800709A2EB1010B0710809707103F1AD
:104850000F000009A0EB1110F07101984FF60071E4
:1048600080683771DAF80870C4F27F716546CDF858
:104870000CE009F019FB09F067FA029930818968A8
:1048800008464FF60071C4F27F7109F00DFB09F084
:104890005BFA70819AF82800039A07EB45014243BE
:1048A000234601EB4201A0EB08000197CDF80880F8
:1048B0000090CDF810B009E0039B881E0099013BE1
:1048C00000EB4100190600F1020198D00198039312
:1048D0000028029801EB400E10D14B084CE000BFBD
:1048E000DAF814204088BAF8183003FB00220231AD
:1048F00002EB4C007145A0F802B0DDD20888BAF88E
:104900001A2000EB400609EB860085886B1C12EA32
:10491000050C8380E4D1BAF82C70BAF81C209742B9
:104920005ED2BAF81830DAF814407A1CAAF82C20B3
:1049300003FB074203FB07F8002D4FF0FF3524F877
:10494000085005D0458847806B43E752CFE700BF4A
:1049500029F826704780CAE7DAF814207788BAF871
:10496000186006FB072C02310CEB4000714503F187
:104970000103A0F802B09FD298B200EB400509EB0A
:104980008506B288BAF81A00571C1040B780E3D1E8
:10499000BAF82C70BAF81C40A74221D27C1CAAF8A5
:1049A0002C40BAF81840DAF81480CB4604FB078C88
:1049B00004FB07F9002A4FF0FF3228F8092007D03E
:1049C00072887780624328F80270D94604E000BFFD
:1049D000D9462BF825707780DDF810B0C3E700BF0B
:1049E0004CF23A10C0F60100FBF726FC4BF6A6404D
:1049F000C0F60100FBF720FCBAF81C102FA0FBF753
:104A00001BFCFEDE4CF21C10C0F60100FBF714FC90
:104A10004BF6FD70C0F60100FBF7FAFCFEDE00BFAE
:104A20004CF27A00C0F60100FBF706FC4CF21900CC
:104A3000C0F60100FBF7ECFCFEDE00BF07A0FBF7B1
:104A4000FBFB4BF6A640C0F60100FBF7F5FB0EA002
:104A500029464FF40042FBF7EFFBFEDE2E2E2F2EF1
:104A60002E2F4C69622F65676C5F7261737465727B
:104A7000697A65725F74696C696E672E63707028FD
:104A800032313429203A20004C6F63616C20636C12
:104A9000757374657220696E6465782028256929AC
:104AA000206D75737420626520736D616C6C657226
:104AB000207468616E2025692E0D0A004F757420E0
:104AC0006F6620636C75737465722073747269709D
:104AD0007320282569292E0D0A0000002DE9F04FCA
:104AE0008DB097680C46824683F0004138461E46DA
:104AF000154608F0DCFF002840F098804CF6CD41C8
:104B0000DDE91698C3F6CC51304608F045FF014662
:104B1000384608F0BEFF98B90020CDE9060008909D
:104B20004FF07E50CDE90A000C9006A90AAA504623
:104B30004B46CDF80080FFF7D5FD0DB0BDE8F08FF6
:104B400006A829463246234600F036FBAF683146B8
:104B5000384609F037FBA56AA46B2946804609F060
:104B6000A3F9214608F018FF81463846314608F07F
:104B700013FF2946029009F097F9214608F00CFF2F
:104B80000746DDE90601DDE9086501914FF07C513A
:104B900009F08AF94FF07C5108F0FEFE04462846E1
:104BA0004FF07C5109F080F901464FF07C5009F03C
:104BB00009FB05464846002108F064FF8346484645
:104BC000414608F0CBFFBBF1000F08BF58460C90E0
:104BD00030464FF07C51CDE90A4509F065F94FF0B8
:104BE0007C5108F0D9FE044601984FF07C5109F041
:104BF0005BF901464FF07C5009F0E4FA054638466F
:104C0000002108F03FFF02990646384608F0A6FF4B
:104C1000002E08BF3046DDE9163705900AA903AA21
:104C20005046CDE903450097FFF75CFD0DB0BDE8A8
:104C3000F08F00002DE9F04F87B00D46496800293C
:104C400000F090818146E868002800F08B81686957
:104C5000002800F0878195F82200411E08400006D8
:104C600001BF95F82300411E08405FEA006011D0A3
:104C7000DCA0FBF7E1FA4BF6A640C0F60100FBF71B
:104C8000DBFA95F8221095F82320E1A0FBF7D4FA7F
:104C9000FEDE00BF95E8CF0089E8CF00296AD5E99C
:104CA0000602C9F82010C9E9060295F822C00020C2
:104CB000B0EB5C0F89F8260016D04FEA5C020021A9
:104CC00040F6FE7340F6FC7740F6F8761A4215D0AF
:104CD0003A4217D0324219D0C2F30B12002A01F126
:104CE0000401F3D114E000BF002395F823E089F814
:104CF0002700B0EB5E0F15D139E000BF41F0010194
:104D000006E000BF41F0020102E000BF41F00301F4
:104D1000CBB289F8261095F823E089F82700B0EB8C
:104D20005E0F24D04FEA5E01002040F6FE7240F68E
:104D3000FC7740F6F87600BF11420BD039420DD017
:104D400031420FD0C1F30B11002900F10400F3D15F
:104D50000AE000BF40F0010006E000BF40F00200A2
:104D600002E000BF40F0030089F82700C0B2E98BE1
:104D70002A8C614472440139013A194142FA00F027
:104D800040EA010212F47F4F40F0FA8089F82900CE
:104D9000C2B2A86889F82810C9B25143A9F82410F2
:104DA00060B14900FBF7BBFBB9F8241095F822C0AD
:104DB00095F823E0D5F808A002E000BF4FF0000A04
:104DC000D5F804B0287801EB410100280BEB8102F3
:104DD00074D00128069240F0EB8099F8285045F2F3
:104DE000555643F2303143F2333240F60F744FF0F0
:104DF00000085846CDF804B0CDE904C9CDE902AEAB
:104E00000AE000BF06980BF10C0BDDF81490DDE909
:104E100003EC834580F0808000208BF808C08BF87D
:104E200009E0ABF80A0099F829E000BF45F25450B8
:104E300000EA080008EA060343EA500000EA01031A
:104E4000104040EA930000EA040300F4706043EA73
:104E5000101A5FFA8AF9C4464D4508F10108E5D9F0
:104E60001FFA8CF042F6AA2706EA500307EA9000E0
:104E7000184400EA0103104040EA930000EA0403EA
:104E800000F4706043EA1013D8B28645CED98BF88F
:104E900006A0DDF808A08BF80730BAF1000FB1D0FA
:104EA000019B4AF6AB27ABEB03039B0805FB009085
:104EB000CAF6AA277B432AF81030A3E799F82850AE
:104EC0004AF6AB280021CAF6AA280023002706E0EC
:104ED0000C330BEB0300904207F101071CD2A8B280
:104EE000BEB2B6FBF0F00BEB030400FB1576BAF193
:104EF000000F84F808C084F809E06181A671E071B0
:104F0000E6D0B6B2C0B29C0805FB006004FB08F610
:104F10002AF81060DCE700BFD9F80400F0B199F876
:104F200029100022694301EB410100EB810100BF20
:104F300000F10C038B4282800DD200F118038B42EA
:104F4000028208D200F124038B42828303D20285BD
:104F500030308842ECD30020C9F82A0007B0BDE801
:104F6000F08F00BF4CF2A600C0F60100FBF764F919
:104F70004CF23600C0F60100FBF74AFAFEDE00BF35
:104F80002FA0FBF759F94BF6A640C0F60100FBF73E
:104F900053F995F8221095F82320EB8B2F8C4BF6C4
:104FA0009370C0F601000097FBF746F9FEDE00BFE4
:104FB0000020ABF80A004CF2D200C0F601008BF8DA
:104FC00008C08BF809E0FBF737F94BF6DD60C0F657
:104FD0000100FBF731F94BF6CB70C0F60100FBF78F
:104FE00017FAFEDE2E2E2F2E2E2F4C69622F6567AC
:104FF0006C5F726173746572697A65725F74696CF3
:10500000696E672E6370702831313529203A20008F
:1050100054696C652064696D656E73696F6E732089
:10502000282569207820256929206D7573742062F0
:105030006520706F7765722D6F662D322E0D0A0018
:105040002E2E2F2E2E2F4C69622F65676C5F72619A
:1050500073746572697A65725F74696C696E672EC4
:105060006370702831323729203A200041680029C6
:1050700008BF704790F8282090F829304FF0000CB6
:105080005A4302EB420201EB820200BF01F10C0322
:105090009342A1F804C010D201F118039342A1F881
:1050A00010C00AD201F124039342A1F81CC004D21B
:1050B000A1F828C030319142E8D30021C0F82A106D
:1050C0007047000010B52E210446FBF728FA204651
:1050D00010BD000070470000C160028270470000F0
:1050E0000170704780B5A3F1010C13EA0C0F09D1D0
:1050F0004161042101EB4C018283A0F81AC00183B5
:1051000080BD00BF06A0FBF797F84BF6A640C0F69F
:105110000100FBF791F80DA0FBF77AF9FEDE00BF66
:105120002E2E2F2E2E2F4C69622F65676C5F7261B9
:1051300073746572697A65725F74696C696E672EE3
:1051400063707028383129203A2000004E756D6256
:105150006572206F6620636C757374657273206965
:105160006E20636C7573746572207374726970203D
:105170006D75737420626520706F7765722D6F6630
:105180002D320D00C183028470470000DDF800C09D
:10519000C0E9011280F8223080F823C07047000077
:1051A0000121017000214161C0E90111C16001824A
:1051B000C0E90711704700002DE9F04F87B08B461A
:1051C000D96A054608464FF07E511E46144608F03F
:1051D0004BFC002800F0C280F06B002108F044FC7A
:1051E000002800F0BB80204621460696049508F072
:1051F0005BFEDBF80870DBF80050064638462146B7
:1052000008F052FE05902846294608F04DFE054656
:105210003846394608F048FE294608F0BDFB3146BD
:10522000039608F0CFFF0021054608F032FC002865
:1052300000F09C80284608F099FB0646DBE90070E8
:10524000DBF8085002903046394608F02DFE8146C2
:105250003846214608F028FE80463046294601940B
:1052600008F022FE059C82464846214608F0AAFF27
:1052700006990E68314608F017FE0746404651462B
:1052800008F08AFB0146384608F068FC049A494653
:1052900010602046914608F07FFB314608F004FE7E
:1052A00006465046414608F08DFF0146304608F05C
:1052B00055FCC9F808000298014608F0F5FD0646BD
:1052C0002846294608F0F0FD314608F065FB0399B1
:1052D00008F078FF0021054608F0DBFB002845D0E8
:1052E000284608F043FBDBE901740646394608F01E
:1052F000DBFD01998246384608F0D6FD80463046EF
:10530000214608F0D1FD059D06465046294608F085
:1053100059FF06994C69214608F0C6FD07464046EC
:10532000314608F039FB0146384608F017FCC9F849
:1053300004002846514608F02FFB214608F0B4FD32
:1053400004463046414608F03DFF0146204608F03D
:1053500005FCC9F80C0007B0BDE8F08F0AA0FAF709
:105360006BFF11A0FBF754F8FEDE00BF4CF2FE000D
:10537000C0F60100FAF760FF4BF6E670C0F60100D8
:10538000FBF746F8FEDE00BF2E2E2F2E2E2F4C6987
:10539000622F65676C5F74666F726D332E6828329A
:1053A00030363529203A20006173736572742066A7
:1053B00061696C6564203A207632705F2E7A2E77B0
:1053C0003D3D31202626207632705F2E772E773DA8
:1053D0003D300D002DE9F04F8BB083469BF8CC504B
:1053E0001E889BF8CDC05F8805FB01631498089365
:1053F0000CFB027304880793B0F80280DBF8C83016
:10540000DBF80400A4EB0609A8EB070E03EB460645
:105410006F4306EB470AD8B10768079ED7F804C068
:10542000B7B2089EDBF83010AAEB03030BF12002A1
:105430005B101FFA8EFE1FFA89F4B6B2CDE9006741
:10544000CDE9024E0495E0470BB0BDE8F08F00BFF8
:105450004D43DBF8B000BBF8C0100CFB02F6002295
:105460007746FBF723FD281901380590B8B206905E
:1054700007982A211830079006EB080000F117065C
:10548000DBF8B8008DF82510102100221FFA89F9E9
:10549000FBF70CFDDBF8AC000DF1250101224FF00C
:1054A000FF33FCF731F9DBF8B80010210122FBF7DC
:1054B000FDFC089DDBF8AC00290A0DF126048DF8EF
:1054C0002610214601224FF0FF33FCF71DF9DBF8CF
:1054D000AC00214601224FF0FF338DF82650FCF737
:1054E00013F9059CDBF8AC00210A0DF127058DF8B6
:1054F0002710294601224FF0FF33FCF705F9DBF8AE
:10550000AC00294601224FF0FF338DF82740FCF70D
:10551000FBF82B21DBF8B8008DF8281010210022B1
:10552000FBF7C4FCDBF8AC000AA901224FF0FF3303
:10553000FCF7EAF8DBF8B80010210122FBF7B6FC13
:10554000079CDBF8AC00210A0DF129058DF8291024
:10555000294601224FF0FF33FCF7D6F8DBF8AC0008
:10556000294601224FF0FF338DF82940FCF7CCF893
:10557000310ADBF8AC000DF12A058DF82A10294616
:1055800001224FF0FF33FCF7BFF8DBF8AC002946EF
:1055900001224FF0FF338DF82A60FCF7B5F82C217B
:1055A000DBF8B8008DF82B1010210022FBF77EFCF1
:1055B000DBF8AC000DF12B0101224FF0FF33FCF7BB
:1055C000A3F8DBF8B80010210122FBF76FFC9BF871
:1055D000CC00069909AD48430AEB40080AEB49079D
:1055E000AAF1020636F8024FDBF8AC00210A8DF86A
:1055F0002410294601224FF0FF33FCF785F8DBF831
:10560000AC00294601224FF0FF338DF82440FCF70F
:105610007BF8B01CB842E5D39BF8CC000AEB400AFB
:10562000C245DBD3DBF8B000BBF8C0100122FBF7AA
:105630003DFC0BB0BDE8F08FF0B581B007460C30F3
:105640001C4615460E46FEF7F9FD07F1900021466F
:10565000FF6000F095FE306A0068C7F8C800688CEB
:10566000A7F8CC0001B0F0BD2DE9F04F83B0DDE923
:105670000EB8DDE90CA904464FF47A701D461646B3
:105680000F46FBF701FB10984146A4F8C40011989F
:105690000022A4F8C6002846C4E92B76C4E92D5A96
:1056A000C4F8BC90A4F8C0B0A4F8C280FBF7FEFB1D
:1056B0000520FBF7E9FAD4F8B400B4F8C2100122CF
:1056C000FBF7F4FB0520FBF7DFFAD4F8B000B4F8E1
:1056D000C0100022FBF7EAFB4BF2F060C0F60100BD
:1056E000471C0F250DF102083978D4F8B8008DF861
:1056F000021010210022FBF7D9FBD4F8AC00414680
:1057000001224FF0FF33FBF7FFFF7E78300613D402
:10571000D4F8B800102101220237FBF7C7FBD4F8F8
:10572000AC00394632464FF0FF33FBF7EDFF37440C
:10573000013D2806D8D109E0B8780337FF2808BF13
:10574000F420FBF7A1FA013D2806CDD117F8015B43
:10575000002DC9D12021D4F8B8008DF803101021F4
:1057600000220026FBF7A2FBD4F8AC000DF10301E8
:1057700001224FF0FF33FBF7C7FF2A21D4F8B8000E
:105780008DF8041010210022FBF790FBD4F8AC0038
:1057900001A901224FF0FF33FBF7B6FFD4F8B800A0
:1057A00010210122FBF782FBD4F8AC000DF10505B6
:1057B000294601224FF0FF338DF80560FBF7A4FF67
:1057C000D4F8AC00294601224FF0FF338DF8056074
:1057D000FBF79AFFD4F8AC000DF10605294601222B
:1057E0004FF0FF338DF80660FBF78EFF9F21D4F852
:1057F000AC008DF80610294601224FF0FF33FBF76D
:1058000083FF2B21D4F8B8008DF807101021002257
:10581000FBF74CFBD4F8AC000DF1070101224FF06F
:10582000FF33FBF771FFD4F8B80010210122FBF71A
:105830003DFBD4F8AC0002AD294601224FF0FF3306
:105840008DF80860FBF760FF1821D4F8AC008DF8E4
:105850000810294601224FF0FF33FBF755FFD4F81B
:10586000AC000DF10905294601224FF0FF338DF8F8
:105870000960FBF749FF6721D4F8AC008DF80910E7
:10588000294601224FF0FF33FBF73EFF2C21D4F8CD
:10589000B8008DF80A1010210022FBF707FBD4F89E
:1058A000AC000DF10A0101224FF0FF33FBF72CFF92
:1058B000D4F8B80010210122FBF7F8FA4FF448574A
:1058C0000DF10B05D4F8AC00294601224FF0FF334F
:1058D0008DF80B60FBF718FFD4F8AC0029460122C5
:1058E0004FF0FF338DF80B60FBF70EFF013FE9D15E
:1058F0000BA0FAF78DFDD4F8B000B4F8C010012267
:10590000FBF7D4FA4FF47A70FBF7BEF9D4F8BC0079
:10591000B4F8C6100022FBF7C9FA03B0BDE8F08F57
:105920005354373733352067726170686963732069
:1059300064657669636520696E697469616C697A0A
:105940006564210D0000000010B504464BF2A47000
:10595000C0F601000830206004F10C00FEF7B0FD35
:1059600004F1900000F0D4FD4BF2B470C0F60100D9
:10597000083020604AF66850C2F200000268002138
:10598000002A6160A16001BF04602046C4F8C8100D
:1059900010BD03A0FAF750FC0DA0FAF739FDFEDEAA
:1059A0002E2E2F2E2E2F4C69622F6472697665720F
:1059B000732F65676C5F6465766963655F737437C1
:1059C0003733352E63707028393629203A2000008D
:1059D000617373657274206661696C6564203A2036
:1059E00021735F6163746976655F6465760D00009D
:1059F00010B504464AF66850C2F20000002101606A
:105A00004BF2A470C0F6010000F10801204640F8F6
:105A1000381BFFF75FFB204610BD00002DE9F04367
:105A200081B00668002E4FD043698B4209D90F32EE
:105A3000012303EB121CC7681FFA8CF3B7EB031F9B
:105A400004D2406801B0BDE8F08300BFD0F81880F0
:105A50004FF6FF7908EB0305B7EB051F38BF4FF092
:105A600000085FEA0C4706EB081E0FD000257746BA
:105A70003E887C884E451CBF826822F816902E19FD
:105A8000B5B29D4207EB0417F2D301E000260025D2
:105A9000826808F10104AEF80010AEF802C022F8E6
:105AA000114008EB03019D42816107D918010EEBFB
:105AB00000012EF80090A6EB0C0048800EF11000BB
:105AC00001B0BDE8F08300BF06A0FAF7B5FB4BF6C6
:105AD000A640C0F60100FAF7AFFB0DA0FAF798FC5C
