:020000040800F2
:10000000E81D0020450100086F0D000841080008A8
:100010006D0D0008B90400084D1D00080000000027
:10002000000000000000000000000000ED160008C5
:10003000B905000800000000C11400085D010008B7
:100040005F0100085F0100085F0100085F01000810
:100050005F0100085F0100085F0100085F01000800
:100060005F0100085F0100085F0100085F010008F0
:100070005F0100085F0100085F0100085F010008E0
:100080005F0100085F0100085F0100085F010008D0
:100090005F0100085F0100085F0100085F010008C0
:1000A0005F0100085F0100085F0100085F010008B0
:1000B0005F0100085F0100085F0100085F010008A0
:1000C0005F0100085F0100085F0100085F01000890
:1000D0005F010008B51B00085F0100085F01000810
:1000E0005F0100085F0100085F0100085F01000870
:1000F0005F0100085F0100085F0100085F01000860
:100100005F0100085F010008611700085F01000837
:100110005F0100085F0100085F0100085F0100083F
:100120005F0100085F0100085F0100085F0100082F
:10013000DFF80CD000F0CCF8004800472D3800085C
:10014000E81D00200648804706480047FEE7FEE716
:10015000FEE7FEE7FEE7FEE7FEE7FEE7FEE7FEE777
:100160005D17000831010008F0B480EA0102D40FE5
:100170004200B2EB410F02D20246084611464A0045
:1001800042D0C30DDDB2C1F3C752AD1A202D35DA0E
:10019000C1F3160141F4000204B15242C5F1200638
:1001A00002FA06F12A411044B3EBD05F23D0C4B168
:1001B000012DA0EBC35009DCF0BC4FF0004202EA75
:1001C000C352DBB200F5000000F054B8400000F16B
:1001D000807000EBC350A0F1807040EAD1704900FC
:1001E00009E0490841EAC071A0EBC35000F50000E6
:1001F000400800EBC350F0BC00F033B8614201226C
:1002000002EB4101001BF6E7F0BC704781F00041B2
:10021000AAE780F00040A7E7420005D0C0F3C7522C
:100220005242914201DC0020704700EBC150704700
:1002300096230022114600F01DB820F00040C10DA9
:10024000C0F3160040F400007F2901DA0020704757
:10025000962903DCC1F19601C84070479639884061
:1002600070470029A8BF7047401C490008BF20F014
:100270000100704710B4B0FA80FC00FA0CF050EAAC
:10028000010404BF10BC704749B1CCF1200421FA2D
:1002900004F411FA0CF118BF012121430843A3EB28
:1002A0000C01CB1D4FEA00614FEA102042BF002035
:1002B00010BC704700EBC35010440029A4BF10BC11
:1002C0007047401C490008BF20F0010010BC704777
:1002D000064C074D06E0E06840F0010394E8070093
:1002E00098471034AC42F6D3FFF726FF1C470008AE
:1002F0003C4700080C4A012302EB40000A0900EBCE
:1003000042000A4A01F00F018B40D063008883430A
:100310001046C08B04D1C10702D040F0010001E0BB
:1003200020F00100D08370470450002024000020FA
:100330000C4A012302EB40000A0900EB42000A4A82
:1003400001F00F018B40D063008883431046C08BBF
:1003500004D0C10702D040F0010001E020F001000C
:10036000D08370470450002024000020094A02EB8B
:1003700040000A0900EB4200074A01F00F01D06378
:10038000927FD20704D0028801238B401A43028057
:100390007047000004500020240000202DE9F8439D
:1003A0000121084601F0EEF801213C2001F0EAF8B5
:1003B00004F014F801213B4800F016FA4FF4004015
:1003C000ADF800000124384E8DF8024010258DF85C
:1003D00003506946304600F0B8F94FF21B00ADF803
:1003E0000000DFF8C8808DF802408DF803506946A0
:1003F000404600F0AAF93020ADF800002C4F8DF8EF
:1004000002408DF803506946384600F09EF9FF20FF
:10041000ADF800008DF803508DF802406946304673
:1004200000F093F94FF4C850ADF8000004248DF8A3
:10043000034002258DF802506946304600F085F9E8
:100440004FF47870ADF800008DF803408DF802503D
:100450006946404600F079F943F6C170ADF80000F6
:100460008DF803408DF802506946384600F06DF96A
:10047000ADF800408DF803408DF8025069460D48F4
:1004800000F063F94FF44060ADF8000014208DF8DF
:1004900003008DF802506946404600F056F9BDE869
:1004A000F88300000004300000080140000C014007
:1004B0000010014000140140FEE70000F0B5114DAE
:1004C0002A6C921C2A641188090A802919D10E4BC2
:1004D0003E21A3F5017403EB410733F811607E80E0
:1004E00054F8216004EB8107491E7E6011F0FF0182
:1004F000F1D1E98B198005494008226051F82000AC
:100500002864F0BD240000209C04002094000020FA
:100510000B4A907FC00711D0106C01880B0A882B02
:100520000CD1801C10640088C9B2000A802805D153
:100530004808044951F82000801C106470470000EE
:1005400024000020940000200F4B196C11F8020BBE
:10055000C0F346005884196409880A0A862A02D022
:10056000882A0AD103E0C9B200EBC11004E0C9B285
:1005700000EBC11000F57A705884987FC00701D055
:1005800002F05EB902F086B82400002010B5094CD4
:10059000A07FC0070AD002F035F8216C091F401E69
:1005A00021642085BDE8104001F036BC206C001DA0
:1005B000206410BD24000020704701B50098411E42
:1005C0000091FBD208BD000030B50B4A0948012557
:1005D000118900EBD10001F00704037905FA04F159
:1005E0008B430371054B06205870D5800520907011
:1005F00030BD0000005000206C00002020150020BD
:1006000070B5154B134801261A8900EBD201A2F5EB
:100610006060233801F104010DD00E4D4FF4E274F7
:1006200001280FD0022810D0087802F0070206FA3D
:1006300002F210430870094906204870DE80052048
:10064000987070BD1C81092001E01C810A2085F88A
:10065000C401F0E7005000206C00002020150020AD
:1006600070B505464FF43026304600F05DF804289A
:1006700013D10A4C206940F00200206165612069B5
:1006800040F040002061304600F04EF8052804D0CC
:10069000216941F6FD721140216170BD00200240C8
:1006A00008490420CA68D20701D001207047CA68EF
:1006B000520701D502207047C968C906FBD503203F
:1006C00070470000002002400248016941F08001AB
:1006D0000161704700200240F0B506464FF4005714
:1006E0000D46384600F020F804280ED1074C20694A
:1006F00040F0010020613580384600F015F80528EB
:1007000003D02169BA1E11402161F0BD00200240D2
:10071000034802494160034941607047230167452E
:1007200000200240AB89EFCD00B50346FFF7B8FFCC
:1007300002E0FFF7B5FF5B1E012803D0002B00D1BC
:10074000052000BD002BF4D1FAE7F0B5CC780022EB
:1007500004F00F03E40601D58C7823430C784FF0A6
:100760000F0C14F0FF0F4FF0010E1BD005680E8820
:100770000EFA02F42640A64210D196000CFA06F7B3
:1007800025EA070703FA06F5CE783D43282E02D066
:10079000482E02D002E0446100E00461521C082AA5
:1007A000E5D305600A88FF2A1CD94468002202F1BB
:1007B00008060EFA06F50E882E40AE420ED19600BF
:1007C0000CFA06F7BC4303FA06F7CE783C43282E12
:1007D00000D14561CE78482E00D10561521C082A0F
:1007E000E5D34460F0BD0000F0B5144C002801DAF8
:1007F000E36900E06368450D2E0185B2C0F301573F
:10080000B540C0F30342032F05D0C6020AD5032624
:100810009640B34307E023F07062636823F070638F
:10082000636002E0AB4343F0706201B12A430028E9
:1008300001DAE261F0BD6260F0BD0000000001403D
:10084000FEE7000010B5094CA07FC0070AD001F0F8
:10085000D9FE216C091F401C21642085BDE8104091
:1008600001F0DABA206C001D206410BD24000020C5
:1008700010B5134C216C0888000A822808D08428FF
:100880000DD0862811D0882815D0891D216410BD6F
:1008900000F06EF894F8240000F00F0003E000F080
:1008A00067F894F82400A08410BD00F061F8A08CD3
:1008B000C0F30B00F7E7BDE8104000F059B80000A6
:1008C000240000200D4A012302EB40000A0900EB3E
:1008D00042000B4A01F00F018B40D06300884FF6B5
:1008E000FF7183431046C08B01EA400003D020F023
:1008F0000100D083704740F00100FAE70450002067
:1009000024000020094A02EB40000A0900EB4200E3
:10091000074A01F00F01D063012200888A40824318
:1009200001D000207047FF207047000004500020D5
:10093000240000200C4A012302EB40000A0900EBCE
:1009400042000A4A01F00F018B40D06300884FF645
:10095000FF7183431046C08B01EA400001D040F094
:100960000100D083704700000450002024000020C4
:10097000F0B53E4B3E4E988C00F00F0199701C6C08
:10098000050906EB450022780B2A46D008DC19D26F
:10099000DFE802F01B20252A2F341818393C3F00CD
:1009A0002A2A49D008DC0C2A3AD00D2A3BD0282A22
:1009B0003CD0292A06D13CE02B2A42D02C2A45D013
:1009C0002D2A48D0241D1C64F0BDB0F88022B0F858
:1009D000820244E0B0F8A022B0F8A2023FE0B0F8F2
:1009E000C022B0F8C2023AE0B0F8E022B0F8E20269
:1009F00035E0B0F84022B0F8420230E0B0F8802193
:100A0000B0F882012BE036F8152004E0028C408C0F
:100A100025E030F8402F408821E030F8602FFAE7D9
:100A200030F8802FF7E730F8A02FF4E730F8C02F28
:100A3000F1E730F8E02FEEE7B0F80021B0F802015E
:100A40000DE0B0F82021B0F8220108E0B0F8402114
:100A5000B0F8420103E0B0F86021B0F8620102EBA7
:100A60000040C84098639884F0BD00002400002036
:100A70000450002070B5A34AD18C01F00F005070D3
:100A80000C099482156C29880B0A1146822B898CDB
:100A90001BD0842B1FD0862B25D0882B2AD0AD1DB0
:100AA000156498482B462978C08C974D000905EBB2
:100AB00040000B297DD022DC33D2DFE801F0384939
:100AC0005A6B7E8F3232A7B4C10001F00F01814012
:100AD00011630F2103E0C9B281401163FF218140FE
:100AE000C8435063DDE7C1F30B018140116340F659
:100AF000FF71F4E7814011634FF6FF71EFE72A2998
:100B00007DD008DC0C297BD00D297AD0282979D01A
:100B1000292906D1A6E02B2975D02C2974D02D299E
:100B200073D09B1C1364106C801C106470BDB0F8F3
:100B30008012B0F8823201EB0341536B1940136B02
:100B40001943D162A0F88012090CA0F88212EAE7DA
:100B5000B0F8A012B0F8A23201EB0341536B194078
:100B6000136B1943D162A0F8A012090CA0F8A212CD
:100B7000D9E7B0F8C012B0F8C23201EB0341536BB1
:100B80001940136B1943D162A0F8C012090CA0F8E8
:100B9000C212C8E7B0F8E012B0F8E23201EB03414C
:100BA000536B1940136B1943D162A0F8E012090C82
:100BB00000E04BE0A0F8E212B5E7B0F84012B0F860
:100BC000423201EB0341536B1940136B1943D1625D
:100BD000A0F84012090CA0F84212A4E7B0F8801166
:100BE000B0F8823101EB0341536B1940136B194389
:100BF000D162A0F88011090CA0F8821193E73DE0C2
:100C000027E029E02BE04AE05AE06AE035F81410CA
:100C1000438801EB0341536B1940136B1943D162B5
:100C200025F814100FE0018C438C01EB0341536B4A
:100C30001940136B1943D1620184090C418472E796
:100C400030F8401F10E0090C41806CE730F8601F5D
:100C50000AE030F8801F07E030F8A01F04E030F809
:100C6000C01F01E030F8E01F438801EB0341536BE4
:100C70001940136B1943D1620180E4E7B0F8001109
:100C8000B0F8023101EB0341536B1940136B194368
:100C9000D162A0F80011090CA0F8021143E7B0F8E6
:100CA0002011B0F8223101EB0341536B1940136B53
:100CB0001943D162A0F82011090CA0F8221132E7E3
:100CC000B0F84011B0F8423101EB0341536B1940C9
:100CD000136B1943D162A0F84011090CA0F842111E
:100CE00021E7B0F86011B0F8623101EB0341536BBA
:100CF0001940136B1943D162A0F86011090CA0F8D8
:100D0000621110E724000020045000200F48002149
:100D10000161C160142242618161C161026842F0D7
:100D20000102026042680A4B1A4042600268094BA5
:100D30001A400260026822F480220260426822F4B3
:100D4000FE0242608160C00300F006B8001002405D
:100D50000000FFF8FFFFF6FE024A1140014302487F
:100D60000160704780FFFF1F08ED00E0FEE770475D
:100D700038B500214FF0006000F05EF84FF480605D
:100D800000F050F825208DF8000005208DF80100B6
:100D900001248DF802408DF80340684600F010F8F9
:100DA00032208DF8000004208DF8010000208DF81D
:100DB00002008DF80340684600F002F838BD0000DC
:100DC00030B50F23C27801780125F2B1144A1268B8
:100DD00001F1E02102F4E062C2F5E062120AC2F120
:100DE0000404D3404278A24084781C40144322017A
:100DF00081F80024007800F01F018D404009800038
:100E000000F1E020C0F8005130BD01F01F00854026
:100E10004809800000F1E020C0F8805130BD00009A
:100E20000CED00E0024908430249086070470000E9
:100E30000000FA050CED00E0024A114001430248AF
:100E40000160704780FFFF1F08ED00E00C4A01239E
:100E500002EB40000A0900EB42000A4A01F00F01D0
:100E60008B40D063008883431046C08B01D0C107FC
:100E700002D040F0010001E020F00100D083704773
:100E800004500020240000200C4A012302EB400003
:100E90000A0900EB42000A4A01F00F018B40D063BF
:100EA00000888343D08B53EAC07102D040F0010028
:100EB00001E020F00100D0837047000004500020C2
:100EC000240000200E4A0B0902EB400202EB430310
:100ED00030B50C4A01F00F054FEA1111D363927F30
:100EE000D4074FF0010202FA05F2054D05EB400070
:100EF00030F8110001D0104300E09043188030BD5D
:100F0000045000202400002070B5104A104C0E48F8
:100F1000D1789378012601EB032189B2218100EB7E
:100F2000D10001F0070110F8045F16FA01F308D0B0
:100F300000210D40057006205070E6800520A0704D
:100F400070BD0121F5E700000050002020150020B1
:100F50006C00002070B50D4A0B480125D1789378BC
:100F600001EB032189B20A4B00EBD10001F0070627
:100F70001981047905FA06F10C43047106205070BA
:100F8000DD800520987070BD0050002020150020E5
:100F90006C00002070B5314A90880B2805D1304B89
:100FA0001979372910D038290ED002F055FF2D4974
:100FB0008878412849D021DC68B3012833D0102833
:100FC0002DD0112820D132E027489C795D79245C0E
:100FD0002D5C04EB0514DD791B7A2D5C185C2D0368
:100FE00005EB002020441081372903D0BDE8704074
:100FF000FFF7EABABDE87040FFF702BB77281CD0C4
:1010000087281ED0D12824D0152048700120D080F8
:101010000520907070BDBDE8704000F095B8BDE847
:10102000704000F0C9B9BDE8704000F021B800F090
:1010300063F90E490020087070BDBDE8704000F0F3
:101040001FBFBDE8704000F003BFBDE8704002F074
:10105000D9BABDE8704002F0E7BC00006C00002087
:101060008217002020150020D24600082B00002007
:101070002DE9F043DFF8BCC0DFF8BC8002208CF81B
:1010800001004246B8F80A0000212C4E5478B0F511
:10109000004F1DD3A0F5004087B2A8F80A700020C9
:1010A000DFF89C9011E03B1819F803500CEB40035B
:1010B00006EB151205F00F0512789A70755D401C4D
:1010C0002A441144DD70C9B280B2A042EBD31BE0C8
:1010D000001D87B2A8F80A700020DFF8689011E0C0
:1010E0003B1819F803500CEB400306EB151205F002
:1010F0000F0512789A70755D401C2A441144DD700A
:10110000C9B280B2A042EBD30CEB40020323C91C4E
:101110009370C9B206EB111301F00F011B78D37065
:10112000715C1171042101EB4000A8F80600BDE8D4
:10113000F0830000201500206C000020EE4600081F
:1011400000600008005000202DE9F04FDFF864C176
:101150000220DFF864B18CF801009CF804009CF8D0
:101160000320002100EB022083B241F29070ABF823
:101170000830834203D0A3F5B852D03A40D183421D
:101180003ED14E4F0022A7F5805A97F800640CE03C
:101190000AEB420000F58050B0F804446408521C89
:1011A0003AF81440A0F89047D2B2B242F0D30020EF
:1011B00097F80284012521E016180AEB460606F589
:1011C0008056B6F804743E0907F00F093AF8166025
:1011D00005FA09F7B74302EB10160AEB460404F5CB
:1011E000805400F00F07B4F8906705FA07F917D09C
:1011F00026EA0906401CA4F89067C0B24045DBD33C
:101200002D482F4ED8464578B3F5004F20D3A3F58F
:1012100000439FB2A8F808700020DFF8A89014E0FF
:1012200046EA0906E6E73B1819F803400CEB4003D1
:1012300006EB141204F00F0412789A70345D401C0F
:1012400022441144DC70C9B280B2A842EBD31BE047
:101250001B1D9FB2A8F808700020DFF86C9011E009
:101260003B180CEB400419F80320401C06EB12134A
:1012700002F00F021B78A370B25CE2701A441144B2
:10128000C9B280B2A842EBD30CEB40020323C91CC5
:101290009370C9B206EB111301F00F011B78D370E4
:1012A000715C1171042101EB4000ABF80600BDE850
:1012B000F08F0000201500206C000020046000204A
:1012C000EE46000800600008005000200848C17881
:1012D000807801EB0020074980B20881A0F56060AA
:1012E000023803D0C82801D002F08EBC02F0D2BC74
:1012F000201500206C0000202DE9F041294F2A4ED6
:101300003879F97800EB012080B23081B0F5004FD8
:1013100030D3264A0021A0F50040117030810C46E0
:1013200006F10C05DFF8888020E030890219D10A27
:1013300029706878814207D13819494202EBC122ED
:10134000807928F812000FE002F07EFE287801F084
:10135000CBF828786870328939192244404202EB70
:10136000C022897928F81210641CA4B270788442D3
:10137000DBD30EE0001D81B2318100200D4C73786B
:1013800005E03A180D189279401C625580B29842D7
:10139000F7D3062078700120F0800520B070BDE8FA
:1013A000F0810000201500206C0000202B000020A0
:1013B0001C050020005000202DE9F041294F2A4E45
:1013C0003879F97800EB012080B23081B0F5004F18
:1013D00030D3264A0021A0F50040117030810C4620
:1013E00006F10C05DFF8888020E030890219D10A67
:1013F00029706878814207D13819494202EBC1222D
:10140000807928F812000FE002F01EFE287801F023
:101410006BF828786870328939192244404202EB0F
:10142000C022897928F81210641CA4B27078844212
:10143000DBD30EE0001D81B2318100200D4C7378AA
:1014400005E03A180D189279401C625580B2984216
:10145000F7D3062078700120F0800520B070BDE839
:10146000F0810000201500206C0000202B000020DF
:101470001C05002000500020F0B50E4904230E4C3E
:101480008A78C87803EB0222104482B222810020BD
:101490000A4D637805E00E1887187679401CEE55E2
:1014A00080B29842F7D3062048700120E0800520E2
:1014B000A070F0BD201500206C000020005000201E
:1014C0007047000070B502F0E7FC1F481F4D204C2C
:1014D000C07837281BD006DC30280BD031280ED03E
:1014E000342825D110E0382816D0422819D04528B4
:1014F0001ED119E028796070FFF7E8FE18E028791E
:101500006070FFF7B9FF13E002F0BCF810E002F0E2
:1015100097FCFFF71FFD0BE002F092FCFFF7F4FCD5
:1015200006E000F095FC03E068796070FFF732FD9B
:10153000E088A188084305D1152068700120E0806B
:101540000520A07070BD000082170020201500202B
:101550006C000020044A0029D16901D0014300E059
:101560008143D1617047000000100240044A002905
:10157000116901D0014300E081431161704700000F
:1015800000100240044A0029916901D0014300E0A3
:10159000814391617047000000100240044A002915
:1015A000D16801D0014300E08143D1607047000061
:1015B000001002400F4A30B4917FC90712D00E4B81
:1015C000002403EB4001A1F8004A010903EB4101AB
:1015D00001F5F071D16300F00F040B880120A040E9
:1015E00083430B80106C017830BC4FF45C70FFF7C4
:1015F00069BC00002400002004500020094A02EBCE
:1016000040000A0900EB4200074A01F00F01D063D5
:10161000927FD20704D0028801238B409A43028034
:101620007047000004500020240000200A480021D8
:10163000C2780A2A00D9C170084A92F8C421092A3E
:1016400008D0C278002A04D10122C2700448A0F850
:1016500080117047C17070472400002000500020A6
:10166000045000202DE9F0411D4800F067FB1D4E9D
:1016700000F07F00002201241B4D30704FF0050860
:10168000A6F26227052810D0022811D0A9880029C7
:1016900009D0A988491C89B2A9807054B1F5FA7F94
:1016A00008D9EA80AA80BDE8F081AA8006200FE070
:1016B000AC80EEE70329F6D9701810F8020C032865
:1016C000F1D102F079FB96F85702012805D01520D8
:1016D0007870EC8085F80280E5E7AC70E3E7000005
:1016E00000380140821700206C0000207047000085
:1016F00030B505460024FFF709FB1649086840F499
:10170000803008600868400CFCD04FF4806048606E
:10171000AD1E4A68E8B242EA80404860486840F43A
:10172000803048600C48026842F03202026008686B
:1017300040F0807008600868400EFCD0486840F0B7
:101740000200486002E04868C0F38104022CFAD12C
:1017500030BD000000100240002002407047000031
:1017600070B53C4C0121204600F0ADF800286FD048
:101770000121204600F09AF8374D384A0026287893
:10178000401CC0B22870B2F8181E491CA2F8181EDE
:10179000632804D92E700C21E02001F0E7FF00F04F
:1017A00079F928780A24B0FBF4F104FB110007282A
:1017B00005D100F045F90B21E02001F0C3FF2878A6
:1017C000B0FBF4F104FB1100022803D10B21E0204F
:1017D00001F0CCFF2878322805D100F007F90C2160
:1017E000E02001F0AFFF28785A2804D100F07CF9FE
:1017F0006888401C68806888B0FBF4F104FB110025
:10180000052803D10D21E02001F09CFF6888B0FB82
:10181000F4F104FB110018B90D21E02001F0A6FF3E
:101820006888B0F5967F03D10E21E02001F08AFF91
:10183000688818B90E21E02001F098FF6888B0F59B
:10184000167F00D36E8002F02DFCA888401CA88073
:1018500070BD0000000C0040080000200450002073
:101860003EB501210820FFF775FE6320ADF80400A6
:1018700040F2CF20ADF8000000200B4CADF8060080
:10188000ADF802006946204600F032F801212046FA
:1018900000F00CF801221146204600F020F801214A
:1018A000204600F006F83EBD000C0040C94301820E
:1018B00070470029018802D041F0010101E021F0C8
:1018C00001010180704702460020138A92890B4271
:1018D00002EA010202D0002A00D001207047002A4B
:1018E000828901D00A4300E08A4382817047000068
:1018F00030B502881B4C1C4DA0420DD0A8420BD025
:10190000B0F1804F08D0194B984205D0184B98423F
:1019100002D0184B984203D122F070034A881A4330
:10192000154B984206D0154B984203D022F44073D1
:10193000CA881A4302808A8882850A880285A04262
:101940000AD0A84208D00E4A904205D00D4A9042D3
:1019500002D00D4A904201D1097A0186012181828B
:1019600030BD0000002C0140003401400004004064
:1019700000080040000C004000100040001400402F
:101980000040014000440140004801402DE9F04181
:10199000134D144840F22666E98809B1A97829B1A7
:1019A0003146BDE8F041002200F0B0B90E4C0746C8
:1019B000617841F0800100F0C5F9012231463846D6
:1019C00000F0A4F90020E98804E02218527822549B
:1019D000401C80B28842F8D3491EE980BDE8F081FE
:1019E0006C0000200038014020150020F0B50020D8
:1019F000114C124B012504EB400101F50052164633
:101A00009A60020904EB420201F5805102F5A062DE
:101A1000C3E9052100F00F07128805FA07F797437D
:101A200005D10A883688B24201D2521C0A80401C75
:101A300080B2C828DFD3F0BD045000200800002089
:101A4000F0B5C820114C124B012504EB400101F503
:101A5000005216469A60020904EB420201F58051D9
:101A600002F5A062C3E9052100F00F07128805FA0C
:101A700007F7974305D10A883688B24201D2521C33
:101A80000A80401C80B2F628DFD3F0BD045000204D
:101A900008000020F0B5F620114C124B012504EB94
:101AA000400101F5005216469A60020904EB420219
:101AB00001F5805102F5A062C3E9052100F00F078E
:101AC000128805FA07F7974305D10A883688B2428B
:101AD00001D2521C0A80401C80B2FA28DFD3F0BD2C
:101AE0000450002008000020F0B5FA20114C124BE1
:101AF000012504EB400101F5005216469A600209E7
:101B000004EB420201F5805102F5A062C3E9052110
:101B100000F00F07128805FA07F7974305D10A88E6
:101B20003688B24201D2521C0A80401C80B2FF2883
:101B3000DFD9F0BD045000200800002010B51B4C78
:101B4000216C11F8020BC0F346002084216409883F
:101B50000A0A862A02D0882A0AD103E0C9B200EB19
:101B6000C11004E0C9B200EBC11000F57A70208406
:101B7000A07FC00716D00E4A607902EB400101F544
:101B80000051E163238C02EB430202F5804212888C
:101B90000A8002F0D1F96179BDE810404FF420705D
:101BA000FFF790B9BDE8104000F0D4BD240000203C
:101BB0000450002070B51F4C40F2255529462046A0
:101BC00000F085F8012805D12946204600F037F8B5
:101BD000FFF748FD0821204600F072F8012806D1E1
:101BE0000821204600F028F8204600F0A7F840F22F
:101BF00027752946204600F06AF8012808D12946B1
:101C0000204600F01CF800222946204600F07EF80D
:101C100040F226652946204600F059F8012807D1F0
:101C20002946204600F00BF8BDE87040FFF7AEBE35
:101C300070BD000000380140C943018070470A0AA6
:101C400001219140C943018070470000174910B538
:101C500088420AD101218C032046FFF79FFC2046D1
:101C6000BDE810400021FFF799BC1149884202D11C
:101C700001214C0410E00F49884202D101218C045B
:101C80000AE00D49884202D10121CC0404E00B494D
:101C900088420AD101210C052046FFF767FC204647
:101CA000BDE810400021FFF761BC10BD00380140C5
:101CB0000044004000480040004C004000500040FC
:101CC0000246002012880A4200D00120704770B5F9
:101CD00001F01F0501260024C1F3421306FA05F2A4
:101CE000012B0FD0022B0FD0838A4FEA11210088DD
:101CF000134206FA01F600EA060001D000B1012401
:101D0000204670BD8389F0E7038AEEE710B5C1F382
:101D1000421301F01F040121A140012B07D0022B27
:101D200007D01430002A026805D00A4304E00C30C2
:101D3000F8E71030F6E78A43026010BD8088C0F3F0
:101D400008007047C1F3080181807047FEE702E098
:101D500008C8121F08C1002AFAD170477047002036
:101D600001E001C1121F002AFBD1704770B5084D78
:101D7000A87FC0070AD000F045FC044600F042FCF2
:101D800020442885BDE8704000F046B870BD0000D2
:101D90002400002070B51E4D1E4E2A46296C128D5F
:101DA00031F8023B1C0A822C12D0842C1AD0862CCB
:101DB00022D0882C0BD100EB032080B2688320F066
:101DC0000100304400F58040A0F8D027296470BDA0
:101DD00000EB032080B2688320F00100304400F55E
:101DE000805012E000EB032080B2688320F00100F5
:101DF0003044A0F8002AE9E700EB032080B26883B2
:101E000020F00100304400F580400280DEE7000051
:101E100024000020045000200C4B196C31F8020BF8
:101E2000020A822A05D0842A07D0862A01D0882A6D
:101E30000AD1C0B21964FFF7ADBFC0B2D88419642B
:101E4000188D9884FEF716BE70470000240000200D
:101E500010B5094C607802F0F7F8C8206070207067
:101E6000FEF732FC054906204870A4F10C00012160
:101E7000C1800521817010BD780000202015002050
:101E80000648C82141700170054906204870034882
:101E900001210C38C1800521817070477800002035
:101EA000201500202DE9F05FF84CDFF8E4B3DFF8EF
:101EB000D893C4F844909BF8C431FFF7B7FBF548BA
:101EC000D0F83401DFF8D0830027DFF8D0A3F44E38
:101ED000012590B1FFF7AAFB0021E02001F032FCC0
:101EE0000121E02001F042FCA6F8187EE77127717D
:101EF0009AF8001000294DD0EFE29AF8001001295D
:101F000010D0092B10D0FFF791FB0021E02001F049
:101F100019FC0121E02001F029FCA6F8187EE771E8
:101F20002771DAE28AF80070C8F88C710021E0208D
:101F300001F01CFC0121E02001F004FCE07948B92B
:101F400001F0B0FBE57101F0E1FB18B109218BF85C
:101F5000C411B6E2207938B90221E02001F006FC74
:101F60000321E02001F0EEFB1420C4F84090A6F815
:101F7000180E07014FF4A8784FF4B0794FF4B87AEF
:101F80004FF4907B226C1188080A5D2873D033DCF3
:101F900072D200E09FE2DFE800F0E96F6F6F6F6FD1
:101FA000936F6F6F6F6F6F6F966F6F6F6F6F6F6FF6
:101FB0006F6F6F6F6F6F6F6F6F6F99F4E7E6E5E4A8
:101FC000E36FE2E1E0DFDEDDDCDB9CFDD9D8D7D6D4
:101FD000D56FD4D3D2D1D0CFCECD9FCCCBCAC9C8A8
:101FE000C76FC6C5C4C3C2C1C0BFEBBDBCBBBAB915
:101FF000B86FB7B6B5B4B3007D2870D015DCA0F1CA
:102000005E001F28C4D2DFE800F0EEEDB6EFEBEA89
:10201000E9E8E737E6E5E4E3E2E1E0DFB9F4DDDC57
:10202000DBDAD937D8D7D6D5D400D92858D024DC94
:10203000CA2856D010DCC52854D006DC7E2852D0E1
:102040007F2851D0B02817D130E2C6284DD0C828FB
:102050004CD0C928F7D180E1CF2848D006DCCB2866
:1020600046D0CC2845D0CD28EDD1E2E1D52841D0CD
:10207000D828E8D155E1D3E120E2E9283BD010DCB3
:10208000DD2839D006DCDA2837D0DB2836D0DC284A
:10209000D9D1B6E1DF2832D0E52868D0E828D2D1FE
:1020A00044E1ED2872D006DCEA2870D0EB286FD02E
:1020B000EC28C8D1A8E1EF286BD0FF28C3D1EEE10E
:1020C00001F02EFD5EE701F00DFD5BE7C9B2384679
:1020D00059E0C9B238465FE0C9B2384661E0A5E1CF
:1020E0003EE155E1E1E0BCE1CDE1FFE016E1CDE10B
:1020F00069E183E1DCE036E19EE14CE166E1C8E1C3
:1021000073E157E13BE11FE1FFE0E3E0B5E0A2E06E
:102110008FE07CE048E02BE0ACE199E17DE161E11A
:1021200045E129E10DE1EDE0D0E0A3E090E07DE0C4
:102130006AE034E09BE188E16CE150E134E118E1D0
:10214000FCE0DCE0BEE092E07FE06CE059E021E002
:102150008AE177E15BE13FE123E107E1EBE0CBE0FE
:10216000ACE081E06EE05BE048E00AE0A1E1A2E0E3
:10217000C9B238461AE0C9B2384637E0C9B2384663
:1021800039E0C9B24046FEF79DFB8BE157E105E11E
:102190001FE181E1C9B24046FEF7CCFB82E1C9B242
:1021A0004046FEF7A7F87DE1C9B24046FEF7C0F809
:1021B00078E120E104E1E8E0CCE0ACE092E071E01D
:1021C0004FE03CE029E014E05AE147E12BE10FE168
:1021D000F3E0D7E0BBE09BE080E051E03EE02BE0A5
:1021E00018E001E049E136E1C9B24046FEF72EFEB3
:1021F00058E1C9B24046FEF747FE53E1C9B248462E
:10220000C1E7C9B24846C7E7C9B24846C9E7C9B23B
:102210004846CBE7C9B24846E8E7C9B24846EAE7CC
:10222000C9B25046AFE7C9B25046B5E7C9B2504649
:10223000B7E7C9B25046B9E7C9B25046D6E7C9B206
:102240005046D8E7C9B258469DE7C9B25846A3E7F9
:10225000C9B25846A5E7C9B25846A7E7C9B2584619
:10226000C4E7C9B25846C6E7C9B2C0208BE7C9B2B5
:10227000C02091E7C9B2C02093E7C9B2C02095E75A
:10228000C9B2C020B2E700005C6000082400002052
:102290000050002000002242008021420000002067
:1022A00004500020C9B2C020A5E7C9B2C02020E078
:1022B000C9B2C02037E0C9B2C02039E0C9B24FF47A
:1022C000807060E7C9B24FF4807065E7C9B24FF41F
:1022D000807066E7C9B24FF4807067E7C9B24FF407
:1022E000807083E7C9B24FF4807084E7C9B24FF4BD
:1022F0008070FEF7E7FDD5E0C9B2002043E7C9B220
:10230000002049E7C9B200204BE7C9B200204DE7E1
:10231000C9B200206AE7C9B200206CE7C9B2002048
:10232000E7E7C9B20020FEF721F8BBE0C9B2002000
:10233000FFF764F9B6E0C9B2102024E7C9B2102053
:102340002AE7C9B210202CE7C9B210202EE7C9B283
:1023500010204BE7C9B210204DE7C9B21020C8E7E2
:10236000C9B21020DFE7C9B21020E1E7C9B22020CE
:1023700009E7C9B220200FE7C9B2202011E7C9B28E
:10238000202013E7C9B2202030E7C9B2202032E76D
:10239000C9B22020ADE7C9B22020C4E7C9B22020CD
:1023A000C6E7C9B23020EEE6C9B23020F4E6C9B2C1
:1023B0003020F6E6C9B23020F8E6C9B2302015E781
:1023C000C9B2302017E7C9B2302092E7C9B2302035
:1023D000A9E7C9B23020ABE7C9B24020D3E6C9B201
:1023E0004020D9E6C9B24020DBE6C9B24020DDE694
:1023F000C9B24020FAE6C9B24020FCE6C9B240208A
:1024000077E7C9B240208EE7C9B2402090E7C9B251
:102410005020B8E6C9B25020BEE6C9B25020C0E68E
:10242000C9B25020C2E6C9B25020DFE6C9B250207E
:10243000E1E6C9B250205CE7C9B2502073E7C9B2E7
:10244000502075E7C9B2F0209DE6C9B2F020A3E69E
:10245000C9B2F020A5E6C9B2F020A7E6C9B2F020C3
:10246000C4E6C9B2F020C6E6C9B2E0208BE6C9B224
:10247000E02091E6C9B2E02093E6C9B2E02095E6FB
:10248000C9B2E020B2E6C9B2E020B4E6C9B2E020A9
:102490002FE7C9B2E02046E7C9B2E02048E7C8B25A
:1024A00001F05CFB206C801C20646BE5921C2264B4
:1024B00068E5C8B21C2804D00F2802D000F0B6FE90
:1024C00060E525710221E02001F03CF90321E020C4
:1024D00001F04CF903E08AF80050C8F88C51A6F8D6
:1024E000025EBDE8F09F000030B50C280ED2084B0C
:1024F000084C00214FF4006501EBC02292B29A5CB7
:1025000024F81120491C89B2A942F5D330BD00003E
:10251000006000081C0500203948006C0088010A92
:102520008B294AD00BDCA1F180010B291FD2DFE8F7
:1025300001F02024282C3034371E3B3E4100A929CD
:102540004DD00CDC8E2941D004DC8C2938D08D296B
:102550000DD138E08F293CD0A82908D13CE0AA2928
:1025600040D0AB2941D0AC2942D0AD2943D0022084
:102570007047C1B24FF4A0703FE0C1B24FF4A870F1
:102580003BE0C1B24FF4B07037E0C1B24FF4B87065
:1025900033E0C1B24FF490702FE0C1B2C0202CE004
:1025A000C1B24FF4807028E0C1B2002025E0C1B272
:1025B000102022E0C1B220201FE0C1B230201CE078
:1025C000C1B2402019E0C1B2502016E0C1B2F020E3
:1025D00013E0C1B2E02010E0C1B260200DE0C1B252
:1025E00070200AE0C1B2802007E0C1B2902004E070
:1025F000C1B2A02001E0C1B2B020FEF783B9000053
:102600002400002010B5114C216C31F8020B020A95
:10261000803A092A17D2DFE802F0051605160C16D3
:1026200005160500C0B22083216401F0B3F82083B1
:1026300009E0C0B2A0842164FEF71AF9A08C2083BF
:10264000206C801C2064208B10BD00002400002022
:1026500010B40C4A0C49002000F5E06332F8104039
:10266000401C80B221F813407E28F5D30749092089
:1026700081F8C4010649C8200870487010BC01F0F8
:1026800045BB0000EE44000804500020005000202C
:1026900078000020F0B4164A144D144E508C05EB0F
:1026A000400000F5804004885484917905EB410096
:1026B00000F52060D06301F00F0301229A4093B22D
:1026C0000A0905EB42020588080906EB400002F5FD
:1026D000F072B0F8E001A54201D2984300E018433F
:1026E0001080F0BC4FF41C70FEF7ECBB04500020CF
:1026F00024000020F0B4154A154B0124106C10F88A
:10270000021B1064007801EB002085B2558491799A
:102710000F4801F00F0700EB410000F52060D06387
:102720000688080903EB4000BC40B0F8E03100F532
:10273000F070AE42D06301D2A34300E02343038094
:10274000F0BC4FF41C70FEF7BDBB0000240000205D
:102750000450002010B5084C607901F0BDFB617990
:102760004FF42070FEF7AEFB6179BDE810404FF4E6
:102770008070FEF7A7BB00002400002070B50B4D51
:10278000A87FC00711D0FFF73DFF04B2FFF73AFF63
:1027900000B294FBF0F1298594FBF0F100FB1140AD
:1027A0006885BDE8704001F023B970BD24000020A9
:1027B000F0B5214E214F3246316C138D528D31F8D8
:1027C000024B250A822D14D0842D1CD0862D26D0B4
:1027D000882D0DD100EB042080B2B08320F00100E1
:1027E000384400F58040A0F8D037A0F8D2273164F3
:1027F000F0BD00EB042080B2B08320F0010038442B
:1028000000F5805014E000EB042080B2B08320F08B
:1028100001003844A0F8003AA0F8022AE7E700EBEC
:10282000042080B2B08320F00100384400F58040DD
:1028300003804280DBE700002400002004500020D9
:10284000F0B41A48184A184E418C02EB410101F5C8
:1028500080410C884484817902EB410303F52063B5
:10286000C36301F00F020120904082B21D88080965
:1028700006EB4000A54207D24FF49C66365A32EA76
:10288000060601D06D1C1D80ABB200F5F070A342AE
:10289000038801D2934300E013430380F0BC4FF45C
:1028A0001C70FEF70FBB0000045000202400002025
:1028B000F0B4DFF880C001221F4FDCF8400010F8B0
:1028C000021BCCF84000007801EB002084B2ACF889
:1028D00022409CF80610184801F00F0300EB41005D
:1028E0009A4000F52060CCF83C0003880E0995B2B0
:1028F00007EB4606A34205D2B6F8E064B54301D023
:102900005B1C03800B480C4D9BB28079000905EBE2
:10291000400000F5F070A342CCF83C00038801D2DF
:10292000934300E013430380F0BC4FF41C70FEF7A8
:10293000C9BA0000240000200450002010B50D4C3E
:102940000D4A206C10F8021B2064007801EB002176
:102950002184607902EB400202F50052E2631180AB
:1029600001F0EAFA6179BDE810404FF42070FEF7FB
:10297000A9BA0000240000200450002010B5134C18
:10298000D4E91001401AC0F34F0000F0A9FE00285E
:10299000A07F4FEAC07001D080B10BE050B1D4E904
:1029A0001001401AC0F34F0001F038FABDE81040A2
:1029B000FFF7DCB9206C0830206410BDD4E91001A9
:1029C000401AC0F34F0001F0E3F9F3E724000020C0
:1029D00070B5194DD5E91001401AC0F34F0000F051
:1029E0007FFE0646FFF798FD0446FF2E14D03CB14B
:1029F000D5E91001401A0024C0F34F0001F00EFA8F
:102A0000E88BC10701D0012C12D020F00100E8832F
:102A1000286C801C286470BD08B10024F0E7D5E95B
:102A20001001401A0124C0F34F0001F0B1F9E7E7AB
:102A300040F00100EBE700002400002070B5184DC5
:102A4000D5E91001401AC0F34F0000F049FE0446DA
:102A5000FFF762FD84B1FF2810D0D5E91001401ABC
:102A60000024C0F34F0001F093F9E88BC10710D0A8
:102A70007CB140F001000EE0FF2801D00024F4E713
:102A8000D5E91001401A0124C0F34F0001F0C6F946
:102A9000EBE720F00100E883286C801C286470BDFF
:102AA0002400002010B5114C206C0088010AA839C0
:102AB00006291AD2DFE801F00306090C0F12C1B291
:102AC00060200DE0C1B270200AE0C1B2802007E0B2
:102AD000C1B2902004E0C1B2A02001E0C1B2B02098
:102AE000FDF708FC206C801C206410BD2400002031
:102AF00010B5114C206C0088010AA83906291AD299
:102B0000DFE801F00306090C0F12C1B260200DE0EE
:102B1000C1B270200AE0C1B2802007E0C1B29020AB
:102B200004E0C1B2A02001E0C1B2B020FDF700FC7A
:102B3000206C801C206410BD2400002010B5134CB4
:102B4000D4E91001401AC0F34F0000F0C9FD00287D
:102B5000A07F4FEAC07001D080B10BE050B1D4E942
:102B60001001401AC0F34F0001F058F9BDE81040C1
:102B7000FDF70CBD206C001D206410BDD4E91001D0
:102B8000401AC0F34F0001F003F9F3E724000020DE
:102B900010B5134CD4E91001401AC0F34F0000F0F7
:102BA0009FFD0028A07F4FEAC07001D080B10BE0EC
:102BB00050B1D4E91001401AC0F34F0001F02EF9D2
:102BC000BDE81040FFF7DABD206C0830206410BD6E
:102BD000D4E91001401AC0F34F0001F0D9F8F3E72F
:102BE0002400002010B5134CD4E91001401AC0F3A2
:102BF0004F0000F075FD0028A07F4FEAC07001D0A3
:102C000080B10BE050B1D4E91001401AC0F34F007D
:102C100001F004F9BDE81040FDF714BE206C001D62
:102C2000206410BDD4E91001401AC0F34F0001F038
:102C3000AFF8F3E72400002070B51B4CD4E9100175
:102C4000401AC0F34F0000F04BFD0546FFF764FC4F
:102C50004FF6FF71FF2D11D088B1E08B01EA4000E3
:102C600020F00100E083D4E91001401AC0F34F00C6
:102C700001F0D4F8206C801C206470BD30B1E08B72
:102C800001EA400020F00100E083F3E7E08B01EA75
:102C9000400040F00100E083D4E91001401AC0F385
:102CA0004F0001F075F8E5E72400002010B5114C45
:102CB000206C0088010AA83906291AD2DFE801F041
:102CC0000306090C0F12C1B260200DE0C1B27020E2
:102CD0000AE0C1B2802007E0C1B2902004E0C1B296
:102CE000A02001E0C1B2B020FDF724FE206C801CC2
:102CF000206410BD2400002070B51C4CD4E91001E4
:102D0000401AC0F34F0000F0EBFC0546FFF704FC4F
:102D10004FF6FF7195B1FF2812D0E08B01EA400019
:102D200020F00100E083D4E91001401AC0F34F0005
:102D300001F02EF8206C801C206470BDFF2806D0A6
:102D4000E08B01EA400020F00100E083F2E7E08B35
:102D500001EA400040F00100E083D4E91001401A8C
:102D6000C0F34F0001F05AF8E4E70000240000200F
:102D700010B5114C206C0088010AA83906291AD216
:102D8000DFE801F00306090C0F12C1B260200DE06C
:102D9000C1B270200AE0C1B2802007E0C1B2902029
:102DA00004E0C1B2A02001E0C1B2B020FDF78AFD6D
:102DB000206C801C206410BD2400002010B5154C30
:102DC000D4E91001401AC0F34F0000F089FC00283C
:102DD000A07F4FEAC07001D098B10EE068B1D4E98D
:102DE0001001401AC0F34F0001F018F8FFF70AFC79
:102DF0002085BDE81040FFF70FB8206C0830206434
:102E000010BDD4E91001401AC0F34F0000F0C0FF1C
:102E1000F3E700002400002010B5134CD4E91001A2
:102E2000401AC0F34F0000F05BFC0028A07F4FEA7F
:102E3000C07001D080B10BE050B1D4E91001401A4C
:102E4000C0F34F0000F0EAFFBDE8104000F0B6BD4F
:102E5000206C0830206410BDD4E91001401AC0F382
:102E60004F0000F095FFF3E72400002070B5194DE6
:102E7000D5E91001401AC0F34F0000F031FC0646BE
:102E8000FFF74AFB0446FF2E0CD03CB1D5E91001F8
:102E9000401A0024C0F34F0000F0C0FFE88BC107C8
:102EA00015D10BE008B10024F8E7D5E91001401A6C
:102EB0000124C0F34F0000F06BFFEFE7012C06D0B8
:102EC00020F00100E883286C801C286470BD40F06D
:102ED0000100F7E72400002010B5114C206C008899
:102EE000010AA83906291AD2DFE801F00306090C05
:102EF0000F12C1B260200DE0C1B270200AE0C1B271
:102F0000802007E0C1B2902004E0C1B2A02001E01F
:102F1000C1B2B020FDF7B8FF206C801C206410BD4A
:102F20002400002070B5194DD5E91001401AC0F3F6
:102F30004F0000F0D5FB0446FFF7EEFA6CB1FF2816
:102F40000DD0D5E91001401A0024C0F34F0000F065
:102F50001FFFE88BC1070ED10CE0FF2801D0002431
:102F6000F7E7D5E91001401A0124C0F34F0000F043
:102F700055FFEEE714B140F0010001E020F0010040
:102F8000E883286C801C286470BD000024000020A9
:102F900010B5114C206C0088010AA83906291AD2F4
:102FA000DFE801F00306090C0F12C1B260200DE04A
:102FB000C1B270200AE0C1B2802007E0C1B2902007
:102FC00004E0C1B2A02001E0C1B2B020FDF73EFF95
:102FD000206C801C206410BD2400002010B5114C12
:102FE000206C0088010AA83906291AD2DFE801F00E
:102FF0000306090C0F12C1B260200DE0C1B27020AF
:103000000AE0C1B2802007E0C1B2902004E0C1B262
:10301000A02001E0C1B2B020FDF754FF206C801C5D
:10302000206410BD2400002010B5104C206C0088D6
:10303000010A802909D081290BD0822912D0832945
:103040000FD1C1B24FF4B87006E0C1B24FF4A07016
:1030500002E0C1B24FF4A870FDF734FF206C801C71
:10306000206410BDC1B24FF4B070F5E72400002019
:1030700010B5114C206C0088010AA83906291AD213
:10308000DFE801F00306090C0F12C1B260200DE069
:10309000C1B270200AE0C1B2802007E0C1B2902026
:1030A00004E0C1B2A02001E0C1B2B020FEF7A6FA50
:1030B000206C801C206410BD2400002010B5104C32
:1030C000206C0088010A802909D081290BD082292F
:1030D00012D083290FD1C1B24FF4B87006E0C1B24B
:1030E0004FF4A07002E0C1B24FF4A870FEF786FA68
:1030F000206C801C206410BDC1B24FF4B070F5E7A5
:103100002400002010B50E4C206C0088010A86298E
:1031100008D08E2905D1C0B2FEF74CFA206C801C75
:10312000206410BDA17FC0B2C90701D000F0D4FE59
:10313000206C01784FF46070FDF7C4FEEEE70000EC
:103140002400002010B5114C206C0088010AA83919
:1031500006291AD2DFE801F00306090C0F12C1B2EA
:1031600060200DE0C1B270200AE0C1B2802007E00B
:10317000C1B2902004E0C1B2A02001E0C1B2B020F1
:10318000FDF7F4F8206C801C206410BD24000020A2
:1031900010B5104C206C0088010A802909D08129C3
:1031A0000BD0822912D083290FD1C1B24FF4B8704D
:1031B00006E0C1B24FF4A07002E0C1B24FF4A870B3
:1031C000FDF7D4F8206C801C206410BDC1B24FF410
:1031D000B070F5E72400002010B5134CD4E91001BD
:1031E000401AC0F34F0000F07BFA0028A07F4FEA9E
:1031F000C07001D080B10BE050B1D4E91001401A89
:10320000C0F34F0000F00AFEBDE8104000F030BEF1
:10321000206C0830206410BDD4E91001401AC0F3BE
:103220004F0000F0B5FDF3E72400002070B5E24C3C
:10323000206C30F8021BB1F5E57F74D035DC3829FD
:1032400072D01ADC072970D008DCA1F1020105292F
:103250006CD2DFE801F080858A8F940010296ED04F
:1032600004DC0C296CD00F2960D170BDD24A122920
:10327000D28B6ED0282959D10AE1B1F5E17F69D00E
:103280000ADCA1F13A01092950D2DFE801F09A4F96
:103290009F4FA44F8C4F9100A1F2C311052945D235
:1032A000DFE801F0BCC1C6CED300B1F5F17F31D06B
:1032B00020DC4FF6FF75B1F5E87F7DD008DCA1F288
:1032C000CB11052932D2DFE801F0CACFD4D9DE0014
:1032D000B1F5ED7F71D006DCB1F5E97F6DD0B1F5C8
:1032E000EA7F23D1FEE0B1F5EE7F67D0B1F5F07F44
:1032F0001CD124E141F23A03CA1A99427DD016DC6E
:10330000B1F5F67F7AD006DCB1F5F27F76D0B1F573
:10331000F57F0BD122E101F6D871B1F500516ED0E5
:10332000102903D1EDE095E038E02DE070E0062AA9
:1033300066D006DC022A7DD0042A69D1F0E04FE095
:1033400027E0082A77D0A2F2C572B2F5604F5FD1AC
:103350001BE14AE05DE02064BDE87040FFF73EBE3F
:103360002064BDE87040FFF7EDBE2064BDE870400A
:10337000FFF77EBE2064BDE87040FFF755BE2064B5
:10338000BDE87040FFF704BF2064BDE87040FFF760
:1033900095BE2064BDE87040FFF7B4BE2064BDE870
:1033A0007040FEF7E3BC2064BDE87040FDF74ABA08
:1033B0002064BDE8704002E077E089E092E0FDF72C
:1033C000E5B82064BDE8704000F052BD2064BDE85F
:1033D000704000F0F3BA2064BDE87040FFF7CEB94A
:1033E0002064BDE87040FDF793B82064D1073FF436
:1033F0003CAF0088010A882903E087E0B8E07BE061
:1034000093E07FF432AFC0B2FDF758F8206C801C17
:1034100049E02064BDE87040FFF7AABC2064BDE825
:103420007040FFF743BC2064BDE87040FFF73ABB33
:10343000206401E06FE07DE0BDE87040FFF758BB1D
:103440002064BDE87040FFF7A3BD2064BDE8704074
:10345000FFF742BD2064BDE87040FFF74DBC20641B
:10346000BDE87040FFF7E8BB2064BDE87040FFF79F
:10347000E5BA2064BDE87040FFF7AABA2064BDE851
:103480007040FFF74FBD2064BDE87040FFF7EEBC11
:103490002064D10706D0FFF7B5F82085BDE870405D
:1034A000FEF7BABC0830206470BD2064FFF7AAF8AC
:1034B00006B2FFF7A7F800B2864203D1E08B05EA17
:1034C000400048E0E08B05EA40005BE0E08370BD2F
:1034D0002064FFF797F806B2FFF794F800B286422F
:1034E000F0DDEBE72064FFF78DF806B2FFF78AF80E
:1034F00000B28642E6DAE1E72064BDE87040FFF7FB
:103500005DBC2064BDE87040FFF738BA2064BDE8B8
:103510007040FFF761BE2064BDE87040FFF77CBCDF
:103520002064BDE87040FFF733BB2064BDE8704005
:10353000FFF758BB2064BDE87040FFF7FFBA206476
:10354000FFF760F805B2FFF75DF800B2854218D1C9
:10355000E08BC10715D040F00100B7E72064FFF70A
:1035600051F805B2FFF74EF800B28542F0DC08E0F2
:103570002064FFF747F805B2FFF744F800B2854230
:10358000E6DBE08B20F00100A0E70C49A1F5017219
:103590000888E083106820643E2001EB40035B88CC
:1035A00021F8103002EB80035B6842F82030401EA7
:1035B00010F0FF00F1D170BD240000209C04002019
:1035C00070B505220C0ACBB2B0F5004F14D3A0F5AC
:1035D00000400B4980B245F6DB650E5C9E4205D18A
:1035E0000E187678A64201D1002201E0801C80B23C
:1035F000A84201D8032AF0D800F5004080B270BD7F
:1036000000600008F0B51C4D6889B0F5004F31D35B
:103610001A4C6279A17902EB012189B2FFF7D0FF40
:103620006881022161703121A170010AC2B214487F
:10363000032700EB111301F00F011B78E370415CCD
:10364000217100EB121602F00F0236786671825C6F
:103650003133194431441144A271C91CC9B200EB81
:103660001112E771127801F00F012272405C607252
:103670000920E880F0BD00006C000020201500202B
:10368000EE46000830B50548054A06238588012125
:1036900053700524C180847030BD00006C00002090
:1036A0002015002070B50C4B0A480C4D1864002002
:1036B000B02441F63F76196C0A88B4EB122F02D180
:1036C000D2B245F82210891C401C80B21964B04265
:1036D000F1D370BD5C60000824000020940000203D
:1036E000C10800F007000122064B824090B2064A52
:1036F00019815881515C884301D000207047FF2018
:10370000704700002400002000D200200C4A0B4823
:1037100041F63E7310640020116C401C891C11643A
:10372000098880B20F2901D09842F5D341F63D7146
:10373000884201D901207047002070475A60000874
:1037400024000020074A012302EB40000A0900EB95
:103750004200054A01F00F018B40D06302889A4372
:10376000028070470450002024000020074A0123F3
:1037700002EB40000A0900EB4200054A01F00F018C
:103780008B40D06302881A430280704704500020A7
:103790002400002070B51F4B1F4C196C31F8022B10
:1037A000150A803D092D14D2DFE805F00513081332
:1037B00015131E13280000EB022008E000EB022086
:1037C00080B220F00100204400F5805014E0D8823F
:1037D0001964D88A70BD00EB022080B220F001008D
:1037E0002044B0F8000AF2E700EB022080B220F09B
:1037F0000100204400F580400088E8E700EB02204B
:1038000080B220F00100204400F58040B0F8D007DD
:10381000DDE70000240000200450002010B5FCF774
:10382000BDFDBDE8104000F0D9BD0000002442F20B
:103830001070FCF7C2FEFFF7F1FF0920FDF758FFFB
:103840001E491D480860FFF7E9FF0620FCF7B5FE9A
:103850001B4D2846FEF7FAF90620FCF7AEFE00F0F5
:1038600093FB012240F225512846FEF74FFAFDF75F
:10387000F7FFFDF77DFA1349052000260870124F67
:103880004FF4487500F0AAFD00F090FDFEF70AFB2A
:103890003878012806D0052808D0002CF2D0641E04
:1038A000A4B2EFE73E70FDF70DFE00E03E70FEF7BC
:1038B0006DF82C46E6E70000AA55AA55F0D5002081
:1038C00000380140010000206E0000202DE9F84F73
:1038D000364E05468946317000F5004080B20F2112
:1038E000FFF76EFE4844A0F5004084B25B2D24D95A
:1038F000A5F15C0001044FEA115C3178A4F15C0091
:103900004908C0F34E00C00801F00703CF08337028
:10391000274903E0C619401E8A5580B201EB000218
:103920000E5C12F8012C604502EB062202FA03F24B
:103930004FEA1222EED138440A544FEAD42BE00A5F
:103940000090B0EBD52F02D1C5F30A0600E00026A7
:10395000BBEBD42F03D1C4F30A077F1C01E04FF463
:1039600000670098FEF7C0FDE30ADB023046DFF88F
:1039700044C0DFF844A07A1C0AE003EB0008A8EB7F
:10398000090189B21CF801802AF81080401C80B21D
:103990009042F2D3009800F057FBB81B201A84B273
:1039A00005EB0900A042CAD3BDE8F88F6C000020E7
:1039B00000D20020006000081C05002070B50B4DEF
:1039C000A87FC00710D0FEF71DFE0446FEF71AFEC2
:1039D0004443E01704EB104021462985000C68851C
:1039E000BDE8704000F004B870BD00002400002065
:1039F0000C4B196C31F8020B020A822A05D0842A7A
:103A000007D0862A01D0882A0AD1C0B21964FEF7ED
:103A1000CFBEC0B2D8841964188D9884FDF72AB837
:103A200070470000240000202DE9F041294F2A4E64
:103A30007879B979081A10F0FF0105D07089A0F5DE
:103A4000004080B2FFF742FF24490020224D087059
:103A500064200C354FF4004228706870F97838798A
:103A600002EB012108443081B87970700024DFF83E
:103A7000708020E030890219D10A2970687881426B
:103A800007D13819C379484202EBC02128F8113018
:103A90000FE000F0D9FA2878FEF726FD2878687044
:103AA000328939192244404202EBC022C97928F8F0
:103AB0001210641CA4B270788442DBD3287800F022
:103AC000C3FA062078700120F0800520B070BDE8B0
:103AD000F0810000201500206C0000202B00002049
:103AE0001C05002010B50D4C206C10F8021BA171B4
:103AF00020640088000A802804D086280DD1FCF7B5
:103B000023FD07E0A07FC00702D0FEF7D1FE01E051
:103B1000FEF7F0FD206C801C206410BD2400002006
:103B200010B50D4C206C10F8021B617120640088E8
:103B3000000A802804D086280DD1FDF7FFFF07E09A
:103B4000A07FC00702D0FEF7F9FE01E0FEF702FEFB
:103B5000206C801C206410BD2400002070B51B4B1D
:103B6000F838D98B4A0841F0010421F001050628F4
:103B700021D2DFE800F0030B13212027DA83D007DE
:103B800009D0C80738B142F0010013E042EA010051
:103B9000DA83C007F6E722F001000BE04FF6FF7072
:103BA00000EA4100D883810702D540F0010001E01E
:103BB00020F00100D88370BD880701D5DC8370BD7B
:103BC000DD8370BDC807FBD1F8E7000024000020AA
:103BD00070B50C2813D20021094A0A4CC3024FF4D5
:103BE000806503EB410080B2165C1044407806EB20
:103BF000002024F81100491C89B2A942F1D370BDFC
:103C0000006000081C0500202DE9F043DFF874C0B7
:103C10000220DFF878808CF80100002108461A4D58
:103C2000DFF86C9098F80170B8F8086012E083191A
:103C300003EB09020CEB40031479401C05EB141252
:103C400004F00F0412789A702C5DDC702244114449
:103C5000C9B280B2B842EAD30CEB40020323C91CBC
:103C60009370C9B205EB111301F00F011B78D370EB
:103C7000695C1171042101EB4000A8F80600BDE861
:103C8000F083000020150020EE4600086C000020A4
:103C900000500020F0B51A4F0220DFF86CC0787099
:103CA000184D00210846A5F2022E9CF8016010E094
:103CB0001EF8004007EB400305EB141204F00F045C
:103CC00012789A702C5D401C22441144DC70C9B2F9
:103CD00080B2B042ECD307EB40020323C91C9370BF
:103CE000C9B205EB111301F00F011B78D370695CA9
:103CF0001171042101EB4000ACF80600F0BD00009A
:103D000020150020EE4600086C00002030B500248D
:103D10000A20FFF75DFF1C491C4A42F2F41042F2F0
:103D2000B63331F8145022F81050641C401C80B295
:103D3000A4B29842F5D340F2645040F2965331F861
:103D4000145022F81050641C401C80B2A4B2984257
:103D5000F5D340F6640040F6960331F8145022F88B
:103D60001050641C401C80B2A4B29842F5D32020AD
:103D700031F8143022F81030641C401C80B2A4B218
:103D80004028F5D330BD00001C0500200450002061
:103D9000C108074A00F007030120118298405082B1
:103DA000C0431070034A535C0340535470470000F3
:103DB0002400002000D20020F0B5154D154E002043
:103DC00085F85702E91C32463161938803215C1E55
:103DD00007E03269491C89B212F8017B326138442C
:103DE000C0B2A142F5DBE91811F8012C0A4901EB38
:103DF00010142478A24207D100F00F00EA5C085C9E
:103E0000824201D1012000E0052085F85702F0BD73
:103E1000821700206C000020EE460008C10800F068
:103E20000702054B01209040044A9981D881535CD8
:103E300003435354704700002400002000D20020A8
:103E40000349C878897801EB00200249088170474E
:103E5000201500206C0000200349C878097901EB87
:103E60000020024948817047201500206C00002086
:103E700070B5084DA87FC0070AD0FEF7C3FB044603
:103E8000FEF7C0FB201A2885BDE87040FDF7C4BFCF
:103E900070BD000024000020F0B50D490B4D04203A
:103EA0008C88A5F262260B49A41E0BE02F182A5C11
:103EB0007F7806EB5003525C7F5C801C07EB02129C
:103EC0001A7080B2A042F1DBF0BD00008217002022
:103ED0006C000020D246000810B5154C154904EBC3
:103EE000400202F5005302F580528B608A6102099C
:103EF00004EB420303F5E06203F5007403F5A063ED
:103F0000CA60C1E9044300F00F0413880120A040F7
:103F1000834313800A691388834313804A69138893
:103F2000834313808A68002010808969088010BD4F
:103F3000045000200800002030B5114A114C02EB5B
:103F4000400101F50053050902EB450202F500723C
:103F5000A36001F580512261A1610C881D8800F0E9
:103F60000F0301219940064B000903EB4000AC42CE
:103F7000B0F8000201D2884300E00843108030BD51
:103F8000045000200800002038B54FF48060ADF8E0
:103F9000000003248DF802400420274D8DF8030013
:103FA00069462846FCF7D1FB6915ADF800108DF87D
:103FB000024018208DF8030069462846FCF7C5FB2F
:103FC0001E4D2846FCF739F984B22046FCF730F93B
:103FD0002946FCF71EF90421FCF71EF9FCF72DF920
:103FE0004FF6FF7101EA04110A181548816941F082
:103FF00004018161816941F4804181610E49091D9B
:104000000B6823F47F630B600B6843F40B630B6056
:10401000C16841F48041C160C16821F48041C16040
:1040200008480280001D018842F20C4211430180C1
:10403000FEF70EFB38BD00000008014000606A4337
:1040400000100240083801402DE9F04105460C28D7
:1040500021D2FCF75DFB114E06EBC520FCF700FBFF
:1040600000240F4FED024FF4806807EB840237F80D
:104070002410927805EB4400304401EB022180B219
:1040800089B2FCF729FB641CA4B24445EDD3BDE81A
:10409000F041FCF719BBBDE8F081000000600008AA
:1040A0001C05002070B5BB4CD4F81861BA48BB4958
:1040B0006FF0090290F900300D8826B1934209DDB6
:1040C0005B1E037009E00A2B01DA5B1CF9E745F07F
:1040D000010301E025F001030B80D4F81C51AE4B25
:1040E00093F9013025B193420ADD5B1E43700BE06A
:1040F0000A2B01DA5B1CF9E70B8843F0020302E0AC
:104100000B8823F002030B80D4F82051A24B93F9C3
:10411000023025B193420ADD5B1E83700BE00A2B4F
:1041200001DA5B1CF9E70B8843F0040302E00B881B
:1041300023F004030B80D4F82451974B93F90330F8
:1041400025B193420ADD5B1EC3700BE00A2B01DA36
:104150005B1CF9E70B8843F0080302E00B8823F0AF
:1041600008030B808E4DD5F820618B4B93F90430FA
:1041700026B193420ADD5B1E03710BE00A2B01DAC4
:104180005B1CF9E70B8843F0100302E00B8823F077
:1041900010030B80D5F82C617F4B93F9053026B1C5
:1041A00093420ADD5B1E43710BE00A2B01DA5B1CB4
:1041B000F9E70B8843F0200302E00B8823F020038B
:1041C0000B80D5F83051744B93F9063025B19342EA
:1041D0000ADD5B1E83710BE00A2B01DA5B1CF9E739
:1041E0000B8843F0400302E00B8823F040030B8070
:1041F000D4F82851684B93F9073025B193420ADD72
:104200005B1EC3710BE00A2B01DA5B1CF9E70B881C
:1042100043F0800302E00B8823F080030B80D4F886
:104220002C515D4B93F9083025B193420ADD5B1E9A
:1042300003720BE00A2B01DA5B1CF9E70B8843F4ED
:10424000807302E00B8823F480730B80D4F8304134
:10425000514B93F9093024B193420ADD5B1E43723E
:104260000BE00A2B01DA5B1CF9E70B8843F40073BF
:1042700002E00B8823F400730B804A4BD3F808410B
:10428000454B93F90A3024B193420ADD5B1E8372D9
:104290000BE00A2B01DA5B1CF9E70B8843F480631F
:1042A00002E00B8823F480630B803F4CD4F8145158
:1042B000394B93F90B3025B193420ADD5B1EC37273
:1042C0000BE00A2B01DA5B1CF9E70B8843F400636F
:1042D00002E00B8823F400630B80D4F818512E4BB6
:1042E00093F90C3025B193420ADD5B1E03730BE09A
:1042F0000A2B01DA5B1CF9E70B8843F4805302E0D8
:104300000B8823F480530B80D4F81C51224B93F973
:104310000D3025B193420ADD5B1E43730BE00A2B7F
:1043200001DA5B1CF9E70B8843F4005302E00B88C9
:1043300023F400530B80D4F82051174B93F90E301F
:1043400025B193420ADD5B1E83730BE00A2B01DA71
:104350005B1CF9E70B8843F4804302E00B8823F4ED
:1043600080430B80D4F824410B4B93F90F3024B1D8
:1043700093420ADD5B1EC37370BD0A2B01DA5B1C1E
:10438000F9E7088840F4004002E0088820F4004083
:10439000088070BD00002242800000200200002042
:1043A0000000214200802242008021420A49094B3C
:1043B0000888A3F8400203F580428888A2F8E80341
:1043C000401C8880A2F54051A3F8C80AA1F8C80093
:1043D0007047000004500020020000203E4810B545
:1043E0003E49B0F880013E4B4880C4074FF00001C1
:1043F0004FF0010202D0C3F8B01101E0C3F8B021C0
:10440000840702D5C3F8B41101E0C3F8B42144070E
:1044100002D5C3F8B81101E0C3F8B821040702D5EA
:10442000C3F8BC1101E0C3F8BC21C40602D5C3F82F
:10443000841101E0C3F88421840602D5C3F88011F9
:1044400001E0C3F88021274B440602D5C3F894113C
:1044500001E0C3F89421040602D5C3F8901101E0ED
:10446000C3F89021204BC40502D5C3F89C1101E08C
:10447000C3F89C21840502D5C3F8981101E0C3F864
:104480009821440502D5C3F8941101E0C3F89421A2
:10449000040502D5C3F8901101E0C3F89021C404CB
:1044A00002D5C3F88C1101E0C3F88C21840402D535
:1044B000C3F8881101E0C3F88821440402D5C3F889
:1044C000841101E0C3F88421000402D5C3F88011EF
:1044D00010BDC3F8802110BD045000200200002050
:1044E000008021420000224200002142F65EC80006
:1044F000F65E02001000000025001E000000FFFF15
:104500000000000000000000A500A500A500A50017
:10451000A50011080F000A000000000000000000C4
:10452000000000000000000000003D001C00000032
:1045300000001400FF00D703000000000000FFFF90
:10454000FFFFFFFFFFFFFFFFFFFFFFFFFFFF000079
:10455000FFFF00000000000000000000000000005D
:10456000000000000000000000003B1800000000F8
:1045700000000000000000000000F4010000000046
:10458000000000000000000000000000000000002B
:10459000000000000000000000000000000000001B
:1045A000000000000000000000000000000000000B
:1045B0000000000000006400F65E0800000000003B
:1045C00000000000000000000000000000000000EB
:1045D000000000000000DC0DB63D000000000000FF
:1045E00000000000000002000300000000000000C6
:1045F00000000000000000000000000000000000BB
:1046000000000000000000000000000000000000AA
:10461000000000000000000000000000000000009A
:10462000000000000000000000000000000000008A
:10463000000000000000000000000000000000007A
:10464000000000000000000000000000000000006A
:10465000000000000000000000000000000000005A
:10466000000000000000000000000000000000004A
:10467000000000000000000000000000000000003A
:10468000000000000000000000000000000000002A
:10469000000000000000000000000000000000001A
:1046A000000000000000000000000000000000000A
:1046B00000000000000000000000000000000000FA
:1046C00000000000000000000000000000000000EA
:1046D00000000000000000000000000000000000DA
:1046E0000000000000000000000000000000303169
:1046F0003233343536373839414243444546000079
:10470000000000010203040506070809000000007C
:104710000000000A0B0C0D0E0F0000001C4E0108DB
:1047200000000020800000004E1D00089C4E010883
:104730008000002074D500005E1D0008000000000D
:104740000000000000000000000000000000000069
:104750000000000000000000000000000000000059
:104760000000000000000000000000000000000049
:104770000000000000000000000000000000000039
:106000000800D8BA000000002020202020202020F6
:106010002020202020202020202020202020202080
:106020002020202020202020202020202020202070
:10603000F409FF0BF401E703640EC70EDC0EFF0E3C
:106040009001FE03000000000000000000000000BE
:10605000000000000000000000000000002400C557
:10606000012401C5022402C5032403C50F00FFFF5C
:10607000FFFFFFFFFFFFFFFFFFFFFFFFFFFFFFFF30
:10608000FFFFFFFFFFFFFFFFFFFFFFFFFFFFFFFF20
:10609000FFFFFFFFFFFFFFFFFFFFFFFFFFFFFFFF10
:1060A000FFFFFFFFFFFFFFFFFFFFFFFFFFFFFFFF00
:1060B000FFFFFFFFFFFFFFFFFFFFFFFFFFFFFFFFF0
:1060C000FFFFFFFFFFFFFFFFFFFFFFFFFFFFFFFFE0
:1060D000FFFFFFFFFFFFFFFFFFFFFFFFFFFFFFFFD0
:1060E000FFFFFFFFFFFFFFFFFFFFFFFFFFFFFFFFC0
:1060F000FFFFFFFFFFFFFFFFFFFF000000000000AA
:10610000000000000000000000000000000000008F
:10611000000000000000000000000000000000007F
:10612000000000000000000000000000000000006F
:10613000000000000000000000000000000000005F
:020000040801F1
:104E10000000000000000000000000000100000091
:104E20000000000000000000000000000000000082
:104E30000000000000000000000000000000000072
:104E40000000000000000000000000000000000062
:104E50000000000000000000000000000000000052
:104E60000000000000000000000000000000000042
:104E70000000000000000000000000000000000032
:104E80000000000000000000000000000000000022
:0C4E900000000000000000000000000016
:0400000508000131BD
:00000001FF
