:020000040800F2
:1000000048B70020C9010008D1010008D301000849
:10001000D5010008D7010008D90100080000000040
:10002000000000000000000000000000DB010008EC
:10003000DD01000800000000DF010008E101000808
:10004000E3010008E3010008E3010008E301000800
:10005000E3010008E3010008E3010008E3010008F0
:10006000E3010008E3010008E3010008E3010008E0
:10007000E3010008E3010008E3010008E3010008D0
:10008000E3010008E3010008E3010008E3010008C0
:10009000E3010008E3010008E3010008E3010008B0
:1000A000E3010008E3010008E3010008E3010008A0
:1000B000E3010008E3010008E3010008E301000890
:1000C000E3010008E3010008E3010008E301000880
:1000D000E3010008E3010008E3010008E301000870
:1000E000E3010008E3010008E3010008E301000860
:1000F000E3010008E3010008E3010008E301000850
:10010000E3010008E3010008E3010008E30100083F
:10011000E3010008E3010008E3010008E30100082F
:10012000E3010008E3010008E3010008E30100081F
:1001300000F002F800F039F80AA090E8000C8244C0
:100140008344AAF10107DA4501D100F02EF8AFF29D
:10015000090EBAE80F0013F0010F18BFFB1A43F0A5
:100160000103184728290000382900000023002433
:1001700000250026103A28BF78C1FBD8520728BFB7
:1001800030C148BF0B607047662901F0D687002058
:1001900070471FB500F0C6FA04000020002101F0EE
:1001A00005FCE0601FBD10B510BD00F0D7FB114687
:1001B000FFF7EFFF00F0CCFE00F0F5FB03B4FFF714
:1001C000F2FF03BC00F0EEFD0948804709480047F4
:1001D000FEE7FEE7FEE7FEE7FEE7FEE7FEE7FEE7F7
:1001E000FEE7FEE704480549054A064B7047000054
:1001F000810C00083101000848B1002048B70020F8
:1002000048B3002048B30020704700000FB40449F1
:1002100010B503AA029800F073FA10BC5DF814FB45
:10022000600000202DE9F0410E46044600202062C7
:100230002046E168884730B3252805D0D4E901215C
:100240009047206A401CF2E7E16820460027884773
:10025000050018D0A5F14100192802D820354FF427
:1002600000673246294620462760FFF78DFF40B1E0
:10027000012804D0F61D26F007060836D8E7361DFB
:10028000D6E72846DAE7206ABDE8F0814FF00002A1
:1002900000B5134694469646203922BFA0E80C507C
:1002A000A0E80C50B1F12001BFF4F7AF090728BF57
:1002B000A0E80C5048BF0CC05DF804EB890028BFD3
:1002C00040F8042B08BF704748BF20F8022B11F0FC
:1002D000804F18BF00F8012B704770477047704778
:1002E00070472DE9FF4F0C461E464FF0FF378BB08D
:1002F000D2E90001DDF860800A908A46C1F30A5510
:1003000005B93D46002108464FF00000BAF1000F44
:1003100000F4400005DA00EB80004FF4400101EAF0
:1003200050004FEA9059B9F1010F00DDB9460A9823
:1003300050EA4A000ED044F61050A5F2FF3545436E
:100340002F14B8F1000F1ED07542291E1EDDC9F111
:1003500000021CE0B8F1010F4FF0000001D0302185
:1003600003E0F24305E02154401CB042FBDB304681
:100370000022002121540B99C1F80880C1E9002016
:100380000FB0BDE8F08FBD1B6D1CDEE74A4600DAFA
:10039000694206A800F068FA06AB93E8070003ABD1
:1003A00083E8070050460A9900F024FF8DE8070013
:1003B000A0F500501F3800900398002D0ADD42F28E
:1003C0001F014A460844002303A90390684601F030
:1003D0008DF909E0A0F500504A461F38002303A913
:1003E0000390684601F097F98DE807000004000CBF
:1003F00003D04FF0FF30410800E01046B8F1000F85
:1004000003D00022009215461EE0751E05D400F0B0
:100410008DF9303262556D1EF9D5B346012208437D
:1004200002D000227F1C04E02078302801D1002275
:100430007F1E002A099784D01DE0112D07DA00F0F5
:1004400075F9303262556D1C50EA0102F5D108434E
:1004500002D00098C8B10EE00021681E05E0235CC0
:10046000625C63542254401E491C8142F7DBAB4658
:10047000A81B401E0990002004F80B000B98099A55
:10048000C0F80880C0E9002B7AE711264FF0000879
:1004900057E72DE9F04F88460446D21D22F00701A8
:1004A00091B0D1E90001CDE90A0101F06BFA0246F1
:1004B0000B98C00F01D02D2007E02068810701D5DF
:1004C0002B2002E0202101EAC000032A099001D07C
:1004D000072A05DB03464146204600F085F90BE17B
:1004E0002078800601D5E06900E00620B8F1650FAC
:1004F000814606D0B8F1660F18D0B8F1670F70D1F9
:1005000031E00020B9F1110F009001DB112301E06F
:1005100009F101030AAA01A90CA8FFF7E2FEDDE92F
:100520000C70002609F10105834647E001204B4687
:1005300000904FF000470AAA01A90CA8FFF7D1FECE
:10054000DDE90DB00C995D46002610B909F10100F6
:100550000D18B9EB050003D4C0F1FF3609F1010510
:10056000A5EB09002BE0B9F1010F01DA4FF0010909
:100570000020B9F1110F0090484601DD112300E081
:1005800003460AAA01A90CA8FFF7ABFEDDE90C702F
:100590004D4600268346207800070AD4AB4500DA92
:1005A0005D4601A8012D04DD411911F8011C302917
:1005B00007D04F4502DA17F1040F04DA0120824612
:1005C0000FE06D1EEEE7002F02DCED1B3E4403E062
:1005D000781CA84200DD7D1CB81B00F1010A4FF019
:1005E00000472078000703D4AA4501DB4FF0FF3A0B
:1005F0000021B7F1004F0DF143088DF8431024D0CE
:1006000002202B23002F01DA7F422D230A21021E14
:10061000A0F1010000DC5FB197FBF1FC97FBF1F268
:1006200001FB1C7C17460CF1300C08F801CDEEE7FD
:10063000A8F1010003702188090501D5452100E0DA
:100640006521A0F1010800F8011C09980FA9A1EB90
:100650000807FF1D00B10120411901EBEA70A169F3
:100660003844081A401EA0612078C00602D42046F3
:10067000AFF30080099828B1D4E901219047206A9E
:10068000401C20622078C00622D52046AFF30080AF
:100690001EE0002E04DBB34502DD01A8805D00E012
:1006A0003020D4E901219047206A401C2062761C4A
:1006B000AAF101005FEA000A0AD100F033F8C0682D
:1006C0000168405CD4E901219047206A401C206207
:1006D000281EA5F10105DCDC07E0D4E9012118F8AA
:1006E000010B9047206A401C2062381EA7F10107C9
:1006F000F3DC2046AFF30080032011B041E6000098
:10070000074B70B50D467B4400F05BF80446284665
:1007100000F01CF910B14FF0FF3070BD204670BDE5
:1007200033080000004870472000002030B5B0F1C9
:100730000A0271F100034FEA900E4EEA817EB0EB9F
:100740000E0061EB91014FEA101E4EEA017E10EBA4
:100750000E0041EB11114FEA102E4EEA016E10EB24
:100760000E0041EB11214FEA104E4EEA014E10EB04
:100770000E0041EB1141401841F100014FEAD00059
:1007800040EA41704FEAD1014FEA810444EA907493
:1007900010EB800544EB01046D1944EB0404521B7B
:1007A000A3414FF0000348BF0A3200D530BD401CC2
:1007B00041F1000130BD000001694A1C0261087866
:1007C000704700B58FB0CDE9013100210591054991
:1007D0007944CDE9031011466846FFF723FD0FB0B9
:1007E00000BD0000E5FFFFFF2DE9F0411F46044674
:1007F00003260168072A01F4006004DB08B116A58E
:1008000005E016A503E008B115A500E015A521F047
:1008100010002060A069C01EA0610FB1401EA06141
:100820002046AFF300804FB1D4E90121384690470C
:10083000206A401C2062C01C206206E0206AFAE7A1
:10084000D4E9012115F8010B9047761EF8D2204615
:10085000AFF30080BDE8F0814E414E006E616E0046
:10086000494E4600696E66002DE9F04781461646FE
:100870008AB0354878440DC88DE80D003248784478
:10088000801C03AC0DC884E80D0041F69B30084481
:10089000372190FBF1F290FBF1F5A5F1800501FB0A
:1008A00012041B3C02D56442012000E00020DFF866
:1008B00098A080460027FA44AAF1BE0A0EE0E0079D
:1008C0000AD03246684607EB470101230AEB810153
:1008D00000F021FF8DE8070064107F1C002CEED192
:1008E000194F7F44AE3F19E0E80715D007EB04101D
:1008F0000DF1180A90E80E008AE80E00C068F04278
:1009000001D1981908903246012306A903A800F0E6
:1009100002FF03AB83E807006D10641C002DE3D1D8
:100920004FF0010332466946B8F1000F03A802D028
:1009300000F0DCFE01E000F0EEFEC9E90001C9F8BC
:1009400008200AB0BDE8F08744190000007B00F0E1
:100950008000704700487047000000207546FFF790
:10096000F9FFAE4605006946534620F0070085466C
:1009700018B020B5FFF736FCBDE820404FF0000668
:100980004FF000074FF000084FF0000BAC46ACE80A
:10099000C009ACE8C009ACE8C009ACE8C00921F066
:1009A00007018D46704710B50446AFF3008020461E
:1009B000BDE81040FFF702BC4FF0013C50F8042B9B
:1009C00051F8043B9A4221D1A2EB0C03934313EA62
:1009D000CC1317D150F8042B51F8043B9A4215D18F
:1009E000A2EB0C03934313EACC130BD150F8042B66
:1009F00051F8043B9A4209D1A2EB0C03934313EA4A
:100A0000CC13DBD04FF00000704700BFD01A01BA02
:100A1000B1FA81F101F0180122FA01F0CB40DBB20A
:100A2000C0B2C01AC1F120012CFA01F3D11A9143CE
:100A300011EAC311E6D170472DE9F041CA7802F0FE
:100A40000F0CD30644BF8B784CEA030C09880B06C5
:100A500021D0056800234FF001084FF00F0E00264B
:100A600008E000BF282A08BF47610136082E03F1BD
:100A700004030FD008FA06F70F42F6D00EFA03F47B
:100A800025EA04040CFA03F5482A45EA0405E9D1ED
:100A90000761EAE70560B1F5807F38BFBDE8F08106
:100AA000446800234FF4807E4FF00F08002607E0D3
:100AB000282A08BF47610136082E03F1040310D02D
:100AC0000EFA06F707EA0105BD42F4D108FA03F56C
:100AD000AC430CFA03F5482A44EA0504E8D107615F
:100AE000E9E74460BDE8F081002941F21C01C4F24D
:100AF00002010A680CBF22EA000010430860704738
:100B0000002941F21801C4F202010A680CBF22EA6E
:100B1000000010430860704710B541F20404C4F2AD
:100B20000204226802F00C02082A41F20022C0F2FC
:100B30007A021CD12368D4F800C0C3F3834E5FEA65
:100B4000CC330EF1020C06D440F60012C0F23D0286
:100B50000CFB02F20BE023689B0302D40CFB02F2B5
:100B600005E040F60012C0F23D020CFB02F202600A
:100B7000226842F2D813C2F30312C0F600039A5C53
:100B80000168D14041602268C2F302229A5C21FAD6
:100B900002F282602268C2F3C2229A5C42F2D4134B
:100BA000D140C1602268C0F60003C2F381329A5C72
:100BB000B1FBF2F1016110BD80B500F001F880BD1C
:100BC00082B041F204000021C4F2020001910091C0
:100BD00050F8041C41F4803140F8041C50F8041C07
:100BE00001F400310091019901310191009919B985
:100BF0000199B1F5A06FF1D150F8041C890354BFDD
:100C00000021012100910099012936D142F2000111
:100C1000C4F202010A6842F010020A600A6822F077
:100C200007020A600A6842F002020A600168016075
:100C300001680160016841F480610160016821F48C
:100C40007C110160016841F4E811016050F8041C56
:100C500041F0807140F8041C50F8041C8901FBD558
:100C6000016821F003010160016841F002010160A7
:100C7000016801F00C010829FAD102B070470000A8
:100C800080B541F20000C4F202000168002241F088
:100C9000010101604168CFF6FF0211404160016827
:100CA0004FF6FF72CFF6F66211400160016821F441
:100CB00080210160416821F4FE0141604FF41F0171
:100CC0008160FFF779FF4EF60850CEF200004FF03A
:100CD0000061016080BD00008289002918BF0121E8
:100CE00022F4005242EA41318181704770B586B0EA
:100CF0000446008A0D46C98820F4405008432082EB
:100D0000A0894EF6F3110840A9882A896B89084307
:100D100010431843A081A08AA98920F44070084399
:100D200001AEA0823046FFF7F7FE43F6000106F160
:100D30000800C4F201018C4208BF06F10C000068F3
:100D40001922B4F90C1050432A680123B1F1FF3F76
:100D5000C8BF022302FA03F1B0FBF1F048F21F51C1
:100D6000C5F2EB11A0FB01235A096FF0630302FBEC
:100D70000300B4F90C300326B3F1FF3FC8BF0426CB
:100D800000FA06F000F13200A0FB01014FF007006D
:100D9000C8BF0F2000EA511040EA0210208106B0BF
:100DA00070BD0000704700002DE9F04F8DB0D0E914
:100DB000004C85689A46101F0292019003930FE041
:100DC0003446B9460499059DC1E900B4069CC1E9C1
:100DD000020901F1100CDDE9021A1435013C48D07A
:100DE000DCE900B6DCE90207BAF1000F0694CDE9B0
:100DF00004C5E5D02A68DDF804800B926A680A927F
:100E0000AA680992EA6808922A690D1F079200BF32
:100E10005C4655F804BF81460B9859460C9701F083
:100E20004BF807460A98214601F046F8394600F08B
:100E300005FE07460998314601F03EF8394600F0B4
:100E4000FDFD06460898494601F036F8314600F0A7
:100E5000F5FD064607980C9901F02EF8314600F092
:100E6000EDFD48F8040FBAF1010A4F462646CFD1EE
:100E7000A8E70DB0BDE8F08FB0B50546016082600F
:100E8000090118461C46FFF701FA6C60B0BD00006E
:100E9000F0B581B04FF68311C3F6226101F00CF872
:100EA000044600F059FF054620460021002700F0C7
:100EB0004AFE002818BF013D284600F069FF0146A0
:100EC000204601F0C5F84FF0884100F0F5FF0446D8
:100ED00000F042FF054620464FF0444100F0AEFDD1
:100EE0000646B7EB552F14BF00252646284600F0CE
:100EF00067FF0146304601F0ABF842F28821C0F6A8
:100F0000000101EB8502064651F8254055684FF077
:100F10007E50314601F09CF8214600F0CDFF04469A
:100F20003046294600F0C8FF0146204600F086FD05
:100F300001B0F0BD80B500F025F980BD44F200415C
:100F4000C4F200010A885206FCD5C2B28A807047FA
:100F50009EB0FFF7EFFF40F2B400C2F20000071F9F
:100F600045F2B400C2F2000041F2624840F2000AC9
:100F700041F26249061F0024C4F29D38C4F27A4A45
:100F8000C4F29D494FF4805B204600F019FF4146B2
:100F9000054600F091FF514600F0E8FDFFF778FFAD
:100FA00046F8040F2846494600F086FF514600F0F7
:100FB000DDFDFFF76DFF316846F80B0000F03EFDE8
:100FC0000134B4F5806F47F8040FDDD142F260229E
:100FD0004AF220131BACC0F60002C2F20003204606
:100FE0000221FFF749FF42F2382249F2FC0318AD13
:100FF000C0F60002C2F2000328460221FFF73CFFC0
:1010000042F2E81247F2B403C0F60002C2F2000353
:1010100015A80221FFF730FF42F2102248F2D80350
:10102000C0F60002C2F2000312A80221FFF724FF5B
:1010300040F2B40744F2B402C2F20007C2F2000266
:10104000204639464FF48063FFF7AEFE43F2B40208
:10105000C2F20002284639464FF48063FFF7A4FE2F
:1010600041F2B402C2F20002204639464FF48063D6
:10107000FFF79AFE42F2B402C2F200022846394655
:101080004FF48063FFF790FE002600BF45F2B401E5
:10109000C2F2000188598C1900F0A4FC11904FF4A1
:1010A00080502058109100F09DFC0F90B8590E917F
:1010B00000F098FC0D9044F2B400C2F20000805998
:1010C0000F4647F24271C3F6123100F0F5FE00F010
:1010D00089FC804643F2B400C2F200008059894680
:1010E0004DF21931C3F69A6100F0E6FE00F07AFC89
:1010F000834641F2B400C2F2000080598A4648F2A9
:101100000421C3F69F6100F0D7FE00F06BFC04469B
:1011100042F2B400C2F2000080590D4644F6337129
:10112000C3F6AE6100F0C8FE00F05CFCCDE90A0138
:101130000F98DDE9103200900E98CDE90845019036
:101140000D98CDF81CA0CDE9020704A840F2B40721
:1011500080E8000B05A0C2F20007FFF757F804363D
:10116000B6F5805F92D100BFFEE700BF25662C2553
:10117000662C25662C25662C25662C25662C256676
:101180000D0A0000F0B585B04FF400300121FFF7E3
:10119000ABFC042001210427FFF7B2FC44F2004419
:1011A0000420C4F20004C1F6030004F5444504AE73
:1011B000049028463146FFF73FFC0820ADF81000A8
:1011C000284631468DF81370FFF736FC4FF4E130B6
:1011D000009000204FF4002101900291ADF80C0026
:1011E00069462046FFF782FD20460121FFF774FD86
:1011F00005B0F0BD5FEA400C08BF91F0000F4FEA68
:101200008C234FEAC12243EA51514FEA1C5018BFC8
:1012100000F5F0404FEA300018BF41F000415FEAAE
:101220006C5C00F02980BCF1FF3F08BF40F08040BB
:101230007047130C06BF12044FF0100C4FF0000C57
:10124000130E04BF12020CF1080C130F04BF12019D
:101250000CF1040C930F04BF92000CF1020CD30F9D
:1012600004BF52000CF1010C11464FF00002A0F136
:101270001F00A0EB0C00704711F0004F08BF704733
:1012800031F000413FF4D5AF0B0C06BF09044FF01D
:10129000100C4FF0000C0B0E04BF09020CF1080CEF
:1012A0000B0F04BF09010CF1040C8B0F04BF890064
:1012B0000CF1020CCB0F04BF49000CF1010CCCF176
:1012C000200322FA03F341EA030102FA0CF2A0EB35
:1012D0000C0000F10100704723F07F4720F07F4CA5
:1012E00080EA030000F00040ACEB070303F57C53F9
:1012F00003F1FF032DE9804909B44FEA144324EABE
:1013000003484FEA154B25EA0B4E0FF2042606EB75
:1013100013273E7803FB0667C7F5000707FB06F6B1
:101320004FEAD64606F102064FEA543707FB066C31
:10133000CCF1005C4FEA1C472CEA074C0CFB06F58D
:1013400007FB06F404EB15464FEA961649085FEAD8
:10135000320234BF00204FF000404FEAD13706FB85
:1013600007FC4FEA1C4C0CFB0BF7D21B03FB0CF7E2
:1013700061EB07010CFB0EF7B0EB074072EB174275
:101380000CFB08F734BFA2EB0742B2EB074261EB5C
:1013900017414FEA0C444FEA910706FB07FC4FEA5E
:1013A0001C4C0CFB0BF7B0EBC74072EB573203FB46
:1013B0000CF734BFA2EBC742B2EBC74261EB573127
:1013C0000CFB0EF7B0EBC70072EB57720CFB08F783
:1013D00034BFA2EBC702B2EBC70261EB57714FEA11
:1013E000816141EA92114FEA826242EA90124FEA29
:1013F000806004EBCC04039F4FEAD13706FB07FC67
:101400004FEA1C4C0CFB0BF7D21B03FB0CF761EBF8
:1014100007010CFB0EF7B0EB074072EB17420CFB19
:1014200008F734BFA2EB0742B2EB074261EB17416A
:101430004FEA8C5504EB9C244FEA910706FB07FC0E
:101440004FEA1C4C0CFB0BF7B0EBC74072EB57326A
:1014500003FB0CF734BFA2EBC742B2EBC74261EB10
:1014600057310CFB0EF7B0EBC70072EB57720CFB59
:1014700008F734BFA2EBC702B2EBC70261EB5771AA
:101480004FEA816141EA92114FEA826242EA901288
:101490004FEA806015EB4C2544F100044FEAD13748
:1014A00006FB07FC4FEA1C4C0CFB0BF7D21B03FBA3
:1014B0000CF761EB07010CFB0EF7B0EB074072EB8A
:1014C00017420CFB08F734BFA2EB0742B2EB07420E
:1014D00061EB17414FEA813141EA92414FEA823292
:1014E00042EA90424FEA80304FEA0C7615EB1C1529
:1014F00044F1000448EA03434EEA0B484FF0000E63
:10150000B2EB080C71EB030724BF624639464EEB81
:101510000E0E4FF0000B0018524149414BEB0B0BE4
:10152000B2EB080C71EB03077BF1000B24BF6246A2
:1015300039464EEB0E0E4FF0000B00185241494158
:101540004BEB0B0BB2EB080C71EB03077BF1000BC1
:1015500024BF624639464EEB0E0E51EA020718BF11
:1015600046F0010616EB0E7655F1000254F100012B
:1015700003D5BDE88901BDE80088BDE88901BDE863
:101580000048B619524141EB0101A3F10103704734
:1015900080807F7E7D7C7B7A7978777676757473B0
:1015A000727171706F6E6E6D6C6C6B6A6A6968686F
:1015B000676666656464636362616160605F5F5E05
:1015C0005E5D5D5C5C5B5B5A5A595958585757567B
:1015D00056555555545453535252525151505050E0
:1015E0004F4F4F4E4E4D4D4D4C4C4C4B4B4B4A4A32
:1015F0004A49494948484847474747464646454576
:1016000045444444444343434342424242414141AE
:101610009C46002B30D477002BD04FEA37071CB5FF
:1016200003B44FF010004FF01001BAF1000F06D0D4
:10163000BCF1000FDCBF40F0080040F008014FF0A3
:1016400000000FBCBDE810400BF1010BBBF1010F16
:1016500008BF5FEA170722BF12F1010211F1010171
:101660004FF0004143F1000300F0004043EA000066
:101670007047F9D35708D0E746EA06464FEA1646C0
:1016800013F1400F1FDD13F1200FDFBF16430A4691
:10169000002120335B42BED0C3F1200746EA064654
:1016A0004FEA164602FA07F746EA070622FA03F25D
:1016B000C3F1200701FA07F742EA070221FA03F112
:1016C0004FF00003A7E746EA020646EA06464FEA5D
:1016D000164646EA0106BCBF46EA0646360C4FF0FF
:1016E00000034FF000024FF0000194E72DE9804C19
:1016F00070B49A46934691E8380007C831EA400C26
:1017000048BF34EA430C03D5FFF7E6FDFFF780FF3F
:10171000F0BCBDE8008C2DE9804C70B49A4693462D
:1017200091E8380007C810F0804F08BF13F0804FD1
:1017300003D100F005F8FFF76BFFF0BCBDE8008CAB
:1017400020F07F4723F07F4C80EA030000F0004048
:1017500007EB0C03A3F57C53A3F1FE0392F0000FFB
:1017600000F0B38095F0000F00F077802DE901497B
:101770004FEA114021EA00484FEA144624EA06479E
:1017800000FB06FC08FB06F607FB08F818EB06480A
:101790004CEB164C00FB07F718EB07484CEB1740D7
:1017A0004FEA124B22EA0B4E4FEA154625EA06474E
:1017B0000BFB06FC0EFB06F607FB0EFE1EEB064EB1
:1017C0004CEB164C0BFB07F71EEB074E4CEB174B85
:1017D00018EB0B0840F1000018EB0E0B58EB00085B
:1017E00040F100008F1A4FF000014FF000063CBF9F
:1017F000C943661B14BFB5EB040C00213CBFC943B1
:10180000F61B4FEA174427EA04454FEA1C472CEA27
:10181000074C04FB076205FB07F70CFB05F616EB0C
:10182000074642EB174204FB0CFC16EB0C4642EB5E
:101830001C421BEB060658EB020241414EEA8E0E9B
:1018400046EA9E0601D5BDE80189B619524141EB31
:101850000101A3F10103BDE801894FEA144524EA1F
:1018600005464FEA114721EA074C05FB07F406FB42
:1018700007F70CFB06F111EB074144EB174405FB9E
:101880000CFC11EB0C4144EB1C444FEA124722EADA
:10189000074C05FB07F206FB07F70CFB06F616EBF9
:1018A000074642EB174205FB0CFC16EB0C4642EBDD
:1018B0001C456A1854F1000148BF7047B6195241DF
:1018C00041EB0101A3F10103704795F0000F37D000
:1018D0004FEA114221EA02464FEA144724EA074C34
:1018E00002FB07F106FB07F70CFB06F414EB0744B9
:1018F00041EB174102FB0CFC14EB0C4441EB1C4187
:101900004FEA154725EA074C02FB07F506FB07F7E8
:101910000CFB06F616EB074645EB174502FB0CFCE5
:1019200016EB0C4645EB1C42121951F1000148BF61
:101930007047B619524141EB0101A3F10103704711
:101940004FEA144524EA05464FEA114721EA074CBD
:1019500005FB07F106FB07F70CFB06F212EB07424B
:1019600041EB174105FB0CFC12EB0C4251EB1C4107
:101970004FF0000648BF7047921841EB0101A3F1F8
:1019800001037047490050EAC12018BF04204A0DE6
:1019900018BF40F0010040F2FF72B2EB515F08BF88
:1019A00040F00200012808BF0520704710B500294B
:1019B0000AD00878002807D005487844FEF7FCFFD5
:1019C000002801D0002010BD0248784410BD00005E
:1019D000E2100000DA1000000808A0F500114FEA3C
:1019E0003101704743004FEAD30C4FEA3C0C4340AF
:1019F0001FBF40070CF1605113F0FE4F70471CF001
:101A0000006F03D10CF00041002070470CF0004340
:101A100043EA507040EACC0010B500F0CEFA00BFA7
:101A2000000000924FEA0001FFF7D6BF4FF00041DF
:101A3000A1F500214FF000007047000090EA010F6F
:101A400048BF81F0004100F10A83421A3CBF801A6E
:101A500089184FEAD052A2EBD1534FF07F4C1CEAC9
:101A6000410F18BF9CEA026F00F03B804FF0004C22
:101A70004CEA00204CEA012121FA03FC10EB0C0C8B
:101A80001ED202F1FF325FEA1C2040EBC25038BF89
:101A900070471CF07F0F4FEA400C18BFBCF17F4F1E
:101AA00038BF7047C3F12003994008BF20F0010000
:101AB000BCF17F4F38BF7047A0F1C04000F0C3BAFF
:101AC0004FEA3C00000A40EBC25028BF1CF0FF0F59
:101AD0004FEA400CE6D018BFBCF17F4F38BF7047CB
:101AE000EAE79CEA026F05D010EA5C0F08BF00F03D
:101AF0000040704710B500F060FA00BF64FBBE3EC6
:101B000010B500F0F5F80CBF0120002010BD10B595
:101B100000F0EEF814BF0120002010BD10B500F059
:101B200063F98CBF0120002010BD10B500F05CF9F6
:101B30002CBF0120002010BD10B500F089F994BF22
:101B40000120002010BD10B500F082F934BF012043
:101B5000002010BD401058BFC0F14040491058BF90
:101B6000C1F140418142EFF3008070474FF47F0C98
:101B70001CEAD0121EBF1CEAD11392EA0C0F93EAA2
:101B80000C0F00F0858090EA010F48BF42F480728C
:101B900040F4000C41F400002CF07F4120F07F4025
:101BA00000B5A2EB030281420FF2081CACEB504ED1
:101BB0009EF800E0C0F100004FEA4E0E00FB0EFC64
:101BC00038BF49004FEA2C1C0CFB0EF34FEACE1E27
:101BD0000EEB635E4FEA112C0EFB0CFC4FEAC121A9
:101BE0004FEA1C5300FB031102F5FA024FEA112CD5
:101BF0000EFB0CFC4FEA01314FEADC4C00FB0C11F0
:101C000042EB2242C14228BF09184CEB03335DF876
:101C100004EB10EB410143EBC250B2F57C0F38BF2F
:101C2000704729D512F0F00F1CBF00F1C04000F042
:101C300000407047008182838485868788898B8CE9
:101C40008D8E8F919293959697999A9C9D9FA0A225
:101C5000A3A5A7A8AAACAEB0B2B3B5B7B9BCBEC075
:101C6000C2C5C7C9CCCED1D4D7D9DCDFE2E6E9EC16
:101C7000F0F3F7FAFE0000004FEA400C0CF1807C14
:101C8000BCF17E4F28BF7047B0F1C04000F0DBB917
:101C90000CEAD11390EA010F48BF42F4807262450A
:101CA00038BF634507D213F47F0F16D080EA0100D6
:101CB00000F00040704710B500F07FF9097EFC3E4F
:101CC00000F005B880EA010000F00040704780EAAB
:101CD000010000F0004000F0B6B912F47F0F04BF1D
:101CE0000248704780EA010000F0ADB90000C07FF3
:101CF00050EA010C00F113801CF5000F58BFBCF531
:101D0000000F01D48842704707D710F5000F58BF65
:101D100011F5000F15D488427047894270471CF5B1
:101D2000000F04D5BCF5000FF7D5814270474FF086
:101D3000807C1CEB400F38BF1CEB410F01D281426D
:101D4000704710B500F039F9922449004FF0005067
:101D50004FF08051FFF7FEBE41000B0ED3F19E0203
:101D600008D950F400034FEA032323FA02F048BFD6
:101D70004042704710B500F020F900BF499224801E
:101D8000002070476FF0004282EA20007047000098
:101D900010F0004148BF4042B0FA80F310FA03F25D
:101DA000C3F19D030BD051EAC35101EB122053063E
:101DB00038BF704700F1010008BF20F001007047F4
:101DC000B0FA80F310FA03F2C3F19D030AD0D905EB
:101DD00001EB1220530638BF704700F1010008BF25
:101DE00020F001007047000050EA010C00F1138060
:101DF0001CF5000F58BFBCF5000F01D48842704796
:101E000007D710F5000F58BF11F5000F15D4884201
:101E10007047894270471CF5000F04D5BCF5000FD0
:101E2000F7D5814270474FF0807C1CEB400F38BFE4
:101E30001CEB410F01D28142704710B500F0BDF894
:101E4000922449004FF080504FF00051FFF782BEBE
:101E500050EA010C00F113801CF5000F58BFBCF5CF
:101E6000000F01D48842704707D710F5000F58BF04
:101E700011F5000F15D488427047894270471CF550
:101E8000000F04D5BCF5000FF7D5814270474FF025
:101E9000807C1CEB400F38BF1CEB410F01D281420C
:101EA000704710B500F089F8922449004FF00050B7
:101EB0004FF08051FFF74EBE4FF47F0C1CEAD0125A
:101EC0001EBF1CEAD11392EA0C0F93EA0C0F00F02C
:101ED000478090EA010F48BF42F480724FF0004CF7
:101EE0004CEA00204CEA012102EB0302A0FB0113A3
:101EF000A2F50002002918BF43F001035B0028BFD0
:101F00004FEA330342EB22425FEA132C4CEBC25000
:101F10002EBFBCEB436FB2F57C0F70474FEA036CEA
:101F2000BCF1004F08BF20F00100B2F57C0F38BFB4
:101F300070470BD582F0FF0212F5803FC8BF704793
:101F400000F1C040D8BF00F00040704700F5000C21
:101F50005FEA4C0C48BF7047B0F1C04000F073B866
:101F60000CEAD11390EA010F48BF42F48072624537
:101F700038BF634504D280EA010000F0004070479A
:101F800010B500F01AF800BF8900013E00F007B854
:101F900000F009B85FEA410C5FEA1C6C08D080EAE7
:101FA000010000F050B85FEA400C5FEA1C6CF6D10B
:101FB0004FF00040A0F5800070470EF1020E2EF0A9
:101FC000030E5EF8044B244204D44FEA4102B2F1FE
:101FD0007F4F11D84FEA4003B3F17F4F0CD80ED199
:101FE0004FEAD07C0CEB4C0C0CF1020CB2F17F4FA1
:101FF00008BF4CEBD17C04E04FF0080C01E04FEA45
:10200000D17C0CEB4C0324FA03F404F00704B4F184
:10201000040C06D20EEB840CBDE810404CF0010C11
:102020006047DFE80CF0070802024FF00040A0F51F
:10203000800010BD0846420018BFD2F1807288BFF0
:1020400000F0004010BDFF2141EAD050C0057047AC
:1020500090EA010F48BF81F000413FF5F6AC421A0B
:1020600004D882F00042A0EB020011444FEAD052A3
:10207000A2EBD1534FF07F4C1CEA410F18BF9CEAF2
:10208000026F4AD04FF0004C4CEA00204CEA01218C
:1020900021FA03FCB0EB0C0C0FD412F0FE0F36D07B
:1020A0005FEA4C001DD5001240EBC25038BF7047AC
:1020B0001CF03F0F18BF70470BE05FEA1C20A2F135
:1020C000010240EBC25038BF70471CF07F0F18BFB1
:1020D0007047C3F12003994014BF401E20F0010057
:1020E00070474FEA1223800808BF7047B0FA80FC9F
:1020F000A2EB0C02CCF1280C60FA0CF093EA122F40
:1021000004BF00EBC25070474FEAC3707047130A18
:102110005FEADC1008BF7047F6E79CEA026F04D064
:1021200010EA5C0F08BF0020704710B5FFF745FFAD
:1021300040DFF63E81F000407047FEF7AAB900008C
:1021400002400000000000A0000000000540000068
:10215000000000C8000000000C4000000000409C8F
:1021600000000000194000000020BCBE000000007C
:1021700034400000BFC91B8E00000004B5400000C1
:10218000504BCFD06607E2CF010000006C41000049
:102190003E8251AADFEEA73401000000D9420000C0
:1021A000DCB5A0E23A301F97FFFFFFFFB445000007
:1021B000FD25A0C8E9A3C14FFFFFFFFFFF3F0000BF
:1021C0000000008000000000FF3F000000000080D1
:1021D00000000000020406080000000001020304E1
:1021E00001020304060708090000803F0000000008
:1021F000000080BFE65690BF90A5F0BE0000803F73
:1022000000000000000080BF5363463F95F1BBBE55
:102210000000803F3B2F1DBF0000803F0A94923F8B
:102220004DC300BF0000803F3B2F1DBF0000803F1B
:1022300013FDF2BE3BC3B4BE0000803F000000C0EF
:102240000000803F030B7C3FA3680BBF0000803F72
:10225000000000C00000803F9CA53E3FC85B2CBE34
:102260000000803F000000400000803F0D6ABD3F3D
:10227000224D30BF0000803F000000400000803F42
:102280006D3D9B3F329CC4BE00000000920E493C55
:10229000B10AC93C2BC3163D2EFB483D752B7B3D37
:1022A00004A9963D80B6AF3D36BDC83D2FBCE13D8B
:1022B00073B2FA3D87CF093E8340163EB5AB223E4E
:1022C000A2102F3ECF6E3B3EC2C5473E0115543E85
:1022D000135C603E7F9A6C3ECCCF783EC07D823EE0
:1022E000938E883E229A8E3E32A0943E86A09A3EDD
:1022F000E59AA03E128FA63ED47CAC3EEF63B23E80
:102300002A44B83E491DBE3E15EFC33E53B9C93EEF
:10231000CA7BCF3E4136D53E80E8DA3E4F92E03E62
:102320007533E63EBBCBEB3EEA5AF13ECBE0F63EE0
:10233000275DFC3EE4E7003F3D9C033F824B063FA8
:102340009BF5083F6B9A0B3FDA390E3FCDD3103F18
:102350002A68133FD9F6153FC07F183FC6021B3FBE
:10236000D17F1D3FCBF61F3F9967223F25D2243FE7
:102370005636273F1594293F4AEB2B3FDE3B2E3F35
:10238000BB85303FC9C8323FF304353F233A373F5E
:102390004268393F3B8F3B3FF9AE3D3F67C73F3F08
:1023A00070D8413F01E2433F03E4453F65DE473FCC
:1023B00012D1493FF8BB4B3F029F4D3F207A4F3F20
:1023C0003D4D513F4918533F31DB543FE595563F52
:1023D0005348583F6AF2593F1A945B3F532D5D3F73
:1023E00005BE5E3F2146603F97C5613F5A3C633F53
:1023F00059AA643F880F663FD86B673F3CBF683F70
:10240000A7096A3F0C4B6B3F5E836C3F93B26D3FF5
:102410009ED86E3F73F56F3F0809713F5213723FAC
:102420004714733FDD0B743F0BFA743FC6DE753FF4
:1024300007BA763FC58B773FF853783F9812793FBC
:102440009DC7793F02737A3FBE147B3FCDAC7B3F83
:10245000283B7C3FC9BF7C3FAC3A7D3FCCAB7D3F46
:1024600023137E3FB0707E3F6DC47E3F580E7F3F8A
:102470006D4E7F3FAB847F3F0FB17F3F97D37F3F50
:1024800043EC7F3F11FB7F3F0000803F11FB7F3F0C
:1024900043EC7F3F97D37F3F0FB17F3FAB847F3FBC
:1024A0006D4E7F3F580E7F3F6DC47E3FB0707E3FC4
:1024B00023137E3FCCAB7D3FAC3A7D3FC9BF7C3F11
:1024C000283B7C3FCDAC7B3FBE147B3F02737A3F01
:1024D0009DC7793F9812793FF853783FC58B773F76
:1024E00007BA763FC6DE753F0BFA743FDD0B743FCB
:1024F0004714733F5213723F0809713F73F56F3FE2
:102500009ED86E3F93B26D3F5E836C3F0C4B6B3F2A
:10251000A7096A3F3CBF683FD86B673F880F663F9B
:1025200059AA643F5A3C633F97C5613F2146603FCB
:1025300005BE5E3F532D5D3F1A945B3F6AF2593FE3
:102540005348583FE595563F31DB543F4918533FB8
:102550003D4D513F207A4F3F029F4D3FF8BB4B3FCF
:1025600012D1493F65DE473F03E4453F01E2433F67
:1025700070D8413F67C73F3FF9AE3D3F3B8F3B3F80
:102580004268393F233A373FF304353FC9C8323FE9
:10259000BB85303FDE3B2E3F4AEB2B3F1594293F56
:1025A0005636273F25D2243F9967223FCBF61F3F5F
:1025B000D17F1D3FC6021B3FC07F183FD9F6153F94
:1025C0002A68133FCDD3103FDA390E3F6B9A0B3F89
:1025D0009BF5083F824B063F3D9C033FE4E7003FED
:1025E000275DFC3ECBE0F63EEA5AF13EBBCBEB3E2C
:1025F0007533E63E4F92E03E80E8DA3E4136D53E06
:10260000CA7BCF3E53B9C93E15EFC33E491DBE3EFE
:102610002A44B83EEF63B23ED47CAC3E128FA63E55
:10262000E59AA03E86A09A3E32A0943E229A8E3E23
:10263000938E883EC07D823ECCCF783E7F9A6C3EA2
:10264000135C603E0115543EC2C5473ECF6E3B3E13
:10265000A2102F3EB5AB223E8340163E87CF093EE7
:1026600073B2FA3D2FBCE13D36BDC83D80B6AF3DEB
:1026700004A9963D752B7B3D2EFB483D2BC3163D93
:10268000B10AC93C920E493C00000000920E49BCC0
:10269000B10AC9BC2BC316BD2EFB48BD752B7BBD33
:1026A00004A996BD80B6AFBD36BDC8BD2FBCE1BD87
:1026B00073B2FABD87CF09BE834016BEB5AB22BE4A
:1026C000A2102FBECF6E3BBEC2C547BE011554BE81
:1026D000135C60BE7F9A6CBECCCF78BEC07D82BEDC
:1026E000938E88BE229A8EBE32A094BE86A09ABED9
:1026F000E59AA0BE128FA6BED47CACBEEF63B2BE7C
:102700002A44B8BE491DBEBE15EFC3BE53B9C9BEEB
:10271000CA7BCFBE4136D5BE80E8DABE4F92E0BE5E
:102720007533E6BEBBCBEBBEEA5AF1BECBE0F6BEDC
:10273000275DFCBEE4E700BF3D9C03BF824B06BFA4
:102740009BF508BF6B9A0BBFDA390EBFCDD310BF14
:102750002A6813BFD9F615BFC07F18BFC6021BBFBA
:10276000D17F1DBFCBF61FBF996722BF25D224BFE3
:10277000563627BF159429BF4AEB2BBFDE3B2EBF31
:10278000BB8530BFC9C832BFF30435BF233A37BF5A
:10279000426839BF3B8F3BBFF9AE3DBF67C73FBF04
:1027A00070D841BF01E243BF03E445BF65DE47BFC8
:1027B00012D149BFF8BB4BBF029F4DBF207A4FBF1C
:1027C0003D4D51BF491853BF31DB54BFE59556BF4E
:1027D000534858BF6AF259BF1A945BBF532D5DBF6F
:1027E00005BE5EBF214660BF97C561BF5A3C63BF4F
:1027F00059AA64BF880F66BFD86B67BF3CBF68BF6C
:10280000A7096ABF0C4B6BBF5E836CBF93B26DBFF1
:102810009ED86EBF73F56FBF080971BF521372BFA8
:10282000471473BFDD0B74BF0BFA74BFC6DE75BFF0
:1028300007BA76BFC58B77BFF85378BF981279BFB8
:102840009DC779BF02737ABFBE147BBFCDAC7BBF7F
:10285000283B7CBFC9BF7CBFAC3A7DBFCCAB7DBF42
:1028600023137EBFB0707EBF6DC47EBF580E7FBF86
:102870006D4E7FBFAB847FBF0FB17FBF97D37FBF4C
:1028800043EC7FBF11FB7FBF000080BF11FB7FBF08
:1028900043EC7FBF97D37FBF0FB17FBFAB847FBFB8
:1028A0006D4E7FBF580E7FBF6DC47EBFB0707EBFC0
:1028B00023137EBFCCAB7DBFAC3A7DBFC9BF7CBF0D
:1028C000283B7CBFCDAC7BBFBE147BBF02737ABFFD
:1028D0009DC779BF981279BFF85378BFC58B77BF72
:1028E00007BA76BFC6DE75BF0BFA74BFDD0B74BFC7
:1028F000471473BF521372BF080971BF73F56FBFDE
:102900009ED86EBF93B26DBF5E836CBF0C4B6BBF26
:10291000A7096ABF3CBF68BFD86B67BF880F66BF97
:1029200059AA64BF5A3C63BF97C561BF214660BFC7
:1029300005BE5EBF532D5DBF1A945BBF6AF259BFDF
:10294000534858BFE59556BF31DB54BF491853BFB4
:102950003D4D51BF207A4FBF029F4DBFF8BB4BBFCB
:1029600012D149BF65DE47BF03E445BF01E243BF63
:1029700070D841BF67C73FBFF9AE3DBF3B8F3BBF7C
:10298000426839BF233A37BFF30435BFC9C832BFE5
:10299000BB8530BFDE3B2EBF4AEB2BBF159429BF52
:1029A000563627BF25D224BF996722BFCBF61FBF5B
:1029B000D17F1DBFC6021BBFC07F18BFD9F615BF90
:1029C0002A6813BFCDD310BFDA390EBF6B9A0BBF85
:1029D0009BF508BF824B06BF3D9C03BFE4E700BFE9
:1029E000275DFCBECBE0F6BEEA5AF1BEBBCBEBBE28
:1029F0007533E6BE4F92E0BE80E8DABE4136D5BE02
:102A0000CA7BCFBE53B9C9BE15EFC3BE491DBEBEFA
:102A10002A44B8BEEF63B2BED47CACBE128FA6BE51
:102A2000E59AA0BE86A09ABE32A094BE229A8EBE1F
:102A3000938E88BEC07D82BECCCF78BE7F9A6CBE9E
:102A4000135C60BE011554BEC2C547BECF6E3BBE0F
:102A5000A2102FBEB5AB22BE834016BE87CF09BEE3
:102A600073B2FABD2FBCE1BD36BDC8BD80B6AFBDE7
:102A700004A996BD752B7BBD2EFB48BD2BC316BD8F
:102A8000B10AC9BC920E49BC00000080B82A0008F7
:102A90000000002048B700006C0100081C00000086
:102AA00043000000F8FFFFFF0C0000000E000000D4
:082AB0000F0000002E000000E1
:0400000508000131BD
:00000001FF
